{"abi":[{"type":"constructor","inputs":[{"name":"rightsPolicyManager","type":"address","internalType":"address"},{"name":"agreementManager","type":"address","internalType":"address"},{"name":"ledgerVault","type":"address","internalType":"address"},{"name":"mmc","type":"address","internalType":"address"}],"stateMutability":"nonpayable"},{"type":"function","name":"AGREEMENT_MANAGER","inputs":[],"outputs":[{"name":"","type":"address","internalType":"contract IAgreementManager"}],"stateMutability":"view"},{"type":"function","name":"LEDGER_VAULT","inputs":[],"outputs":[{"name":"","type":"address","internalType":"contract ILedgerVault"}],"stateMutability":"view"},{"type":"function","name":"MMC","inputs":[],"outputs":[{"name":"","type":"address","internalType":"address"}],"stateMutability":"view"},{"type":"function","name":"RIGHTS_POLICY_MANAGER","inputs":[],"outputs":[{"name":"","type":"address","internalType":"contract IRightsPolicyManager"}],"stateMutability":"view"},{"type":"function","name":"UPGRADE_INTERFACE_VERSION","inputs":[],"outputs":[{"name":"","type":"string","internalType":"string"}],"stateMutability":"view"},{"type":"function","name":"authority","inputs":[],"outputs":[{"name":"","type":"address","internalType":"address"}],"stateMutability":"view"},{"type":"function","name":"initialize","inputs":[{"name":"accessManager","type":"address","internalType":"address"}],"outputs":[],"stateMutability":"nonpayable"},{"type":"function","name":"isConsumingScheduledOp","inputs":[],"outputs":[{"name":"","type":"bytes4","internalType":"bytes4"}],"stateMutability":"view"},{"type":"function","name":"proxiableUUID","inputs":[],"outputs":[{"name":"","type":"bytes32","internalType":"bytes32"}],"stateMutability":"view"},{"type":"function","name":"registerAccessAgreement","inputs":[{"name":"amount","type":"uint256","internalType":"uint256"},{"name":"holder","type":"address","internalType":"address"},{"name":"policy","type":"address","internalType":"address"},{"name":"parties","type":"address[]","internalType":"address[]"},{"name":"payload","type":"bytes","internalType":"bytes"}],"outputs":[],"stateMutability":"nonpayable"},{"type":"function","name":"setAuthority","inputs":[{"name":"newAuthority","type":"address","internalType":"address"}],"outputs":[],"stateMutability":"nonpayable"},{"type":"function","name":"sponsoredAccessAgreement","inputs":[{"name":"holder","type":"address","internalType":"address"},{"name":"campaign","type":"address","internalType":"address"},{"name":"policy","type":"address","internalType":"address"},{"name":"parties","type":"address[]","internalType":"address[]"},{"name":"payload","type":"bytes","internalType":"bytes"}],"outputs":[],"stateMutability":"nonpayable"},{"type":"function","name":"upgradeToAndCall","inputs":[{"name":"newImplementation","type":"address","internalType":"address"},{"name":"data","type":"bytes","internalType":"bytes"}],"outputs":[],"stateMutability":"payable"},{"type":"event","name":"AccessAgreementCreated","inputs":[{"name":"account","type":"address","indexed":true,"internalType":"address"},{"name":"holder","type":"address","indexed":true,"internalType":"address"},{"name":"policy","type":"address","indexed":true,"internalType":"address"}],"anonymous":false},{"type":"event","name":"AuthorityUpdated","inputs":[{"name":"authority","type":"address","indexed":false,"internalType":"address"}],"anonymous":false},{"type":"event","name":"Initialized","inputs":[{"name":"version","type":"uint64","indexed":false,"internalType":"uint64"}],"anonymous":false},{"type":"event","name":"SponsoredAccessCreated","inputs":[{"name":"campaign","type":"address","indexed":true,"internalType":"address"},{"name":"holder","type":"address","indexed":true,"internalType":"address"},{"name":"policy","type":"address","indexed":true,"internalType":"address"}],"anonymous":false},{"type":"event","name":"Upgraded","inputs":[{"name":"implementation","type":"address","indexed":true,"internalType":"address"}],"anonymous":false},{"type":"error","name":"AccessManagedInvalidAuthority","inputs":[{"name":"authority","type":"address","internalType":"address"}]},{"type":"error","name":"AccessManagedRequiredDelay","inputs":[{"name":"caller","type":"address","internalType":"address"},{"name":"delay","type":"uint32","internalType":"uint32"}]},{"type":"error","name":"AccessManagedUnauthorized","inputs":[{"name":"caller","type":"address","internalType":"address"}]},{"type":"error","name":"AddressEmptyCode","inputs":[{"name":"target","type":"address","internalType":"address"}]},{"type":"error","name":"ERC1967InvalidImplementation","inputs":[{"name":"implementation","type":"address","internalType":"address"}]},{"type":"error","name":"ERC1967NonPayable","inputs":[]},{"type":"error","name":"FailedCall","inputs":[]},{"type":"error","name":"InvalidInitialization","inputs":[]},{"type":"error","name":"InvalidUnauthorizedOperation","inputs":[{"name":"","type":"string","internalType":"string"}]},{"type":"error","name":"NotInitializing","inputs":[]},{"type":"error","name":"UUPSUnauthorizedCallContext","inputs":[]},{"type":"error","name":"UUPSUnsupportedProxiableUUID","inputs":[{"name":"slot","type":"bytes32","internalType":"bytes32"}]}],"bytecode":{"object":"0x610120346101ac57601f61196338819003918201601f19168301916001600160401b038311848410176101b0578084926080946040528339810103126101ac57610048816101c4565b610054602083016101c4565b9061006d6060610066604086016101c4565b94016101c4565b92306080527ff0c57e16840df040f15088dc2f81fe391c3923bec73e23a9662efc9c229c6a005460ff8160401c1661019d576002600160401b03196001600160401b03821601610134575b506001600160a01b0390811660e05290811660c052166101005260a05260405161178a90816101d982396080518181816108b501526109b6015260a051818181610e08015261128b015260c05181818160d6015261120c015260e05181818161047e01526112d0015261010051818181610ff501526113c30152f35b6001600160401b0319166001600160401b039081177ff0c57e16840df040f15088dc2f81fe391c3923bec73e23a9662efc9c229c6a00556040519081527fc7f505b2f371ae2175ee4913f4499e1f2633a7b5936321eed1cdaeb6115181d290602090a15f6100b8565b63f92ee8a960e01b5f5260045ffd5b5f80fd5b634e487b7160e01b5f52604160045260245ffd5b51906001600160a01b03821682036101ac5756fe6080806040526004361015610012575f80fd5b5f3560e01c908162efe0c314610fcb57508063290ed22114610e2c57806344dea5a714610ddc5780634f1ef2861461092d57806352d1902d1461088e5780637a9e5e4b146107b75780638d208718146105c95780638fb3603714610536578063ad3cb1cc146104a2578063bc23e35e14610452578063bf7e214f14610400578063c4d66de8146100fe5763f1bdc452146100aa575f80fd5b346100fa575f6003193601126100fa57602060405173ffffffffffffffffffffffffffffffffffffffff7f0000000000000000000000000000000000000000000000000000000000000000168152f35b5f80fd5b346100fa5760206003193601126100fa5761011761105f565b7ff0c57e16840df040f15088dc2f81fe391c3923bec73e23a9662efc9c229c6a005460ff8160401c16159167ffffffffffffffff8216801590816103f8575b60011490816103ee575b1590816103e5575b506103bd57818360017fffffffffffffffffffffffffffffffffffffffffffffffff000000000000000073ffffffffffffffffffffffffffffffffffffffff9516177ff0c57e16840df040f15088dc2f81fe391c3923bec73e23a9662efc9c229c6a0055610368575b506101da611664565b6101e2611664565b6101ea611664565b6101f2611664565b6101fb816115b9565b610203611664565b16801561030a577fffffffffffffffffffffffff00000000000000000000000000000000000000007fb8e950798a2a06a6f5727a94041b193569f4f67d69a0de3cf866d93822e7fa005416177fb8e950798a2a06a6f5727a94041b193569f4f67d69a0de3cf866d93822e7fa005561027757005b7fffffffffffffffffffffffffffffffffffffffffffffff00ffffffffffffffff7ff0c57e16840df040f15088dc2f81fe391c3923bec73e23a9662efc9c229c6a0054167ff0c57e16840df040f15088dc2f81fe391c3923bec73e23a9662efc9c229c6a00557fc7f505b2f371ae2175ee4913f4499e1f2633a7b5936321eed1cdaeb6115181d2602060405160018152a1005b60646040517f6317e35f00000000000000000000000000000000000000000000000000000000815260206004820152601a60248201527f496e76616c696420617574686f7269747920616464726573732e0000000000006044820152fd5b7fffffffffffffffffffffffffffffffffffffffffffffff0000000000000000001668010000000000000001177ff0c57e16840df040f15088dc2f81fe391c3923bec73e23a9662efc9c229c6a0055836101d1565b7ff92ee8a9000000000000000000000000000000000000000000000000000000005f5260045ffd5b90501584610168565b303b159150610160565b849150610156565b346100fa575f6003193601126100fa57602073ffffffffffffffffffffffffffffffffffffffff7ff3177357ab46d8af007ab3fdb9af81da189e1068fefdc0073dca88a2cab40a005416604051908152f35b346100fa575f6003193601126100fa57602060405173ffffffffffffffffffffffffffffffffffffffff7f0000000000000000000000000000000000000000000000000000000000000000168152f35b346100fa575f6003193601126100fa5760408051906104c181836110e1565b6005825260208201917f352e302e3000000000000000000000000000000000000000000000000000000083527fffffffffffffffffffffffffffffffffffffffffffffffffffffffffffffffe0601f8351948593602085525180918160208701528686015e5f85828601015201168101030190f35b346100fa575f6003193601126100fa577ff3177357ab46d8af007ab3fdb9af81da189e1068fefdc0073dca88a2cab40a005460a01c60ff16156105c15760207f8fb36037000000000000000000000000000000000000000000000000000000005b7fffffffff0000000000000000000000000000000000000000000000000000000060405191168152f35b60205f610597565b346100fa5760a06003193601126100fa576105e261105f565b6105ea611019565b6105f261103c565b9060643567ffffffffffffffff81116100fa57610613903690600401611082565b60849491943567ffffffffffffffff81116100fa576106369036906004016110b3565b9173ffffffffffffffffffffffffffffffffffffffff86169661065a881515611189565b73ffffffffffffffffffffffffffffffffffffffff861696871561075957604051967f522bb7040000000000000000000000000000000000000000000000000000000088523360048901526020886024815f8d5af197881561074e575f9861070c575b5090866106e3969594939273ffffffffffffffffffffffffffffffffffffffff996111ee565b5016907ff70dc4549d50aa2d2a751a981023ce502e5c3bee2f39b634a1b1d6458e78be685f80a4005b975094939291906020883d602011610746575b8161072c602093836110e1565b810103126100fa57965196939492939192909190866106bd565b3d915061071f565b6040513d5f823e3d90fd5b60646040517f08c379a000000000000000000000000000000000000000000000000000000000815260206004820152601f60248201527f43616d706169676e20616464726573732063616e6e6f74206265207a65726f006044820152fd5b346100fa5760206003193601126100fa576107d061105f565b73ffffffffffffffffffffffffffffffffffffffff7ff3177357ab46d8af007ab3fdb9af81da189e1068fefdc0073dca88a2cab40a005416330361086257803b156108205761081e906115b9565b005b73ffffffffffffffffffffffffffffffffffffffff907fc2f31e5e000000000000000000000000000000000000000000000000000000005f521660045260245ffd5b7f068ca9d8000000000000000000000000000000000000000000000000000000005f523360045260245ffd5b346100fa575f6003193601126100fa5773ffffffffffffffffffffffffffffffffffffffff7f00000000000000000000000000000000000000000000000000000000000000001630036109055760206040517f360894a13ba1a3210667c828492db98dca3e2076cc3735a920a3ca505d382bbc8152f35b7fe07c8dba000000000000000000000000000000000000000000000000000000005f5260045ffd5b60406003193601126100fa5761094161105f565b6024359067ffffffffffffffff82116100fa57366023830112156100fa5781600401359061096e8261114f565b9161097c60405193846110e1565b808352602083019336602483830101116100fa57815f9260246020930187378401015273ffffffffffffffffffffffffffffffffffffffff7f000000000000000000000000000000000000000000000000000000000000000016803014908115610d9a575b50610905576044604073ffffffffffffffffffffffffffffffffffffffff7fb8e950798a2a06a6f5727a94041b193569f4f67d69a0de3cf866d93822e7fa0054168151928380927fd1f856ee0000000000000000000000000000000000000000000000000000000082525f60048301523360248301525afa801561074e575f915f91610d49575b5081610d3a575b5015610cb65773ffffffffffffffffffffffffffffffffffffffff8116926040517f52d1902d000000000000000000000000000000000000000000000000000000008152602081600481885afa5f9181610c82575b50610af557847f4c9c8ce3000000000000000000000000000000000000000000000000000000005f5260045260245ffd5b807f360894a13ba1a3210667c828492db98dca3e2076cc3735a920a3ca505d382bbc869203610c575750823b15610c2c57807fffffffffffffffffffffffff00000000000000000000000000000000000000007f360894a13ba1a3210667c828492db98dca3e2076cc3735a920a3ca505d382bbc5416177f360894a13ba1a3210667c828492db98dca3e2076cc3735a920a3ca505d382bbc557fbc7cd75a20ee27fd9adebab32041f755214dbc6bffa90cc0225b39da2e5c2d3b5f80a2825115610bfa575f809161081e945190845af43d15610bf2573d91610bd68361114f565b92610be460405194856110e1565b83523d5f602085013e6116bb565b6060916116bb565b50505034610c0457005b7fb398979f000000000000000000000000000000000000000000000000000000005f5260045ffd5b7f4c9c8ce3000000000000000000000000000000000000000000000000000000005f5260045260245ffd5b7faa1d49a4000000000000000000000000000000000000000000000000000000005f5260045260245ffd5b9091506020813d602011610cae575b81610c9e602093836110e1565b810103126100fa57519086610ac4565b3d9150610c91565b60846040517f6317e35f00000000000000000000000000000000000000000000000000000000815260206004820152602360248201527f4f6e6c792061646d696e2063616e20706572666f726d2074686973206163746960448201527f6f6e2e00000000000000000000000000000000000000000000000000000000006064820152fd5b63ffffffff9150161584610a6f565b9150506040813d604011610d92575b81610d65604093836110e1565b810103126100fa5780519081151582036100fa57602001519063ffffffff821682036100fa579085610a68565b3d9150610d58565b905073ffffffffffffffffffffffffffffffffffffffff7f360894a13ba1a3210667c828492db98dca3e2076cc3735a920a3ca505d382bbc54161415846109e1565b346100fa575f6003193601126100fa57602060405173ffffffffffffffffffffffffffffffffffffffff7f0000000000000000000000000000000000000000000000000000000000000000168152f35b346100fa5760a06003193601126100fa57600435610e48611019565b610e5061103c565b9060643567ffffffffffffffff81116100fa57610e71903690600401611082565b60849491943567ffffffffffffffff81116100fa57610e949036906004016110b3565b918315610f6d5773ffffffffffffffffffffffffffffffffffffffff861696610ebe881515611189565b8115610f0f5773ffffffffffffffffffffffffffffffffffffffff9686610ee69633906111ee565b5016337f908facb3002789eac65c460213d8f5b3324d4ec88047db80acb3fd45002edeea5f80a4005b60646040517f08c379a000000000000000000000000000000000000000000000000000000000815260206004820152601760248201527f506172746965732063616e6e6f7420626520656d7074790000000000000000006044820152fd5b60646040517f08c379a000000000000000000000000000000000000000000000000000000000815260206004820152601560248201527f416d6f756e742063616e6e6f74206265207a65726f00000000000000000000006044820152fd5b346100fa575f6003193601126100fa5760209073ffffffffffffffffffffffffffffffffffffffff7f0000000000000000000000000000000000000000000000000000000000000000168152f35b6024359073ffffffffffffffffffffffffffffffffffffffff821682036100fa57565b6044359073ffffffffffffffffffffffffffffffffffffffff821682036100fa57565b6004359073ffffffffffffffffffffffffffffffffffffffff821682036100fa57565b9181601f840112156100fa5782359167ffffffffffffffff83116100fa576020808501948460051b0101116100fa57565b9181601f840112156100fa5782359167ffffffffffffffff83116100fa57602083818601950101116100fa57565b90601f7fffffffffffffffffffffffffffffffffffffffffffffffffffffffffffffffe0910116810190811067ffffffffffffffff82111761112257604052565b7f4e487b71000000000000000000000000000000000000000000000000000000005f52604160045260245ffd5b67ffffffffffffffff811161112257601f017fffffffffffffffffffffffffffffffffffffffffffffffffffffffffffffffe01660200190565b1561119057565b60646040517f08c379a000000000000000000000000000000000000000000000000000000000815260206004820152601d60248201527f506f6c69637920616464726573732063616e6e6f74206265207a65726f0000006044820152fd5b9392969195909473ffffffffffffffffffffffffffffffffffffffff7f0000000000000000000000000000000000000000000000000000000000000000169473ffffffffffffffffffffffffffffffffffffffff604051977f2c2eb94a000000000000000000000000000000000000000000000000000000008952166004880152602487015273ffffffffffffffffffffffffffffffffffffffff7f000000000000000000000000000000000000000000000000000000000000000016958660448201526020816064815f73ffffffffffffffffffffffffffffffffffffffff7f0000000000000000000000000000000000000000000000000000000000000000165af1801561074e5782915f91611584575b50969392916040519788957f3f5d1b6f00000000000000000000000000000000000000000000000000000000875260a48701916004880152602487015287604487015260a060648701525260c4840194905f905b80821061154457505050837fffffffffffffffffffffffffffffffffffffffffffffffffffffffffffffffe0601f84602097958795600319878b9903016084880152818652878601375f8682860101520116010301815f73ffffffffffffffffffffffffffffffffffffffff7f0000000000000000000000000000000000000000000000000000000000000000165af191821561074e575f926114fa575b505f92918360649273ffffffffffffffffffffffffffffffffffffffff809760405198899788967f9f7434f400000000000000000000000000000000000000000000000000000000885260048801521660248601521660448401525af190811561074e575f91611461575090565b90503d805f833e61147281836110e1565b8101906020818303126100fa5780519067ffffffffffffffff82116100fa57019080601f830112156100fa5781519167ffffffffffffffff8311611122578260051b90604051936114c660208401866110e1565b84526020808501928201019283116100fa57602001905b8282106114ea5750505090565b81518152602091820191016114dd565b9291506020833d60201161153c575b81611516602093836110e1565b810103126100fa579151909173ffffffffffffffffffffffffffffffffffffffff6113f3565b3d9150611509565b9195909293945085359073ffffffffffffffffffffffffffffffffffffffff82168092036100fa5760208160019382935201960192018794939291611355565b9150506020813d6020116115b1575b816115a0602093836110e1565b810103126100fa578190515f611301565b3d9150611593565b602073ffffffffffffffffffffffffffffffffffffffff7f2f658b440c35314f52658ea8a740e05b284cdc84dc9ae01e891f21b8933e7cad9216807fffffffffffffffffffffffff00000000000000000000000000000000000000007ff3177357ab46d8af007ab3fdb9af81da189e1068fefdc0073dca88a2cab40a005416177ff3177357ab46d8af007ab3fdb9af81da189e1068fefdc0073dca88a2cab40a0055604051908152a1565b60ff7ff0c57e16840df040f15088dc2f81fe391c3923bec73e23a9662efc9c229c6a005460401c161561169357565b7fd7e6bcf8000000000000000000000000000000000000000000000000000000005f5260045ffd5b906116f857508051156116d057805190602001fd5b7fd6bda275000000000000000000000000000000000000000000000000000000005f5260045ffd5b8151158061174b575b611709575090565b73ffffffffffffffffffffffffffffffffffffffff907f9996b315000000000000000000000000000000000000000000000000000000005f521660045260245ffd5b50803b1561170156fea26469706673582212209511130c5d3870afba6f05ebbf2253aa3ad198428953339f447faa98eaaf538b64736f6c634300081a0033","linkReferences":{}},"methodIdentifiers":{"AGREEMENT_MANAGER()":"00efe0c3","LEDGER_VAULT()":"bc23e35e","MMC()":"44dea5a7","RIGHTS_POLICY_MANAGER()":"f1bdc452","UPGRADE_INTERFACE_VERSION()":"ad3cb1cc","authority()":"bf7e214f","initialize(address)":"c4d66de8","isConsumingScheduledOp()":"8fb36037","proxiableUUID()":"52d1902d","registerAccessAgreement(uint256,address,address,address[],bytes)":"290ed221","setAuthority(address)":"7a9e5e4b","sponsoredAccessAgreement(address,address,address,address[],bytes)":"8d208718","upgradeToAndCall(address,bytes)":"4f1ef286"},"storageLayout":{"storage":[],"types":{}},"id":7}