{"abi":[{"type":"constructor","inputs":[{"name":"rightsPolicyManager","type":"address","internalType":"address"},{"name":"agreementManager","type":"address","internalType":"address"},{"name":"mmc","type":"address","internalType":"address"}],"stateMutability":"nonpayable"},{"type":"function","name":"AGREEMENT_MANAGER","inputs":[],"outputs":[{"name":"","type":"address","internalType":"contract IAgreementManager"}],"stateMutability":"view"},{"type":"function","name":"MMC","inputs":[],"outputs":[{"name":"","type":"address","internalType":"contract IERC20"}],"stateMutability":"view"},{"type":"function","name":"RIGHTS_POLICY_MANAGER","inputs":[],"outputs":[{"name":"","type":"address","internalType":"contract IRightsPolicyManager"}],"stateMutability":"view"},{"type":"function","name":"UPGRADE_INTERFACE_VERSION","inputs":[],"outputs":[{"name":"","type":"string","internalType":"string"}],"stateMutability":"view"},{"type":"function","name":"authority","inputs":[],"outputs":[{"name":"","type":"address","internalType":"address"}],"stateMutability":"view"},{"type":"function","name":"initialize","inputs":[{"name":"accessManager","type":"address","internalType":"address"}],"outputs":[],"stateMutability":"nonpayable"},{"type":"function","name":"isConsumingScheduledOp","inputs":[],"outputs":[{"name":"","type":"bytes4","internalType":"bytes4"}],"stateMutability":"view"},{"type":"function","name":"proxiableUUID","inputs":[],"outputs":[{"name":"","type":"bytes32","internalType":"bytes32"}],"stateMutability":"view"},{"type":"function","name":"registerAccessAgreement","inputs":[{"name":"amount","type":"uint256","internalType":"uint256"},{"name":"holder","type":"address","internalType":"address"},{"name":"policyAddress","type":"address","internalType":"address"},{"name":"parties","type":"address[]","internalType":"address[]"},{"name":"payload","type":"bytes","internalType":"bytes"}],"outputs":[{"name":"","type":"uint256[]","internalType":"uint256[]"}],"stateMutability":"nonpayable"},{"type":"function","name":"setAuthority","inputs":[{"name":"newAuthority","type":"address","internalType":"address"}],"outputs":[],"stateMutability":"nonpayable"},{"type":"function","name":"upgradeToAndCall","inputs":[{"name":"newImplementation","type":"address","internalType":"address"},{"name":"data","type":"bytes","internalType":"bytes"}],"outputs":[],"stateMutability":"payable"},{"type":"event","name":"AccessAgreementCreated","inputs":[{"name":"holder","type":"address","indexed":true,"internalType":"address"},{"name":"policyAddress","type":"address","indexed":true,"internalType":"address"},{"name":"proof","type":"uint256","indexed":false,"internalType":"uint256"},{"name":"amount","type":"uint256","indexed":false,"internalType":"uint256"}],"anonymous":false},{"type":"event","name":"AuthorityUpdated","inputs":[{"name":"authority","type":"address","indexed":false,"internalType":"address"}],"anonymous":false},{"type":"event","name":"Initialized","inputs":[{"name":"version","type":"uint64","indexed":false,"internalType":"uint64"}],"anonymous":false},{"type":"event","name":"Upgraded","inputs":[{"name":"implementation","type":"address","indexed":true,"internalType":"address"}],"anonymous":false},{"type":"error","name":"AccessManagedInvalidAuthority","inputs":[{"name":"authority","type":"address","internalType":"address"}]},{"type":"error","name":"AccessManagedRequiredDelay","inputs":[{"name":"caller","type":"address","internalType":"address"},{"name":"delay","type":"uint32","internalType":"uint32"}]},{"type":"error","name":"AccessManagedUnauthorized","inputs":[{"name":"caller","type":"address","internalType":"address"}]},{"type":"error","name":"AddressEmptyCode","inputs":[{"name":"target","type":"address","internalType":"address"}]},{"type":"error","name":"ERC1967InvalidImplementation","inputs":[{"name":"implementation","type":"address","internalType":"address"}]},{"type":"error","name":"ERC1967NonPayable","inputs":[]},{"type":"error","name":"FailedCall","inputs":[]},{"type":"error","name":"InvalidInitialization","inputs":[]},{"type":"error","name":"InvalidUnauthorizedOperation","inputs":[{"name":"","type":"string","internalType":"string"}]},{"type":"error","name":"NotInitializing","inputs":[]},{"type":"error","name":"UUPSUnauthorizedCallContext","inputs":[]},{"type":"error","name":"UUPSUnsupportedProxiableUUID","inputs":[{"name":"slot","type":"bytes32","internalType":"bytes32"}]}],"bytecode":{"object":"0x6101003461018b57601f61156c38819003918201601f19168301916001600160401b0383118484101761018f5780849260609460405283398101031261018b57610048816101a3565b90610061604061005a602084016101a3565b92016101a3565b91306080527ff0c57e16840df040f15088dc2f81fe391c3923bec73e23a9662efc9c229c6a005460ff8160401c1661017c576002600160401b03196001600160401b03821601610113575b506001600160a01b0390811660a05290811660c0521660e0526040516113b490816101b882396080518181816105fd01526106fe015260a05181818160c00152610c66015260c051818181610d820152611121015260e051818181610b400152610cd20152f35b6001600160401b0319166001600160401b039081177ff0c57e16840df040f15088dc2f81fe391c3923bec73e23a9662efc9c229c6a00556040519081527fc7f505b2f371ae2175ee4913f4499e1f2633a7b5936321eed1cdaeb6115181d290602090a15f6100ac565b63f92ee8a960e01b5f5260045ffd5b5f80fd5b634e487b7160e01b5f52604160045260245ffd5b51906001600160a01b038216820361018b5756fe6080806040526004361015610012575f80fd5b5f3560e01c908162efe0c3146110f757508063290ed22114610b6457806344dea5a714610b145780634f1ef2861461067557806352d1902d146105d65780637a9e5e4b146104ff5780638fb360371461046c578063ad3cb1cc146103d8578063bf7e214f14610386578063c4d66de8146100e85763f1bdc45214610094575f80fd5b346100e4575f6003193601126100e457602060405173ffffffffffffffffffffffffffffffffffffffff7f0000000000000000000000000000000000000000000000000000000000000000168152f35b5f80fd5b346100e45760206003193601126100e457610101611145565b7ff0c57e16840df040f15088dc2f81fe391c3923bec73e23a9662efc9c229c6a005460ff8160401c16159167ffffffffffffffff82168015908161037e575b6001149081610374575b15908161036b575b5061034357818360017fffffffffffffffffffffffffffffffffffffffffffffffff000000000000000073ffffffffffffffffffffffffffffffffffffffff9516177ff0c57e16840df040f15088dc2f81fe391c3923bec73e23a9662efc9c229c6a00556102ee575b506101c461128e565b6101cc61128e565b6101d461128e565b6101dc61128e565b6101e5816111e3565b6101ed61128e565b167fffffffffffffffffffffffff00000000000000000000000000000000000000007fb8e950798a2a06a6f5727a94041b193569f4f67d69a0de3cf866d93822e7fa005416177fb8e950798a2a06a6f5727a94041b193569f4f67d69a0de3cf866d93822e7fa005561025b57005b7fffffffffffffffffffffffffffffffffffffffffffffff00ffffffffffffffff7ff0c57e16840df040f15088dc2f81fe391c3923bec73e23a9662efc9c229c6a0054167ff0c57e16840df040f15088dc2f81fe391c3923bec73e23a9662efc9c229c6a00557fc7f505b2f371ae2175ee4913f4499e1f2633a7b5936321eed1cdaeb6115181d2602060405160018152a1005b7fffffffffffffffffffffffffffffffffffffffffffffff0000000000000000001668010000000000000001177ff0c57e16840df040f15088dc2f81fe391c3923bec73e23a9662efc9c229c6a0055836101bb565b7ff92ee8a9000000000000000000000000000000000000000000000000000000005f5260045ffd5b90501584610152565b303b15915061014a565b849150610140565b346100e4575f6003193601126100e457602073ffffffffffffffffffffffffffffffffffffffff7ff3177357ab46d8af007ab3fdb9af81da189e1068fefdc0073dca88a2cab40a005416604051908152f35b346100e4575f6003193601126100e45760408051906103f78183611168565b6005825260208201917f352e302e3000000000000000000000000000000000000000000000000000000083527fffffffffffffffffffffffffffffffffffffffffffffffffffffffffffffffe0601f8351948593602085525180918160208701528686015e5f85828601015201168101030190f35b346100e4575f6003193601126100e4577ff3177357ab46d8af007ab3fdb9af81da189e1068fefdc0073dca88a2cab40a005460a01c60ff16156104f75760207f8fb36037000000000000000000000000000000000000000000000000000000005b7fffffffff0000000000000000000000000000000000000000000000000000000060405191168152f35b60205f6104cd565b346100e45760206003193601126100e457610518611145565b73ffffffffffffffffffffffffffffffffffffffff7ff3177357ab46d8af007ab3fdb9af81da189e1068fefdc0073dca88a2cab40a00541633036105aa57803b1561056857610566906111e3565b005b73ffffffffffffffffffffffffffffffffffffffff907fc2f31e5e000000000000000000000000000000000000000000000000000000005f521660045260245ffd5b7f068ca9d8000000000000000000000000000000000000000000000000000000005f523360045260245ffd5b346100e4575f6003193601126100e45773ffffffffffffffffffffffffffffffffffffffff7f000000000000000000000000000000000000000000000000000000000000000016300361064d5760206040517f360894a13ba1a3210667c828492db98dca3e2076cc3735a920a3ca505d382bbc8152f35b7fe07c8dba000000000000000000000000000000000000000000000000000000005f5260045ffd5b60406003193601126100e457610689611145565b6024359067ffffffffffffffff82116100e457366023830112156100e4578160040135906106b6826111a9565b916106c46040519384611168565b808352602083019336602483830101116100e457815f9260246020930187378401015273ffffffffffffffffffffffffffffffffffffffff7f000000000000000000000000000000000000000000000000000000000000000016803014908115610ad2575b5061064d576044604073ffffffffffffffffffffffffffffffffffffffff7fb8e950798a2a06a6f5727a94041b193569f4f67d69a0de3cf866d93822e7fa0054168151928380927fd1f856ee0000000000000000000000000000000000000000000000000000000082525f60048301523360248301525afa908115610ac7575f91610a7a575b50156109f65773ffffffffffffffffffffffffffffffffffffffff8116926040517f52d1902d000000000000000000000000000000000000000000000000000000008152602081600481885afa5f91816109c2575b5061083557847f4c9c8ce3000000000000000000000000000000000000000000000000000000005f5260045260245ffd5b807f360894a13ba1a3210667c828492db98dca3e2076cc3735a920a3ca505d382bbc8692036109975750823b1561096c57807fffffffffffffffffffffffff00000000000000000000000000000000000000007f360894a13ba1a3210667c828492db98dca3e2076cc3735a920a3ca505d382bbc5416177f360894a13ba1a3210667c828492db98dca3e2076cc3735a920a3ca505d382bbc557fbc7cd75a20ee27fd9adebab32041f755214dbc6bffa90cc0225b39da2e5c2d3b5f80a282511561093a575f8091610566945190845af43d15610932573d91610916836111a9565b926109246040519485611168565b83523d5f602085013e6112e5565b6060916112e5565b5050503461094457005b7fb398979f000000000000000000000000000000000000000000000000000000005f5260045ffd5b7f4c9c8ce3000000000000000000000000000000000000000000000000000000005f5260045260245ffd5b7faa1d49a4000000000000000000000000000000000000000000000000000000005f5260045260245ffd5b9091506020813d6020116109ee575b816109de60209383611168565b810103126100e457519086610804565b3d91506109d1565b60846040517f6317e35f00000000000000000000000000000000000000000000000000000000815260206004820152602360248201527f4f6e6c792061646d696e2063616e20706572666f726d2074686973206163746960448201527f6f6e2e00000000000000000000000000000000000000000000000000000000006064820152fd5b90506040813d604011610abf575b81610a9560409383611168565b810103126100e45780519081151582036100e4576020015163ffffffff8116036100e457846107af565b3d9150610a88565b6040513d5f823e3d90fd5b905073ffffffffffffffffffffffffffffffffffffffff7f360894a13ba1a3210667c828492db98dca3e2076cc3735a920a3ca505d382bbc5416141584610729565b346100e4575f6003193601126100e457602060405173ffffffffffffffffffffffffffffffffffffffff7f0000000000000000000000000000000000000000000000000000000000000000168152f35b346100e45760a06003193601126100e45760043560243573ffffffffffffffffffffffffffffffffffffffff81168091036100e4576044359073ffffffffffffffffffffffffffffffffffffffff82168092036100e4576064359267ffffffffffffffff84116100e457366023850112156100e45783600401359067ffffffffffffffff82116100e4573660248360051b870101116100e4576084359467ffffffffffffffff86116100e457366023870112156100e457856004013567ffffffffffffffff81116100e45736602482890101116100e457821561109957851561103b578315610fdd57959273ffffffffffffffffffffffffffffffffffffffff7f000000000000000000000000000000000000000000000000000000000000000016966040519485927f3f5d1b6f0000000000000000000000000000000000000000000000000000000084528060a4850187600487015273ffffffffffffffffffffffffffffffffffffffff7f00000000000000000000000000000000000000000000000000000000000000001660248701528b604487015260a0606487015252602460c485019501905f905b808210610f9d57505050837fffffffffffffffffffffffffffffffffffffffffffffffffffffffffffffffe0601f846020979560248896600319888c9a0301608489015282875201878601375f8682860101520116010301815f73ffffffffffffffffffffffffffffffffffffffff7f0000000000000000000000000000000000000000000000000000000000000000165af1918215610ac7575f92610f67575b505f80956064604051809881937f9f7434f40000000000000000000000000000000000000000000000000000000083528760048401528860248401528960448401525af1948515610ac7575f95610e79575b507f8cd9a647baec62fb1bd2494f394b09cfbf79545a0b3ba82a6ce7b934fc4077899160409182519182526020820152a36040518091602082016020835281518091526020604084019201905f5b818110610e60575050500390f35b8251845285945060209384019390920191600101610e52565b9094503d805f833e610e8b8183611168565b8101906020818303126100e45780519067ffffffffffffffff82116100e457019080601f830112156100e45781519167ffffffffffffffff8311610f3a578260051b9060405193610edf6020840186611168565b84526020808501928201019283116100e457602001905b828210610f2a5750919591507f8cd9a647baec62fb1bd2494f394b09cfbf79545a0b3ba82a6ce7b934fc4077899050610e04565b8151815260209182019101610ef6565b7f4e487b71000000000000000000000000000000000000000000000000000000005f52604160045260245ffd5b9491506020853d602011610f95575b81610f8360209383611168565b810103126100e457935190935f610db2565b3d9150610f76565b9195909293945085359073ffffffffffffffffffffffffffffffffffffffff82168092036100e45760208160019382935201960192018794939291610d11565b60646040517f08c379a000000000000000000000000000000000000000000000000000000000815260206004820152601760248201527f506172746965732063616e6e6f7420626520656d7074790000000000000000006044820152fd5b60646040517f08c379a000000000000000000000000000000000000000000000000000000000815260206004820152601d60248201527f506f6c69637920616464726573732063616e6e6f74206265207a65726f0000006044820152fd5b60646040517f08c379a000000000000000000000000000000000000000000000000000000000815260206004820152601560248201527f416d6f756e742063616e6e6f74206265207a65726f00000000000000000000006044820152fd5b346100e4575f6003193601126100e45760209073ffffffffffffffffffffffffffffffffffffffff7f0000000000000000000000000000000000000000000000000000000000000000168152f35b6004359073ffffffffffffffffffffffffffffffffffffffff821682036100e457565b90601f7fffffffffffffffffffffffffffffffffffffffffffffffffffffffffffffffe0910116810190811067ffffffffffffffff821117610f3a57604052565b67ffffffffffffffff8111610f3a57601f017fffffffffffffffffffffffffffffffffffffffffffffffffffffffffffffffe01660200190565b602073ffffffffffffffffffffffffffffffffffffffff7f2f658b440c35314f52658ea8a740e05b284cdc84dc9ae01e891f21b8933e7cad9216807fffffffffffffffffffffffff00000000000000000000000000000000000000007ff3177357ab46d8af007ab3fdb9af81da189e1068fefdc0073dca88a2cab40a005416177ff3177357ab46d8af007ab3fdb9af81da189e1068fefdc0073dca88a2cab40a0055604051908152a1565b60ff7ff0c57e16840df040f15088dc2f81fe391c3923bec73e23a9662efc9c229c6a005460401c16156112bd57565b7fd7e6bcf8000000000000000000000000000000000000000000000000000000005f5260045ffd5b9061132257508051156112fa57805190602001fd5b7fd6bda275000000000000000000000000000000000000000000000000000000005f5260045ffd5b81511580611375575b611333575090565b73ffffffffffffffffffffffffffffffffffffffff907f9996b315000000000000000000000000000000000000000000000000000000005f521660045260245ffd5b50803b1561132b56fea26469706673582212205820754a04ca0b0a3942409cfe71d6906ffd4bbcc7ea28d600bd6aadded56c0764736f6c634300081a0033","linkReferences":{}},"methodIdentifiers":{"AGREEMENT_MANAGER()":"00efe0c3","MMC()":"44dea5a7","RIGHTS_POLICY_MANAGER()":"f1bdc452","UPGRADE_INTERFACE_VERSION()":"ad3cb1cc","authority()":"bf7e214f","initialize(address)":"c4d66de8","isConsumingScheduledOp()":"8fb36037","proxiableUUID()":"52d1902d","registerAccessAgreement(uint256,address,address,address[],bytes)":"290ed221","setAuthority(address)":"7a9e5e4b","upgradeToAndCall(address,bytes)":"4f1ef286"},"storageLayout":{"storage":[],"types":{}},"id":6}