{"abi":[{"type":"constructor","inputs":[{"name":"rightsPolicyManager","type":"address","internalType":"address"}],"stateMutability":"nonpayable"},{"type":"function","name":"RIGHTS_POLICY_MANAGER","inputs":[],"outputs":[{"name":"","type":"address","internalType":"contract IRightsPolicyManager"}],"stateMutability":"view"},{"type":"function","name":"UPGRADE_INTERFACE_VERSION","inputs":[],"outputs":[{"name":"","type":"string","internalType":"string"}],"stateMutability":"view"},{"type":"function","name":"authority","inputs":[],"outputs":[{"name":"","type":"address","internalType":"address"}],"stateMutability":"view"},{"type":"function","name":"initialize","inputs":[{"name":"accessManager","type":"address","internalType":"address"}],"outputs":[],"stateMutability":"nonpayable"},{"type":"function","name":"isAccessAllowedByAsset","inputs":[{"name":"account","type":"address","internalType":"address"},{"name":"assetId","type":"uint256","internalType":"uint256"}],"outputs":[{"name":"","type":"bool","internalType":"bool"}],"stateMutability":"view"},{"type":"function","name":"isAccessAllowedByHolder","inputs":[{"name":"account","type":"address","internalType":"address"},{"name":"holder","type":"address","internalType":"address"}],"outputs":[{"name":"","type":"bool","internalType":"bool"}],"stateMutability":"view"},{"type":"function","name":"isConsumingScheduledOp","inputs":[],"outputs":[{"name":"","type":"bytes4","internalType":"bytes4"}],"stateMutability":"view"},{"type":"function","name":"proxiableUUID","inputs":[],"outputs":[{"name":"","type":"bytes32","internalType":"bytes32"}],"stateMutability":"view"},{"type":"function","name":"setAuthority","inputs":[{"name":"newAuthority","type":"address","internalType":"address"}],"outputs":[],"stateMutability":"nonpayable"},{"type":"function","name":"upgradeToAndCall","inputs":[{"name":"newImplementation","type":"address","internalType":"address"},{"name":"data","type":"bytes","internalType":"bytes"}],"outputs":[],"stateMutability":"payable"},{"type":"event","name":"AuthorityUpdated","inputs":[{"name":"authority","type":"address","indexed":false,"internalType":"address"}],"anonymous":false},{"type":"event","name":"Initialized","inputs":[{"name":"version","type":"uint64","indexed":false,"internalType":"uint64"}],"anonymous":false},{"type":"event","name":"Upgraded","inputs":[{"name":"implementation","type":"address","indexed":true,"internalType":"address"}],"anonymous":false},{"type":"error","name":"AccessManagedInvalidAuthority","inputs":[{"name":"authority","type":"address","internalType":"address"}]},{"type":"error","name":"AccessManagedRequiredDelay","inputs":[{"name":"caller","type":"address","internalType":"address"},{"name":"delay","type":"uint32","internalType":"uint32"}]},{"type":"error","name":"AccessManagedUnauthorized","inputs":[{"name":"caller","type":"address","internalType":"address"}]},{"type":"error","name":"AddressEmptyCode","inputs":[{"name":"target","type":"address","internalType":"address"}]},{"type":"error","name":"ERC1967InvalidImplementation","inputs":[{"name":"implementation","type":"address","internalType":"address"}]},{"type":"error","name":"ERC1967NonPayable","inputs":[]},{"type":"error","name":"FailedCall","inputs":[]},{"type":"error","name":"InvalidInitialization","inputs":[]},{"type":"error","name":"InvalidUnauthorizedOperation","inputs":[{"name":"","type":"string","internalType":"string"}]},{"type":"error","name":"NotInitializing","inputs":[]},{"type":"error","name":"UUPSUnauthorizedCallContext","inputs":[]},{"type":"error","name":"UUPSUnsupportedProxiableUUID","inputs":[{"name":"slot","type":"bytes32","internalType":"bytes32"}]}],"bytecode":{"object":"0x60c03461014557601f6111fc38819003918201601f19168301916001600160401b038311848410176101495780849260209460405283398101031261014557516001600160a01b0381169081900361014557306080527ff0c57e16840df040f15088dc2f81fe391c3923bec73e23a9662efc9c229c6a005460ff8160401c16610136576002600160401b03196001600160401b038216016100cd575b5060a05260405161109e908161015e8239608051818181610820015261093f015260a05181818160d101526105470152f35b6001600160401b0319166001600160401b039081177ff0c57e16840df040f15088dc2f81fe391c3923bec73e23a9662efc9c229c6a00556040519081527fc7f505b2f371ae2175ee4913f4499e1f2633a7b5936321eed1cdaeb6115181d290602090a15f61009b565b63f92ee8a960e01b5f5260045ffd5b5f80fd5b634e487b7160e01b5f52604160045260245ffdfe60806040526004361015610011575f80fd5b5f3560e01c80634f1ef2861461089857806352d1902d146107db5780637a9e5e4b146106e65780638fb3603714610635578063929cd2e0146105bf578063a1a2dac6146104a6578063ad3cb1cc14610425578063bf7e214f146103b5578063c4d66de8146100f95763f1bdc45214610087575f80fd5b346100f5575f7ffffffffffffffffffffffffffffffffffffffffffffffffffffffffffffffffc3601126100f557602060405173ffffffffffffffffffffffffffffffffffffffff7f0000000000000000000000000000000000000000000000000000000000000000168152f35b5f80fd5b346100f55760207ffffffffffffffffffffffffffffffffffffffffffffffffffffffffffffffffc3601126100f557610130610d48565b7ff0c57e16840df040f15088dc2f81fe391c3923bec73e23a9662efc9c229c6a005460ff8160401c16159167ffffffffffffffff8216801590816103ad575b60011490816103a3575b15908161039a575b5061037257818360017fffffffffffffffffffffffffffffffffffffffffffffffff000000000000000073ffffffffffffffffffffffffffffffffffffffff9516177ff0c57e16840df040f15088dc2f81fe391c3923bec73e23a9662efc9c229c6a005561031d575b506101f3610f78565b6101fb610f78565b610203610f78565b61020b610f78565b61021481610ecd565b61021c610f78565b167fffffffffffffffffffffffff00000000000000000000000000000000000000007fb8e950798a2a06a6f5727a94041b193569f4f67d69a0de3cf866d93822e7fa005416177fb8e950798a2a06a6f5727a94041b193569f4f67d69a0de3cf866d93822e7fa005561028a57005b7fffffffffffffffffffffffffffffffffffffffffffffff00ffffffffffffffff7ff0c57e16840df040f15088dc2f81fe391c3923bec73e23a9662efc9c229c6a0054167ff0c57e16840df040f15088dc2f81fe391c3923bec73e23a9662efc9c229c6a00557fc7f505b2f371ae2175ee4913f4499e1f2633a7b5936321eed1cdaeb6115181d2602060405160018152a1005b7fffffffffffffffffffffffffffffffffffffffffffffff0000000000000000001668010000000000000001177ff0c57e16840df040f15088dc2f81fe391c3923bec73e23a9662efc9c229c6a0055836101ea565b7ff92ee8a9000000000000000000000000000000000000000000000000000000005f5260045ffd5b90501584610181565b303b159150610179565b84915061016f565b346100f5575f7ffffffffffffffffffffffffffffffffffffffffffffffffffffffffffffffffc3601126100f557602073ffffffffffffffffffffffffffffffffffffffff7ff3177357ab46d8af007ab3fdb9af81da189e1068fefdc0073dca88a2cab40a005416604051908152f35b346100f5575f7ffffffffffffffffffffffffffffffffffffffffffffffffffffffffffffffffc3601126100f5576104a2604051610464604082610d6b565b600581527f352e302e300000000000000000000000000000000000000000000000000000006020820152604051918291602083526020830190610e13565b0390f35b346100f55760407ffffffffffffffffffffffffffffffffffffffffffffffffffffffffffffffffc3601126100f55761052e60406104e2610d48565b8151906024356020830152602082526104fb8383610d6b565b825193849283927fbe5fb16600000000000000000000000000000000000000000000000000000000845260048401610e9d565b038173ffffffffffffffffffffffffffffffffffffffff7f0000000000000000000000000000000000000000000000000000000000000000165afa80156105b4576020915f91610584575b506040519015158152f35b6105a6915060403d6040116105ad575b61059e8183610d6b565b810190610e63565b5082610579565b503d610594565b6040513d5f823e3d90fd5b346100f55760407ffffffffffffffffffffffffffffffffffffffffffffffffffffffffffffffffc3601126100f5576105f6610d48565b6024359073ffffffffffffffffffffffffffffffffffffffff82168092036100f55761052e916040918251916020830152602082526104fb8383610d6b565b346100f5575f7ffffffffffffffffffffffffffffffffffffffffffffffffffffffffffffffffc3601126100f5577ff3177357ab46d8af007ab3fdb9af81da189e1068fefdc0073dca88a2cab40a005460a01c60ff16156106de5760207f8fb36037000000000000000000000000000000000000000000000000000000005b7fffffffff0000000000000000000000000000000000000000000000000000000060405191168152f35b60205f6106b4565b346100f55760207ffffffffffffffffffffffffffffffffffffffffffffffffffffffffffffffffc3601126100f55761071d610d48565b73ffffffffffffffffffffffffffffffffffffffff7ff3177357ab46d8af007ab3fdb9af81da189e1068fefdc0073dca88a2cab40a00541633036107af57803b1561076d5761076b90610ecd565b005b73ffffffffffffffffffffffffffffffffffffffff907fc2f31e5e000000000000000000000000000000000000000000000000000000005f521660045260245ffd5b7f068ca9d8000000000000000000000000000000000000000000000000000000005f523360045260245ffd5b346100f5575f7ffffffffffffffffffffffffffffffffffffffffffffffffffffffffffffffffc3601126100f55773ffffffffffffffffffffffffffffffffffffffff7f00000000000000000000000000000000000000000000000000000000000000001630036108705760206040517f360894a13ba1a3210667c828492db98dca3e2076cc3735a920a3ca505d382bbc8152f35b7fe07c8dba000000000000000000000000000000000000000000000000000000005f5260045ffd5b60407ffffffffffffffffffffffffffffffffffffffffffffffffffffffffffffffffc3601126100f5576108ca610d48565b6024359067ffffffffffffffff82116100f557366023830112156100f5578160040135906108f782610dd9565b916109056040519384610d6b565b808352602083019336602483830101116100f557815f9260246020930187378401015273ffffffffffffffffffffffffffffffffffffffff7f000000000000000000000000000000000000000000000000000000000000000016803014908115610d06575b50610870576044604073ffffffffffffffffffffffffffffffffffffffff7fb8e950798a2a06a6f5727a94041b193569f4f67d69a0de3cf866d93822e7fa0054168151928380927fd1f856ee0000000000000000000000000000000000000000000000000000000082525f60048301523360248301525afa9081156105b4575f91610cbb575b5015610c375773ffffffffffffffffffffffffffffffffffffffff8116926040517f52d1902d000000000000000000000000000000000000000000000000000000008152602081600481885afa5f9181610c03575b50610a7657847f4c9c8ce3000000000000000000000000000000000000000000000000000000005f5260045260245ffd5b807f360894a13ba1a3210667c828492db98dca3e2076cc3735a920a3ca505d382bbc869203610bd85750823b15610bad57807fffffffffffffffffffffffff00000000000000000000000000000000000000007f360894a13ba1a3210667c828492db98dca3e2076cc3735a920a3ca505d382bbc5416177f360894a13ba1a3210667c828492db98dca3e2076cc3735a920a3ca505d382bbc557fbc7cd75a20ee27fd9adebab32041f755214dbc6bffa90cc0225b39da2e5c2d3b5f80a2825115610b7b575f809161076b945190845af43d15610b73573d91610b5783610dd9565b92610b656040519485610d6b565b83523d5f602085013e610fcf565b606091610fcf565b50505034610b8557005b7fb398979f000000000000000000000000000000000000000000000000000000005f5260045ffd5b7f4c9c8ce3000000000000000000000000000000000000000000000000000000005f5260045260245ffd5b7faa1d49a4000000000000000000000000000000000000000000000000000000005f5260045260245ffd5b9091506020813d602011610c2f575b81610c1f60209383610d6b565b810103126100f557519086610a45565b3d9150610c12565b60846040517f6317e35f00000000000000000000000000000000000000000000000000000000815260206004820152602360248201527f4f6e6c792061646d696e2063616e20706572666f726d2074686973206163746960448201527f6f6e2e00000000000000000000000000000000000000000000000000000000006064820152fd5b90506040813d604011610cfe575b81610cd660409383610d6b565b810103126100f5576020610ce982610e56565b91015163ffffffff8116036100f557846109f0565b3d9150610cc9565b905073ffffffffffffffffffffffffffffffffffffffff7f360894a13ba1a3210667c828492db98dca3e2076cc3735a920a3ca505d382bbc541614158461096a565b6004359073ffffffffffffffffffffffffffffffffffffffff821682036100f557565b90601f7fffffffffffffffffffffffffffffffffffffffffffffffffffffffffffffffe0910116810190811067ffffffffffffffff821117610dac57604052565b7f4e487b71000000000000000000000000000000000000000000000000000000005f52604160045260245ffd5b67ffffffffffffffff8111610dac57601f017fffffffffffffffffffffffffffffffffffffffffffffffffffffffffffffffe01660200190565b907fffffffffffffffffffffffffffffffffffffffffffffffffffffffffffffffe0601f602080948051918291828752018686015e5f8582860101520116010190565b519081151582036100f557565b91908260409103126100f5576020610e7a83610e56565b92015173ffffffffffffffffffffffffffffffffffffffff811681036100f55790565b60409073ffffffffffffffffffffffffffffffffffffffff610eca94931681528160208201520190610e13565b90565b602073ffffffffffffffffffffffffffffffffffffffff7f2f658b440c35314f52658ea8a740e05b284cdc84dc9ae01e891f21b8933e7cad9216807fffffffffffffffffffffffff00000000000000000000000000000000000000007ff3177357ab46d8af007ab3fdb9af81da189e1068fefdc0073dca88a2cab40a005416177ff3177357ab46d8af007ab3fdb9af81da189e1068fefdc0073dca88a2cab40a0055604051908152a1565b60ff7ff0c57e16840df040f15088dc2f81fe391c3923bec73e23a9662efc9c229c6a005460401c1615610fa757565b7fd7e6bcf8000000000000000000000000000000000000000000000000000000005f5260045ffd5b9061100c5750805115610fe457805190602001fd5b7fd6bda275000000000000000000000000000000000000000000000000000000005f5260045ffd5b8151158061105f575b61101d575090565b73ffffffffffffffffffffffffffffffffffffffff907f9996b315000000000000000000000000000000000000000000000000000000005f521660045260245ffd5b50803b1561101556fea26469706673582212202e5754fb7e75dbb169594500b936583cd6d90b9799eb24010bce9d850919e7de64736f6c634300081a0033","linkReferences":{}},"methodIdentifiers":{"RIGHTS_POLICY_MANAGER()":"f1bdc452","UPGRADE_INTERFACE_VERSION()":"ad3cb1cc","authority()":"bf7e214f","initialize(address)":"c4d66de8","isAccessAllowedByAsset(address,uint256)":"a1a2dac6","isAccessAllowedByHolder(address,address)":"929cd2e0","isConsumingScheduledOp()":"8fb36037","proxiableUUID()":"52d1902d","setAuthority(address)":"7a9e5e4b","upgradeToAndCall(address,bytes)":"4f1ef286"},"storageLayout":{"storage":[],"types":{}},"id":2}