{"abi":[{"type":"function","name":"ADMIN_ROLE","inputs":[],"outputs":[{"name":"","type":"uint64","internalType":"uint64"}],"stateMutability":"view"},{"type":"function","name":"PUBLIC_ROLE","inputs":[],"outputs":[{"name":"","type":"uint64","internalType":"uint64"}],"stateMutability":"view"},{"type":"function","name":"UPGRADE_INTERFACE_VERSION","inputs":[],"outputs":[{"name":"","type":"string","internalType":"string"}],"stateMutability":"view"},{"type":"function","name":"canCall","inputs":[{"name":"caller","type":"address","internalType":"address"},{"name":"target","type":"address","internalType":"address"},{"name":"selector","type":"bytes4","internalType":"bytes4"}],"outputs":[{"name":"immediate","type":"bool","internalType":"bool"},{"name":"delay","type":"uint32","internalType":"uint32"}],"stateMutability":"view"},{"type":"function","name":"cancel","inputs":[{"name":"caller","type":"address","internalType":"address"},{"name":"target","type":"address","internalType":"address"},{"name":"data","type":"bytes","internalType":"bytes"}],"outputs":[{"name":"","type":"uint32","internalType":"uint32"}],"stateMutability":"nonpayable"},{"type":"function","name":"consumeScheduledOp","inputs":[{"name":"caller","type":"address","internalType":"address"},{"name":"data","type":"bytes","internalType":"bytes"}],"outputs":[],"stateMutability":"nonpayable"},{"type":"function","name":"execute","inputs":[{"name":"target","type":"address","internalType":"address"},{"name":"data","type":"bytes","internalType":"bytes"}],"outputs":[{"name":"","type":"uint32","internalType":"uint32"}],"stateMutability":"payable"},{"type":"function","name":"expiration","inputs":[],"outputs":[{"name":"","type":"uint32","internalType":"uint32"}],"stateMutability":"view"},{"type":"function","name":"getAccess","inputs":[{"name":"roleId","type":"uint64","internalType":"uint64"},{"name":"account","type":"address","internalType":"address"}],"outputs":[{"name":"since","type":"uint48","internalType":"uint48"},{"name":"currentDelay","type":"uint32","internalType":"uint32"},{"name":"pendingDelay","type":"uint32","internalType":"uint32"},{"name":"effect","type":"uint48","internalType":"uint48"}],"stateMutability":"view"},{"type":"function","name":"getNonce","inputs":[{"name":"id","type":"bytes32","internalType":"bytes32"}],"outputs":[{"name":"","type":"uint32","internalType":"uint32"}],"stateMutability":"view"},{"type":"function","name":"getRoleAdmin","inputs":[{"name":"roleId","type":"uint64","internalType":"uint64"}],"outputs":[{"name":"","type":"uint64","internalType":"uint64"}],"stateMutability":"view"},{"type":"function","name":"getRoleGrantDelay","inputs":[{"name":"roleId","type":"uint64","internalType":"uint64"}],"outputs":[{"name":"","type":"uint32","internalType":"uint32"}],"stateMutability":"view"},{"type":"function","name":"getRoleGuardian","inputs":[{"name":"roleId","type":"uint64","internalType":"uint64"}],"outputs":[{"name":"","type":"uint64","internalType":"uint64"}],"stateMutability":"view"},{"type":"function","name":"getSchedule","inputs":[{"name":"id","type":"bytes32","internalType":"bytes32"}],"outputs":[{"name":"","type":"uint48","internalType":"uint48"}],"stateMutability":"view"},{"type":"function","name":"getTargetAdminDelay","inputs":[{"name":"target","type":"address","internalType":"address"}],"outputs":[{"name":"","type":"uint32","internalType":"uint32"}],"stateMutability":"view"},{"type":"function","name":"getTargetFunctionRole","inputs":[{"name":"target","type":"address","internalType":"address"},{"name":"selector","type":"bytes4","internalType":"bytes4"}],"outputs":[{"name":"","type":"uint64","internalType":"uint64"}],"stateMutability":"view"},{"type":"function","name":"grantRole","inputs":[{"name":"roleId","type":"uint64","internalType":"uint64"},{"name":"account","type":"address","internalType":"address"},{"name":"executionDelay","type":"uint32","internalType":"uint32"}],"outputs":[],"stateMutability":"nonpayable"},{"type":"function","name":"hasRole","inputs":[{"name":"roleId","type":"uint64","internalType":"uint64"},{"name":"account","type":"address","internalType":"address"}],"outputs":[{"name":"isMember","type":"bool","internalType":"bool"},{"name":"executionDelay","type":"uint32","internalType":"uint32"}],"stateMutability":"view"},{"type":"function","name":"hashOperation","inputs":[{"name":"caller","type":"address","internalType":"address"},{"name":"target","type":"address","internalType":"address"},{"name":"data","type":"bytes","internalType":"bytes"}],"outputs":[{"name":"","type":"bytes32","internalType":"bytes32"}],"stateMutability":"view"},{"type":"function","name":"initialize","inputs":[{"name":"initialAdmin","type":"address","internalType":"address"}],"outputs":[],"stateMutability":"nonpayable"},{"type":"function","name":"isTargetClosed","inputs":[{"name":"target","type":"address","internalType":"address"}],"outputs":[{"name":"","type":"bool","internalType":"bool"}],"stateMutability":"view"},{"type":"function","name":"labelRole","inputs":[{"name":"roleId","type":"uint64","internalType":"uint64"},{"name":"label","type":"string","internalType":"string"}],"outputs":[],"stateMutability":"nonpayable"},{"type":"function","name":"minSetback","inputs":[],"outputs":[{"name":"","type":"uint32","internalType":"uint32"}],"stateMutability":"view"},{"type":"function","name":"multicall","inputs":[{"name":"data","type":"bytes[]","internalType":"bytes[]"}],"outputs":[{"name":"results","type":"bytes[]","internalType":"bytes[]"}],"stateMutability":"nonpayable"},{"type":"function","name":"proxiableUUID","inputs":[],"outputs":[{"name":"","type":"bytes32","internalType":"bytes32"}],"stateMutability":"view"},{"type":"function","name":"renounceRole","inputs":[{"name":"roleId","type":"uint64","internalType":"uint64"},{"name":"callerConfirmation","type":"address","internalType":"address"}],"outputs":[],"stateMutability":"nonpayable"},{"type":"function","name":"revokeRole","inputs":[{"name":"roleId","type":"uint64","internalType":"uint64"},{"name":"account","type":"address","internalType":"address"}],"outputs":[],"stateMutability":"nonpayable"},{"type":"function","name":"schedule","inputs":[{"name":"target","type":"address","internalType":"address"},{"name":"data","type":"bytes","internalType":"bytes"},{"name":"when","type":"uint48","internalType":"uint48"}],"outputs":[{"name":"operationId","type":"bytes32","internalType":"bytes32"},{"name":"nonce","type":"uint32","internalType":"uint32"}],"stateMutability":"nonpayable"},{"type":"function","name":"setGrantDelay","inputs":[{"name":"roleId","type":"uint64","internalType":"uint64"},{"name":"newDelay","type":"uint32","internalType":"uint32"}],"outputs":[],"stateMutability":"nonpayable"},{"type":"function","name":"setRoleAdmin","inputs":[{"name":"roleId","type":"uint64","internalType":"uint64"},{"name":"admin","type":"uint64","internalType":"uint64"}],"outputs":[],"stateMutability":"nonpayable"},{"type":"function","name":"setRoleGuardian","inputs":[{"name":"roleId","type":"uint64","internalType":"uint64"},{"name":"guardian","type":"uint64","internalType":"uint64"}],"outputs":[],"stateMutability":"nonpayable"},{"type":"function","name":"setTargetAdminDelay","inputs":[{"name":"target","type":"address","internalType":"address"},{"name":"newDelay","type":"uint32","internalType":"uint32"}],"outputs":[],"stateMutability":"nonpayable"},{"type":"function","name":"setTargetClosed","inputs":[{"name":"target","type":"address","internalType":"address"},{"name":"closed","type":"bool","internalType":"bool"}],"outputs":[],"stateMutability":"nonpayable"},{"type":"function","name":"setTargetFunctionRole","inputs":[{"name":"target","type":"address","internalType":"address"},{"name":"selectors","type":"bytes4[]","internalType":"bytes4[]"},{"name":"roleId","type":"uint64","internalType":"uint64"}],"outputs":[],"stateMutability":"nonpayable"},{"type":"function","name":"updateAuthority","inputs":[{"name":"target","type":"address","internalType":"address"},{"name":"newAuthority","type":"address","internalType":"address"}],"outputs":[],"stateMutability":"nonpayable"},{"type":"function","name":"upgradeToAndCall","inputs":[{"name":"newImplementation","type":"address","internalType":"address"},{"name":"data","type":"bytes","internalType":"bytes"}],"outputs":[],"stateMutability":"payable"},{"type":"event","name":"Initialized","inputs":[{"name":"version","type":"uint64","indexed":false,"internalType":"uint64"}],"anonymous":false},{"type":"event","name":"OperationCanceled","inputs":[{"name":"operationId","type":"bytes32","indexed":true,"internalType":"bytes32"},{"name":"nonce","type":"uint32","indexed":true,"internalType":"uint32"}],"anonymous":false},{"type":"event","name":"OperationExecuted","inputs":[{"name":"operationId","type":"bytes32","indexed":true,"internalType":"bytes32"},{"name":"nonce","type":"uint32","indexed":true,"internalType":"uint32"}],"anonymous":false},{"type":"event","name":"OperationScheduled","inputs":[{"name":"operationId","type":"bytes32","indexed":true,"internalType":"bytes32"},{"name":"nonce","type":"uint32","indexed":true,"internalType":"uint32"},{"name":"schedule","type":"uint48","indexed":false,"internalType":"uint48"},{"name":"caller","type":"address","indexed":false,"internalType":"address"},{"name":"target","type":"address","indexed":false,"internalType":"address"},{"name":"data","type":"bytes","indexed":false,"internalType":"bytes"}],"anonymous":false},{"type":"event","name":"RoleAdminChanged","inputs":[{"name":"roleId","type":"uint64","indexed":true,"internalType":"uint64"},{"name":"admin","type":"uint64","indexed":true,"internalType":"uint64"}],"anonymous":false},{"type":"event","name":"RoleGrantDelayChanged","inputs":[{"name":"roleId","type":"uint64","indexed":true,"internalType":"uint64"},{"name":"delay","type":"uint32","indexed":false,"internalType":"uint32"},{"name":"since","type":"uint48","indexed":false,"internalType":"uint48"}],"anonymous":false},{"type":"event","name":"RoleGranted","inputs":[{"name":"roleId","type":"uint64","indexed":true,"internalType":"uint64"},{"name":"account","type":"address","indexed":true,"internalType":"address"},{"name":"delay","type":"uint32","indexed":false,"internalType":"uint32"},{"name":"since","type":"uint48","indexed":false,"internalType":"uint48"},{"name":"newMember","type":"bool","indexed":false,"internalType":"bool"}],"anonymous":false},{"type":"event","name":"RoleGuardianChanged","inputs":[{"name":"roleId","type":"uint64","indexed":true,"internalType":"uint64"},{"name":"guardian","type":"uint64","indexed":true,"internalType":"uint64"}],"anonymous":false},{"type":"event","name":"RoleLabel","inputs":[{"name":"roleId","type":"uint64","indexed":true,"internalType":"uint64"},{"name":"label","type":"string","indexed":false,"internalType":"string"}],"anonymous":false},{"type":"event","name":"RoleRevoked","inputs":[{"name":"roleId","type":"uint64","indexed":true,"internalType":"uint64"},{"name":"account","type":"address","indexed":true,"internalType":"address"}],"anonymous":false},{"type":"event","name":"TargetAdminDelayUpdated","inputs":[{"name":"target","type":"address","indexed":true,"internalType":"address"},{"name":"delay","type":"uint32","indexed":false,"internalType":"uint32"},{"name":"since","type":"uint48","indexed":false,"internalType":"uint48"}],"anonymous":false},{"type":"event","name":"TargetClosed","inputs":[{"name":"target","type":"address","indexed":true,"internalType":"address"},{"name":"closed","type":"bool","indexed":false,"internalType":"bool"}],"anonymous":false},{"type":"event","name":"TargetFunctionRoleUpdated","inputs":[{"name":"target","type":"address","indexed":true,"internalType":"address"},{"name":"selector","type":"bytes4","indexed":false,"internalType":"bytes4"},{"name":"roleId","type":"uint64","indexed":true,"internalType":"uint64"}],"anonymous":false},{"type":"event","name":"Upgraded","inputs":[{"name":"implementation","type":"address","indexed":true,"internalType":"address"}],"anonymous":false},{"type":"error","name":"AccessManagerAlreadyScheduled","inputs":[{"name":"operationId","type":"bytes32","internalType":"bytes32"}]},{"type":"error","name":"AccessManagerBadConfirmation","inputs":[]},{"type":"error","name":"AccessManagerExpired","inputs":[{"name":"operationId","type":"bytes32","internalType":"bytes32"}]},{"type":"error","name":"AccessManagerInvalidInitialAdmin","inputs":[{"name":"initialAdmin","type":"address","internalType":"address"}]},{"type":"error","name":"AccessManagerLockedRole","inputs":[{"name":"roleId","type":"uint64","internalType":"uint64"}]},{"type":"error","name":"AccessManagerNotReady","inputs":[{"name":"operationId","type":"bytes32","internalType":"bytes32"}]},{"type":"error","name":"AccessManagerNotScheduled","inputs":[{"name":"operationId","type":"bytes32","internalType":"bytes32"}]},{"type":"error","name":"AccessManagerUnauthorizedAccount","inputs":[{"name":"msgsender","type":"address","internalType":"address"},{"name":"roleId","type":"uint64","internalType":"uint64"}]},{"type":"error","name":"AccessManagerUnauthorizedCall","inputs":[{"name":"caller","type":"address","internalType":"address"},{"name":"target","type":"address","internalType":"address"},{"name":"selector","type":"bytes4","internalType":"bytes4"}]},{"type":"error","name":"AccessManagerUnauthorizedCancel","inputs":[{"name":"msgsender","type":"address","internalType":"address"},{"name":"caller","type":"address","internalType":"address"},{"name":"target","type":"address","internalType":"address"},{"name":"selector","type":"bytes4","internalType":"bytes4"}]},{"type":"error","name":"AccessManagerUnauthorizedConsume","inputs":[{"name":"target","type":"address","internalType":"address"}]},{"type":"error","name":"AddressEmptyCode","inputs":[{"name":"target","type":"address","internalType":"address"}]},{"type":"error","name":"ERC1967InvalidImplementation","inputs":[{"name":"implementation","type":"address","internalType":"address"}]},{"type":"error","name":"ERC1967NonPayable","inputs":[]},{"type":"error","name":"FailedCall","inputs":[]},{"type":"error","name":"InsufficientBalance","inputs":[{"name":"balance","type":"uint256","internalType":"uint256"},{"name":"needed","type":"uint256","internalType":"uint256"}]},{"type":"error","name":"InvalidInitialization","inputs":[]},{"type":"error","name":"NotInitializing","inputs":[]},{"type":"error","name":"SafeCastOverflowedUintDowncast","inputs":[{"name":"bits","type":"uint8","internalType":"uint8"},{"name":"value","type":"uint256","internalType":"uint256"}]},{"type":"error","name":"UUPSUnauthorizedCallContext","inputs":[]},{"type":"error","name":"UUPSUnsupportedProxiableUUID","inputs":[{"name":"slot","type":"bytes32","internalType":"bytes32"}]}],"bytecode":{"object":"0x60a0806040523460295730608052613fa9908161002e823960805181818161166a01526118430152f35b5f80fdfe60806040526004361015610011575f80fd5b5f803560e01c806308d6122d146121c25780630b0a93ba1461218d57806312be87271461216a578063167bd3951461208d57806318ff183c14611fcc5780631cff79cd14611e1e57806325c471a014611dcf5780633078f11414611d7457806330cae18714611c855780633adc277a14611c565780633ca7c02a14611c335780634136a33c14611be15780634665096d14611bc35780634c1da1e214611b915780634f1ef286146117e557806352962952146116e257806352d1902d14611642578063530dd456146115cc5780636d5115bd1461152457806375b238fc14611508578063853551b81461145f57806394c7d7ee146112fd578063a166aa8914611287578063a64d95ce146110e2578063abd9bd2a146110bd578063ac9650d814610e7e578063ad3cb1cc14610e1d578063b700961314610dc0578063b7d2b16214610d8d578063c4d66de814610952578063cc1b6c8114610934578063d1f856ee146108eb578063d22b5989146107a8578063d6bb62c61461054f578063f801a6981461021e5763fe0776f5146101a6575f80fd5b3461021b57604060031936011261021b576101bf612379565b6101c7612325565b903373ffffffffffffffffffffffffffffffffffffffff8316036101f357906101ef916134c8565b5080f35b6004837f5f159e63000000000000000000000000000000000000000000000000000000008152fd5b80fd5b503461021b57606060031936011261021b57610238612302565b9060243567ffffffffffffffff811161054b576102599036906004016123a7565b919060443565ffffffffffff81168091036105475761027a84838733612c2f565b905061029663ffffffff61028d42613f2b565b92168092612aef565b9015801561052c575b6104b6579065ffffffffffff80921690818082119118021816906102c584828733612800565b938484527f40c6c8c28789853c7efd823ab20824bbd71718a8a5915e855f6f288c9a26ad0260205265ffffffffffff60408520541680151590816104a5575b5061047957604095849361046a87947f82a2da5dee54ea8021c6545b4444620291e07ee83be6dd57edb175062715f3b494868b99527f40c6c8c28789853c7efd823ab20824bbd71718a8a5915e855f6f288c9a26ad02602052600163ffffffff8a8a205460301c160163ffffffff81169989898c9b527f40c6c8c28789853c7efd823ab20824bbd71718a8a5915e855f6f288c9a26ad0260205281812065ffffffffffff88167fffffffffffffffffffffffffffffffffffffffffffffffffffff0000000000008254161790558981527f40c6c8c28789853c7efd823ab20824bbd71718a8a5915e855f6f288c9a26ad0260205220907fffffffffffffffffffffffffffffffffffffffffffff00000000ffffffffffff69ffffffff00000000000083549260301b16911617905573ffffffffffffffffffffffffffffffffffffffff8b519586958652336020870152168b8501526080606085015260808401916127c2565b0390a382519182526020820152f35b602484867f813e9459000000000000000000000000000000000000000000000000000000008252600452fd5b6104af9150613494565b155f610304565b6064847fffffffff000000000000000000000000000000000000000000000000000000008873ffffffffffffffffffffffffffffffffffffffff6104fa8a89612c83565b917f81c6f24b000000000000000000000000000000000000000000000000000000008552336004521660245216604452fd5b50811515801561029f575065ffffffffffff8116821061029f565b8280fd5b5080fd5b503461021b576105779061056236612533565b61056f8183949793612c83565b928685612800565b918284527f40c6c8c28789853c7efd823ab20824bbd71718a8a5915e855f6f288c9a26ad0260205265ffffffffffff604085205416155f146105df57602484847f60a299b0000000000000000000000000000000000000000000000000000000008252600452fd5b73ffffffffffffffffffffffffffffffffffffffff16903382036106b5575b5050602092508082527f40c6c8c28789853c7efd823ab20824bbd71718a8a5915e855f6f288c9a26ad028352604082207fffffffffffffffffffffffffffffffffffffffffffffffffffff00000000000081541690558082527f40c6c8c28789853c7efd823ab20824bbd71718a8a5915e855f6f288c9a26ad02835263ffffffff604083205460301c1680917fbd9ac67a6e2f6463b80927326310338bcbb4bdb7936ce1365ea3e01067e7b9f76040519480a38152f35b73ffffffffffffffffffffffffffffffffffffffff6106d333612a1c565b509516948585527f40c6c8c28789853c7efd823ab20824bbd71718a8a5915e855f6f288c9a26ad006020527fffffffff000000000000000000000000000000000000000000000000000000006040862092169182865260205261074c3361074767ffffffffffffffff6040892054166125e3565b612ab1565b509015908161079f575b50156105fe576084925084604051927f3fe2751c000000000000000000000000000000000000000000000000000000008452336004850152602484015260448301526064820152fd5b9050155f610756565b503461021b57604060031936011261021b576107c2612302565b7fa56b76017453f399ec2327ba00375dbfb1fd070ff854341ad6191e6a2e2de19c73ffffffffffffffffffffffffffffffffffffffff610800612426565b92610809612b3a565b16918284527f40c6c8c28789853c7efd823ab20824bbd71718a8a5915e855f6f288c9a26ad00602052610853816dffffffffffffffffffffffffffff600160408820015416613dd4565b91908486527f40c6c8c28789853c7efd823ab20824bbd71718a8a5915e855f6f288c9a26ad006020526dffffffffffffffffffffffffffff6001604088200191167fffffffffffffffffffffffffffffffffffff00000000000000000000000000008254161790556108e56040519283928390929165ffffffffffff60209163ffffffff604085019616845216910152565b0390a280f35b503461021b57604060031936011261021b57610916610908612379565b610910612325565b90612ab1565b60408051921515835263ffffffff91909116602083015290f35b0390f35b503461021b578060031936011261021b576020604051620697808152f35b503461021b57602060031936011261021b5761096c612302565b907ff0c57e16840df040f15088dc2f81fe391c3923bec73e23a9662efc9c229c6a00549160ff8360401c16159267ffffffffffffffff811680159081610d85575b6001149081610d7b575b159081610d72575b50610d4a578360017fffffffffffffffffffffffffffffffffffffffffffffffff00000000000000008316177ff0c57e16840df040f15088dc2f81fe391c3923bec73e23a9662efc9c229c6a0055610cf5575b50610a1b613ed4565b610a23613ed4565b610a2b613ed4565b73ffffffffffffffffffffffffffffffffffffffff811615610cc957610a5090612ea7565b5080610c9c575060025f8181527f40c6c8c28789853c7efd823ab20824bbd71718a8a5915e855f6f288c9a26ad016020527fe6aabd1bffdac7ba79de73a083ff79c0386fd48083f0d75b92292f7b67eddc2f80547fffffffffffffffffffffffffffffffffffffffffffffffff0000000000000000169055907f1fd6dd7631312dfac2205b52913f99de03b4d7e381d5d27d3dbfe0713e6e63408280a360045f8181527f40c6c8c28789853c7efd823ab20824bbd71718a8a5915e855f6f288c9a26ad016020527f0f09c9d7c70962ea814c91d9e26c48598a93bd106bce4571a625a947ad8b815b80547fffffffffffffffffffffffffffffffffffffffffffffffff0000000000000000169055907f1fd6dd7631312dfac2205b52913f99de03b4d7e381d5d27d3dbfe0713e6e63408280a360035f527f40c6c8c28789853c7efd823ab20824bbd71718a8a5915e855f6f288c9a26ad01602052600160405f200160017fffffffffffffffffffffffffffffffffffffffffffffffff0000000000000000825416179055600160037f1fd6dd7631312dfac2205b52913f99de03b4d7e381d5d27d3dbfe0713e6e63405f80a3610c0957005b7fffffffffffffffffffffffffffffffffffffffffffffff00ffffffffffffffff7ff0c57e16840df040f15088dc2f81fe391c3923bec73e23a9662efc9c229c6a0054167ff0c57e16840df040f15088dc2f81fe391c3923bec73e23a9662efc9c229c6a00557fc7f505b2f371ae2175ee4913f4499e1f2633a7b5936321eed1cdaeb6115181d2602060405160018152a1005b807f1871a90c00000000000000000000000000000000000000000000000000000000602492526002600452fd5b6024827f0813ada200000000000000000000000000000000000000000000000000000000815280600452fd5b7fffffffffffffffffffffffffffffffffffffffffffffff0000000000000000001668010000000000000001177ff0c57e16840df040f15088dc2f81fe391c3923bec73e23a9662efc9c229c6a00555f610a12565b6004837ff92ee8a9000000000000000000000000000000000000000000000000000000008152fd5b9050155f6109bf565b303b1591506109b7565b8591506109ad565b503461021b57604060031936011261021b576101ef610daa612379565b610db2612325565b90610dbb612b3a565b6134c8565b503461021b57606060031936011261021b57610dda612302565b610de2612325565b604435917fffffffff0000000000000000000000000000000000000000000000000000000083168303610e195761091693506128cf565b8380fd5b503461021b578060031936011261021b5750610930604051610e40604082612482565b600581527f352e302e3000000000000000000000000000000000000000000000000000000060208201526040519182916020835260208301906125a0565b503461021b57602060031936011261021b5760043567ffffffffffffffff811161054b57610eb0903690600401612348565b906020604051610ec08282612482565b848152818101917fffffffffffffffffffffffffffffffffffffffffffffffffffffffffffffffe08101368437610ef685612876565b93610f046040519586612482565b8585527fffffffffffffffffffffffffffffffffffffffffffffffffffffffffffffffe0610f3187612876565b01875b8181106110ae57505086907fffffffffffffffffffffffffffffffffffffffffffffffffffffffffffffffe181360301915b87811015611031578060051b8201358381121561102d5782019081359167ffffffffffffffff83116110295785018a833603821361021b578061100d9289610ff96001978b8e6040519483869484860198893784019083820190898252519283915e0101858152037fffffffffffffffffffffffffffffffffffffffffffffffffffffffffffffffe08101835282612482565b5190305af4611006612e78565b9030613d3b565b611017828a61288e565b52611022818961288e565b5001610f66565b8a80fd5b8980fd5b83898860405191838301848452825180915260408401948060408360051b870101940192955b8287106110645785850386f35b90919293828061109e837fffffffffffffffffffffffffffffffffffffffffffffffffffffffffffffffc08a6001960301865288516125a0565b9601920196019592919092611057565b60608782018501528301610f34565b503461021b5760206110da6110d136612533565b92919091612800565b604051908152f35b503461021b57604060031936011261021b576110fc612379565b611104612426565b61110c612b3a565b67ffffffffffffffff82169167ffffffffffffffff831461125b57818160016111a97ffeb69018ee8b8fd50ea86348f1267d07673379f72cffdeccec63853ee8ce8b48956dffffffffffffffffffffffffffff8361119e6111e39867ffffffffffffffff165f527f40c6c8c28789853c7efd823ab20824bbd71718a8a5915e855f6f288c9a26ad0160205260405f2090565b015460801c16613dd4565b94909267ffffffffffffffff165f527f40c6c8c28789853c7efd823ab20824bbd71718a8a5915e855f6f288c9a26ad0160205260405f2090565b01907fffff0000000000000000000000000000ffffffffffffffffffffffffffffffff7dffffffffffffffffffffffffffff0000000000000000000000000000000083549260801b1691161790556108e56040519283928390929165ffffffffffff60209163ffffffff604085019616845216910152565b602484847f1871a90c000000000000000000000000000000000000000000000000000000008252600452fd5b503461021b57602060031936011261021b5760206112f36112a6612302565b73ffffffffffffffffffffffffffffffffffffffff165f527f40c6c8c28789853c7efd823ab20824bbd71718a8a5915e855f6f288c9a26ad0060205260ff600160405f20015460701c1690565b6040519015158152f35b503461021b5761130c366123d5565b916040517f8fb36037000000000000000000000000000000000000000000000000000000008152602081600481335afa9081156114545785916113d5575b507fffffffff000000000000000000000000000000000000000000000000000000007f8fb36037000000000000000000000000000000000000000000000000000000009116036113a957916113a4916101ef933390612800565b612cb1565b6024847f320ff74800000000000000000000000000000000000000000000000000000000815233600452fd5b90506020813d60201161144c575b816113f060209383612482565b8101031261144857517fffffffff0000000000000000000000000000000000000000000000000000000081168103611448577fffffffff0000000000000000000000000000000000000000000000000000000061134a565b8480fd5b3d91506113e3565b6040513d87823e3d90fd5b503461021b57604060031936011261021b57611479612379565b6024359067ffffffffffffffff8211610547576114a367ffffffffffffffff9236906004016123a7565b9290916114ae612b3a565b1691821580156114f7575b61125b57907f1256f5b5ecb89caec12db449738f2fbcd1ba5806cf38f35413f4e5c15bf6a450916108e56040519283926020845260208401916127c2565b5067ffffffffffffffff83146114b9565b503461021b578060031936011261021b57602090604051908152f35b503461021b57604060031936011261021b5761153e612302565b602435907fffffffff000000000000000000000000000000000000000000000000000000008216809203610547578267ffffffffffffffff9273ffffffffffffffffffffffffffffffffffffffff604093602096501682527f40c6c8c28789853c7efd823ab20824bbd71718a8a5915e855f6f288c9a26ad0085528282209082528452205416604051908152f35b503461021b57602060031936011261021b57602067ffffffffffffffff600161162d6115f6612379565b67ffffffffffffffff165f527f40c6c8c28789853c7efd823ab20824bbd71718a8a5915e855f6f288c9a26ad0160205260405f2090565b01541667ffffffffffffffff60405191168152f35b503461021b578060031936011261021b5773ffffffffffffffffffffffffffffffffffffffff7f00000000000000000000000000000000000000000000000000000000000000001630036116ba5760206040517f360894a13ba1a3210667c828492db98dca3e2076cc3735a920a3ca505d382bbc8152f35b807fe07c8dba0000000000000000000000000000000000000000000000000000000060049252fd5b503461021b57604060031936011261021b576116fc612379565b611704612390565b61170c612b3a565b67ffffffffffffffff821691821580156117d4575b61125b5790600161176c67ffffffffffffffff9367ffffffffffffffff165f527f40c6c8c28789853c7efd823ab20824bbd71718a8a5915e855f6f288c9a26ad0160205260405f2090565b0180547fffffffffffffffffffffffffffffffff0000000000000000ffffffffffffffff6fffffffffffffffff00000000000000008460401b16911617905516907f7a8059630b897b5de4c08ade69f8b90c3ead1f8596d62d10b6c4d14a0afb4ae28380a380f35b5067ffffffffffffffff8314611721565b50604060031936011261021b576117fa612302565b9060243567ffffffffffffffff811161054b573660238201121561054b5761182c9036906024816004013591016124fd565b73ffffffffffffffffffffffffffffffffffffffff7f000000000000000000000000000000000000000000000000000000000000000016803014908115611b4f575b50611b275761187c33612a1c565b5015611aa45773ffffffffffffffffffffffffffffffffffffffff831690604051937f52d1902d000000000000000000000000000000000000000000000000000000008552602085600481865afa80958596611a70575b5061190457602484847f4c9c8ce3000000000000000000000000000000000000000000000000000000008252600452fd5b9091847f360894a13ba1a3210667c828492db98dca3e2076cc3735a920a3ca505d382bbc8103611a455750813b15611a1a57807fffffffffffffffffffffffff00000000000000000000000000000000000000007f360894a13ba1a3210667c828492db98dca3e2076cc3735a920a3ca505d382bbc5416177f360894a13ba1a3210667c828492db98dca3e2076cc3735a920a3ca505d382bbc557fbc7cd75a20ee27fd9adebab32041f755214dbc6bffa90cc0225b39da2e5c2d3b8480a281518390156119e757808360206101ef95519101845af46119e1612e78565b91613d3b565b505050346119f25780f35b807fb398979f0000000000000000000000000000000000000000000000000000000060049252fd5b7f4c9c8ce3000000000000000000000000000000000000000000000000000000008452600452602483fd5b7faa1d49a4000000000000000000000000000000000000000000000000000000008552600452602484fd5b9095506020813d602011611a9c575b81611a8c60209383612482565b810103126114485751945f6118d3565b3d9150611a7f565b60846040517f08c379a0000000000000000000000000000000000000000000000000000000008152602060048201526024808201527f4f6e6c792061646d696e2063616e20617574686f72697a65207468652075706760448201527f72616465000000000000000000000000000000000000000000000000000000006064820152fd5b6004827fe07c8dba000000000000000000000000000000000000000000000000000000008152fd5b905073ffffffffffffffffffffffffffffffffffffffff7f360894a13ba1a3210667c828492db98dca3e2076cc3735a920a3ca505d382bbc541614155f61186e565b503461021b57602060031936011261021b576020611bb5611bb0612302565b612766565b63ffffffff60405191168152f35b503461021b578060031936011261021b57602060405162093a808152f35b503461021b57602060031936011261021b5763ffffffff604060209260043581527f40c6c8c28789853c7efd823ab20824bbd71718a8a5915e855f6f288c9a26ad028452205460301c16604051908152f35b503461021b578060031936011261021b57602060405167ffffffffffffffff8152f35b503461021b57602060031936011261021b576020611c7560043561271d565b65ffffffffffff60405191168152f35b503461021b57604060031936011261021b57611c9f612379565b611ca7612390565b611caf612b3a565b67ffffffffffffffff82169182158015611d63575b61125b57906001611d0f67ffffffffffffffff9367ffffffffffffffff165f527f40c6c8c28789853c7efd823ab20824bbd71718a8a5915e855f6f288c9a26ad0160205260405f2090565b018282167fffffffffffffffffffffffffffffffffffffffffffffffff000000000000000082541617905516907f1fd6dd7631312dfac2205b52913f99de03b4d7e381d5d27d3dbfe0713e6e63408380a380f35b5067ffffffffffffffff8314611cc4565b503461021b57604060031936011261021b57608063ffffffff65ffffffffffff81611dae611da0612379565b611da8612325565b90612691565b93929590918560405197168752166020860152166040840152166060820152f35b503461021b57606060031936011261021b57611de9612379565b611df1612325565b906044359063ffffffff82168203610e19576101ef92611e0f612b3a565b611e1882612632565b91613158565b50611e28366123d5565b9091611e3682848333612c2f565b93901580611fbe575b611f7a57611e4f83828433612800565b63ffffffff86951615801590611f61575b611f4b575b50611ec9907f40c6c8c28789853c7efd823ab20824bbd71718a8a5915e855f6f288c9a26ad035493611ea0611e9a8284612c83565b85612e20565b7f40c6c8c28789853c7efd823ab20824bbd71718a8a5915e855f6f288c9a26ad035536916124fd565b344710611f1b5790846020958387611eea9551910134855af16119e1612e78565b507f40c6c8c28789853c7efd823ab20824bbd71718a8a5915e855f6f288c9a26ad035563ffffffff60405191168152f35b604485477fcf47918100000000000000000000000000000000000000000000000000000000825260045234602452fd5b611ec9919450611f5a90612cb1565b9390611e65565b5065ffffffffffff611f728261271d565b161515611e60565b849173ffffffffffffffffffffffffffffffffffffffff6104fa6064957fffffffff0000000000000000000000000000000000000000000000000000000094612c83565b5063ffffffff841615611e3f565b503461208957604060031936011261208957611fe6612302565b73ffffffffffffffffffffffffffffffffffffffff612003612325565b9161200c612b3a565b1690813b156120895773ffffffffffffffffffffffffffffffffffffffff60245f928360405195869485937f7a9e5e4b0000000000000000000000000000000000000000000000000000000085521660048401525af1801561207e57612070575080f35b61207c91505f90612482565b005b6040513d5f823e3d90fd5b5f80fd5b34612089576040600319360112612089576120a6612302565b6024359081151580920361208957602073ffffffffffffffffffffffffffffffffffffffff7f90d4e7bb7e5d933792b3562e1741306f8be94837e1348dacef9b6f1df56eb138926120f5612b3a565b1692835f527f40c6c8c28789853c7efd823ab20824bbd71718a8a5915e855f6f288c9a26ad008252600160405f200180547fffffffffffffffffffffffffffffffffff00ffffffffffffffffffffffffffff6eff00000000000000000000000000008460701b169116179055604051908152a2005b34612089576020600319360112612089576020611bb5612188612379565b612632565b346120895760206003193601126120895760206121b06121ab612379565b6125e3565b67ffffffffffffffff60405191168152f35b34612089576060600319360112612089576121db612302565b60243567ffffffffffffffff8111612089576121fb903690600401612348565b91906044359067ffffffffffffffff82168092036120895761221e939293612b3a565b73ffffffffffffffffffffffffffffffffffffffff5f9416935b8381101561207c578060051b820135907fffffffff0000000000000000000000000000000000000000000000000000000082168092036120895783867f9ea6790c7dadfd01c9f8b9762b3682607af2c7e79e05a9f9fdf5580dde9491516020600195835f527f40c6c8c28789853c7efd823ab20824bbd71718a8a5915e855f6f288c9a26ad00825260405f20815f52825260405f20857fffffffffffffffffffffffffffffffffffffffffffffffff0000000000000000825416179055604051908152a301612238565b6004359073ffffffffffffffffffffffffffffffffffffffff8216820361208957565b6024359073ffffffffffffffffffffffffffffffffffffffff8216820361208957565b9181601f840112156120895782359167ffffffffffffffff8311612089576020808501948460051b01011161208957565b6004359067ffffffffffffffff8216820361208957565b6024359067ffffffffffffffff8216820361208957565b9181601f840112156120895782359167ffffffffffffffff8311612089576020838186019501011161208957565b9060406003198301126120895760043573ffffffffffffffffffffffffffffffffffffffff8116810361208957916024359067ffffffffffffffff821161208957612422916004016123a7565b9091565b6024359063ffffffff8216820361208957565b6040810190811067ffffffffffffffff82111761245557604052565b7f4e487b71000000000000000000000000000000000000000000000000000000005f52604160045260245ffd5b90601f7fffffffffffffffffffffffffffffffffffffffffffffffffffffffffffffffe0910116810190811067ffffffffffffffff82111761245557604052565b67ffffffffffffffff811161245557601f017fffffffffffffffffffffffffffffffffffffffffffffffffffffffffffffffe01660200190565b929192612509826124c3565b916125176040519384612482565b829481845281830111612089578281602093845f960137010152565b60606003198201126120895760043573ffffffffffffffffffffffffffffffffffffffff81168103612089579160243573ffffffffffffffffffffffffffffffffffffffff8116810361208957916044359067ffffffffffffffff821161208957612422916004016123a7565b907fffffffffffffffffffffffffffffffffffffffffffffffffffffffffffffffe0601f602080948051918291828752018686015e5f8582860101520116010190565b600161262967ffffffffffffffff9267ffffffffffffffff165f527f40c6c8c28789853c7efd823ab20824bbd71718a8a5915e855f6f288c9a26ad0160205260405f2090565b015460401c1690565b6dffffffffffffffffffffffffffff600161268161268c9367ffffffffffffffff165f527f40c6c8c28789853c7efd823ab20824bbd71718a8a5915e855f6f288c9a26ad0160205260405f2090565b015460801c16613457565b505090565b9073ffffffffffffffffffffffffffffffffffffffff6126ea65ffffffffffff949367ffffffffffffffff165f527f40c6c8c28789853c7efd823ab20824bbd71718a8a5915e855f6f288c9a26ad0160205260405f2090565b91165f5260205260405f2054906127136dffffffffffffffffffffffffffff8360301c16613457565b9490931693909291565b5f527f40c6c8c28789853c7efd823ab20824bbd71718a8a5915e855f6f288c9a26ad0260205265ffffffffffff60405f20541661275981613494565b1561276357505f90565b90565b73ffffffffffffffffffffffffffffffffffffffff165f527f40c6c8c28789853c7efd823ab20824bbd71718a8a5915e855f6f288c9a26ad0060205261268c6dffffffffffffffffffffffffffff600160405f20015416613457565b601f82602094937fffffffffffffffffffffffffffffffffffffffffffffffffffffffffffffffe093818652868601375f8582860101520116010190565b929061284473ffffffffffffffffffffffffffffffffffffffff936128709360405195869481602087019916895216604085015260608085015260808401916127c2565b037fffffffffffffffffffffffffffffffffffffffffffffffffffffffffffffffe08101835282612482565b51902090565b67ffffffffffffffff81116124555760051b60200190565b80518210156128a25760209160051b010190565b7f4e487b71000000000000000000000000000000000000000000000000000000005f52603260045260245ffd5b9190916129238373ffffffffffffffffffffffffffffffffffffffff165f527f40c6c8c28789853c7efd823ab20824bbd71718a8a5915e855f6f288c9a26ad0060205260ff600160405f20015460701c1690565b15612931575050505f905f90565b73ffffffffffffffffffffffffffffffffffffffff81163003612981575061297b907f40c6c8c28789853c7efd823ab20824bbd71718a8a5915e855f6f288c9a26ad035492612e20565b14905f90565b9073ffffffffffffffffffffffffffffffffffffffff612a0293165f527f40c6c8c28789853c7efd823ab20824bbd71718a8a5915e855f6f288c9a26ad006020527fffffffff0000000000000000000000000000000000000000000000000000000060405f2091165f5260205267ffffffffffffffff60405f205416612ab1565b919015612a155763ffffffff8216159190565b5f91508190565b73ffffffffffffffffffffffffffffffffffffffff165f9081527f7b4501b7c347294b6ab7642a0f3ba6ad26efef1601fdfb1d54a7ff5bc6709097602052604090205465ffffffffffff81169190612a869060301c6dffffffffffffffffffffffffffff16613457565b509092801515915081612a9857509190565b905065ffffffffffff612aaa42613f2b565b1610159190565b67ffffffffffffffff81811603612acb5750506001905f90565b65ffffffffffff9291612add91612691565b505092168015159081612a9857509190565b9065ffffffffffff8091169116019065ffffffffffff8211612b0d57565b7f4e487b71000000000000000000000000000000000000000000000000000000005f52601160045260245ffd5b612b4436336135dc565b9015612b4d5750565b63ffffffff16612b9c5767ffffffffffffffff612b6936613752565b5090507ff07e038f000000000000000000000000000000000000000000000000000000005f52336004521660245260445ffd5b612c2c6040516020810190338252306040820152606080820152612c2481602060808201368152365f838301375f8236830101527fffffffffffffffffffffffffffffffffffffffffffffffffffffffffffffffe0601f3601160101037fffffffffffffffffffffffffffffffffffffffffffffffffffffffffffffffe08101835282612482565b519020612cb1565b50565b9092919073ffffffffffffffffffffffffffffffffffffffff84163003612c5a5761242293506136eb565b9192906004841015612c7057505050505f905f90565b61242293612c7d91612c83565b916128cf565b9060041161208957357fffffffff000000000000000000000000000000000000000000000000000000001690565b5f8181527f40c6c8c28789853c7efd823ab20824bbd71718a8a5915e855f6f288c9a26ad026020526040902054909190603081901c63ffffffff169065ffffffffffff1680612d2657837f60a299b0000000000000000000000000000000000000000000000000000000005f5260045260245ffd5b65ffffffffffff612d3642613f2b565b16811115612d6a57837f18cb6b7a000000000000000000000000000000000000000000000000000000005f5260045260245ffd5b612d779093919293613494565b612df5578190805f527f40c6c8c28789853c7efd823ab20824bbd71718a8a5915e855f6f288c9a26ad0260205260405f207fffffffffffffffffffffffffffffffffffffffffffffffffffff00000000000081541690557f76a2a46953689d4861a5d3f6ed883ad7e6af674a21f8e162707159fc9dde614d5f80a390565b7f78a5d6e4000000000000000000000000000000000000000000000000000000005f5260045260245ffd5b907fffffffff000000000000000000000000000000000000000000000000000000006040519173ffffffffffffffffffffffffffffffffffffffff602084019416845216604082015260408152612870606082612482565b3d15612ea2573d90612e89826124c3565b91612e976040519384612482565b82523d5f602084013e565b606090565b73ffffffffffffffffffffffffffffffffffffffff81165f9081527f7b4501b7c347294b6ab7642a0f3ba6ad26efef1601fdfb1d54a7ff5bc6709097602052604090205465ffffffffffff1615908115613047575f7ff98448b987f1428e0e230e1f3c6e2ce15b5693eaf31827fbd0b1ec4b424ae7cf606073ffffffffffffffffffffffffffffffffffffffff612f4684612f4142613f2b565b612aef565b94613027604051612f5681612439565b65ffffffffffff881681526dffffffffffffffffffffffffffff602082018881528880527f40c6c8c28789853c7efd823ab20824bbd71718a8a5915e855f6f288c9a26ad01602052604089208686168a5260205265ffffffffffff8060408b20945116167fffffffffffffffffffffffffffffffffffffffffffffffffffff00000000000084541617835551167fffffffffffffffffffffffff0000000000000000000000000000ffffffffffff73ffffffffffffffffffffffffffff00000000000083549260301b169116179055565b65ffffffffffff604051968688521660208701528660408701521693a390565b73ffffffffffffffffffffffffffffffffffffffff8181165f9081527f7b4501b7c347294b6ab7642a0f3ba6ad26efef1601fdfb1d54a7ff5bc670909760205260408120546131539391927ff98448b987f1428e0e230e1f3c6e2ce15b5693eaf31827fbd0b1ec4b424ae7cf926060926130d590869060301c6dffffffffffffffffffffffffffff16613e6c565b96908680527f40c6c8c28789853c7efd823ab20824bbd71718a8a5915e855f6f288c9a26ad0160205260408720848416885260205260408720907fffffffffffffffffffffffff0000000000000000000000000000ffffffffffff73ffffffffffffffffffffffffffff00000000000083549260301b169116179055565b613027565b9092919267ffffffffffffffff82169167ffffffffffffffff831461342b5773ffffffffffffffffffffffffffffffffffffffff7ff98448b987f1428e0e230e1f3c6e2ce15b5693eaf31827fbd0b1ec4b424ae7cf9265ffffffffffff836131f360609567ffffffffffffffff165f527f40c6c8c28789853c7efd823ab20824bbd71718a8a5915e855f6f288c9a26ad0160205260405f2090565b8484165f526020528160405f2054161598895f1461332f576132286133119163ffffffff61322042613f2b565b911690612aef565b916dffffffffffffffffffffffffffff8a6132926040519361324985612439565b878716855263ffffffff602086019316835267ffffffffffffffff165f527f40c6c8c28789853c7efd823ab20824bbd71718a8a5915e855f6f288c9a26ad0160205260405f2090565b8888165f52602052858060405f20945116167fffffffffffffffffffffffffffffffffffffffffffffffffffff00000000000084541617835551167fffffffffffffffffffffffff0000000000000000000000000000ffffffffffff73ffffffffffffffffffffffffffff00000000000083549260301b169116179055565b63ffffffff604051981688521660208701528660408701521693a390565b50613426816133726133d59367ffffffffffffffff165f527f40c6c8c28789853c7efd823ab20824bbd71718a8a5915e855f6f288c9a26ad0160205260405f2090565b8686165f5260205261339b8a6dffffffffffffffffffffffffffff60405f205460301c16613e6c565b93909167ffffffffffffffff165f527f40c6c8c28789853c7efd823ab20824bbd71718a8a5915e855f6f288c9a26ad0160205260405f2090565b8686165f5260205260405f20907fffffffffffffffffffffffff0000000000000000000000000000ffffffffffff73ffffffffffffffffffffffffffff00000000000083549260301b169116179055565b613311565b827f1871a90c000000000000000000000000000000000000000000000000000000005f5260045260245ffd5b61346042613f2b565b63ffffffff82169165ffffffffffff604082901c811692168211613488575090915f91508190565b60201c63ffffffff1692565b65ffffffffffff62093a8091160165ffffffffffff8111612b0d5765ffffffffffff806134c042613f2b565b169116111590565b67ffffffffffffffff81169167ffffffffffffffff831461342b5761351e8267ffffffffffffffff165f527f40c6c8c28789853c7efd823ab20824bbd71718a8a5915e855f6f288c9a26ad0160205260405f2090565b73ffffffffffffffffffffffffffffffffffffffff82165f5260205265ffffffffffff60405f205416156135d55761359c73ffffffffffffffffffffffffffffffffffffffff9267ffffffffffffffff165f527f40c6c8c28789853c7efd823ab20824bbd71718a8a5915e855f6f288c9a26ad0160205260405f2090565b8282165f526020525f604081205516907ff229baa593af28c41b1d16b748cd7688f0c83aaf92d4be41c44005defe84c1665f80a3600190565b5050505f90565b9060048110613645573073ffffffffffffffffffffffffffffffffffffffff8316146136935761360c905f613a5d565b9290911580613656575b61364d5761362391612ab1565b90156136455763ffffffff808093169116908180821191180218169081159190565b50505f905f90565b5050505f905f90565b50305f9081527f40c6c8c28789853c7efd823ab20824bbd71718a8a5915e855f6f288c9a26ad00602052604090206001015460701c60ff16613616565b9050600411612089577f40c6c8c28789853c7efd823ab20824bbd71718a8a5915e855f6f288c9a26ad035461297b5f357fffffffff000000000000000000000000000000000000000000000000000000001630612e20565b91906004821061364d573073ffffffffffffffffffffffffffffffffffffffff84161461371c579061360c91613a5d565b6137269250612c83565b61297b7f40c6c8c28789853c7efd823ab20824bbd71718a8a5915e855f6f288c9a26ad03549130612e20565b5f9060048110613a535780600411612089577fffffffff000000000000000000000000000000000000000000000000000000005f3516907f853551b80000000000000000000000000000000000000000000000000000000082148015613a2a575b8015613a01575b80156139d8575b80156139af575b6139a3577f18ff183c000000000000000000000000000000000000000000000000000000008214801561397a575b8015613951575b613915577f25c471a000000000000000000000000000000000000000000000000000000000821480156138ec575b61387757503082527f40c6c8c28789853c7efd823ab20824bbd71718a8a5915e855f6f288c9a26ad006020526040822090825260205267ffffffffffffffff6040822054169181929190565b905060241161021b578061021b575060043567ffffffffffffffff811681036120895760016138e067ffffffffffffffff9267ffffffffffffffff165f527f40c6c8c28789853c7efd823ab20824bbd71718a8a5915e855f6f288c9a26ad0160205260405f2090565b01541690600191905f90565b507fb7d2b16200000000000000000000000000000000000000000000000000000000821461382b565b9150506024116120895760043573ffffffffffffffffffffffffffffffffffffffff81168091036120895761394990612766565b6001915f9190565b507f08d6122d0000000000000000000000000000000000000000000000000000000082146137fd565b507f167bd3950000000000000000000000000000000000000000000000000000000082146137f6565b5050506001905f905f90565b507fd22b59890000000000000000000000000000000000000000000000000000000082146137c8565b507fa64d95ce0000000000000000000000000000000000000000000000000000000082146137c1565b507f529629520000000000000000000000000000000000000000000000000000000082146137ba565b507f30cae1870000000000000000000000000000000000000000000000000000000082146137b3565b50505f905f905f90565b60048210613a53577fffffffff00000000000000000000000000000000000000000000000000000000613a908383612c83565b16917f853551b80000000000000000000000000000000000000000000000000000000083148015613d12575b8015613ce9575b8015613cc0575b8015613c97575b6139a3577f18ff183c0000000000000000000000000000000000000000000000000000000083148015613c6e575b8015613c45575b613c10577f25c471a00000000000000000000000000000000000000000000000000000000083148015613be7575b613b82575050305f527f40c6c8c28789853c7efd823ab20824bbd71718a8a5915e855f6f288c9a26ad0060205260405f20905f5260205267ffffffffffffffff60405f205416905f91905f90565b909150602411612089576004013567ffffffffffffffff811681036120895760016138e067ffffffffffffffff9267ffffffffffffffff165f527f40c6c8c28789853c7efd823ab20824bbd71718a8a5915e855f6f288c9a26ad0160205260405f2090565b507fb7d2b162000000000000000000000000000000000000000000000000000000008314613b34565b909150602411612089576004013573ffffffffffffffffffffffffffffffffffffffff81168091036120895761394990612766565b507f08d6122d000000000000000000000000000000000000000000000000000000008314613b06565b507f167bd395000000000000000000000000000000000000000000000000000000008314613aff565b507fd22b5989000000000000000000000000000000000000000000000000000000008314613ad1565b507fa64d95ce000000000000000000000000000000000000000000000000000000008314613aca565b507f52962952000000000000000000000000000000000000000000000000000000008314613ac3565b507f30cae187000000000000000000000000000000000000000000000000000000008314613abc565b90613d785750805115613d5057805190602001fd5b7fd6bda275000000000000000000000000000000000000000000000000000000005f5260045ffd5b81511580613dcb575b613d89575090565b73ffffffffffffffffffffffffffffffffffffffff907f9996b315000000000000000000000000000000000000000000000000000000005f521660045260245ffd5b50803b15613d81565b613de563ffffffff91939293613457565b505092168063ffffffff84168181115f14613e52570363ffffffff8111612b0d57613e3363ffffffff8067ffffffff00000000935b16806206978011816206978018021816612f4142613f2b565b9360201b166dffffffffffff00000000000000008460401b1617179190565b505067ffffffff00000000613e3363ffffffff805f613e1a565b613e7d63ffffffff91939293613457565b505092168063ffffffff84168181115f14613ebb570363ffffffff8111612b0d57613e3363ffffffff67ffffffff00000000925b16612f4142613f2b565b505067ffffffff00000000613e3363ffffffff5f613eb1565b60ff7ff0c57e16840df040f15088dc2f81fe391c3923bec73e23a9662efc9c229c6a005460401c1615613f0357565b7fd7e6bcf8000000000000000000000000000000000000000000000000000000005f5260045ffd5b65ffffffffffff8111613f435765ffffffffffff1690565b7f6dfcc650000000000000000000000000000000000000000000000000000000005f52603060045260245260445ffdfea2646970667358221220c0abd5032d446d7babecb00bbe69337c4e4b8a98c6b67fdd87abe147f6ba4a8864736f6c634300081a0033","linkReferences":{}},"methodIdentifiers":{"ADMIN_ROLE()":"75b238fc","PUBLIC_ROLE()":"3ca7c02a","UPGRADE_INTERFACE_VERSION()":"ad3cb1cc","canCall(address,address,bytes4)":"b7009613","cancel(address,address,bytes)":"d6bb62c6","consumeScheduledOp(address,bytes)":"94c7d7ee","execute(address,bytes)":"1cff79cd","expiration()":"4665096d","getAccess(uint64,address)":"3078f114","getNonce(bytes32)":"4136a33c","getRoleAdmin(uint64)":"530dd456","getRoleGrantDelay(uint64)":"12be8727","getRoleGuardian(uint64)":"0b0a93ba","getSchedule(bytes32)":"3adc277a","getTargetAdminDelay(address)":"4c1da1e2","getTargetFunctionRole(address,bytes4)":"6d5115bd","grantRole(uint64,address,uint32)":"25c471a0","hasRole(uint64,address)":"d1f856ee","hashOperation(address,address,bytes)":"abd9bd2a","initialize(address)":"c4d66de8","isTargetClosed(address)":"a166aa89","labelRole(uint64,string)":"853551b8","minSetback()":"cc1b6c81","multicall(bytes[])":"ac9650d8","proxiableUUID()":"52d1902d","renounceRole(uint64,address)":"fe0776f5","revokeRole(uint64,address)":"b7d2b162","schedule(address,bytes,uint48)":"f801a698","setGrantDelay(uint64,uint32)":"a64d95ce","setRoleAdmin(uint64,uint64)":"30cae187","setRoleGuardian(uint64,uint64)":"52962952","setTargetAdminDelay(address,uint32)":"d22b5989","setTargetClosed(address,bool)":"167bd395","setTargetFunctionRole(address,bytes4[],uint64)":"08d6122d","updateAuthority(address,address)":"18ff183c","upgradeToAndCall(address,bytes)":"4f1ef286"},"storageLayout":{"storage":[],"types":{}},"id":0}