{
  "abi": [
    {
      "type": "constructor",
      "inputs": [
        {
          "name": "rightsPolicyManager",
          "type": "address",
          "internalType": "address"
        },
        {
          "name": "agreementManager",
          "type": "address",
          "internalType": "address"
        },
        {
          "name": "ledgerVault",
          "type": "address",
          "internalType": "address"
        },
        {
          "name": "mmc",
          "type": "address",
          "internalType": "address"
        }
      ],
      "stateMutability": "nonpayable"
    },
    {
      "type": "function",
      "name": "AGREEMENT_MANAGER",
      "inputs": [],
      "outputs": [
        {
          "name": "",
          "type": "address",
          "internalType": "contract IAgreementManager"
        }
      ],
      "stateMutability": "view"
    },
    {
      "type": "function",
      "name": "LEDGER_VAULT",
      "inputs": [],
      "outputs": [
        {
          "name": "",
          "type": "address",
          "internalType": "contract ILedgerVault"
        }
      ],
      "stateMutability": "view"
    },
    {
      "type": "function",
      "name": "MMC",
      "inputs": [],
      "outputs": [
        {
          "name": "",
          "type": "address",
          "internalType": "address"
        }
      ],
      "stateMutability": "view"
    },
    {
      "type": "function",
      "name": "RIGHTS_POLICY_MANAGER",
      "inputs": [],
      "outputs": [
        {
          "name": "",
          "type": "address",
          "internalType": "contract IRightsPolicyManager"
        }
      ],
      "stateMutability": "view"
    },
    {
      "type": "function",
      "name": "UPGRADE_INTERFACE_VERSION",
      "inputs": [],
      "outputs": [
        {
          "name": "",
          "type": "string",
          "internalType": "string"
        }
      ],
      "stateMutability": "view"
    },
    {
      "type": "function",
      "name": "authority",
      "inputs": [],
      "outputs": [
        {
          "name": "",
          "type": "address",
          "internalType": "address"
        }
      ],
      "stateMutability": "view"
    },
    {
      "type": "function",
      "name": "initialize",
      "inputs": [
        {
          "name": "accessManager",
          "type": "address",
          "internalType": "address"
        }
      ],
      "outputs": [],
      "stateMutability": "nonpayable"
    },
    {
      "type": "function",
      "name": "isConsumingScheduledOp",
      "inputs": [],
      "outputs": [
        {
          "name": "",
          "type": "bytes4",
          "internalType": "bytes4"
        }
      ],
      "stateMutability": "view"
    },
    {
      "type": "function",
      "name": "proxiableUUID",
      "inputs": [],
      "outputs": [
        {
          "name": "",
          "type": "bytes32",
          "internalType": "bytes32"
        }
      ],
      "stateMutability": "view"
    },
    {
      "type": "function",
      "name": "registerAccessAgreement",
      "inputs": [
        {
          "name": "amount",
          "type": "uint256",
          "internalType": "uint256"
        },
        {
          "name": "holder",
          "type": "address",
          "internalType": "address"
        },
        {
          "name": "policy",
          "type": "address",
          "internalType": "address"
        },
        {
          "name": "parties",
          "type": "address[]",
          "internalType": "address[]"
        },
        {
          "name": "payload",
          "type": "bytes",
          "internalType": "bytes"
        }
      ],
      "outputs": [
        {
          "name": "",
          "type": "uint256[]",
          "internalType": "uint256[]"
        }
      ],
      "stateMutability": "nonpayable"
    },
    {
      "type": "function",
      "name": "setAuthority",
      "inputs": [
        {
          "name": "newAuthority",
          "type": "address",
          "internalType": "address"
        }
      ],
      "outputs": [],
      "stateMutability": "nonpayable"
    },
    {
      "type": "function",
      "name": "sponsoredAccessAgreement",
      "inputs": [
        {
          "name": "holder",
          "type": "address",
          "internalType": "address"
        },
        {
          "name": "campaign",
          "type": "address",
          "internalType": "address"
        },
        {
          "name": "policy",
          "type": "address",
          "internalType": "address"
        },
        {
          "name": "parties",
          "type": "address[]",
          "internalType": "address[]"
        },
        {
          "name": "payload",
          "type": "bytes",
          "internalType": "bytes"
        }
      ],
      "outputs": [
        {
          "name": "",
          "type": "uint256[]",
          "internalType": "uint256[]"
        }
      ],
      "stateMutability": "nonpayable"
    },
    {
      "type": "function",
      "name": "upgradeToAndCall",
      "inputs": [
        {
          "name": "newImplementation",
          "type": "address",
          "internalType": "address"
        },
        {
          "name": "data",
          "type": "bytes",
          "internalType": "bytes"
        }
      ],
      "outputs": [],
      "stateMutability": "payable"
    },
    {
      "type": "event",
      "name": "AccessAgreementCreated",
      "inputs": [
        {
          "name": "holder",
          "type": "address",
          "indexed": true,
          "internalType": "address"
        },
        {
          "name": "policyAddress",
          "type": "address",
          "indexed": true,
          "internalType": "address"
        },
        {
          "name": "proof",
          "type": "uint256",
          "indexed": false,
          "internalType": "uint256"
        }
      ],
      "anonymous": false
    },
    {
      "type": "event",
      "name": "AuthorityUpdated",
      "inputs": [
        {
          "name": "authority",
          "type": "address",
          "indexed": false,
          "internalType": "address"
        }
      ],
      "anonymous": false
    },
    {
      "type": "event",
      "name": "Initialized",
      "inputs": [
        {
          "name": "version",
          "type": "uint64",
          "indexed": false,
          "internalType": "uint64"
        }
      ],
      "anonymous": false
    },
    {
      "type": "event",
      "name": "SponsoredAccess",
      "inputs": [
        {
          "name": "campaign",
          "type": "address",
          "indexed": true,
          "internalType": "address"
        },
        {
          "name": "holder",
          "type": "address",
          "indexed": true,
          "internalType": "address"
        },
        {
          "name": "policyAddress",
          "type": "address",
          "indexed": true,
          "internalType": "address"
        },
        {
          "name": "reservedAmount",
          "type": "uint256",
          "indexed": false,
          "internalType": "uint256"
        },
        {
          "name": "parties",
          "type": "address[]",
          "indexed": false,
          "internalType": "address[]"
        }
      ],
      "anonymous": false
    },
    {
      "type": "event",
      "name": "Upgraded",
      "inputs": [
        {
          "name": "implementation",
          "type": "address",
          "indexed": true,
          "internalType": "address"
        }
      ],
      "anonymous": false
    },
    {
      "type": "error",
      "name": "AccessManagedInvalidAuthority",
      "inputs": [
        {
          "name": "authority",
          "type": "address",
          "internalType": "address"
        }
      ]
    },
    {
      "type": "error",
      "name": "AccessManagedRequiredDelay",
      "inputs": [
        {
          "name": "caller",
          "type": "address",
          "internalType": "address"
        },
        {
          "name": "delay",
          "type": "uint32",
          "internalType": "uint32"
        }
      ]
    },
    {
      "type": "error",
      "name": "AccessManagedUnauthorized",
      "inputs": [
        {
          "name": "caller",
          "type": "address",
          "internalType": "address"
        }
      ]
    },
    {
      "type": "error",
      "name": "AddressEmptyCode",
      "inputs": [
        {
          "name": "target",
          "type": "address",
          "internalType": "address"
        }
      ]
    },
    {
      "type": "error",
      "name": "ERC1967InvalidImplementation",
      "inputs": [
        {
          "name": "implementation",
          "type": "address",
          "internalType": "address"
        }
      ]
    },
    {
      "type": "error",
      "name": "ERC1967NonPayable",
      "inputs": []
    },
    {
      "type": "error",
      "name": "FailedCall",
      "inputs": []
    },
    {
      "type": "error",
      "name": "InvalidInitialization",
      "inputs": []
    },
    {
      "type": "error",
      "name": "InvalidUnauthorizedOperation",
      "inputs": [
        {
          "name": "",
          "type": "string",
          "internalType": "string"
        }
      ]
    },
    {
      "type": "error",
      "name": "NotInitializing",
      "inputs": []
    },
    {
      "type": "error",
      "name": "UUPSUnauthorizedCallContext",
      "inputs": []
    },
    {
      "type": "error",
      "name": "UUPSUnsupportedProxiableUUID",
      "inputs": [
        {
          "name": "slot",
          "type": "bytes32",
          "internalType": "bytes32"
        }
      ]
    }
  ],
  "bytecode": {
    "object": "0x610120346101ba57601f611abf38819003918201601f19168301916001600160401b038311848410176101be578084926080946040528339810103126101ba57610048816101d2565b610054602083016101d2565b9061006d6060610066604086016101d2565b94016101d2565b92306080527ff0c57e16840df040f15088dc2f81fe391c3923bec73e23a9662efc9c229c6a005460ff8160401c166101ab576002600160401b03196001600160401b03821601610142575b506001600160a01b0390811660e05290811660c052166101005260a0526040516118d890816101e782396080518181816109e90152610aea015260a05181818161070801528181610f3c0152611303015260c05181818160d6015261132d015260e05181818161047e01528181610752015261137501526101005181818161100101526114590152f35b6001600160401b0319166001600160401b039081177ff0c57e16840df040f15088dc2f81fe391c3923bec73e23a9662efc9c229c6a00556040519081527fc7f505b2f371ae2175ee4913f4499e1f2633a7b5936321eed1cdaeb6115181d290602090a15f6100b8565b63f92ee8a960e01b5f5260045ffd5b5f80fd5b634e487b7160e01b5f52604160045260245ffd5b51906001600160a01b03821682036101ba5756fe6080806040526004361015610012575f80fd5b5f3560e01c908162efe0c314610fd757508063290ed22114610f6057806344dea5a714610f105780634f1ef28614610a6157806352d1902d146109c25780637a9e5e4b146108eb5780638d208718146105c95780638fb3603714610536578063ad3cb1cc146104a2578063bc23e35e14610452578063bf7e214f14610400578063c4d66de8146100fe5763f1bdc452146100aa575f80fd5b346100fa575f6003193601126100fa57602060405173ffffffffffffffffffffffffffffffffffffffff7f0000000000000000000000000000000000000000000000000000000000000000168152f35b5f80fd5b346100fa5760206003193601126100fa5761011761106b565b7ff0c57e16840df040f15088dc2f81fe391c3923bec73e23a9662efc9c229c6a005460ff8160401c16159167ffffffffffffffff8216801590816103f8575b60011490816103ee575b1590816103e5575b506103bd57818360017fffffffffffffffffffffffffffffffffffffffffffffffff000000000000000073ffffffffffffffffffffffffffffffffffffffff9516177ff0c57e16840df040f15088dc2f81fe391c3923bec73e23a9662efc9c229c6a0055610368575b506101da6117b2565b6101e26117b2565b6101ea6117b2565b6101f26117b2565b6101fb81611707565b6102036117b2565b16801561030a577fffffffffffffffffffffffff00000000000000000000000000000000000000007fb8e950798a2a06a6f5727a94041b193569f4f67d69a0de3cf866d93822e7fa005416177fb8e950798a2a06a6f5727a94041b193569f4f67d69a0de3cf866d93822e7fa005561027757005b7fffffffffffffffffffffffffffffffffffffffffffffff00ffffffffffffffff7ff0c57e16840df040f15088dc2f81fe391c3923bec73e23a9662efc9c229c6a0054167ff0c57e16840df040f15088dc2f81fe391c3923bec73e23a9662efc9c229c6a00557fc7f505b2f371ae2175ee4913f4499e1f2633a7b5936321eed1cdaeb6115181d2602060405160018152a1005b60646040517f6317e35f00000000000000000000000000000000000000000000000000000000815260206004820152601a60248201527f496e76616c696420617574686f7269747920616464726573732e0000000000006044820152fd5b7fffffffffffffffffffffffffffffffffffffffffffffff0000000000000000001668010000000000000001177ff0c57e16840df040f15088dc2f81fe391c3923bec73e23a9662efc9c229c6a0055836101d1565b7ff92ee8a9000000000000000000000000000000000000000000000000000000005f5260045ffd5b90501584610168565b303b159150610160565b849150610156565b346100fa575f6003193601126100fa57602073ffffffffffffffffffffffffffffffffffffffff7ff3177357ab46d8af007ab3fdb9af81da189e1068fefdc0073dca88a2cab40a005416604051908152f35b346100fa575f6003193601126100fa57602060405173ffffffffffffffffffffffffffffffffffffffff7f0000000000000000000000000000000000000000000000000000000000000000168152f35b346100fa575f6003193601126100fa5760408051906104c18183611126565b6005825260208201917f352e302e3000000000000000000000000000000000000000000000000000000083527fffffffffffffffffffffffffffffffffffffffffffffffffffffffffffffffe0601f8351948593602085525180918160208701528686015e5f85828601015201168101030190f35b346100fa575f6003193601126100fa577ff3177357ab46d8af007ab3fdb9af81da189e1068fefdc0073dca88a2cab40a005460a01c60ff16156105c15760207f8fb36037000000000000000000000000000000000000000000000000000000005b7fffffffff0000000000000000000000000000000000000000000000000000000060405191168152f35b60205f610597565b346100fa5760a06003193601126100fa576105e261106b565b6105ea611025565b906105f3611048565b60643567ffffffffffffffff81116100fa5761061390369060040161108e565b9160843567ffffffffffffffff81116100fa576106349036906004016110bf565b94909573ffffffffffffffffffffffffffffffffffffffff83166106598115156111ce565b73ffffffffffffffffffffffffffffffffffffffff8216801561088d57604051927f522bb7040000000000000000000000000000000000000000000000000000000084523360048501526020846024815f865af193841561084b575f94610856575b506040517f2c2eb94a00000000000000000000000000000000000000000000000000000000815273ffffffffffffffffffffffffffffffffffffffff9182166004820152602481018590527f0000000000000000000000000000000000000000000000000000000000000000909116604482015290602082806064810103815f73ffffffffffffffffffffffffffffffffffffffff7f0000000000000000000000000000000000000000000000000000000000000000165af191821561084b575f926107ff575b6107fb6107ef8b8d8c8c8c8c8c8c8c8c604051918252604060208301527f5bae04d3d17bea98c9c14cfa030d692645c43398cb82578a2379aaba097de1d373ffffffffffffffffffffffffffffffffffffffff861692806107e7604082018c8c611233565b0390a4611285565b604051918291826110ed565b0390f35b989795939150989593916020893d602011610843575b8161082260209383611126565b810103126100fa576107fb996107ef99519294969899509092949699610782565b3d9150610815565b6040513d5f823e3d90fd5b919093506020823d602011610885575b8161087360209383611126565b810103126100fa5790519260206106bb565b3d9150610866565b60646040517f08c379a000000000000000000000000000000000000000000000000000000000815260206004820152601f60248201527f43616d706169676e20616464726573732063616e6e6f74206265207a65726f006044820152fd5b346100fa5760206003193601126100fa5761090461106b565b73ffffffffffffffffffffffffffffffffffffffff7ff3177357ab46d8af007ab3fdb9af81da189e1068fefdc0073dca88a2cab40a005416330361099657803b156109545761095290611707565b005b73ffffffffffffffffffffffffffffffffffffffff907fc2f31e5e000000000000000000000000000000000000000000000000000000005f521660045260245ffd5b7f068ca9d8000000000000000000000000000000000000000000000000000000005f523360045260245ffd5b346100fa575f6003193601126100fa5773ffffffffffffffffffffffffffffffffffffffff7f0000000000000000000000000000000000000000000000000000000000000000163003610a395760206040517f360894a13ba1a3210667c828492db98dca3e2076cc3735a920a3ca505d382bbc8152f35b7fe07c8dba000000000000000000000000000000000000000000000000000000005f5260045ffd5b60406003193601126100fa57610a7561106b565b6024359067ffffffffffffffff82116100fa57366023830112156100fa57816004013590610aa282611194565b91610ab06040519384611126565b808352602083019336602483830101116100fa57815f9260246020930187378401015273ffffffffffffffffffffffffffffffffffffffff7f000000000000000000000000000000000000000000000000000000000000000016803014908115610ece575b50610a39576044604073ffffffffffffffffffffffffffffffffffffffff7fb8e950798a2a06a6f5727a94041b193569f4f67d69a0de3cf866d93822e7fa0054168151928380927fd1f856ee0000000000000000000000000000000000000000000000000000000082525f60048301523360248301525afa801561084b575f915f91610e7d575b5081610e6e575b5015610dea5773ffffffffffffffffffffffffffffffffffffffff8116926040517f52d1902d000000000000000000000000000000000000000000000000000000008152602081600481885afa5f9181610db6575b50610c2957847f4c9c8ce3000000000000000000000000000000000000000000000000000000005f5260045260245ffd5b807f360894a13ba1a3210667c828492db98dca3e2076cc3735a920a3ca505d382bbc869203610d8b5750823b15610d6057807fffffffffffffffffffffffff00000000000000000000000000000000000000007f360894a13ba1a3210667c828492db98dca3e2076cc3735a920a3ca505d382bbc5416177f360894a13ba1a3210667c828492db98dca3e2076cc3735a920a3ca505d382bbc557fbc7cd75a20ee27fd9adebab32041f755214dbc6bffa90cc0225b39da2e5c2d3b5f80a2825115610d2e575f8091610952945190845af43d15610d26573d91610d0a83611194565b92610d186040519485611126565b83523d5f602085013e611809565b606091611809565b50505034610d3857005b7fb398979f000000000000000000000000000000000000000000000000000000005f5260045ffd5b7f4c9c8ce3000000000000000000000000000000000000000000000000000000005f5260045260245ffd5b7faa1d49a4000000000000000000000000000000000000000000000000000000005f5260045260245ffd5b9091506020813d602011610de2575b81610dd260209383611126565b810103126100fa57519086610bf8565b3d9150610dc5565b60846040517f6317e35f00000000000000000000000000000000000000000000000000000000815260206004820152602360248201527f4f6e6c792061646d696e2063616e20706572666f726d2074686973206163746960448201527f6f6e2e00000000000000000000000000000000000000000000000000000000006064820152fd5b63ffffffff9150161584610ba3565b9150506040813d604011610ec6575b81610e9960409383611126565b810103126100fa5780519081151582036100fa57602001519063ffffffff821682036100fa579085610b9c565b3d9150610e8c565b905073ffffffffffffffffffffffffffffffffffffffff7f360894a13ba1a3210667c828492db98dca3e2076cc3735a920a3ca505d382bbc5416141584610b15565b346100fa575f6003193601126100fa57602060405173ffffffffffffffffffffffffffffffffffffffff7f0000000000000000000000000000000000000000000000000000000000000000168152f35b346100fa5760a06003193601126100fa57610f79611025565b610f81611048565b60643567ffffffffffffffff81116100fa57610fa190369060040161108e565b9190926084359267ffffffffffffffff84116100fa576107fb94610fcc6107ef9536906004016110bf565b949093600435611285565b346100fa575f6003193601126100fa5760209073ffffffffffffffffffffffffffffffffffffffff7f0000000000000000000000000000000000000000000000000000000000000000168152f35b6024359073ffffffffffffffffffffffffffffffffffffffff821682036100fa57565b6044359073ffffffffffffffffffffffffffffffffffffffff821682036100fa57565b6004359073ffffffffffffffffffffffffffffffffffffffff821682036100fa57565b9181601f840112156100fa5782359167ffffffffffffffff83116100fa576020808501948460051b0101116100fa57565b9181601f840112156100fa5782359167ffffffffffffffff83116100fa57602083818601950101116100fa57565b60206040818301928281528451809452019201905f5b8181106111105750505090565b8251845260209384019390920191600101611103565b90601f7fffffffffffffffffffffffffffffffffffffffffffffffffffffffffffffffe0910116810190811067ffffffffffffffff82111761116757604052565b7f4e487b71000000000000000000000000000000000000000000000000000000005f52604160045260245ffd5b67ffffffffffffffff811161116757601f017fffffffffffffffffffffffffffffffffffffffffffffffffffffffffffffffe01660200190565b156111d557565b60646040517f08c379a000000000000000000000000000000000000000000000000000000000815260206004820152601d60248201527f506f6c69637920616464726573732063616e6e6f74206265207a65726f0000006044820152fd5b916020908281520191905f905b80821061124d5750505090565b90919283359073ffffffffffffffffffffffffffffffffffffffff82168092036100fa57602081600193829352019401920190611240565b959490929186156116a95773ffffffffffffffffffffffffffffffffffffffff16946112b28615156111ce565b841561164b576040517f2c2eb94a000000000000000000000000000000000000000000000000000000008152336004820152602481019790975273ffffffffffffffffffffffffffffffffffffffff7f000000000000000000000000000000000000000000000000000000000000000081811660448a0152977f000000000000000000000000000000000000000000000000000000000000000090911695909390602085806064810103815f73ffffffffffffffffffffffffffffffffffffffff7f0000000000000000000000000000000000000000000000000000000000000000165af194851561084b575f95611615575b50908291604051998a967f3f5d1b6f000000000000000000000000000000000000000000000000000000008852600488015273ffffffffffffffffffffffffffffffffffffffff1660248701528760448701526064860160a0905260a486019061140e92611233565b9284840360031901608486015281845260208401378082016020015f9052601f017fffffffffffffffffffffffffffffffffffffffffffffffffffffffffffffffe0160103602001847f000000000000000000000000000000000000000000000000000000000000000073ffffffffffffffffffffffffffffffffffffffff1691815a6020945f91f193841561084b575f946115e1575b50925f73ffffffffffffffffffffffffffffffffffffffff6064829660405197889384927f9f7434f400000000000000000000000000000000000000000000000000000000845287600485015216968760248401528860448401525af193841561084b575f9461153f575b5060207f8737ca68887394213eb903905fd90ee0246fdd01a11b84a44d5f8dd1f4e7960791604051908152a390565b9093503d805f833e6115518183611126565b8101906020818303126100fa5780519067ffffffffffffffff82116100fa57019080601f830112156100fa5781519167ffffffffffffffff8311611167578260051b90604051936115a56020840186611126565b84526020808501928201019283116100fa57602001905b8282106115d157509194915060209050611510565b81518152602091820191016115bc565b93506020843d60201161160d575b816115fc60209383611126565b810103126100fa579251925f6114a5565b3d91506115ef565b919094506020823d602011611643575b8161163260209383611126565b810103126100fa57905193826113a5565b3d9150611625565b60646040517f08c379a000000000000000000000000000000000000000000000000000000000815260206004820152601760248201527f506172746965732063616e6e6f7420626520656d7074790000000000000000006044820152fd5b60646040517f08c379a000000000000000000000000000000000000000000000000000000000815260206004820152601560248201527f416d6f756e742063616e6e6f74206265207a65726f00000000000000000000006044820152fd5b602073ffffffffffffffffffffffffffffffffffffffff7f2f658b440c35314f52658ea8a740e05b284cdc84dc9ae01e891f21b8933e7cad9216807fffffffffffffffffffffffff00000000000000000000000000000000000000007ff3177357ab46d8af007ab3fdb9af81da189e1068fefdc0073dca88a2cab40a005416177ff3177357ab46d8af007ab3fdb9af81da189e1068fefdc0073dca88a2cab40a0055604051908152a1565b60ff7ff0c57e16840df040f15088dc2f81fe391c3923bec73e23a9662efc9c229c6a005460401c16156117e157565b7fd7e6bcf8000000000000000000000000000000000000000000000000000000005f5260045ffd5b90611846575080511561181e57805190602001fd5b7fd6bda275000000000000000000000000000000000000000000000000000000005f5260045ffd5b81511580611899575b611857575090565b73ffffffffffffffffffffffffffffffffffffffff907f9996b315000000000000000000000000000000000000000000000000000000005f521660045260245ffd5b50803b1561184f56fea2646970667358221220421ab1a6f9655a3f937be26e1604541d31addaa808911c171558d3fde7a3fc9b64736f6c634300081a0033",
    "linkReferences": {}
  },
  "methodIdentifiers": {
    "AGREEMENT_MANAGER()": "00efe0c3",
    "LEDGER_VAULT()": "bc23e35e",
    "MMC()": "44dea5a7",
    "RIGHTS_POLICY_MANAGER()": "f1bdc452",
    "UPGRADE_INTERFACE_VERSION()": "ad3cb1cc",
    "authority()": "bf7e214f",
    "initialize(address)": "c4d66de8",
    "isConsumingScheduledOp()": "8fb36037",
    "proxiableUUID()": "52d1902d",
    "registerAccessAgreement(uint256,address,address,address[],bytes)": "290ed221",
    "setAuthority(address)": "7a9e5e4b",
    "sponsoredAccessAgreement(address,address,address,address[],bytes)": "8d208718",
    "upgradeToAndCall(address,bytes)": "4f1ef286"
  },
  "storageLayout": {
    "storage": [],
    "types": {}
  },
  "id": 7
}