{"abi":[{"type":"constructor","inputs":[{"name":"rightsPolicyManager","type":"address","internalType":"address"},{"name":"agreementManager","type":"address","internalType":"address"},{"name":"ledgerVault","type":"address","internalType":"address"},{"name":"mmc","type":"address","internalType":"address"}],"stateMutability":"nonpayable"},{"type":"function","name":"AGREEMENT_MANAGER","inputs":[],"outputs":[{"name":"","type":"address","internalType":"contract IAgreementManager"}],"stateMutability":"view"},{"type":"function","name":"LEDGER_VAULT","inputs":[],"outputs":[{"name":"","type":"address","internalType":"contract ILedgerVault"}],"stateMutability":"view"},{"type":"function","name":"MMC","inputs":[],"outputs":[{"name":"","type":"address","internalType":"address"}],"stateMutability":"view"},{"type":"function","name":"RIGHTS_POLICY_MANAGER","inputs":[],"outputs":[{"name":"","type":"address","internalType":"contract IRightsPolicyManager"}],"stateMutability":"view"},{"type":"function","name":"UPGRADE_INTERFACE_VERSION","inputs":[],"outputs":[{"name":"","type":"string","internalType":"string"}],"stateMutability":"view"},{"type":"function","name":"authority","inputs":[],"outputs":[{"name":"","type":"address","internalType":"address"}],"stateMutability":"view"},{"type":"function","name":"initialize","inputs":[{"name":"accessManager","type":"address","internalType":"address"}],"outputs":[],"stateMutability":"nonpayable"},{"type":"function","name":"isConsumingScheduledOp","inputs":[],"outputs":[{"name":"","type":"bytes4","internalType":"bytes4"}],"stateMutability":"view"},{"type":"function","name":"proxiableUUID","inputs":[],"outputs":[{"name":"","type":"bytes32","internalType":"bytes32"}],"stateMutability":"view"},{"type":"function","name":"registerAccessAgreement","inputs":[{"name":"amount","type":"uint256","internalType":"uint256"},{"name":"holder","type":"address","internalType":"address"},{"name":"policyAddress","type":"address","internalType":"address"},{"name":"parties","type":"address[]","internalType":"address[]"},{"name":"payload","type":"bytes","internalType":"bytes"}],"outputs":[{"name":"","type":"uint256[]","internalType":"uint256[]"}],"stateMutability":"nonpayable"},{"type":"function","name":"registerSponsoredAccessAgreement","inputs":[{"name":"holder","type":"address","internalType":"address"},{"name":"campaignAddress","type":"address","internalType":"address"},{"name":"policyAddress","type":"address","internalType":"address"},{"name":"parties","type":"address[]","internalType":"address[]"},{"name":"payload","type":"bytes","internalType":"bytes"}],"outputs":[{"name":"","type":"uint256[]","internalType":"uint256[]"}],"stateMutability":"nonpayable"},{"type":"function","name":"setAuthority","inputs":[{"name":"newAuthority","type":"address","internalType":"address"}],"outputs":[],"stateMutability":"nonpayable"},{"type":"function","name":"upgradeToAndCall","inputs":[{"name":"newImplementation","type":"address","internalType":"address"},{"name":"data","type":"bytes","internalType":"bytes"}],"outputs":[],"stateMutability":"payable"},{"type":"event","name":"AccessAgreementCreated","inputs":[{"name":"holder","type":"address","indexed":true,"internalType":"address"},{"name":"policyAddress","type":"address","indexed":true,"internalType":"address"},{"name":"proof","type":"uint256","indexed":false,"internalType":"uint256"}],"anonymous":false},{"type":"event","name":"AuthorityUpdated","inputs":[{"name":"authority","type":"address","indexed":false,"internalType":"address"}],"anonymous":false},{"type":"event","name":"Initialized","inputs":[{"name":"version","type":"uint64","indexed":false,"internalType":"uint64"}],"anonymous":false},{"type":"event","name":"SponsoredAccess","inputs":[{"name":"campaign","type":"address","indexed":true,"internalType":"address"},{"name":"holder","type":"address","indexed":true,"internalType":"address"},{"name":"policyAddress","type":"address","indexed":true,"internalType":"address"},{"name":"reservedAmount","type":"uint256","indexed":false,"internalType":"uint256"},{"name":"parties","type":"address[]","indexed":false,"internalType":"address[]"}],"anonymous":false},{"type":"event","name":"Upgraded","inputs":[{"name":"implementation","type":"address","indexed":true,"internalType":"address"}],"anonymous":false},{"type":"error","name":"AccessManagedInvalidAuthority","inputs":[{"name":"authority","type":"address","internalType":"address"}]},{"type":"error","name":"AccessManagedRequiredDelay","inputs":[{"name":"caller","type":"address","internalType":"address"},{"name":"delay","type":"uint32","internalType":"uint32"}]},{"type":"error","name":"AccessManagedUnauthorized","inputs":[{"name":"caller","type":"address","internalType":"address"}]},{"type":"error","name":"AddressEmptyCode","inputs":[{"name":"target","type":"address","internalType":"address"}]},{"type":"error","name":"ERC1967InvalidImplementation","inputs":[{"name":"implementation","type":"address","internalType":"address"}]},{"type":"error","name":"ERC1967NonPayable","inputs":[]},{"type":"error","name":"FailedCall","inputs":[]},{"type":"error","name":"InvalidInitialization","inputs":[]},{"type":"error","name":"InvalidUnauthorizedOperation","inputs":[{"name":"","type":"string","internalType":"string"}]},{"type":"error","name":"NotInitializing","inputs":[]},{"type":"error","name":"UUPSUnauthorizedCallContext","inputs":[]},{"type":"error","name":"UUPSUnsupportedProxiableUUID","inputs":[{"name":"slot","type":"bytes32","internalType":"bytes32"}]}],"bytecode":{"object":"0x610120346101ba57601f6119b638819003918201601f19168301916001600160401b038311848410176101be578084926080946040528339810103126101ba57610048816101d2565b610054602083016101d2565b9061006d6060610066604086016101d2565b94016101d2565b92306080527ff0c57e16840df040f15088dc2f81fe391c3923bec73e23a9662efc9c229c6a005460ff8160401c166101ab576002600160401b03196001600160401b03821601610142575b506001600160a01b0390811660e05290811660c052166101005260a0526040516117cf90816101e782396080518181816109070152610a08015260a05181818161057401528181610e3f015261119c015260c05181818160d601526111c6015260e05181818161041a015281816105aa015261120e015261010051818181610f0401526112f20152f35b6001600160401b0319166001600160401b039081177ff0c57e16840df040f15088dc2f81fe391c3923bec73e23a9662efc9c229c6a00556040519081527fc7f505b2f371ae2175ee4913f4499e1f2633a7b5936321eed1cdaeb6115181d290602090a15f6100b8565b63f92ee8a960e01b5f5260045ffd5b5f80fd5b634e487b7160e01b5f52604160045260245ffd5b51906001600160a01b03821682036101ba5756fe6080806040526004361015610012575f80fd5b5f3560e01c908162efe0c314610eda57508063290ed22114610e6357806344dea5a714610e135780634f1ef2861461097f57806352d1902d146108e05780637a9e5e4b146108095780638fb3603714610776578063ad3cb1cc146106e2578063b0ad582f1461043e578063bc23e35e146103ee578063bf7e214f1461039c578063c4d66de8146100fe5763f1bdc452146100aa575f80fd5b346100fa575f6003193601126100fa57602060405173ffffffffffffffffffffffffffffffffffffffff7f0000000000000000000000000000000000000000000000000000000000000000168152f35b5f80fd5b346100fa5760206003193601126100fa57610117610f6e565b7ff0c57e16840df040f15088dc2f81fe391c3923bec73e23a9662efc9c229c6a005460ff8160401c16159167ffffffffffffffff821680159081610394575b600114908161038a575b159081610381575b5061035957818360017fffffffffffffffffffffffffffffffffffffffffffffffff000000000000000073ffffffffffffffffffffffffffffffffffffffff9516177ff0c57e16840df040f15088dc2f81fe391c3923bec73e23a9662efc9c229c6a0055610304575b506101da6116a9565b6101e26116a9565b6101ea6116a9565b6101f26116a9565b6101fb816115fe565b6102036116a9565b167fffffffffffffffffffffffff00000000000000000000000000000000000000007fb8e950798a2a06a6f5727a94041b193569f4f67d69a0de3cf866d93822e7fa005416177fb8e950798a2a06a6f5727a94041b193569f4f67d69a0de3cf866d93822e7fa005561027157005b7fffffffffffffffffffffffffffffffffffffffffffffff00ffffffffffffffff7ff0c57e16840df040f15088dc2f81fe391c3923bec73e23a9662efc9c229c6a0054167ff0c57e16840df040f15088dc2f81fe391c3923bec73e23a9662efc9c229c6a00557fc7f505b2f371ae2175ee4913f4499e1f2633a7b5936321eed1cdaeb6115181d2602060405160018152a1005b7fffffffffffffffffffffffffffffffffffffffffffffff0000000000000000001668010000000000000001177ff0c57e16840df040f15088dc2f81fe391c3923bec73e23a9662efc9c229c6a0055836101d1565b7ff92ee8a9000000000000000000000000000000000000000000000000000000005f5260045ffd5b90501584610168565b303b159150610160565b849150610156565b346100fa575f6003193601126100fa57602073ffffffffffffffffffffffffffffffffffffffff7ff3177357ab46d8af007ab3fdb9af81da189e1068fefdc0073dca88a2cab40a005416604051908152f35b346100fa575f6003193601126100fa57602060405173ffffffffffffffffffffffffffffffffffffffff7f0000000000000000000000000000000000000000000000000000000000000000168152f35b346100fa5760a06003193601126100fa57610457610f6e565b61045f610f28565b90610468610f4b565b9060643567ffffffffffffffff81116100fa57610489903690600401610f91565b9060843567ffffffffffffffff81116100fa576104aa903690600401610fc2565b94909373ffffffffffffffffffffffffffffffffffffffff8716966040517ffc4dcacb00000000000000000000000000000000000000000000000000000000815273ffffffffffffffffffffffffffffffffffffffff8316988960048301523360248301526020826044815f855af19182156106a2575f926106ad575b506040517f2c2eb94a00000000000000000000000000000000000000000000000000000000815273ffffffffffffffffffffffffffffffffffffffff9384166004820152602481018390527f0000000000000000000000000000000000000000000000000000000000000000841660448201529192602090839060649082905f907f0000000000000000000000000000000000000000000000000000000000000000165af19182156106a2575f92610658575b5090610654996106489998979695949392604051928352604060208401527f5bae04d3d17bea98c9c14cfa030d692645c43398cb82578a2379aaba097de1d373ffffffffffffffffffffffffffffffffffffffff87169380610640604082018c8c6110d1565b0390a4611123565b60405191829182610ff0565b0390f35b9897969594939291506020893d60201161069a575b8161067a60209383611029565b810103126100fa57610654996106489951929394959697989950996105da565b3d915061066d565b6040513d5f823e3d90fd5b91506020823d6020116106da575b816106c860209383611029565b810103126100fa579051906020610527565b3d91506106bb565b346100fa575f6003193601126100fa5760408051906107018183611029565b6005825260208201917f352e302e3000000000000000000000000000000000000000000000000000000083527fffffffffffffffffffffffffffffffffffffffffffffffffffffffffffffffe0601f8351948593602085525180918160208701528686015e5f85828601015201168101030190f35b346100fa575f6003193601126100fa577ff3177357ab46d8af007ab3fdb9af81da189e1068fefdc0073dca88a2cab40a005460a01c60ff16156108015760207f8fb36037000000000000000000000000000000000000000000000000000000005b7fffffffff0000000000000000000000000000000000000000000000000000000060405191168152f35b60205f6107d7565b346100fa5760206003193601126100fa57610822610f6e565b73ffffffffffffffffffffffffffffffffffffffff7ff3177357ab46d8af007ab3fdb9af81da189e1068fefdc0073dca88a2cab40a00541633036108b457803b1561087257610870906115fe565b005b73ffffffffffffffffffffffffffffffffffffffff907fc2f31e5e000000000000000000000000000000000000000000000000000000005f521660045260245ffd5b7f068ca9d8000000000000000000000000000000000000000000000000000000005f523360045260245ffd5b346100fa575f6003193601126100fa5773ffffffffffffffffffffffffffffffffffffffff7f00000000000000000000000000000000000000000000000000000000000000001630036109575760206040517f360894a13ba1a3210667c828492db98dca3e2076cc3735a920a3ca505d382bbc8152f35b7fe07c8dba000000000000000000000000000000000000000000000000000000005f5260045ffd5b60406003193601126100fa57610993610f6e565b6024359067ffffffffffffffff82116100fa57366023830112156100fa578160040135906109c082611097565b916109ce6040519384611029565b808352602083019336602483830101116100fa57815f9260246020930187378401015273ffffffffffffffffffffffffffffffffffffffff7f000000000000000000000000000000000000000000000000000000000000000016803014908115610dd1575b50610957576044604073ffffffffffffffffffffffffffffffffffffffff7fb8e950798a2a06a6f5727a94041b193569f4f67d69a0de3cf866d93822e7fa0054168151928380927fd1f856ee0000000000000000000000000000000000000000000000000000000082525f60048301523360248301525afa9081156106a2575f91610d84575b5015610d005773ffffffffffffffffffffffffffffffffffffffff8116926040517f52d1902d000000000000000000000000000000000000000000000000000000008152602081600481885afa5f9181610ccc575b50610b3f57847f4c9c8ce3000000000000000000000000000000000000000000000000000000005f5260045260245ffd5b807f360894a13ba1a3210667c828492db98dca3e2076cc3735a920a3ca505d382bbc869203610ca15750823b15610c7657807fffffffffffffffffffffffff00000000000000000000000000000000000000007f360894a13ba1a3210667c828492db98dca3e2076cc3735a920a3ca505d382bbc5416177f360894a13ba1a3210667c828492db98dca3e2076cc3735a920a3ca505d382bbc557fbc7cd75a20ee27fd9adebab32041f755214dbc6bffa90cc0225b39da2e5c2d3b5f80a2825115610c44575f8091610870945190845af43d15610c3c573d91610c2083611097565b92610c2e6040519485611029565b83523d5f602085013e611700565b606091611700565b50505034610c4e57005b7fb398979f000000000000000000000000000000000000000000000000000000005f5260045ffd5b7f4c9c8ce3000000000000000000000000000000000000000000000000000000005f5260045260245ffd5b7faa1d49a4000000000000000000000000000000000000000000000000000000005f5260045260245ffd5b9091506020813d602011610cf8575b81610ce860209383611029565b810103126100fa57519086610b0e565b3d9150610cdb565b60846040517f6317e35f00000000000000000000000000000000000000000000000000000000815260206004820152602360248201527f4f6e6c792061646d696e2063616e20706572666f726d2074686973206163746960448201527f6f6e2e00000000000000000000000000000000000000000000000000000000006064820152fd5b90506040813d604011610dc9575b81610d9f60409383611029565b810103126100fa5780519081151582036100fa576020015163ffffffff8116036100fa5784610ab9565b3d9150610d92565b905073ffffffffffffffffffffffffffffffffffffffff7f360894a13ba1a3210667c828492db98dca3e2076cc3735a920a3ca505d382bbc5416141584610a33565b346100fa575f6003193601126100fa57602060405173ffffffffffffffffffffffffffffffffffffffff7f0000000000000000000000000000000000000000000000000000000000000000168152f35b346100fa5760a06003193601126100fa57610e7c610f28565b610e84610f4b565b60643567ffffffffffffffff81116100fa57610ea4903690600401610f91565b9190926084359267ffffffffffffffff84116100fa5761065494610ecf610648953690600401610fc2565b949093600435611123565b346100fa575f6003193601126100fa5760209073ffffffffffffffffffffffffffffffffffffffff7f0000000000000000000000000000000000000000000000000000000000000000168152f35b6024359073ffffffffffffffffffffffffffffffffffffffff821682036100fa57565b6044359073ffffffffffffffffffffffffffffffffffffffff821682036100fa57565b6004359073ffffffffffffffffffffffffffffffffffffffff821682036100fa57565b9181601f840112156100fa5782359167ffffffffffffffff83116100fa576020808501948460051b0101116100fa57565b9181601f840112156100fa5782359167ffffffffffffffff83116100fa57602083818601950101116100fa57565b60206040818301928281528451809452019201905f5b8181106110135750505090565b8251845260209384019390920191600101611006565b90601f7fffffffffffffffffffffffffffffffffffffffffffffffffffffffffffffffe0910116810190811067ffffffffffffffff82111761106a57604052565b7f4e487b71000000000000000000000000000000000000000000000000000000005f52604160045260245ffd5b67ffffffffffffffff811161106a57601f017fffffffffffffffffffffffffffffffffffffffffffffffffffffffffffffffe01660200190565b916020908281520191905f905b8082106110eb5750505090565b90919283359073ffffffffffffffffffffffffffffffffffffffff82168092036100fa576020816001938293520194019201906110de565b959490929186156115a05773ffffffffffffffffffffffffffffffffffffffff169485156115425784156114e4576040517f2c2eb94a000000000000000000000000000000000000000000000000000000008152336004820152602481019790975273ffffffffffffffffffffffffffffffffffffffff7f000000000000000000000000000000000000000000000000000000000000000081811660448a0152977f000000000000000000000000000000000000000000000000000000000000000090911695909390602085806064810103815f73ffffffffffffffffffffffffffffffffffffffff7f0000000000000000000000000000000000000000000000000000000000000000165af19485156106a2575f956114ae575b50908291604051998a967f3f5d1b6f000000000000000000000000000000000000000000000000000000008852600488015273ffffffffffffffffffffffffffffffffffffffff1660248701528760448701526064860160a0905260a48601906112a7926110d1565b9284840360031901608486015281845260208401378082016020015f9052601f017fffffffffffffffffffffffffffffffffffffffffffffffffffffffffffffffe0160103602001847f000000000000000000000000000000000000000000000000000000000000000073ffffffffffffffffffffffffffffffffffffffff1691815a6020945f91f19384156106a2575f9461147a575b50925f73ffffffffffffffffffffffffffffffffffffffff6064829660405197889384927f9f7434f400000000000000000000000000000000000000000000000000000000845287600485015216968760248401528860448401525af19384156106a2575f946113d8575b5060207f8737ca68887394213eb903905fd90ee0246fdd01a11b84a44d5f8dd1f4e7960791604051908152a390565b9093503d805f833e6113ea8183611029565b8101906020818303126100fa5780519067ffffffffffffffff82116100fa57019080601f830112156100fa5781519167ffffffffffffffff831161106a578260051b906040519361143e6020840186611029565b84526020808501928201019283116100fa57602001905b82821061146a575091949150602090506113a9565b8151815260209182019101611455565b93506020843d6020116114a6575b8161149560209383611029565b810103126100fa579251925f61133e565b3d9150611488565b919094506020823d6020116114dc575b816114cb60209383611029565b810103126100fa579051938261123e565b3d91506114be565b60646040517f08c379a000000000000000000000000000000000000000000000000000000000815260206004820152601760248201527f506172746965732063616e6e6f7420626520656d7074790000000000000000006044820152fd5b60646040517f08c379a000000000000000000000000000000000000000000000000000000000815260206004820152601d60248201527f506f6c69637920616464726573732063616e6e6f74206265207a65726f0000006044820152fd5b60646040517f08c379a000000000000000000000000000000000000000000000000000000000815260206004820152601560248201527f416d6f756e742063616e6e6f74206265207a65726f00000000000000000000006044820152fd5b602073ffffffffffffffffffffffffffffffffffffffff7f2f658b440c35314f52658ea8a740e05b284cdc84dc9ae01e891f21b8933e7cad9216807fffffffffffffffffffffffff00000000000000000000000000000000000000007ff3177357ab46d8af007ab3fdb9af81da189e1068fefdc0073dca88a2cab40a005416177ff3177357ab46d8af007ab3fdb9af81da189e1068fefdc0073dca88a2cab40a0055604051908152a1565b60ff7ff0c57e16840df040f15088dc2f81fe391c3923bec73e23a9662efc9c229c6a005460401c16156116d857565b7fd7e6bcf8000000000000000000000000000000000000000000000000000000005f5260045ffd5b9061173d575080511561171557805190602001fd5b7fd6bda275000000000000000000000000000000000000000000000000000000005f5260045ffd5b81511580611790575b61174e575090565b73ffffffffffffffffffffffffffffffffffffffff907f9996b315000000000000000000000000000000000000000000000000000000005f521660045260245ffd5b50803b1561174656fea2646970667358221220e33a26d303e67bb3d12c34aaf9d789b667c809249c3db847b004f908e9f3667864736f6c634300081a0033","linkReferences":{}},"methodIdentifiers":{"AGREEMENT_MANAGER()":"00efe0c3","LEDGER_VAULT()":"bc23e35e","MMC()":"44dea5a7","RIGHTS_POLICY_MANAGER()":"f1bdc452","UPGRADE_INTERFACE_VERSION()":"ad3cb1cc","authority()":"bf7e214f","initialize(address)":"c4d66de8","isConsumingScheduledOp()":"8fb36037","proxiableUUID()":"52d1902d","registerAccessAgreement(uint256,address,address,address[],bytes)":"290ed221","registerSponsoredAccessAgreement(address,address,address,address[],bytes)":"b0ad582f","setAuthority(address)":"7a9e5e4b","upgradeToAndCall(address,bytes)":"4f1ef286"},"storageLayout":{"storage":[],"types":{}},"id":5}