{"abi":[{"type":"constructor","inputs":[{"name":"rightsPolicyManager","type":"address","internalType":"address"}],"stateMutability":"nonpayable"},{"type":"function","name":"RIGHTS_POLICY_MANAGER","inputs":[],"outputs":[{"name":"","type":"address","internalType":"contract IRightsPolicyManager"}],"stateMutability":"view"},{"type":"function","name":"UPGRADE_INTERFACE_VERSION","inputs":[],"outputs":[{"name":"","type":"string","internalType":"string"}],"stateMutability":"view"},{"type":"function","name":"authority","inputs":[],"outputs":[{"name":"","type":"address","internalType":"address"}],"stateMutability":"view"},{"type":"function","name":"getActiveLicenses","inputs":[{"name":"account","type":"address","internalType":"address"},{"name":"holder","type":"address","internalType":"address"}],"outputs":[{"name":"","type":"tuple[]","internalType":"struct AccessAgg.PolicyLicense[]","components":[{"name":"policy","type":"address","internalType":"address"},{"name":"license","type":"uint256","internalType":"uint256"}]}],"stateMutability":"view"},{"type":"function","name":"getActiveLicenses","inputs":[{"name":"account","type":"address","internalType":"address"},{"name":"assetId","type":"uint256","internalType":"uint256"}],"outputs":[{"name":"","type":"tuple[]","internalType":"struct AccessAgg.PolicyLicense[]","components":[{"name":"policy","type":"address","internalType":"address"},{"name":"license","type":"uint256","internalType":"uint256"}]}],"stateMutability":"view"},{"type":"function","name":"getActivePoliciesLicenses","inputs":[{"name":"account","type":"address","internalType":"address"},{"name":"criteria","type":"bytes","internalType":"bytes"}],"outputs":[{"name":"","type":"tuple[]","internalType":"struct AccessAgg.PolicyLicense[]","components":[{"name":"policy","type":"address","internalType":"address"},{"name":"license","type":"uint256","internalType":"uint256"}]}],"stateMutability":"view"},{"type":"function","name":"initialize","inputs":[{"name":"accessManager","type":"address","internalType":"address"}],"outputs":[],"stateMutability":"nonpayable"},{"type":"function","name":"isAccessAllowed","inputs":[{"name":"account","type":"address","internalType":"address"},{"name":"holder","type":"address","internalType":"address"}],"outputs":[{"name":"","type":"bool","internalType":"bool"},{"name":"","type":"address","internalType":"address"}],"stateMutability":"view"},{"type":"function","name":"isAccessAllowed","inputs":[{"name":"account","type":"address","internalType":"address"},{"name":"assetId","type":"uint256","internalType":"uint256"}],"outputs":[{"name":"","type":"bool","internalType":"bool"},{"name":"","type":"address","internalType":"address"}],"stateMutability":"view"},{"type":"function","name":"isConsumingScheduledOp","inputs":[],"outputs":[{"name":"","type":"bytes4","internalType":"bytes4"}],"stateMutability":"view"},{"type":"function","name":"proxiableUUID","inputs":[],"outputs":[{"name":"","type":"bytes32","internalType":"bytes32"}],"stateMutability":"view"},{"type":"function","name":"setAuthority","inputs":[{"name":"newAuthority","type":"address","internalType":"address"}],"outputs":[],"stateMutability":"nonpayable"},{"type":"function","name":"upgradeToAndCall","inputs":[{"name":"newImplementation","type":"address","internalType":"address"},{"name":"data","type":"bytes","internalType":"bytes"}],"outputs":[],"stateMutability":"payable"},{"type":"event","name":"AuthorityUpdated","inputs":[{"name":"authority","type":"address","indexed":false,"internalType":"address"}],"anonymous":false},{"type":"event","name":"Initialized","inputs":[{"name":"version","type":"uint64","indexed":false,"internalType":"uint64"}],"anonymous":false},{"type":"event","name":"Upgraded","inputs":[{"name":"implementation","type":"address","indexed":true,"internalType":"address"}],"anonymous":false},{"type":"error","name":"AccessManagedInvalidAuthority","inputs":[{"name":"authority","type":"address","internalType":"address"}]},{"type":"error","name":"AccessManagedRequiredDelay","inputs":[{"name":"caller","type":"address","internalType":"address"},{"name":"delay","type":"uint32","internalType":"uint32"}]},{"type":"error","name":"AccessManagedUnauthorized","inputs":[{"name":"caller","type":"address","internalType":"address"}]},{"type":"error","name":"AddressEmptyCode","inputs":[{"name":"target","type":"address","internalType":"address"}]},{"type":"error","name":"ERC1967InvalidImplementation","inputs":[{"name":"implementation","type":"address","internalType":"address"}]},{"type":"error","name":"ERC1967NonPayable","inputs":[]},{"type":"error","name":"FailedCall","inputs":[]},{"type":"error","name":"InvalidInitialization","inputs":[]},{"type":"error","name":"InvalidUnauthorizedOperation","inputs":[{"name":"","type":"string","internalType":"string"}]},{"type":"error","name":"NotInitializing","inputs":[]},{"type":"error","name":"UUPSUnauthorizedCallContext","inputs":[]},{"type":"error","name":"UUPSUnsupportedProxiableUUID","inputs":[{"name":"slot","type":"bytes32","internalType":"bytes32"}]}],"bytecode":{"object":"0x60c03461014c57601f61158838819003918201601f19168301916001600160401b038311848410176101505780849260209460405283398101031261014c57516001600160a01b0381169081900361014c57306080527ff0c57e16840df040f15088dc2f81fe391c3923bec73e23a9662efc9c229c6a005460ff8160401c1661013d576002600160401b03196001600160401b038216016100d4575b5060a052604051611423908161016582396080518181816107780152610810015260a05181818160d7015281816104fb01526110100152f35b6001600160401b0319166001600160401b039081177ff0c57e16840df040f15088dc2f81fe391c3923bec73e23a9662efc9c229c6a00556040519081527fc7f505b2f371ae2175ee4913f4499e1f2633a7b5936321eed1cdaeb6115181d290602090a15f61009b565b63f92ee8a960e01b5f5260045ffd5b5f80fd5b634e487b7160e01b5f52604160045260245ffdfe6080806040526004361015610012575f80fd5b5f3560e01c9081632b1e6e8f14610c33575080634bad81cb14610bf45780634f1ef286146107f057806352d1902d146107515780637a9e5e4b1461067a5780638fb36037146105e757806396ba154d14610594578063ac3e8fb014610478578063ad3cb1cc14610419578063bf7e214f146103c7578063c4d66de814610129578063d3f4c5af146100ff5763f1bdc452146100ab575f80fd5b346100fb575f6003193601126100fb57602060405173ffffffffffffffffffffffffffffffffffffffff7f0000000000000000000000000000000000000000000000000000000000000000168152f35b5f80fd5b346100fb5761012561011961011336610dea565b90610fbe565b60405191829182610ccb565b0390f35b346100fb5760206003193601126100fb57610142610c85565b7ff0c57e16840df040f15088dc2f81fe391c3923bec73e23a9662efc9c229c6a005460ff8160401c16159167ffffffffffffffff8216801590816103bf575b60011490816103b5575b1590816103ac575b5061038457818360017fffffffffffffffffffffffffffffffffffffffffffffffff000000000000000073ffffffffffffffffffffffffffffffffffffffff9516177ff0c57e16840df040f15088dc2f81fe391c3923bec73e23a9662efc9c229c6a005561032f575b506102056112fd565b61020d6112fd565b6102156112fd565b61021d6112fd565b61022681611252565b61022e6112fd565b167fffffffffffffffffffffffff00000000000000000000000000000000000000007fb8e950798a2a06a6f5727a94041b193569f4f67d69a0de3cf866d93822e7fa005416177fb8e950798a2a06a6f5727a94041b193569f4f67d69a0de3cf866d93822e7fa005561029c57005b7fffffffffffffffffffffffffffffffffffffffffffffff00ffffffffffffffff7ff0c57e16840df040f15088dc2f81fe391c3923bec73e23a9662efc9c229c6a0054167ff0c57e16840df040f15088dc2f81fe391c3923bec73e23a9662efc9c229c6a00557fc7f505b2f371ae2175ee4913f4499e1f2633a7b5936321eed1cdaeb6115181d2602060405160018152a1005b7fffffffffffffffffffffffffffffffffffffffffffffff0000000000000000001668010000000000000001177ff0c57e16840df040f15088dc2f81fe391c3923bec73e23a9662efc9c229c6a0055836101fc565b7ff92ee8a9000000000000000000000000000000000000000000000000000000005f5260045ffd5b90501584610193565b303b15915061018b565b849150610181565b346100fb575f6003193601126100fb57602073ffffffffffffffffffffffffffffffffffffffff7ff3177357ab46d8af007ab3fdb9af81da189e1068fefdc0073dca88a2cab40a005416604051908152f35b346100fb575f6003193601126100fb5761012560405161043a604082610d6f565b600581527f352e302e300000000000000000000000000000000000000000000000000000006020820152604051918291602083526020830190610e74565b346100fb5760406003193601126100fb576104e26040610496610c85565b8151906024356020830152602082526104af8383610d6f565b825193849283927fbe5fb16600000000000000000000000000000000000000000000000000000000845260048401610f09565b038173ffffffffffffffffffffffffffffffffffffffff7f0000000000000000000000000000000000000000000000000000000000000000165afa908115610589575f905f92610557575b5060408051911515825273ffffffffffffffffffffffffffffffffffffffff929092166020820152f35b905061057b915060403d604011610582575b6105738183610d6f565b810190610ee5565b908261052d565b503d610569565b6040513d5f823e3d90fd5b346100fb5760406003193601126100fb576104e260406105b2610c85565b6105ba610ca8565b9073ffffffffffffffffffffffffffffffffffffffff835192166020830152602082526104af8383610d6f565b346100fb575f6003193601126100fb577ff3177357ab46d8af007ab3fdb9af81da189e1068fefdc0073dca88a2cab40a005460a01c60ff16156106725760207f8fb36037000000000000000000000000000000000000000000000000000000005b7fffffffff0000000000000000000000000000000000000000000000000000000060405191168152f35b60205f610648565b346100fb5760206003193601126100fb57610693610c85565b73ffffffffffffffffffffffffffffffffffffffff7ff3177357ab46d8af007ab3fdb9af81da189e1068fefdc0073dca88a2cab40a005416330361072557803b156106e3576106e190611252565b005b73ffffffffffffffffffffffffffffffffffffffff907fc2f31e5e000000000000000000000000000000000000000000000000000000005f521660045260245ffd5b7f068ca9d8000000000000000000000000000000000000000000000000000000005f523360045260245ffd5b346100fb575f6003193601126100fb5773ffffffffffffffffffffffffffffffffffffffff7f00000000000000000000000000000000000000000000000000000000000000001630036107c85760206040517f360894a13ba1a3210667c828492db98dca3e2076cc3735a920a3ca505d382bbc8152f35b7fe07c8dba000000000000000000000000000000000000000000000000000000005f5260045ffd5b6107f936610dea565b73ffffffffffffffffffffffffffffffffffffffff7f000000000000000000000000000000000000000000000000000000000000000016803014908115610bb2575b506107c8576044604073ffffffffffffffffffffffffffffffffffffffff7fb8e950798a2a06a6f5727a94041b193569f4f67d69a0de3cf866d93822e7fa0054168151928380927fd1f856ee0000000000000000000000000000000000000000000000000000000082525f60048301523360248301525afa908115610589575f91610b67575b5015610ae35773ffffffffffffffffffffffffffffffffffffffff8216916040517f52d1902d000000000000000000000000000000000000000000000000000000008152602081600481875afa5f9181610aaf575b5061094757837f4c9c8ce3000000000000000000000000000000000000000000000000000000005f5260045260245ffd5b807f360894a13ba1a3210667c828492db98dca3e2076cc3735a920a3ca505d382bbc859203610a845750813b15610a5957807fffffffffffffffffffffffff00000000000000000000000000000000000000007f360894a13ba1a3210667c828492db98dca3e2076cc3735a920a3ca505d382bbc5416177f360894a13ba1a3210667c828492db98dca3e2076cc3735a920a3ca505d382bbc557fbc7cd75a20ee27fd9adebab32041f755214dbc6bffa90cc0225b39da2e5c2d3b5f80a2815115610a28575f808360206106e195519101845af4610a22610f8f565b91611354565b505034610a3157005b7fb398979f000000000000000000000000000000000000000000000000000000005f5260045ffd5b7f4c9c8ce3000000000000000000000000000000000000000000000000000000005f5260045260245ffd5b7faa1d49a4000000000000000000000000000000000000000000000000000000005f5260045260245ffd5b9091506020813d602011610adb575b81610acb60209383610d6f565b810103126100fb57519085610916565b3d9150610abe565b60846040517f6317e35f00000000000000000000000000000000000000000000000000000000815260206004820152602360248201527f4f6e6c792061646d696e2063616e20706572666f726d2074686973206163746960448201527f6f6e2e00000000000000000000000000000000000000000000000000000000006064820152fd5b90506040813d604011610baa575b81610b8260409383610d6f565b810103126100fb576020610b9582610eb7565b91015163ffffffff8116036100fb57836108c1565b3d9150610b75565b905073ffffffffffffffffffffffffffffffffffffffff7f360894a13ba1a3210667c828492db98dca3e2076cc3735a920a3ca505d382bbc541614158361083b565b346100fb5760406003193601126100fb57610125610119610c13610c85565b60405190602435602083015260208252610c2e604083610d6f565b610fbe565b346100fb5760406003193601126100fb5761011961012591610c53610c85565b73ffffffffffffffffffffffffffffffffffffffff610c70610ca8565b16602083015260208252610c2e604083610d6f565b6004359073ffffffffffffffffffffffffffffffffffffffff821682036100fb57565b6024359073ffffffffffffffffffffffffffffffffffffffff821682036100fb57565b60206040818301928281528451809452019201905f5b818110610cee5750505090565b8251805173ffffffffffffffffffffffffffffffffffffffff1685526020908101518186015260409094019390920191600101610ce1565b6040810190811067ffffffffffffffff821117610d4257604052565b7f4e487b71000000000000000000000000000000000000000000000000000000005f52604160045260245ffd5b90601f7fffffffffffffffffffffffffffffffffffffffffffffffffffffffffffffffe0910116810190811067ffffffffffffffff821117610d4257604052565b67ffffffffffffffff8111610d4257601f017fffffffffffffffffffffffffffffffffffffffffffffffffffffffffffffffe01660200190565b9060406003198301126100fb5760043573ffffffffffffffffffffffffffffffffffffffff811681036100fb579160243567ffffffffffffffff81116100fb57816023820112156100fb57806004013590610e4482610db0565b92610e526040519485610d6f565b828452602483830101116100fb57815f92602460209301838601378301015290565b907fffffffffffffffffffffffffffffffffffffffffffffffffffffffffffffffe0601f602080948051918291828752018686015e5f8582860101520116010190565b519081151582036100fb57565b519073ffffffffffffffffffffffffffffffffffffffff821682036100fb57565b91908260409103126100fb57610f066020610eff84610eb7565b9301610ec4565b90565b60409073ffffffffffffffffffffffffffffffffffffffff610f0694931681528160208201520190610e74565b67ffffffffffffffff8111610d425760051b60200190565b8051821015610f625760209160051b010190565b7f4e487b71000000000000000000000000000000000000000000000000000000005f52603260045260245ffd5b3d15610fb9573d90610fa082610db0565b91610fae6040519384610d6f565b82523d5f602084013e565b606090565b90604051907f8720327e0000000000000000000000000000000000000000000000000000000082525f8280610ff7848760048401610f09565b038173ffffffffffffffffffffffffffffffffffffffff7f0000000000000000000000000000000000000000000000000000000000000000165afa918215610589575f926111b7575b508151927fffffffffffffffffffffffffffffffffffffffffffffffffffffffffffffffe061108761107186610f36565b9561107f6040519788610d6f565b808752610f36565b015f5b8181106111945750508251925f5b8481106110a757505050505090565b73ffffffffffffffffffffffffffffffffffffffff6110c68284610f4e565b5116905f8060405160208101907e9e11ff000000000000000000000000000000000000000000000000000000008252611133816111078b8b60248401610f09565b037fffffffffffffffffffffffffffffffffffffffffffffffffffffffffffffffe08101835282610d6f565b5190855afa50611141610f8f565b916020838051810103126100fb5760206001930151801561118d576040519161116983610d26565b8252602082015261117a8289610f4e565b526111858188610f4e565b505b01611098565b5050611187565b6020906040516111a381610d26565b5f81525f838201528282890101520161108a565b9091503d805f833e6111c98183610d6f565b8101906020818303126100fb5780519067ffffffffffffffff82116100fb57019080601f830112156100fb57815161120081610f36565b9261120e6040519485610d6f565b81845260208085019260051b8201019283116100fb57602001905b82821061123a57505050905f611040565b6020809161124784610ec4565b815201910190611229565b602073ffffffffffffffffffffffffffffffffffffffff7f2f658b440c35314f52658ea8a740e05b284cdc84dc9ae01e891f21b8933e7cad9216807fffffffffffffffffffffffff00000000000000000000000000000000000000007ff3177357ab46d8af007ab3fdb9af81da189e1068fefdc0073dca88a2cab40a005416177ff3177357ab46d8af007ab3fdb9af81da189e1068fefdc0073dca88a2cab40a0055604051908152a1565b60ff7ff0c57e16840df040f15088dc2f81fe391c3923bec73e23a9662efc9c229c6a005460401c161561132c57565b7fd7e6bcf8000000000000000000000000000000000000000000000000000000005f5260045ffd5b90611391575080511561136957805190602001fd5b7fd6bda275000000000000000000000000000000000000000000000000000000005f5260045ffd5b815115806113e4575b6113a2575090565b73ffffffffffffffffffffffffffffffffffffffff907f9996b315000000000000000000000000000000000000000000000000000000005f521660045260245ffd5b50803b1561139a56fea2646970667358221220124dbdd55f540bc886e65d82c794f433641dfe9a407ab7d4848bb808874156a464736f6c634300081a0033","linkReferences":{}},"methodIdentifiers":{"RIGHTS_POLICY_MANAGER()":"f1bdc452","UPGRADE_INTERFACE_VERSION()":"ad3cb1cc","authority()":"bf7e214f","getActiveLicenses(address,address)":"2b1e6e8f","getActiveLicenses(address,uint256)":"4bad81cb","getActivePoliciesLicenses(address,bytes)":"d3f4c5af","initialize(address)":"c4d66de8","isAccessAllowed(address,address)":"96ba154d","isAccessAllowed(address,uint256)":"ac3e8fb0","isConsumingScheduledOp()":"8fb36037","proxiableUUID()":"52d1902d","setAuthority(address)":"7a9e5e4b","upgradeToAndCall(address,bytes)":"4f1ef286"},"storageLayout":{"storage":[],"types":{}},"id":0}