{"abi":[{"type":"constructor","inputs":[{"name":"rightsPolicyManager","type":"address","internalType":"address"},{"name":"rightsAgreement","type":"address","internalType":"address"},{"name":"mmc","type":"address","internalType":"address"}],"stateMutability":"nonpayable"},{"type":"function","name":"MMC","inputs":[],"outputs":[{"name":"","type":"address","internalType":"contract IERC20"}],"stateMutability":"view"},{"type":"function","name":"RIGHTS_AGREEMENT","inputs":[],"outputs":[{"name":"","type":"address","internalType":"contract IRightsAccessAgreement"}],"stateMutability":"view"},{"type":"function","name":"RIGHTS_POLICY_MANAGER","inputs":[],"outputs":[{"name":"","type":"address","internalType":"contract IRightsPolicyManager"}],"stateMutability":"view"},{"type":"function","name":"UPGRADE_INTERFACE_VERSION","inputs":[],"outputs":[{"name":"","type":"string","internalType":"string"}],"stateMutability":"view"},{"type":"function","name":"authority","inputs":[],"outputs":[{"name":"","type":"address","internalType":"address"}],"stateMutability":"view"},{"type":"function","name":"flashPolicyAgreement","inputs":[{"name":"amount","type":"uint256","internalType":"uint256"},{"name":"holder","type":"address","internalType":"address"},{"name":"policyAddress","type":"address","internalType":"address"},{"name":"parties","type":"address[]","internalType":"address[]"},{"name":"payload","type":"bytes","internalType":"bytes"}],"outputs":[{"name":"","type":"uint256","internalType":"uint256"}],"stateMutability":"nonpayable"},{"type":"function","name":"initialize","inputs":[{"name":"accessManager","type":"address","internalType":"address"}],"outputs":[],"stateMutability":"nonpayable"},{"type":"function","name":"isConsumingScheduledOp","inputs":[],"outputs":[{"name":"","type":"bytes4","internalType":"bytes4"}],"stateMutability":"view"},{"type":"function","name":"proxiableUUID","inputs":[],"outputs":[{"name":"","type":"bytes32","internalType":"bytes32"}],"stateMutability":"view"},{"type":"function","name":"setAuthority","inputs":[{"name":"newAuthority","type":"address","internalType":"address"}],"outputs":[],"stateMutability":"nonpayable"},{"type":"function","name":"upgradeToAndCall","inputs":[{"name":"newImplementation","type":"address","internalType":"address"},{"name":"data","type":"bytes","internalType":"bytes"}],"outputs":[],"stateMutability":"payable"},{"type":"event","name":"AuthorityUpdated","inputs":[{"name":"authority","type":"address","indexed":false,"internalType":"address"}],"anonymous":false},{"type":"event","name":"Initialized","inputs":[{"name":"version","type":"uint64","indexed":false,"internalType":"uint64"}],"anonymous":false},{"type":"event","name":"Upgraded","inputs":[{"name":"implementation","type":"address","indexed":true,"internalType":"address"}],"anonymous":false},{"type":"error","name":"AccessManagedInvalidAuthority","inputs":[{"name":"authority","type":"address","internalType":"address"}]},{"type":"error","name":"AccessManagedRequiredDelay","inputs":[{"name":"caller","type":"address","internalType":"address"},{"name":"delay","type":"uint32","internalType":"uint32"}]},{"type":"error","name":"AccessManagedUnauthorized","inputs":[{"name":"caller","type":"address","internalType":"address"}]},{"type":"error","name":"AddressEmptyCode","inputs":[{"name":"target","type":"address","internalType":"address"}]},{"type":"error","name":"ERC1967InvalidImplementation","inputs":[{"name":"implementation","type":"address","internalType":"address"}]},{"type":"error","name":"ERC1967NonPayable","inputs":[]},{"type":"error","name":"FailDuringDeposit","inputs":[{"name":"reason","type":"string","internalType":"string"}]},{"type":"error","name":"FailedCall","inputs":[]},{"type":"error","name":"InvalidInitialization","inputs":[]},{"type":"error","name":"InvalidUnauthorizedOperation","inputs":[{"name":"","type":"string","internalType":"string"}]},{"type":"error","name":"NotInitializing","inputs":[]},{"type":"error","name":"SafeERC20FailedOperation","inputs":[{"name":"token","type":"address","internalType":"address"}]},{"type":"error","name":"UUPSUnauthorizedCallContext","inputs":[]},{"type":"error","name":"UUPSUnsupportedProxiableUUID","inputs":[{"name":"slot","type":"bytes32","internalType":"bytes32"}]}],"bytecode":{"object":"0x6101003461018b57601f61189f38819003918201601f19168301916001600160401b0383118484101761018f5780849260609460405283398101031261018b57610048816101a3565b90610061604061005a602084016101a3565b92016101a3565b91306080527ff0c57e16840df040f15088dc2f81fe391c3923bec73e23a9662efc9c229c6a005460ff8160401c1661017c576002600160401b03196001600160401b03821601610113575b506001600160a01b0390811660a05290811660c0521660e0526040516116e790816101b882396080518181816105fb015261074c015260a05181818160be0152610cd6015260c05181818161069f0152610d1c015260e051818181610b8e0152610c9e0152f35b6001600160401b0319166001600160401b039081177ff0c57e16840df040f15088dc2f81fe391c3923bec73e23a9662efc9c229c6a00556040519081527fc7f505b2f371ae2175ee4913f4499e1f2633a7b5936321eed1cdaeb6115181d290602090a15f6100ac565b63f92ee8a960e01b5f5260045ffd5b5f80fd5b634e487b7160e01b5f52604160045260245ffd5b51906001600160a01b038216820361018b5756fe60806040526004361015610011575f80fd5b5f3560e01c8063445b562a14610bb257806344dea5a714610b625780634f1ef286146106c35780634f622ffe1461067357806352d1902d146105d45780637a9e5e4b146104fd5780638fb360371461046a578063ad3cb1cc146103d6578063bf7e214f14610384578063c4d66de8146100e65763f1bdc45214610092575f80fd5b346100e2575f6003193601126100e257602060405173ffffffffffffffffffffffffffffffffffffffff7f0000000000000000000000000000000000000000000000000000000000000000168152f35b5f80fd5b346100e25760206003193601126100e2576100ff611141565b7ff0c57e16840df040f15088dc2f81fe391c3923bec73e23a9662efc9c229c6a005460ff8160401c16159167ffffffffffffffff82168015908161037c575b6001149081610372575b159081610369575b5061034157818360017fffffffffffffffffffffffffffffffffffffffffffffffff000000000000000073ffffffffffffffffffffffffffffffffffffffff9516177ff0c57e16840df040f15088dc2f81fe391c3923bec73e23a9662efc9c229c6a00556102ec575b506101c261153a565b6101ca61153a565b6101d261153a565b6101da61153a565b6101e3816113d6565b6101eb61153a565b167fffffffffffffffffffffffff00000000000000000000000000000000000000007fb8e950798a2a06a6f5727a94041b193569f4f67d69a0de3cf866d93822e7fa005416177fb8e950798a2a06a6f5727a94041b193569f4f67d69a0de3cf866d93822e7fa005561025957005b7fffffffffffffffffffffffffffffffffffffffffffffff00ffffffffffffffff7ff0c57e16840df040f15088dc2f81fe391c3923bec73e23a9662efc9c229c6a0054167ff0c57e16840df040f15088dc2f81fe391c3923bec73e23a9662efc9c229c6a00557fc7f505b2f371ae2175ee4913f4499e1f2633a7b5936321eed1cdaeb6115181d2602060405160018152a1005b7fffffffffffffffffffffffffffffffffffffffffffffff0000000000000000001668010000000000000001177ff0c57e16840df040f15088dc2f81fe391c3923bec73e23a9662efc9c229c6a0055836101b9565b7ff92ee8a9000000000000000000000000000000000000000000000000000000005f5260045ffd5b90501584610150565b303b159150610148565b84915061013e565b346100e2575f6003193601126100e257602073ffffffffffffffffffffffffffffffffffffffff7ff3177357ab46d8af007ab3fdb9af81da189e1068fefdc0073dca88a2cab40a005416604051908152f35b346100e2575f6003193601126100e25760408051906103f58183611164565b6005825260208201917f352e302e3000000000000000000000000000000000000000000000000000000083527fffffffffffffffffffffffffffffffffffffffffffffffffffffffffffffffe0601f8351948593602085525180918160208701528686015e5f85828601015201168101030190f35b346100e2575f6003193601126100e2577ff3177357ab46d8af007ab3fdb9af81da189e1068fefdc0073dca88a2cab40a005460a01c60ff16156104f55760207f8fb36037000000000000000000000000000000000000000000000000000000005b7fffffffff0000000000000000000000000000000000000000000000000000000060405191168152f35b60205f6104cb565b346100e25760206003193601126100e257610516611141565b73ffffffffffffffffffffffffffffffffffffffff7ff3177357ab46d8af007ab3fdb9af81da189e1068fefdc0073dca88a2cab40a00541633036105a857803b1561056657610564906113d6565b005b73ffffffffffffffffffffffffffffffffffffffff907fc2f31e5e000000000000000000000000000000000000000000000000000000005f521660045260245ffd5b7f068ca9d8000000000000000000000000000000000000000000000000000000005f523360045260245ffd5b346100e2575f6003193601126100e25773ffffffffffffffffffffffffffffffffffffffff7f000000000000000000000000000000000000000000000000000000000000000016300361064b5760206040517f360894a13ba1a3210667c828492db98dca3e2076cc3735a920a3ca505d382bbc8152f35b7fe07c8dba000000000000000000000000000000000000000000000000000000005f5260045ffd5b346100e2575f6003193601126100e257602060405173ffffffffffffffffffffffffffffffffffffffff7f0000000000000000000000000000000000000000000000000000000000000000168152f35b60406003193601126100e2576106d7611141565b6024359067ffffffffffffffff82116100e257366023830112156100e257816004013590610704826111d2565b916107126040519384611164565b808352602083019336602483830101116100e257815f9260246020930187378401015273ffffffffffffffffffffffffffffffffffffffff7f000000000000000000000000000000000000000000000000000000000000000016803014908115610b20575b5061064b576044604073ffffffffffffffffffffffffffffffffffffffff7fb8e950798a2a06a6f5727a94041b193569f4f67d69a0de3cf866d93822e7fa0054168151928380927fd1f856ee0000000000000000000000000000000000000000000000000000000082525f60048301523360248301525afa908115610b15575f91610ac8575b5015610a445773ffffffffffffffffffffffffffffffffffffffff8116926040517f52d1902d000000000000000000000000000000000000000000000000000000008152602081600481885afa5f9181610a10575b5061088357847f4c9c8ce3000000000000000000000000000000000000000000000000000000005f5260045260245ffd5b807f360894a13ba1a3210667c828492db98dca3e2076cc3735a920a3ca505d382bbc8692036109e55750823b156109ba57807fffffffffffffffffffffffff00000000000000000000000000000000000000007f360894a13ba1a3210667c828492db98dca3e2076cc3735a920a3ca505d382bbc5416177f360894a13ba1a3210667c828492db98dca3e2076cc3735a920a3ca505d382bbc557fbc7cd75a20ee27fd9adebab32041f755214dbc6bffa90cc0225b39da2e5c2d3b5f80a2825115610988575f8091610564945190845af43d15610980573d91610964836111d2565b926109726040519485611164565b83523d5f602085013e611618565b606091611618565b5050503461099257005b7fb398979f000000000000000000000000000000000000000000000000000000005f5260045ffd5b7f4c9c8ce3000000000000000000000000000000000000000000000000000000005f5260045260245ffd5b7faa1d49a4000000000000000000000000000000000000000000000000000000005f5260045260245ffd5b9091506020813d602011610a3c575b81610a2c60209383611164565b810103126100e257519086610852565b3d9150610a1f565b60846040517f6317e35f00000000000000000000000000000000000000000000000000000000815260206004820152602360248201527f4f6e6c792061646d696e2063616e20706572666f726d2074686973206163746960448201527f6f6e2e00000000000000000000000000000000000000000000000000000000006064820152fd5b90506040813d604011610b0d575b81610ae360409383611164565b810103126100e25780519081151582036100e2576020015163ffffffff8116036100e257846107fd565b3d9150610ad6565b6040513d5f823e3d90fd5b905073ffffffffffffffffffffffffffffffffffffffff7f360894a13ba1a3210667c828492db98dca3e2076cc3735a920a3ca505d382bbc5416141584610777565b346100e2575f6003193601126100e257602060405173ffffffffffffffffffffffffffffffffffffffff7f0000000000000000000000000000000000000000000000000000000000000000168152f35b346100e25760a06003193601126100e25760243573ffffffffffffffffffffffffffffffffffffffff81168091036100e2576044359073ffffffffffffffffffffffffffffffffffffffff82168092036100e2576064359067ffffffffffffffff82116100e257366023830112156100e25781600401359167ffffffffffffffff83116100e2573660248460051b830101116100e2576084359267ffffffffffffffff84116100e257366023850112156100e25783600401359167ffffffffffffffff83116100e25736602484870101116100e25773ffffffffffffffffffffffffffffffffffffffff7f0000000000000000000000000000000000000000000000000000000000000000169273ffffffffffffffffffffffffffffffffffffffff7f00000000000000000000000000000000000000000000000000000000000000001695610d04856004353361120c565b9373ffffffffffffffffffffffffffffffffffffffff7f0000000000000000000000000000000000000000000000000000000000000000169486158015611139575b6110b6576040517fdd62ed3e00000000000000000000000000000000000000000000000000000000815230600482015273ffffffffffffffffffffffffffffffffffffffff87166024820152906020826044818b5afa918215610b15575f92611082575b5080820180921161105557829160205f60405192828401907f095ea7b30000000000000000000000000000000000000000000000000000000082528b6024860152604485015260448452610dff606485611164565b835190828d5af15f513d82611039575b505015610fdc575b5096949392916040519788967f3f5d1b6f00000000000000000000000000000000000000000000000000000000885260a4880191600489015260248801528a604488015260a0606488015252602460c486019401905f905b808210610f9c57505050602084847fffffffffffffffffffffffffffffffffffffffffffffffffffffffffffffffe0601f86849760245f98600319888a9f9d030160848901528287520187860137868682860101520116010301925af1908115610b15575f91610f69575b506064905f60209460405196879586947f9f7434f40000000000000000000000000000000000000000000000000000000086526004860152602485015260448401525af18015610b15575f90610f36575b602090604051908152f35b506020813d602011610f61575b81610f5060209383611164565b810103126100e25760209051610f2b565b3d9150610f43565b90506020813d602011610f94575b81610f8460209383611164565b810103126100e257516020610eda565b3d9150610f77565b91955091929385359073ffffffffffffffffffffffffffffffffffffffff82168092036100e2576020816001938293520196019201879594939291610e6f565b6110339061102d6040517f095ea7b30000000000000000000000000000000000000000000000000000000060208201528a60248201525f604482015260448152611027606482611164565b8b611591565b89611591565b8b610e17565b90915061104d5750883b15155b8d80610e0f565b600114611046565b7f4e487b71000000000000000000000000000000000000000000000000000000005f52601160045260245ffd5b9091506020813d6020116110ae575b8161109e60209383611164565b810103126100e25751908b610daa565b3d9150611091565b60846040517f23c75658000000000000000000000000000000000000000000000000000000008152602060048201526024808201527f496e76616c6964207370656e646572206f7220616c6c6f77616e63652061747460448201527f656d7074000000000000000000000000000000000000000000000000000000006064820152fd5b508015610d46565b6004359073ffffffffffffffffffffffffffffffffffffffff821682036100e257565b90601f7fffffffffffffffffffffffffffffffffffffffffffffffffffffffffffffffe0910116810190811067ffffffffffffffff8211176111a557604052565b7f4e487b71000000000000000000000000000000000000000000000000000000005f52604160045260245ffd5b67ffffffffffffffff81116111a557601f017fffffffffffffffffffffffffffffffffffffffffffffffffffffffffffffffe01660200190565b91909182156113785773ffffffffffffffffffffffffffffffffffffffff821691821561130d5761123d9082611481565b83116112af576112ac9173ffffffffffffffffffffffffffffffffffffffff604051927f23b872dd000000000000000000000000000000000000000000000000000000006020850152166024830152306044830152836064830152606482526112a7608483611164565b611591565b90565b60646040517f23c7565800000000000000000000000000000000000000000000000000000000815260206004820152601960248201527f416d6f756e74206578636565647320616c6c6f77616e63652e000000000000006044820152fd5b50505034811161131a5790565b60646040517f23c7565800000000000000000000000000000000000000000000000000000000815260206004820152601760248201527f416d6f756e7420657863656564732062616c616e63652e0000000000000000006044820152fd5b60646040517f23c7565800000000000000000000000000000000000000000000000000000000815260206004820152601460248201527f496e76616c6964207a65726f20616d6f756e742e0000000000000000000000006044820152fd5b602073ffffffffffffffffffffffffffffffffffffffff7f2f658b440c35314f52658ea8a740e05b284cdc84dc9ae01e891f21b8933e7cad9216807fffffffffffffffffffffffff00000000000000000000000000000000000000007ff3177357ab46d8af007ab3fdb9af81da189e1068fefdc0073dca88a2cab40a005416177ff3177357ab46d8af007ab3fdb9af81da189e1068fefdc0073dca88a2cab40a0055604051908152a1565b9073ffffffffffffffffffffffffffffffffffffffff168015611534576040517fdd62ed3e00000000000000000000000000000000000000000000000000000000815273ffffffffffffffffffffffffffffffffffffffff929092166004830152306024830152602090829060449082905afa908115610b15575f91611505575090565b90506020813d60201161152c575b8161152060209383611164565b810103126100e2575190565b3d9150611513565b50503490565b60ff7ff0c57e16840df040f15088dc2f81fe391c3923bec73e23a9662efc9c229c6a005460401c161561156957565b7fd7e6bcf8000000000000000000000000000000000000000000000000000000005f5260045ffd5b905f602091828151910182855af115610b15575f513d61160f575073ffffffffffffffffffffffffffffffffffffffff81163b155b6115cd5750565b73ffffffffffffffffffffffffffffffffffffffff907f5274afe7000000000000000000000000000000000000000000000000000000005f521660045260245ffd5b600114156115c6565b90611655575080511561162d57805190602001fd5b7fd6bda275000000000000000000000000000000000000000000000000000000005f5260045ffd5b815115806116a8575b611666575090565b73ffffffffffffffffffffffffffffffffffffffff907f9996b315000000000000000000000000000000000000000000000000000000005f521660045260245ffd5b50803b1561165e56fea264697066735822122032c91252acfbd0bee37869d6e4cf0ec48bfe0465ea59dc92f7d6f483d0e433ac64736f6c634300081a0033","linkReferences":{}},"methodIdentifiers":{"MMC()":"44dea5a7","RIGHTS_AGREEMENT()":"4f622ffe","RIGHTS_POLICY_MANAGER()":"f1bdc452","UPGRADE_INTERFACE_VERSION()":"ad3cb1cc","authority()":"bf7e214f","flashPolicyAgreement(uint256,address,address,address[],bytes)":"445b562a","initialize(address)":"c4d66de8","isConsumingScheduledOp()":"8fb36037","proxiableUUID()":"52d1902d","setAuthority(address)":"7a9e5e4b","upgradeToAndCall(address,bytes)":"4f1ef286"},"storageLayout":{"storage":[],"types":{}},"id":1}