{"abi":[{"type":"constructor","inputs":[{"name":"assetReferendum","type":"address","internalType":"address"}],"stateMutability":"nonpayable"},{"type":"function","name":"ASSET_REFERENDUM","inputs":[],"outputs":[{"name":"","type":"address","internalType":"contract IAssetVerifiable"}],"stateMutability":"view"},{"type":"function","name":"UPGRADE_INTERFACE_VERSION","inputs":[],"outputs":[{"name":"","type":"string","internalType":"string"}],"stateMutability":"view"},{"type":"function","name":"approve","inputs":[{"name":"to","type":"address","internalType":"address"},{"name":"tokenId","type":"uint256","internalType":"uint256"}],"outputs":[],"stateMutability":"nonpayable"},{"type":"function","name":"authority","inputs":[],"outputs":[{"name":"","type":"address","internalType":"address"}],"stateMutability":"view"},{"type":"function","name":"balanceOf","inputs":[{"name":"owner","type":"address","internalType":"address"}],"outputs":[{"name":"","type":"uint256","internalType":"uint256"}],"stateMutability":"view"},{"type":"function","name":"claim","inputs":[{"name":"to","type":"address","internalType":"address"},{"name":"assetId","type":"uint256","internalType":"uint256"}],"outputs":[],"stateMutability":"nonpayable"},{"type":"function","name":"getApproved","inputs":[{"name":"tokenId","type":"uint256","internalType":"uint256"}],"outputs":[{"name":"","type":"address","internalType":"address"}],"stateMutability":"view"},{"type":"function","name":"initialize","inputs":[{"name":"accessManager","type":"address","internalType":"address"}],"outputs":[],"stateMutability":"nonpayable"},{"type":"function","name":"isApprovedForAll","inputs":[{"name":"owner","type":"address","internalType":"address"},{"name":"operator","type":"address","internalType":"address"}],"outputs":[{"name":"","type":"bool","internalType":"bool"}],"stateMutability":"view"},{"type":"function","name":"isConsumingScheduledOp","inputs":[],"outputs":[{"name":"","type":"bytes4","internalType":"bytes4"}],"stateMutability":"view"},{"type":"function","name":"name","inputs":[],"outputs":[{"name":"","type":"string","internalType":"string"}],"stateMutability":"view"},{"type":"function","name":"ownerOf","inputs":[{"name":"tokenId","type":"uint256","internalType":"uint256"}],"outputs":[{"name":"","type":"address","internalType":"address"}],"stateMutability":"view"},{"type":"function","name":"proxiableUUID","inputs":[],"outputs":[{"name":"","type":"bytes32","internalType":"bytes32"}],"stateMutability":"view"},{"type":"function","name":"revoke","inputs":[{"name":"assetId","type":"uint256","internalType":"uint256"}],"outputs":[],"stateMutability":"nonpayable"},{"type":"function","name":"safeTransferFrom","inputs":[{"name":"from","type":"address","internalType":"address"},{"name":"to","type":"address","internalType":"address"},{"name":"tokenId","type":"uint256","internalType":"uint256"}],"outputs":[],"stateMutability":"nonpayable"},{"type":"function","name":"safeTransferFrom","inputs":[{"name":"from","type":"address","internalType":"address"},{"name":"to","type":"address","internalType":"address"},{"name":"tokenId","type":"uint256","internalType":"uint256"},{"name":"data","type":"bytes","internalType":"bytes"}],"outputs":[],"stateMutability":"nonpayable"},{"type":"function","name":"setApprovalForAll","inputs":[{"name":"operator","type":"address","internalType":"address"},{"name":"approved","type":"bool","internalType":"bool"}],"outputs":[],"stateMutability":"nonpayable"},{"type":"function","name":"setAuthority","inputs":[{"name":"newAuthority","type":"address","internalType":"address"}],"outputs":[],"stateMutability":"nonpayable"},{"type":"function","name":"supportsInterface","inputs":[{"name":"interfaceId","type":"bytes4","internalType":"bytes4"}],"outputs":[{"name":"","type":"bool","internalType":"bool"}],"stateMutability":"view"},{"type":"function","name":"symbol","inputs":[],"outputs":[{"name":"","type":"string","internalType":"string"}],"stateMutability":"view"},{"type":"function","name":"tokenByIndex","inputs":[{"name":"index","type":"uint256","internalType":"uint256"}],"outputs":[{"name":"","type":"uint256","internalType":"uint256"}],"stateMutability":"view"},{"type":"function","name":"tokenOfOwnerByIndex","inputs":[{"name":"owner","type":"address","internalType":"address"},{"name":"index","type":"uint256","internalType":"uint256"}],"outputs":[{"name":"","type":"uint256","internalType":"uint256"}],"stateMutability":"view"},{"type":"function","name":"tokenURI","inputs":[{"name":"tokenId","type":"uint256","internalType":"uint256"}],"outputs":[{"name":"","type":"string","internalType":"string"}],"stateMutability":"view"},{"type":"function","name":"totalSupply","inputs":[],"outputs":[{"name":"","type":"uint256","internalType":"uint256"}],"stateMutability":"view"},{"type":"function","name":"transfer","inputs":[{"name":"to","type":"address","internalType":"address"},{"name":"assetId","type":"uint256","internalType":"uint256"}],"outputs":[],"stateMutability":"nonpayable"},{"type":"function","name":"transferFrom","inputs":[{"name":"from","type":"address","internalType":"address"},{"name":"to","type":"address","internalType":"address"},{"name":"tokenId","type":"uint256","internalType":"uint256"}],"outputs":[],"stateMutability":"nonpayable"},{"type":"function","name":"upgradeToAndCall","inputs":[{"name":"newImplementation","type":"address","internalType":"address"},{"name":"data","type":"bytes","internalType":"bytes"}],"outputs":[],"stateMutability":"payable"},{"type":"event","name":"Approval","inputs":[{"name":"owner","type":"address","indexed":true,"internalType":"address"},{"name":"approved","type":"address","indexed":true,"internalType":"address"},{"name":"tokenId","type":"uint256","indexed":true,"internalType":"uint256"}],"anonymous":false},{"type":"event","name":"ApprovalForAll","inputs":[{"name":"owner","type":"address","indexed":true,"internalType":"address"},{"name":"operator","type":"address","indexed":true,"internalType":"address"},{"name":"approved","type":"bool","indexed":false,"internalType":"bool"}],"anonymous":false},{"type":"event","name":"AuthorityUpdated","inputs":[{"name":"authority","type":"address","indexed":false,"internalType":"address"}],"anonymous":false},{"type":"event","name":"ClaimedAsset","inputs":[{"name":"owner","type":"address","indexed":true,"internalType":"address"},{"name":"assetId","type":"uint256","indexed":false,"internalType":"uint256"}],"anonymous":false},{"type":"event","name":"Initialized","inputs":[{"name":"version","type":"uint64","indexed":false,"internalType":"uint64"}],"anonymous":false},{"type":"event","name":"RevokedAsset","inputs":[{"name":"owner","type":"address","indexed":true,"internalType":"address"},{"name":"assetId","type":"uint256","indexed":false,"internalType":"uint256"}],"anonymous":false},{"type":"event","name":"Transfer","inputs":[{"name":"from","type":"address","indexed":true,"internalType":"address"},{"name":"to","type":"address","indexed":true,"internalType":"address"},{"name":"tokenId","type":"uint256","indexed":true,"internalType":"uint256"}],"anonymous":false},{"type":"event","name":"TransferredAsset","inputs":[{"name":"from","type":"address","indexed":true,"internalType":"address"},{"name":"to","type":"address","indexed":true,"internalType":"address"},{"name":"assetId","type":"uint256","indexed":false,"internalType":"uint256"}],"anonymous":false},{"type":"event","name":"Upgraded","inputs":[{"name":"implementation","type":"address","indexed":true,"internalType":"address"}],"anonymous":false},{"type":"error","name":"AccessManagedInvalidAuthority","inputs":[{"name":"authority","type":"address","internalType":"address"}]},{"type":"error","name":"AccessManagedRequiredDelay","inputs":[{"name":"caller","type":"address","internalType":"address"},{"name":"delay","type":"uint32","internalType":"uint32"}]},{"type":"error","name":"AccessManagedUnauthorized","inputs":[{"name":"caller","type":"address","internalType":"address"}]},{"type":"error","name":"AddressEmptyCode","inputs":[{"name":"target","type":"address","internalType":"address"}]},{"type":"error","name":"ERC1967InvalidImplementation","inputs":[{"name":"implementation","type":"address","internalType":"address"}]},{"type":"error","name":"ERC1967NonPayable","inputs":[]},{"type":"error","name":"ERC721EnumerableForbiddenBatchMint","inputs":[]},{"type":"error","name":"ERC721IncorrectOwner","inputs":[{"name":"sender","type":"address","internalType":"address"},{"name":"tokenId","type":"uint256","internalType":"uint256"},{"name":"owner","type":"address","internalType":"address"}]},{"type":"error","name":"ERC721InsufficientApproval","inputs":[{"name":"operator","type":"address","internalType":"address"},{"name":"tokenId","type":"uint256","internalType":"uint256"}]},{"type":"error","name":"ERC721InvalidApprover","inputs":[{"name":"approver","type":"address","internalType":"address"}]},{"type":"error","name":"ERC721InvalidOperator","inputs":[{"name":"operator","type":"address","internalType":"address"}]},{"type":"error","name":"ERC721InvalidOwner","inputs":[{"name":"owner","type":"address","internalType":"address"}]},{"type":"error","name":"ERC721InvalidReceiver","inputs":[{"name":"receiver","type":"address","internalType":"address"}]},{"type":"error","name":"ERC721InvalidSender","inputs":[{"name":"sender","type":"address","internalType":"address"}]},{"type":"error","name":"ERC721NonexistentToken","inputs":[{"name":"tokenId","type":"uint256","internalType":"uint256"}]},{"type":"error","name":"ERC721OutOfBoundsIndex","inputs":[{"name":"owner","type":"address","internalType":"address"},{"name":"index","type":"uint256","internalType":"uint256"}]},{"type":"error","name":"FailedCall","inputs":[]},{"type":"error","name":"InvalidInitialization","inputs":[]},{"type":"error","name":"InvalidNotApprovedAsset","inputs":[]},{"type":"error","name":"InvalidUnauthorizedOperation","inputs":[{"name":"","type":"string","internalType":"string"}]},{"type":"error","name":"NotInitializing","inputs":[]},{"type":"error","name":"UUPSUnauthorizedCallContext","inputs":[]},{"type":"error","name":"UUPSUnsupportedProxiableUUID","inputs":[{"name":"slot","type":"bytes32","internalType":"bytes32"}]}],"bytecode":{"object":"0x60c03461014657601f613fd938819003918201601f19168301916001600160401b0383118484101761014a5780849260209460405283398101031261014657516001600160a01b0381169081900361014657306080527ff0c57e16840df040f15088dc2f81fe391c3923bec73e23a9662efc9c229c6a005460ff8160401c16610137576002600160401b03196001600160401b038216016100ce575b5060a052604051613e7a908161015f82396080518181816114e6015261166f015260a051818181610d380152611aee0152f35b6001600160401b0319166001600160401b039081177ff0c57e16840df040f15088dc2f81fe391c3923bec73e23a9662efc9c229c6a00556040519081527fc7f505b2f371ae2175ee4913f4499e1f2633a7b5936321eed1cdaeb6115181d290602090a15f61009b565b63f92ee8a960e01b5f5260045ffd5b5f80fd5b634e487b7160e01b5f52604160045260245ffdfe6080806040526004361015610012575f80fd5b5f905f358060e01c91826301ffc9a7146128ee5750816306fdde03146127aa578163081812fc14612725578163095ea7b31461256557816318160ddd1461250b57816320c5429b14611c0e5750806323b872dd14611bf65780632f745c5914611b125780633bab059c14611aa357806342842e0e14611a795780634f1ef286146116045780634f6ccce71461155e57806352d1902d146114a05780636352211e1461144557806370a08231146113fb5780637a9e5e4b146113085780638fb360371461125557806395d89b41146110f8578063a22cb46514610fd4578063a9059cbb14610e8f578063aad3ec9614610c95578063ad3cb1cc14610c16578063b88d4fde14610ba1578063bf7e214f14610b30578063c4d66de81461027b578063c87b56dd146102025763e985e9c514610149575f80fd5b346101ff5760407ffffffffffffffffffffffffffffffffffffffffffffffffffffffffffffffffc3601126101ff57610180612a51565b73ffffffffffffffffffffffffffffffffffffffff6101e46101a0612a74565b9273ffffffffffffffffffffffffffffffffffffffff165f527f80bb2b638cc20bc4d0a60d66940f3ab4a00c1d7b313497ca82fb0b4ab007930560205260405f2090565b91165f52602052602060ff60405f2054166040519015158152f35b80fd5b50346101ff5760207ffffffffffffffffffffffffffffffffffffffffffffffffffffffffffffffffc3601126101ff5761023d6004356135c2565b508060405161024d602082612b09565b5250610277604051610260602082612b09565b5f8152604051918291602083526020830190612a0e565b0390f35b50346101ff5760207ffffffffffffffffffffffffffffffffffffffffffffffffffffffffffffffffc3601126101ff576102b3612a51565b7ff0c57e16840df040f15088dc2f81fe391c3923bec73e23a9662efc9c229c6a005460ff8160401c16159067ffffffffffffffff811680159081610b28575b6001149081610b1e575b159081610b15575b50610aed578160017fffffffffffffffffffffffffffffffffffffffffffffffff00000000000000008316177ff0c57e16840df040f15088dc2f81fe391c3923bec73e23a9662efc9c229c6a0055610a98575b50610360613d54565b610368613d54565b60409182516103778482612b09565b600981527f53796e617073654950000000000000000000000000000000000000000000000060208201528351906103ae8583612b09565b600382527f53594e000000000000000000000000000000000000000000000000000000000060208301526103e0613d54565b6103e8613d54565b80519067ffffffffffffffff8211610a6b5781906104267f80bb2b638cc20bc4d0a60d66940f3ab4a00c1d7b313497ca82fb0b4ab007930054612bf7565b601f81116109a1575b50602090601f83116001146108a657889261089b575b50507fffffffffffffffffffffffffffffffffffffffffffffffffffffffffffffffff8260011b9260031b1c1916177f80bb2b638cc20bc4d0a60d66940f3ab4a00c1d7b313497ca82fb0b4ab0079300555b80519067ffffffffffffffff821161086e576104d37f80bb2b638cc20bc4d0a60d66940f3ab4a00c1d7b313497ca82fb0b4ab007930154612bf7565b601f81116107ec575b50602090601f83116001146106f75773ffffffffffffffffffffffffffffffffffffffff9392918791836106ec575b50507fffffffffffffffffffffffffffffffffffffffffffffffffffffffffffffffff8260011b9260031b1c1916177f80bb2b638cc20bc4d0a60d66940f3ab4a00c1d7b313497ca82fb0b4ab0079301555b610565613d54565b61056d613d54565b610575613d54565b61057e81613656565b610586613d54565b16801561068f577fffffffffffffffffffffffff00000000000000000000000000000000000000007fb8e950798a2a06a6f5727a94041b193569f4f67d69a0de3cf866d93822e7fa005416177fb8e950798a2a06a6f5727a94041b193569f4f67d69a0de3cf866d93822e7fa00556105fc575080f35b60207fc7f505b2f371ae2175ee4913f4499e1f2633a7b5936321eed1cdaeb6115181d2917fffffffffffffffffffffffffffffffffffffffffffffff00ffffffffffffffff7ff0c57e16840df040f15088dc2f81fe391c3923bec73e23a9662efc9c229c6a0054167ff0c57e16840df040f15088dc2f81fe391c3923bec73e23a9662efc9c229c6a00555160018152a180f35b606483517f6317e35f00000000000000000000000000000000000000000000000000000000815260206004820152601a60248201527f496e76616c696420617574686f7269747920616464726573732e0000000000006044820152fd5b015190505f8061050b565b7f80bb2b638cc20bc4d0a60d66940f3ab4a00c1d7b313497ca82fb0b4ab0079301875281872091907fffffffffffffffffffffffffffffffffffffffffffffffffffffffffffffffe08416885b8181106107d4575091600193918573ffffffffffffffffffffffffffffffffffffffff9796941061079d575b505050811b017f80bb2b638cc20bc4d0a60d66940f3ab4a00c1d7b313497ca82fb0b4ab00793015561055d565b01517fffffffffffffffffffffffffffffffffffffffffffffffffffffffffffffffff60f88460031b161c191690555f8080610770565b92936020600181928786015181550195019301610744565b7f80bb2b638cc20bc4d0a60d66940f3ab4a00c1d7b313497ca82fb0b4ab007930187527ff4bad0a69248f59680a4f2b3000328cec71a413447c96781cfe5996daa8c456e601f840160051c81019160208510610864575b601f0160051c01905b81811061085957506104dc565b87815560010161084c565b9091508190610843565b6024867f4e487b710000000000000000000000000000000000000000000000000000000081526041600452fd5b015190505f80610445565b7f80bb2b638cc20bc4d0a60d66940f3ab4a00c1d7b313497ca82fb0b4ab007930089527f37c58c799b6609234b945e882912ee9ad34948a1dfaa20a97485e1a7752bbf81927fffffffffffffffffffffffffffffffffffffffffffffffffffffffffffffffe016895b8181106109895750908460019594939210610952575b505050811b017f80bb2b638cc20bc4d0a60d66940f3ab4a00c1d7b313497ca82fb0b4ab007930055610497565b01517fffffffffffffffffffffffffffffffffffffffffffffffffffffffffffffffff60f88460031b161c191690555f8080610925565b9293602060018192878601518155019501930161090f565b9091507f80bb2b638cc20bc4d0a60d66940f3ab4a00c1d7b313497ca82fb0b4ab00793008852601f830160051c7f37c58c799b6609234b945e882912ee9ad34948a1dfaa20a97485e1a7752bbf81019060208410610a43575b90601f8493920160051c7f37c58c799b6609234b945e882912ee9ad34948a1dfaa20a97485e1a7752bbf8101905b818110610a35575061042f565b898155849350600101610a28565b7f37c58c799b6609234b945e882912ee9ad34948a1dfaa20a97485e1a7752bbf8191506109fa565b6024877f4e487b710000000000000000000000000000000000000000000000000000000081526041600452fd5b7fffffffffffffffffffffffffffffffffffffffffffffff0000000000000000001668010000000000000001177ff0c57e16840df040f15088dc2f81fe391c3923bec73e23a9662efc9c229c6a00555f610357565b6004847ff92ee8a9000000000000000000000000000000000000000000000000000000008152fd5b9050155f610304565b303b1591506102fc565b8391506102f2565b50346101ff57807ffffffffffffffffffffffffffffffffffffffffffffffffffffffffffffffffc3601126101ff57602073ffffffffffffffffffffffffffffffffffffffff7ff3177357ab46d8af007ab3fdb9af81da189e1068fefdc0073dca88a2cab40a005416604051908152f35b50346101ff5760807ffffffffffffffffffffffffffffffffffffffffffffffffffffffffffffffffc3601126101ff57610bd9612a51565b610be1612a74565b6064359167ffffffffffffffff8311610c1257610c05610c0f933690600401612bb1565b916044359161340d565b80f35b8380fd5b50346101ff57807ffffffffffffffffffffffffffffffffffffffffffffffffffffffffffffffffc3601126101ff5750610277604051610c57604082612b09565b600581527f352e302e300000000000000000000000000000000000000000000000000000006020820152604051918291602083526020830190612a0e565b50346101ff5760407ffffffffffffffffffffffffffffffffffffffffffffffffffffffffffffffffc3601126101ff57610ccd612a51565b602435604051917f2a16cca400000000000000000000000000000000000000000000000000000000835273ffffffffffffffffffffffffffffffffffffffff81169283600482015282602482015260208160448173ffffffffffffffffffffffffffffffffffffffff7f0000000000000000000000000000000000000000000000000000000000000000165afa908115610e84578591610e46575b5015610e1e578215610df257610d938273ffffffffffffffffffffffffffffffffffffffff9261375a565b16610dc65760207f85ad25565dc3861179ade2d0220159f5340c96b73ae7d384717729931b79d00091604051908152a280f35b6024837f73c6ac6e00000000000000000000000000000000000000000000000000000000815280600452fd5b6024847f64a0ae9200000000000000000000000000000000000000000000000000000000815280600452fd5b6004847fa779dd42000000000000000000000000000000000000000000000000000000008152fd5b90506020813d602011610e7c575b81610e6160209383612b09565b81010312610e7857610e7290613400565b5f610d68565b8480fd5b3d9150610e54565b6040513d87823e3d90fd5b50346101ff5760407ffffffffffffffffffffffffffffffffffffffffffffffffffffffffffffffffc3601126101ff57610ec7612a51565b9060243573ffffffffffffffffffffffffffffffffffffffff8316928315610fa857610f088273ffffffffffffffffffffffffffffffffffffffff9261375a565b169283610f3b57602483837f7e273289000000000000000000000000000000000000000000000000000000008252600452fd5b9192338103610f7457506040519081527f7988b1ab185bffe4f4fab865e2e670e113a38cd7d476ae05df7f72ef4bb1fe9160203392a380f35b83906064927f64283d7b00000000000000000000000000000000000000000000000000000000835233600452602452604452fd5b6024837f64a0ae9200000000000000000000000000000000000000000000000000000000815280600452fd5b50346101ff5760407ffffffffffffffffffffffffffffffffffffffffffffffffffffffffffffffffc3601126101ff5761100c612a51565b602435908115158092036110f45773ffffffffffffffffffffffffffffffffffffffff169081156110c857335f9081527f80bb2b638cc20bc4d0a60d66940f3ab4a00c1d7b313497ca82fb0b4ab007930560205260409020825f5260205260405f207fffffffffffffffffffffffffffffffffffffffffffffffffffffffffffffff0081541660ff83161790556040519081527f17307eab39ab6107e8899845ad3d59bd9653f200f220920489ca2b5937696c3160203392a380f35b602483837f5b08ba18000000000000000000000000000000000000000000000000000000008252600452fd5b8280fd5b50346101ff57807ffffffffffffffffffffffffffffffffffffffffffffffffffffffffffffffffc3601126101ff5760405190807f80bb2b638cc20bc4d0a60d66940f3ab4a00c1d7b313497ca82fb0b4ab0079301549061115882612bf7565b80855291600181169081156112105750600114611194575b6102778461118081860382612b09565b604051918291602083526020830190612a0e565b7f80bb2b638cc20bc4d0a60d66940f3ab4a00c1d7b313497ca82fb0b4ab007930181527ff4bad0a69248f59680a4f2b3000328cec71a413447c96781cfe5996daa8c456e939250905b8082106111f65750909150810160200161118082611170565b9192600181602092548385880101520191019092916111dd565b7fffffffffffffffffffffffffffffffffffffffffffffffffffffffffffffff001660208087019190915292151560051b850190920192506111809150839050611170565b50346101ff57807ffffffffffffffffffffffffffffffffffffffffffffffffffffffffffffffffc3601126101ff577ff3177357ab46d8af007ab3fdb9af81da189e1068fefdc0073dca88a2cab40a005460a01c60ff1615611300575060207f8fb36037000000000000000000000000000000000000000000000000000000005b7fffffffff0000000000000000000000000000000000000000000000000000000060405191168152f35b6020906112d6565b50346101ff5760207ffffffffffffffffffffffffffffffffffffffffffffffffffffffffffffffffc3601126101ff57611340612a51565b73ffffffffffffffffffffffffffffffffffffffff7ff3177357ab46d8af007ab3fdb9af81da189e1068fefdc0073dca88a2cab40a00541633036113cf57803b1561138e57610c0f90613656565b7fc2f31e5e00000000000000000000000000000000000000000000000000000000825273ffffffffffffffffffffffffffffffffffffffff16600452602490fd5b6024827f068ca9d800000000000000000000000000000000000000000000000000000000815233600452fd5b50346101ff5760207ffffffffffffffffffffffffffffffffffffffffffffffffffffffffffffffffc3601126101ff57602061143d611438612a51565b61336d565b604051908152f35b50346101ff5760207ffffffffffffffffffffffffffffffffffffffffffffffffffffffffffffffffc3601126101ff5760206114826004356135c2565b73ffffffffffffffffffffffffffffffffffffffff60405191168152f35b50346101ff57807ffffffffffffffffffffffffffffffffffffffffffffffffffffffffffffffffc3601126101ff5773ffffffffffffffffffffffffffffffffffffffff7f00000000000000000000000000000000000000000000000000000000000000001630036115365760206040517f360894a13ba1a3210667c828492db98dca3e2076cc3735a920a3ca505d382bbc8152f35b807fe07c8dba0000000000000000000000000000000000000000000000000000000060049252fd5b50346101ff5760207ffffffffffffffffffffffffffffffffffffffffffffffffffffffffffffffffc3601126101ff57600435907f645e039705490088daad89bae25049a34f4a9072d398537b1ab2425f24cbed02548210156115d55760206115c6836132ea565b90549060031b1c604051908152f35b6044917fa57d13dc00000000000000000000000000000000000000000000000000000000825281600452602452fd5b5060407ffffffffffffffffffffffffffffffffffffffffffffffffffffffffffffffffc3601126101ff57611637612a51565b9060243567ffffffffffffffff8111611a7557611658903690600401612bb1565b73ffffffffffffffffffffffffffffffffffffffff7f000000000000000000000000000000000000000000000000000000000000000016803014908115611a33575b50611a0b576044604073ffffffffffffffffffffffffffffffffffffffff7fb8e950798a2a06a6f5727a94041b193569f4f67d69a0de3cf866d93822e7fa0054168151928380927fd1f856ee0000000000000000000000000000000000000000000000000000000082528760048301523360248301525afa908115611a005783916119d0575b501561194c5773ffffffffffffffffffffffffffffffffffffffff831690604051937f52d1902d000000000000000000000000000000000000000000000000000000008552602085600481865afa80958596611918575b506117a857602484847f4c9c8ce3000000000000000000000000000000000000000000000000000000008252600452fd5b9091847f360894a13ba1a3210667c828492db98dca3e2076cc3735a920a3ca505d382bbc81036118ed5750813b156118c257807fffffffffffffffffffffffff00000000000000000000000000000000000000007f360894a13ba1a3210667c828492db98dca3e2076cc3735a920a3ca505d382bbc5416177f360894a13ba1a3210667c828492db98dca3e2076cc3735a920a3ca505d382bbc557fbc7cd75a20ee27fd9adebab32041f755214dbc6bffa90cc0225b39da2e5c2d3b8480a2815183901561188f578083602061188b95519101845af4611885613701565b91613dab565b5080f35b5050503461189a5780f35b807fb398979f0000000000000000000000000000000000000000000000000000000060049252fd5b7f4c9c8ce3000000000000000000000000000000000000000000000000000000008452600452602483fd5b7faa1d49a4000000000000000000000000000000000000000000000000000000008552600452602484fd5b9095506020813d602011611944575b8161193460209383612b09565b81010312610e785751945f611777565b3d9150611927565b60846040517f6317e35f00000000000000000000000000000000000000000000000000000000815260206004820152602360248201527f4f6e6c792061646d696e2063616e20706572666f726d2074686973206163746960448201527f6f6e2e00000000000000000000000000000000000000000000000000000000006064820152fd5b6119f2915060403d6040116119f9575b6119ea8183612b09565b810190613730565b505f611720565b503d6119e0565b6040513d85823e3d90fd5b6004827fe07c8dba000000000000000000000000000000000000000000000000000000008152fd5b905073ffffffffffffffffffffffffffffffffffffffff7f360894a13ba1a3210667c828492db98dca3e2076cc3735a920a3ca505d382bbc541614155f61169a565b5080fd5b50346101ff57610c0f611a8b36612a97565b9060405192611a9b602085612b09565b85845261340d565b50346101ff57807ffffffffffffffffffffffffffffffffffffffffffffffffffffffffffffffffc3601126101ff57602060405173ffffffffffffffffffffffffffffffffffffffff7f0000000000000000000000000000000000000000000000000000000000000000168152f35b50346101ff5760407ffffffffffffffffffffffffffffffffffffffffffffffffffffffffffffffffc3601126101ff57611b4a612a51565b90602435611b578361336d565b811015611bb2579060409173ffffffffffffffffffffffffffffffffffffffff6020941682527f645e039705490088daad89bae25049a34f4a9072d398537b1ab2425f24cbed00845282822090825283522054604051908152f35b73ffffffffffffffffffffffffffffffffffffffff6044937fa57d13dc00000000000000000000000000000000000000000000000000000000845216600452602452fd5b50346101ff57610c0f611c0836612a97565b91612c48565b90503461247d5760207ffffffffffffffffffffffffffffffffffffffffffffffffffffffffffffffffc36011261247d57600435907ff3177357ab46d8af007ab3fdb9af81da189e1068fefdc0073dca88a2cab40a005473ffffffffffffffffffffffffffffffffffffffff8116913660041161247d575f808080936040517fffffffff0000000000000000000000000000000000000000000000000000000060208201927fb700961300000000000000000000000000000000000000000000000000000000845233602484015230604484015216606482015260648152611cf7608482612b09565b5190875afa611d04613701565b906124ad575b50156122f9575b505050611d1d816135c2565b611d65825f527f80bb2b638cc20bc4d0a60d66940f3ab4a00c1d7b313497ca82fb0b4ab007930260205273ffffffffffffffffffffffffffffffffffffffff60405f20541690565b73ffffffffffffffffffffffffffffffffffffffff811690811591821580612231575b8587527f80bb2b638cc20bc4d0a60d66940f3ab4a00c1d7b313497ca82fb0b4ab0079302602052604087207fffffffffffffffffffffffff000000000000000000000000000000000000000081541690558587837fddf252ad1be2c89b69c2b068fc378daa952ba7f163c4a11628f55a4df523b3ef8280a483156121345750507f645e039705490088daad89bae25049a34f4a9072d398537b1ab2425f24cbed02548486527f645e039705490088daad89bae25049a34f4a9072d398537b1ab2425f24cbed036020528060408720556801000000000000000081101561086e5784611e9b826001611ed194017f645e039705490088daad89bae25049a34f4a9072d398537b1ab2425f24cbed02556132ea565b9091907fffffffffffffffffffffffffffffffffffffffffffffffffffffffffffffffff83549160031b92831b921b1916179055565b7f645e039705490088daad89bae25049a34f4a9072d398537b1ab2425f24cbed02547fffffffffffffffffffffffffffffffffffffffffffffffffffffffffffffffff8101908111612107578486527f645e039705490088daad89bae25049a34f4a9072d398537b1ab2425f24cbed03602052611f526040872054916132ea565b90549060031b1c611f6681611e9b846132ea565b86527f645e039705490088daad89bae25049a34f4a9072d398537b1ab2425f24cbed0360205260408620558385527f645e039705490088daad89bae25049a34f4a9072d398537b1ab2425f24cbed036020528460408120557f645e039705490088daad89bae25049a34f4a9072d398537b1ab2425f24cbed025480156120da577fffffffffffffffffffffffffffffffffffffffffffffffffffffffffffffffff01612042612014826132ea565b7fffffffffffffffffffffffffffffffffffffffffffffffffffffffffffffffff82549160031b1b19169055565b7f645e039705490088daad89bae25049a34f4a9072d398537b1ab2425f24cbed0255506120ae57602073ffffffffffffffffffffffffffffffffffffffff7f60587f757bac58d5a4fb15364d58e0f634f9162a1ecc65749103a0f79641bc44926040519485521692a280f35b602483837f7e273289000000000000000000000000000000000000000000000000000000008252600452fd5b6024867f4e487b710000000000000000000000000000000000000000000000000000000081526031600452fd5b6024867f4e487b710000000000000000000000000000000000000000000000000000000081526011600452fd5b61213f575b50611ed1565b6121488261336d565b8587527f645e039705490088daad89bae25049a34f4a9072d398537b1ab2425f24cbed0160205260408720549187527f645e039705490088daad89bae25049a34f4a9072d398537b1ab2425f24cbed0060205260408720918181036121e7575b508587527f645e039705490088daad89bae25049a34f4a9072d398537b1ab2425f24cbed0160205286604081205586526020528460408120555f612139565b818852826020526040882054818952836020528060408a205588527f645e039705490088daad89bae25049a34f4a9072d398537b1ab2425f24cbed0160205260408820555f6121a8565b612287865f527f80bb2b638cc20bc4d0a60d66940f3ab4a00c1d7b313497ca82fb0b4ab007930460205260405f207fffffffffffffffffffffffff00000000000000000000000000000000000000008154169055565b6122ce8373ffffffffffffffffffffffffffffffffffffffff165f527f80bb2b638cc20bc4d0a60d66940f3ab4a00c1d7b313497ca82fb0b4ab007930360205260405f2090565b7fffffffffffffffffffffffffffffffffffffffffffffffffffffffffffffffff8154019055611d88565b63ffffffff1615612481577fffffffffffffffffffffff00ffffffffffffffffffffffffffffffffffffffff1674010000000000000000000000000000000000000000177ff3177357ab46d8af007ab3fdb9af81da189e1068fefdc0073dca88a2cab40a0055803b1561247d575f60405180927f94c7d7ee0000000000000000000000000000000000000000000000000000000082523360048301526040602483015236604483015236836064840137826064368401015281836064827fffffffffffffffffffffffffffffffffffffffffffffffffffffffffffffffe0601f36011681010301925af180156124725761245d575b507fffffffffffffffffffffff00ffffffffffffffffffffffffffffffffffffffff7ff3177357ab46d8af007ab3fdb9af81da189e1068fefdc0073dca88a2cab40a0054167ff3177357ab46d8af007ab3fdb9af81da189e1068fefdc0073dca88a2cab40a00555f8080611d11565b61246a9192505f90612b09565b5f905f6123ee565b6040513d5f823e3d90fd5b5f80fd5b7f068ca9d8000000000000000000000000000000000000000000000000000000005f523360045260245ffd5b8051929091604084106124d55750506020806124cd938301019101613730565b905b5f611d0a565b91909260208110156124e9575b50506124cf565b819250906020918101031261247d5760206125049101613400565b5f806124e2565b3461247d575f7ffffffffffffffffffffffffffffffffffffffffffffffffffffffffffffffffc36011261247d5760207f645e039705490088daad89bae25049a34f4a9072d398537b1ab2425f24cbed0254604051908152f35b3461247d5760407ffffffffffffffffffffffffffffffffffffffffffffffffffffffffffffffffc36011261247d5761259c612a51565b6024356125a8816135c2565b33151580612705575b80612693575b61266757819073ffffffffffffffffffffffffffffffffffffffff80851691167f8c5be1e5ebec7d5bd14f71427d1e84f3dd0314c0f7b2291e5b200ac8c7c3b9255f80a45f527f80bb2b638cc20bc4d0a60d66940f3ab4a00c1d7b313497ca82fb0b4ab007930460205273ffffffffffffffffffffffffffffffffffffffff60405f2091167fffffffffffffffffffffffff00000000000000000000000000000000000000008254161790555f80f35b7fa9fbf51f000000000000000000000000000000000000000000000000000000005f523360045260245ffd5b506126db8173ffffffffffffffffffffffffffffffffffffffff165f527f80bb2b638cc20bc4d0a60d66940f3ab4a00c1d7b313497ca82fb0b4ab007930560205260405f2090565b73ffffffffffffffffffffffffffffffffffffffff33165f5260205260ff60405f205416156125b7565b503373ffffffffffffffffffffffffffffffffffffffff821614156125b1565b3461247d5760207ffffffffffffffffffffffffffffffffffffffffffffffffffffffffffffffffc36011261247d576020611482600435612765816135c2565b505f527f80bb2b638cc20bc4d0a60d66940f3ab4a00c1d7b313497ca82fb0b4ab007930460205273ffffffffffffffffffffffffffffffffffffffff60405f20541690565b3461247d575f7ffffffffffffffffffffffffffffffffffffffffffffffffffffffffffffffffc36011261247d576040515f7f80bb2b638cc20bc4d0a60d66940f3ab4a00c1d7b313497ca82fb0b4ab00793005461280781612bf7565b80845290600181169081156128ac575060011461282f575b6102778361118081850382612b09565b7f80bb2b638cc20bc4d0a60d66940f3ab4a00c1d7b313497ca82fb0b4ab00793005f9081527f37c58c799b6609234b945e882912ee9ad34948a1dfaa20a97485e1a7752bbf81939250905b8082106128925750909150810160200161118061281f565b91926001816020925483858801015201910190929161287a565b7fffffffffffffffffffffffffffffffffffffffffffffffffffffffffffffff001660208086019190915291151560051b84019091019150611180905061281f565b3461247d5760207ffffffffffffffffffffffffffffffffffffffffffffffffffffffffffffffffc36011261247d57600435907fffffffff00000000000000000000000000000000000000000000000000000000821680920361247d57817f780e9d630000000000000000000000000000000000000000000000000000000060209314908115612980575b5015158152f35b7f80ac58cd000000000000000000000000000000000000000000000000000000008114915081156129e4575b81156129ba575b5083612979565b7f01ffc9a700000000000000000000000000000000000000000000000000000000915014836129b3565b7f5b5e139f00000000000000000000000000000000000000000000000000000000811491506129ac565b907fffffffffffffffffffffffffffffffffffffffffffffffffffffffffffffffe0601f602080948051918291828752018686015e5f8582860101520116010190565b6004359073ffffffffffffffffffffffffffffffffffffffff8216820361247d57565b6024359073ffffffffffffffffffffffffffffffffffffffff8216820361247d57565b7ffffffffffffffffffffffffffffffffffffffffffffffffffffffffffffffffc606091011261247d5760043573ffffffffffffffffffffffffffffffffffffffff8116810361247d579060243573ffffffffffffffffffffffffffffffffffffffff8116810361247d579060443590565b90601f7fffffffffffffffffffffffffffffffffffffffffffffffffffffffffffffffe0910116810190811067ffffffffffffffff821117612b4a57604052565b7f4e487b71000000000000000000000000000000000000000000000000000000005f52604160045260245ffd5b67ffffffffffffffff8111612b4a57601f017fffffffffffffffffffffffffffffffffffffffffffffffffffffffffffffffe01660200190565b81601f8201121561247d57803590612bc882612b77565b92612bd66040519485612b09565b8284526020838301011161247d57815f926020809301838601378301015290565b90600182811c92168015612c3e575b6020831014612c1157565b7f4e487b71000000000000000000000000000000000000000000000000000000005f52602260045260245ffd5b91607f1691612c06565b91909173ffffffffffffffffffffffffffffffffffffffff83169081156132be57612cb1835f527f80bb2b638cc20bc4d0a60d66940f3ab4a00c1d7b313497ca82fb0b4ab007930260205273ffffffffffffffffffffffffffffffffffffffff60405f20541690565b3315158061313a575b5073ffffffffffffffffffffffffffffffffffffffff81169485158015613072575b612d238273ffffffffffffffffffffffffffffffffffffffff165f527f80bb2b638cc20bc4d0a60d66940f3ab4a00c1d7b313497ca82fb0b4ab007930360205260405f2090565b60018154019055855f527f80bb2b638cc20bc4d0a60d66940f3ab4a00c1d7b313497ca82fb0b4ab007930260205260405f20857fffffffffffffffffffffffff00000000000000000000000000000000000000008254161790558585887fddf252ad1be2c89b69c2b068fc378daa952ba7f163c4a11628f55a4df523b3ef5f80a415612f79577f645e039705490088daad89bae25049a34f4a9072d398537b1ab2425f24cbed0254855f527f645e039705490088daad89bae25049a34f4a9072d398537b1ab2425f24cbed036020528060405f205568010000000000000000811015612b4a5785611e9b826001612e3c94017f645e039705490088daad89bae25049a34f4a9072d398537b1ab2425f24cbed02556132ea565b838603612e9b575b5073ffffffffffffffffffffffffffffffffffffffff92505016808303612e6a57505050565b7f64283d7b000000000000000000000000000000000000000000000000000000005f5260045260245260445260645ffd5b612ea49061336d565b7fffffffffffffffffffffffffffffffffffffffffffffffffffffffffffffffff8101908111612f4c5773ffffffffffffffffffffffffffffffffffffffff935f527f645e039705490088daad89bae25049a34f4a9072d398537b1ab2425f24cbed0060205260405f20815f526020528460405f2055845f527f645e039705490088daad89bae25049a34f4a9072d398537b1ab2425f24cbed0160205260405f20555f612e44565b7f4e487b71000000000000000000000000000000000000000000000000000000005f52601160045260245ffd5b858414612e3c57612f898261336d565b855f527f645e039705490088daad89bae25049a34f4a9072d398537b1ab2425f24cbed0160205260405f205490875f527f645e039705490088daad89bae25049a34f4a9072d398537b1ab2425f24cbed0060205260405f2091818103613028575b50865f527f645e039705490088daad89bae25049a34f4a9072d398537b1ab2425f24cbed016020525f60408120555f526020525f6040812055612e3c565b815f528260205260405f2054815f52836020528060405f20555f527f645e039705490088daad89bae25049a34f4a9072d398537b1ab2425f24cbed0160205260405f20555f612fea565b6130c8865f527f80bb2b638cc20bc4d0a60d66940f3ab4a00c1d7b313497ca82fb0b4ab007930460205260405f207fffffffffffffffffffffffff00000000000000000000000000000000000000008154169055565b61310f8373ffffffffffffffffffffffffffffffffffffffff165f527f80bb2b638cc20bc4d0a60d66940f3ab4a00c1d7b313497ca82fb0b4ab007930360205260405f2090565b7fffffffffffffffffffffffffffffffffffffffffffffffffffffffffffffffff8154019055612cdc565b806131c1575b1561314b575f612cba565b839073ffffffffffffffffffffffffffffffffffffffff16613192577f7e273289000000000000000000000000000000000000000000000000000000005f5260045260245ffd5b7f177e802f000000000000000000000000000000000000000000000000000000005f523360045260245260445ffd5b503373ffffffffffffffffffffffffffffffffffffffff821614801561324d575b8061314057503373ffffffffffffffffffffffffffffffffffffffff613246865f527f80bb2b638cc20bc4d0a60d66940f3ab4a00c1d7b313497ca82fb0b4ab007930460205273ffffffffffffffffffffffffffffffffffffffff60405f20541690565b1614613140565b506132958173ffffffffffffffffffffffffffffffffffffffff165f527f80bb2b638cc20bc4d0a60d66940f3ab4a00c1d7b313497ca82fb0b4ab007930560205260405f2090565b73ffffffffffffffffffffffffffffffffffffffff33165f5260205260ff60405f2054166131e2565b7f64a0ae92000000000000000000000000000000000000000000000000000000005f525f60045260245ffd5b7f645e039705490088daad89bae25049a34f4a9072d398537b1ab2425f24cbed0254811015613340577f645e039705490088daad89bae25049a34f4a9072d398537b1ab2425f24cbed025f5260205f2001905f90565b7f4e487b71000000000000000000000000000000000000000000000000000000005f52603260045260245ffd5b73ffffffffffffffffffffffffffffffffffffffff8116156133d4576133d09073ffffffffffffffffffffffffffffffffffffffff165f527f80bb2b638cc20bc4d0a60d66940f3ab4a00c1d7b313497ca82fb0b4ab007930360205260405f2090565b5490565b7f89c62b64000000000000000000000000000000000000000000000000000000005f525f60045260245ffd5b5190811515820361247d57565b90613419838284612c48565b803b613426575b50505050565b60209161349273ffffffffffffffffffffffffffffffffffffffff8093169560405195869485947f150b7a020000000000000000000000000000000000000000000000000000000086523360048701521660248501526044840152608060648401526084830190612a0e565b03815f865af15f9181613565575b506134e757506134ae613701565b805190816134e257827f64a0ae92000000000000000000000000000000000000000000000000000000005f5260045260245ffd5b602001fd5b7fffffffff000000000000000000000000000000000000000000000000000000007f150b7a020000000000000000000000000000000000000000000000000000000091160361353a57505f808080613420565b7f64a0ae92000000000000000000000000000000000000000000000000000000005f5260045260245ffd5b9091506020813d6020116135ba575b8161358160209383612b09565b8101031261247d57517fffffffff000000000000000000000000000000000000000000000000000000008116810361247d57905f6134a0565b3d9150613574565b61360a815f527f80bb2b638cc20bc4d0a60d66940f3ab4a00c1d7b313497ca82fb0b4ab007930260205273ffffffffffffffffffffffffffffffffffffffff60405f20541690565b9073ffffffffffffffffffffffffffffffffffffffff82161561362b575090565b7f7e273289000000000000000000000000000000000000000000000000000000005f5260045260245ffd5b602073ffffffffffffffffffffffffffffffffffffffff7f2f658b440c35314f52658ea8a740e05b284cdc84dc9ae01e891f21b8933e7cad9216807fffffffffffffffffffffffff00000000000000000000000000000000000000007ff3177357ab46d8af007ab3fdb9af81da189e1068fefdc0073dca88a2cab40a005416177ff3177357ab46d8af007ab3fdb9af81da189e1068fefdc0073dca88a2cab40a0055604051908152a1565b3d1561372b573d9061371282612b77565b916137206040519384612b09565b82523d5f602084013e565b606090565b919082604091031261247d57602061374783613400565b92015163ffffffff8116810361247d5790565b6137a2825f527f80bb2b638cc20bc4d0a60d66940f3ab4a00c1d7b313497ca82fb0b4ab007930260205273ffffffffffffffffffffffffffffffffffffffff60405f20541690565b9173ffffffffffffffffffffffffffffffffffffffff8316918215928315613c8c575b73ffffffffffffffffffffffffffffffffffffffff8216938415908115613c39575b845f527f80bb2b638cc20bc4d0a60d66940f3ab4a00c1d7b313497ca82fb0b4ab007930260205260405f20867fffffffffffffffffffffffff00000000000000000000000000000000000000008254161790558486847fddf252ad1be2c89b69c2b068fc378daa952ba7f163c4a11628f55a4df523b3ef5f80a415613b40577f645e039705490088daad89bae25049a34f4a9072d398537b1ab2425f24cbed0254845f527f645e039705490088daad89bae25049a34f4a9072d398537b1ab2425f24cbed036020528060405f205568010000000000000000811015612b4a5784611e9b8260016138f994017f645e039705490088daad89bae25049a34f4a9072d398537b1ab2425f24cbed02556132ea565b15613a9657505090507f645e039705490088daad89bae25049a34f4a9072d398537b1ab2425f24cbed02547fffffffffffffffffffffffffffffffffffffffffffffffffffffffffffffffff8101908111612f4c57815f527f645e039705490088daad89bae25049a34f4a9072d398537b1ab2425f24cbed0360205261398360405f2054916132ea565b90549060031b1c61399781611e9b846132ea565b5f527f645e039705490088daad89bae25049a34f4a9072d398537b1ab2425f24cbed0360205260405f20555f527f645e039705490088daad89bae25049a34f4a9072d398537b1ab2425f24cbed036020525f60408120557f645e039705490088daad89bae25049a34f4a9072d398537b1ab2425f24cbed02548015613a69577fffffffffffffffffffffffffffffffffffffffffffffffffffffffffffffffff01613a44612014826132ea565b7f645e039705490088daad89bae25049a34f4a9072d398537b1ab2425f24cbed025590565b7f4e487b71000000000000000000000000000000000000000000000000000000005f52603160045260245ffd5b8303613aa3575b50505090565b613aac9061336d565b917fffffffffffffffffffffffffffffffffffffffffffffffffffffffffffffffff8301928311612f4c575f527f645e039705490088daad89bae25049a34f4a9072d398537b1ab2425f24cbed0060205260405f20825f526020528060405f20555f527f645e039705490088daad89bae25049a34f4a9072d398537b1ab2425f24cbed0160205260405f20555f8080613a9d565b8185146138f957613b508661336d565b845f527f645e039705490088daad89bae25049a34f4a9072d398537b1ab2425f24cbed0160205260405f205490835f527f645e039705490088daad89bae25049a34f4a9072d398537b1ab2425f24cbed0060205260405f2091818103613bef575b50855f527f645e039705490088daad89bae25049a34f4a9072d398537b1ab2425f24cbed016020525f60408120555f526020525f60408120556138f9565b815f528260205260405f2054815f52836020528060405f20555f527f645e039705490088daad89bae25049a34f4a9072d398537b1ab2425f24cbed0160205260405f20555f613bb1565b613c808473ffffffffffffffffffffffffffffffffffffffff165f527f80bb2b638cc20bc4d0a60d66940f3ab4a00c1d7b313497ca82fb0b4ab007930360205260405f2090565b600181540190556137e7565b613ce2835f527f80bb2b638cc20bc4d0a60d66940f3ab4a00c1d7b313497ca82fb0b4ab007930460205260405f207fffffffffffffffffffffffff00000000000000000000000000000000000000008154169055565b613d298573ffffffffffffffffffffffffffffffffffffffff165f527f80bb2b638cc20bc4d0a60d66940f3ab4a00c1d7b313497ca82fb0b4ab007930360205260405f2090565b7fffffffffffffffffffffffffffffffffffffffffffffffffffffffffffffffff81540190556137c5565b60ff7ff0c57e16840df040f15088dc2f81fe391c3923bec73e23a9662efc9c229c6a005460401c1615613d8357565b7fd7e6bcf8000000000000000000000000000000000000000000000000000000005f5260045ffd5b90613de85750805115613dc057805190602001fd5b7fd6bda275000000000000000000000000000000000000000000000000000000005f5260045ffd5b81511580613e3b575b613df9575090565b73ffffffffffffffffffffffffffffffffffffffff907f9996b315000000000000000000000000000000000000000000000000000000005f521660045260245ffd5b50803b15613df156fea26469706673582212200ce561527f24fdf228b1fd6f41623f5a8a884fdc2cc6f42a4607d838635d32c264736f6c634300081a0033","linkReferences":{}},"methodIdentifiers":{"ASSET_REFERENDUM()":"3bab059c","UPGRADE_INTERFACE_VERSION()":"ad3cb1cc","approve(address,uint256)":"095ea7b3","authority()":"bf7e214f","balanceOf(address)":"70a08231","claim(address,uint256)":"aad3ec96","getApproved(uint256)":"081812fc","initialize(address)":"c4d66de8","isApprovedForAll(address,address)":"e985e9c5","isConsumingScheduledOp()":"8fb36037","name()":"06fdde03","ownerOf(uint256)":"6352211e","proxiableUUID()":"52d1902d","revoke(uint256)":"20c5429b","safeTransferFrom(address,address,uint256)":"42842e0e","safeTransferFrom(address,address,uint256,bytes)":"b88d4fde","setApprovalForAll(address,bool)":"a22cb465","setAuthority(address)":"7a9e5e4b","supportsInterface(bytes4)":"01ffc9a7","symbol()":"95d89b41","tokenByIndex(uint256)":"4f6ccce7","tokenOfOwnerByIndex(address,uint256)":"2f745c59","tokenURI(uint256)":"c87b56dd","totalSupply()":"18160ddd","transfer(address,uint256)":"a9059cbb","transferFrom(address,address,uint256)":"23b872dd","upgradeToAndCall(address,bytes)":"4f1ef286"},"storageLayout":{"storage":[],"types":{}},"id":0}