{"abi":[{"type":"constructor","inputs":[{"name":"assetReferendum","type":"address","internalType":"address"}],"stateMutability":"nonpayable"},{"type":"function","name":"ASSET_REFERENDUM","inputs":[],"outputs":[{"name":"","type":"address","internalType":"contract IAssetVerifiable"}],"stateMutability":"view"},{"type":"function","name":"UPGRADE_INTERFACE_VERSION","inputs":[],"outputs":[{"name":"","type":"string","internalType":"string"}],"stateMutability":"view"},{"type":"function","name":"approve","inputs":[{"name":"to","type":"address","internalType":"address"},{"name":"tokenId","type":"uint256","internalType":"uint256"}],"outputs":[],"stateMutability":"nonpayable"},{"type":"function","name":"authority","inputs":[],"outputs":[{"name":"","type":"address","internalType":"address"}],"stateMutability":"view"},{"type":"function","name":"balanceOf","inputs":[{"name":"owner","type":"address","internalType":"address"}],"outputs":[{"name":"","type":"uint256","internalType":"uint256"}],"stateMutability":"view"},{"type":"function","name":"getApproved","inputs":[{"name":"tokenId","type":"uint256","internalType":"uint256"}],"outputs":[{"name":"","type":"address","internalType":"address"}],"stateMutability":"view"},{"type":"function","name":"initialize","inputs":[{"name":"accessManager","type":"address","internalType":"address"}],"outputs":[],"stateMutability":"nonpayable"},{"type":"function","name":"isApprovedForAll","inputs":[{"name":"owner","type":"address","internalType":"address"},{"name":"operator","type":"address","internalType":"address"}],"outputs":[{"name":"","type":"bool","internalType":"bool"}],"stateMutability":"view"},{"type":"function","name":"isConsumingScheduledOp","inputs":[],"outputs":[{"name":"","type":"bytes4","internalType":"bytes4"}],"stateMutability":"view"},{"type":"function","name":"name","inputs":[],"outputs":[{"name":"","type":"string","internalType":"string"}],"stateMutability":"view"},{"type":"function","name":"ownerOf","inputs":[{"name":"tokenId","type":"uint256","internalType":"uint256"}],"outputs":[{"name":"","type":"address","internalType":"address"}],"stateMutability":"view"},{"type":"function","name":"proxiableUUID","inputs":[],"outputs":[{"name":"","type":"bytes32","internalType":"bytes32"}],"stateMutability":"view"},{"type":"function","name":"registerAsset","inputs":[{"name":"to","type":"address","internalType":"address"},{"name":"assetId","type":"uint256","internalType":"uint256"}],"outputs":[],"stateMutability":"nonpayable"},{"type":"function","name":"safeTransferFrom","inputs":[{"name":"from","type":"address","internalType":"address"},{"name":"to","type":"address","internalType":"address"},{"name":"tokenId","type":"uint256","internalType":"uint256"}],"outputs":[],"stateMutability":"nonpayable"},{"type":"function","name":"safeTransferFrom","inputs":[{"name":"from","type":"address","internalType":"address"},{"name":"to","type":"address","internalType":"address"},{"name":"tokenId","type":"uint256","internalType":"uint256"},{"name":"data","type":"bytes","internalType":"bytes"}],"outputs":[],"stateMutability":"nonpayable"},{"type":"function","name":"setApprovalForAll","inputs":[{"name":"operator","type":"address","internalType":"address"},{"name":"approved","type":"bool","internalType":"bool"}],"outputs":[],"stateMutability":"nonpayable"},{"type":"function","name":"setAuthority","inputs":[{"name":"newAuthority","type":"address","internalType":"address"}],"outputs":[],"stateMutability":"nonpayable"},{"type":"function","name":"supportsInterface","inputs":[{"name":"interfaceId","type":"bytes4","internalType":"bytes4"}],"outputs":[{"name":"","type":"bool","internalType":"bool"}],"stateMutability":"view"},{"type":"function","name":"symbol","inputs":[],"outputs":[{"name":"","type":"string","internalType":"string"}],"stateMutability":"view"},{"type":"function","name":"tokenByIndex","inputs":[{"name":"index","type":"uint256","internalType":"uint256"}],"outputs":[{"name":"","type":"uint256","internalType":"uint256"}],"stateMutability":"view"},{"type":"function","name":"tokenOfOwnerByIndex","inputs":[{"name":"owner","type":"address","internalType":"address"},{"name":"index","type":"uint256","internalType":"uint256"}],"outputs":[{"name":"","type":"uint256","internalType":"uint256"}],"stateMutability":"view"},{"type":"function","name":"tokenURI","inputs":[{"name":"tokenId","type":"uint256","internalType":"uint256"}],"outputs":[{"name":"","type":"string","internalType":"string"}],"stateMutability":"view"},{"type":"function","name":"totalSupply","inputs":[],"outputs":[{"name":"","type":"uint256","internalType":"uint256"}],"stateMutability":"view"},{"type":"function","name":"transferFrom","inputs":[{"name":"from","type":"address","internalType":"address"},{"name":"to","type":"address","internalType":"address"},{"name":"tokenId","type":"uint256","internalType":"uint256"}],"outputs":[],"stateMutability":"nonpayable"},{"type":"function","name":"upgradeToAndCall","inputs":[{"name":"newImplementation","type":"address","internalType":"address"},{"name":"data","type":"bytes","internalType":"bytes"}],"outputs":[],"stateMutability":"payable"},{"type":"event","name":"Approval","inputs":[{"name":"owner","type":"address","indexed":true,"internalType":"address"},{"name":"approved","type":"address","indexed":true,"internalType":"address"},{"name":"tokenId","type":"uint256","indexed":true,"internalType":"uint256"}],"anonymous":false},{"type":"event","name":"ApprovalForAll","inputs":[{"name":"owner","type":"address","indexed":true,"internalType":"address"},{"name":"operator","type":"address","indexed":true,"internalType":"address"},{"name":"approved","type":"bool","indexed":false,"internalType":"bool"}],"anonymous":false},{"type":"event","name":"AuthorityUpdated","inputs":[{"name":"authority","type":"address","indexed":false,"internalType":"address"}],"anonymous":false},{"type":"event","name":"Initialized","inputs":[{"name":"version","type":"uint64","indexed":false,"internalType":"uint64"}],"anonymous":false},{"type":"event","name":"RegisteredAsset","inputs":[{"name":"owner","type":"address","indexed":true,"internalType":"address"},{"name":"assetId","type":"uint256","indexed":false,"internalType":"uint256"}],"anonymous":false},{"type":"event","name":"Transfer","inputs":[{"name":"from","type":"address","indexed":true,"internalType":"address"},{"name":"to","type":"address","indexed":true,"internalType":"address"},{"name":"tokenId","type":"uint256","indexed":true,"internalType":"uint256"}],"anonymous":false},{"type":"event","name":"Upgraded","inputs":[{"name":"implementation","type":"address","indexed":true,"internalType":"address"}],"anonymous":false},{"type":"error","name":"AccessManagedInvalidAuthority","inputs":[{"name":"authority","type":"address","internalType":"address"}]},{"type":"error","name":"AccessManagedRequiredDelay","inputs":[{"name":"caller","type":"address","internalType":"address"},{"name":"delay","type":"uint32","internalType":"uint32"}]},{"type":"error","name":"AccessManagedUnauthorized","inputs":[{"name":"caller","type":"address","internalType":"address"}]},{"type":"error","name":"AddressEmptyCode","inputs":[{"name":"target","type":"address","internalType":"address"}]},{"type":"error","name":"ERC1967InvalidImplementation","inputs":[{"name":"implementation","type":"address","internalType":"address"}]},{"type":"error","name":"ERC1967NonPayable","inputs":[]},{"type":"error","name":"ERC721EnumerableForbiddenBatchMint","inputs":[]},{"type":"error","name":"ERC721IncorrectOwner","inputs":[{"name":"sender","type":"address","internalType":"address"},{"name":"tokenId","type":"uint256","internalType":"uint256"},{"name":"owner","type":"address","internalType":"address"}]},{"type":"error","name":"ERC721InsufficientApproval","inputs":[{"name":"operator","type":"address","internalType":"address"},{"name":"tokenId","type":"uint256","internalType":"uint256"}]},{"type":"error","name":"ERC721InvalidApprover","inputs":[{"name":"approver","type":"address","internalType":"address"}]},{"type":"error","name":"ERC721InvalidOperator","inputs":[{"name":"operator","type":"address","internalType":"address"}]},{"type":"error","name":"ERC721InvalidOwner","inputs":[{"name":"owner","type":"address","internalType":"address"}]},{"type":"error","name":"ERC721InvalidReceiver","inputs":[{"name":"receiver","type":"address","internalType":"address"}]},{"type":"error","name":"ERC721InvalidSender","inputs":[{"name":"sender","type":"address","internalType":"address"}]},{"type":"error","name":"ERC721NonexistentToken","inputs":[{"name":"tokenId","type":"uint256","internalType":"uint256"}]},{"type":"error","name":"ERC721OutOfBoundsIndex","inputs":[{"name":"owner","type":"address","internalType":"address"},{"name":"index","type":"uint256","internalType":"uint256"}]},{"type":"error","name":"FailedCall","inputs":[]},{"type":"error","name":"InvalidInitialization","inputs":[]},{"type":"error","name":"InvalidNotApprovedAsset","inputs":[]},{"type":"error","name":"InvalidUnauthorizedOperation","inputs":[{"name":"","type":"string","internalType":"string"}]},{"type":"error","name":"NotInitializing","inputs":[]},{"type":"error","name":"UUPSUnauthorizedCallContext","inputs":[]},{"type":"error","name":"UUPSUnsupportedProxiableUUID","inputs":[{"name":"slot","type":"bytes32","internalType":"bytes32"}]}],"bytecode":{"object":"0x60c03461014657601f61327e38819003918201601f19168301916001600160401b0383118484101761014a5780849260209460405283398101031261014657516001600160a01b0381169081900361014657306080527ff0c57e16840df040f15088dc2f81fe391c3923bec73e23a9662efc9c229c6a005460ff8160401c16610137576002600160401b03196001600160401b038216016100ce575b5060a05260405161311f908161015f82396080518181816117b7015261193c015260a051818181610c6d0152611d930152f35b6001600160401b0319166001600160401b039081177ff0c57e16840df040f15088dc2f81fe391c3923bec73e23a9662efc9c229c6a00556040519081527fc7f505b2f371ae2175ee4913f4499e1f2633a7b5936321eed1cdaeb6115181d290602090a15f61009b565b63f92ee8a960e01b5f5260045ffd5b5f80fd5b634e487b7160e01b5f52604160045260245ffdfe6080806040526004361015610012575f80fd5b5f905f3560e01c90816301ffc9a71461223d5750806306fdde031461213c578063081812fc146120b7578063095ea7b314611ef757806318160ddd14611e9d57806323b872dd14611e865780632f745c5914611db75780633bab059c14611d4957806342842e0e14611d205780634f1ef286146118d35780634f6ccce71461182f57806352d1902d146117725780636352211e1461171857806370a08231146116cf5780637a9e5e4b146115dc5780638fb360371461152b57806395d89b41146113d3578063a22cb465146112b5578063ad3cb1cc14611238578063b7785afb14610bcb578063b88d4fde14610b5c578063bf7e214f14610aec578063c4d66de814610265578063c87b56dd146101ea5763e985e9c514610131575f80fd5b346101e75760407ffffffffffffffffffffffffffffffffffffffffffffffffffffffffffffffffc3601126101e7576101686123a0565b73ffffffffffffffffffffffffffffffffffffffff6101cc6101886123c3565b9273ffffffffffffffffffffffffffffffffffffffff165f527f80bb2b638cc20bc4d0a60d66940f3ab4a00c1d7b313497ca82fb0b4ab007930560205260405f2090565b91165f52602052602060ff60405f2054166040519015158152f35b80fd5b346102615760207ffffffffffffffffffffffffffffffffffffffffffffffffffffffffffffffffc36011261026157610224600435612e8b565b505f604051610234602082612458565b5261025d604051610246602082612458565b5f815260405191829160208352602083019061235d565b0390f35b5f80fd5b346102615760207ffffffffffffffffffffffffffffffffffffffffffffffffffffffffffffffffc3601126102615761029c6123a0565b7ff0c57e16840df040f15088dc2f81fe391c3923bec73e23a9662efc9c229c6a005460ff8160401c16159067ffffffffffffffff811680159081610ae4575b6001149081610ada575b159081610ad1575b50610aa9578160017fffffffffffffffffffffffffffffffffffffffffffffffff00000000000000008316177ff0c57e16840df040f15088dc2f81fe391c3923bec73e23a9662efc9c229c6a0055610a54575b50610349612ff9565b610351612ff9565b6040908151926103618385612458565b600984527f53796e617073654950000000000000000000000000000000000000000000000060208501528251936103988486612458565b600385527f53594e000000000000000000000000000000000000000000000000000000000060208601526103ca612ff9565b6103d2612ff9565b80519067ffffffffffffffff82116108555781906104107f80bb2b638cc20bc4d0a60d66940f3ab4a00c1d7b313497ca82fb0b4ab007930054612519565b601f811161098a575b50602090601f831160011461088d575f92610882575b50507fffffffffffffffffffffffffffffffffffffffffffffffffffffffffffffffff8260011b9260031b1c1916177f80bb2b638cc20bc4d0a60d66940f3ab4a00c1d7b313497ca82fb0b4ab0079300555b835167ffffffffffffffff8111610855576104bc7f80bb2b638cc20bc4d0a60d66940f3ab4a00c1d7b313497ca82fb0b4ab007930154612519565b601f81116107d3575b506020601f82116001146106dd57819073ffffffffffffffffffffffffffffffffffffffff9495965f926106d2575b50507fffffffffffffffffffffffffffffffffffffffffffffffffffffffffffffffff8260011b9260031b1c1916177f80bb2b638cc20bc4d0a60d66940f3ab4a00c1d7b313497ca82fb0b4ab0079301555b61054e612ff9565b610556612ff9565b61055e612ff9565b61056781612f1f565b61056f612ff9565b168015610675577fffffffffffffffffffffffff00000000000000000000000000000000000000007fb8e950798a2a06a6f5727a94041b193569f4f67d69a0de3cf866d93822e7fa005416177fb8e950798a2a06a6f5727a94041b193569f4f67d69a0de3cf866d93822e7fa00556105e357005b60207fc7f505b2f371ae2175ee4913f4499e1f2633a7b5936321eed1cdaeb6115181d2917fffffffffffffffffffffffffffffffffffffffffffffff00ffffffffffffffff7ff0c57e16840df040f15088dc2f81fe391c3923bec73e23a9662efc9c229c6a0054167ff0c57e16840df040f15088dc2f81fe391c3923bec73e23a9662efc9c229c6a00555160018152a1005b606483517f6317e35f00000000000000000000000000000000000000000000000000000000815260206004820152601a60248201527f496e76616c696420617574686f7269747920616464726573732e0000000000006044820152fd5b0151905086806104f4565b7fffffffffffffffffffffffffffffffffffffffffffffffffffffffffffffffe08216957f80bb2b638cc20bc4d0a60d66940f3ab4a00c1d7b313497ca82fb0b4ab00793015f52815f20965f5b8181106107bb57509173ffffffffffffffffffffffffffffffffffffffff95969791846001959410610784575b505050811b017f80bb2b638cc20bc4d0a60d66940f3ab4a00c1d7b313497ca82fb0b4ab007930155610546565b01517fffffffffffffffffffffffffffffffffffffffffffffffffffffffffffffffff60f88460031b161c19169055868080610757565b8383015189556001909801976020938401930161072a565b7f80bb2b638cc20bc4d0a60d66940f3ab4a00c1d7b313497ca82fb0b4ab00793015f527ff4bad0a69248f59680a4f2b3000328cec71a413447c96781cfe5996daa8c456e601f830160051c8101916020841061084b575b601f0160051c01905b81811061084057506104c5565b5f8155600101610833565b909150819061082a565b7f4e487b71000000000000000000000000000000000000000000000000000000005f52604160045260245ffd5b01519050868061042f565b917fffffffffffffffffffffffffffffffffffffffffffffffffffffffffffffffe016917f80bb2b638cc20bc4d0a60d66940f3ab4a00c1d7b313497ca82fb0b4ab00793005f527f37c58c799b6609234b945e882912ee9ad34948a1dfaa20a97485e1a7752bbf81925f5b818110610972575090846001959493921061093b575b505050811b017f80bb2b638cc20bc4d0a60d66940f3ab4a00c1d7b313497ca82fb0b4ab007930055610481565b01517fffffffffffffffffffffffffffffffffffffffffffffffffffffffffffffffff60f88460031b161c1916905586808061090e565b929360206001819287860151815501950193016108f8565b9091507f80bb2b638cc20bc4d0a60d66940f3ab4a00c1d7b313497ca82fb0b4ab00793005f52601f830160051c7f37c58c799b6609234b945e882912ee9ad34948a1dfaa20a97485e1a7752bbf81019060208410610a2c575b90601f8493920160051c7f37c58c799b6609234b945e882912ee9ad34948a1dfaa20a97485e1a7752bbf8101905b818110610a1e5750610419565b5f8155849350600101610a11565b7f37c58c799b6609234b945e882912ee9ad34948a1dfaa20a97485e1a7752bbf8191506109e3565b7fffffffffffffffffffffffffffffffffffffffffffffff0000000000000000001668010000000000000001177ff0c57e16840df040f15088dc2f81fe391c3923bec73e23a9662efc9c229c6a005582610340565b7ff92ee8a9000000000000000000000000000000000000000000000000000000005f5260045ffd5b905015846102ed565b303b1591506102e5565b8391506102db565b34610261575f7ffffffffffffffffffffffffffffffffffffffffffffffffffffffffffffffffc36011261026157602073ffffffffffffffffffffffffffffffffffffffff7ff3177357ab46d8af007ab3fdb9af81da189e1068fefdc0073dca88a2cab40a005416604051908152f35b346102615760807ffffffffffffffffffffffffffffffffffffffffffffffffffffffffffffffffc36011261026157610b936123a0565b610b9b6123c3565b6064359167ffffffffffffffff831161026157610bbf610bc99336906004016124d3565b9160443591612cd6565b005b346102615760407ffffffffffffffffffffffffffffffffffffffffffffffffffffffffffffffffc36011261026157610c026123a0565b602435604051917f2a16cca400000000000000000000000000000000000000000000000000000000835273ffffffffffffffffffffffffffffffffffffffff81169283600482015282602482015260208160448173ffffffffffffffffffffffffffffffffffffffff7f0000000000000000000000000000000000000000000000000000000000000000165afa90811561122d575f916111f3575b50156111cb57821561119f57610cf1825f527f80bb2b638cc20bc4d0a60d66940f3ab4a00c1d7b313497ca82fb0b4ab007930260205273ffffffffffffffffffffffffffffffffffffffff60405f20541690565b73ffffffffffffffffffffffffffffffffffffffff81169182159285841594856110d7575b610d5d8473ffffffffffffffffffffffffffffffffffffffff165f527f80bb2b638cc20bc4d0a60d66940f3ab4a00c1d7b313497ca82fb0b4ab007930360205260405f2090565b60018154019055865f527f80bb2b638cc20bc4d0a60d66940f3ab4a00c1d7b313497ca82fb0b4ab007930260205260405f20827fffffffffffffffffffffffff00000000000000000000000000000000000000008254161790558682847fddf252ad1be2c89b69c2b068fc378daa952ba7f163c4a11628f55a4df523b3ef5f80a415610fdd57507f645e039705490088daad89bae25049a34f4a9072d398537b1ab2425f24cbed025490855f527f645e039705490088daad89bae25049a34f4a9072d398537b1ab2425f24cbed036020528160405f20556801000000000000000082101561085557610eaf86610e798460018b96017f645e039705490088daad89bae25049a34f4a9072d398537b1ab2425f24cbed0255612bb3565b9091907fffffffffffffffffffffffffffffffffffffffffffffffffffffffffffffffff83549160031b92831b921b1916179055565b03610f14575b5050610ee85760207f8b116668f2107d9c40b048b2f4cad5fc09b8c3da89ef5ef95f1ccf9d42d213ce91604051908152a2005b7f73c6ac6e000000000000000000000000000000000000000000000000000000005f525f60045260245ffd5b610f1d90612c36565b7fffffffffffffffffffffffffffffffffffffffffffffffffffffffffffffffff8101908111610fb057845f527f645e039705490088daad89bae25049a34f4a9072d398537b1ab2425f24cbed0060205260405f20815f526020528360405f2055835f527f645e039705490088daad89bae25049a34f4a9072d398537b1ab2425f24cbed0160205260405f205584610eb5565b7f4e487b71000000000000000000000000000000000000000000000000000000005f52601160045260245ffd5b90808214610eaf57610fee84612c36565b865f527f645e039705490088daad89bae25049a34f4a9072d398537b1ab2425f24cbed0160205260405f205490825f527f645e039705490088daad89bae25049a34f4a9072d398537b1ab2425f24cbed0060205260405f209181810361108d575b50875f527f645e039705490088daad89bae25049a34f4a9072d398537b1ab2425f24cbed016020525f60408120555f526020525f6040812055610eaf565b815f528260205260405f2054815f52836020528060405f20555f527f645e039705490088daad89bae25049a34f4a9072d398537b1ab2425f24cbed0160205260405f20558961104f565b61112d875f527f80bb2b638cc20bc4d0a60d66940f3ab4a00c1d7b313497ca82fb0b4ab007930460205260405f207fffffffffffffffffffffffff00000000000000000000000000000000000000008154169055565b6111748573ffffffffffffffffffffffffffffffffffffffff165f527f80bb2b638cc20bc4d0a60d66940f3ab4a00c1d7b313497ca82fb0b4ab007930360205260405f2090565b7fffffffffffffffffffffffffffffffffffffffffffffffffffffffffffffffff8154019055610d16565b7f64a0ae92000000000000000000000000000000000000000000000000000000005f525f60045260245ffd5b7fa779dd42000000000000000000000000000000000000000000000000000000005f5260045ffd5b90506020813d602011611225575b8161120e60209383612458565b810103126102615761121f90612cc9565b84610c9d565b3d9150611201565b6040513d5f823e3d90fd5b34610261575f7ffffffffffffffffffffffffffffffffffffffffffffffffffffffffffffffffc3601126102615761025d604051611277604082612458565b600581527f352e302e30000000000000000000000000000000000000000000000000000000602082015260405191829160208352602083019061235d565b346102615760407ffffffffffffffffffffffffffffffffffffffffffffffffffffffffffffffffc360112610261576112ec6123a0565b602435908115158092036102615773ffffffffffffffffffffffffffffffffffffffff169081156113a757335f9081527f80bb2b638cc20bc4d0a60d66940f3ab4a00c1d7b313497ca82fb0b4ab007930560205260409020825f5260205260405f207fffffffffffffffffffffffffffffffffffffffffffffffffffffffffffffff0081541660ff83161790556040519081527f17307eab39ab6107e8899845ad3d59bd9653f200f220920489ca2b5937696c3160203392a3005b507f5b08ba18000000000000000000000000000000000000000000000000000000005f5260045260245ffd5b34610261575f7ffffffffffffffffffffffffffffffffffffffffffffffffffffffffffffffffc360112610261576040515f7f80bb2b638cc20bc4d0a60d66940f3ab4a00c1d7b313497ca82fb0b4ab00793015461143081612519565b80845290600181169081156114e9575060011461146c575b61025d8361145881850382612458565b60405191829160208352602083019061235d565b7f80bb2b638cc20bc4d0a60d66940f3ab4a00c1d7b313497ca82fb0b4ab00793015f9081527ff4bad0a69248f59680a4f2b3000328cec71a413447c96781cfe5996daa8c456e939250905b8082106114cf57509091508101602001611458611448565b9192600181602092548385880101520191019092916114b7565b7fffffffffffffffffffffffffffffffffffffffffffffffffffffffffffffff001660208086019190915291151560051b840190910191506114589050611448565b34610261575f7ffffffffffffffffffffffffffffffffffffffffffffffffffffffffffffffffc360112610261577ff3177357ab46d8af007ab3fdb9af81da189e1068fefdc0073dca88a2cab40a005460a01c60ff16156115d45760207f8fb36037000000000000000000000000000000000000000000000000000000005b7fffffffff0000000000000000000000000000000000000000000000000000000060405191168152f35b60205f6115aa565b346102615760207ffffffffffffffffffffffffffffffffffffffffffffffffffffffffffffffffc360112610261576116136123a0565b73ffffffffffffffffffffffffffffffffffffffff7ff3177357ab46d8af007ab3fdb9af81da189e1068fefdc0073dca88a2cab40a00541633036116a357803b1561166157610bc990612f1f565b73ffffffffffffffffffffffffffffffffffffffff907fc2f31e5e000000000000000000000000000000000000000000000000000000005f521660045260245ffd5b7f068ca9d8000000000000000000000000000000000000000000000000000000005f523360045260245ffd5b346102615760207ffffffffffffffffffffffffffffffffffffffffffffffffffffffffffffffffc36011261026157602061171061170b6123a0565b612c36565b604051908152f35b346102615760207ffffffffffffffffffffffffffffffffffffffffffffffffffffffffffffffffc360112610261576020611754600435612e8b565b73ffffffffffffffffffffffffffffffffffffffff60405191168152f35b34610261575f7ffffffffffffffffffffffffffffffffffffffffffffffffffffffffffffffffc3601126102615773ffffffffffffffffffffffffffffffffffffffff7f00000000000000000000000000000000000000000000000000000000000000001630036118075760206040517f360894a13ba1a3210667c828492db98dca3e2076cc3735a920a3ca505d382bbc8152f35b7fe07c8dba000000000000000000000000000000000000000000000000000000005f5260045ffd5b346102615760207ffffffffffffffffffffffffffffffffffffffffffffffffffffffffffffffffc360112610261576004357f645e039705490088daad89bae25049a34f4a9072d398537b1ab2425f24cbed02548110156118a457611895602091612bb3565b90549060031b1c604051908152f35b7fa57d13dc000000000000000000000000000000000000000000000000000000005f525f60045260245260445ffd5b60407ffffffffffffffffffffffffffffffffffffffffffffffffffffffffffffffffc360112610261576119056123a0565b60243567ffffffffffffffff8111610261576119259036906004016124d3565b73ffffffffffffffffffffffffffffffffffffffff7f000000000000000000000000000000000000000000000000000000000000000016803014908115611cde575b50611807576044604073ffffffffffffffffffffffffffffffffffffffff7fb8e950798a2a06a6f5727a94041b193569f4f67d69a0de3cf866d93822e7fa0054168151928380927fd1f856ee0000000000000000000000000000000000000000000000000000000082525f60048301523360248301525afa90811561122d575f91611c93575b5015611c0f5773ffffffffffffffffffffffffffffffffffffffff8216916040517f52d1902d000000000000000000000000000000000000000000000000000000008152602081600481875afa5f9181611bdb575b50611a7357837f4c9c8ce3000000000000000000000000000000000000000000000000000000005f5260045260245ffd5b807f360894a13ba1a3210667c828492db98dca3e2076cc3735a920a3ca505d382bbc859203611bb05750813b15611b8557807fffffffffffffffffffffffff00000000000000000000000000000000000000007f360894a13ba1a3210667c828492db98dca3e2076cc3735a920a3ca505d382bbc5416177f360894a13ba1a3210667c828492db98dca3e2076cc3735a920a3ca505d382bbc557fbc7cd75a20ee27fd9adebab32041f755214dbc6bffa90cc0225b39da2e5c2d3b5f80a2815115611b54575f80836020610bc995519101845af4611b4e612fca565b91613050565b505034611b5d57005b7fb398979f000000000000000000000000000000000000000000000000000000005f5260045ffd5b7f4c9c8ce3000000000000000000000000000000000000000000000000000000005f5260045260245ffd5b7faa1d49a4000000000000000000000000000000000000000000000000000000005f5260045260245ffd5b9091506020813d602011611c07575b81611bf760209383612458565b8101031261026157519085611a42565b3d9150611bea565b60846040517f6317e35f00000000000000000000000000000000000000000000000000000000815260206004820152602360248201527f4f6e6c792061646d696e2063616e20706572666f726d2074686973206163746960448201527f6f6e2e00000000000000000000000000000000000000000000000000000000006064820152fd5b90506040813d604011611cd6575b81611cae60409383612458565b81010312610261576020611cc182612cc9565b91015163ffffffff81160361026157836119ed565b3d9150611ca1565b905073ffffffffffffffffffffffffffffffffffffffff7f360894a13ba1a3210667c828492db98dca3e2076cc3735a920a3ca505d382bbc5416141583611967565b3461026157610bc9611d31366123e6565b9060405192611d41602085612458565b5f8452612cd6565b34610261575f7ffffffffffffffffffffffffffffffffffffffffffffffffffffffffffffffffc36011261026157602060405173ffffffffffffffffffffffffffffffffffffffff7f0000000000000000000000000000000000000000000000000000000000000000168152f35b346102615760407ffffffffffffffffffffffffffffffffffffffffffffffffffffffffffffffffc36011261026157611dee6123a0565b73ffffffffffffffffffffffffffffffffffffffff60243591611e1081612c36565b831015611e5757165f527f645e039705490088daad89bae25049a34f4a9072d398537b1ab2425f24cbed0060205260405f20905f52602052602060405f2054604051908152f35b7fa57d13dc000000000000000000000000000000000000000000000000000000005f521660045260245260445ffd5b3461026157610bc9611e97366123e6565b9161256a565b34610261575f7ffffffffffffffffffffffffffffffffffffffffffffffffffffffffffffffffc3601126102615760207f645e039705490088daad89bae25049a34f4a9072d398537b1ab2425f24cbed0254604051908152f35b346102615760407ffffffffffffffffffffffffffffffffffffffffffffffffffffffffffffffffc36011261026157611f2e6123a0565b602435611f3a81612e8b565b33151580612097575b80612025575b611ff957819073ffffffffffffffffffffffffffffffffffffffff80851691167f8c5be1e5ebec7d5bd14f71427d1e84f3dd0314c0f7b2291e5b200ac8c7c3b9255f80a45f527f80bb2b638cc20bc4d0a60d66940f3ab4a00c1d7b313497ca82fb0b4ab007930460205273ffffffffffffffffffffffffffffffffffffffff60405f2091167fffffffffffffffffffffffff00000000000000000000000000000000000000008254161790555f80f35b7fa9fbf51f000000000000000000000000000000000000000000000000000000005f523360045260245ffd5b5061206d8173ffffffffffffffffffffffffffffffffffffffff165f527f80bb2b638cc20bc4d0a60d66940f3ab4a00c1d7b313497ca82fb0b4ab007930560205260405f2090565b73ffffffffffffffffffffffffffffffffffffffff33165f5260205260ff60405f20541615611f49565b503373ffffffffffffffffffffffffffffffffffffffff82161415611f43565b346102615760207ffffffffffffffffffffffffffffffffffffffffffffffffffffffffffffffffc3601126102615760206117546004356120f781612e8b565b505f527f80bb2b638cc20bc4d0a60d66940f3ab4a00c1d7b313497ca82fb0b4ab007930460205273ffffffffffffffffffffffffffffffffffffffff60405f20541690565b34610261575f7ffffffffffffffffffffffffffffffffffffffffffffffffffffffffffffffffc360112610261576040515f7f80bb2b638cc20bc4d0a60d66940f3ab4a00c1d7b313497ca82fb0b4ab00793005461219981612519565b80845290600181169081156114e957506001146121c05761025d8361145881850382612458565b7f80bb2b638cc20bc4d0a60d66940f3ab4a00c1d7b313497ca82fb0b4ab00793005f9081527f37c58c799b6609234b945e882912ee9ad34948a1dfaa20a97485e1a7752bbf81939250905b80821061222357509091508101602001611458611448565b91926001816020925483858801015201910190929161220b565b346102615760207ffffffffffffffffffffffffffffffffffffffffffffffffffffffffffffffffc36011261026157600435907fffffffff00000000000000000000000000000000000000000000000000000000821680920361026157817f780e9d6300000000000000000000000000000000000000000000000000000000602093149081156122cf575b5015158152f35b7f80ac58cd00000000000000000000000000000000000000000000000000000000811491508115612333575b8115612309575b50836122c8565b7f01ffc9a70000000000000000000000000000000000000000000000000000000091501483612302565b7f5b5e139f00000000000000000000000000000000000000000000000000000000811491506122fb565b907fffffffffffffffffffffffffffffffffffffffffffffffffffffffffffffffe0601f602080948051918291828752018686015e5f8582860101520116010190565b6004359073ffffffffffffffffffffffffffffffffffffffff8216820361026157565b6024359073ffffffffffffffffffffffffffffffffffffffff8216820361026157565b7ffffffffffffffffffffffffffffffffffffffffffffffffffffffffffffffffc60609101126102615760043573ffffffffffffffffffffffffffffffffffffffff81168103610261579060243573ffffffffffffffffffffffffffffffffffffffff81168103610261579060443590565b90601f7fffffffffffffffffffffffffffffffffffffffffffffffffffffffffffffffe0910116810190811067ffffffffffffffff82111761085557604052565b67ffffffffffffffff811161085557601f017fffffffffffffffffffffffffffffffffffffffffffffffffffffffffffffffe01660200190565b81601f82011215610261578035906124ea82612499565b926124f86040519485612458565b8284526020838301011161026157815f926020809301838601378301015290565b90600182811c92168015612560575b602083101461253357565b7f4e487b71000000000000000000000000000000000000000000000000000000005f52602260045260245ffd5b91607f1691612528565b91909173ffffffffffffffffffffffffffffffffffffffff831690811561119f576125d3835f527f80bb2b638cc20bc4d0a60d66940f3ab4a00c1d7b313497ca82fb0b4ab007930260205273ffffffffffffffffffffffffffffffffffffffff60405f20541690565b33151580612a2f575b5073ffffffffffffffffffffffffffffffffffffffff81169485158015612967575b6126458273ffffffffffffffffffffffffffffffffffffffff165f527f80bb2b638cc20bc4d0a60d66940f3ab4a00c1d7b313497ca82fb0b4ab007930360205260405f2090565b60018154019055855f527f80bb2b638cc20bc4d0a60d66940f3ab4a00c1d7b313497ca82fb0b4ab007930260205260405f20857fffffffffffffffffffffffff00000000000000000000000000000000000000008254161790558585887fddf252ad1be2c89b69c2b068fc378daa952ba7f163c4a11628f55a4df523b3ef5f80a41561286e577f645e039705490088daad89bae25049a34f4a9072d398537b1ab2425f24cbed0254855f527f645e039705490088daad89bae25049a34f4a9072d398537b1ab2425f24cbed036020528060405f2055680100000000000000008110156108555785610e7982600161275e94017f645e039705490088daad89bae25049a34f4a9072d398537b1ab2425f24cbed0255612bb3565b8386036127bd575b5073ffffffffffffffffffffffffffffffffffffffff9250501680830361278c57505050565b7f64283d7b000000000000000000000000000000000000000000000000000000005f5260045260245260445260645ffd5b6127c690612c36565b7fffffffffffffffffffffffffffffffffffffffffffffffffffffffffffffffff8101908111610fb05773ffffffffffffffffffffffffffffffffffffffff935f527f645e039705490088daad89bae25049a34f4a9072d398537b1ab2425f24cbed0060205260405f20815f526020528460405f2055845f527f645e039705490088daad89bae25049a34f4a9072d398537b1ab2425f24cbed0160205260405f20555f612766565b85841461275e5761287e82612c36565b855f527f645e039705490088daad89bae25049a34f4a9072d398537b1ab2425f24cbed0160205260405f205490875f527f645e039705490088daad89bae25049a34f4a9072d398537b1ab2425f24cbed0060205260405f209181810361291d575b50865f527f645e039705490088daad89bae25049a34f4a9072d398537b1ab2425f24cbed016020525f60408120555f526020525f604081205561275e565b815f528260205260405f2054815f52836020528060405f20555f527f645e039705490088daad89bae25049a34f4a9072d398537b1ab2425f24cbed0160205260405f20555f6128df565b6129bd865f527f80bb2b638cc20bc4d0a60d66940f3ab4a00c1d7b313497ca82fb0b4ab007930460205260405f207fffffffffffffffffffffffff00000000000000000000000000000000000000008154169055565b612a048373ffffffffffffffffffffffffffffffffffffffff165f527f80bb2b638cc20bc4d0a60d66940f3ab4a00c1d7b313497ca82fb0b4ab007930360205260405f2090565b7fffffffffffffffffffffffffffffffffffffffffffffffffffffffffffffffff81540190556125fe565b80612ab6575b15612a40575f6125dc565b839073ffffffffffffffffffffffffffffffffffffffff16612a87577f7e273289000000000000000000000000000000000000000000000000000000005f5260045260245ffd5b7f177e802f000000000000000000000000000000000000000000000000000000005f523360045260245260445ffd5b503373ffffffffffffffffffffffffffffffffffffffff8216148015612b42575b80612a3557503373ffffffffffffffffffffffffffffffffffffffff612b3b865f527f80bb2b638cc20bc4d0a60d66940f3ab4a00c1d7b313497ca82fb0b4ab007930460205273ffffffffffffffffffffffffffffffffffffffff60405f20541690565b1614612a35565b50612b8a8173ffffffffffffffffffffffffffffffffffffffff165f527f80bb2b638cc20bc4d0a60d66940f3ab4a00c1d7b313497ca82fb0b4ab007930560205260405f2090565b73ffffffffffffffffffffffffffffffffffffffff33165f5260205260ff60405f205416612ad7565b7f645e039705490088daad89bae25049a34f4a9072d398537b1ab2425f24cbed0254811015612c09577f645e039705490088daad89bae25049a34f4a9072d398537b1ab2425f24cbed025f5260205f2001905f90565b7f4e487b71000000000000000000000000000000000000000000000000000000005f52603260045260245ffd5b73ffffffffffffffffffffffffffffffffffffffff811615612c9d57612c999073ffffffffffffffffffffffffffffffffffffffff165f527f80bb2b638cc20bc4d0a60d66940f3ab4a00c1d7b313497ca82fb0b4ab007930360205260405f2090565b5490565b7f89c62b64000000000000000000000000000000000000000000000000000000005f525f60045260245ffd5b5190811515820361026157565b90612ce283828461256a565b803b612cef575b50505050565b602091612d5b73ffffffffffffffffffffffffffffffffffffffff8093169560405195869485947f150b7a02000000000000000000000000000000000000000000000000000000008652336004870152166024850152604484015260806064840152608483019061235d565b03815f865af15f9181612e2e575b50612db05750612d77612fca565b80519081612dab57827f64a0ae92000000000000000000000000000000000000000000000000000000005f5260045260245ffd5b602001fd5b7fffffffff000000000000000000000000000000000000000000000000000000007f150b7a0200000000000000000000000000000000000000000000000000000000911603612e0357505f808080612ce9565b7f64a0ae92000000000000000000000000000000000000000000000000000000005f5260045260245ffd5b9091506020813d602011612e83575b81612e4a60209383612458565b8101031261026157517fffffffff000000000000000000000000000000000000000000000000000000008116810361026157905f612d69565b3d9150612e3d565b612ed3815f527f80bb2b638cc20bc4d0a60d66940f3ab4a00c1d7b313497ca82fb0b4ab007930260205273ffffffffffffffffffffffffffffffffffffffff60405f20541690565b9073ffffffffffffffffffffffffffffffffffffffff821615612ef4575090565b7f7e273289000000000000000000000000000000000000000000000000000000005f5260045260245ffd5b602073ffffffffffffffffffffffffffffffffffffffff7f2f658b440c35314f52658ea8a740e05b284cdc84dc9ae01e891f21b8933e7cad9216807fffffffffffffffffffffffff00000000000000000000000000000000000000007ff3177357ab46d8af007ab3fdb9af81da189e1068fefdc0073dca88a2cab40a005416177ff3177357ab46d8af007ab3fdb9af81da189e1068fefdc0073dca88a2cab40a0055604051908152a1565b3d15612ff4573d90612fdb82612499565b91612fe96040519384612458565b82523d5f602084013e565b606090565b60ff7ff0c57e16840df040f15088dc2f81fe391c3923bec73e23a9662efc9c229c6a005460401c161561302857565b7fd7e6bcf8000000000000000000000000000000000000000000000000000000005f5260045ffd5b9061308d575080511561306557805190602001fd5b7fd6bda275000000000000000000000000000000000000000000000000000000005f5260045ffd5b815115806130e0575b61309e575090565b73ffffffffffffffffffffffffffffffffffffffff907f9996b315000000000000000000000000000000000000000000000000000000005f521660045260245ffd5b50803b1561309656fea2646970667358221220d9b18595df8e5d65e41557c4408aff276d038b087783fa05745d538afaef0b9e64736f6c634300081a0033","linkReferences":{}},"methodIdentifiers":{"ASSET_REFERENDUM()":"3bab059c","UPGRADE_INTERFACE_VERSION()":"ad3cb1cc","approve(address,uint256)":"095ea7b3","authority()":"bf7e214f","balanceOf(address)":"70a08231","getApproved(uint256)":"081812fc","initialize(address)":"c4d66de8","isApprovedForAll(address,address)":"e985e9c5","isConsumingScheduledOp()":"8fb36037","name()":"06fdde03","ownerOf(uint256)":"6352211e","proxiableUUID()":"52d1902d","registerAsset(address,uint256)":"b7785afb","safeTransferFrom(address,address,uint256)":"42842e0e","safeTransferFrom(address,address,uint256,bytes)":"b88d4fde","setApprovalForAll(address,bool)":"a22cb465","setAuthority(address)":"7a9e5e4b","supportsInterface(bytes4)":"01ffc9a7","symbol()":"95d89b41","tokenByIndex(uint256)":"4f6ccce7","tokenOfOwnerByIndex(address,uint256)":"2f745c59","tokenURI(uint256)":"c87b56dd","totalSupply()":"18160ddd","transferFrom(address,address,uint256)":"23b872dd","upgradeToAndCall(address,bytes)":"4f1ef286"},"storageLayout":{"storage":[],"types":{}},"id":1}