{"abi":[{"type":"constructor","inputs":[{"name":"assetReferendum","type":"address","internalType":"address"}],"stateMutability":"nonpayable"},{"type":"function","name":"ASSET_REFERENDUM","inputs":[],"outputs":[{"name":"","type":"address","internalType":"contract IAssetVerifiable"}],"stateMutability":"view"},{"type":"function","name":"UPGRADE_INTERFACE_VERSION","inputs":[],"outputs":[{"name":"","type":"string","internalType":"string"}],"stateMutability":"view"},{"type":"function","name":"approve","inputs":[{"name":"to","type":"address","internalType":"address"},{"name":"tokenId","type":"uint256","internalType":"uint256"}],"outputs":[],"stateMutability":"nonpayable"},{"type":"function","name":"authority","inputs":[],"outputs":[{"name":"","type":"address","internalType":"address"}],"stateMutability":"view"},{"type":"function","name":"balanceOf","inputs":[{"name":"owner","type":"address","internalType":"address"}],"outputs":[{"name":"","type":"uint256","internalType":"uint256"}],"stateMutability":"view"},{"type":"function","name":"getApproved","inputs":[{"name":"tokenId","type":"uint256","internalType":"uint256"}],"outputs":[{"name":"","type":"address","internalType":"address"}],"stateMutability":"view"},{"type":"function","name":"initialize","inputs":[{"name":"accessManager","type":"address","internalType":"address"}],"outputs":[],"stateMutability":"nonpayable"},{"type":"function","name":"isActive","inputs":[{"name":"tokenId","type":"uint256","internalType":"uint256"}],"outputs":[{"name":"","type":"bool","internalType":"bool"}],"stateMutability":"view"},{"type":"function","name":"isApprovedForAll","inputs":[{"name":"owner","type":"address","internalType":"address"},{"name":"operator","type":"address","internalType":"address"}],"outputs":[{"name":"","type":"bool","internalType":"bool"}],"stateMutability":"view"},{"type":"function","name":"isConsumingScheduledOp","inputs":[],"outputs":[{"name":"","type":"bytes4","internalType":"bytes4"}],"stateMutability":"view"},{"type":"function","name":"name","inputs":[],"outputs":[{"name":"","type":"string","internalType":"string"}],"stateMutability":"view"},{"type":"function","name":"ownerOf","inputs":[{"name":"tokenId","type":"uint256","internalType":"uint256"}],"outputs":[{"name":"","type":"address","internalType":"address"}],"stateMutability":"view"},{"type":"function","name":"proxiableUUID","inputs":[],"outputs":[{"name":"","type":"bytes32","internalType":"bytes32"}],"stateMutability":"view"},{"type":"function","name":"register","inputs":[{"name":"to","type":"address","internalType":"address"},{"name":"assetId","type":"uint256","internalType":"uint256"}],"outputs":[],"stateMutability":"nonpayable"},{"type":"function","name":"revoke","inputs":[{"name":"assetId","type":"uint256","internalType":"uint256"}],"outputs":[],"stateMutability":"nonpayable"},{"type":"function","name":"safeTransferFrom","inputs":[{"name":"from","type":"address","internalType":"address"},{"name":"to","type":"address","internalType":"address"},{"name":"tokenId","type":"uint256","internalType":"uint256"}],"outputs":[],"stateMutability":"nonpayable"},{"type":"function","name":"safeTransferFrom","inputs":[{"name":"from","type":"address","internalType":"address"},{"name":"to","type":"address","internalType":"address"},{"name":"tokenId","type":"uint256","internalType":"uint256"},{"name":"data","type":"bytes","internalType":"bytes"}],"outputs":[],"stateMutability":"nonpayable"},{"type":"function","name":"setApprovalForAll","inputs":[{"name":"operator","type":"address","internalType":"address"},{"name":"approved","type":"bool","internalType":"bool"}],"outputs":[],"stateMutability":"nonpayable"},{"type":"function","name":"setAuthority","inputs":[{"name":"newAuthority","type":"address","internalType":"address"}],"outputs":[],"stateMutability":"nonpayable"},{"type":"function","name":"supportsInterface","inputs":[{"name":"interfaceId","type":"bytes4","internalType":"bytes4"}],"outputs":[{"name":"","type":"bool","internalType":"bool"}],"stateMutability":"view"},{"type":"function","name":"switchState","inputs":[{"name":"assetId","type":"uint256","internalType":"uint256"}],"outputs":[{"name":"newState","type":"bool","internalType":"bool"}],"stateMutability":"nonpayable"},{"type":"function","name":"symbol","inputs":[],"outputs":[{"name":"","type":"string","internalType":"string"}],"stateMutability":"view"},{"type":"function","name":"tokenByIndex","inputs":[{"name":"index","type":"uint256","internalType":"uint256"}],"outputs":[{"name":"","type":"uint256","internalType":"uint256"}],"stateMutability":"view"},{"type":"function","name":"tokenOfOwnerByIndex","inputs":[{"name":"owner","type":"address","internalType":"address"},{"name":"index","type":"uint256","internalType":"uint256"}],"outputs":[{"name":"","type":"uint256","internalType":"uint256"}],"stateMutability":"view"},{"type":"function","name":"tokenURI","inputs":[{"name":"tokenId","type":"uint256","internalType":"uint256"}],"outputs":[{"name":"","type":"string","internalType":"string"}],"stateMutability":"view"},{"type":"function","name":"totalSupply","inputs":[],"outputs":[{"name":"","type":"uint256","internalType":"uint256"}],"stateMutability":"view"},{"type":"function","name":"transfer","inputs":[{"name":"to","type":"address","internalType":"address"},{"name":"assetId","type":"uint256","internalType":"uint256"}],"outputs":[],"stateMutability":"nonpayable"},{"type":"function","name":"transferFrom","inputs":[{"name":"from","type":"address","internalType":"address"},{"name":"to","type":"address","internalType":"address"},{"name":"tokenId","type":"uint256","internalType":"uint256"}],"outputs":[],"stateMutability":"nonpayable"},{"type":"function","name":"upgradeToAndCall","inputs":[{"name":"newImplementation","type":"address","internalType":"address"},{"name":"data","type":"bytes","internalType":"bytes"}],"outputs":[],"stateMutability":"payable"},{"type":"event","name":"Approval","inputs":[{"name":"owner","type":"address","indexed":true,"internalType":"address"},{"name":"approved","type":"address","indexed":true,"internalType":"address"},{"name":"tokenId","type":"uint256","indexed":true,"internalType":"uint256"}],"anonymous":false},{"type":"event","name":"ApprovalForAll","inputs":[{"name":"owner","type":"address","indexed":true,"internalType":"address"},{"name":"operator","type":"address","indexed":true,"internalType":"address"},{"name":"approved","type":"bool","indexed":false,"internalType":"bool"}],"anonymous":false},{"type":"event","name":"AssetActivated","inputs":[{"name":"tokenId","type":"uint256","indexed":true,"internalType":"uint256"}],"anonymous":false},{"type":"event","name":"AssetDeactivated","inputs":[{"name":"tokenId","type":"uint256","indexed":true,"internalType":"uint256"}],"anonymous":false},{"type":"event","name":"AuthorityUpdated","inputs":[{"name":"authority","type":"address","indexed":false,"internalType":"address"}],"anonymous":false},{"type":"event","name":"Initialized","inputs":[{"name":"version","type":"uint64","indexed":false,"internalType":"uint64"}],"anonymous":false},{"type":"event","name":"RegisteredAsset","inputs":[{"name":"owner","type":"address","indexed":true,"internalType":"address"},{"name":"assetId","type":"uint256","indexed":false,"internalType":"uint256"}],"anonymous":false},{"type":"event","name":"RevokedAsset","inputs":[{"name":"owner","type":"address","indexed":true,"internalType":"address"},{"name":"assetId","type":"uint256","indexed":false,"internalType":"uint256"}],"anonymous":false},{"type":"event","name":"Transfer","inputs":[{"name":"from","type":"address","indexed":true,"internalType":"address"},{"name":"to","type":"address","indexed":true,"internalType":"address"},{"name":"tokenId","type":"uint256","indexed":true,"internalType":"uint256"}],"anonymous":false},{"type":"event","name":"TransferredAsset","inputs":[{"name":"from","type":"address","indexed":true,"internalType":"address"},{"name":"to","type":"address","indexed":true,"internalType":"address"},{"name":"assetId","type":"uint256","indexed":false,"internalType":"uint256"}],"anonymous":false},{"type":"event","name":"Upgraded","inputs":[{"name":"implementation","type":"address","indexed":true,"internalType":"address"}],"anonymous":false},{"type":"error","name":"AccessManagedInvalidAuthority","inputs":[{"name":"authority","type":"address","internalType":"address"}]},{"type":"error","name":"AccessManagedRequiredDelay","inputs":[{"name":"caller","type":"address","internalType":"address"},{"name":"delay","type":"uint32","internalType":"uint32"}]},{"type":"error","name":"AccessManagedUnauthorized","inputs":[{"name":"caller","type":"address","internalType":"address"}]},{"type":"error","name":"AddressEmptyCode","inputs":[{"name":"target","type":"address","internalType":"address"}]},{"type":"error","name":"ERC1967InvalidImplementation","inputs":[{"name":"implementation","type":"address","internalType":"address"}]},{"type":"error","name":"ERC1967NonPayable","inputs":[]},{"type":"error","name":"ERC721EnumerableForbiddenBatchMint","inputs":[]},{"type":"error","name":"ERC721IncorrectOwner","inputs":[{"name":"sender","type":"address","internalType":"address"},{"name":"tokenId","type":"uint256","internalType":"uint256"},{"name":"owner","type":"address","internalType":"address"}]},{"type":"error","name":"ERC721InsufficientApproval","inputs":[{"name":"operator","type":"address","internalType":"address"},{"name":"tokenId","type":"uint256","internalType":"uint256"}]},{"type":"error","name":"ERC721InvalidApprover","inputs":[{"name":"approver","type":"address","internalType":"address"}]},{"type":"error","name":"ERC721InvalidOperator","inputs":[{"name":"operator","type":"address","internalType":"address"}]},{"type":"error","name":"ERC721InvalidOwner","inputs":[{"name":"owner","type":"address","internalType":"address"}]},{"type":"error","name":"ERC721InvalidReceiver","inputs":[{"name":"receiver","type":"address","internalType":"address"}]},{"type":"error","name":"ERC721InvalidSender","inputs":[{"name":"sender","type":"address","internalType":"address"}]},{"type":"error","name":"ERC721NonexistentToken","inputs":[{"name":"tokenId","type":"uint256","internalType":"uint256"}]},{"type":"error","name":"ERC721OutOfBoundsIndex","inputs":[{"name":"owner","type":"address","internalType":"address"},{"name":"index","type":"uint256","internalType":"uint256"}]},{"type":"error","name":"FailedCall","inputs":[]},{"type":"error","name":"InvalidInitialization","inputs":[]},{"type":"error","name":"InvalidNotApprovedAsset","inputs":[]},{"type":"error","name":"InvalidUnauthorizedOperation","inputs":[{"name":"","type":"string","internalType":"string"}]},{"type":"error","name":"NotInitializing","inputs":[]},{"type":"error","name":"UUPSUnauthorizedCallContext","inputs":[]},{"type":"error","name":"UUPSUnsupportedProxiableUUID","inputs":[{"name":"slot","type":"bytes32","internalType":"bytes32"}]}],"bytecode":{"object":"0x60c03461014657601f613d9938819003918201601f19168301916001600160401b0383118484101761014a5780849260209460405283398101031261014657516001600160a01b0381169081900361014657306080527ff0c57e16840df040f15088dc2f81fe391c3923bec73e23a9662efc9c229c6a005460ff8160401c16610137576002600160401b03196001600160401b038216016100ce575b5060a052604051613c3a908161015f82396080518181816113290152611476015260a05181818161116401526118d70152f35b6001600160401b0319166001600160401b039081177ff0c57e16840df040f15088dc2f81fe391c3923bec73e23a9662efc9c229c6a00556040519081527fc7f505b2f371ae2175ee4913f4499e1f2633a7b5936321eed1cdaeb6115181d290602090a15f61009b565b63f92ee8a960e01b5f5260045ffd5b5f80fd5b634e487b7160e01b5f52604160045260245ffdfe6080806040526004361015610012575f80fd5b5f905f358060e01c91826301ffc9a7146126b35750816306fdde031461258d578163081812fc14612526578163095ea7b31461238457816318160ddd146123485781631da0883a1461222657816320c5429b146119d95750806323b872dd146119c15780632f745c59146118fb5780633bab059c146118aa57806342842e0e146118805780634f1ef286146114295780634f6ccce7146113a157806352d1902d146113015780636352211e146112c45780636d705ebb146110df57806370a08231146110b35780637a9e5e4b14610fde57806382afd23b14610f845780638fb3603714610eef57806395d89b4114610db0578063a22cb46514610caa578063a9059cbb14610b83578063ad3cb1cc14610b22578063b88d4fde14610acb578063bf7e214f14610a78578063c4d66de814610255578063c87b56dd146101fa5763e985e9c51461015f575f80fd5b346101f75760406003193601126101f7576101786127f8565b73ffffffffffffffffffffffffffffffffffffffff6101dc61019861281b565b9273ffffffffffffffffffffffffffffffffffffffff165f527f80bb2b638cc20bc4d0a60d66940f3ab4a00c1d7b313497ca82fb0b4ab007930560205260405f2090565b91165f52602052602060ff60405f2054166040519015158152f35b80fd5b50346101f75760206003193601126101f75761021760043561330d565b5080604051610227602082612892565b525061025160405161023a602082612892565b5f81526040519182916020835260208301906127b5565b0390f35b50346101f75760206003193601126101f75761026f6127f8565b7ff0c57e16840df040f15088dc2f81fe391c3923bec73e23a9662efc9c229c6a005460ff8160401c16159067ffffffffffffffff811680159081610a70575b6001149081610a66575b159081610a5d575b50610a35578160017fffffffffffffffffffffffffffffffffffffffffffffffff00000000000000008316177ff0c57e16840df040f15088dc2f81fe391c3923bec73e23a9662efc9c229c6a00556109e0575b5061031c613b14565b610324613b14565b61032c613b14565b604091825161033b8482612892565b600981527f53796e617073654950000000000000000000000000000000000000000000000060208201528351906103728583612892565b600382527f53594e000000000000000000000000000000000000000000000000000000000060208301526103a4613b14565b6103ac613b14565b80519067ffffffffffffffff82116109b35781906103ea7f80bb2b638cc20bc4d0a60d66940f3ab4a00c1d7b313497ca82fb0b4ab007930054612980565b601f81116108e9575b50602090601f831160011461080d578892610802575b50505f198260011b9260031b1c1916177f80bb2b638cc20bc4d0a60d66940f3ab4a00c1d7b313497ca82fb0b4ab0079300555b80519067ffffffffffffffff82116107d5576104787f80bb2b638cc20bc4d0a60d66940f3ab4a00c1d7b313497ca82fb0b4ab007930154612980565b601f8111610753575b50602090601f831160011461067d5773ffffffffffffffffffffffffffffffffffffffff939291879183610672575b50505f198260011b9260031b1c1916177f80bb2b638cc20bc4d0a60d66940f3ab4a00c1d7b313497ca82fb0b4ab0079301555b6104eb613b14565b6104f3613b14565b6104fb613b14565b61050481613492565b61050c613b14565b168015610615577fffffffffffffffffffffffff00000000000000000000000000000000000000007fb8e950798a2a06a6f5727a94041b193569f4f67d69a0de3cf866d93822e7fa005416177fb8e950798a2a06a6f5727a94041b193569f4f67d69a0de3cf866d93822e7fa0055610582575080f35b60207fc7f505b2f371ae2175ee4913f4499e1f2633a7b5936321eed1cdaeb6115181d2917fffffffffffffffffffffffffffffffffffffffffffffff00ffffffffffffffff7ff0c57e16840df040f15088dc2f81fe391c3923bec73e23a9662efc9c229c6a0054167ff0c57e16840df040f15088dc2f81fe391c3923bec73e23a9662efc9c229c6a00555160018152a180f35b606483517f6317e35f00000000000000000000000000000000000000000000000000000000815260206004820152601a60248201527f496e76616c696420617574686f7269747920616464726573732e0000000000006044820152fd5b015190505f806104b0565b7f80bb2b638cc20bc4d0a60d66940f3ab4a00c1d7b313497ca82fb0b4ab0079301875281872091907fffffffffffffffffffffffffffffffffffffffffffffffffffffffffffffffe08416885b81811061073b575091600193918573ffffffffffffffffffffffffffffffffffffffff97969410610723575b505050811b017f80bb2b638cc20bc4d0a60d66940f3ab4a00c1d7b313497ca82fb0b4ab0079301556104e3565b01515f1960f88460031b161c191690555f80806106f6565b929360206001819287860151815501950193016106ca565b7f80bb2b638cc20bc4d0a60d66940f3ab4a00c1d7b313497ca82fb0b4ab007930187527ff4bad0a69248f59680a4f2b3000328cec71a413447c96781cfe5996daa8c456e601f840160051c810191602085106107cb575b601f0160051c01905b8181106107c05750610481565b8781556001016107b3565b90915081906107aa565b6024867f4e487b710000000000000000000000000000000000000000000000000000000081526041600452fd5b015190505f80610409565b7f80bb2b638cc20bc4d0a60d66940f3ab4a00c1d7b313497ca82fb0b4ab007930089527f37c58c799b6609234b945e882912ee9ad34948a1dfaa20a97485e1a7752bbf81927fffffffffffffffffffffffffffffffffffffffffffffffffffffffffffffffe016895b8181106108d157509084600195949392106108b9575b505050811b017f80bb2b638cc20bc4d0a60d66940f3ab4a00c1d7b313497ca82fb0b4ab00793005561043c565b01515f1960f88460031b161c191690555f808061088c565b92936020600181928786015181550195019301610876565b9091507f80bb2b638cc20bc4d0a60d66940f3ab4a00c1d7b313497ca82fb0b4ab00793008852601f830160051c7f37c58c799b6609234b945e882912ee9ad34948a1dfaa20a97485e1a7752bbf8101906020841061098b575b90601f8493920160051c7f37c58c799b6609234b945e882912ee9ad34948a1dfaa20a97485e1a7752bbf8101905b81811061097d57506103f3565b898155849350600101610970565b7f37c58c799b6609234b945e882912ee9ad34948a1dfaa20a97485e1a7752bbf819150610942565b6024877f4e487b710000000000000000000000000000000000000000000000000000000081526041600452fd5b7fffffffffffffffffffffffffffffffffffffffffffffff0000000000000000001668010000000000000001177ff0c57e16840df040f15088dc2f81fe391c3923bec73e23a9662efc9c229c6a00555f610313565b6004847ff92ee8a9000000000000000000000000000000000000000000000000000000008152fd5b9050155f6102c0565b303b1591506102b8565b8391506102ae565b50346101f757806003193601126101f757602073ffffffffffffffffffffffffffffffffffffffff7ff3177357ab46d8af007ab3fdb9af81da189e1068fefdc0073dca88a2cab40a005416604051908152f35b50346101f75760806003193601126101f757610ae56127f8565b610aed61281b565b6064359167ffffffffffffffff8311610b1e57610b11610b1b93369060040161293a565b9160443591613158565b80f35b8380fd5b50346101f757806003193601126101f75750610251604051610b45604082612892565b600581527f352e302e3000000000000000000000000000000000000000000000000000000060208201526040519182916020835260208301906127b5565b50346101f75760406003193601126101f757610b9d6127f8565b9060243573ffffffffffffffffffffffffffffffffffffffff8316928315610c7e57610bde8273ffffffffffffffffffffffffffffffffffffffff92613596565b169283610c1157602483837f7e273289000000000000000000000000000000000000000000000000000000008252600452fd5b9192338103610c4a57506040519081527f7988b1ab185bffe4f4fab865e2e670e113a38cd7d476ae05df7f72ef4bb1fe9160203392a380f35b83906064927f64283d7b00000000000000000000000000000000000000000000000000000000835233600452602452604452fd5b6024837f64a0ae9200000000000000000000000000000000000000000000000000000000815280600452fd5b50346101f75760406003193601126101f757610cc46127f8565b60243590811515809203610dac5773ffffffffffffffffffffffffffffffffffffffff16908115610d8057335f9081527f80bb2b638cc20bc4d0a60d66940f3ab4a00c1d7b313497ca82fb0b4ab007930560205260409020825f5260205260405f207fffffffffffffffffffffffffffffffffffffffffffffffffffffffffffffff0081541660ff83161790556040519081527f17307eab39ab6107e8899845ad3d59bd9653f200f220920489ca2b5937696c3160203392a380f35b602483837f5b08ba18000000000000000000000000000000000000000000000000000000008252600452fd5b8280fd5b50346101f757806003193601126101f75760405190807f80bb2b638cc20bc4d0a60d66940f3ab4a00c1d7b313497ca82fb0b4ab00793015490610df282612980565b8085529160018116908115610eaa5750600114610e2e575b61025184610e1a81860382612892565b6040519182916020835260208301906127b5565b7f80bb2b638cc20bc4d0a60d66940f3ab4a00c1d7b313497ca82fb0b4ab007930181527ff4bad0a69248f59680a4f2b3000328cec71a413447c96781cfe5996daa8c456e939250905b808210610e9057509091508101602001610e1a82610e0a565b919260018160209254838588010152019101909291610e77565b7fffffffffffffffffffffffffffffffffffffffffffffffffffffffffffffff001660208087019190915292151560051b85019092019250610e1a9150839050610e0a565b50346101f757806003193601126101f7577ff3177357ab46d8af007ab3fdb9af81da189e1068fefdc0073dca88a2cab40a005460a01c60ff1615610f7c575060207f8fb36037000000000000000000000000000000000000000000000000000000005b7fffffffff0000000000000000000000000000000000000000000000000000000060405191168152f35b602090610f52565b50346101f75760206003193601126101f7576020610fd46004355f527f324a9a77402a1e94df4d893f8dc6150d3318bb54d8228d276535d523c0ac8100602052600160ff60405f20541615151490565b6040519015158152f35b50346101f75760206003193601126101f757610ff86127f8565b73ffffffffffffffffffffffffffffffffffffffff7ff3177357ab46d8af007ab3fdb9af81da189e1068fefdc0073dca88a2cab40a005416330361108757803b1561104657610b1b90613492565b7fc2f31e5e00000000000000000000000000000000000000000000000000000000825273ffffffffffffffffffffffffffffffffffffffff16600452602490fd5b6024827f068ca9d800000000000000000000000000000000000000000000000000000000815233600452fd5b50346101f75760206003193601126101f75760206110d76110d26127f8565b6130c5565b604051908152f35b50346101f75760406003193601126101f7576110f96127f8565b602435604051917f2a16cca400000000000000000000000000000000000000000000000000000000835273ffffffffffffffffffffffffffffffffffffffff81169283600482015282602482015260208160448173ffffffffffffffffffffffffffffffffffffffff7f0000000000000000000000000000000000000000000000000000000000000000165afa9081156112b957859161127b575b5015611253578215611227576111bf8273ffffffffffffffffffffffffffffffffffffffff92613596565b166111fb576020816111f17f8b116668f2107d9c40b048b2f4cad5fc09b8c3da89ef5ef95f1ccf9d42d213ce936133a1565b604051908152a280f35b6024837f73c6ac6e00000000000000000000000000000000000000000000000000000000815280600452fd5b6024847f64a0ae9200000000000000000000000000000000000000000000000000000000815280600452fd5b6004847fa779dd42000000000000000000000000000000000000000000000000000000008152fd5b90506020813d6020116112b1575b8161129660209383612892565b810103126112ad576112a7906130b8565b5f611194565b8480fd5b3d9150611289565b6040513d87823e3d90fd5b50346101f75760206003193601126101f75760206112e360043561330d565b73ffffffffffffffffffffffffffffffffffffffff60405191168152f35b50346101f757806003193601126101f75773ffffffffffffffffffffffffffffffffffffffff7f00000000000000000000000000000000000000000000000000000000000000001630036113795760206040517f360894a13ba1a3210667c828492db98dca3e2076cc3735a920a3ca505d382bbc8152f35b807fe07c8dba0000000000000000000000000000000000000000000000000000000060049252fd5b50346101f75760206003193601126101f757600435907f645e039705490088daad89bae25049a34f4a9072d398537b1ab2425f24cbed02548210156113fa5760206113eb83613035565b90549060031b1c604051908152f35b6044917fa57d13dc00000000000000000000000000000000000000000000000000000000825281600452602452fd5b5060406003193601126101f75761143e6127f8565b9060243567ffffffffffffffff811161187c5761145f90369060040161293a565b73ffffffffffffffffffffffffffffffffffffffff7f00000000000000000000000000000000000000000000000000000000000000001680301490811561183a575b50611812576044604073ffffffffffffffffffffffffffffffffffffffff7fb8e950798a2a06a6f5727a94041b193569f4f67d69a0de3cf866d93822e7fa0054168151928380927fd1f856ee0000000000000000000000000000000000000000000000000000000082528760048301523360248301525afa9081156118075783916117d7575b50156117535773ffffffffffffffffffffffffffffffffffffffff831690604051937f52d1902d000000000000000000000000000000000000000000000000000000008552602085600481865afa8095859661171f575b506115af57602484847f4c9c8ce3000000000000000000000000000000000000000000000000000000008252600452fd5b9091847f360894a13ba1a3210667c828492db98dca3e2076cc3735a920a3ca505d382bbc81036116f45750813b156116c957807fffffffffffffffffffffffff00000000000000000000000000000000000000007f360894a13ba1a3210667c828492db98dca3e2076cc3735a920a3ca505d382bbc5416177f360894a13ba1a3210667c828492db98dca3e2076cc3735a920a3ca505d382bbc557fbc7cd75a20ee27fd9adebab32041f755214dbc6bffa90cc0225b39da2e5c2d3b8480a28151839015611696578083602061169295519101845af461168c61353d565b91613b6b565b5080f35b505050346116a15780f35b807fb398979f0000000000000000000000000000000000000000000000000000000060049252fd5b7f4c9c8ce3000000000000000000000000000000000000000000000000000000008452600452602483fd5b7faa1d49a4000000000000000000000000000000000000000000000000000000008552600452602484fd5b9095506020813d60201161174b575b8161173b60209383612892565b810103126112ad5751945f61157e565b3d915061172e565b60846040517f6317e35f00000000000000000000000000000000000000000000000000000000815260206004820152602360248201527f4f6e6c792061646d696e2063616e20706572666f726d2074686973206163746960448201527f6f6e2e00000000000000000000000000000000000000000000000000000000006064820152fd5b6117f9915060403d604011611800575b6117f18183612892565b81019061356c565b505f611527565b503d6117e7565b6040513d85823e3d90fd5b6004827fe07c8dba000000000000000000000000000000000000000000000000000000008152fd5b905073ffffffffffffffffffffffffffffffffffffffff7f360894a13ba1a3210667c828492db98dca3e2076cc3735a920a3ca505d382bbc541614155f6114a1565b5080fd5b50346101f757610b1b6118923661283e565b90604051926118a2602085612892565b858452613158565b50346101f757806003193601126101f757602060405173ffffffffffffffffffffffffffffffffffffffff7f0000000000000000000000000000000000000000000000000000000000000000168152f35b50346101f75760406003193601126101f7576119156127f8565b90602435611922836130c5565b81101561197d579060409173ffffffffffffffffffffffffffffffffffffffff6020941682527f645e039705490088daad89bae25049a34f4a9072d398537b1ab2425f24cbed00845282822090825283522054604051908152f35b73ffffffffffffffffffffffffffffffffffffffff6044937fa57d13dc00000000000000000000000000000000000000000000000000000000845216600452602452fd5b50346101f757610b1b6119d33661283e565b916129d1565b90503461219857602060031936011261219857600435907ff3177357ab46d8af007ab3fdb9af81da189e1068fefdc0073dca88a2cab40a005473ffffffffffffffffffffffffffffffffffffffff81169136600411612198575f808080936040517fffffffff0000000000000000000000000000000000000000000000000000000060208201927fb700961300000000000000000000000000000000000000000000000000000000845233602484015230604484015216606482015260648152611aa4608482612892565b5190875afa611ab161353d565b906121c8575b5015612014575b505050611aca8161330d565b611b12825f527f80bb2b638cc20bc4d0a60d66940f3ab4a00c1d7b313497ca82fb0b4ab007930260205273ffffffffffffffffffffffffffffffffffffffff60405f20541690565b73ffffffffffffffffffffffffffffffffffffffff811690811591821580611f6b575b8587527f80bb2b638cc20bc4d0a60d66940f3ab4a00c1d7b313497ca82fb0b4ab0079302602052604087207fffffffffffffffffffffffff000000000000000000000000000000000000000081541690558587837fddf252ad1be2c89b69c2b068fc378daa952ba7f163c4a11628f55a4df523b3ef8280a48315611e6e5750507f645e039705490088daad89bae25049a34f4a9072d398537b1ab2425f24cbed02548486527f645e039705490088daad89bae25049a34f4a9072d398537b1ab2425f24cbed03602052806040872055680100000000000000008110156107d55784611c48826001611c5f94017f645e039705490088daad89bae25049a34f4a9072d398537b1ab2425f24cbed0255613035565b9091905f1983549160031b92831b921b1916179055565b7f645e039705490088daad89bae25049a34f4a9072d398537b1ab2425f24cbed02545f198101908111611e41578486527f645e039705490088daad89bae25049a34f4a9072d398537b1ab2425f24cbed03602052611cc1604087205491613035565b90549060031b1c611cd581611c4884613035565b86527f645e039705490088daad89bae25049a34f4a9072d398537b1ab2425f24cbed0360205260408620558385527f645e039705490088daad89bae25049a34f4a9072d398537b1ab2425f24cbed036020528460408120557f645e039705490088daad89bae25049a34f4a9072d398537b1ab2425f24cbed02548015611e14575f1901611d73611d6482613035565b5f1982549160031b1b19169055565b7f645e039705490088daad89bae25049a34f4a9072d398537b1ab2425f24cbed025550611de857602073ffffffffffffffffffffffffffffffffffffffff7f60587f757bac58d5a4fb15364d58e0f634f9162a1ecc65749103a0f79641bc4492611ddc8561341b565b6040519485521692a280f35b602483837f7e273289000000000000000000000000000000000000000000000000000000008252600452fd5b6024867f4e487b710000000000000000000000000000000000000000000000000000000081526031600452fd5b6024867f4e487b710000000000000000000000000000000000000000000000000000000081526011600452fd5b611e79575b50611c5f565b611e82826130c5565b8587527f645e039705490088daad89bae25049a34f4a9072d398537b1ab2425f24cbed0160205260408720549187527f645e039705490088daad89bae25049a34f4a9072d398537b1ab2425f24cbed006020526040872091818103611f21575b508587527f645e039705490088daad89bae25049a34f4a9072d398537b1ab2425f24cbed0160205286604081205586526020528460408120555f611e73565b818852826020526040882054818952836020528060408a205588527f645e039705490088daad89bae25049a34f4a9072d398537b1ab2425f24cbed0160205260408820555f611ee2565b611fc1865f527f80bb2b638cc20bc4d0a60d66940f3ab4a00c1d7b313497ca82fb0b4ab007930460205260405f207fffffffffffffffffffffffff00000000000000000000000000000000000000008154169055565b6120088373ffffffffffffffffffffffffffffffffffffffff165f527f80bb2b638cc20bc4d0a60d66940f3ab4a00c1d7b313497ca82fb0b4ab007930360205260405f2090565b5f198154019055611b35565b63ffffffff161561219c577fffffffffffffffffffffff00ffffffffffffffffffffffffffffffffffffffff1674010000000000000000000000000000000000000000177ff3177357ab46d8af007ab3fdb9af81da189e1068fefdc0073dca88a2cab40a0055803b15612198575f60405180927f94c7d7ee0000000000000000000000000000000000000000000000000000000082523360048301526040602483015236604483015236836064840137826064368401015281836064827fffffffffffffffffffffffffffffffffffffffffffffffffffffffffffffffe0601f36011681010301925af1801561218d57612178575b507fffffffffffffffffffffff00ffffffffffffffffffffffffffffffffffffffff7ff3177357ab46d8af007ab3fdb9af81da189e1068fefdc0073dca88a2cab40a0054167ff3177357ab46d8af007ab3fdb9af81da189e1068fefdc0073dca88a2cab40a00555f8080611abe565b6121859192505f90612892565b5f905f612109565b6040513d5f823e3d90fd5b5f80fd5b7f068ca9d8000000000000000000000000000000000000000000000000000000005f523360045260245ffd5b8051929091604084106121f05750506020806121e893830101910161356c565b905b5f611ab7565b9190926020811015612204575b50506121ea565b819250906020918101031261219857602061221f91016130b8565b5f806121fd565b34612198576020600319360112612198576004356122438161330d565b73ffffffffffffffffffffffffffffffffffffffff339116036122c4578061229d6020925f527f324a9a77402a1e94df4d893f8dc6150d3318bb54d8228d276535d523c0ac8100602052600160ff60405f20541615151490565b9081156122b6576122ad9061341b565b60405190158152f35b6122bf906133a1565b6122ad565b60846040517f6317e35f00000000000000000000000000000000000000000000000000000000815260206004820152602a60248201527f4f6e6c7920746865206173736574206f776e65722063616e206d6f646966792060448201527f6974732073746174652e000000000000000000000000000000000000000000006064820152fd5b34612198575f6003193601126121985760207f645e039705490088daad89bae25049a34f4a9072d398537b1ab2425f24cbed0254604051908152f35b346121985760406003193601126121985761239d6127f8565b6024356123a98161330d565b33151580612506575b80612494575b61246857819073ffffffffffffffffffffffffffffffffffffffff80851691167f8c5be1e5ebec7d5bd14f71427d1e84f3dd0314c0f7b2291e5b200ac8c7c3b9255f80a45f527f80bb2b638cc20bc4d0a60d66940f3ab4a00c1d7b313497ca82fb0b4ab007930460205273ffffffffffffffffffffffffffffffffffffffff60405f2091167fffffffffffffffffffffffff00000000000000000000000000000000000000008254161790555f80f35b7fa9fbf51f000000000000000000000000000000000000000000000000000000005f523360045260245ffd5b506124dc8173ffffffffffffffffffffffffffffffffffffffff165f527f80bb2b638cc20bc4d0a60d66940f3ab4a00c1d7b313497ca82fb0b4ab007930560205260405f2090565b73ffffffffffffffffffffffffffffffffffffffff33165f5260205260ff60405f205416156123b8565b503373ffffffffffffffffffffffffffffffffffffffff821614156123b2565b346121985760206003193601126121985760206112e36004356125488161330d565b505f527f80bb2b638cc20bc4d0a60d66940f3ab4a00c1d7b313497ca82fb0b4ab007930460205273ffffffffffffffffffffffffffffffffffffffff60405f20541690565b34612198575f600319360112612198576040515f7f80bb2b638cc20bc4d0a60d66940f3ab4a00c1d7b313497ca82fb0b4ab0079300546125cc81612980565b808452906001811690811561267157506001146125f4575b61025183610e1a81850382612892565b7f80bb2b638cc20bc4d0a60d66940f3ab4a00c1d7b313497ca82fb0b4ab00793005f9081527f37c58c799b6609234b945e882912ee9ad34948a1dfaa20a97485e1a7752bbf81939250905b80821061265757509091508101602001610e1a6125e4565b91926001816020925483858801015201910190929161263f565b7fffffffffffffffffffffffffffffffffffffffffffffffffffffffffffffff001660208086019190915291151560051b84019091019150610e1a90506125e4565b3461219857602060031936011261219857600435907fffffffff00000000000000000000000000000000000000000000000000000000821680920361219857817f780e9d630000000000000000000000000000000000000000000000000000000060209314908115612727575b5015158152f35b7f80ac58cd0000000000000000000000000000000000000000000000000000000081149150811561278b575b8115612761575b5083612720565b7f01ffc9a7000000000000000000000000000000000000000000000000000000009150148361275a565b7f5b5e139f0000000000000000000000000000000000000000000000000000000081149150612753565b907fffffffffffffffffffffffffffffffffffffffffffffffffffffffffffffffe0601f602080948051918291828752018686015e5f8582860101520116010190565b6004359073ffffffffffffffffffffffffffffffffffffffff8216820361219857565b6024359073ffffffffffffffffffffffffffffffffffffffff8216820361219857565b60031960609101126121985760043573ffffffffffffffffffffffffffffffffffffffff81168103612198579060243573ffffffffffffffffffffffffffffffffffffffff81168103612198579060443590565b90601f7fffffffffffffffffffffffffffffffffffffffffffffffffffffffffffffffe0910116810190811067ffffffffffffffff8211176128d357604052565b7f4e487b71000000000000000000000000000000000000000000000000000000005f52604160045260245ffd5b67ffffffffffffffff81116128d357601f017fffffffffffffffffffffffffffffffffffffffffffffffffffffffffffffffe01660200190565b81601f820112156121985780359061295182612900565b9261295f6040519485612892565b8284526020838301011161219857815f926020809301838601378301015290565b90600182811c921680156129c7575b602083101461299a57565b7f4e487b71000000000000000000000000000000000000000000000000000000005f52602260045260245ffd5b91607f169161298f565b91909173ffffffffffffffffffffffffffffffffffffffff831690811561300957612a3a835f527f80bb2b638cc20bc4d0a60d66940f3ab4a00c1d7b313497ca82fb0b4ab007930260205273ffffffffffffffffffffffffffffffffffffffff60405f20541690565b33151580612e85575b5073ffffffffffffffffffffffffffffffffffffffff81169485158015612ddc575b612aac8273ffffffffffffffffffffffffffffffffffffffff165f527f80bb2b638cc20bc4d0a60d66940f3ab4a00c1d7b313497ca82fb0b4ab007930360205260405f2090565b60018154019055855f527f80bb2b638cc20bc4d0a60d66940f3ab4a00c1d7b313497ca82fb0b4ab007930260205260405f20857fffffffffffffffffffffffff00000000000000000000000000000000000000008254161790558585887fddf252ad1be2c89b69c2b068fc378daa952ba7f163c4a11628f55a4df523b3ef5f80a415612ce3577f645e039705490088daad89bae25049a34f4a9072d398537b1ab2425f24cbed0254855f527f645e039705490088daad89bae25049a34f4a9072d398537b1ab2425f24cbed036020528060405f2055680100000000000000008110156128d35785611c48826001612bc594017f645e039705490088daad89bae25049a34f4a9072d398537b1ab2425f24cbed0255613035565b838603612c24575b5073ffffffffffffffffffffffffffffffffffffffff92505016808303612bf357505050565b7f64283d7b000000000000000000000000000000000000000000000000000000005f5260045260245260445260645ffd5b612c2d906130c5565b5f198101908111612cb65773ffffffffffffffffffffffffffffffffffffffff935f527f645e039705490088daad89bae25049a34f4a9072d398537b1ab2425f24cbed0060205260405f20815f526020528460405f2055845f527f645e039705490088daad89bae25049a34f4a9072d398537b1ab2425f24cbed0160205260405f20555f612bcd565b7f4e487b71000000000000000000000000000000000000000000000000000000005f52601160045260245ffd5b858414612bc557612cf3826130c5565b855f527f645e039705490088daad89bae25049a34f4a9072d398537b1ab2425f24cbed0160205260405f205490875f527f645e039705490088daad89bae25049a34f4a9072d398537b1ab2425f24cbed0060205260405f2091818103612d92575b50865f527f645e039705490088daad89bae25049a34f4a9072d398537b1ab2425f24cbed016020525f60408120555f526020525f6040812055612bc5565b815f528260205260405f2054815f52836020528060405f20555f527f645e039705490088daad89bae25049a34f4a9072d398537b1ab2425f24cbed0160205260405f20555f612d54565b612e32865f527f80bb2b638cc20bc4d0a60d66940f3ab4a00c1d7b313497ca82fb0b4ab007930460205260405f207fffffffffffffffffffffffff00000000000000000000000000000000000000008154169055565b612e798373ffffffffffffffffffffffffffffffffffffffff165f527f80bb2b638cc20bc4d0a60d66940f3ab4a00c1d7b313497ca82fb0b4ab007930360205260405f2090565b5f198154019055612a65565b80612f0c575b15612e96575f612a43565b839073ffffffffffffffffffffffffffffffffffffffff16612edd577f7e273289000000000000000000000000000000000000000000000000000000005f5260045260245ffd5b7f177e802f000000000000000000000000000000000000000000000000000000005f523360045260245260445ffd5b503373ffffffffffffffffffffffffffffffffffffffff8216148015612f98575b80612e8b57503373ffffffffffffffffffffffffffffffffffffffff612f91865f527f80bb2b638cc20bc4d0a60d66940f3ab4a00c1d7b313497ca82fb0b4ab007930460205273ffffffffffffffffffffffffffffffffffffffff60405f20541690565b1614612e8b565b50612fe08173ffffffffffffffffffffffffffffffffffffffff165f527f80bb2b638cc20bc4d0a60d66940f3ab4a00c1d7b313497ca82fb0b4ab007930560205260405f2090565b73ffffffffffffffffffffffffffffffffffffffff33165f5260205260ff60405f205416612f2d565b7f64a0ae92000000000000000000000000000000000000000000000000000000005f525f60045260245ffd5b7f645e039705490088daad89bae25049a34f4a9072d398537b1ab2425f24cbed025481101561308b577f645e039705490088daad89bae25049a34f4a9072d398537b1ab2425f24cbed025f5260205f2001905f90565b7f4e487b71000000000000000000000000000000000000000000000000000000005f52603260045260245ffd5b5190811515820361219857565b73ffffffffffffffffffffffffffffffffffffffff81161561312c576131289073ffffffffffffffffffffffffffffffffffffffff165f527f80bb2b638cc20bc4d0a60d66940f3ab4a00c1d7b313497ca82fb0b4ab007930360205260405f2090565b5490565b7f89c62b64000000000000000000000000000000000000000000000000000000005f525f60045260245ffd5b906131648382846129d1565b803b613171575b50505050565b6020916131dd73ffffffffffffffffffffffffffffffffffffffff8093169560405195869485947f150b7a0200000000000000000000000000000000000000000000000000000000865233600487015216602485015260448401526080606484015260848301906127b5565b03815f865af15f91816132b0575b5061323257506131f961353d565b8051908161322d57827f64a0ae92000000000000000000000000000000000000000000000000000000005f5260045260245ffd5b602001fd5b7fffffffff000000000000000000000000000000000000000000000000000000007f150b7a020000000000000000000000000000000000000000000000000000000091160361328557505f80808061316b565b7f64a0ae92000000000000000000000000000000000000000000000000000000005f5260045260245ffd5b9091506020813d602011613305575b816132cc60209383612892565b8101031261219857517fffffffff000000000000000000000000000000000000000000000000000000008116810361219857905f6131eb565b3d91506132bf565b613355815f527f80bb2b638cc20bc4d0a60d66940f3ab4a00c1d7b313497ca82fb0b4ab007930260205273ffffffffffffffffffffffffffffffffffffffff60405f20541690565b9073ffffffffffffffffffffffffffffffffffffffff821615613376575090565b7f7e273289000000000000000000000000000000000000000000000000000000005f5260045260245ffd5b805f527f324a9a77402a1e94df4d893f8dc6150d3318bb54d8228d276535d523c0ac810060205260405f2060017fffffffffffffffffffffffffffffffffffffffffffffffffffffffffffffff008254161790557f23a39165e7ea63387856bbb51381519f6966967b3e854e9b16035b778c1cb97d5f80a2565b805f527f324a9a77402a1e94df4d893f8dc6150d3318bb54d8228d276535d523c0ac810060205260405f207fffffffffffffffffffffffffffffffffffffffffffffffffffffffffffffff0081541690557f24eeae42f647ed9085bd63c948c8201b093844d2ad153d02e9c42950d0306ccc5f80a2565b602073ffffffffffffffffffffffffffffffffffffffff7f2f658b440c35314f52658ea8a740e05b284cdc84dc9ae01e891f21b8933e7cad9216807fffffffffffffffffffffffff00000000000000000000000000000000000000007ff3177357ab46d8af007ab3fdb9af81da189e1068fefdc0073dca88a2cab40a005416177ff3177357ab46d8af007ab3fdb9af81da189e1068fefdc0073dca88a2cab40a0055604051908152a1565b3d15613567573d9061354e82612900565b9161355c6040519384612892565b82523d5f602084013e565b606090565b9190826040910312612198576020613583836130b8565b92015163ffffffff811681036121985790565b6135de825f527f80bb2b638cc20bc4d0a60d66940f3ab4a00c1d7b313497ca82fb0b4ab007930260205273ffffffffffffffffffffffffffffffffffffffff60405f20541690565b9173ffffffffffffffffffffffffffffffffffffffff8316918215928315613a6b575b73ffffffffffffffffffffffffffffffffffffffff8216938415908115613a18575b845f527f80bb2b638cc20bc4d0a60d66940f3ab4a00c1d7b313497ca82fb0b4ab007930260205260405f20867fffffffffffffffffffffffff00000000000000000000000000000000000000008254161790558486847fddf252ad1be2c89b69c2b068fc378daa952ba7f163c4a11628f55a4df523b3ef5f80a41561391f577f645e039705490088daad89bae25049a34f4a9072d398537b1ab2425f24cbed0254845f527f645e039705490088daad89bae25049a34f4a9072d398537b1ab2425f24cbed036020528060405f2055680100000000000000008110156128d35784611c4882600161373594017f645e039705490088daad89bae25049a34f4a9072d398537b1ab2425f24cbed0255613035565b1561389457505090507f645e039705490088daad89bae25049a34f4a9072d398537b1ab2425f24cbed02545f198101908111612cb657815f527f645e039705490088daad89bae25049a34f4a9072d398537b1ab2425f24cbed036020526137a060405f205491613035565b90549060031b1c6137b481611c4884613035565b5f527f645e039705490088daad89bae25049a34f4a9072d398537b1ab2425f24cbed0360205260405f20555f527f645e039705490088daad89bae25049a34f4a9072d398537b1ab2425f24cbed036020525f60408120557f645e039705490088daad89bae25049a34f4a9072d398537b1ab2425f24cbed02548015613867575f1901613842611d6482613035565b7f645e039705490088daad89bae25049a34f4a9072d398537b1ab2425f24cbed025590565b7f4e487b71000000000000000000000000000000000000000000000000000000005f52603160045260245ffd5b83036138a1575b50505090565b6138aa906130c5565b915f198301928311612cb6575f527f645e039705490088daad89bae25049a34f4a9072d398537b1ab2425f24cbed0060205260405f20825f526020528060405f20555f527f645e039705490088daad89bae25049a34f4a9072d398537b1ab2425f24cbed0160205260405f20555f808061389b565b8185146137355761392f866130c5565b845f527f645e039705490088daad89bae25049a34f4a9072d398537b1ab2425f24cbed0160205260405f205490835f527f645e039705490088daad89bae25049a34f4a9072d398537b1ab2425f24cbed0060205260405f20918181036139ce575b50855f527f645e039705490088daad89bae25049a34f4a9072d398537b1ab2425f24cbed016020525f60408120555f526020525f6040812055613735565b815f528260205260405f2054815f52836020528060405f20555f527f645e039705490088daad89bae25049a34f4a9072d398537b1ab2425f24cbed0160205260405f20555f613990565b613a5f8473ffffffffffffffffffffffffffffffffffffffff165f527f80bb2b638cc20bc4d0a60d66940f3ab4a00c1d7b313497ca82fb0b4ab007930360205260405f2090565b60018154019055613623565b613ac1835f527f80bb2b638cc20bc4d0a60d66940f3ab4a00c1d7b313497ca82fb0b4ab007930460205260405f207fffffffffffffffffffffffff00000000000000000000000000000000000000008154169055565b613b088573ffffffffffffffffffffffffffffffffffffffff165f527f80bb2b638cc20bc4d0a60d66940f3ab4a00c1d7b313497ca82fb0b4ab007930360205260405f2090565b5f198154019055613601565b60ff7ff0c57e16840df040f15088dc2f81fe391c3923bec73e23a9662efc9c229c6a005460401c1615613b4357565b7fd7e6bcf8000000000000000000000000000000000000000000000000000000005f5260045ffd5b90613ba85750805115613b8057805190602001fd5b7fd6bda275000000000000000000000000000000000000000000000000000000005f5260045ffd5b81511580613bfb575b613bb9575090565b73ffffffffffffffffffffffffffffffffffffffff907f9996b315000000000000000000000000000000000000000000000000000000005f521660045260245ffd5b50803b15613bb156fea26469706673582212209d58c715fca80e9e5eab8c71a6cf203dcea1d5b40f8eca3aee9c20ee8b10575364736f6c634300081a0033","linkReferences":{}},"methodIdentifiers":{"ASSET_REFERENDUM()":"3bab059c","UPGRADE_INTERFACE_VERSION()":"ad3cb1cc","approve(address,uint256)":"095ea7b3","authority()":"bf7e214f","balanceOf(address)":"70a08231","getApproved(uint256)":"081812fc","initialize(address)":"c4d66de8","isActive(uint256)":"82afd23b","isApprovedForAll(address,address)":"e985e9c5","isConsumingScheduledOp()":"8fb36037","name()":"06fdde03","ownerOf(uint256)":"6352211e","proxiableUUID()":"52d1902d","register(address,uint256)":"6d705ebb","revoke(uint256)":"20c5429b","safeTransferFrom(address,address,uint256)":"42842e0e","safeTransferFrom(address,address,uint256,bytes)":"b88d4fde","setApprovalForAll(address,bool)":"a22cb465","setAuthority(address)":"7a9e5e4b","supportsInterface(bytes4)":"01ffc9a7","switchState(uint256)":"1da0883a","symbol()":"95d89b41","tokenByIndex(uint256)":"4f6ccce7","tokenOfOwnerByIndex(address,uint256)":"2f745c59","tokenURI(uint256)":"c87b56dd","totalSupply()":"18160ddd","transfer(address,uint256)":"a9059cbb","transferFrom(address,address,uint256)":"23b872dd","upgradeToAndCall(address,bytes)":"4f1ef286"},"storageLayout":{"storage":[],"types":{}},"id":1}