{"abi":[{"type":"constructor","inputs":[{"name":"ledgerVault","type":"address","internalType":"address"},{"name":"assetOwnership","type":"address","internalType":"address"},{"name":"mmc","type":"address","internalType":"address"}],"stateMutability":"nonpayable"},{"type":"function","name":"ASSET_OWNERSHIP","inputs":[],"outputs":[{"name":"","type":"address","internalType":"contract IAssetOwnership"}],"stateMutability":"view"},{"type":"function","name":"LEDGER_VAULT","inputs":[],"outputs":[{"name":"","type":"address","internalType":"contract ILedgerVault"}],"stateMutability":"view"},{"type":"function","name":"MMC","inputs":[],"outputs":[{"name":"","type":"address","internalType":"address"}],"stateMutability":"view"},{"type":"function","name":"addFunds","inputs":[{"name":"amount","type":"uint256","internalType":"uint256"}],"outputs":[],"stateMutability":"nonpayable"},{"type":"function","name":"getFundsAllocation","inputs":[{"name":"operator","type":"address","internalType":"address"}],"outputs":[{"name":"","type":"uint256","internalType":"uint256"}],"stateMutability":"view"},{"type":"function","name":"getFundsBalance","inputs":[],"outputs":[{"name":"","type":"uint256","internalType":"uint256"}],"stateMutability":"view"},{"type":"function","name":"getLedgerBalance","inputs":[{"name":"account","type":"address","internalType":"address"},{"name":"currency","type":"address","internalType":"address"}],"outputs":[{"name":"","type":"uint256","internalType":"uint256"}],"stateMutability":"view"},{"type":"function","name":"getQuotaCounter","inputs":[{"name":"account","type":"address","internalType":"address"}],"outputs":[{"name":"","type":"uint256","internalType":"uint256"}],"stateMutability":"view"},{"type":"function","name":"getQuotaLimit","inputs":[],"outputs":[{"name":"","type":"uint256","internalType":"uint256"}],"stateMutability":"view"},{"type":"function","name":"getTotalUsage","inputs":[],"outputs":[{"name":"","type":"uint256","internalType":"uint256"}],"stateMutability":"view"},{"type":"function","name":"initialize","inputs":[{"name":"owner","type":"address","internalType":"address"},{"name":"expireAt","type":"uint256","internalType":"uint256"}],"outputs":[],"stateMutability":"nonpayable"},{"type":"function","name":"isActive","inputs":[{"name":"operator","type":"address","internalType":"address"},{"name":"account","type":"address","internalType":"address"}],"outputs":[{"name":"","type":"bool","internalType":"bool"}],"stateMutability":"view"},{"type":"function","name":"isReady","inputs":[{"name":"operator","type":"address","internalType":"address"}],"outputs":[{"name":"","type":"bool","internalType":"bool"}],"stateMutability":"view"},{"type":"function","name":"owner","inputs":[],"outputs":[{"name":"","type":"address","internalType":"address"}],"stateMutability":"view"},{"type":"function","name":"pause","inputs":[],"outputs":[],"stateMutability":"nonpayable"},{"type":"function","name":"paused","inputs":[],"outputs":[{"name":"","type":"bool","internalType":"bool"}],"stateMutability":"view"},{"type":"function","name":"removeFunds","inputs":[{"name":"amount","type":"uint256","internalType":"uint256"}],"outputs":[],"stateMutability":"nonpayable"},{"type":"function","name":"renounceOwnership","inputs":[],"outputs":[],"stateMutability":"nonpayable"},{"type":"function","name":"run","inputs":[{"name":"account","type":"address","internalType":"address"}],"outputs":[{"name":"","type":"uint256","internalType":"uint256"}],"stateMutability":"nonpayable"},{"type":"function","name":"setFundsAllocation","inputs":[{"name":"amount","type":"uint256","internalType":"uint256"},{"name":"operator","type":"address","internalType":"address"}],"outputs":[],"stateMutability":"nonpayable"},{"type":"function","name":"setQuotaLimit","inputs":[{"name":"limit","type":"uint256","internalType":"uint256"}],"outputs":[],"stateMutability":"nonpayable"},{"type":"function","name":"supportsInterface","inputs":[{"name":"interfaceId","type":"bytes4","internalType":"bytes4"}],"outputs":[{"name":"","type":"bool","internalType":"bool"}],"stateMutability":"view"},{"type":"function","name":"transferOwnership","inputs":[{"name":"newOwner","type":"address","internalType":"address"}],"outputs":[],"stateMutability":"nonpayable"},{"type":"function","name":"unpause","inputs":[],"outputs":[],"stateMutability":"nonpayable"},{"type":"event","name":"CampaignRun","inputs":[{"name":"account","type":"address","indexed":false,"internalType":"address"},{"name":"amount","type":"uint256","indexed":false,"internalType":"uint256"}],"anonymous":false},{"type":"event","name":"ExpirationSet","inputs":[{"name":"expiration","type":"uint256","indexed":false,"internalType":"uint256"}],"anonymous":false},{"type":"event","name":"FundsAdded","inputs":[{"name":"amount","type":"uint256","indexed":false,"internalType":"uint256"}],"anonymous":false},{"type":"event","name":"FundsAllocationSet","inputs":[{"name":"operator","type":"address","indexed":true,"internalType":"address"},{"name":"amount","type":"uint256","indexed":false,"internalType":"uint256"}],"anonymous":false},{"type":"event","name":"FundsRemoved","inputs":[{"name":"amount","type":"uint256","indexed":false,"internalType":"uint256"}],"anonymous":false},{"type":"event","name":"Initialized","inputs":[{"name":"version","type":"uint64","indexed":false,"internalType":"uint64"}],"anonymous":false},{"type":"event","name":"MaxQuotaLimitSet","inputs":[{"name":"limit","type":"uint256","indexed":false,"internalType":"uint256"}],"anonymous":false},{"type":"event","name":"OwnershipTransferred","inputs":[{"name":"previousOwner","type":"address","indexed":true,"internalType":"address"},{"name":"newOwner","type":"address","indexed":true,"internalType":"address"}],"anonymous":false},{"type":"event","name":"Paused","inputs":[{"name":"account","type":"address","indexed":false,"internalType":"address"}],"anonymous":false},{"type":"event","name":"QuotaCounterUpdated","inputs":[{"name":"counter","type":"uint256","indexed":false,"internalType":"uint256"}],"anonymous":false},{"type":"event","name":"Unpaused","inputs":[{"name":"account","type":"address","indexed":false,"internalType":"address"}],"anonymous":false},{"type":"error","name":"EnforcedPause","inputs":[]},{"type":"error","name":"ExpectedPause","inputs":[]},{"type":"error","name":"InvalidInitialization","inputs":[]},{"type":"error","name":"InvalidOperationParameters","inputs":[]},{"type":"error","name":"NotInitializing","inputs":[]},{"type":"error","name":"OperatorNotActive","inputs":[{"name":"operator","type":"address","internalType":"address"}]},{"type":"error","name":"OwnableInvalidOwner","inputs":[{"name":"owner","type":"address","internalType":"address"}]},{"type":"error","name":"OwnableUnauthorizedAccount","inputs":[{"name":"account","type":"address","internalType":"address"}]}],"bytecode":{"object":"0x60e03461019e57601f611e0e38819003918201601f19168301916001600160401b038311848410176101a25780849260609460405283398101031261019e57610047816101b6565b906100606040610059602084016101b6565b92016101b6565b917ff0c57e16840df040f15088dc2f81fe391c3923bec73e23a9662efc9c229c6a005460ff8160401c1661018f576002600160401b03196001600160401b03821601610126575b506001600160a01b0390811660a0521660c052608052604051611c4390816101cb82396080518181816105650152818161094001528181610db601528181611264015281816113ce0152818161169c0152611918015260a0518181816105c30152818161078401528181610f9a01526114ce015260c051816101500152f35b6001600160401b0319166001600160401b039081177ff0c57e16840df040f15088dc2f81fe391c3923bec73e23a9662efc9c229c6a00556040519081527fc7f505b2f371ae2175ee4913f4499e1f2633a7b5936321eed1cdaeb6115181d290602090a15f6100a7565b63f92ee8a960e01b5f5260045ffd5b5f80fd5b634e487b7160e01b5f52604160045260245ffd5b51906001600160a01b038216820361019e5756fe6080806040526004361015610012575f80fd5b5f3560e01c90816301d2c00b146117725750806301ffc9a7146116d15780631b07d35b1461160c5780632f384523146113b05780633552f5a41461138d5780633f4ba83a1461128857806344dea5a714611238578063522bb70414610d3f5780635c975abb14610cfe578063715018a614610c425780638456cb5914610b3a5780638da5cb5b14610ae85780639f3c2f2214610aa3578063a272c514146108d2578063a5acfe01146107fb578063ae131deb146107c5578063af9427ec146107a8578063bc23e35e14610758578063be9997051461050d578063cd6dc68714610253578063d949b844146101c0578063f2fde38b14610195578063f4058a10146101785763f520d4eb14610124575f80fd5b34610174575f60031936011261017457602060405173ffffffffffffffffffffffffffffffffffffffff7f0000000000000000000000000000000000000000000000000000000000000000168152f35b5f80fd5b34610174575f600319360112610174576020600154604051908152f35b34610174576020600319360112610174576101be6101b16117b3565b6101b9611ad7565b6119ea565b005b34610174576040600319360112610174576101d96117b3565b73ffffffffffffffffffffffffffffffffffffffff61023d6101f96117d6565b9273ffffffffffffffffffffffffffffffffffffffff165f527fcb711bda070b7bbcc2b711ef3993cc17677144f4419b29e303bef375c5f40f0060205260405f2090565b91165f52602052602060405f2054604051908152f35b346101745760406003193601126101745761026c6117b3565b7ff0c57e16840df040f15088dc2f81fe391c3923bec73e23a9662efc9c229c6a005460ff8160401c16159167ffffffffffffffff821680159081610505575b60011490816104fb575b1590816104f2575b506104ca57818360017fffffffffffffffffffffffffffffffffffffffffffffffff00000000000000006103a39516177ff0c57e16840df040f15088dc2f81fe391c3923bec73e23a9662efc9c229c6a0055610475575b5061031d611bb6565b610325611bb6565b61032d611bb6565b7fffffffffffffffffffffffffffffffffffffffffffffffffffffffffffffff007fcd5ed15c6e187e77e9aee88184c21f4f2182ab5827cb3b7e07fbedcd63f0330054167fcd5ed15c6e187e77e9aee88184c21f4f2182ab5827cb3b7e07fbedcd63f033005561039b611bb6565b6101b9611bb6565b7f645593ca25d75b795c1ee548367f7aef4ed419bce4ccd5e2a6d19fd296010b6c60206103d260243542611955565b805f55604051908152a16103e257005b7fffffffffffffffffffffffffffffffffffffffffffffff00ffffffffffffffff7ff0c57e16840df040f15088dc2f81fe391c3923bec73e23a9662efc9c229c6a0054167ff0c57e16840df040f15088dc2f81fe391c3923bec73e23a9662efc9c229c6a00557fc7f505b2f371ae2175ee4913f4499e1f2633a7b5936321eed1cdaeb6115181d2602060405160018152a1005b7fffffffffffffffffffffffffffffffffffffffffffffff0000000000000000001668010000000000000001177ff0c57e16840df040f15088dc2f81fe391c3923bec73e23a9662efc9c229c6a005583610314565b7ff92ee8a9000000000000000000000000000000000000000000000000000000005f5260045ffd5b905015846102bd565b303b1591506102b5565b8491506102ab565b3461017457602060031936011261017457600435610529611ad7565b80156106d4576040517f2c2eb94a00000000000000000000000000000000000000000000000000000000815233600482015260248101919091527f000000000000000000000000000000000000000000000000000000000000000073ffffffffffffffffffffffffffffffffffffffff8116604483015290602081806064810103815f73ffffffffffffffffffffffffffffffffffffffff7f0000000000000000000000000000000000000000000000000000000000000000165af19081156106c9575f91610677575b7fd30fc8a1b5907be76206421a3040262f1f6aed0d418c05312ef5ff8de0c9ae4c60208385335f527fcb711bda070b7bbcc2b711ef3993cc17677144f4419b29e303bef375c5f40f00835273ffffffffffffffffffffffffffffffffffffffff60405f2091165f52825260405f2061066c828254611955565b9055604051908152a1005b90506020813d6020116106c1575b81610692602093836117f9565b8101031261017457517fd30fc8a1b5907be76206421a3040262f1f6aed0d418c05312ef5ff8de0c9ae4c6105f3565b3d9150610685565b6040513d5f823e3d90fd5b60846040517f08c379a000000000000000000000000000000000000000000000000000000000815260206004820152602760248201527f496e76616c696420616d6f756e7420746f20616c6c6f6361746520696e20636160448201527f6d706169676e2e000000000000000000000000000000000000000000000000006064820152fd5b34610174575f60031936011261017457602060405173ffffffffffffffffffffffffffffffffffffffff7f0000000000000000000000000000000000000000000000000000000000000000168152f35b34610174575f600319360112610174576020600254604051908152f35b346101745760406003193601126101745760206107f16107e36117b3565b6107eb6117d6565b90611962565b6040519015158152f35b3461017457602060031936011261017457600435610817611ad7565b801561084e576020817f1beffbb9e4f61c417d57ee212c5828675e336f06dca405481e534aac1d62e9be92600155604051908152a1005b60846040517f08c379a000000000000000000000000000000000000000000000000000000000815260206004820152602660248201527f51756f7461206c696d6974206d7573742062652067726561746572207468616e60448201527f207a65726f2e00000000000000000000000000000000000000000000000000006064820152fd5b34610174576040600319360112610174576004356108ee6117d6565b6108f6611ad7565b8115610a4557335f9081527fcb711bda070b7bbcc2b711ef3993cc17677144f4419b29e303bef375c5f40f006020526040902073ffffffffffffffffffffffffffffffffffffffff7f0000000000000000000000000000000000000000000000000000000000000000165f526020528160405f2054106109c157602073ffffffffffffffffffffffffffffffffffffffff7f1316c84929774cd7ab06a38ef62dc46d0069935ab2f4d6b38c0ad99219b0c963921692835f52600382528060405f2055604051908152a2005b60846040517f08c379a000000000000000000000000000000000000000000000000000000000815260206004820152602b60248201527f496e73756666696369656e742066756e647320696e2063616d706169676e207460448201527f6f20616c6c6f636174652e0000000000000000000000000000000000000000006064820152fd5b60646040517f08c379a000000000000000000000000000000000000000000000000000000000815260206004820152601e60248201527f496e76616c6964207a65726f2066756e647320616c6c6f636174696f6e2e00006044820152fd5b346101745760206003193601126101745773ffffffffffffffffffffffffffffffffffffffff610ad16117b3565b165f526003602052602060405f2054604051908152f35b34610174575f60031936011261017457602073ffffffffffffffffffffffffffffffffffffffff7f9016d09d72d40fdae2fd8ceac6b6234c7706214fd39c1cd1e609a0528c1993005416604051908152f35b34610174575f60031936011261017457610b52611ad7565b7fcd5ed15c6e187e77e9aee88184c21f4f2182ab5827cb3b7e07fbedcd63f033005460ff8116610c1a577fffffffffffffffffffffffffffffffffffffffffffffffffffffffffffffff0060019116177fcd5ed15c6e187e77e9aee88184c21f4f2182ab5827cb3b7e07fbedcd63f03300557f62e78cea01bee320cd4e420270b5ea74000d11b0c9f74754ebdbfc544b05a2586020604051338152a17f62e78cea01bee320cd4e420270b5ea74000d11b0c9f74754ebdbfc544b05a2586020604051338152a1005b7fd93c0665000000000000000000000000000000000000000000000000000000005f5260045ffd5b34610174575f60031936011261017457610c5a611ad7565b5f73ffffffffffffffffffffffffffffffffffffffff7f9016d09d72d40fdae2fd8ceac6b6234c7706214fd39c1cd1e609a0528c199300547fffffffffffffffffffffffff000000000000000000000000000000000000000081167f9016d09d72d40fdae2fd8ceac6b6234c7706214fd39c1cd1e609a0528c19930055167f8be0079c531659141344cd1fd0a4f28419497f9722a3daafe3b4186f6b6457e08280a3005b34610174575f60031936011261017457602060ff7fcd5ed15c6e187e77e9aee88184c21f4f2182ab5827cb3b7e07fbedcd63f0330054166040519015158152f35b3461017457602060031936011261017457610d586117b3565b610d628133611962565b61120c5760015490335f52600360205260405f20549073ffffffffffffffffffffffffffffffffffffffff7f9016d09d72d40fdae2fd8ceac6b6234c7706214fd39c1cd1e609a0528c199300541690610e197f00000000000000000000000000000000000000000000000000000000000000009273ffffffffffffffffffffffffffffffffffffffff165f527fcb711bda070b7bbcc2b711ef3993cc17677144f4419b29e303bef375c5f40f0060205260405f2090565b73ffffffffffffffffffffffffffffffffffffffff83165f5260205273ffffffffffffffffffffffffffffffffffffffff60405f2054911693845f52600460205260405f20549184156111885784116111045781101561108057600181018091116110535760207f5c2f7e1f5967870d328c406d8c7814a05bc4da95955a17b1e1dd7467a817f89f91855f52600482528060405f2055604051908152a1610ef8818373ffffffffffffffffffffffffffffffffffffffff7f9016d09d72d40fdae2fd8ceac6b6234c7706214fd39c1cd1e609a0528c1993005416611b43565b6002547fffffffffffffffffffffffffffffffffffffffffffffffffffffffffffffffff8114611053576001016002556040517f1271f09a0000000000000000000000000000000000000000000000000000000081523360048201526024810183905273ffffffffffffffffffffffffffffffffffffffff9091166044820152602081806064810103815f73ffffffffffffffffffffffffffffffffffffffff7f0000000000000000000000000000000000000000000000000000000000000000165af180156106c957611001575b507fb638f37f1e979101c3cd3744eb6842e06952fe75856c0628e6373b30b27069a9604060209381519081528385820152a1604051908152f35b916020833d60201161104b575b8161101b602093836117f9565b810103126101745791507fb638f37f1e979101c3cd3744eb6842e06952fe75856c0628e6373b30b27069a9610fc7565b3d915061100e565b7f4e487b71000000000000000000000000000000000000000000000000000000005f52601160045260245ffd5b60846040517f08c379a000000000000000000000000000000000000000000000000000000000815260206004820152602a60248201527f4578636565646564206d61782073706f6e736f7265642061636365737320696e60448201527f2063616d706169676e2e000000000000000000000000000000000000000000006064820152fd5b60846040517f08c379a000000000000000000000000000000000000000000000000000000000815260206004820152602760248201527f4e6f2066756e647320746f2073706f6e736f722061636365737320696e20636160448201527f6d706169676e2e000000000000000000000000000000000000000000000000006064820152fd5b60846040517f08c379a000000000000000000000000000000000000000000000000000000000815260206004820152602560248201527f4e6f2066756e647320616c6c6f636174656420666f7220746869732063616d7060448201527f6169676e2e0000000000000000000000000000000000000000000000000000006064820152fd5b7fe356d5aa000000000000000000000000000000000000000000000000000000005f523360045260245ffd5b34610174575f60031936011261017457602060405173ffffffffffffffffffffffffffffffffffffffff7f0000000000000000000000000000000000000000000000000000000000000000168152f35b34610174575f600319360112610174576112a0611ad7565b7fcd5ed15c6e187e77e9aee88184c21f4f2182ab5827cb3b7e07fbedcd63f033005460ff811615611365577fffffffffffffffffffffffffffffffffffffffffffffffffffffffffffffff00167fcd5ed15c6e187e77e9aee88184c21f4f2182ab5827cb3b7e07fbedcd63f03300557f5db9ee0a495bf2e6ff9c91a7834c1ba4fdd244a5e8aa4e537bd38aeae4b073aa6020604051338152a17f5db9ee0a495bf2e6ff9c91a7834c1ba4fdd244a5e8aa4e537bd38aeae4b073aa6020604051338152a1005b7f8dfc202b000000000000000000000000000000000000000000000000000000005f5260045ffd5b346101745760206003193601126101745760206107f16113ab6117b3565b611867565b34610174576020600319360112610174576004356113cc611ad7565b7f0000000000000000000000000000000000000000000000000000000000000000906114353373ffffffffffffffffffffffffffffffffffffffff165f527fcb711bda070b7bbcc2b711ef3993cc17677144f4419b29e303bef375c5f40f0060205260405f2090565b73ffffffffffffffffffffffffffffffffffffffff83165f526020528060405f205410611588576040517fdbba0f01000000000000000000000000000000000000000000000000000000008152336004820152602481019190915273ffffffffffffffffffffffffffffffffffffffff82166044820152602081806064810103815f73ffffffffffffffffffffffffffffffffffffffff7f0000000000000000000000000000000000000000000000000000000000000000165af19081156106c9575f91611536575b7fb118ca2babba7ee83167f658e6d0fdbf20f4e30dbd0119aac17a1ec30ad9700060208361152d868233611b43565b604051908152a1005b90506020813d602011611580575b81611551602093836117f9565b8101031261017457517fb118ca2babba7ee83167f658e6d0fdbf20f4e30dbd0119aac17a1ec30ad970006114fe565b3d9150611544565b60846040517f08c379a000000000000000000000000000000000000000000000000000000000815260206004820152602960248201527f496e73756666696369656e742066756e647320616c6c6f636174656420696e2060448201527f63616d706169676e2e00000000000000000000000000000000000000000000006064820152fd5b34610174575f6003193601126101745760206116c97f9016d09d72d40fdae2fd8ceac6b6234c7706214fd39c1cd1e609a0528c1993005473ffffffffffffffffffffffffffffffffffffffff165f9081527fcb711bda070b7bbcc2b711ef3993cc17677144f4419b29e303bef375c5f40f006020526040902073ffffffffffffffffffffffffffffffffffffffff7f0000000000000000000000000000000000000000000000000000000000000000165f5260205260405f205490565b604051908152f35b34610174576020600319360112610174576004357fffffffff00000000000000000000000000000000000000000000000000000000811680910361017457807ffc38aaef0000000000000000000000000000000000000000000000000000000060209214908115611748575b506040519015158152f35b7f01ffc9a7000000000000000000000000000000000000000000000000000000009150148261173d565b346101745760206003193601126101745760209073ffffffffffffffffffffffffffffffffffffffff6117a36117b3565b165f526004825260405f20548152f35b6004359073ffffffffffffffffffffffffffffffffffffffff8216820361017457565b6024359073ffffffffffffffffffffffffffffffffffffffff8216820361017457565b90601f7fffffffffffffffffffffffffffffffffffffffffffffffffffffffffffffffe0910116810190811067ffffffffffffffff82111761183a57604052565b7f4e487b71000000000000000000000000000000000000000000000000000000005f52604160045260245ffd5b73ffffffffffffffffffffffffffffffffffffffff165f52600360205260405f205415158061194a575b806118995790565b506119457f9016d09d72d40fdae2fd8ceac6b6234c7706214fd39c1cd1e609a0528c1993005473ffffffffffffffffffffffffffffffffffffffff165f9081527fcb711bda070b7bbcc2b711ef3993cc17677144f4419b29e303bef375c5f40f006020526040902073ffffffffffffffffffffffffffffffffffffffff7f0000000000000000000000000000000000000000000000000000000000000000165f5260205260405f205490565b151590565b506001541515611891565b9190820180921161105357565b61196b90611867565b9073ffffffffffffffffffffffffffffffffffffffff5f5491165f52600460205260405f20546001541090826119df575b50816119b2575b816119ac575090565b90501590565b7fcd5ed15c6e187e77e9aee88184c21f4f2182ab5827cb3b7e07fbedcd63f033005460ff161591506119a3565b42111591505f61199c565b73ffffffffffffffffffffffffffffffffffffffff168015611aab5773ffffffffffffffffffffffffffffffffffffffff7f9016d09d72d40fdae2fd8ceac6b6234c7706214fd39c1cd1e609a0528c19930054827fffffffffffffffffffffffff00000000000000000000000000000000000000008216177f9016d09d72d40fdae2fd8ceac6b6234c7706214fd39c1cd1e609a0528c19930055167f8be0079c531659141344cd1fd0a4f28419497f9722a3daafe3b4186f6b6457e05f80a3565b7f1e4fbdf7000000000000000000000000000000000000000000000000000000005f525f60045260245ffd5b73ffffffffffffffffffffffffffffffffffffffff7f9016d09d72d40fdae2fd8ceac6b6234c7706214fd39c1cd1e609a0528c19930054163303611b1757565b7f118cdaa7000000000000000000000000000000000000000000000000000000005f523360045260245ffd5b73ffffffffffffffffffffffffffffffffffffffff90929192165f527fcb711bda070b7bbcc2b711ef3993cc17677144f4419b29e303bef375c5f40f0060205273ffffffffffffffffffffffffffffffffffffffff60405f2091165f5260205260405f2080549182039182116110535755565b60ff7ff0c57e16840df040f15088dc2f81fe391c3923bec73e23a9662efc9c229c6a005460401c1615611be557565b7fd7e6bcf8000000000000000000000000000000000000000000000000000000005f5260045ffdfea2646970667358221220ce11881f6a15dd00becee1ece74c97cc7e93d18761eaa1110f35f895b907043664736f6c634300081a0033","linkReferences":{}},"methodIdentifiers":{"ASSET_OWNERSHIP()":"f520d4eb","LEDGER_VAULT()":"bc23e35e","MMC()":"44dea5a7","addFunds(uint256)":"be999705","getFundsAllocation(address)":"9f3c2f22","getFundsBalance()":"1b07d35b","getLedgerBalance(address,address)":"d949b844","getQuotaCounter(address)":"01d2c00b","getQuotaLimit()":"f4058a10","getTotalUsage()":"af9427ec","initialize(address,uint256)":"cd6dc687","isActive(address,address)":"ae131deb","isReady(address)":"3552f5a4","owner()":"8da5cb5b","pause()":"8456cb59","paused()":"5c975abb","removeFunds(uint256)":"2f384523","renounceOwnership()":"715018a6","run(address)":"522bb704","setFundsAllocation(uint256,address)":"a272c514","setQuotaLimit(uint256)":"a5acfe01","supportsInterface(bytes4)":"01ffc9a7","transferOwnership(address)":"f2fde38b","unpause()":"3f4ba83a"},"storageLayout":{"storage":[{"astId":44,"contract":"contracts/incentives/campaigns/sponsored/CampaignSubscriptionTpl.sol:CampaignSubscriptionTpl","label":"_expires","offset":0,"slot":"0","type":"t_uint256"},{"astId":46,"contract":"contracts/incentives/campaigns/sponsored/CampaignSubscriptionTpl.sol:CampaignSubscriptionTpl","label":"_quotaLimits","offset":0,"slot":"1","type":"t_uint256"},{"astId":48,"contract":"contracts/incentives/campaigns/sponsored/CampaignSubscriptionTpl.sol:CampaignSubscriptionTpl","label":"_globalQuotaCounter","offset":0,"slot":"2","type":"t_uint256"},{"astId":53,"contract":"contracts/incentives/campaigns/sponsored/CampaignSubscriptionTpl.sol:CampaignSubscriptionTpl","label":"_allocation","offset":0,"slot":"3","type":"t_mapping(t_address,t_uint256)"},{"astId":57,"contract":"contracts/incentives/campaigns/sponsored/CampaignSubscriptionTpl.sol:CampaignSubscriptionTpl","label":"_quotaCounter","offset":0,"slot":"4","type":"t_mapping(t_address,t_uint256)"}],"types":{"t_address":{"encoding":"inplace","label":"address","numberOfBytes":"20"},"t_mapping(t_address,t_uint256)":{"encoding":"mapping","key":"t_address","label":"mapping(address => uint256)","numberOfBytes":"32","value":"t_uint256"},"t_uint256":{"encoding":"inplace","label":"uint256","numberOfBytes":"32"}}},"id":1}