{
  "abi": [
    {
      "type": "function",
      "name": "UPGRADE_INTERFACE_VERSION",
      "inputs": [],
      "outputs": [
        {
          "name": "",
          "type": "string",
          "internalType": "string"
        }
      ],
      "stateMutability": "view"
    },
    {
      "type": "function",
      "name": "authority",
      "inputs": [],
      "outputs": [
        {
          "name": "",
          "type": "address",
          "internalType": "address"
        }
      ],
      "stateMutability": "view"
    },
    {
      "type": "function",
      "name": "createCampaign",
      "inputs": [
        {
          "name": "template",
          "type": "address",
          "internalType": "address"
        },
        {
          "name": "policy",
          "type": "address",
          "internalType": "address"
        },
        {
          "name": "expiration",
          "type": "uint256",
          "internalType": "uint256"
        },
        {
          "name": "description",
          "type": "string",
          "internalType": "string"
        }
      ],
      "outputs": [
        {
          "name": "",
          "type": "address",
          "internalType": "address"
        }
      ],
      "stateMutability": "nonpayable"
    },
    {
      "type": "function",
      "name": "getCampaign",
      "inputs": [
        {
          "name": "account",
          "type": "address",
          "internalType": "address"
        },
        {
          "name": "policy",
          "type": "address",
          "internalType": "address"
        }
      ],
      "outputs": [
        {
          "name": "",
          "type": "address",
          "internalType": "address"
        }
      ],
      "stateMutability": "view"
    },
    {
      "type": "function",
      "name": "initialize",
      "inputs": [
        {
          "name": "accessManager",
          "type": "address",
          "internalType": "address"
        }
      ],
      "outputs": [],
      "stateMutability": "nonpayable"
    },
    {
      "type": "function",
      "name": "isConsumingScheduledOp",
      "inputs": [],
      "outputs": [
        {
          "name": "",
          "type": "bytes4",
          "internalType": "bytes4"
        }
      ],
      "stateMutability": "view"
    },
    {
      "type": "function",
      "name": "proxiableUUID",
      "inputs": [],
      "outputs": [
        {
          "name": "",
          "type": "bytes32",
          "internalType": "bytes32"
        }
      ],
      "stateMutability": "view"
    },
    {
      "type": "function",
      "name": "setAuthority",
      "inputs": [
        {
          "name": "newAuthority",
          "type": "address",
          "internalType": "address"
        }
      ],
      "outputs": [],
      "stateMutability": "nonpayable"
    },
    {
      "type": "function",
      "name": "upgradeToAndCall",
      "inputs": [
        {
          "name": "newImplementation",
          "type": "address",
          "internalType": "address"
        },
        {
          "name": "data",
          "type": "bytes",
          "internalType": "bytes"
        }
      ],
      "outputs": [],
      "stateMutability": "payable"
    },
    {
      "type": "event",
      "name": "AuthorityUpdated",
      "inputs": [
        {
          "name": "authority",
          "type": "address",
          "indexed": false,
          "internalType": "address"
        }
      ],
      "anonymous": false
    },
    {
      "type": "event",
      "name": "CampaignRegistered",
      "inputs": [
        {
          "name": "owner",
          "type": "address",
          "indexed": true,
          "internalType": "address"
        },
        {
          "name": "policy",
          "type": "address",
          "indexed": true,
          "internalType": "address"
        },
        {
          "name": "expireAt",
          "type": "uint256",
          "indexed": true,
          "internalType": "uint256"
        },
        {
          "name": "campaign",
          "type": "address",
          "indexed": false,
          "internalType": "address"
        },
        {
          "name": "scopeId",
          "type": "bytes32",
          "indexed": false,
          "internalType": "bytes32"
        },
        {
          "name": "description",
          "type": "string",
          "indexed": false,
          "internalType": "string"
        }
      ],
      "anonymous": false
    },
    {
      "type": "event",
      "name": "Initialized",
      "inputs": [
        {
          "name": "version",
          "type": "uint64",
          "indexed": false,
          "internalType": "uint64"
        }
      ],
      "anonymous": false
    },
    {
      "type": "event",
      "name": "Upgraded",
      "inputs": [
        {
          "name": "implementation",
          "type": "address",
          "indexed": true,
          "internalType": "address"
        }
      ],
      "anonymous": false
    },
    {
      "type": "error",
      "name": "AccessManagedInvalidAuthority",
      "inputs": [
        {
          "name": "authority",
          "type": "address",
          "internalType": "address"
        }
      ]
    },
    {
      "type": "error",
      "name": "AccessManagedRequiredDelay",
      "inputs": [
        {
          "name": "caller",
          "type": "address",
          "internalType": "address"
        },
        {
          "name": "delay",
          "type": "uint32",
          "internalType": "uint32"
        }
      ]
    },
    {
      "type": "error",
      "name": "AccessManagedUnauthorized",
      "inputs": [
        {
          "name": "caller",
          "type": "address",
          "internalType": "address"
        }
      ]
    },
    {
      "type": "error",
      "name": "AddressEmptyCode",
      "inputs": [
        {
          "name": "target",
          "type": "address",
          "internalType": "address"
        }
      ]
    },
    {
      "type": "error",
      "name": "ERC1967InvalidImplementation",
      "inputs": [
        {
          "name": "implementation",
          "type": "address",
          "internalType": "address"
        }
      ]
    },
    {
      "type": "error",
      "name": "ERC1967NonPayable",
      "inputs": []
    },
    {
      "type": "error",
      "name": "ErrorDuringCampaignSetup",
      "inputs": [
        {
          "name": "campaign",
          "type": "address",
          "internalType": "address"
        }
      ]
    },
    {
      "type": "error",
      "name": "FailedCall",
      "inputs": []
    },
    {
      "type": "error",
      "name": "FailedDeployment",
      "inputs": []
    },
    {
      "type": "error",
      "name": "InsufficientBalance",
      "inputs": [
        {
          "name": "balance",
          "type": "uint256",
          "internalType": "uint256"
        },
        {
          "name": "needed",
          "type": "uint256",
          "internalType": "uint256"
        }
      ]
    },
    {
      "type": "error",
      "name": "InvalidCampaignContract",
      "inputs": [
        {
          "name": "campaign",
          "type": "address",
          "internalType": "address"
        }
      ]
    },
    {
      "type": "error",
      "name": "InvalidInitialization",
      "inputs": []
    },
    {
      "type": "error",
      "name": "InvalidInput",
      "inputs": []
    },
    {
      "type": "error",
      "name": "InvalidUnauthorizedOperation",
      "inputs": [
        {
          "name": "",
          "type": "string",
          "internalType": "string"
        }
      ]
    },
    {
      "type": "error",
      "name": "NotInitializing",
      "inputs": []
    },
    {
      "type": "error",
      "name": "UUPSUnauthorizedCallContext",
      "inputs": []
    },
    {
      "type": "error",
      "name": "UUPSUnsupportedProxiableUUID",
      "inputs": [
        {
          "name": "slot",
          "type": "bytes32",
          "internalType": "bytes32"
        }
      ]
    },
    {
      "type": "error",
      "name": "Unauthorized",
      "inputs": []
    }
  ],
  "bytecode": {
    "object": "0x60a08060405234602957306080526114bc908161002e8239608051818181610720015261083f0152f35b5f80fdfe60806040526004361015610011575f80fd5b5f3560e01c8063401e173814610c495780634f1ef2861461079857806352d1902d146106db5780637a9e5e4b146105e65780638fb3603714610535578063ad3cb1cc14610483578063bf7e214f14610413578063c4d66de8146100f35763fd72f76d1461007c575f80fd5b346100ef5760407ffffffffffffffffffffffffffffffffffffffffffffffffffffffffffffffffc3601126100ef576100c46100b661117e565b6100be6111a1565b90611346565b5f525f602052602073ffffffffffffffffffffffffffffffffffffffff60405f205416604051908152f35b5f80fd5b346100ef5760207ffffffffffffffffffffffffffffffffffffffffffffffffffffffffffffffffc3601126100ef5761012a61117e565b7ff0c57e16840df040f15088dc2f81fe391c3923bec73e23a9662efc9c229c6a005460ff8160401c16159167ffffffffffffffff82168015908161040b575b6001149081610401575b1590816103f8575b506103d057818360017fffffffffffffffffffffffffffffffffffffffffffffffff000000000000000073ffffffffffffffffffffffffffffffffffffffff9516177ff0c57e16840df040f15088dc2f81fe391c3923bec73e23a9662efc9c229c6a005561037b575b506101ed611396565b6101f5611396565b6101fd611396565b610205611396565b61020e8161129b565b610216611396565b16801561031d577fffffffffffffffffffffffff00000000000000000000000000000000000000007fb8e950798a2a06a6f5727a94041b193569f4f67d69a0de3cf866d93822e7fa005416177fb8e950798a2a06a6f5727a94041b193569f4f67d69a0de3cf866d93822e7fa005561028a57005b7fffffffffffffffffffffffffffffffffffffffffffffff00ffffffffffffffff7ff0c57e16840df040f15088dc2f81fe391c3923bec73e23a9662efc9c229c6a0054167ff0c57e16840df040f15088dc2f81fe391c3923bec73e23a9662efc9c229c6a00557fc7f505b2f371ae2175ee4913f4499e1f2633a7b5936321eed1cdaeb6115181d2602060405160018152a1005b60646040517f6317e35f00000000000000000000000000000000000000000000000000000000815260206004820152601a60248201527f496e76616c696420617574686f7269747920616464726573732e0000000000006044820152fd5b7fffffffffffffffffffffffffffffffffffffffffffffff0000000000000000001668010000000000000001177ff0c57e16840df040f15088dc2f81fe391c3923bec73e23a9662efc9c229c6a0055836101e4565b7ff92ee8a9000000000000000000000000000000000000000000000000000000005f5260045ffd5b9050158461017b565b303b159150610173565b849150610169565b346100ef575f7ffffffffffffffffffffffffffffffffffffffffffffffffffffffffffffffffc3601126100ef57602073ffffffffffffffffffffffffffffffffffffffff7ff3177357ab46d8af007ab3fdb9af81da189e1068fefdc0073dca88a2cab40a005416604051908152f35b346100ef575f7ffffffffffffffffffffffffffffffffffffffffffffffffffffffffffffffffc3601126100ef5760408051906104c081836111c4565b6005825260208201917f352e302e3000000000000000000000000000000000000000000000000000000083527fffffffffffffffffffffffffffffffffffffffffffffffffffffffffffffffe0601f8351948593602085525180918160208701528686015e5f85828601015201168101030190f35b346100ef575f7ffffffffffffffffffffffffffffffffffffffffffffffffffffffffffffffffc3601126100ef577ff3177357ab46d8af007ab3fdb9af81da189e1068fefdc0073dca88a2cab40a005460a01c60ff16156105de5760207f8fb36037000000000000000000000000000000000000000000000000000000005b7fffffffff0000000000000000000000000000000000000000000000000000000060405191168152f35b60205f6105b4565b346100ef5760207ffffffffffffffffffffffffffffffffffffffffffffffffffffffffffffffffc3601126100ef5761061d61117e565b73ffffffffffffffffffffffffffffffffffffffff7ff3177357ab46d8af007ab3fdb9af81da189e1068fefdc0073dca88a2cab40a00541633036106af57803b1561066d5761066b9061129b565b005b73ffffffffffffffffffffffffffffffffffffffff907fc2f31e5e000000000000000000000000000000000000000000000000000000005f521660045260245ffd5b7f068ca9d8000000000000000000000000000000000000000000000000000000005f523360045260245ffd5b346100ef575f7ffffffffffffffffffffffffffffffffffffffffffffffffffffffffffffffffc3601126100ef5773ffffffffffffffffffffffffffffffffffffffff7f00000000000000000000000000000000000000000000000000000000000000001630036107705760206040517f360894a13ba1a3210667c828492db98dca3e2076cc3735a920a3ca505d382bbc8152f35b7fe07c8dba000000000000000000000000000000000000000000000000000000005f5260045ffd5b60407ffffffffffffffffffffffffffffffffffffffffffffffffffffffffffffffffc3601126100ef576107ca61117e565b6024359067ffffffffffffffff82116100ef57366023830112156100ef578160040135906107f782611232565b9161080560405193846111c4565b808352602083019336602483830101116100ef57815f9260246020930187378401015273ffffffffffffffffffffffffffffffffffffffff7f000000000000000000000000000000000000000000000000000000000000000016803014908115610c07575b50610770576044604073ffffffffffffffffffffffffffffffffffffffff7fb8e950798a2a06a6f5727a94041b193569f4f67d69a0de3cf866d93822e7fa0054168151928380927fd1f856ee0000000000000000000000000000000000000000000000000000000082525f60048301523360248301525afa8015610bfc575f915f91610bab575b5081610b9c575b5015610b185773ffffffffffffffffffffffffffffffffffffffff8116926040517f52d1902d000000000000000000000000000000000000000000000000000000008152602081600481885afa5f9181610ae4575b5061097e57847f4c9c8ce3000000000000000000000000000000000000000000000000000000005f5260045260245ffd5b807f360894a13ba1a3210667c828492db98dca3e2076cc3735a920a3ca505d382bbc869203610ab95750823b15610a8e57807fffffffffffffffffffffffff00000000000000000000000000000000000000007f360894a13ba1a3210667c828492db98dca3e2076cc3735a920a3ca505d382bbc5416177f360894a13ba1a3210667c828492db98dca3e2076cc3735a920a3ca505d382bbc557fbc7cd75a20ee27fd9adebab32041f755214dbc6bffa90cc0225b39da2e5c2d3b5f80a2825115610a5c575f809161066b945190845af4610a5661126c565b916113ed565b50505034610a6657005b7fb398979f000000000000000000000000000000000000000000000000000000005f5260045ffd5b7f4c9c8ce3000000000000000000000000000000000000000000000000000000005f5260045260245ffd5b7faa1d49a4000000000000000000000000000000000000000000000000000000005f5260045260245ffd5b9091506020813d602011610b10575b81610b00602093836111c4565b810103126100ef5751908661094d565b3d9150610af3565b60846040517f6317e35f00000000000000000000000000000000000000000000000000000000815260206004820152602360248201527f4f6e6c792061646d696e2063616e20706572666f726d2074686973206163746960448201527f6f6e2e00000000000000000000000000000000000000000000000000000000006064820152fd5b63ffffffff91501615846108f8565b9150506040813d604011610bf4575b81610bc7604093836111c4565b810103126100ef5780519081151582036100ef57602001519063ffffffff821682036100ef5790856108f1565b3d9150610bba565b6040513d5f823e3d90fd5b905073ffffffffffffffffffffffffffffffffffffffff7f360894a13ba1a3210667c828492db98dca3e2076cc3735a920a3ca505d382bbc541614158461086a565b346100ef5760807ffffffffffffffffffffffffffffffffffffffffffffffffffffffffffffffffc3601126100ef57610c8061117e565b610c886111a1565b906044359060643567ffffffffffffffff81116100ef57366023820112156100ef5780600401359267ffffffffffffffff84116100ef5736602485840101116100ef5760205f604051828101907f01ffc9a70000000000000000000000000000000000000000000000000000000082527f01ffc9a700000000000000000000000000000000000000000000000000000000602482015260248152610d2d6044826111c4565b519086617530fa5f513d82611172575b5081611168575b50806110d1575b8061103b575b15610ff957610e108110610fd157420191824211610fa4576e5af43d82803e903d91602b57fd5bf360405160208101903360601b82527fffffffffffffffffffffffffffffffffffffffff0000000000000000000000008460601b16603482015285604882015260488152610dc76068826111c4565b51902091763d602d80600a3d3981f3363d3d373d3d3d363d7300000062ffffff8260881c16175f5260781b17602052603760095ff59273ffffffffffffffffffffffffffffffffffffffff8416938415610f7c575f80916040518260208201917f8dac9bbc00000000000000000000000000000000000000000000000000000000835233602482015288604482015260448152610e656064826111c4565b51925af1610e7161126c565b5015610f50577fdcfe08ac848974049eab4f0b767f687fb801bf4225c8c656ce89a688a13cb31e73ffffffffffffffffffffffffffffffffffffffff86836024610ebd60209a33611346565b96875f525f8b5260405f208a7fffffffffffffffffffffffff0000000000000000000000000000000000000000825416179055604051978a89528b890152606060408901528260608901520160808701375f6080858701015216926080817fffffffffffffffffffffffffffffffffffffffffffffffffffffffffffffffe0601f339601168101030190a4604051908152f35b837f778fa859000000000000000000000000000000000000000000000000000000005f5260045260245ffd5b7fb06ebf3d000000000000000000000000000000000000000000000000000000005f5260045ffd5b7f4e487b71000000000000000000000000000000000000000000000000000000005f52601160045260245ffd5b7fb4fa3fb3000000000000000000000000000000000000000000000000000000005f5260045ffd5b73ffffffffffffffffffffffffffffffffffffffff837f31cfaed1000000000000000000000000000000000000000000000000000000005f521660045260245ffd5b5060205f604051828101907f01ffc9a70000000000000000000000000000000000000000000000000000000082527ffc38aaef0000000000000000000000000000000000000000000000000000000060248201526024815261109e6044826111c4565b519086617530fa5f513d826110c5575b50816110bb575b50610d51565b90501515866110b5565b602011159150876110ae565b5060205f604051828101907f01ffc9a70000000000000000000000000000000000000000000000000000000082527fffffffff000000000000000000000000000000000000000000000000000000006024820152602481526111346044826111c4565b519086617530fa5f513d8261115c575b5081611152575b5015610d4b565b905015158661114b565b60201115915087611144565b9050151586610d44565b60201115915087610d3d565b6004359073ffffffffffffffffffffffffffffffffffffffff821682036100ef57565b6024359073ffffffffffffffffffffffffffffffffffffffff821682036100ef57565b90601f7fffffffffffffffffffffffffffffffffffffffffffffffffffffffffffffffe0910116810190811067ffffffffffffffff82111761120557604052565b7f4e487b71000000000000000000000000000000000000000000000000000000005f52604160045260245ffd5b67ffffffffffffffff811161120557601f017fffffffffffffffffffffffffffffffffffffffffffffffffffffffffffffffe01660200190565b3d15611296573d9061127d82611232565b9161128b60405193846111c4565b82523d5f602084013e565b606090565b602073ffffffffffffffffffffffffffffffffffffffff7f2f658b440c35314f52658ea8a740e05b284cdc84dc9ae01e891f21b8933e7cad9216807fffffffffffffffffffffffff00000000000000000000000000000000000000007ff3177357ab46d8af007ab3fdb9af81da189e1068fefdc0073dca88a2cab40a005416177ff3177357ab46d8af007ab3fdb9af81da189e1068fefdc0073dca88a2cab40a0055604051908152a1565b907fffffffffffffffffffffffffffffffffffffffff0000000000000000000000006040519181602084019460601b16845260601b166034820152602881526113906048826111c4565b51902090565b60ff7ff0c57e16840df040f15088dc2f81fe391c3923bec73e23a9662efc9c229c6a005460401c16156113c557565b7fd7e6bcf8000000000000000000000000000000000000000000000000000000005f5260045ffd5b9061142a575080511561140257805190602001fd5b7fd6bda275000000000000000000000000000000000000000000000000000000005f5260045ffd5b8151158061147d575b61143b575090565b73ffffffffffffffffffffffffffffffffffffffff907f9996b315000000000000000000000000000000000000000000000000000000005f521660045260245ffd5b50803b1561143356fea2646970667358221220a3d2efa03c592b7a49e295a36a24704e3371c83619b84b098dc0ab9cd83bae4264736f6c634300081a0033",
    "linkReferences": {}
  },
  "methodIdentifiers": {
    "UPGRADE_INTERFACE_VERSION()": "ad3cb1cc",
    "authority()": "bf7e214f",
    "createCampaign(address,address,uint256,string)": "401e1738",
    "getCampaign(address,address)": "fd72f76d",
    "initialize(address)": "c4d66de8",
    "isConsumingScheduledOp()": "8fb36037",
    "proxiableUUID()": "52d1902d",
    "setAuthority(address)": "7a9e5e4b",
    "upgradeToAndCall(address,bytes)": "4f1ef286"
  },
  "storageLayout": {
    "storage": [
      {
        "astId": 1070,
        "contract": "contracts/incentives/campaigns/CampaignRegistry.sol:CampaignRegistry",
        "label": "_scopes",
        "offset": 0,
        "slot": "0",
        "type": "t_mapping(t_bytes32,t_address)"
      }
    ],
    "types": {
      "t_address": {
        "encoding": "inplace",
        "label": "address",
        "numberOfBytes": "20"
      },
      "t_bytes32": {
        "encoding": "inplace",
        "label": "bytes32",
        "numberOfBytes": "32"
      },
      "t_mapping(t_bytes32,t_address)": {
        "encoding": "mapping",
        "key": "t_bytes32",
        "label": "mapping(bytes32 => address)",
        "numberOfBytes": "32",
        "value": "t_address"
      }
    }
  },
  "id": 3
}