{
  "abi": [
    {
      "type": "constructor",
      "inputs": [
        {
          "name": "ledgerVault",
          "type": "address",
          "internalType": "address"
        },
        {
          "name": "assetOwnership",
          "type": "address",
          "internalType": "address"
        },
        {
          "name": "mmc",
          "type": "address",
          "internalType": "address"
        }
      ],
      "stateMutability": "nonpayable"
    },
    {
      "type": "function",
      "name": "ASSET_OWNERSHIP",
      "inputs": [],
      "outputs": [
        {
          "name": "",
          "type": "address",
          "internalType": "contract IAssetOwnership"
        }
      ],
      "stateMutability": "view"
    },
    {
      "type": "function",
      "name": "LEDGER_VAULT",
      "inputs": [],
      "outputs": [
        {
          "name": "",
          "type": "address",
          "internalType": "contract ILedgerVault"
        }
      ],
      "stateMutability": "view"
    },
    {
      "type": "function",
      "name": "MMC",
      "inputs": [],
      "outputs": [
        {
          "name": "",
          "type": "address",
          "internalType": "address"
        }
      ],
      "stateMutability": "view"
    },
    {
      "type": "function",
      "name": "addFunds",
      "inputs": [
        {
          "name": "amount",
          "type": "uint256",
          "internalType": "uint256"
        }
      ],
      "outputs": [],
      "stateMutability": "nonpayable"
    },
    {
      "type": "function",
      "name": "getFundsAllocation",
      "inputs": [
        {
          "name": "operator",
          "type": "address",
          "internalType": "address"
        }
      ],
      "outputs": [
        {
          "name": "",
          "type": "uint256",
          "internalType": "uint256"
        }
      ],
      "stateMutability": "view"
    },
    {
      "type": "function",
      "name": "getFundsBalance",
      "inputs": [],
      "outputs": [
        {
          "name": "",
          "type": "uint256",
          "internalType": "uint256"
        }
      ],
      "stateMutability": "view"
    },
    {
      "type": "function",
      "name": "getLedgerBalance",
      "inputs": [
        {
          "name": "account",
          "type": "address",
          "internalType": "address"
        },
        {
          "name": "currency",
          "type": "address",
          "internalType": "address"
        }
      ],
      "outputs": [
        {
          "name": "",
          "type": "uint256",
          "internalType": "uint256"
        }
      ],
      "stateMutability": "view"
    },
    {
      "type": "function",
      "name": "getQuotaCounter",
      "inputs": [
        {
          "name": "account",
          "type": "address",
          "internalType": "address"
        }
      ],
      "outputs": [
        {
          "name": "",
          "type": "uint256",
          "internalType": "uint256"
        }
      ],
      "stateMutability": "view"
    },
    {
      "type": "function",
      "name": "getQuotaLimit",
      "inputs": [],
      "outputs": [
        {
          "name": "",
          "type": "uint256",
          "internalType": "uint256"
        }
      ],
      "stateMutability": "view"
    },
    {
      "type": "function",
      "name": "getTotalUsage",
      "inputs": [],
      "outputs": [
        {
          "name": "",
          "type": "uint256",
          "internalType": "uint256"
        }
      ],
      "stateMutability": "view"
    },
    {
      "type": "function",
      "name": "initialize",
      "inputs": [
        {
          "name": "owner",
          "type": "address",
          "internalType": "address"
        },
        {
          "name": "expireAt",
          "type": "uint256",
          "internalType": "uint256"
        }
      ],
      "outputs": [],
      "stateMutability": "nonpayable"
    },
    {
      "type": "function",
      "name": "isActive",
      "inputs": [
        {
          "name": "operator",
          "type": "address",
          "internalType": "address"
        },
        {
          "name": "account",
          "type": "address",
          "internalType": "address"
        }
      ],
      "outputs": [
        {
          "name": "",
          "type": "bool",
          "internalType": "bool"
        }
      ],
      "stateMutability": "view"
    },
    {
      "type": "function",
      "name": "isReady",
      "inputs": [
        {
          "name": "operator",
          "type": "address",
          "internalType": "address"
        }
      ],
      "outputs": [
        {
          "name": "",
          "type": "bool",
          "internalType": "bool"
        }
      ],
      "stateMutability": "view"
    },
    {
      "type": "function",
      "name": "owner",
      "inputs": [],
      "outputs": [
        {
          "name": "",
          "type": "address",
          "internalType": "address"
        }
      ],
      "stateMutability": "view"
    },
    {
      "type": "function",
      "name": "pause",
      "inputs": [],
      "outputs": [],
      "stateMutability": "nonpayable"
    },
    {
      "type": "function",
      "name": "paused",
      "inputs": [],
      "outputs": [
        {
          "name": "",
          "type": "bool",
          "internalType": "bool"
        }
      ],
      "stateMutability": "view"
    },
    {
      "type": "function",
      "name": "removeFunds",
      "inputs": [
        {
          "name": "amount",
          "type": "uint256",
          "internalType": "uint256"
        }
      ],
      "outputs": [],
      "stateMutability": "nonpayable"
    },
    {
      "type": "function",
      "name": "renounceOwnership",
      "inputs": [],
      "outputs": [],
      "stateMutability": "nonpayable"
    },
    {
      "type": "function",
      "name": "run",
      "inputs": [
        {
          "name": "account",
          "type": "address",
          "internalType": "address"
        }
      ],
      "outputs": [
        {
          "name": "",
          "type": "uint256",
          "internalType": "uint256"
        }
      ],
      "stateMutability": "nonpayable"
    },
    {
      "type": "function",
      "name": "setFundsAllocation",
      "inputs": [
        {
          "name": "amount",
          "type": "uint256",
          "internalType": "uint256"
        },
        {
          "name": "operator",
          "type": "address",
          "internalType": "address"
        }
      ],
      "outputs": [],
      "stateMutability": "nonpayable"
    },
    {
      "type": "function",
      "name": "setQuotaLimit",
      "inputs": [
        {
          "name": "limit",
          "type": "uint256",
          "internalType": "uint256"
        }
      ],
      "outputs": [],
      "stateMutability": "nonpayable"
    },
    {
      "type": "function",
      "name": "supportsInterface",
      "inputs": [
        {
          "name": "interfaceId",
          "type": "bytes4",
          "internalType": "bytes4"
        }
      ],
      "outputs": [
        {
          "name": "",
          "type": "bool",
          "internalType": "bool"
        }
      ],
      "stateMutability": "view"
    },
    {
      "type": "function",
      "name": "transferOwnership",
      "inputs": [
        {
          "name": "newOwner",
          "type": "address",
          "internalType": "address"
        }
      ],
      "outputs": [],
      "stateMutability": "nonpayable"
    },
    {
      "type": "function",
      "name": "unpause",
      "inputs": [],
      "outputs": [],
      "stateMutability": "nonpayable"
    },
    {
      "type": "event",
      "name": "CampaignRun",
      "inputs": [
        {
          "name": "account",
          "type": "address",
          "indexed": false,
          "internalType": "address"
        },
        {
          "name": "amount",
          "type": "uint256",
          "indexed": false,
          "internalType": "uint256"
        }
      ],
      "anonymous": false
    },
    {
      "type": "event",
      "name": "ExpirationSet",
      "inputs": [
        {
          "name": "expiration",
          "type": "uint256",
          "indexed": false,
          "internalType": "uint256"
        }
      ],
      "anonymous": false
    },
    {
      "type": "event",
      "name": "FundsAdded",
      "inputs": [
        {
          "name": "amount",
          "type": "uint256",
          "indexed": false,
          "internalType": "uint256"
        }
      ],
      "anonymous": false
    },
    {
      "type": "event",
      "name": "FundsAllocationSet",
      "inputs": [
        {
          "name": "operator",
          "type": "address",
          "indexed": true,
          "internalType": "address"
        },
        {
          "name": "amount",
          "type": "uint256",
          "indexed": false,
          "internalType": "uint256"
        }
      ],
      "anonymous": false
    },
    {
      "type": "event",
      "name": "FundsRemoved",
      "inputs": [
        {
          "name": "amount",
          "type": "uint256",
          "indexed": false,
          "internalType": "uint256"
        }
      ],
      "anonymous": false
    },
    {
      "type": "event",
      "name": "Initialized",
      "inputs": [
        {
          "name": "version",
          "type": "uint64",
          "indexed": false,
          "internalType": "uint64"
        }
      ],
      "anonymous": false
    },
    {
      "type": "event",
      "name": "MaxQuotaLimitSet",
      "inputs": [
        {
          "name": "limit",
          "type": "uint256",
          "indexed": false,
          "internalType": "uint256"
        }
      ],
      "anonymous": false
    },
    {
      "type": "event",
      "name": "OwnershipTransferred",
      "inputs": [
        {
          "name": "previousOwner",
          "type": "address",
          "indexed": true,
          "internalType": "address"
        },
        {
          "name": "newOwner",
          "type": "address",
          "indexed": true,
          "internalType": "address"
        }
      ],
      "anonymous": false
    },
    {
      "type": "event",
      "name": "Paused",
      "inputs": [
        {
          "name": "account",
          "type": "address",
          "indexed": false,
          "internalType": "address"
        }
      ],
      "anonymous": false
    },
    {
      "type": "event",
      "name": "QuotaCounterUpdated",
      "inputs": [
        {
          "name": "counter",
          "type": "uint256",
          "indexed": false,
          "internalType": "uint256"
        }
      ],
      "anonymous": false
    },
    {
      "type": "event",
      "name": "Unpaused",
      "inputs": [
        {
          "name": "account",
          "type": "address",
          "indexed": false,
          "internalType": "address"
        }
      ],
      "anonymous": false
    },
    {
      "type": "error",
      "name": "EnforcedPause",
      "inputs": []
    },
    {
      "type": "error",
      "name": "ExpectedPause",
      "inputs": []
    },
    {
      "type": "error",
      "name": "InvalidInitialization",
      "inputs": []
    },
    {
      "type": "error",
      "name": "InvalidOperationParameters",
      "inputs": []
    },
    {
      "type": "error",
      "name": "NotInitializing",
      "inputs": []
    },
    {
      "type": "error",
      "name": "OperatorNotActive",
      "inputs": [
        {
          "name": "operator",
          "type": "address",
          "internalType": "address"
        }
      ]
    },
    {
      "type": "error",
      "name": "OwnableInvalidOwner",
      "inputs": [
        {
          "name": "owner",
          "type": "address",
          "internalType": "address"
        }
      ]
    },
    {
      "type": "error",
      "name": "OwnableUnauthorizedAccount",
      "inputs": [
        {
          "name": "account",
          "type": "address",
          "internalType": "address"
        }
      ]
    }
  ],
  "bytecode": {
    "object": "0x60e0346101a557601f611c4338819003918201601f19168301916001600160401b038311848410176101a9578084926060946040528339810103126101a557610047816101bd565b906100606040610059602084016101bd565b92016101bd565b917ff0c57e16840df040f15088dc2f81fe391c3923bec73e23a9662efc9c229c6a005460ff8160401c16610196576002600160401b03196001600160401b0382160161012d575b506001600160a01b0390811660a0521660c052608052604051611a7190816101d28239608051818181610565015281816109bf01528181610e5501528181610f3601528181611111015281816112850152818161155301526117ce015260a0518181816105c30152818161078401528181610fff0152611385015260c051816101500152f35b6001600160401b0319166001600160401b039081177ff0c57e16840df040f15088dc2f81fe391c3923bec73e23a9662efc9c229c6a00556040519081527fc7f505b2f371ae2175ee4913f4499e1f2633a7b5936321eed1cdaeb6115181d290602090a15f6100a7565b63f92ee8a960e01b5f5260045ffd5b5f80fd5b634e487b7160e01b5f52604160045260245ffd5b51906001600160a01b03821682036101a55756fe6080806040526004361015610012575f80fd5b5f3560e01c90816301d2c00b146116285750806301ffc9a7146115885780631b07d35b146114c35780632f384523146112675780633552f5a41461123a5780633f4ba83a1461113557806344dea5a7146110e5578063522bb70414610dbe5780635c975abb14610d7d578063715018a614610cc15780638456cb5914610bb95780638da5cb5b14610b675780639f3c2f2214610b22578063a272c51414610951578063a5acfe011461087a578063ae131deb146107c5578063af9427ec146107a8578063bc23e35e14610758578063be9997051461050d578063cd6dc68714610253578063d949b844146101c0578063f2fde38b14610195578063f4058a10146101785763f520d4eb14610124575f80fd5b34610174575f60031936011261017457602060405173ffffffffffffffffffffffffffffffffffffffff7f0000000000000000000000000000000000000000000000000000000000000000168152f35b5f80fd5b34610174575f600319360112610174576020600154604051908152f35b34610174576020600319360112610174576101be6101b1611669565b6101b9611905565b611818565b005b34610174576040600319360112610174576101d9611669565b73ffffffffffffffffffffffffffffffffffffffff61023d6101f961168c565b9273ffffffffffffffffffffffffffffffffffffffff165f527fcb711bda070b7bbcc2b711ef3993cc17677144f4419b29e303bef375c5f40f0060205260405f2090565b91165f52602052602060405f2054604051908152f35b346101745760406003193601126101745761026c611669565b7ff0c57e16840df040f15088dc2f81fe391c3923bec73e23a9662efc9c229c6a005460ff8160401c16159167ffffffffffffffff821680159081610505575b60011490816104fb575b1590816104f2575b506104ca57818360017fffffffffffffffffffffffffffffffffffffffffffffffff00000000000000006103a39516177ff0c57e16840df040f15088dc2f81fe391c3923bec73e23a9662efc9c229c6a0055610475575b5061031d6119e4565b6103256119e4565b61032d6119e4565b7fffffffffffffffffffffffffffffffffffffffffffffffffffffffffffffff007fcd5ed15c6e187e77e9aee88184c21f4f2182ab5827cb3b7e07fbedcd63f0330054167fcd5ed15c6e187e77e9aee88184c21f4f2182ab5827cb3b7e07fbedcd63f033005561039b6119e4565b6101b96119e4565b7f645593ca25d75b795c1ee548367f7aef4ed419bce4ccd5e2a6d19fd296010b6c60206103d26024354261180b565b805f55604051908152a16103e257005b7fffffffffffffffffffffffffffffffffffffffffffffff00ffffffffffffffff7ff0c57e16840df040f15088dc2f81fe391c3923bec73e23a9662efc9c229c6a0054167ff0c57e16840df040f15088dc2f81fe391c3923bec73e23a9662efc9c229c6a00557fc7f505b2f371ae2175ee4913f4499e1f2633a7b5936321eed1cdaeb6115181d2602060405160018152a1005b7fffffffffffffffffffffffffffffffffffffffffffffff0000000000000000001668010000000000000001177ff0c57e16840df040f15088dc2f81fe391c3923bec73e23a9662efc9c229c6a005583610314565b7ff92ee8a9000000000000000000000000000000000000000000000000000000005f5260045ffd5b905015846102bd565b303b1591506102b5565b8491506102ab565b3461017457602060031936011261017457600435610529611905565b80156106d4576040517f2c2eb94a00000000000000000000000000000000000000000000000000000000815233600482015260248101919091527f000000000000000000000000000000000000000000000000000000000000000073ffffffffffffffffffffffffffffffffffffffff8116604483015290602081806064810103815f73ffffffffffffffffffffffffffffffffffffffff7f0000000000000000000000000000000000000000000000000000000000000000165af19081156106c9575f91610677575b7fd30fc8a1b5907be76206421a3040262f1f6aed0d418c05312ef5ff8de0c9ae4c60208385335f527fcb711bda070b7bbcc2b711ef3993cc17677144f4419b29e303bef375c5f40f00835273ffffffffffffffffffffffffffffffffffffffff60405f2091165f52825260405f2061066c82825461180b565b9055604051908152a1005b90506020813d6020116106c1575b81610692602093836116af565b8101031261017457517fd30fc8a1b5907be76206421a3040262f1f6aed0d418c05312ef5ff8de0c9ae4c6105f3565b3d9150610685565b6040513d5f823e3d90fd5b60846040517f08c379a000000000000000000000000000000000000000000000000000000000815260206004820152602760248201527f496e76616c696420616d6f756e7420746f20616c6c6f6361746520696e20636160448201527f6d706169676e2e000000000000000000000000000000000000000000000000006064820152fd5b34610174575f60031936011261017457602060405173ffffffffffffffffffffffffffffffffffffffff7f0000000000000000000000000000000000000000000000000000000000000000168152f35b34610174575f600319360112610174576020600254604051908152f35b346101745760406003193601126101745760206107e0611669565b6107f16107eb61168c565b9161171d565b9073ffffffffffffffffffffffffffffffffffffffff5f5491165f526004835260405f205460015410908261086f575b5081610842575b81610839575b506040519015158152f35b9050158261082e565b7fcd5ed15c6e187e77e9aee88184c21f4f2182ab5827cb3b7e07fbedcd63f033005460ff16159150610828565b421115915083610821565b3461017457602060031936011261017457600435610896611905565b80156108cd576020817f1beffbb9e4f61c417d57ee212c5828675e336f06dca405481e534aac1d62e9be92600155604051908152a1005b60846040517f08c379a000000000000000000000000000000000000000000000000000000000815260206004820152602660248201527f51756f7461206c696d6974206d7573742062652067726561746572207468616e60448201527f207a65726f2e00000000000000000000000000000000000000000000000000006064820152fd5b346101745760406003193601126101745760043561096d61168c565b610975611905565b8115610ac457335f9081527fcb711bda070b7bbcc2b711ef3993cc17677144f4419b29e303bef375c5f40f006020526040902073ffffffffffffffffffffffffffffffffffffffff7f0000000000000000000000000000000000000000000000000000000000000000165f526020528160405f205410610a4057602073ffffffffffffffffffffffffffffffffffffffff7f1316c84929774cd7ab06a38ef62dc46d0069935ab2f4d6b38c0ad99219b0c963921692835f52600382528060405f2055604051908152a2005b60846040517f08c379a000000000000000000000000000000000000000000000000000000000815260206004820152602b60248201527f496e73756666696369656e742066756e647320696e2063616d706169676e207460448201527f6f20616c6c6f636174652e0000000000000000000000000000000000000000006064820152fd5b60646040517f08c379a000000000000000000000000000000000000000000000000000000000815260206004820152601e60248201527f496e76616c6964207a65726f2066756e647320616c6c6f636174696f6e2e00006044820152fd5b346101745760206003193601126101745773ffffffffffffffffffffffffffffffffffffffff610b50611669565b165f526003602052602060405f2054604051908152f35b34610174575f60031936011261017457602073ffffffffffffffffffffffffffffffffffffffff7f9016d09d72d40fdae2fd8ceac6b6234c7706214fd39c1cd1e609a0528c1993005416604051908152f35b34610174575f60031936011261017457610bd1611905565b7fcd5ed15c6e187e77e9aee88184c21f4f2182ab5827cb3b7e07fbedcd63f033005460ff8116610c99577fffffffffffffffffffffffffffffffffffffffffffffffffffffffffffffff0060019116177fcd5ed15c6e187e77e9aee88184c21f4f2182ab5827cb3b7e07fbedcd63f03300557f62e78cea01bee320cd4e420270b5ea74000d11b0c9f74754ebdbfc544b05a2586020604051338152a17f62e78cea01bee320cd4e420270b5ea74000d11b0c9f74754ebdbfc544b05a2586020604051338152a1005b7fd93c0665000000000000000000000000000000000000000000000000000000005f5260045ffd5b34610174575f60031936011261017457610cd9611905565b5f73ffffffffffffffffffffffffffffffffffffffff7f9016d09d72d40fdae2fd8ceac6b6234c7706214fd39c1cd1e609a0528c199300547fffffffffffffffffffffffff000000000000000000000000000000000000000081167f9016d09d72d40fdae2fd8ceac6b6234c7706214fd39c1cd1e609a0528c19930055167f8be0079c531659141344cd1fd0a4f28419497f9722a3daafe3b4186f6b6457e08280a3005b34610174575f60031936011261017457602060ff7fcd5ed15c6e187e77e9aee88184c21f4f2182ab5827cb3b7e07fbedcd63f0330054166040519015158152f35b3461017457602060031936011261017457610dd7611669565b610e827f9016d09d72d40fdae2fd8ceac6b6234c7706214fd39c1cd1e609a0528c1993005473ffffffffffffffffffffffffffffffffffffffff165f9081527fcb711bda070b7bbcc2b711ef3993cc17677144f4419b29e303bef375c5f40f006020526040902073ffffffffffffffffffffffffffffffffffffffff7f0000000000000000000000000000000000000000000000000000000000000000165f5260205260405f205490565b50335f52600360205273ffffffffffffffffffffffffffffffffffffffff60405f2054911690815f52600460205260405f2054600181018091116110b85760207f5c2f7e1f5967870d328c406d8c7814a05bc4da95955a17b1e1dd7467a817f89f91845f52600482528060405f2055604051908152a180610f5d73ffffffffffffffffffffffffffffffffffffffff7f9016d09d72d40fdae2fd8ceac6b6234c7706214fd39c1cd1e609a0528c19930054167f0000000000000000000000000000000000000000000000000000000000000000928391611971565b6002547fffffffffffffffffffffffffffffffffffffffffffffffffffffffffffffffff81146110b8576001016002556040517f1271f09a0000000000000000000000000000000000000000000000000000000081523360048201526024810183905273ffffffffffffffffffffffffffffffffffffffff9091166044820152602081806064810103815f73ffffffffffffffffffffffffffffffffffffffff7f0000000000000000000000000000000000000000000000000000000000000000165af180156106c957611066575b507fb638f37f1e979101c3cd3744eb6842e06952fe75856c0628e6373b30b27069a9604060209381519081528385820152a1604051908152f35b916020833d6020116110b0575b81611080602093836116af565b810103126101745791507fb638f37f1e979101c3cd3744eb6842e06952fe75856c0628e6373b30b27069a961102c565b3d9150611073565b7f4e487b71000000000000000000000000000000000000000000000000000000005f52601160045260245ffd5b34610174575f60031936011261017457602060405173ffffffffffffffffffffffffffffffffffffffff7f0000000000000000000000000000000000000000000000000000000000000000168152f35b34610174575f6003193601126101745761114d611905565b7fcd5ed15c6e187e77e9aee88184c21f4f2182ab5827cb3b7e07fbedcd63f033005460ff811615611212577fffffffffffffffffffffffffffffffffffffffffffffffffffffffffffffff00167fcd5ed15c6e187e77e9aee88184c21f4f2182ab5827cb3b7e07fbedcd63f03300557f5db9ee0a495bf2e6ff9c91a7834c1ba4fdd244a5e8aa4e537bd38aeae4b073aa6020604051338152a17f5db9ee0a495bf2e6ff9c91a7834c1ba4fdd244a5e8aa4e537bd38aeae4b073aa6020604051338152a1005b7f8dfc202b000000000000000000000000000000000000000000000000000000005f5260045ffd5b3461017457602060031936011261017457602061125d611258611669565b61171d565b6040519015158152f35b3461017457602060031936011261017457600435611283611905565b7f0000000000000000000000000000000000000000000000000000000000000000906112ec3373ffffffffffffffffffffffffffffffffffffffff165f527fcb711bda070b7bbcc2b711ef3993cc17677144f4419b29e303bef375c5f40f0060205260405f2090565b73ffffffffffffffffffffffffffffffffffffffff83165f526020528060405f20541061143f576040517fdbba0f01000000000000000000000000000000000000000000000000000000008152336004820152602481019190915273ffffffffffffffffffffffffffffffffffffffff82166044820152602081806064810103815f73ffffffffffffffffffffffffffffffffffffffff7f0000000000000000000000000000000000000000000000000000000000000000165af19081156106c9575f916113ed575b7fb118ca2babba7ee83167f658e6d0fdbf20f4e30dbd0119aac17a1ec30ad970006020836113e4868233611971565b604051908152a1005b90506020813d602011611437575b81611408602093836116af565b8101031261017457517fb118ca2babba7ee83167f658e6d0fdbf20f4e30dbd0119aac17a1ec30ad970006113b5565b3d91506113fb565b60846040517f08c379a000000000000000000000000000000000000000000000000000000000815260206004820152602960248201527f496e73756666696369656e742066756e647320616c6c6f636174656420696e2060448201527f63616d706169676e2e00000000000000000000000000000000000000000000006064820152fd5b34610174575f6003193601126101745760206115807f9016d09d72d40fdae2fd8ceac6b6234c7706214fd39c1cd1e609a0528c1993005473ffffffffffffffffffffffffffffffffffffffff165f9081527fcb711bda070b7bbcc2b711ef3993cc17677144f4419b29e303bef375c5f40f006020526040902073ffffffffffffffffffffffffffffffffffffffff7f0000000000000000000000000000000000000000000000000000000000000000165f5260205260405f205490565b604051908152f35b34610174576020600319360112610174576004357fffffffff00000000000000000000000000000000000000000000000000000000811680910361017457807ffc38aaef00000000000000000000000000000000000000000000000000000000602092149081156115fe57506040519015158152f35b7f01ffc9a7000000000000000000000000000000000000000000000000000000009150148261082e565b346101745760206003193601126101745760209073ffffffffffffffffffffffffffffffffffffffff611659611669565b165f526004825260405f20548152f35b6004359073ffffffffffffffffffffffffffffffffffffffff8216820361017457565b6024359073ffffffffffffffffffffffffffffffffffffffff8216820361017457565b90601f7fffffffffffffffffffffffffffffffffffffffffffffffffffffffffffffffe0910116810190811067ffffffffffffffff8211176116f057604052565b7f4e487b71000000000000000000000000000000000000000000000000000000005f52604160045260245ffd5b73ffffffffffffffffffffffffffffffffffffffff165f52600360205260405f2054151580611800575b8061174f5790565b506117fb7f9016d09d72d40fdae2fd8ceac6b6234c7706214fd39c1cd1e609a0528c1993005473ffffffffffffffffffffffffffffffffffffffff165f9081527fcb711bda070b7bbcc2b711ef3993cc17677144f4419b29e303bef375c5f40f006020526040902073ffffffffffffffffffffffffffffffffffffffff7f0000000000000000000000000000000000000000000000000000000000000000165f5260205260405f205490565b151590565b506001541515611747565b919082018092116110b857565b73ffffffffffffffffffffffffffffffffffffffff1680156118d95773ffffffffffffffffffffffffffffffffffffffff7f9016d09d72d40fdae2fd8ceac6b6234c7706214fd39c1cd1e609a0528c19930054827fffffffffffffffffffffffff00000000000000000000000000000000000000008216177f9016d09d72d40fdae2fd8ceac6b6234c7706214fd39c1cd1e609a0528c19930055167f8be0079c531659141344cd1fd0a4f28419497f9722a3daafe3b4186f6b6457e05f80a3565b7f1e4fbdf7000000000000000000000000000000000000000000000000000000005f525f60045260245ffd5b73ffffffffffffffffffffffffffffffffffffffff7f9016d09d72d40fdae2fd8ceac6b6234c7706214fd39c1cd1e609a0528c1993005416330361194557565b7f118cdaa7000000000000000000000000000000000000000000000000000000005f523360045260245ffd5b73ffffffffffffffffffffffffffffffffffffffff90929192165f527fcb711bda070b7bbcc2b711ef3993cc17677144f4419b29e303bef375c5f40f0060205273ffffffffffffffffffffffffffffffffffffffff60405f2091165f5260205260405f2080549182039182116110b85755565b60ff7ff0c57e16840df040f15088dc2f81fe391c3923bec73e23a9662efc9c229c6a005460401c1615611a1357565b7fd7e6bcf8000000000000000000000000000000000000000000000000000000005f5260045ffdfea2646970667358221220f6046216a8b57a85afb1afd29066e0c1dae90d49636819884a0c05cc427ef92264736f6c634300081a0033",
    "linkReferences": {}
  },
  "methodIdentifiers": {
    "ASSET_OWNERSHIP()": "f520d4eb",
    "LEDGER_VAULT()": "bc23e35e",
    "MMC()": "44dea5a7",
    "addFunds(uint256)": "be999705",
    "getFundsAllocation(address)": "9f3c2f22",
    "getFundsBalance()": "1b07d35b",
    "getLedgerBalance(address,address)": "d949b844",
    "getQuotaCounter(address)": "01d2c00b",
    "getQuotaLimit()": "f4058a10",
    "getTotalUsage()": "af9427ec",
    "initialize(address,uint256)": "cd6dc687",
    "isActive(address,address)": "ae131deb",
    "isReady(address)": "3552f5a4",
    "owner()": "8da5cb5b",
    "pause()": "8456cb59",
    "paused()": "5c975abb",
    "removeFunds(uint256)": "2f384523",
    "renounceOwnership()": "715018a6",
    "run(address)": "522bb704",
    "setFundsAllocation(uint256,address)": "a272c514",
    "setQuotaLimit(uint256)": "a5acfe01",
    "supportsInterface(bytes4)": "01ffc9a7",
    "transferOwnership(address)": "f2fde38b",
    "unpause()": "3f4ba83a"
  },
  "storageLayout": {
    "storage": [
      {
        "astId": 44,
        "contract": "contracts/incentives/campaigns/sponsored/CampaignSubscriptionTpl.sol:CampaignSubscriptionTpl",
        "label": "_expires",
        "offset": 0,
        "slot": "0",
        "type": "t_uint256"
      },
      {
        "astId": 46,
        "contract": "contracts/incentives/campaigns/sponsored/CampaignSubscriptionTpl.sol:CampaignSubscriptionTpl",
        "label": "_quotaLimits",
        "offset": 0,
        "slot": "1",
        "type": "t_uint256"
      },
      {
        "astId": 48,
        "contract": "contracts/incentives/campaigns/sponsored/CampaignSubscriptionTpl.sol:CampaignSubscriptionTpl",
        "label": "_globalQuotaCounter",
        "offset": 0,
        "slot": "2",
        "type": "t_uint256"
      },
      {
        "astId": 53,
        "contract": "contracts/incentives/campaigns/sponsored/CampaignSubscriptionTpl.sol:CampaignSubscriptionTpl",
        "label": "_allocation",
        "offset": 0,
        "slot": "3",
        "type": "t_mapping(t_address,t_uint256)"
      },
      {
        "astId": 57,
        "contract": "contracts/incentives/campaigns/sponsored/CampaignSubscriptionTpl.sol:CampaignSubscriptionTpl",
        "label": "_quotaCounter",
        "offset": 0,
        "slot": "4",
        "type": "t_mapping(t_address,t_uint256)"
      }
    ],
    "types": {
      "t_address": {
        "encoding": "inplace",
        "label": "address",
        "numberOfBytes": "20"
      },
      "t_mapping(t_address,t_uint256)": {
        "encoding": "mapping",
        "key": "t_address",
        "label": "mapping(address => uint256)",
        "numberOfBytes": "32",
        "value": "t_uint256"
      },
      "t_uint256": {
        "encoding": "inplace",
        "label": "uint256",
        "numberOfBytes": "32"
      }
    }
  },
  "id": 1
}