{"abi":[{"type":"constructor","inputs":[{"name":"ledgerVault","type":"address","internalType":"address"},{"name":"assetOwnership","type":"address","internalType":"address"},{"name":"mmc","type":"address","internalType":"address"}],"stateMutability":"nonpayable"},{"type":"function","name":"ASSET_OWNERSHIP","inputs":[],"outputs":[{"name":"","type":"address","internalType":"contract IAssetOwnership"}],"stateMutability":"view"},{"type":"function","name":"LEDGER_VAULT","inputs":[],"outputs":[{"name":"","type":"address","internalType":"contract ILedgerVault"}],"stateMutability":"view"},{"type":"function","name":"MMC","inputs":[],"outputs":[{"name":"","type":"address","internalType":"address"}],"stateMutability":"view"},{"type":"function","name":"addFunds","inputs":[{"name":"amount","type":"uint256","internalType":"uint256"}],"outputs":[],"stateMutability":"nonpayable"},{"type":"function","name":"getFundsAllocation","inputs":[{"name":"operator","type":"address","internalType":"address"}],"outputs":[{"name":"","type":"uint256","internalType":"uint256"}],"stateMutability":"view"},{"type":"function","name":"getFundsBalance","inputs":[],"outputs":[{"name":"","type":"uint256","internalType":"uint256"}],"stateMutability":"view"},{"type":"function","name":"getLedgerBalance","inputs":[{"name":"account","type":"address","internalType":"address"},{"name":"currency","type":"address","internalType":"address"}],"outputs":[{"name":"","type":"uint256","internalType":"uint256"}],"stateMutability":"view"},{"type":"function","name":"getQuotaCounter","inputs":[{"name":"account","type":"address","internalType":"address"}],"outputs":[{"name":"","type":"uint256","internalType":"uint256"}],"stateMutability":"view"},{"type":"function","name":"getQuotaLimit","inputs":[],"outputs":[{"name":"","type":"uint256","internalType":"uint256"}],"stateMutability":"view"},{"type":"function","name":"getTotalUsage","inputs":[],"outputs":[{"name":"","type":"uint256","internalType":"uint256"}],"stateMutability":"view"},{"type":"function","name":"initialize","inputs":[{"name":"owner","type":"address","internalType":"address"},{"name":"expireAt","type":"uint256","internalType":"uint256"}],"outputs":[],"stateMutability":"nonpayable"},{"type":"function","name":"isActive","inputs":[{"name":"operator","type":"address","internalType":"address"},{"name":"account","type":"address","internalType":"address"}],"outputs":[{"name":"","type":"bool","internalType":"bool"}],"stateMutability":"view"},{"type":"function","name":"owner","inputs":[],"outputs":[{"name":"","type":"address","internalType":"address"}],"stateMutability":"view"},{"type":"function","name":"pause","inputs":[],"outputs":[],"stateMutability":"nonpayable"},{"type":"function","name":"paused","inputs":[],"outputs":[{"name":"","type":"bool","internalType":"bool"}],"stateMutability":"view"},{"type":"function","name":"removeFunds","inputs":[{"name":"amount","type":"uint256","internalType":"uint256"}],"outputs":[],"stateMutability":"nonpayable"},{"type":"function","name":"renounceOwnership","inputs":[],"outputs":[],"stateMutability":"nonpayable"},{"type":"function","name":"run","inputs":[{"name":"account","type":"address","internalType":"address"}],"outputs":[{"name":"","type":"uint256","internalType":"uint256"}],"stateMutability":"nonpayable"},{"type":"function","name":"setFundsAllocation","inputs":[{"name":"amount","type":"uint256","internalType":"uint256"},{"name":"operator","type":"address","internalType":"address"}],"outputs":[],"stateMutability":"nonpayable"},{"type":"function","name":"setQuotaLimit","inputs":[{"name":"limit","type":"uint256","internalType":"uint256"}],"outputs":[],"stateMutability":"nonpayable"},{"type":"function","name":"supportsInterface","inputs":[{"name":"interfaceId","type":"bytes4","internalType":"bytes4"}],"outputs":[{"name":"","type":"bool","internalType":"bool"}],"stateMutability":"view"},{"type":"function","name":"transferOwnership","inputs":[{"name":"newOwner","type":"address","internalType":"address"}],"outputs":[],"stateMutability":"nonpayable"},{"type":"function","name":"unpause","inputs":[],"outputs":[],"stateMutability":"nonpayable"},{"type":"event","name":"CampaignRun","inputs":[{"name":"account","type":"address","indexed":false,"internalType":"address"},{"name":"amount","type":"uint256","indexed":false,"internalType":"uint256"}],"anonymous":false},{"type":"event","name":"ExpirationSet","inputs":[{"name":"expiration","type":"uint256","indexed":false,"internalType":"uint256"}],"anonymous":false},{"type":"event","name":"FundsAdded","inputs":[{"name":"amount","type":"uint256","indexed":false,"internalType":"uint256"}],"anonymous":false},{"type":"event","name":"FundsAllocationSet","inputs":[{"name":"operator","type":"address","indexed":true,"internalType":"address"},{"name":"amount","type":"uint256","indexed":false,"internalType":"uint256"}],"anonymous":false},{"type":"event","name":"FundsRemoved","inputs":[{"name":"amount","type":"uint256","indexed":false,"internalType":"uint256"}],"anonymous":false},{"type":"event","name":"Initialized","inputs":[{"name":"version","type":"uint64","indexed":false,"internalType":"uint64"}],"anonymous":false},{"type":"event","name":"MaxQuotaLimitSet","inputs":[{"name":"limit","type":"uint256","indexed":false,"internalType":"uint256"}],"anonymous":false},{"type":"event","name":"OwnershipTransferred","inputs":[{"name":"previousOwner","type":"address","indexed":true,"internalType":"address"},{"name":"newOwner","type":"address","indexed":true,"internalType":"address"}],"anonymous":false},{"type":"event","name":"Paused","inputs":[{"name":"account","type":"address","indexed":false,"internalType":"address"}],"anonymous":false},{"type":"event","name":"QuotaCounterUpdated","inputs":[{"name":"counter","type":"uint256","indexed":false,"internalType":"uint256"}],"anonymous":false},{"type":"event","name":"Unpaused","inputs":[{"name":"account","type":"address","indexed":false,"internalType":"address"}],"anonymous":false},{"type":"error","name":"EnforcedPause","inputs":[]},{"type":"error","name":"ExpectedPause","inputs":[]},{"type":"error","name":"InvalidInitialization","inputs":[]},{"type":"error","name":"InvalidOperationParameters","inputs":[]},{"type":"error","name":"NotInitializing","inputs":[]},{"type":"error","name":"OperatorNotActive","inputs":[{"name":"operator","type":"address","internalType":"address"}]},{"type":"error","name":"OwnableInvalidOwner","inputs":[{"name":"owner","type":"address","internalType":"address"}]},{"type":"error","name":"OwnableUnauthorizedAccount","inputs":[{"name":"account","type":"address","internalType":"address"}]}],"bytecode":{"object":"0x60e03461019757601f611d2b38819003918201601f19168301916001600160401b0383118484101761019b5780849260609460405283398101031261019757610047816101af565b906100606040610059602084016101af565b92016101af565b917ff0c57e16840df040f15088dc2f81fe391c3923bec73e23a9662efc9c229c6a005460ff8160401c16610188576002600160401b03196001600160401b0382160161011f575b506001600160a01b0390811660a0521660c052608052604051611b6790816101c4823960805181818161055a0152818161093501528181610dab01528181611259015281816113a00152611669015260a0518181816105b80152818161077901528181610f8f01526114a0015260c051816101450152f35b6001600160401b0319166001600160401b039081177ff0c57e16840df040f15088dc2f81fe391c3923bec73e23a9662efc9c229c6a00556040519081527fc7f505b2f371ae2175ee4913f4499e1f2633a7b5936321eed1cdaeb6115181d290602090a15f6100a7565b63f92ee8a960e01b5f5260045ffd5b5f80fd5b634e487b7160e01b5f52604160045260245ffd5b51906001600160a01b03821682036101975756fe6080806040526004361015610012575f80fd5b5f3560e01c90816301d2c00b1461173e5750806301ffc9a71461169d5780631b07d35b146115de5780632f384523146113825780633f4ba83a1461127d57806344dea5a71461122d578063522bb70414610d345780635c975abb14610cf3578063715018a614610c375780638456cb5914610b2f5780638da5cb5b14610add5780639f3c2f2214610a98578063a272c514146108c7578063a5acfe01146107f0578063ae131deb146107ba578063af9427ec1461079d578063bc23e35e1461074d578063be99970514610502578063cd6dc68714610248578063d949b844146101b5578063f2fde38b1461018a578063f4058a101461016d5763f520d4eb14610119575f80fd5b34610169575f60031936011261016957602060405173ffffffffffffffffffffffffffffffffffffffff7f0000000000000000000000000000000000000000000000000000000000000000168152f35b5f80fd5b34610169575f600319360112610169576020600154604051908152f35b34610169576020600319360112610169576101b36101a661177f565b6101ae6119fb565b61190e565b005b34610169576040600319360112610169576101ce61177f565b73ffffffffffffffffffffffffffffffffffffffff6102326101ee6117a2565b9273ffffffffffffffffffffffffffffffffffffffff165f527fcb711bda070b7bbcc2b711ef3993cc17677144f4419b29e303bef375c5f40f0060205260405f2090565b91165f52602052602060405f2054604051908152f35b346101695760406003193601126101695761026161177f565b7ff0c57e16840df040f15088dc2f81fe391c3923bec73e23a9662efc9c229c6a005460ff8160401c16159167ffffffffffffffff8216801590816104fa575b60011490816104f0575b1590816104e7575b506104bf57818360017fffffffffffffffffffffffffffffffffffffffffffffffff00000000000000006103989516177ff0c57e16840df040f15088dc2f81fe391c3923bec73e23a9662efc9c229c6a005561046a575b50610312611ada565b61031a611ada565b610322611ada565b7fffffffffffffffffffffffffffffffffffffffffffffffffffffffffffffff007fcd5ed15c6e187e77e9aee88184c21f4f2182ab5827cb3b7e07fbedcd63f0330054167fcd5ed15c6e187e77e9aee88184c21f4f2182ab5827cb3b7e07fbedcd63f0330055610390611ada565b6101ae611ada565b7f645593ca25d75b795c1ee548367f7aef4ed419bce4ccd5e2a6d19fd296010b6c60206103c760243542611833565b805f55604051908152a16103d757005b7fffffffffffffffffffffffffffffffffffffffffffffff00ffffffffffffffff7ff0c57e16840df040f15088dc2f81fe391c3923bec73e23a9662efc9c229c6a0054167ff0c57e16840df040f15088dc2f81fe391c3923bec73e23a9662efc9c229c6a00557fc7f505b2f371ae2175ee4913f4499e1f2633a7b5936321eed1cdaeb6115181d2602060405160018152a1005b7fffffffffffffffffffffffffffffffffffffffffffffff0000000000000000001668010000000000000001177ff0c57e16840df040f15088dc2f81fe391c3923bec73e23a9662efc9c229c6a005583610309565b7ff92ee8a9000000000000000000000000000000000000000000000000000000005f5260045ffd5b905015846102b2565b303b1591506102aa565b8491506102a0565b346101695760206003193601126101695760043561051e6119fb565b80156106c9576040517f2c2eb94a00000000000000000000000000000000000000000000000000000000815233600482015260248101919091527f000000000000000000000000000000000000000000000000000000000000000073ffffffffffffffffffffffffffffffffffffffff8116604483015290602081806064810103815f73ffffffffffffffffffffffffffffffffffffffff7f0000000000000000000000000000000000000000000000000000000000000000165af19081156106be575f9161066c575b7fd30fc8a1b5907be76206421a3040262f1f6aed0d418c05312ef5ff8de0c9ae4c60208385335f527fcb711bda070b7bbcc2b711ef3993cc17677144f4419b29e303bef375c5f40f00835273ffffffffffffffffffffffffffffffffffffffff60405f2091165f52825260405f20610661828254611833565b9055604051908152a1005b90506020813d6020116106b6575b81610687602093836117c5565b8101031261016957517fd30fc8a1b5907be76206421a3040262f1f6aed0d418c05312ef5ff8de0c9ae4c6105e8565b3d915061067a565b6040513d5f823e3d90fd5b60846040517f08c379a000000000000000000000000000000000000000000000000000000000815260206004820152602760248201527f496e76616c696420616d6f756e7420746f20616c6c6f6361746520696e20636160448201527f6d706169676e2e000000000000000000000000000000000000000000000000006064820152fd5b34610169575f60031936011261016957602060405173ffffffffffffffffffffffffffffffffffffffff7f0000000000000000000000000000000000000000000000000000000000000000168152f35b34610169575f600319360112610169576020600254604051908152f35b346101695760406003193601126101695760206107e66107d861177f565b6107e06117a2565b90611840565b6040519015158152f35b346101695760206003193601126101695760043561080c6119fb565b8015610843576020817f1beffbb9e4f61c417d57ee212c5828675e336f06dca405481e534aac1d62e9be92600155604051908152a1005b60846040517f08c379a000000000000000000000000000000000000000000000000000000000815260206004820152602660248201527f51756f7461206c696d6974206d7573742062652067726561746572207468616e60448201527f207a65726f2e00000000000000000000000000000000000000000000000000006064820152fd5b34610169576040600319360112610169576004356108e36117a2565b6108eb6119fb565b8115610a3a57335f9081527fcb711bda070b7bbcc2b711ef3993cc17677144f4419b29e303bef375c5f40f006020526040902073ffffffffffffffffffffffffffffffffffffffff7f0000000000000000000000000000000000000000000000000000000000000000165f526020528160405f2054106109b657602073ffffffffffffffffffffffffffffffffffffffff7f1316c84929774cd7ab06a38ef62dc46d0069935ab2f4d6b38c0ad99219b0c963921692835f52600382528060405f2055604051908152a2005b60846040517f08c379a000000000000000000000000000000000000000000000000000000000815260206004820152602b60248201527f496e73756666696369656e742066756e647320696e2063616d706169676e207460448201527f6f20616c6c6f636174652e0000000000000000000000000000000000000000006064820152fd5b60646040517f08c379a000000000000000000000000000000000000000000000000000000000815260206004820152601e60248201527f496e76616c6964207a65726f2066756e647320616c6c6f636174696f6e2e00006044820152fd5b346101695760206003193601126101695773ffffffffffffffffffffffffffffffffffffffff610ac661177f565b165f526003602052602060405f2054604051908152f35b34610169575f60031936011261016957602073ffffffffffffffffffffffffffffffffffffffff7f9016d09d72d40fdae2fd8ceac6b6234c7706214fd39c1cd1e609a0528c1993005416604051908152f35b34610169575f60031936011261016957610b476119fb565b7fcd5ed15c6e187e77e9aee88184c21f4f2182ab5827cb3b7e07fbedcd63f033005460ff8116610c0f577fffffffffffffffffffffffffffffffffffffffffffffffffffffffffffffff0060019116177fcd5ed15c6e187e77e9aee88184c21f4f2182ab5827cb3b7e07fbedcd63f03300557f62e78cea01bee320cd4e420270b5ea74000d11b0c9f74754ebdbfc544b05a2586020604051338152a17f62e78cea01bee320cd4e420270b5ea74000d11b0c9f74754ebdbfc544b05a2586020604051338152a1005b7fd93c0665000000000000000000000000000000000000000000000000000000005f5260045ffd5b34610169575f60031936011261016957610c4f6119fb565b5f73ffffffffffffffffffffffffffffffffffffffff7f9016d09d72d40fdae2fd8ceac6b6234c7706214fd39c1cd1e609a0528c199300547fffffffffffffffffffffffff000000000000000000000000000000000000000081167f9016d09d72d40fdae2fd8ceac6b6234c7706214fd39c1cd1e609a0528c19930055167f8be0079c531659141344cd1fd0a4f28419497f9722a3daafe3b4186f6b6457e08280a3005b34610169575f60031936011261016957602060ff7fcd5ed15c6e187e77e9aee88184c21f4f2182ab5827cb3b7e07fbedcd63f0330054166040519015158152f35b3461016957602060031936011261016957610d4d61177f565b610d578133611840565b6112015760015490335f52600360205260405f20549073ffffffffffffffffffffffffffffffffffffffff7f9016d09d72d40fdae2fd8ceac6b6234c7706214fd39c1cd1e609a0528c199300541690610e0e7f00000000000000000000000000000000000000000000000000000000000000009273ffffffffffffffffffffffffffffffffffffffff165f527fcb711bda070b7bbcc2b711ef3993cc17677144f4419b29e303bef375c5f40f0060205260405f2090565b73ffffffffffffffffffffffffffffffffffffffff83165f5260205273ffffffffffffffffffffffffffffffffffffffff60405f2054911693845f52600460205260405f205491841561117d5784116110f95781101561107557600181018091116110485760207f5c2f7e1f5967870d328c406d8c7814a05bc4da95955a17b1e1dd7467a817f89f91855f52600482528060405f2055604051908152a1610eed818373ffffffffffffffffffffffffffffffffffffffff7f9016d09d72d40fdae2fd8ceac6b6234c7706214fd39c1cd1e609a0528c1993005416611a67565b6002547fffffffffffffffffffffffffffffffffffffffffffffffffffffffffffffffff8114611048576001016002556040517f1271f09a0000000000000000000000000000000000000000000000000000000081523360048201526024810183905273ffffffffffffffffffffffffffffffffffffffff9091166044820152602081806064810103815f73ffffffffffffffffffffffffffffffffffffffff7f0000000000000000000000000000000000000000000000000000000000000000165af180156106be57610ff6575b507fb638f37f1e979101c3cd3744eb6842e06952fe75856c0628e6373b30b27069a9604060209381519081528385820152a1604051908152f35b916020833d602011611040575b81611010602093836117c5565b810103126101695791507fb638f37f1e979101c3cd3744eb6842e06952fe75856c0628e6373b30b27069a9610fbc565b3d9150611003565b7f4e487b71000000000000000000000000000000000000000000000000000000005f52601160045260245ffd5b60846040517f08c379a000000000000000000000000000000000000000000000000000000000815260206004820152602a60248201527f4578636565646564206d61782073706f6e736f7265642061636365737320696e60448201527f2063616d706169676e2e000000000000000000000000000000000000000000006064820152fd5b60846040517f08c379a000000000000000000000000000000000000000000000000000000000815260206004820152602760248201527f4e6f2066756e647320746f2073706f6e736f722061636365737320696e20636160448201527f6d706169676e2e000000000000000000000000000000000000000000000000006064820152fd5b60846040517f08c379a000000000000000000000000000000000000000000000000000000000815260206004820152602560248201527f4e6f2066756e647320616c6c6f636174656420666f7220746869732063616d7060448201527f6169676e2e0000000000000000000000000000000000000000000000000000006064820152fd5b7fe356d5aa000000000000000000000000000000000000000000000000000000005f523360045260245ffd5b34610169575f60031936011261016957602060405173ffffffffffffffffffffffffffffffffffffffff7f0000000000000000000000000000000000000000000000000000000000000000168152f35b34610169575f600319360112610169576112956119fb565b7fcd5ed15c6e187e77e9aee88184c21f4f2182ab5827cb3b7e07fbedcd63f033005460ff81161561135a577fffffffffffffffffffffffffffffffffffffffffffffffffffffffffffffff00167fcd5ed15c6e187e77e9aee88184c21f4f2182ab5827cb3b7e07fbedcd63f03300557f5db9ee0a495bf2e6ff9c91a7834c1ba4fdd244a5e8aa4e537bd38aeae4b073aa6020604051338152a17f5db9ee0a495bf2e6ff9c91a7834c1ba4fdd244a5e8aa4e537bd38aeae4b073aa6020604051338152a1005b7f8dfc202b000000000000000000000000000000000000000000000000000000005f5260045ffd5b346101695760206003193601126101695760043561139e6119fb565b7f0000000000000000000000000000000000000000000000000000000000000000906114073373ffffffffffffffffffffffffffffffffffffffff165f527fcb711bda070b7bbcc2b711ef3993cc17677144f4419b29e303bef375c5f40f0060205260405f2090565b73ffffffffffffffffffffffffffffffffffffffff83165f526020528060405f20541061155a576040517fdbba0f01000000000000000000000000000000000000000000000000000000008152336004820152602481019190915273ffffffffffffffffffffffffffffffffffffffff82166044820152602081806064810103815f73ffffffffffffffffffffffffffffffffffffffff7f0000000000000000000000000000000000000000000000000000000000000000165af19081156106be575f91611508575b7fb118ca2babba7ee83167f658e6d0fdbf20f4e30dbd0119aac17a1ec30ad970006020836114ff868233611a67565b604051908152a1005b90506020813d602011611552575b81611523602093836117c5565b8101031261016957517fb118ca2babba7ee83167f658e6d0fdbf20f4e30dbd0119aac17a1ec30ad970006114d0565b3d9150611516565b60846040517f08c379a000000000000000000000000000000000000000000000000000000000815260206004820152602960248201527f496e73756666696369656e742066756e647320616c6c6f636174656420696e2060448201527f63616d706169676e2e00000000000000000000000000000000000000000000006064820152fd5b34610169575f600319360112610169577f9016d09d72d40fdae2fd8ceac6b6234c7706214fd39c1cd1e609a0528c1993005473ffffffffffffffffffffffffffffffffffffffff165f9081527fcb711bda070b7bbcc2b711ef3993cc17677144f4419b29e303bef375c5f40f006020526040902073ffffffffffffffffffffffffffffffffffffffff7f0000000000000000000000000000000000000000000000000000000000000000165f52602052602060405f2054604051908152f35b34610169576020600319360112610169576004357fffffffff00000000000000000000000000000000000000000000000000000000811680910361016957807ffc38aaef0000000000000000000000000000000000000000000000000000000060209214908115611714575b506040519015158152f35b7f01ffc9a70000000000000000000000000000000000000000000000000000000091501482611709565b346101695760206003193601126101695760209073ffffffffffffffffffffffffffffffffffffffff61176f61177f565b165f526004825260405f20548152f35b6004359073ffffffffffffffffffffffffffffffffffffffff8216820361016957565b6024359073ffffffffffffffffffffffffffffffffffffffff8216820361016957565b90601f7fffffffffffffffffffffffffffffffffffffffffffffffffffffffffffffffe0910116810190811067ffffffffffffffff82111761180657604052565b7f4e487b71000000000000000000000000000000000000000000000000000000005f52604160045260245ffd5b9190820180921161104857565b905f54906001549081151593846118cb575b5073ffffffffffffffffffffffffffffffffffffffff165f52600460205260405f20541190826118c0575b5081611893575b8161188d575090565b90501590565b7fcd5ed15c6e187e77e9aee88184c21f4f2182ab5827cb3b7e07fbedcd63f033005460ff16159150611884565b42111591505f61187d565b73ffffffffffffffffffffffffffffffffffffffff919450165f52600360205273ffffffffffffffffffffffffffffffffffffffff60405f205415159390611852565b73ffffffffffffffffffffffffffffffffffffffff1680156119cf5773ffffffffffffffffffffffffffffffffffffffff7f9016d09d72d40fdae2fd8ceac6b6234c7706214fd39c1cd1e609a0528c19930054827fffffffffffffffffffffffff00000000000000000000000000000000000000008216177f9016d09d72d40fdae2fd8ceac6b6234c7706214fd39c1cd1e609a0528c19930055167f8be0079c531659141344cd1fd0a4f28419497f9722a3daafe3b4186f6b6457e05f80a3565b7f1e4fbdf7000000000000000000000000000000000000000000000000000000005f525f60045260245ffd5b73ffffffffffffffffffffffffffffffffffffffff7f9016d09d72d40fdae2fd8ceac6b6234c7706214fd39c1cd1e609a0528c19930054163303611a3b57565b7f118cdaa7000000000000000000000000000000000000000000000000000000005f523360045260245ffd5b73ffffffffffffffffffffffffffffffffffffffff90929192165f527fcb711bda070b7bbcc2b711ef3993cc17677144f4419b29e303bef375c5f40f0060205273ffffffffffffffffffffffffffffffffffffffff60405f2091165f5260205260405f2080549182039182116110485755565b60ff7ff0c57e16840df040f15088dc2f81fe391c3923bec73e23a9662efc9c229c6a005460401c1615611b0957565b7fd7e6bcf8000000000000000000000000000000000000000000000000000000005f5260045ffdfea2646970667358221220303ca8ac80c814c9ab1be099c1a750be59232570a0c210e52c8fc3881d995ff364736f6c634300081a0033","linkReferences":{}},"methodIdentifiers":{"ASSET_OWNERSHIP()":"f520d4eb","LEDGER_VAULT()":"bc23e35e","MMC()":"44dea5a7","addFunds(uint256)":"be999705","getFundsAllocation(address)":"9f3c2f22","getFundsBalance()":"1b07d35b","getLedgerBalance(address,address)":"d949b844","getQuotaCounter(address)":"01d2c00b","getQuotaLimit()":"f4058a10","getTotalUsage()":"af9427ec","initialize(address,uint256)":"cd6dc687","isActive(address,address)":"ae131deb","owner()":"8da5cb5b","pause()":"8456cb59","paused()":"5c975abb","removeFunds(uint256)":"2f384523","renounceOwnership()":"715018a6","run(address)":"522bb704","setFundsAllocation(uint256,address)":"a272c514","setQuotaLimit(uint256)":"a5acfe01","supportsInterface(bytes4)":"01ffc9a7","transferOwnership(address)":"f2fde38b","unpause()":"3f4ba83a"},"storageLayout":{"storage":[{"astId":372,"contract":"contracts/incentives/campaigns/sponsored/CampaignSubscriptionTpl.sol:CampaignSubscriptionTpl","label":"_expires","offset":0,"slot":"0","type":"t_uint256"},{"astId":374,"contract":"contracts/incentives/campaigns/sponsored/CampaignSubscriptionTpl.sol:CampaignSubscriptionTpl","label":"_quotaLimits","offset":0,"slot":"1","type":"t_uint256"},{"astId":376,"contract":"contracts/incentives/campaigns/sponsored/CampaignSubscriptionTpl.sol:CampaignSubscriptionTpl","label":"_globalQuotaCounter","offset":0,"slot":"2","type":"t_uint256"},{"astId":381,"contract":"contracts/incentives/campaigns/sponsored/CampaignSubscriptionTpl.sol:CampaignSubscriptionTpl","label":"_allocation","offset":0,"slot":"3","type":"t_mapping(t_address,t_uint256)"},{"astId":385,"contract":"contracts/incentives/campaigns/sponsored/CampaignSubscriptionTpl.sol:CampaignSubscriptionTpl","label":"_quotaCounter","offset":0,"slot":"4","type":"t_mapping(t_address,t_uint256)"}],"types":{"t_address":{"encoding":"inplace","label":"address","numberOfBytes":"20"},"t_mapping(t_address,t_uint256)":{"encoding":"mapping","key":"t_address","label":"mapping(address => uint256)","numberOfBytes":"32","value":"t_uint256"},"t_uint256":{"encoding":"inplace","label":"uint256","numberOfBytes":"32"}}},"id":4}