{"abi":[{"type":"constructor","inputs":[],"stateMutability":"nonpayable"},{"type":"function","name":"UPGRADE_INTERFACE_VERSION","inputs":[],"outputs":[{"name":"","type":"string","internalType":"string"}],"stateMutability":"view"},{"type":"function","name":"approve","inputs":[{"name":"to","type":"address","internalType":"address"},{"name":"amount","type":"uint256","internalType":"uint256"},{"name":"currency","type":"address","internalType":"address"}],"outputs":[{"name":"","type":"uint256","internalType":"uint256"}],"stateMutability":"nonpayable"},{"type":"function","name":"authority","inputs":[],"outputs":[{"name":"","type":"address","internalType":"address"}],"stateMutability":"view"},{"type":"function","name":"claim","inputs":[{"name":"account","type":"address","internalType":"address"},{"name":"amount","type":"uint256","internalType":"uint256"},{"name":"currency","type":"address","internalType":"address"}],"outputs":[{"name":"","type":"uint256","internalType":"uint256"}],"stateMutability":"nonpayable"},{"type":"function","name":"collect","inputs":[{"name":"from","type":"address","internalType":"address"},{"name":"amount","type":"uint256","internalType":"uint256"},{"name":"currency","type":"address","internalType":"address"}],"outputs":[{"name":"","type":"uint256","internalType":"uint256"}],"stateMutability":"nonpayable"},{"type":"function","name":"deposit","inputs":[{"name":"recipient","type":"address","internalType":"address"},{"name":"amount","type":"uint256","internalType":"uint256"},{"name":"currency","type":"address","internalType":"address"}],"outputs":[{"name":"","type":"uint256","internalType":"uint256"}],"stateMutability":"nonpayable"},{"type":"function","name":"getApprovedAmount","inputs":[{"name":"from","type":"address","internalType":"address"},{"name":"to","type":"address","internalType":"address"},{"name":"currency","type":"address","internalType":"address"}],"outputs":[{"name":"","type":"uint256","internalType":"uint256"}],"stateMutability":"view"},{"type":"function","name":"getBalance","inputs":[{"name":"currency","type":"address","internalType":"address"}],"outputs":[{"name":"","type":"uint256","internalType":"uint256"}],"stateMutability":"view"},{"type":"function","name":"getLedgerBalance","inputs":[{"name":"account","type":"address","internalType":"address"},{"name":"currency","type":"address","internalType":"address"}],"outputs":[{"name":"","type":"uint256","internalType":"uint256"}],"stateMutability":"view"},{"type":"function","name":"initialize","inputs":[{"name":"accessManager","type":"address","internalType":"address"}],"outputs":[],"stateMutability":"nonpayable"},{"type":"function","name":"isConsumingScheduledOp","inputs":[],"outputs":[{"name":"","type":"bytes4","internalType":"bytes4"}],"stateMutability":"view"},{"type":"function","name":"lock","inputs":[{"name":"account","type":"address","internalType":"address"},{"name":"amount","type":"uint256","internalType":"uint256"},{"name":"currency","type":"address","internalType":"address"}],"outputs":[{"name":"","type":"uint256","internalType":"uint256"}],"stateMutability":"nonpayable"},{"type":"function","name":"proxiableUUID","inputs":[],"outputs":[{"name":"","type":"bytes32","internalType":"bytes32"}],"stateMutability":"view"},{"type":"function","name":"release","inputs":[{"name":"account","type":"address","internalType":"address"},{"name":"amount","type":"uint256","internalType":"uint256"},{"name":"currency","type":"address","internalType":"address"}],"outputs":[{"name":"","type":"uint256","internalType":"uint256"}],"stateMutability":"nonpayable"},{"type":"function","name":"revoke","inputs":[{"name":"to","type":"address","internalType":"address"},{"name":"amount","type":"uint256","internalType":"uint256"},{"name":"currency","type":"address","internalType":"address"}],"outputs":[{"name":"","type":"uint256","internalType":"uint256"}],"stateMutability":"nonpayable"},{"type":"function","name":"setAuthority","inputs":[{"name":"newAuthority","type":"address","internalType":"address"}],"outputs":[],"stateMutability":"nonpayable"},{"type":"function","name":"transfer","inputs":[{"name":"recipient","type":"address","internalType":"address"},{"name":"amount","type":"uint256","internalType":"uint256"},{"name":"currency","type":"address","internalType":"address"}],"outputs":[{"name":"","type":"uint256","internalType":"uint256"}],"stateMutability":"nonpayable"},{"type":"function","name":"upgradeToAndCall","inputs":[{"name":"newImplementation","type":"address","internalType":"address"},{"name":"data","type":"bytes","internalType":"bytes"}],"outputs":[],"stateMutability":"payable"},{"type":"function","name":"withdraw","inputs":[{"name":"recipient","type":"address","internalType":"address"},{"name":"amount","type":"uint256","internalType":"uint256"},{"name":"currency","type":"address","internalType":"address"}],"outputs":[{"name":"","type":"uint256","internalType":"uint256"}],"stateMutability":"nonpayable"},{"type":"event","name":"AuthorityUpdated","inputs":[{"name":"authority","type":"address","indexed":false,"internalType":"address"}],"anonymous":false},{"type":"event","name":"FundsApproved","inputs":[{"name":"from","type":"address","indexed":true,"internalType":"address"},{"name":"to","type":"address","indexed":true,"internalType":"address"},{"name":"amount","type":"uint256","indexed":false,"internalType":"uint256"},{"name":"currency","type":"address","indexed":true,"internalType":"address"}],"anonymous":false},{"type":"event","name":"FundsClaimed","inputs":[{"name":"initiator","type":"address","indexed":true,"internalType":"address"},{"name":"from","type":"address","indexed":true,"internalType":"address"},{"name":"amount","type":"uint256","indexed":false,"internalType":"uint256"},{"name":"currency","type":"address","indexed":true,"internalType":"address"}],"anonymous":false},{"type":"event","name":"FundsCollected","inputs":[{"name":"from","type":"address","indexed":true,"internalType":"address"},{"name":"to","type":"address","indexed":true,"internalType":"address"},{"name":"amount","type":"uint256","indexed":false,"internalType":"uint256"},{"name":"currency","type":"address","indexed":true,"internalType":"address"}],"anonymous":false},{"type":"event","name":"FundsDeposited","inputs":[{"name":"recipient","type":"address","indexed":true,"internalType":"address"},{"name":"origin","type":"address","indexed":true,"internalType":"address"},{"name":"amount","type":"uint256","indexed":false,"internalType":"uint256"},{"name":"currency","type":"address","indexed":false,"internalType":"address"}],"anonymous":false},{"type":"event","name":"FundsLocked","inputs":[{"name":"initiator","type":"address","indexed":true,"internalType":"address"},{"name":"from","type":"address","indexed":true,"internalType":"address"},{"name":"amount","type":"uint256","indexed":false,"internalType":"uint256"},{"name":"currency","type":"address","indexed":true,"internalType":"address"}],"anonymous":false},{"type":"event","name":"FundsReleased","inputs":[{"name":"initiator","type":"address","indexed":true,"internalType":"address"},{"name":"recipient","type":"address","indexed":true,"internalType":"address"},{"name":"amount","type":"uint256","indexed":false,"internalType":"uint256"},{"name":"currency","type":"address","indexed":true,"internalType":"address"}],"anonymous":false},{"type":"event","name":"FundsRevoked","inputs":[{"name":"from","type":"address","indexed":true,"internalType":"address"},{"name":"to","type":"address","indexed":true,"internalType":"address"},{"name":"amount","type":"uint256","indexed":false,"internalType":"uint256"},{"name":"currency","type":"address","indexed":true,"internalType":"address"}],"anonymous":false},{"type":"event","name":"FundsTransferred","inputs":[{"name":"recipient","type":"address","indexed":true,"internalType":"address"},{"name":"origin","type":"address","indexed":true,"internalType":"address"},{"name":"amount","type":"uint256","indexed":false,"internalType":"uint256"},{"name":"currency","type":"address","indexed":false,"internalType":"address"}],"anonymous":false},{"type":"event","name":"FundsWithdrawn","inputs":[{"name":"recipient","type":"address","indexed":true,"internalType":"address"},{"name":"origin","type":"address","indexed":true,"internalType":"address"},{"name":"amount","type":"uint256","indexed":false,"internalType":"uint256"},{"name":"currency","type":"address","indexed":true,"internalType":"address"}],"anonymous":false},{"type":"event","name":"Initialized","inputs":[{"name":"version","type":"uint64","indexed":false,"internalType":"uint64"}],"anonymous":false},{"type":"event","name":"Upgraded","inputs":[{"name":"implementation","type":"address","indexed":true,"internalType":"address"}],"anonymous":false},{"type":"error","name":"AccessManagedInvalidAuthority","inputs":[{"name":"authority","type":"address","internalType":"address"}]},{"type":"error","name":"AccessManagedRequiredDelay","inputs":[{"name":"caller","type":"address","internalType":"address"},{"name":"delay","type":"uint32","internalType":"uint32"}]},{"type":"error","name":"AccessManagedUnauthorized","inputs":[{"name":"caller","type":"address","internalType":"address"}]},{"type":"error","name":"AddressEmptyCode","inputs":[{"name":"target","type":"address","internalType":"address"}]},{"type":"error","name":"ERC1967InvalidImplementation","inputs":[{"name":"implementation","type":"address","internalType":"address"}]},{"type":"error","name":"ERC1967NonPayable","inputs":[]},{"type":"error","name":"FailDuringDeposit","inputs":[{"name":"reason","type":"string","internalType":"string"}]},{"type":"error","name":"FailDuringTransfer","inputs":[{"name":"reason","type":"string","internalType":"string"}]},{"type":"error","name":"FailedCall","inputs":[]},{"type":"error","name":"InvalidInitialization","inputs":[]},{"type":"error","name":"InvalidOperationParameters","inputs":[]},{"type":"error","name":"InvalidUnauthorizedOperation","inputs":[{"name":"","type":"string","internalType":"string"}]},{"type":"error","name":"NoFundsToApprove","inputs":[]},{"type":"error","name":"NoFundsToClaim","inputs":[]},{"type":"error","name":"NoFundsToCollect","inputs":[]},{"type":"error","name":"NoFundsToLock","inputs":[]},{"type":"error","name":"NoFundsToRelease","inputs":[]},{"type":"error","name":"NoFundsToRevoke","inputs":[]},{"type":"error","name":"NoFundsToTransfer","inputs":[]},{"type":"error","name":"NoFundsToWithdraw","inputs":[]},{"type":"error","name":"NotInitializing","inputs":[]},{"type":"error","name":"ReentrancyGuardReentrantCall","inputs":[]},{"type":"error","name":"SafeERC20FailedOperation","inputs":[{"name":"token","type":"address","internalType":"address"}]},{"type":"error","name":"UUPSUnauthorizedCallContext","inputs":[]},{"type":"error","name":"UUPSUnsupportedProxiableUUID","inputs":[{"name":"slot","type":"bytes32","internalType":"bytes32"}]}],"bytecode":{"object":"0x60a080604052346100e857306080527ff0c57e16840df040f15088dc2f81fe391c3923bec73e23a9662efc9c229c6a005460ff8160401c166100d9576002600160401b03196001600160401b03821601610073575b60405161242590816100ed8239608051818181610c640152610d650152f35b6001600160401b0319166001600160401b039081177ff0c57e16840df040f15088dc2f81fe391c3923bec73e23a9662efc9c229c6a005581527fc7f505b2f371ae2175ee4913f4499e1f2633a7b5936321eed1cdaeb6115181d290602090a15f80610054565b63f92ee8a960e01b5f5260045ffd5b5f80fdfe60806040526004361015610011575f80fd5b5f3560e01c80631271f09a146114ec57806315f41501146113f05780632c2eb94a1461129f5780634bbc170a146111375780634f1ef28614610cdc57806352d1902d14610c3d57806369328dec14610b235780636d74d40414610ad55780637a9e5e4b146109fe5780638fb360371461096b57806392f5f34e1461089f5780639e96a2601461079e578063ad3cb1cc1461070a578063bf7e214f146106b8578063c4d66de81461039e578063d949b8441461030b578063dbba0f01146101ee578063f45346dc1461011a5763f8b2cb4f146100ea575f80fd5b3461011657602060031936011261011657602061010e6101086115d2565b306120d9565b604051908152f35b5f80fd5b346101165761012836611618565b73ffffffffffffffffffffffffffffffffffffffff83929316801580156101e6575b6101be576101668261015f8160209733611f14565b8095611af8565b6040805184815273ffffffffffffffffffffffffffffffffffffffff909316602084015233927f2d26b12df00031a51cbd91c763887ccf6992992e54b2701fbe5bd7b2c738a4e291819081015b0390a3604051908152f35b7f27de6111000000000000000000000000000000000000000000000000000000005f5260045ffd5b50831561014a565b34610116576101fc36611618565b73ffffffffffffffffffffffffffffffffffffffff831680158015610303575b6101be57335f527fcb711bda070b7bbcc2b711ef3993cc17677144f4419b29e303bef375c5f40f0060205260405f2073ffffffffffffffffffffffffffffffffffffffff83165f526020528260405f2054106102db5761028a8284602096610285838333611bc9565b611af8565b6040805184815273ffffffffffffffffffffffffffffffffffffffff909316602084015233927fe93251c2a6f732155f1cd84502a2c66884e81835c0d4768a10d81fcd79510be791819081016101b3565b7fd1df6ed0000000000000000000000000000000000000000000000000000000005f5260045ffd5b50821561021c565b34610116576040600319360112610116576103246115d2565b73ffffffffffffffffffffffffffffffffffffffff6103886103446115f5565b9273ffffffffffffffffffffffffffffffffffffffff165f527fcb711bda070b7bbcc2b711ef3993cc17677144f4419b29e303bef375c5f40f0060205260405f2090565b91165f52602052602060405f2054604051908152f35b34610116576020600319360112610116576103b76115d2565b7ff0c57e16840df040f15088dc2f81fe391c3923bec73e23a9662efc9c229c6a005460ff8160401c16159167ffffffffffffffff8216801590816106b0575b60011490816106a6575b15908161069d575b5061067557818360017fffffffffffffffffffffffffffffffffffffffffffffffff000000000000000073ffffffffffffffffffffffffffffffffffffffff9516177ff0c57e16840df040f15088dc2f81fe391c3923bec73e23a9662efc9c229c6a0055610620575b5061047a6121f0565b6104826121f0565b61048a6121f0565b6104926121f0565b61049a6121f0565b6104a26121f0565b6104aa6121f0565b6104b381611e69565b6104bb6121f0565b1680156105c2577fffffffffffffffffffffffff00000000000000000000000000000000000000007fb8e950798a2a06a6f5727a94041b193569f4f67d69a0de3cf866d93822e7fa005416177fb8e950798a2a06a6f5727a94041b193569f4f67d69a0de3cf866d93822e7fa005561052f57005b7fffffffffffffffffffffffffffffffffffffffffffffff00ffffffffffffffff7ff0c57e16840df040f15088dc2f81fe391c3923bec73e23a9662efc9c229c6a0054167ff0c57e16840df040f15088dc2f81fe391c3923bec73e23a9662efc9c229c6a00557fc7f505b2f371ae2175ee4913f4499e1f2633a7b5936321eed1cdaeb6115181d2602060405160018152a1005b60646040517f6317e35f00000000000000000000000000000000000000000000000000000000815260206004820152601a60248201527f496e76616c696420617574686f7269747920616464726573732e0000000000006044820152fd5b7fffffffffffffffffffffffffffffffffffffffffffffff0000000000000000001668010000000000000001177ff0c57e16840df040f15088dc2f81fe391c3923bec73e23a9662efc9c229c6a005583610471565b7ff92ee8a9000000000000000000000000000000000000000000000000000000005f5260045ffd5b90501584610408565b303b159150610400565b8491506103f6565b34610116575f60031936011261011657602073ffffffffffffffffffffffffffffffffffffffff7ff3177357ab46d8af007ab3fdb9af81da189e1068fefdc0073dca88a2cab40a005416604051908152f35b34610116575f600319360112610116576040805190610729818361166c565b6005825260208201917f352e302e3000000000000000000000000000000000000000000000000000000083527fffffffffffffffffffffffffffffffffffffffffffffffffffffffffffffffe0601f8351948593602085525180918160208701528686015e5f85828601015201168101030190f35b34610116576107ac36611618565b6107b636336117a6565b73ffffffffffffffffffffffffffffffffffffffff831680158015610897575b6101be57805f525f60205260405f2073ffffffffffffffffffffffffffffffffffffffff83165f526020528260405f20541061086f576108198284602096611aa5565b610824828433611af8565b73ffffffffffffffffffffffffffffffffffffffff6040519284845216917fb98d03559819f3edb4aed32c4f790c84f65705abd045d5cd12fbe6fbf89e0ea8853392a4604051908152f35b7fdff46e2b000000000000000000000000000000000000000000000000000000005f5260045ffd5b5082156107d6565b34610116576108ad36611618565b73ffffffffffffffffffffffffffffffffffffffff831680158015610963575b6101be57826108dd838633611714565b1061093b576108f0828460209633611b67565b73ffffffffffffffffffffffffffffffffffffffff6040519284845216917fcd0e3450c2d64c619306fb49976719d34517c31f19dafdf14a8ca8ca350f6c14853392a4604051908152f35b7fb37a9363000000000000000000000000000000000000000000000000000000005f5260045ffd5b5082156108cd565b34610116575f600319360112610116577ff3177357ab46d8af007ab3fdb9af81da189e1068fefdc0073dca88a2cab40a005460a01c60ff16156109f65760207f8fb36037000000000000000000000000000000000000000000000000000000005b7fffffffff0000000000000000000000000000000000000000000000000000000060405191168152f35b60205f6109cc565b3461011657602060031936011261011657610a176115d2565b73ffffffffffffffffffffffffffffffffffffffff7ff3177357ab46d8af007ab3fdb9af81da189e1068fefdc0073dca88a2cab40a0054163303610aa957803b15610a6757610a6590611e69565b005b73ffffffffffffffffffffffffffffffffffffffff907fc2f31e5e000000000000000000000000000000000000000000000000000000005f521660045260245ffd5b7f068ca9d8000000000000000000000000000000000000000000000000000000005f523360045260245ffd5b3461011657606060031936011261011657610aee6115d2565b610af66115f5565b9060443573ffffffffffffffffffffffffffffffffffffffff811681036101165760209261010e92611714565b3461011657610b3136611618565b73ffffffffffffffffffffffffffffffffffffffff83169081158015610c35575b6101be57335f9081527fcb711bda070b7bbcc2b711ef3993cc17677144f4419b29e303bef375c5f40f006020526040902073ffffffffffffffffffffffffffffffffffffffff82165f526020528260405f205410610c0d57610bc28184602096610bbd838333611bc9565b611c38565b73ffffffffffffffffffffffffffffffffffffffff6040519184835216917f823b7dcdbd5806d97a2a3c64fe281a8d31155b2a7dade87fdaa7437c79c12b11853393a4604051908152f35b7f67e3990d000000000000000000000000000000000000000000000000000000005f5260045ffd5b508215610b52565b34610116575f6003193601126101165773ffffffffffffffffffffffffffffffffffffffff7f0000000000000000000000000000000000000000000000000000000000000000163003610cb45760206040517f360894a13ba1a3210667c828492db98dca3e2076cc3735a920a3ca505d382bbc8152f35b7fe07c8dba000000000000000000000000000000000000000000000000000000005f5260045ffd5b604060031936011261011657610cf06115d2565b6024359067ffffffffffffffff8211610116573660238301121561011657816004013590610d1d826116da565b91610d2b604051938461166c565b8083526020830193366024838301011161011657815f9260246020930187378401015273ffffffffffffffffffffffffffffffffffffffff7f0000000000000000000000000000000000000000000000000000000000000000168030149081156110f5575b50610cb4576044604073ffffffffffffffffffffffffffffffffffffffff7fb8e950798a2a06a6f5727a94041b193569f4f67d69a0de3cf866d93822e7fa0054168151928380927fd1f856ee0000000000000000000000000000000000000000000000000000000082525f60048301523360248301525afa9081156110ea575f916110ba575b50156110365773ffffffffffffffffffffffffffffffffffffffff8116926040517f52d1902d000000000000000000000000000000000000000000000000000000008152602081600481885afa5f9181611002575b50610e9c57847f4c9c8ce3000000000000000000000000000000000000000000000000000000005f5260045260245ffd5b807f360894a13ba1a3210667c828492db98dca3e2076cc3735a920a3ca505d382bbc869203610fd75750823b15610fac57807fffffffffffffffffffffffff00000000000000000000000000000000000000007f360894a13ba1a3210667c828492db98dca3e2076cc3735a920a3ca505d382bbc5416177f360894a13ba1a3210667c828492db98dca3e2076cc3735a920a3ca505d382bbc557fbc7cd75a20ee27fd9adebab32041f755214dbc6bffa90cc0225b39da2e5c2d3b5f80a2825115610f7a575f8091610a65945190845af4610f7461218a565b91612356565b50505034610f8457005b7fb398979f000000000000000000000000000000000000000000000000000000005f5260045ffd5b7f4c9c8ce3000000000000000000000000000000000000000000000000000000005f5260045260245ffd5b7faa1d49a4000000000000000000000000000000000000000000000000000000005f5260045260245ffd5b9091506020813d60201161102e575b8161101e6020938361166c565b8101031261011657519086610e6b565b3d9150611011565b60846040517f6317e35f00000000000000000000000000000000000000000000000000000000815260206004820152602360248201527f4f6e6c792061646d696e2063616e20706572666f726d2074686973206163746960448201527f6f6e2e00000000000000000000000000000000000000000000000000000000006064820152fd5b6110dc915060403d6040116110e3575b6110d4818361166c565b8101906121c6565b5084610e16565b503d6110ca565b6040513d5f823e3d90fd5b905073ffffffffffffffffffffffffffffffffffffffff7f360894a13ba1a3210667c828492db98dca3e2076cc3735a920a3ca505d382bbc5416141584610d90565b346101165761114536611618565b61114f36336117a6565b73ffffffffffffffffffffffffffffffffffffffff831680158015611297575b6101be576111ba8473ffffffffffffffffffffffffffffffffffffffff165f527fcb711bda070b7bbcc2b711ef3993cc17677144f4419b29e303bef375c5f40f0060205260405f2090565b73ffffffffffffffffffffffffffffffffffffffff83165f526020528260405f20541061126f576111ee8284602096611bc9565b805f525f845260405f2073ffffffffffffffffffffffffffffffffffffffff83165f52845260405f2061122284825461176c565b905573ffffffffffffffffffffffffffffffffffffffff6040519284845216917f94db8393382ab0652ca02e3aba664801e65c44f3651e1f32a1582d88b2e8c63f853392a4604051908152f35b7fa9e575de000000000000000000000000000000000000000000000000000000005f5260045ffd5b50821561116f565b34610116576112ad36611618565b73ffffffffffffffffffffffffffffffffffffffff831690811580156113e8575b6101be57826112de823387611714565b106113c05761132a8473ffffffffffffffffffffffffffffffffffffffff165f527fcb711bda070b7bbcc2b711ef3993cc17677144f4419b29e303bef375c5f40f0060205260405f2090565b73ffffffffffffffffffffffffffffffffffffffff82165f526020528260405f2054106113c05761136a818460209661136583833384611b67565b611bc9565b611375818433611af8565b73ffffffffffffffffffffffffffffffffffffffff6040519184835216917fb86f5fa8e97aba565b1ac0fa25de5437a80a39dc9bf20638866c57efd521c98e853393a4604051908152f35b7ff333765d000000000000000000000000000000000000000000000000000000005f5260045ffd5b5082156112ce565b34610116576113fe36611618565b61140836336117a6565b73ffffffffffffffffffffffffffffffffffffffff8316801580156114e4575b6101be57805f525f60205260405f2073ffffffffffffffffffffffffffffffffffffffff83165f526020528260405f2054106114bc57611471828486610285838360209a611aa5565b73ffffffffffffffffffffffffffffffffffffffff6040519284845216917f06c7a30483fe97f352dabcf682dbfca9520e10cb9ae0deb86c00327015eb65ad853392a4604051908152f35b7fb7cc22bc000000000000000000000000000000000000000000000000000000005f5260045ffd5b508215611428565b34610116576114fa36611618565b73ffffffffffffffffffffffffffffffffffffffff8316801580156115ca575b6101be5761152a60209433611e19565b5f527fa8707513830ffbd3c47e0c83d1f5f0270db240ae37bb1f9a13f077f85b949c00845260405f2073ffffffffffffffffffffffffffffffffffffffff83165f52845260405f2061157d84825461176c565b905573ffffffffffffffffffffffffffffffffffffffff6040519284845216917f04bcd332de117bd31c965f21b07d1bce58e0e75d0c7d354c6e4b6031bf75f684853392a4604051908152f35b50821561151a565b6004359073ffffffffffffffffffffffffffffffffffffffff8216820361011657565b6024359073ffffffffffffffffffffffffffffffffffffffff8216820361011657565b60031960609101126101165760043573ffffffffffffffffffffffffffffffffffffffff8116810361011657906024359060443573ffffffffffffffffffffffffffffffffffffffff811681036101165790565b90601f7fffffffffffffffffffffffffffffffffffffffffffffffffffffffffffffffe0910116810190811067ffffffffffffffff8211176116ad57604052565b7f4e487b71000000000000000000000000000000000000000000000000000000005f52604160045260245ffd5b67ffffffffffffffff81116116ad57601f017fffffffffffffffffffffffffffffffffffffffffffffffffffffffffffffffe01660200190565b9061171e91611e19565b5f527fa8707513830ffbd3c47e0c83d1f5f0270db240ae37bb1f9a13f077f85b949c0060205273ffffffffffffffffffffffffffffffffffffffff60405f2091165f5260205260405f205490565b9190820180921161177957565b7f4e487b71000000000000000000000000000000000000000000000000000000005f52601160045260245ffd5b907ff3177357ab46d8af007ab3fdb9af81da189e1068fefdc0073dca88a2cab40a00549173ffffffffffffffffffffffffffffffffffffffff83169282600411610116575f805f806040519573ffffffffffffffffffffffffffffffffffffffff60208801917fb700961300000000000000000000000000000000000000000000000000000000835216968760248201523060448201527fffffffff0000000000000000000000000000000000000000000000000000000083351660648201526064815261187560848261166c565b5190895afa61188261218a565b90611a3a575b5015611896575b5050505050565b63ffffffff1615611a0e577fffffffffffffffffffffff00ffffffffffffffffffffffffffffffffffffffff1674010000000000000000000000000000000000000000177ff3177357ab46d8af007ab3fdb9af81da189e1068fefdc0073dca88a2cab40a0055823b15610116577fffffffffffffffffffffffffffffffffffffffffffffffffffffffffffffffe0925f92836064601f94604051978896879586937f94c7d7ee00000000000000000000000000000000000000000000000000000000855260048501526040602485015280604485015280868686013785858286010152011681010301925af180156110ea576119fe575b507fffffffffffffffffffffff00ffffffffffffffffffffffffffffffffffffffff7ff3177357ab46d8af007ab3fdb9af81da189e1068fefdc0073dca88a2cab40a0054167ff3177357ab46d8af007ab3fdb9af81da189e1068fefdc0073dca88a2cab40a00555f8080808061188f565b5f611a089161166c565b5f61198d565b507f068ca9d8000000000000000000000000000000000000000000000000000000005f5260045260245ffd5b805192909160408410611a62575050602080611a5a9383010191016121c6565b905b5f611888565b9190926020811015611a76575b5050611a5c565b8192509060209181010312610116576020611a9191016121b9565b5f80611a6f565b9190820391821161177957565b73ffffffffffffffffffffffffffffffffffffffff90929192165f525f60205273ffffffffffffffffffffffffffffffffffffffff60405f2091165f52602052611af460405f20918254611a98565b9055565b73ffffffffffffffffffffffffffffffffffffffff90929192165f527fcb711bda070b7bbcc2b711ef3993cc17677144f4419b29e303bef375c5f40f0060205273ffffffffffffffffffffffffffffffffffffffff60405f2091165f52602052611af460405f2091825461176c565b90611b7491939293611e19565b5f527fa8707513830ffbd3c47e0c83d1f5f0270db240ae37bb1f9a13f077f85b949c0060205273ffffffffffffffffffffffffffffffffffffffff60405f2091165f52602052611af460405f20918254611a98565b73ffffffffffffffffffffffffffffffffffffffff90929192165f527fcb711bda070b7bbcc2b711ef3993cc17677144f4419b29e303bef375c5f40f0060205273ffffffffffffffffffffffffffffffffffffffff60405f2091165f52602052611af460405f20918254611a98565b90918215611dbb5782611c4b82306120d9565b10611d5d5773ffffffffffffffffffffffffffffffffffffffff168015611cd057611cce9273ffffffffffffffffffffffffffffffffffffffff604051937fa9059cbb000000000000000000000000000000000000000000000000000000006020860152166024840152604483015260448252611cc960648361166c565b6122cf565b565b505f80809373ffffffffffffffffffffffffffffffffffffffff8294165af1611cf761218a565b5015611cff57565b60646040517f9cf1483d00000000000000000000000000000000000000000000000000000000815260206004820152600f60248201527f5472616e73666572206661696c656400000000000000000000000000000000006044820152fd5b60646040517f9cf1483d00000000000000000000000000000000000000000000000000000000815260206004820152601560248201527f496e73756666696369656e742062616c616e63652e00000000000000000000006044820152fd5b60646040517f9cf1483d00000000000000000000000000000000000000000000000000000000815260206004820152602060248201527f496e76616c6964207a65726f20616d6f756e7420746f207472616e736665722e6044820152fd5b907fffffffffffffffffffffffffffffffffffffffff0000000000000000000000006040519181602084019460601b16845260601b16603482015260288152611e6360488261166c565b51902090565b602073ffffffffffffffffffffffffffffffffffffffff7f2f658b440c35314f52658ea8a740e05b284cdc84dc9ae01e891f21b8933e7cad9216807fffffffffffffffffffffffff00000000000000000000000000000000000000007ff3177357ab46d8af007ab3fdb9af81da189e1068fefdc0073dca88a2cab40a005416177ff3177357ab46d8af007ab3fdb9af81da189e1068fefdc0073dca88a2cab40a0055604051908152a1565b919091821561207b5773ffffffffffffffffffffffffffffffffffffffff821691821561201057611f459082612247565b8311611fb257611faf9173ffffffffffffffffffffffffffffffffffffffff604051927f23b872dd00000000000000000000000000000000000000000000000000000000602085015216602483015230604483015283606483015260648252611cc960848361166c565b90565b60646040517f23c7565800000000000000000000000000000000000000000000000000000000815260206004820152601960248201527f416d6f756e74206578636565647320616c6c6f77616e63652e000000000000006044820152fd5b50505034811161201d5790565b60646040517f23c7565800000000000000000000000000000000000000000000000000000000815260206004820152601760248201527f416d6f756e7420657863656564732062616c616e63652e0000000000000000006044820152fd5b60646040517f23c7565800000000000000000000000000000000000000000000000000000000815260206004820152601460248201527f496e76616c6964207a65726f20616d6f756e742e0000000000000000000000006044820152fd5b9073ffffffffffffffffffffffffffffffffffffffff169081156121845773ffffffffffffffffffffffffffffffffffffffff602460209260405194859384927f70a082310000000000000000000000000000000000000000000000000000000084521660048301525afa9081156110ea575f91612155575090565b90506020813d60201161217c575b816121706020938361166c565b81010312610116575190565b3d9150612163565b90503190565b3d156121b4573d9061219b826116da565b916121a9604051938461166c565b82523d5f602084013e565b606090565b5190811515820361011657565b91908260409103126101165760206121dd836121b9565b92015163ffffffff811681036101165790565b60ff7ff0c57e16840df040f15088dc2f81fe391c3923bec73e23a9662efc9c229c6a005460401c161561221f57565b7fd7e6bcf8000000000000000000000000000000000000000000000000000000005f5260045ffd5b9073ffffffffffffffffffffffffffffffffffffffff169081156122c95773ffffffffffffffffffffffffffffffffffffffff604460209260405194859384927fdd62ed3e0000000000000000000000000000000000000000000000000000000084521660048301523060248301525afa9081156110ea575f91612155575090565b50503490565b905f602091828151910182855af1156110ea575f513d61234d575073ffffffffffffffffffffffffffffffffffffffff81163b155b61230b5750565b73ffffffffffffffffffffffffffffffffffffffff907f5274afe7000000000000000000000000000000000000000000000000000000005f521660045260245ffd5b60011415612304565b90612393575080511561236b57805190602001fd5b7fd6bda275000000000000000000000000000000000000000000000000000000005f5260045ffd5b815115806123e6575b6123a4575090565b73ffffffffffffffffffffffffffffffffffffffff907f9996b315000000000000000000000000000000000000000000000000000000005f521660045260245ffd5b50803b1561239c56fea2646970667358221220c174d02821a0759c4bf9f0066a7eb5d0449931e617c7b7f4064255bd58b3fa4264736f6c634300081a0033","linkReferences":{}},"methodIdentifiers":{"UPGRADE_INTERFACE_VERSION()":"ad3cb1cc","approve(address,uint256,address)":"1271f09a","authority()":"bf7e214f","claim(address,uint256,address)":"9e96a260","collect(address,uint256,address)":"2c2eb94a","deposit(address,uint256,address)":"f45346dc","getApprovedAmount(address,address,address)":"6d74d404","getBalance(address)":"f8b2cb4f","getLedgerBalance(address,address)":"d949b844","initialize(address)":"c4d66de8","isConsumingScheduledOp()":"8fb36037","lock(address,uint256,address)":"4bbc170a","proxiableUUID()":"52d1902d","release(address,uint256,address)":"15f41501","revoke(address,uint256,address)":"92f5f34e","setAuthority(address)":"7a9e5e4b","transfer(address,uint256,address)":"dbba0f01","upgradeToAndCall(address,bytes)":"4f1ef286","withdraw(address,uint256,address)":"69328dec"},"storageLayout":{"storage":[{"astId":3075,"contract":"contracts/financial/LedgerVault.sol:LedgerVault","label":"_locked","offset":0,"slot":"0","type":"t_mapping(t_address,t_mapping(t_address,t_uint256))"}],"types":{"t_address":{"encoding":"inplace","label":"address","numberOfBytes":"20"},"t_mapping(t_address,t_mapping(t_address,t_uint256))":{"encoding":"mapping","key":"t_address","label":"mapping(address => mapping(address => uint256))","numberOfBytes":"32","value":"t_mapping(t_address,t_uint256)"},"t_mapping(t_address,t_uint256)":{"encoding":"mapping","key":"t_address","label":"mapping(address => uint256)","numberOfBytes":"32","value":"t_uint256"},"t_uint256":{"encoding":"inplace","label":"uint256","numberOfBytes":"32"}}},"id":37}