{"abi":[{"type":"constructor","inputs":[],"stateMutability":"nonpayable"},{"type":"function","name":"UPGRADE_INTERFACE_VERSION","inputs":[],"outputs":[{"name":"","type":"string","internalType":"string"}],"stateMutability":"view"},{"type":"function","name":"authority","inputs":[],"outputs":[{"name":"","type":"address","internalType":"address"}],"stateMutability":"view"},{"type":"function","name":"claim","inputs":[{"name":"account","type":"address","internalType":"address"},{"name":"amount","type":"uint256","internalType":"uint256"},{"name":"currency","type":"address","internalType":"address"}],"outputs":[{"name":"","type":"uint256","internalType":"uint256"}],"stateMutability":"nonpayable"},{"type":"function","name":"deposit","inputs":[{"name":"recipient","type":"address","internalType":"address"},{"name":"amount","type":"uint256","internalType":"uint256"},{"name":"currency","type":"address","internalType":"address"}],"outputs":[{"name":"","type":"uint256","internalType":"uint256"}],"stateMutability":"nonpayable"},{"type":"function","name":"getBalance","inputs":[{"name":"currency","type":"address","internalType":"address"}],"outputs":[{"name":"","type":"uint256","internalType":"uint256"}],"stateMutability":"view"},{"type":"function","name":"getLedgerBalance","inputs":[{"name":"account","type":"address","internalType":"address"},{"name":"currency","type":"address","internalType":"address"}],"outputs":[{"name":"","type":"uint256","internalType":"uint256"}],"stateMutability":"view"},{"type":"function","name":"initialize","inputs":[{"name":"accessManager","type":"address","internalType":"address"}],"outputs":[],"stateMutability":"nonpayable"},{"type":"function","name":"isConsumingScheduledOp","inputs":[],"outputs":[{"name":"","type":"bytes4","internalType":"bytes4"}],"stateMutability":"view"},{"type":"function","name":"lock","inputs":[{"name":"account","type":"address","internalType":"address"},{"name":"amount","type":"uint256","internalType":"uint256"},{"name":"currency","type":"address","internalType":"address"}],"outputs":[{"name":"","type":"uint256","internalType":"uint256"}],"stateMutability":"nonpayable"},{"type":"function","name":"proxiableUUID","inputs":[],"outputs":[{"name":"","type":"bytes32","internalType":"bytes32"}],"stateMutability":"view"},{"type":"function","name":"release","inputs":[{"name":"account","type":"address","internalType":"address"},{"name":"amount","type":"uint256","internalType":"uint256"},{"name":"currency","type":"address","internalType":"address"}],"outputs":[{"name":"","type":"uint256","internalType":"uint256"}],"stateMutability":"nonpayable"},{"type":"function","name":"setAuthority","inputs":[{"name":"newAuthority","type":"address","internalType":"address"}],"outputs":[],"stateMutability":"nonpayable"},{"type":"function","name":"transfer","inputs":[{"name":"recipient","type":"address","internalType":"address"},{"name":"amount","type":"uint256","internalType":"uint256"},{"name":"currency","type":"address","internalType":"address"}],"outputs":[{"name":"","type":"uint256","internalType":"uint256"}],"stateMutability":"nonpayable"},{"type":"function","name":"upgradeToAndCall","inputs":[{"name":"newImplementation","type":"address","internalType":"address"},{"name":"data","type":"bytes","internalType":"bytes"}],"outputs":[],"stateMutability":"payable"},{"type":"function","name":"withdraw","inputs":[{"name":"recipient","type":"address","internalType":"address"},{"name":"amount","type":"uint256","internalType":"uint256"},{"name":"currency","type":"address","internalType":"address"}],"outputs":[{"name":"","type":"uint256","internalType":"uint256"}],"stateMutability":"nonpayable"},{"type":"event","name":"AuthorityUpdated","inputs":[{"name":"authority","type":"address","indexed":false,"internalType":"address"}],"anonymous":false},{"type":"event","name":"FundsClaimed","inputs":[{"name":"claimer","type":"address","indexed":true,"internalType":"address"},{"name":"amount","type":"uint256","indexed":false,"internalType":"uint256"},{"name":"currency","type":"address","indexed":true,"internalType":"address"}],"anonymous":false},{"type":"event","name":"FundsDeposited","inputs":[{"name":"recipient","type":"address","indexed":true,"internalType":"address"},{"name":"amount","type":"uint256","indexed":false,"internalType":"uint256"},{"name":"currency","type":"address","indexed":false,"internalType":"address"}],"anonymous":false},{"type":"event","name":"FundsLocked","inputs":[{"name":"account","type":"address","indexed":true,"internalType":"address"},{"name":"amount","type":"uint256","indexed":false,"internalType":"uint256"},{"name":"currency","type":"address","indexed":true,"internalType":"address"}],"anonymous":false},{"type":"event","name":"FundsReleased","inputs":[{"name":"account","type":"address","indexed":true,"internalType":"address"},{"name":"amount","type":"uint256","indexed":false,"internalType":"uint256"},{"name":"currency","type":"address","indexed":true,"internalType":"address"}],"anonymous":false},{"type":"event","name":"FundsTransferred","inputs":[{"name":"sender","type":"address","indexed":true,"internalType":"address"},{"name":"recipient","type":"address","indexed":true,"internalType":"address"},{"name":"amount","type":"uint256","indexed":false,"internalType":"uint256"},{"name":"currency","type":"address","indexed":false,"internalType":"address"}],"anonymous":false},{"type":"event","name":"FundsWithdrawn","inputs":[{"name":"recipient","type":"address","indexed":true,"internalType":"address"},{"name":"amount","type":"uint256","indexed":false,"internalType":"uint256"},{"name":"currency","type":"address","indexed":true,"internalType":"address"}],"anonymous":false},{"type":"event","name":"Initialized","inputs":[{"name":"version","type":"uint64","indexed":false,"internalType":"uint64"}],"anonymous":false},{"type":"event","name":"Upgraded","inputs":[{"name":"implementation","type":"address","indexed":true,"internalType":"address"}],"anonymous":false},{"type":"error","name":"AccessManagedInvalidAuthority","inputs":[{"name":"authority","type":"address","internalType":"address"}]},{"type":"error","name":"AccessManagedRequiredDelay","inputs":[{"name":"caller","type":"address","internalType":"address"},{"name":"delay","type":"uint32","internalType":"uint32"}]},{"type":"error","name":"AccessManagedUnauthorized","inputs":[{"name":"caller","type":"address","internalType":"address"}]},{"type":"error","name":"AddressEmptyCode","inputs":[{"name":"target","type":"address","internalType":"address"}]},{"type":"error","name":"ERC1967InvalidImplementation","inputs":[{"name":"implementation","type":"address","internalType":"address"}]},{"type":"error","name":"ERC1967NonPayable","inputs":[]},{"type":"error","name":"FailDuringDeposit","inputs":[{"name":"reason","type":"string","internalType":"string"}]},{"type":"error","name":"FailDuringTransfer","inputs":[{"name":"reason","type":"string","internalType":"string"}]},{"type":"error","name":"FailedCall","inputs":[]},{"type":"error","name":"InvalidInitialization","inputs":[]},{"type":"error","name":"InvalidUnauthorizedOperation","inputs":[{"name":"","type":"string","internalType":"string"}]},{"type":"error","name":"NoFundsToClaim","inputs":[]},{"type":"error","name":"NoFundsToLock","inputs":[]},{"type":"error","name":"NoFundsToRelease","inputs":[]},{"type":"error","name":"NoFundsToTransfer","inputs":[]},{"type":"error","name":"NoFundsToWithdraw","inputs":[]},{"type":"error","name":"NotInitializing","inputs":[]},{"type":"error","name":"ReentrancyGuardReentrantCall","inputs":[]},{"type":"error","name":"SafeERC20FailedOperation","inputs":[{"name":"token","type":"address","internalType":"address"}]},{"type":"error","name":"UUPSUnauthorizedCallContext","inputs":[]},{"type":"error","name":"UUPSUnsupportedProxiableUUID","inputs":[{"name":"slot","type":"bytes32","internalType":"bytes32"}]}],"bytecode":{"object":"0x60a080604052346100e857306080527ff0c57e16840df040f15088dc2f81fe391c3923bec73e23a9662efc9c229c6a005460ff8160401c166100d9576002600160401b03196001600160401b03821601610073575b60405161203f90816100ed8239608051818181610bcf0152610cee0152f35b6001600160401b0319166001600160401b039081177ff0c57e16840df040f15088dc2f81fe391c3923bec73e23a9662efc9c229c6a005581527fc7f505b2f371ae2175ee4913f4499e1f2633a7b5936321eed1cdaeb6115181d290602090a15f80610054565b63f92ee8a960e01b5f5260045ffd5b5f80fdfe60806040526004361015610011575f80fd5b5f3560e01c806315f41501146112115780634bbc170a146110c05780634f1ef28614610c4757806352d1902d14610b8a57806369328dec14610a075780637a9e5e4b146109125780638fb36037146108615780639e96a26014610776578063ad3cb1cc146106c4578063bf7e214f14610654578063c4d66de814610380578063d949b844146102b6578063dbba0f011461019d578063f45346dc1461010c5763f8b2cb4f146100be575f80fd5b346101085760207ffffffffffffffffffffffffffffffffffffffffffffffffffffffffffffffffc3601126101085760206101006100fa6112fb565b3061194d565b604051908152f35b5f80fd5b3461010857602061016073ffffffffffffffffffffffffffffffffffffffff7fdf4dcf17030d087ed1d90ed3c90719c7260706c1c4a88505dd2d0a982887cf436101553661131e565b809492959133611c9c565b9361016c8486836117c4565b6040805186815273ffffffffffffffffffffffffffffffffffffffff959095166020860152911692a2604051908152f35b34610108576101ab3661131e565b91335f527fcb711bda070b7bbcc2b711ef3993cc17677144f4419b29e303bef375c5f40f0060205260405f2073ffffffffffffffffffffffffffffffffffffffff84165f526020528160405f20541061028e578261020c6020948433611833565b6102178184846117c4565b7fe93251c2a6f732155f1cd84502a2c66884e81835c0d4768a10d81fcd79510be773ffffffffffffffffffffffffffffffffffffffff604051931692806102833394878390929173ffffffffffffffffffffffffffffffffffffffff6020916040840195845216910152565b0390a3604051908152f35b7fd1df6ed0000000000000000000000000000000000000000000000000000000005f5260045ffd5b346101085760407ffffffffffffffffffffffffffffffffffffffffffffffffffffffffffffffffc360112610108576102ed6112fb565b6024359073ffffffffffffffffffffffffffffffffffffffff821682036101085761036a73ffffffffffffffffffffffffffffffffffffffff9173ffffffffffffffffffffffffffffffffffffffff165f527fcb711bda070b7bbcc2b711ef3993cc17677144f4419b29e303bef375c5f40f0060205260405f2090565b91165f52602052602060405f2054604051908152f35b346101085760207ffffffffffffffffffffffffffffffffffffffffffffffffffffffffffffffffc360112610108576103b76112fb565b7ff0c57e16840df040f15088dc2f81fe391c3923bec73e23a9662efc9c229c6a005460ff8160401c16159167ffffffffffffffff82168015908161064c575b6001149081610642575b159081610639575b5061061157818360017fffffffffffffffffffffffffffffffffffffffffffffffff000000000000000073ffffffffffffffffffffffffffffffffffffffff9516177ff0c57e16840df040f15088dc2f81fe391c3923bec73e23a9662efc9c229c6a00556105bc575b5061047a611c45565b610482611c45565b61048a611c45565b610492611c45565b61049a611c45565b6104a2611c45565b6104aa611c45565b6104b3816118a2565b6104bb611c45565b167fffffffffffffffffffffffff00000000000000000000000000000000000000007fb8e950798a2a06a6f5727a94041b193569f4f67d69a0de3cf866d93822e7fa005416177fb8e950798a2a06a6f5727a94041b193569f4f67d69a0de3cf866d93822e7fa005561052957005b7fffffffffffffffffffffffffffffffffffffffffffffff00ffffffffffffffff7ff0c57e16840df040f15088dc2f81fe391c3923bec73e23a9662efc9c229c6a0054167ff0c57e16840df040f15088dc2f81fe391c3923bec73e23a9662efc9c229c6a00557fc7f505b2f371ae2175ee4913f4499e1f2633a7b5936321eed1cdaeb6115181d2602060405160018152a1005b7fffffffffffffffffffffffffffffffffffffffffffffff0000000000000000001668010000000000000001177ff0c57e16840df040f15088dc2f81fe391c3923bec73e23a9662efc9c229c6a005583610471565b7ff92ee8a9000000000000000000000000000000000000000000000000000000005f5260045ffd5b90501584610408565b303b159150610400565b8491506103f6565b34610108575f7ffffffffffffffffffffffffffffffffffffffffffffffffffffffffffffffffc36011261010857602073ffffffffffffffffffffffffffffffffffffffff7ff3177357ab46d8af007ab3fdb9af81da189e1068fefdc0073dca88a2cab40a005416604051908152f35b34610108575f7ffffffffffffffffffffffffffffffffffffffffffffffffffffffffffffffffc3601126101085760408051906107018183611390565b6005825260208201917f352e302e3000000000000000000000000000000000000000000000000000000083527fffffffffffffffffffffffffffffffffffffffffffffffffffffffffffffffe0601f8351948593602085525180918160208701528686015e5f85828601015201168101030190f35b34610108576107843661131e565b61078e3633611438565b73ffffffffffffffffffffffffffffffffffffffff83165f525f60205260405f2073ffffffffffffffffffffffffffffffffffffffff82165f526020528160405f205410610839576107e38183602095611764565b6107ee8183336117c4565b73ffffffffffffffffffffffffffffffffffffffff6040519183835216907f07b798e47a298c7004dfddcb1196e6b8f9a6488dd1db7eeedbc8a4c3f4831563843392a3604051908152f35b7fdff46e2b000000000000000000000000000000000000000000000000000000005f5260045ffd5b34610108575f7ffffffffffffffffffffffffffffffffffffffffffffffffffffffffffffffffc360112610108577ff3177357ab46d8af007ab3fdb9af81da189e1068fefdc0073dca88a2cab40a005460a01c60ff161561090a5760207f8fb36037000000000000000000000000000000000000000000000000000000005b7fffffffff0000000000000000000000000000000000000000000000000000000060405191168152f35b60205f6108e0565b346101085760207ffffffffffffffffffffffffffffffffffffffffffffffffffffffffffffffffc360112610108576109496112fb565b73ffffffffffffffffffffffffffffffffffffffff7ff3177357ab46d8af007ab3fdb9af81da189e1068fefdc0073dca88a2cab40a00541633036109db57803b1561099957610997906118a2565b005b73ffffffffffffffffffffffffffffffffffffffff907fc2f31e5e000000000000000000000000000000000000000000000000000000005f521660045260245ffd5b7f068ca9d8000000000000000000000000000000000000000000000000000000005f523360045260245ffd5b3461010857610a153661131e565b917f9b779b17422d0df92223018b32b4d1fa46e071723d6817e2486d003becc55f005c610b625760017f9b779b17422d0df92223018b32b4d1fa46e071723d6817e2486d003becc55f005d335f527fcb711bda070b7bbcc2b711ef3993cc17677144f4419b29e303bef375c5f40f0060205260405f2073ffffffffffffffffffffffffffffffffffffffff84165f526020528160405f205410610b3a5782610ac06020948433611833565b610acb818484611a64565b7fe9171aeff46c37ab955b8aff908e14ae9732bd06634fa131226cfe5c25bfd2fb8473ffffffffffffffffffffffffffffffffffffffff806040519487865216941692a35f7f9b779b17422d0df92223018b32b4d1fa46e071723d6817e2486d003becc55f005d604051908152f35b7f67e3990d000000000000000000000000000000000000000000000000000000005f5260045ffd5b7f3ee5aeb5000000000000000000000000000000000000000000000000000000005f5260045ffd5b34610108575f7ffffffffffffffffffffffffffffffffffffffffffffffffffffffffffffffffc3601126101085773ffffffffffffffffffffffffffffffffffffffff7f0000000000000000000000000000000000000000000000000000000000000000163003610c1f5760206040517f360894a13ba1a3210667c828492db98dca3e2076cc3735a920a3ca505d382bbc8152f35b7fe07c8dba000000000000000000000000000000000000000000000000000000005f5260045ffd5b60407ffffffffffffffffffffffffffffffffffffffffffffffffffffffffffffffffc36011261010857610c796112fb565b6024359067ffffffffffffffff8211610108573660238301121561010857816004013590610ca6826113fe565b91610cb46040519384611390565b8083526020830193366024838301011161010857815f9260246020930187378401015273ffffffffffffffffffffffffffffffffffffffff7f00000000000000000000000000000000000000000000000000000000000000001680301490811561107e575b50610c1f576044604073ffffffffffffffffffffffffffffffffffffffff7fb8e950798a2a06a6f5727a94041b193569f4f67d69a0de3cf866d93822e7fa0054168151928380927fd1f856ee0000000000000000000000000000000000000000000000000000000082525f60048301523360248301525afa908115611073575f91611043575b5015610fbf5773ffffffffffffffffffffffffffffffffffffffff8116926040517f52d1902d000000000000000000000000000000000000000000000000000000008152602081600481885afa5f9181610f8b575b50610e2557847f4c9c8ce3000000000000000000000000000000000000000000000000000000005f5260045260245ffd5b807f360894a13ba1a3210667c828492db98dca3e2076cc3735a920a3ca505d382bbc869203610f605750823b15610f3557807fffffffffffffffffffffffff00000000000000000000000000000000000000007f360894a13ba1a3210667c828492db98dca3e2076cc3735a920a3ca505d382bbc5416177f360894a13ba1a3210667c828492db98dca3e2076cc3735a920a3ca505d382bbc557fbc7cd75a20ee27fd9adebab32041f755214dbc6bffa90cc0225b39da2e5c2d3b5f80a2825115610f03575f8091610997945190845af4610efd6119fe565b91611ee9565b50505034610f0d57005b7fb398979f000000000000000000000000000000000000000000000000000000005f5260045ffd5b7f4c9c8ce3000000000000000000000000000000000000000000000000000000005f5260045260245ffd5b7faa1d49a4000000000000000000000000000000000000000000000000000000005f5260045260245ffd5b9091506020813d602011610fb7575b81610fa760209383611390565b8101031261010857519086610df4565b3d9150610f9a565b60846040517f6317e35f00000000000000000000000000000000000000000000000000000000815260206004820152602360248201527f4f6e6c792061646d696e2063616e20706572666f726d2074686973206163746960448201527f6f6e2e00000000000000000000000000000000000000000000000000000000006064820152fd5b611065915060403d60401161106c575b61105d8183611390565b810190611a3a565b5084610d9f565b503d611053565b6040513d5f823e3d90fd5b905073ffffffffffffffffffffffffffffffffffffffff7f360894a13ba1a3210667c828492db98dca3e2076cc3735a920a3ca505d382bbc5416141584610d19565b34610108576110ce3661131e565b6110d83633611438565b61111f8373ffffffffffffffffffffffffffffffffffffffff165f527fcb711bda070b7bbcc2b711ef3993cc17677144f4419b29e303bef375c5f40f0060205260405f2090565b73ffffffffffffffffffffffffffffffffffffffff82165f526020528160405f2054106111e95773ffffffffffffffffffffffffffffffffffffffff836111698385602097611833565b16805f525f845260405f2073ffffffffffffffffffffffffffffffffffffffff83165f52845260405f2061119e8482546117b7565b90557fa372d74f11f208f0466eb410f699d101da6ccbe3717f711988fb355eac737f628473ffffffffffffffffffffffffffffffffffffffff604051948686521693a3604051908152f35b7fa9e575de000000000000000000000000000000000000000000000000000000005f5260045ffd5b346101085761121f3661131e565b6112293633611438565b73ffffffffffffffffffffffffffffffffffffffff8316805f525f60205260405f2073ffffffffffffffffffffffffffffffffffffffff83165f526020528260405f2054106112d35761128a828486611285838360209a611764565b6117c4565b7f29f33620d8742cb2079bba3afb003116b7db185e4f58a4bd6bc4291b6d99fcbc8473ffffffffffffffffffffffffffffffffffffffff604051948686521693a3604051908152f35b7fb7cc22bc000000000000000000000000000000000000000000000000000000005f5260045ffd5b6004359073ffffffffffffffffffffffffffffffffffffffff8216820361010857565b7ffffffffffffffffffffffffffffffffffffffffffffffffffffffffffffffffc60609101126101085760043573ffffffffffffffffffffffffffffffffffffffff8116810361010857906024359060443573ffffffffffffffffffffffffffffffffffffffff811681036101085790565b90601f7fffffffffffffffffffffffffffffffffffffffffffffffffffffffffffffffe0910116810190811067ffffffffffffffff8211176113d157604052565b7f4e487b71000000000000000000000000000000000000000000000000000000005f52604160045260245ffd5b67ffffffffffffffff81116113d157601f017fffffffffffffffffffffffffffffffffffffffffffffffffffffffffffffffe01660200190565b907ff3177357ab46d8af007ab3fdb9af81da189e1068fefdc0073dca88a2cab40a00549173ffffffffffffffffffffffffffffffffffffffff83169282600411610108575f805f806040519573ffffffffffffffffffffffffffffffffffffffff60208801917fb700961300000000000000000000000000000000000000000000000000000000835216968760248201523060448201527fffffffff00000000000000000000000000000000000000000000000000000000833516606482015260648152611507608482611390565b5190895afa6115146119fe565b906116cc575b5015611528575b5050505050565b63ffffffff16156116a0577fffffffffffffffffffffff00ffffffffffffffffffffffffffffffffffffffff1674010000000000000000000000000000000000000000177ff3177357ab46d8af007ab3fdb9af81da189e1068fefdc0073dca88a2cab40a0055823b15610108577fffffffffffffffffffffffffffffffffffffffffffffffffffffffffffffffe0925f92836064601f94604051978896879586937f94c7d7ee00000000000000000000000000000000000000000000000000000000855260048501526040602485015280604485015280868686013785858286010152011681010301925af1801561107357611690575b507fffffffffffffffffffffff00ffffffffffffffffffffffffffffffffffffffff7ff3177357ab46d8af007ab3fdb9af81da189e1068fefdc0073dca88a2cab40a0054167ff3177357ab46d8af007ab3fdb9af81da189e1068fefdc0073dca88a2cab40a00555f80808080611521565b5f61169a91611390565b5f61161f565b507f068ca9d8000000000000000000000000000000000000000000000000000000005f5260045260245ffd5b8051929091604084106116f45750506020806116ec938301019101611a3a565b905b5f61151a565b9190926020811015611708575b50506116ee565b81925090602091810103126101085760206117239101611a2d565b5f80611701565b9190820391821161173757565b7f4e487b71000000000000000000000000000000000000000000000000000000005f52601160045260245ffd5b73ffffffffffffffffffffffffffffffffffffffff90929192165f525f60205273ffffffffffffffffffffffffffffffffffffffff60405f2091165f526020526117b360405f2091825461172a565b9055565b9190820180921161173757565b73ffffffffffffffffffffffffffffffffffffffff90929192165f527fcb711bda070b7bbcc2b711ef3993cc17677144f4419b29e303bef375c5f40f0060205273ffffffffffffffffffffffffffffffffffffffff60405f2091165f526020526117b360405f209182546117b7565b73ffffffffffffffffffffffffffffffffffffffff90929192165f527fcb711bda070b7bbcc2b711ef3993cc17677144f4419b29e303bef375c5f40f0060205273ffffffffffffffffffffffffffffffffffffffff60405f2091165f526020526117b360405f2091825461172a565b602073ffffffffffffffffffffffffffffffffffffffff7f2f658b440c35314f52658ea8a740e05b284cdc84dc9ae01e891f21b8933e7cad9216807fffffffffffffffffffffffff00000000000000000000000000000000000000007ff3177357ab46d8af007ab3fdb9af81da189e1068fefdc0073dca88a2cab40a005416177ff3177357ab46d8af007ab3fdb9af81da189e1068fefdc0073dca88a2cab40a0055604051908152a1565b9073ffffffffffffffffffffffffffffffffffffffff169081156119f85773ffffffffffffffffffffffffffffffffffffffff602460209260405194859384927f70a082310000000000000000000000000000000000000000000000000000000084521660048301525afa908115611073575f916119c9575090565b90506020813d6020116119f0575b816119e460209383611390565b81010312610108575190565b3d91506119d7565b90503190565b3d15611a28573d90611a0f826113fe565b91611a1d6040519384611390565b82523d5f602084013e565b606090565b5190811515820361010857565b9190826040910312610108576020611a5183611a2d565b92015163ffffffff811681036101085790565b90918215611be75782611a77823061194d565b10611b895773ffffffffffffffffffffffffffffffffffffffff168015611afc57611afa9273ffffffffffffffffffffffffffffffffffffffff604051937fa9059cbb000000000000000000000000000000000000000000000000000000006020860152166024840152604483015260448252611af5606483611390565b611f82565b565b505f80809373ffffffffffffffffffffffffffffffffffffffff8294165af1611b236119fe565b5015611b2b57565b60646040517f9cf1483d00000000000000000000000000000000000000000000000000000000815260206004820152600f60248201527f5472616e73666572206661696c656400000000000000000000000000000000006044820152fd5b60646040517f9cf1483d00000000000000000000000000000000000000000000000000000000815260206004820152601560248201527f496e73756666696369656e742062616c616e63652e00000000000000000000006044820152fd5b60646040517f9cf1483d00000000000000000000000000000000000000000000000000000000815260206004820152602060248201527f496e76616c6964207a65726f20616d6f756e7420746f207472616e736665722e6044820152fd5b60ff7ff0c57e16840df040f15088dc2f81fe391c3923bec73e23a9662efc9c229c6a005460401c1615611c7457565b7fd7e6bcf8000000000000000000000000000000000000000000000000000000005f5260045ffd5b9190918215611e035773ffffffffffffffffffffffffffffffffffffffff8216918215611d9857611ccd9082611e61565b8311611d3a57611d379173ffffffffffffffffffffffffffffffffffffffff604051927f23b872dd00000000000000000000000000000000000000000000000000000000602085015216602483015230604483015283606483015260648252611af5608483611390565b90565b60646040517f23c7565800000000000000000000000000000000000000000000000000000000815260206004820152601960248201527f416d6f756e74206578636565647320616c6c6f77616e63652e000000000000006044820152fd5b505050348111611da55790565b60646040517f23c7565800000000000000000000000000000000000000000000000000000000815260206004820152601760248201527f416d6f756e7420657863656564732062616c616e63652e0000000000000000006044820152fd5b60646040517f23c7565800000000000000000000000000000000000000000000000000000000815260206004820152601460248201527f496e76616c6964207a65726f20616d6f756e742e0000000000000000000000006044820152fd5b9073ffffffffffffffffffffffffffffffffffffffff16908115611ee35773ffffffffffffffffffffffffffffffffffffffff604460209260405194859384927fdd62ed3e0000000000000000000000000000000000000000000000000000000084521660048301523060248301525afa908115611073575f916119c9575090565b50503490565b90611f265750805115611efe57805190602001fd5b7fd6bda275000000000000000000000000000000000000000000000000000000005f5260045ffd5b81511580611f79575b611f37575090565b73ffffffffffffffffffffffffffffffffffffffff907f9996b315000000000000000000000000000000000000000000000000000000005f521660045260245ffd5b50803b15611f2f565b905f602091828151910182855af115611073575f513d612000575073ffffffffffffffffffffffffffffffffffffffff81163b155b611fbe5750565b73ffffffffffffffffffffffffffffffffffffffff907f5274afe7000000000000000000000000000000000000000000000000000000005f521660045260245ffd5b60011415611fb756fea2646970667358221220bba30d0deb0a0c146aeabd8453744ea5f617f51b1b601e6e80e776efe9d67cf964736f6c634300081a0033","linkReferences":{}},"methodIdentifiers":{"UPGRADE_INTERFACE_VERSION()":"ad3cb1cc","authority()":"bf7e214f","claim(address,uint256,address)":"9e96a260","deposit(address,uint256,address)":"f45346dc","getBalance(address)":"f8b2cb4f","getLedgerBalance(address,address)":"d949b844","initialize(address)":"c4d66de8","isConsumingScheduledOp()":"8fb36037","lock(address,uint256,address)":"4bbc170a","proxiableUUID()":"52d1902d","release(address,uint256,address)":"15f41501","setAuthority(address)":"7a9e5e4b","transfer(address,uint256,address)":"dbba0f01","upgradeToAndCall(address,bytes)":"4f1ef286","withdraw(address,uint256,address)":"69328dec"},"storageLayout":{"storage":[{"astId":4718,"contract":"contracts/financial/LedgerVault.sol:LedgerVault","label":"_locked","offset":0,"slot":"0","type":"t_mapping(t_address,t_mapping(t_address,t_uint256))"}],"types":{"t_address":{"encoding":"inplace","label":"address","numberOfBytes":"20"},"t_mapping(t_address,t_mapping(t_address,t_uint256))":{"encoding":"mapping","key":"t_address","label":"mapping(address => mapping(address => uint256))","numberOfBytes":"32","value":"t_mapping(t_address,t_uint256)"},"t_mapping(t_address,t_uint256)":{"encoding":"mapping","key":"t_address","label":"mapping(address => uint256)","numberOfBytes":"32","value":"t_uint256"},"t_uint256":{"encoding":"inplace","label":"uint256","numberOfBytes":"32"}}},"id":54}