{"abi":[{"type":"constructor","inputs":[],"stateMutability":"nonpayable"},{"type":"function","name":"UPGRADE_INTERFACE_VERSION","inputs":[],"outputs":[{"name":"","type":"string","internalType":"string"}],"stateMutability":"view"},{"type":"function","name":"authority","inputs":[],"outputs":[{"name":"","type":"address","internalType":"address"}],"stateMutability":"view"},{"type":"function","name":"claim","inputs":[{"name":"account","type":"address","internalType":"address"},{"name":"amount","type":"uint256","internalType":"uint256"},{"name":"currency","type":"address","internalType":"address"}],"outputs":[{"name":"","type":"uint256","internalType":"uint256"}],"stateMutability":"nonpayable"},{"type":"function","name":"collect","inputs":[{"name":"from","type":"address","internalType":"address"},{"name":"amount","type":"uint256","internalType":"uint256"},{"name":"currency","type":"address","internalType":"address"}],"outputs":[{"name":"","type":"uint256","internalType":"uint256"}],"stateMutability":"nonpayable"},{"type":"function","name":"deposit","inputs":[{"name":"recipient","type":"address","internalType":"address"},{"name":"amount","type":"uint256","internalType":"uint256"},{"name":"currency","type":"address","internalType":"address"}],"outputs":[{"name":"","type":"uint256","internalType":"uint256"}],"stateMutability":"nonpayable"},{"type":"function","name":"getBalance","inputs":[{"name":"currency","type":"address","internalType":"address"}],"outputs":[{"name":"","type":"uint256","internalType":"uint256"}],"stateMutability":"view"},{"type":"function","name":"getLedgerBalance","inputs":[{"name":"account","type":"address","internalType":"address"},{"name":"currency","type":"address","internalType":"address"}],"outputs":[{"name":"","type":"uint256","internalType":"uint256"}],"stateMutability":"view"},{"type":"function","name":"initialize","inputs":[{"name":"accessManager","type":"address","internalType":"address"}],"outputs":[],"stateMutability":"nonpayable"},{"type":"function","name":"isConsumingScheduledOp","inputs":[],"outputs":[{"name":"","type":"bytes4","internalType":"bytes4"}],"stateMutability":"view"},{"type":"function","name":"lock","inputs":[{"name":"account","type":"address","internalType":"address"},{"name":"amount","type":"uint256","internalType":"uint256"},{"name":"currency","type":"address","internalType":"address"}],"outputs":[{"name":"","type":"uint256","internalType":"uint256"}],"stateMutability":"nonpayable"},{"type":"function","name":"proxiableUUID","inputs":[],"outputs":[{"name":"","type":"bytes32","internalType":"bytes32"}],"stateMutability":"view"},{"type":"function","name":"release","inputs":[{"name":"account","type":"address","internalType":"address"},{"name":"amount","type":"uint256","internalType":"uint256"},{"name":"currency","type":"address","internalType":"address"}],"outputs":[{"name":"","type":"uint256","internalType":"uint256"}],"stateMutability":"nonpayable"},{"type":"function","name":"reserve","inputs":[{"name":"to","type":"address","internalType":"address"},{"name":"amount","type":"uint256","internalType":"uint256"},{"name":"currency","type":"address","internalType":"address"}],"outputs":[{"name":"","type":"uint256","internalType":"uint256"}],"stateMutability":"nonpayable"},{"type":"function","name":"setAuthority","inputs":[{"name":"newAuthority","type":"address","internalType":"address"}],"outputs":[],"stateMutability":"nonpayable"},{"type":"function","name":"transfer","inputs":[{"name":"recipient","type":"address","internalType":"address"},{"name":"amount","type":"uint256","internalType":"uint256"},{"name":"currency","type":"address","internalType":"address"}],"outputs":[{"name":"","type":"uint256","internalType":"uint256"}],"stateMutability":"nonpayable"},{"type":"function","name":"upgradeToAndCall","inputs":[{"name":"newImplementation","type":"address","internalType":"address"},{"name":"data","type":"bytes","internalType":"bytes"}],"outputs":[],"stateMutability":"payable"},{"type":"function","name":"withdraw","inputs":[{"name":"recipient","type":"address","internalType":"address"},{"name":"amount","type":"uint256","internalType":"uint256"},{"name":"currency","type":"address","internalType":"address"}],"outputs":[{"name":"","type":"uint256","internalType":"uint256"}],"stateMutability":"nonpayable"},{"type":"event","name":"AuthorityUpdated","inputs":[{"name":"authority","type":"address","indexed":false,"internalType":"address"}],"anonymous":false},{"type":"event","name":"FundsClaimed","inputs":[{"name":"claimer","type":"address","indexed":true,"internalType":"address"},{"name":"amount","type":"uint256","indexed":false,"internalType":"uint256"},{"name":"currency","type":"address","indexed":true,"internalType":"address"}],"anonymous":false},{"type":"event","name":"FundsCollected","inputs":[{"name":"from","type":"address","indexed":true,"internalType":"address"},{"name":"to","type":"address","indexed":true,"internalType":"address"},{"name":"amount","type":"uint256","indexed":false,"internalType":"uint256"},{"name":"currency","type":"address","indexed":true,"internalType":"address"}],"anonymous":false},{"type":"event","name":"FundsDeposited","inputs":[{"name":"recipient","type":"address","indexed":true,"internalType":"address"},{"name":"origin","type":"address","indexed":true,"internalType":"address"},{"name":"amount","type":"uint256","indexed":false,"internalType":"uint256"},{"name":"currency","type":"address","indexed":false,"internalType":"address"}],"anonymous":false},{"type":"event","name":"FundsLocked","inputs":[{"name":"account","type":"address","indexed":true,"internalType":"address"},{"name":"amount","type":"uint256","indexed":false,"internalType":"uint256"},{"name":"currency","type":"address","indexed":true,"internalType":"address"}],"anonymous":false},{"type":"event","name":"FundsReleased","inputs":[{"name":"account","type":"address","indexed":true,"internalType":"address"},{"name":"amount","type":"uint256","indexed":false,"internalType":"uint256"},{"name":"currency","type":"address","indexed":true,"internalType":"address"}],"anonymous":false},{"type":"event","name":"FundsReserved","inputs":[{"name":"from","type":"address","indexed":true,"internalType":"address"},{"name":"to","type":"address","indexed":true,"internalType":"address"},{"name":"amount","type":"uint256","indexed":false,"internalType":"uint256"},{"name":"currency","type":"address","indexed":true,"internalType":"address"}],"anonymous":false},{"type":"event","name":"FundsTransferred","inputs":[{"name":"recipient","type":"address","indexed":true,"internalType":"address"},{"name":"origin","type":"address","indexed":true,"internalType":"address"},{"name":"amount","type":"uint256","indexed":false,"internalType":"uint256"},{"name":"currency","type":"address","indexed":false,"internalType":"address"}],"anonymous":false},{"type":"event","name":"FundsWithdrawn","inputs":[{"name":"recipient","type":"address","indexed":true,"internalType":"address"},{"name":"origin","type":"address","indexed":true,"internalType":"address"},{"name":"amount","type":"uint256","indexed":false,"internalType":"uint256"},{"name":"currency","type":"address","indexed":true,"internalType":"address"}],"anonymous":false},{"type":"event","name":"Initialized","inputs":[{"name":"version","type":"uint64","indexed":false,"internalType":"uint64"}],"anonymous":false},{"type":"event","name":"Upgraded","inputs":[{"name":"implementation","type":"address","indexed":true,"internalType":"address"}],"anonymous":false},{"type":"error","name":"AccessManagedInvalidAuthority","inputs":[{"name":"authority","type":"address","internalType":"address"}]},{"type":"error","name":"AccessManagedRequiredDelay","inputs":[{"name":"caller","type":"address","internalType":"address"},{"name":"delay","type":"uint32","internalType":"uint32"}]},{"type":"error","name":"AccessManagedUnauthorized","inputs":[{"name":"caller","type":"address","internalType":"address"}]},{"type":"error","name":"AddressEmptyCode","inputs":[{"name":"target","type":"address","internalType":"address"}]},{"type":"error","name":"ERC1967InvalidImplementation","inputs":[{"name":"implementation","type":"address","internalType":"address"}]},{"type":"error","name":"ERC1967NonPayable","inputs":[]},{"type":"error","name":"FailDuringDeposit","inputs":[{"name":"reason","type":"string","internalType":"string"}]},{"type":"error","name":"FailDuringTransfer","inputs":[{"name":"reason","type":"string","internalType":"string"}]},{"type":"error","name":"FailedCall","inputs":[]},{"type":"error","name":"InvalidInitialization","inputs":[]},{"type":"error","name":"InvalidUnauthorizedOperation","inputs":[{"name":"","type":"string","internalType":"string"}]},{"type":"error","name":"NoFundsToClaim","inputs":[]},{"type":"error","name":"NoFundsToCollect","inputs":[]},{"type":"error","name":"NoFundsToLock","inputs":[]},{"type":"error","name":"NoFundsToRelease","inputs":[]},{"type":"error","name":"NoFundsToReserve","inputs":[]},{"type":"error","name":"NoFundsToTransfer","inputs":[]},{"type":"error","name":"NoFundsToWithdraw","inputs":[]},{"type":"error","name":"NotInitializing","inputs":[]},{"type":"error","name":"ReentrancyGuardReentrantCall","inputs":[]},{"type":"error","name":"SafeERC20FailedOperation","inputs":[{"name":"token","type":"address","internalType":"address"}]},{"type":"error","name":"UUPSUnauthorizedCallContext","inputs":[]},{"type":"error","name":"UUPSUnsupportedProxiableUUID","inputs":[{"name":"slot","type":"bytes32","internalType":"bytes32"}]}],"bytecode":{"object":"0x60a080604052346100e857306080527ff0c57e16840df040f15088dc2f81fe391c3923bec73e23a9662efc9c229c6a005460ff8160401c166100d9576002600160401b03196001600160401b03821601610073575b6040516122b790816100ed8239608051818181610c970152610db60152f35b6001600160401b0319166001600160401b039081177ff0c57e16840df040f15088dc2f81fe391c3923bec73e23a9662efc9c229c6a005581527fc7f505b2f371ae2175ee4913f4499e1f2633a7b5936321eed1cdaeb6115181d290602090a15f80610054565b63f92ee8a960e01b5f5260045ffd5b5f80fdfe60806040526004361015610011575f80fd5b5f3560e01c806315f41501146114395780632c2eb94a146112d95780634bbc170a146111885780634f1ef28614610d0f57806352d1902d14610c5257806369328dec14610b4d5780637a9e5e4b14610a585780638fb36037146109a75780639e96a260146108bc578063ad3cb1cc1461080a578063b4fb2ea7146106ab578063bf7e214f1461063b578063c4d66de814610367578063d949b8441461029d578063dbba0f01146101a6578063f45346dc146101225763f8b2cb4f146100d4575f80fd5b3461011e5760207ffffffffffffffffffffffffffffffffffffffffffffffffffffffffffffffffc36011261011e576020610116610110611523565b30611f1b565b604051908152f35b5f80fd5b3461011e57602061013e61013536611546565b80939133611d56565b9161014a8184846119ec565b6040805184815273ffffffffffffffffffffffffffffffffffffffff92831660208201523393909216917f2d26b12df00031a51cbd91c763887ccf6992992e54b2701fbe5bd7b2c738a4e291819081015b0390a3604051908152f35b3461011e576101b436611546565b91335f527fcb711bda070b7bbcc2b711ef3993cc17677144f4419b29e303bef375c5f40f0060205260405f2073ffffffffffffffffffffffffffffffffffffffff84165f526020528160405f20541061027557826102156020948433611a5b565b6102208184846119ec565b6040805184815273ffffffffffffffffffffffffffffffffffffffff92831660208201523393909216917fe93251c2a6f732155f1cd84502a2c66884e81835c0d4768a10d81fcd79510be7918190810161019b565b7fd1df6ed0000000000000000000000000000000000000000000000000000000005f5260045ffd5b3461011e5760407ffffffffffffffffffffffffffffffffffffffffffffffffffffffffffffffffc36011261011e576102d4611523565b6024359073ffffffffffffffffffffffffffffffffffffffff8216820361011e5761035173ffffffffffffffffffffffffffffffffffffffff9173ffffffffffffffffffffffffffffffffffffffff165f527fcb711bda070b7bbcc2b711ef3993cc17677144f4419b29e303bef375c5f40f0060205260405f2090565b91165f52602052602060405f2054604051908152f35b3461011e5760207ffffffffffffffffffffffffffffffffffffffffffffffffffffffffffffffffc36011261011e5761039e611523565b7ff0c57e16840df040f15088dc2f81fe391c3923bec73e23a9662efc9c229c6a005460ff8160401c16159167ffffffffffffffff821680159081610633575b6001149081610629575b159081610620575b506105f857818360017fffffffffffffffffffffffffffffffffffffffffffffffff000000000000000073ffffffffffffffffffffffffffffffffffffffff9516177ff0c57e16840df040f15088dc2f81fe391c3923bec73e23a9662efc9c229c6a00556105a3575b50610461612082565b610469612082565b610471612082565b610479612082565b610481612082565b610489612082565b610491612082565b61049a81611cab565b6104a2612082565b167fffffffffffffffffffffffff00000000000000000000000000000000000000007fb8e950798a2a06a6f5727a94041b193569f4f67d69a0de3cf866d93822e7fa005416177fb8e950798a2a06a6f5727a94041b193569f4f67d69a0de3cf866d93822e7fa005561051057005b7fffffffffffffffffffffffffffffffffffffffffffffff00ffffffffffffffff7ff0c57e16840df040f15088dc2f81fe391c3923bec73e23a9662efc9c229c6a0054167ff0c57e16840df040f15088dc2f81fe391c3923bec73e23a9662efc9c229c6a00557fc7f505b2f371ae2175ee4913f4499e1f2633a7b5936321eed1cdaeb6115181d2602060405160018152a1005b7fffffffffffffffffffffffffffffffffffffffffffffff0000000000000000001668010000000000000001177ff0c57e16840df040f15088dc2f81fe391c3923bec73e23a9662efc9c229c6a005583610458565b7ff92ee8a9000000000000000000000000000000000000000000000000000000005f5260045ffd5b905015846103ef565b303b1591506103e7565b8491506103dd565b3461011e575f7ffffffffffffffffffffffffffffffffffffffffffffffffffffffffffffffffc36011261011e57602073ffffffffffffffffffffffffffffffffffffffff7ff3177357ab46d8af007ab3fdb9af81da189e1068fefdc0073dca88a2cab40a005416604051908152f35b3461011e576106b936611546565b916107013373ffffffffffffffffffffffffffffffffffffffff165f527fcb711bda070b7bbcc2b711ef3993cc17677144f4419b29e303bef375c5f40f0060205260405f2090565b73ffffffffffffffffffffffffffffffffffffffff84165f526020528160405f2054106107e357826107366020948433611a5b565b6107408233612032565b5f527fa8707513830ffbd3c47e0c83d1f5f0270db240ae37bb1f9a13f077f85b949c00845260405f2073ffffffffffffffffffffffffffffffffffffffff82165f52845260405f206107938482546119df565b905573ffffffffffffffffffffffffffffffffffffffff8060405192858452169216907fefe3f8439756d801b1c87c65156763cb37dfe4029063fa02119547331fb60d55853392a4604051908152f35b7ef08faa000000000000000000000000000000000000000000000000000000005f5260045ffd5b3461011e575f7ffffffffffffffffffffffffffffffffffffffffffffffffffffffffffffffffc36011261011e57604080519061084781836115b8565b6005825260208201917f352e302e3000000000000000000000000000000000000000000000000000000083527fffffffffffffffffffffffffffffffffffffffffffffffffffffffffffffffe0601f8351948593602085525180918160208701528686015e5f85828601015201168101030190f35b3461011e576108ca36611546565b6108d43633611660565b73ffffffffffffffffffffffffffffffffffffffff83165f525f60205260405f2073ffffffffffffffffffffffffffffffffffffffff82165f526020528160405f20541061097f57610929818360209561198c565b6109348183336119ec565b73ffffffffffffffffffffffffffffffffffffffff6040519183835216907f07b798e47a298c7004dfddcb1196e6b8f9a6488dd1db7eeedbc8a4c3f4831563843392a3604051908152f35b7fdff46e2b000000000000000000000000000000000000000000000000000000005f5260045ffd5b3461011e575f7ffffffffffffffffffffffffffffffffffffffffffffffffffffffffffffffffc36011261011e577ff3177357ab46d8af007ab3fdb9af81da189e1068fefdc0073dca88a2cab40a005460a01c60ff1615610a505760207f8fb36037000000000000000000000000000000000000000000000000000000005b7fffffffff0000000000000000000000000000000000000000000000000000000060405191168152f35b60205f610a26565b3461011e5760207ffffffffffffffffffffffffffffffffffffffffffffffffffffffffffffffffc36011261011e57610a8f611523565b73ffffffffffffffffffffffffffffffffffffffff7ff3177357ab46d8af007ab3fdb9af81da189e1068fefdc0073dca88a2cab40a0054163303610b2157803b15610adf57610add90611cab565b005b73ffffffffffffffffffffffffffffffffffffffff907fc2f31e5e000000000000000000000000000000000000000000000000000000005f521660045260245ffd5b7f068ca9d8000000000000000000000000000000000000000000000000000000005f523360045260245ffd5b3461011e57610b5b36611546565b335f9081527fcb711bda070b7bbcc2b711ef3993cc17677144f4419b29e303bef375c5f40f006020526040902073ffffffffffffffffffffffffffffffffffffffff82165f526020528160405f205410610c2a57602092610bbd828433611a5b565b610bc8828483611aca565b73ffffffffffffffffffffffffffffffffffffffff6040519284845216917f823b7dcdbd5806d97a2a3c64fe281a8d31155b2a7dade87fdaa7437c79c12b118573ffffffffffffffffffffffffffffffffffffffff33941692a4604051908152f35b7f67e3990d000000000000000000000000000000000000000000000000000000005f5260045ffd5b3461011e575f7ffffffffffffffffffffffffffffffffffffffffffffffffffffffffffffffffc36011261011e5773ffffffffffffffffffffffffffffffffffffffff7f0000000000000000000000000000000000000000000000000000000000000000163003610ce75760206040517f360894a13ba1a3210667c828492db98dca3e2076cc3735a920a3ca505d382bbc8152f35b7fe07c8dba000000000000000000000000000000000000000000000000000000005f5260045ffd5b60407ffffffffffffffffffffffffffffffffffffffffffffffffffffffffffffffffc36011261011e57610d41611523565b6024359067ffffffffffffffff821161011e573660238301121561011e57816004013590610d6e82611626565b91610d7c60405193846115b8565b8083526020830193366024838301011161011e57815f9260246020930187378401015273ffffffffffffffffffffffffffffffffffffffff7f000000000000000000000000000000000000000000000000000000000000000016803014908115611146575b50610ce7576044604073ffffffffffffffffffffffffffffffffffffffff7fb8e950798a2a06a6f5727a94041b193569f4f67d69a0de3cf866d93822e7fa0054168151928380927fd1f856ee0000000000000000000000000000000000000000000000000000000082525f60048301523360248301525afa90811561113b575f9161110b575b50156110875773ffffffffffffffffffffffffffffffffffffffff8116926040517f52d1902d000000000000000000000000000000000000000000000000000000008152602081600481885afa5f9181611053575b50610eed57847f4c9c8ce3000000000000000000000000000000000000000000000000000000005f5260045260245ffd5b807f360894a13ba1a3210667c828492db98dca3e2076cc3735a920a3ca505d382bbc8692036110285750823b15610ffd57807fffffffffffffffffffffffff00000000000000000000000000000000000000007f360894a13ba1a3210667c828492db98dca3e2076cc3735a920a3ca505d382bbc5416177f360894a13ba1a3210667c828492db98dca3e2076cc3735a920a3ca505d382bbc557fbc7cd75a20ee27fd9adebab32041f755214dbc6bffa90cc0225b39da2e5c2d3b5f80a2825115610fcb575f8091610add945190845af4610fc5611fcc565b916121e8565b50505034610fd557005b7fb398979f000000000000000000000000000000000000000000000000000000005f5260045ffd5b7f4c9c8ce3000000000000000000000000000000000000000000000000000000005f5260045260245ffd5b7faa1d49a4000000000000000000000000000000000000000000000000000000005f5260045260245ffd5b9091506020813d60201161107f575b8161106f602093836115b8565b8101031261011e57519086610ebc565b3d9150611062565b60846040517f6317e35f00000000000000000000000000000000000000000000000000000000815260206004820152602360248201527f4f6e6c792061646d696e2063616e20706572666f726d2074686973206163746960448201527f6f6e2e00000000000000000000000000000000000000000000000000000000006064820152fd5b61112d915060403d604011611134575b61112581836115b8565b810190612008565b5084610e67565b503d61111b565b6040513d5f823e3d90fd5b905073ffffffffffffffffffffffffffffffffffffffff7f360894a13ba1a3210667c828492db98dca3e2076cc3735a920a3ca505d382bbc5416141584610de1565b3461011e5761119636611546565b6111a03633611660565b6111e78373ffffffffffffffffffffffffffffffffffffffff165f527fcb711bda070b7bbcc2b711ef3993cc17677144f4419b29e303bef375c5f40f0060205260405f2090565b73ffffffffffffffffffffffffffffffffffffffff82165f526020528160405f2054106112b15773ffffffffffffffffffffffffffffffffffffffff836112318385602097611a5b565b16805f525f845260405f2073ffffffffffffffffffffffffffffffffffffffff83165f52845260405f206112668482546119df565b90557fa372d74f11f208f0466eb410f699d101da6ccbe3717f711988fb355eac737f628473ffffffffffffffffffffffffffffffffffffffff604051948686521693a3604051908152f35b7fa9e575de000000000000000000000000000000000000000000000000000000005f5260045ffd5b3461011e576112e736611546565b6112f13384612032565b5f527fa8707513830ffbd3c47e0c83d1f5f0270db240ae37bb1f9a13f077f85b949c0060205260405f2073ffffffffffffffffffffffffffffffffffffffff82165f526020528160405f2054106114115760209261134f3382612032565b5f527fa8707513830ffbd3c47e0c83d1f5f0270db240ae37bb1f9a13f077f85b949c00845260405f2073ffffffffffffffffffffffffffffffffffffffff83165f52845260405f206113a2848254611952565b90556113af8284336119ec565b73ffffffffffffffffffffffffffffffffffffffff6040519284845216917fb86f5fa8e97aba565b1ac0fa25de5437a80a39dc9bf20638866c57efd521c98e8573ffffffffffffffffffffffffffffffffffffffff33941692a4604051908152f35b7ff333765d000000000000000000000000000000000000000000000000000000005f5260045ffd5b3461011e5761144736611546565b6114513633611660565b73ffffffffffffffffffffffffffffffffffffffff8316805f525f60205260405f2073ffffffffffffffffffffffffffffffffffffffff83165f526020528260405f2054106114fb576114b28284866114ad838360209a61198c565b6119ec565b7f29f33620d8742cb2079bba3afb003116b7db185e4f58a4bd6bc4291b6d99fcbc8473ffffffffffffffffffffffffffffffffffffffff604051948686521693a3604051908152f35b7fb7cc22bc000000000000000000000000000000000000000000000000000000005f5260045ffd5b6004359073ffffffffffffffffffffffffffffffffffffffff8216820361011e57565b7ffffffffffffffffffffffffffffffffffffffffffffffffffffffffffffffffc606091011261011e5760043573ffffffffffffffffffffffffffffffffffffffff8116810361011e57906024359060443573ffffffffffffffffffffffffffffffffffffffff8116810361011e5790565b90601f7fffffffffffffffffffffffffffffffffffffffffffffffffffffffffffffffe0910116810190811067ffffffffffffffff8211176115f957604052565b7f4e487b71000000000000000000000000000000000000000000000000000000005f52604160045260245ffd5b67ffffffffffffffff81116115f957601f017fffffffffffffffffffffffffffffffffffffffffffffffffffffffffffffffe01660200190565b907ff3177357ab46d8af007ab3fdb9af81da189e1068fefdc0073dca88a2cab40a00549173ffffffffffffffffffffffffffffffffffffffff8316928260041161011e575f805f806040519573ffffffffffffffffffffffffffffffffffffffff60208801917fb700961300000000000000000000000000000000000000000000000000000000835216968760248201523060448201527fffffffff0000000000000000000000000000000000000000000000000000000083351660648201526064815261172f6084826115b8565b5190895afa61173c611fcc565b906118f4575b5015611750575b5050505050565b63ffffffff16156118c8577fffffffffffffffffffffff00ffffffffffffffffffffffffffffffffffffffff1674010000000000000000000000000000000000000000177ff3177357ab46d8af007ab3fdb9af81da189e1068fefdc0073dca88a2cab40a0055823b1561011e577fffffffffffffffffffffffffffffffffffffffffffffffffffffffffffffffe0925f92836064601f94604051978896879586937f94c7d7ee00000000000000000000000000000000000000000000000000000000855260048501526040602485015280604485015280868686013785858286010152011681010301925af1801561113b576118b8575b507fffffffffffffffffffffff00ffffffffffffffffffffffffffffffffffffffff7ff3177357ab46d8af007ab3fdb9af81da189e1068fefdc0073dca88a2cab40a0054167ff3177357ab46d8af007ab3fdb9af81da189e1068fefdc0073dca88a2cab40a00555f80808080611749565b5f6118c2916115b8565b5f611847565b507f068ca9d8000000000000000000000000000000000000000000000000000000005f5260045260245ffd5b80519290916040841061191c575050602080611914938301019101612008565b905b5f611742565b9190926020811015611930575b5050611916565b819250906020918101031261011e57602061194b9101611ffb565b5f80611929565b9190820391821161195f57565b7f4e487b71000000000000000000000000000000000000000000000000000000005f52601160045260245ffd5b73ffffffffffffffffffffffffffffffffffffffff90929192165f525f60205273ffffffffffffffffffffffffffffffffffffffff60405f2091165f526020526119db60405f20918254611952565b9055565b9190820180921161195f57565b73ffffffffffffffffffffffffffffffffffffffff90929192165f527fcb711bda070b7bbcc2b711ef3993cc17677144f4419b29e303bef375c5f40f0060205273ffffffffffffffffffffffffffffffffffffffff60405f2091165f526020526119db60405f209182546119df565b73ffffffffffffffffffffffffffffffffffffffff90929192165f527fcb711bda070b7bbcc2b711ef3993cc17677144f4419b29e303bef375c5f40f0060205273ffffffffffffffffffffffffffffffffffffffff60405f2091165f526020526119db60405f20918254611952565b90918215611c4d5782611add8230611f1b565b10611bef5773ffffffffffffffffffffffffffffffffffffffff168015611b6257611b609273ffffffffffffffffffffffffffffffffffffffff604051937fa9059cbb000000000000000000000000000000000000000000000000000000006020860152166024840152604483015260448252611b5b6064836115b8565b612161565b565b505f80809373ffffffffffffffffffffffffffffffffffffffff8294165af1611b89611fcc565b5015611b9157565b60646040517f9cf1483d00000000000000000000000000000000000000000000000000000000815260206004820152600f60248201527f5472616e73666572206661696c656400000000000000000000000000000000006044820152fd5b60646040517f9cf1483d00000000000000000000000000000000000000000000000000000000815260206004820152601560248201527f496e73756666696369656e742062616c616e63652e00000000000000000000006044820152fd5b60646040517f9cf1483d00000000000000000000000000000000000000000000000000000000815260206004820152602060248201527f496e76616c6964207a65726f20616d6f756e7420746f207472616e736665722e6044820152fd5b602073ffffffffffffffffffffffffffffffffffffffff7f2f658b440c35314f52658ea8a740e05b284cdc84dc9ae01e891f21b8933e7cad9216807fffffffffffffffffffffffff00000000000000000000000000000000000000007ff3177357ab46d8af007ab3fdb9af81da189e1068fefdc0073dca88a2cab40a005416177ff3177357ab46d8af007ab3fdb9af81da189e1068fefdc0073dca88a2cab40a0055604051908152a1565b9190918215611ebd5773ffffffffffffffffffffffffffffffffffffffff8216918215611e5257611d8790826120d9565b8311611df457611df19173ffffffffffffffffffffffffffffffffffffffff604051927f23b872dd00000000000000000000000000000000000000000000000000000000602085015216602483015230604483015283606483015260648252611b5b6084836115b8565b90565b60646040517f23c7565800000000000000000000000000000000000000000000000000000000815260206004820152601960248201527f416d6f756e74206578636565647320616c6c6f77616e63652e000000000000006044820152fd5b505050348111611e5f5790565b60646040517f23c7565800000000000000000000000000000000000000000000000000000000815260206004820152601760248201527f416d6f756e7420657863656564732062616c616e63652e0000000000000000006044820152fd5b60646040517f23c7565800000000000000000000000000000000000000000000000000000000815260206004820152601460248201527f496e76616c6964207a65726f20616d6f756e742e0000000000000000000000006044820152fd5b9073ffffffffffffffffffffffffffffffffffffffff16908115611fc65773ffffffffffffffffffffffffffffffffffffffff602460209260405194859384927f70a082310000000000000000000000000000000000000000000000000000000084521660048301525afa90811561113b575f91611f97575090565b90506020813d602011611fbe575b81611fb2602093836115b8565b8101031261011e575190565b3d9150611fa5565b90503190565b3d15611ff6573d90611fdd82611626565b91611feb60405193846115b8565b82523d5f602084013e565b606090565b5190811515820361011e57565b919082604091031261011e57602061201f83611ffb565b92015163ffffffff8116810361011e5790565b907fffffffffffffffffffffffffffffffffffffffff0000000000000000000000006040519181602084019460601b16845260601b1660348201526028815261207c6048826115b8565b51902090565b60ff7ff0c57e16840df040f15088dc2f81fe391c3923bec73e23a9662efc9c229c6a005460401c16156120b157565b7fd7e6bcf8000000000000000000000000000000000000000000000000000000005f5260045ffd5b9073ffffffffffffffffffffffffffffffffffffffff1690811561215b5773ffffffffffffffffffffffffffffffffffffffff604460209260405194859384927fdd62ed3e0000000000000000000000000000000000000000000000000000000084521660048301523060248301525afa90811561113b575f91611f97575090565b50503490565b905f602091828151910182855af11561113b575f513d6121df575073ffffffffffffffffffffffffffffffffffffffff81163b155b61219d5750565b73ffffffffffffffffffffffffffffffffffffffff907f5274afe7000000000000000000000000000000000000000000000000000000005f521660045260245ffd5b60011415612196565b9061222557508051156121fd57805190602001fd5b7fd6bda275000000000000000000000000000000000000000000000000000000005f5260045ffd5b81511580612278575b612236575090565b73ffffffffffffffffffffffffffffffffffffffff907f9996b315000000000000000000000000000000000000000000000000000000005f521660045260245ffd5b50803b1561222e56fea2646970667358221220b5bb5d01e75b9aef0f7b2e6614f98d468232088e5db3117dd7ab5eb8f8a0698d64736f6c634300081a0033","linkReferences":{}},"methodIdentifiers":{"UPGRADE_INTERFACE_VERSION()":"ad3cb1cc","authority()":"bf7e214f","claim(address,uint256,address)":"9e96a260","collect(address,uint256,address)":"2c2eb94a","deposit(address,uint256,address)":"f45346dc","getBalance(address)":"f8b2cb4f","getLedgerBalance(address,address)":"d949b844","initialize(address)":"c4d66de8","isConsumingScheduledOp()":"8fb36037","lock(address,uint256,address)":"4bbc170a","proxiableUUID()":"52d1902d","release(address,uint256,address)":"15f41501","reserve(address,uint256,address)":"b4fb2ea7","setAuthority(address)":"7a9e5e4b","transfer(address,uint256,address)":"dbba0f01","upgradeToAndCall(address,bytes)":"4f1ef286","withdraw(address,uint256,address)":"69328dec"},"storageLayout":{"storage":[{"astId":5046,"contract":"contracts/financial/LedgerVault.sol:LedgerVault","label":"_locked","offset":0,"slot":"0","type":"t_mapping(t_address,t_mapping(t_address,t_uint256))"}],"types":{"t_address":{"encoding":"inplace","label":"address","numberOfBytes":"20"},"t_mapping(t_address,t_mapping(t_address,t_uint256))":{"encoding":"mapping","key":"t_address","label":"mapping(address => mapping(address => uint256))","numberOfBytes":"32","value":"t_mapping(t_address,t_uint256)"},"t_mapping(t_address,t_uint256)":{"encoding":"mapping","key":"t_address","label":"mapping(address => uint256)","numberOfBytes":"32","value":"t_uint256"},"t_uint256":{"encoding":"inplace","label":"uint256","numberOfBytes":"32"}}},"id":57}