{
  "abi": [
    {
      "type": "constructor",
      "inputs": [],
      "stateMutability": "nonpayable"
    },
    {
      "type": "function",
      "name": "UPGRADE_INTERFACE_VERSION",
      "inputs": [],
      "outputs": [
        {
          "name": "",
          "type": "string",
          "internalType": "string"
        }
      ],
      "stateMutability": "view"
    },
    {
      "type": "function",
      "name": "authority",
      "inputs": [],
      "outputs": [
        {
          "name": "",
          "type": "address",
          "internalType": "address"
        }
      ],
      "stateMutability": "view"
    },
    {
      "type": "function",
      "name": "claim",
      "inputs": [
        {
          "name": "account",
          "type": "address",
          "internalType": "address"
        },
        {
          "name": "amount",
          "type": "uint256",
          "internalType": "uint256"
        },
        {
          "name": "currency",
          "type": "address",
          "internalType": "address"
        }
      ],
      "outputs": [
        {
          "name": "",
          "type": "uint256",
          "internalType": "uint256"
        }
      ],
      "stateMutability": "nonpayable"
    },
    {
      "type": "function",
      "name": "deposit",
      "inputs": [
        {
          "name": "recipient",
          "type": "address",
          "internalType": "address"
        },
        {
          "name": "amount",
          "type": "uint256",
          "internalType": "uint256"
        },
        {
          "name": "currency",
          "type": "address",
          "internalType": "address"
        }
      ],
      "outputs": [
        {
          "name": "",
          "type": "uint256",
          "internalType": "uint256"
        }
      ],
      "stateMutability": "nonpayable"
    },
    {
      "type": "function",
      "name": "getBalance",
      "inputs": [
        {
          "name": "currency",
          "type": "address",
          "internalType": "address"
        }
      ],
      "outputs": [
        {
          "name": "",
          "type": "uint256",
          "internalType": "uint256"
        }
      ],
      "stateMutability": "view"
    },
    {
      "type": "function",
      "name": "getLedgerBalance",
      "inputs": [
        {
          "name": "account",
          "type": "address",
          "internalType": "address"
        },
        {
          "name": "currency",
          "type": "address",
          "internalType": "address"
        }
      ],
      "outputs": [
        {
          "name": "",
          "type": "uint256",
          "internalType": "uint256"
        }
      ],
      "stateMutability": "view"
    },
    {
      "type": "function",
      "name": "initialize",
      "inputs": [
        {
          "name": "accessManager",
          "type": "address",
          "internalType": "address"
        }
      ],
      "outputs": [],
      "stateMutability": "nonpayable"
    },
    {
      "type": "function",
      "name": "isConsumingScheduledOp",
      "inputs": [],
      "outputs": [
        {
          "name": "",
          "type": "bytes4",
          "internalType": "bytes4"
        }
      ],
      "stateMutability": "view"
    },
    {
      "type": "function",
      "name": "lock",
      "inputs": [
        {
          "name": "account",
          "type": "address",
          "internalType": "address"
        },
        {
          "name": "amount",
          "type": "uint256",
          "internalType": "uint256"
        },
        {
          "name": "currency",
          "type": "address",
          "internalType": "address"
        }
      ],
      "outputs": [
        {
          "name": "",
          "type": "uint256",
          "internalType": "uint256"
        }
      ],
      "stateMutability": "nonpayable"
    },
    {
      "type": "function",
      "name": "proxiableUUID",
      "inputs": [],
      "outputs": [
        {
          "name": "",
          "type": "bytes32",
          "internalType": "bytes32"
        }
      ],
      "stateMutability": "view"
    },
    {
      "type": "function",
      "name": "release",
      "inputs": [
        {
          "name": "account",
          "type": "address",
          "internalType": "address"
        },
        {
          "name": "amount",
          "type": "uint256",
          "internalType": "uint256"
        },
        {
          "name": "currency",
          "type": "address",
          "internalType": "address"
        }
      ],
      "outputs": [
        {
          "name": "",
          "type": "uint256",
          "internalType": "uint256"
        }
      ],
      "stateMutability": "nonpayable"
    },
    {
      "type": "function",
      "name": "setAuthority",
      "inputs": [
        {
          "name": "newAuthority",
          "type": "address",
          "internalType": "address"
        }
      ],
      "outputs": [],
      "stateMutability": "nonpayable"
    },
    {
      "type": "function",
      "name": "transfer",
      "inputs": [
        {
          "name": "recipient",
          "type": "address",
          "internalType": "address"
        },
        {
          "name": "amount",
          "type": "uint256",
          "internalType": "uint256"
        },
        {
          "name": "currency",
          "type": "address",
          "internalType": "address"
        }
      ],
      "outputs": [
        {
          "name": "",
          "type": "uint256",
          "internalType": "uint256"
        }
      ],
      "stateMutability": "nonpayable"
    },
    {
      "type": "function",
      "name": "upgradeToAndCall",
      "inputs": [
        {
          "name": "newImplementation",
          "type": "address",
          "internalType": "address"
        },
        {
          "name": "data",
          "type": "bytes",
          "internalType": "bytes"
        }
      ],
      "outputs": [],
      "stateMutability": "payable"
    },
    {
      "type": "function",
      "name": "withdraw",
      "inputs": [
        {
          "name": "recipient",
          "type": "address",
          "internalType": "address"
        },
        {
          "name": "amount",
          "type": "uint256",
          "internalType": "uint256"
        },
        {
          "name": "currency",
          "type": "address",
          "internalType": "address"
        }
      ],
      "outputs": [
        {
          "name": "",
          "type": "uint256",
          "internalType": "uint256"
        }
      ],
      "stateMutability": "nonpayable"
    },
    {
      "type": "event",
      "name": "AuthorityUpdated",
      "inputs": [
        {
          "name": "authority",
          "type": "address",
          "indexed": false,
          "internalType": "address"
        }
      ],
      "anonymous": false
    },
    {
      "type": "event",
      "name": "FundsClaimed",
      "inputs": [
        {
          "name": "claimer",
          "type": "address",
          "indexed": true,
          "internalType": "address"
        },
        {
          "name": "amount",
          "type": "uint256",
          "indexed": false,
          "internalType": "uint256"
        },
        {
          "name": "currency",
          "type": "address",
          "indexed": true,
          "internalType": "address"
        }
      ],
      "anonymous": false
    },
    {
      "type": "event",
      "name": "FundsDeposited",
      "inputs": [
        {
          "name": "recipient",
          "type": "address",
          "indexed": true,
          "internalType": "address"
        },
        {
          "name": "origin",
          "type": "address",
          "indexed": true,
          "internalType": "address"
        },
        {
          "name": "amount",
          "type": "uint256",
          "indexed": false,
          "internalType": "uint256"
        },
        {
          "name": "currency",
          "type": "address",
          "indexed": false,
          "internalType": "address"
        }
      ],
      "anonymous": false
    },
    {
      "type": "event",
      "name": "FundsLocked",
      "inputs": [
        {
          "name": "account",
          "type": "address",
          "indexed": true,
          "internalType": "address"
        },
        {
          "name": "amount",
          "type": "uint256",
          "indexed": false,
          "internalType": "uint256"
        },
        {
          "name": "currency",
          "type": "address",
          "indexed": true,
          "internalType": "address"
        }
      ],
      "anonymous": false
    },
    {
      "type": "event",
      "name": "FundsReleased",
      "inputs": [
        {
          "name": "account",
          "type": "address",
          "indexed": true,
          "internalType": "address"
        },
        {
          "name": "amount",
          "type": "uint256",
          "indexed": false,
          "internalType": "uint256"
        },
        {
          "name": "currency",
          "type": "address",
          "indexed": true,
          "internalType": "address"
        }
      ],
      "anonymous": false
    },
    {
      "type": "event",
      "name": "FundsTransferred",
      "inputs": [
        {
          "name": "recipient",
          "type": "address",
          "indexed": true,
          "internalType": "address"
        },
        {
          "name": "origin",
          "type": "address",
          "indexed": true,
          "internalType": "address"
        },
        {
          "name": "amount",
          "type": "uint256",
          "indexed": false,
          "internalType": "uint256"
        },
        {
          "name": "currency",
          "type": "address",
          "indexed": false,
          "internalType": "address"
        }
      ],
      "anonymous": false
    },
    {
      "type": "event",
      "name": "FundsWithdrawn",
      "inputs": [
        {
          "name": "recipient",
          "type": "address",
          "indexed": true,
          "internalType": "address"
        },
        {
          "name": "origin",
          "type": "address",
          "indexed": true,
          "internalType": "address"
        },
        {
          "name": "amount",
          "type": "uint256",
          "indexed": false,
          "internalType": "uint256"
        },
        {
          "name": "currency",
          "type": "address",
          "indexed": true,
          "internalType": "address"
        }
      ],
      "anonymous": false
    },
    {
      "type": "event",
      "name": "Initialized",
      "inputs": [
        {
          "name": "version",
          "type": "uint64",
          "indexed": false,
          "internalType": "uint64"
        }
      ],
      "anonymous": false
    },
    {
      "type": "event",
      "name": "Upgraded",
      "inputs": [
        {
          "name": "implementation",
          "type": "address",
          "indexed": true,
          "internalType": "address"
        }
      ],
      "anonymous": false
    },
    {
      "type": "error",
      "name": "AccessManagedInvalidAuthority",
      "inputs": [
        {
          "name": "authority",
          "type": "address",
          "internalType": "address"
        }
      ]
    },
    {
      "type": "error",
      "name": "AccessManagedRequiredDelay",
      "inputs": [
        {
          "name": "caller",
          "type": "address",
          "internalType": "address"
        },
        {
          "name": "delay",
          "type": "uint32",
          "internalType": "uint32"
        }
      ]
    },
    {
      "type": "error",
      "name": "AccessManagedUnauthorized",
      "inputs": [
        {
          "name": "caller",
          "type": "address",
          "internalType": "address"
        }
      ]
    },
    {
      "type": "error",
      "name": "AddressEmptyCode",
      "inputs": [
        {
          "name": "target",
          "type": "address",
          "internalType": "address"
        }
      ]
    },
    {
      "type": "error",
      "name": "ERC1967InvalidImplementation",
      "inputs": [
        {
          "name": "implementation",
          "type": "address",
          "internalType": "address"
        }
      ]
    },
    {
      "type": "error",
      "name": "ERC1967NonPayable",
      "inputs": []
    },
    {
      "type": "error",
      "name": "FailDuringDeposit",
      "inputs": [
        {
          "name": "reason",
          "type": "string",
          "internalType": "string"
        }
      ]
    },
    {
      "type": "error",
      "name": "FailDuringTransfer",
      "inputs": [
        {
          "name": "reason",
          "type": "string",
          "internalType": "string"
        }
      ]
    },
    {
      "type": "error",
      "name": "FailedCall",
      "inputs": []
    },
    {
      "type": "error",
      "name": "InvalidInitialization",
      "inputs": []
    },
    {
      "type": "error",
      "name": "InvalidUnauthorizedOperation",
      "inputs": [
        {
          "name": "",
          "type": "string",
          "internalType": "string"
        }
      ]
    },
    {
      "type": "error",
      "name": "NoFundsToClaim",
      "inputs": []
    },
    {
      "type": "error",
      "name": "NoFundsToLock",
      "inputs": []
    },
    {
      "type": "error",
      "name": "NoFundsToRelease",
      "inputs": []
    },
    {
      "type": "error",
      "name": "NoFundsToTransfer",
      "inputs": []
    },
    {
      "type": "error",
      "name": "NoFundsToWithdraw",
      "inputs": []
    },
    {
      "type": "error",
      "name": "NotInitializing",
      "inputs": []
    },
    {
      "type": "error",
      "name": "ReentrancyGuardReentrantCall",
      "inputs": []
    },
    {
      "type": "error",
      "name": "SafeERC20FailedOperation",
      "inputs": [
        {
          "name": "token",
          "type": "address",
          "internalType": "address"
        }
      ]
    },
    {
      "type": "error",
      "name": "UUPSUnauthorizedCallContext",
      "inputs": []
    },
    {
      "type": "error",
      "name": "UUPSUnsupportedProxiableUUID",
      "inputs": [
        {
          "name": "slot",
          "type": "bytes32",
          "internalType": "bytes32"
        }
      ]
    }
  ],
  "bytecode": {
    "object": "0x60a080604052346100e857306080527ff0c57e16840df040f15088dc2f81fe391c3923bec73e23a9662efc9c229c6a005460ff8160401c166100d9576002600160401b03196001600160401b03821601610073575b60405161202590816100ed8239608051818181610bb50152610cd40152f35b6001600160401b0319166001600160401b039081177ff0c57e16840df040f15088dc2f81fe391c3923bec73e23a9662efc9c229c6a005581527fc7f505b2f371ae2175ee4913f4499e1f2633a7b5936321eed1cdaeb6115181d290602090a15f80610054565b63f92ee8a960e01b5f5260045ffd5b5f80fdfe60806040526004361015610011575f80fd5b5f3560e01c806315f41501146111f75780634bbc170a146110a65780634f1ef28614610c2d57806352d1902d14610b7057806369328dec146109d85780637a9e5e4b146108e35780638fb36037146108325780639e96a26014610747578063ad3cb1cc14610695578063bf7e214f14610625578063c4d66de814610351578063d949b84414610287578063dbba0f0114610190578063f45346dc1461010c5763f8b2cb4f146100be575f80fd5b346101085760207ffffffffffffffffffffffffffffffffffffffffffffffffffffffffffffffffc3601126101085760206101006100fa6112e1565b30611933565b604051908152f35b5f80fd5b3461010857602061012861011f36611304565b80939133611c82565b916101348184846117aa565b6040805184815273ffffffffffffffffffffffffffffffffffffffff92831660208201523393909216917f2d26b12df00031a51cbd91c763887ccf6992992e54b2701fbe5bd7b2c738a4e291819081015b0390a3604051908152f35b346101085761019e36611304565b91335f527fcb711bda070b7bbcc2b711ef3993cc17677144f4419b29e303bef375c5f40f0060205260405f2073ffffffffffffffffffffffffffffffffffffffff84165f526020528160405f20541061025f57826101ff6020948433611819565b61020a8184846117aa565b6040805184815273ffffffffffffffffffffffffffffffffffffffff92831660208201523393909216917fe93251c2a6f732155f1cd84502a2c66884e81835c0d4768a10d81fcd79510be79181908101610185565b7fd1df6ed0000000000000000000000000000000000000000000000000000000005f5260045ffd5b346101085760407ffffffffffffffffffffffffffffffffffffffffffffffffffffffffffffffffc360112610108576102be6112e1565b6024359073ffffffffffffffffffffffffffffffffffffffff821682036101085761033b73ffffffffffffffffffffffffffffffffffffffff9173ffffffffffffffffffffffffffffffffffffffff165f527fcb711bda070b7bbcc2b711ef3993cc17677144f4419b29e303bef375c5f40f0060205260405f2090565b91165f52602052602060405f2054604051908152f35b346101085760207ffffffffffffffffffffffffffffffffffffffffffffffffffffffffffffffffc360112610108576103886112e1565b7ff0c57e16840df040f15088dc2f81fe391c3923bec73e23a9662efc9c229c6a005460ff8160401c16159167ffffffffffffffff82168015908161061d575b6001149081610613575b15908161060a575b506105e257818360017fffffffffffffffffffffffffffffffffffffffffffffffff000000000000000073ffffffffffffffffffffffffffffffffffffffff9516177ff0c57e16840df040f15088dc2f81fe391c3923bec73e23a9662efc9c229c6a005561058d575b5061044b611c2b565b610453611c2b565b61045b611c2b565b610463611c2b565b61046b611c2b565b610473611c2b565b61047b611c2b565b61048481611888565b61048c611c2b565b167fffffffffffffffffffffffff00000000000000000000000000000000000000007fb8e950798a2a06a6f5727a94041b193569f4f67d69a0de3cf866d93822e7fa005416177fb8e950798a2a06a6f5727a94041b193569f4f67d69a0de3cf866d93822e7fa00556104fa57005b7fffffffffffffffffffffffffffffffffffffffffffffff00ffffffffffffffff7ff0c57e16840df040f15088dc2f81fe391c3923bec73e23a9662efc9c229c6a0054167ff0c57e16840df040f15088dc2f81fe391c3923bec73e23a9662efc9c229c6a00557fc7f505b2f371ae2175ee4913f4499e1f2633a7b5936321eed1cdaeb6115181d2602060405160018152a1005b7fffffffffffffffffffffffffffffffffffffffffffffff0000000000000000001668010000000000000001177ff0c57e16840df040f15088dc2f81fe391c3923bec73e23a9662efc9c229c6a005583610442565b7ff92ee8a9000000000000000000000000000000000000000000000000000000005f5260045ffd5b905015846103d9565b303b1591506103d1565b8491506103c7565b34610108575f7ffffffffffffffffffffffffffffffffffffffffffffffffffffffffffffffffc36011261010857602073ffffffffffffffffffffffffffffffffffffffff7ff3177357ab46d8af007ab3fdb9af81da189e1068fefdc0073dca88a2cab40a005416604051908152f35b34610108575f7ffffffffffffffffffffffffffffffffffffffffffffffffffffffffffffffffc3601126101085760408051906106d28183611376565b6005825260208201917f352e302e3000000000000000000000000000000000000000000000000000000083527fffffffffffffffffffffffffffffffffffffffffffffffffffffffffffffffe0601f8351948593602085525180918160208701528686015e5f85828601015201168101030190f35b346101085761075536611304565b61075f363361141e565b73ffffffffffffffffffffffffffffffffffffffff83165f525f60205260405f2073ffffffffffffffffffffffffffffffffffffffff82165f526020528160405f20541061080a576107b4818360209561174a565b6107bf8183336117aa565b73ffffffffffffffffffffffffffffffffffffffff6040519183835216907f07b798e47a298c7004dfddcb1196e6b8f9a6488dd1db7eeedbc8a4c3f4831563843392a3604051908152f35b7fdff46e2b000000000000000000000000000000000000000000000000000000005f5260045ffd5b34610108575f7ffffffffffffffffffffffffffffffffffffffffffffffffffffffffffffffffc360112610108577ff3177357ab46d8af007ab3fdb9af81da189e1068fefdc0073dca88a2cab40a005460a01c60ff16156108db5760207f8fb36037000000000000000000000000000000000000000000000000000000005b7fffffffff0000000000000000000000000000000000000000000000000000000060405191168152f35b60205f6108b1565b346101085760207ffffffffffffffffffffffffffffffffffffffffffffffffffffffffffffffffc3601126101085761091a6112e1565b73ffffffffffffffffffffffffffffffffffffffff7ff3177357ab46d8af007ab3fdb9af81da189e1068fefdc0073dca88a2cab40a00541633036109ac57803b1561096a5761096890611888565b005b73ffffffffffffffffffffffffffffffffffffffff907fc2f31e5e000000000000000000000000000000000000000000000000000000005f521660045260245ffd5b7f068ca9d8000000000000000000000000000000000000000000000000000000005f523360045260245ffd5b34610108576109e636611304565b7f9b779b17422d0df92223018b32b4d1fa46e071723d6817e2486d003becc55f005c610b485760017f9b779b17422d0df92223018b32b4d1fa46e071723d6817e2486d003becc55f005d335f527fcb711bda070b7bbcc2b711ef3993cc17677144f4419b29e303bef375c5f40f0060205260405f2073ffffffffffffffffffffffffffffffffffffffff82165f526020528160405f205410610b2057602092610a90828433611819565b610a9b828483611a4a565b73ffffffffffffffffffffffffffffffffffffffff6040519284845216917f823b7dcdbd5806d97a2a3c64fe281a8d31155b2a7dade87fdaa7437c79c12b118573ffffffffffffffffffffffffffffffffffffffff33941692a45f7f9b779b17422d0df92223018b32b4d1fa46e071723d6817e2486d003becc55f005d604051908152f35b7f67e3990d000000000000000000000000000000000000000000000000000000005f5260045ffd5b7f3ee5aeb5000000000000000000000000000000000000000000000000000000005f5260045ffd5b34610108575f7ffffffffffffffffffffffffffffffffffffffffffffffffffffffffffffffffc3601126101085773ffffffffffffffffffffffffffffffffffffffff7f0000000000000000000000000000000000000000000000000000000000000000163003610c055760206040517f360894a13ba1a3210667c828492db98dca3e2076cc3735a920a3ca505d382bbc8152f35b7fe07c8dba000000000000000000000000000000000000000000000000000000005f5260045ffd5b60407ffffffffffffffffffffffffffffffffffffffffffffffffffffffffffffffffc36011261010857610c5f6112e1565b6024359067ffffffffffffffff8211610108573660238301121561010857816004013590610c8c826113e4565b91610c9a6040519384611376565b8083526020830193366024838301011161010857815f9260246020930187378401015273ffffffffffffffffffffffffffffffffffffffff7f000000000000000000000000000000000000000000000000000000000000000016803014908115611064575b50610c05576044604073ffffffffffffffffffffffffffffffffffffffff7fb8e950798a2a06a6f5727a94041b193569f4f67d69a0de3cf866d93822e7fa0054168151928380927fd1f856ee0000000000000000000000000000000000000000000000000000000082525f60048301523360248301525afa908115611059575f91611029575b5015610fa55773ffffffffffffffffffffffffffffffffffffffff8116926040517f52d1902d000000000000000000000000000000000000000000000000000000008152602081600481885afa5f9181610f71575b50610e0b57847f4c9c8ce3000000000000000000000000000000000000000000000000000000005f5260045260245ffd5b807f360894a13ba1a3210667c828492db98dca3e2076cc3735a920a3ca505d382bbc869203610f465750823b15610f1b57807fffffffffffffffffffffffff00000000000000000000000000000000000000007f360894a13ba1a3210667c828492db98dca3e2076cc3735a920a3ca505d382bbc5416177f360894a13ba1a3210667c828492db98dca3e2076cc3735a920a3ca505d382bbc557fbc7cd75a20ee27fd9adebab32041f755214dbc6bffa90cc0225b39da2e5c2d3b5f80a2825115610ee9575f8091610968945190845af4610ee36119e4565b91611ecf565b50505034610ef357005b7fb398979f000000000000000000000000000000000000000000000000000000005f5260045ffd5b7f4c9c8ce3000000000000000000000000000000000000000000000000000000005f5260045260245ffd5b7faa1d49a4000000000000000000000000000000000000000000000000000000005f5260045260245ffd5b9091506020813d602011610f9d575b81610f8d60209383611376565b8101031261010857519086610dda565b3d9150610f80565b60846040517f6317e35f00000000000000000000000000000000000000000000000000000000815260206004820152602360248201527f4f6e6c792061646d696e2063616e20706572666f726d2074686973206163746960448201527f6f6e2e00000000000000000000000000000000000000000000000000000000006064820152fd5b61104b915060403d604011611052575b6110438183611376565b810190611a20565b5084610d85565b503d611039565b6040513d5f823e3d90fd5b905073ffffffffffffffffffffffffffffffffffffffff7f360894a13ba1a3210667c828492db98dca3e2076cc3735a920a3ca505d382bbc5416141584610cff565b34610108576110b436611304565b6110be363361141e565b6111058373ffffffffffffffffffffffffffffffffffffffff165f527fcb711bda070b7bbcc2b711ef3993cc17677144f4419b29e303bef375c5f40f0060205260405f2090565b73ffffffffffffffffffffffffffffffffffffffff82165f526020528160405f2054106111cf5773ffffffffffffffffffffffffffffffffffffffff8361114f8385602097611819565b16805f525f845260405f2073ffffffffffffffffffffffffffffffffffffffff83165f52845260405f2061118484825461179d565b90557fa372d74f11f208f0466eb410f699d101da6ccbe3717f711988fb355eac737f628473ffffffffffffffffffffffffffffffffffffffff604051948686521693a3604051908152f35b7fa9e575de000000000000000000000000000000000000000000000000000000005f5260045ffd5b346101085761120536611304565b61120f363361141e565b73ffffffffffffffffffffffffffffffffffffffff8316805f525f60205260405f2073ffffffffffffffffffffffffffffffffffffffff83165f526020528260405f2054106112b95761127082848661126b838360209a61174a565b6117aa565b7f29f33620d8742cb2079bba3afb003116b7db185e4f58a4bd6bc4291b6d99fcbc8473ffffffffffffffffffffffffffffffffffffffff604051948686521693a3604051908152f35b7fb7cc22bc000000000000000000000000000000000000000000000000000000005f5260045ffd5b6004359073ffffffffffffffffffffffffffffffffffffffff8216820361010857565b7ffffffffffffffffffffffffffffffffffffffffffffffffffffffffffffffffc60609101126101085760043573ffffffffffffffffffffffffffffffffffffffff8116810361010857906024359060443573ffffffffffffffffffffffffffffffffffffffff811681036101085790565b90601f7fffffffffffffffffffffffffffffffffffffffffffffffffffffffffffffffe0910116810190811067ffffffffffffffff8211176113b757604052565b7f4e487b71000000000000000000000000000000000000000000000000000000005f52604160045260245ffd5b67ffffffffffffffff81116113b757601f017fffffffffffffffffffffffffffffffffffffffffffffffffffffffffffffffe01660200190565b907ff3177357ab46d8af007ab3fdb9af81da189e1068fefdc0073dca88a2cab40a00549173ffffffffffffffffffffffffffffffffffffffff83169282600411610108575f805f806040519573ffffffffffffffffffffffffffffffffffffffff60208801917fb700961300000000000000000000000000000000000000000000000000000000835216968760248201523060448201527fffffffff000000000000000000000000000000000000000000000000000000008335166064820152606481526114ed608482611376565b5190895afa6114fa6119e4565b906116b2575b501561150e575b5050505050565b63ffffffff1615611686577fffffffffffffffffffffff00ffffffffffffffffffffffffffffffffffffffff1674010000000000000000000000000000000000000000177ff3177357ab46d8af007ab3fdb9af81da189e1068fefdc0073dca88a2cab40a0055823b15610108577fffffffffffffffffffffffffffffffffffffffffffffffffffffffffffffffe0925f92836064601f94604051978896879586937f94c7d7ee00000000000000000000000000000000000000000000000000000000855260048501526040602485015280604485015280868686013785858286010152011681010301925af1801561105957611676575b507fffffffffffffffffffffff00ffffffffffffffffffffffffffffffffffffffff7ff3177357ab46d8af007ab3fdb9af81da189e1068fefdc0073dca88a2cab40a0054167ff3177357ab46d8af007ab3fdb9af81da189e1068fefdc0073dca88a2cab40a00555f80808080611507565b5f61168091611376565b5f611605565b507f068ca9d8000000000000000000000000000000000000000000000000000000005f5260045260245ffd5b8051929091604084106116da5750506020806116d2938301019101611a20565b905b5f611500565b91909260208110156116ee575b50506116d4565b81925090602091810103126101085760206117099101611a13565b5f806116e7565b9190820391821161171d57565b7f4e487b71000000000000000000000000000000000000000000000000000000005f52601160045260245ffd5b73ffffffffffffffffffffffffffffffffffffffff90929192165f525f60205273ffffffffffffffffffffffffffffffffffffffff60405f2091165f5260205261179960405f20918254611710565b9055565b9190820180921161171d57565b73ffffffffffffffffffffffffffffffffffffffff90929192165f527fcb711bda070b7bbcc2b711ef3993cc17677144f4419b29e303bef375c5f40f0060205273ffffffffffffffffffffffffffffffffffffffff60405f2091165f5260205261179960405f2091825461179d565b73ffffffffffffffffffffffffffffffffffffffff90929192165f527fcb711bda070b7bbcc2b711ef3993cc17677144f4419b29e303bef375c5f40f0060205273ffffffffffffffffffffffffffffffffffffffff60405f2091165f5260205261179960405f20918254611710565b602073ffffffffffffffffffffffffffffffffffffffff7f2f658b440c35314f52658ea8a740e05b284cdc84dc9ae01e891f21b8933e7cad9216807fffffffffffffffffffffffff00000000000000000000000000000000000000007ff3177357ab46d8af007ab3fdb9af81da189e1068fefdc0073dca88a2cab40a005416177ff3177357ab46d8af007ab3fdb9af81da189e1068fefdc0073dca88a2cab40a0055604051908152a1565b9073ffffffffffffffffffffffffffffffffffffffff169081156119de5773ffffffffffffffffffffffffffffffffffffffff602460209260405194859384927f70a082310000000000000000000000000000000000000000000000000000000084521660048301525afa908115611059575f916119af575090565b90506020813d6020116119d6575b816119ca60209383611376565b81010312610108575190565b3d91506119bd565b90503190565b3d15611a0e573d906119f5826113e4565b91611a036040519384611376565b82523d5f602084013e565b606090565b5190811515820361010857565b9190826040910312610108576020611a3783611a13565b92015163ffffffff811681036101085790565b90918215611bcd5782611a5d8230611933565b10611b6f5773ffffffffffffffffffffffffffffffffffffffff168015611ae257611ae09273ffffffffffffffffffffffffffffffffffffffff604051937fa9059cbb000000000000000000000000000000000000000000000000000000006020860152166024840152604483015260448252611adb606483611376565b611f68565b565b505f80809373ffffffffffffffffffffffffffffffffffffffff8294165af1611b096119e4565b5015611b1157565b60646040517f9cf1483d00000000000000000000000000000000000000000000000000000000815260206004820152600f60248201527f5472616e73666572206661696c656400000000000000000000000000000000006044820152fd5b60646040517f9cf1483d00000000000000000000000000000000000000000000000000000000815260206004820152601560248201527f496e73756666696369656e742062616c616e63652e00000000000000000000006044820152fd5b60646040517f9cf1483d00000000000000000000000000000000000000000000000000000000815260206004820152602060248201527f496e76616c6964207a65726f20616d6f756e7420746f207472616e736665722e6044820152fd5b60ff7ff0c57e16840df040f15088dc2f81fe391c3923bec73e23a9662efc9c229c6a005460401c1615611c5a57565b7fd7e6bcf8000000000000000000000000000000000000000000000000000000005f5260045ffd5b9190918215611de95773ffffffffffffffffffffffffffffffffffffffff8216918215611d7e57611cb39082611e47565b8311611d2057611d1d9173ffffffffffffffffffffffffffffffffffffffff604051927f23b872dd00000000000000000000000000000000000000000000000000000000602085015216602483015230604483015283606483015260648252611adb608483611376565b90565b60646040517f23c7565800000000000000000000000000000000000000000000000000000000815260206004820152601960248201527f416d6f756e74206578636565647320616c6c6f77616e63652e000000000000006044820152fd5b505050348111611d8b5790565b60646040517f23c7565800000000000000000000000000000000000000000000000000000000815260206004820152601760248201527f416d6f756e7420657863656564732062616c616e63652e0000000000000000006044820152fd5b60646040517f23c7565800000000000000000000000000000000000000000000000000000000815260206004820152601460248201527f496e76616c6964207a65726f20616d6f756e742e0000000000000000000000006044820152fd5b9073ffffffffffffffffffffffffffffffffffffffff16908115611ec95773ffffffffffffffffffffffffffffffffffffffff604460209260405194859384927fdd62ed3e0000000000000000000000000000000000000000000000000000000084521660048301523060248301525afa908115611059575f916119af575090565b50503490565b90611f0c5750805115611ee457805190602001fd5b7fd6bda275000000000000000000000000000000000000000000000000000000005f5260045ffd5b81511580611f5f575b611f1d575090565b73ffffffffffffffffffffffffffffffffffffffff907f9996b315000000000000000000000000000000000000000000000000000000005f521660045260245ffd5b50803b15611f15565b905f602091828151910182855af115611059575f513d611fe6575073ffffffffffffffffffffffffffffffffffffffff81163b155b611fa45750565b73ffffffffffffffffffffffffffffffffffffffff907f5274afe7000000000000000000000000000000000000000000000000000000005f521660045260245ffd5b60011415611f9d56fea26469706673582212209c9a1eda87eb80f8aaecb5fc01f998c3f9bbb320844e92b87497d7da9cc15c6464736f6c634300081a0033",
    "linkReferences": {}
  },
  "methodIdentifiers": {
    "UPGRADE_INTERFACE_VERSION()": "ad3cb1cc",
    "authority()": "bf7e214f",
    "claim(address,uint256,address)": "9e96a260",
    "deposit(address,uint256,address)": "f45346dc",
    "getBalance(address)": "f8b2cb4f",
    "getLedgerBalance(address,address)": "d949b844",
    "initialize(address)": "c4d66de8",
    "isConsumingScheduledOp()": "8fb36037",
    "lock(address,uint256,address)": "4bbc170a",
    "proxiableUUID()": "52d1902d",
    "release(address,uint256,address)": "15f41501",
    "setAuthority(address)": "7a9e5e4b",
    "transfer(address,uint256,address)": "dbba0f01",
    "upgradeToAndCall(address,bytes)": "4f1ef286",
    "withdraw(address,uint256,address)": "69328dec"
  },
  "storageLayout": {
    "storage": [
      {
        "astId": 4706,
        "contract": "contracts/financial/LedgerVault.sol:LedgerVault",
        "label": "_locked",
        "offset": 0,
        "slot": "0",
        "type": "t_mapping(t_address,t_mapping(t_address,t_uint256))"
      }
    ],
    "types": {
      "t_address": {
        "encoding": "inplace",
        "label": "address",
        "numberOfBytes": "20"
      },
      "t_mapping(t_address,t_mapping(t_address,t_uint256))": {
        "encoding": "mapping",
        "key": "t_address",
        "label": "mapping(address => mapping(address => uint256))",
        "numberOfBytes": "32",
        "value": "t_mapping(t_address,t_uint256)"
      },
      "t_mapping(t_address,t_uint256)": {
        "encoding": "mapping",
        "key": "t_address",
        "label": "mapping(address => uint256)",
        "numberOfBytes": "32",
        "value": "t_uint256"
      },
      "t_uint256": {
        "encoding": "inplace",
        "label": "uint256",
        "numberOfBytes": "32"
      }
    }
  },
  "id": 54
}