{"abi":[{"type":"constructor","inputs":[{"name":"initialHolder","type":"address","internalType":"address"},{"name":"totalSupply","type":"uint256","internalType":"uint256"}],"stateMutability":"nonpayable"},{"type":"function","name":"CLOCK_MODE","inputs":[],"outputs":[{"name":"","type":"string","internalType":"string"}],"stateMutability":"view"},{"type":"function","name":"DOMAIN_SEPARATOR","inputs":[],"outputs":[{"name":"","type":"bytes32","internalType":"bytes32"}],"stateMutability":"view"},{"type":"function","name":"allowance","inputs":[{"name":"owner","type":"address","internalType":"address"},{"name":"spender","type":"address","internalType":"address"}],"outputs":[{"name":"","type":"uint256","internalType":"uint256"}],"stateMutability":"view"},{"type":"function","name":"approve","inputs":[{"name":"spender","type":"address","internalType":"address"},{"name":"value","type":"uint256","internalType":"uint256"}],"outputs":[{"name":"","type":"bool","internalType":"bool"}],"stateMutability":"nonpayable"},{"type":"function","name":"balanceOf","inputs":[{"name":"account","type":"address","internalType":"address"}],"outputs":[{"name":"","type":"uint256","internalType":"uint256"}],"stateMutability":"view"},{"type":"function","name":"burn","inputs":[{"name":"value","type":"uint256","internalType":"uint256"}],"outputs":[],"stateMutability":"nonpayable"},{"type":"function","name":"burnFrom","inputs":[{"name":"account","type":"address","internalType":"address"},{"name":"value","type":"uint256","internalType":"uint256"}],"outputs":[],"stateMutability":"nonpayable"},{"type":"function","name":"checkpoints","inputs":[{"name":"account","type":"address","internalType":"address"},{"name":"pos","type":"uint32","internalType":"uint32"}],"outputs":[{"name":"","type":"tuple","internalType":"struct Checkpoints.Checkpoint208","components":[{"name":"_key","type":"uint48","internalType":"uint48"},{"name":"_value","type":"uint208","internalType":"uint208"}]}],"stateMutability":"view"},{"type":"function","name":"clock","inputs":[],"outputs":[{"name":"","type":"uint48","internalType":"uint48"}],"stateMutability":"view"},{"type":"function","name":"decimals","inputs":[],"outputs":[{"name":"","type":"uint8","internalType":"uint8"}],"stateMutability":"view"},{"type":"function","name":"delegate","inputs":[{"name":"delegatee","type":"address","internalType":"address"}],"outputs":[],"stateMutability":"nonpayable"},{"type":"function","name":"delegateBySig","inputs":[{"name":"delegatee","type":"address","internalType":"address"},{"name":"nonce","type":"uint256","internalType":"uint256"},{"name":"expiry","type":"uint256","internalType":"uint256"},{"name":"v","type":"uint8","internalType":"uint8"},{"name":"r","type":"bytes32","internalType":"bytes32"},{"name":"s","type":"bytes32","internalType":"bytes32"}],"outputs":[],"stateMutability":"nonpayable"},{"type":"function","name":"delegates","inputs":[{"name":"account","type":"address","internalType":"address"}],"outputs":[{"name":"","type":"address","internalType":"address"}],"stateMutability":"view"},{"type":"function","name":"eip712Domain","inputs":[],"outputs":[{"name":"fields","type":"bytes1","internalType":"bytes1"},{"name":"name","type":"string","internalType":"string"},{"name":"version","type":"string","internalType":"string"},{"name":"chainId","type":"uint256","internalType":"uint256"},{"name":"verifyingContract","type":"address","internalType":"address"},{"name":"salt","type":"bytes32","internalType":"bytes32"},{"name":"extensions","type":"uint256[]","internalType":"uint256[]"}],"stateMutability":"view"},{"type":"function","name":"getPastTotalSupply","inputs":[{"name":"timepoint","type":"uint256","internalType":"uint256"}],"outputs":[{"name":"","type":"uint256","internalType":"uint256"}],"stateMutability":"view"},{"type":"function","name":"getPastVotes","inputs":[{"name":"account","type":"address","internalType":"address"},{"name":"timepoint","type":"uint256","internalType":"uint256"}],"outputs":[{"name":"","type":"uint256","internalType":"uint256"}],"stateMutability":"view"},{"type":"function","name":"getVotes","inputs":[{"name":"account","type":"address","internalType":"address"}],"outputs":[{"name":"","type":"uint256","internalType":"uint256"}],"stateMutability":"view"},{"type":"function","name":"name","inputs":[],"outputs":[{"name":"","type":"string","internalType":"string"}],"stateMutability":"view"},{"type":"function","name":"nonces","inputs":[{"name":"owner","type":"address","internalType":"address"}],"outputs":[{"name":"","type":"uint256","internalType":"uint256"}],"stateMutability":"view"},{"type":"function","name":"numCheckpoints","inputs":[{"name":"account","type":"address","internalType":"address"}],"outputs":[{"name":"","type":"uint32","internalType":"uint32"}],"stateMutability":"view"},{"type":"function","name":"permit","inputs":[{"name":"owner","type":"address","internalType":"address"},{"name":"spender","type":"address","internalType":"address"},{"name":"value","type":"uint256","internalType":"uint256"},{"name":"deadline","type":"uint256","internalType":"uint256"},{"name":"v","type":"uint8","internalType":"uint8"},{"name":"r","type":"bytes32","internalType":"bytes32"},{"name":"s","type":"bytes32","internalType":"bytes32"}],"outputs":[],"stateMutability":"nonpayable"},{"type":"function","name":"symbol","inputs":[],"outputs":[{"name":"","type":"string","internalType":"string"}],"stateMutability":"view"},{"type":"function","name":"totalSupply","inputs":[],"outputs":[{"name":"","type":"uint256","internalType":"uint256"}],"stateMutability":"view"},{"type":"function","name":"transfer","inputs":[{"name":"to","type":"address","internalType":"address"},{"name":"value","type":"uint256","internalType":"uint256"}],"outputs":[{"name":"","type":"bool","internalType":"bool"}],"stateMutability":"nonpayable"},{"type":"function","name":"transferFrom","inputs":[{"name":"from","type":"address","internalType":"address"},{"name":"to","type":"address","internalType":"address"},{"name":"value","type":"uint256","internalType":"uint256"}],"outputs":[{"name":"","type":"bool","internalType":"bool"}],"stateMutability":"nonpayable"},{"type":"event","name":"Approval","inputs":[{"name":"owner","type":"address","indexed":true,"internalType":"address"},{"name":"spender","type":"address","indexed":true,"internalType":"address"},{"name":"value","type":"uint256","indexed":false,"internalType":"uint256"}],"anonymous":false},{"type":"event","name":"DelegateChanged","inputs":[{"name":"delegator","type":"address","indexed":true,"internalType":"address"},{"name":"fromDelegate","type":"address","indexed":true,"internalType":"address"},{"name":"toDelegate","type":"address","indexed":true,"internalType":"address"}],"anonymous":false},{"type":"event","name":"DelegateVotesChanged","inputs":[{"name":"delegate","type":"address","indexed":true,"internalType":"address"},{"name":"previousVotes","type":"uint256","indexed":false,"internalType":"uint256"},{"name":"newVotes","type":"uint256","indexed":false,"internalType":"uint256"}],"anonymous":false},{"type":"event","name":"EIP712DomainChanged","inputs":[],"anonymous":false},{"type":"event","name":"Transfer","inputs":[{"name":"from","type":"address","indexed":true,"internalType":"address"},{"name":"to","type":"address","indexed":true,"internalType":"address"},{"name":"value","type":"uint256","indexed":false,"internalType":"uint256"}],"anonymous":false},{"type":"error","name":"CheckpointUnorderedInsertion","inputs":[]},{"type":"error","name":"ECDSAInvalidSignature","inputs":[]},{"type":"error","name":"ECDSAInvalidSignatureLength","inputs":[{"name":"length","type":"uint256","internalType":"uint256"}]},{"type":"error","name":"ECDSAInvalidSignatureS","inputs":[{"name":"s","type":"bytes32","internalType":"bytes32"}]},{"type":"error","name":"ERC20ExceededSafeSupply","inputs":[{"name":"increasedSupply","type":"uint256","internalType":"uint256"},{"name":"cap","type":"uint256","internalType":"uint256"}]},{"type":"error","name":"ERC20InsufficientAllowance","inputs":[{"name":"spender","type":"address","internalType":"address"},{"name":"allowance","type":"uint256","internalType":"uint256"},{"name":"needed","type":"uint256","internalType":"uint256"}]},{"type":"error","name":"ERC20InsufficientBalance","inputs":[{"name":"sender","type":"address","internalType":"address"},{"name":"balance","type":"uint256","internalType":"uint256"},{"name":"needed","type":"uint256","internalType":"uint256"}]},{"type":"error","name":"ERC20InvalidApprover","inputs":[{"name":"approver","type":"address","internalType":"address"}]},{"type":"error","name":"ERC20InvalidReceiver","inputs":[{"name":"receiver","type":"address","internalType":"address"}]},{"type":"error","name":"ERC20InvalidSender","inputs":[{"name":"sender","type":"address","internalType":"address"}]},{"type":"error","name":"ERC20InvalidSpender","inputs":[{"name":"spender","type":"address","internalType":"address"}]},{"type":"error","name":"ERC2612ExpiredSignature","inputs":[{"name":"deadline","type":"uint256","internalType":"uint256"}]},{"type":"error","name":"ERC2612InvalidSigner","inputs":[{"name":"signer","type":"address","internalType":"address"},{"name":"owner","type":"address","internalType":"address"}]},{"type":"error","name":"ERC5805FutureLookup","inputs":[{"name":"timepoint","type":"uint256","internalType":"uint256"},{"name":"clock","type":"uint48","internalType":"uint48"}]},{"type":"error","name":"ERC6372InconsistentClock","inputs":[]},{"type":"error","name":"InvalidAccountNonce","inputs":[{"name":"account","type":"address","internalType":"address"},{"name":"currentNonce","type":"uint256","internalType":"uint256"}]},{"type":"error","name":"InvalidShortString","inputs":[]},{"type":"error","name":"SafeCastOverflowedUintDowncast","inputs":[{"name":"bits","type":"uint8","internalType":"uint8"},{"name":"value","type":"uint256","internalType":"uint256"}]},{"type":"error","name":"StringTooLong","inputs":[{"name":"str","type":"string","internalType":"string"}]},{"type":"error","name":"VotesExpiredSignature","inputs":[{"name":"expiry","type":"uint256","internalType":"uint256"}]}],"bytecode":{"object":"0x61016060405234610098576040613238803803809161001d826100b0565b610160391261009857610160516001600160a01b03811681036100985761018051610047916101a4565b6040516124ee9081610d0a8239608051816114bb015260a05181611578015260c0518161148c015260e0518161150a0152610100518161153001526101205181610769015261014051816107920152f35b5f80fd5b634e487b7160e01b5f52604160045260245ffd5b610160601f91909101601f19168101906001600160401b038211908210176100d757604052565b61009c565b601f909101601f19168101906001600160401b038211908210176100d757604052565b6040519061010e6040836100dc565b565b6040519061011f6040836100dc565b60038252565b604051906101346040836100dc565b60018252565b604051906101496040836100dc565b600f82526e26bab63a34b6b2b234b09021b7b4b760891b6020830152565b634e487b7160e01b5f52601160045260245ffd5b90670de0b6b3a7640000820291808304670de0b6b3a7640000149015171561019f57565b610167565b9190916101af61013a565b926101b861013a565b936101c1610110565b90624d4d4360e81b60208301526101d6610125565b906020820192603160f81b8452875160018060401b0381116100d75761020681610201600354610331565b610369565b6020601f82116001146102a057916102448261024c9361028f999897969561010e9c9d5f92610295575b50508160011b915f199060031b1c19161790565b600355610408565b61025581610588565b610120526102628261067d565b610140526020815191012060e052519020610100524660a05261028361076f565b6080523060c05261017b565b906104e1565b015190505f80610230565b60035f52601f198216997fc2575a0e9e593c00f959f8c92f12db2869c3395a3b0502d05e2516446f71f85b9a5f5b81811061031957509261010e9a9b61028f9998979695936001938361024c9710610301575b505050811b01600355610408565b01515f1960f88460031b161c191690555f80806102f3565b838301518d556001909c019b602093840193016102ce565b90600182811c9216801561035f575b602083101461034b57565b634e487b7160e01b5f52602260045260245ffd5b91607f1691610340565b601f8111610375575050565b60035f5260205f20906020601f840160051c830193106103af575b601f0160051c01905b8181106103a4575050565b5f8155600101610399565b9091508190610390565b601f82116103c657505050565b5f5260205f20906020601f840160051c830193106103fe575b601f0160051c01905b8181106103f3575050565b5f81556001016103e8565b90915081906103df565b80519091906001600160401b0381116100d7576104318161042a600454610331565b60046103b9565b602092601f821160011461046557610460929382915f926102955750508160011b915f199060031b1c19161790565b600455565b60045f52601f198216937f8a35acfbc15ff81a39ae7d344fd709f28e8600b4aa8c65c6b64bfe7fe36bd19b915f5b8681106104c957508360019596106104b1575b505050811b01600455565b01515f1960f88460031b161c191690555f80806104a6565b91926020600181928685015181550194019201610493565b91906001600160a01b03831680156105755760025482810180911161019f576002555f81815260208181526040808320805486019055518481527fddf252ad1be2c89b69c2b068fc378daa952ba7f163c4a11628f55a4df523b3ef9190a3600254926001600160d01b0380851161055e575061010e929350610838565b630e58ae9360e11b5f52600485905260245260445ffd5b63ec442f0560e01b5f525f60045260245ffd5b908151602081105f146105a35750906105a0906107cd565b90565b6001600160401b0381116100d7576105c7816105c0600554610331565b60056103b9565b602092601f82116001146105fe576105f6929382915f926102955750508160011b915f199060031b1c19161790565b60055560ff90565b60055f52601f198216937f036b6384b5eca791c62761152d0c79bb0604c104a5fb6f4eb0703f3154bb3db0915f5b868110610665575083600195961061064d575b505050811b0160055560ff90565b01515f1960f88460031b161c191690555f808061063f565b9192602060018192868501518155019401920161062c565b908151602081105f146106955750906105a0906107cd565b6001600160401b0381116100d7576106b9816106b2600654610331565b60066103b9565b602092601f82116001146106f0576106e8929382915f926102955750508160011b915f199060031b1c19161790565b60065560ff90565b60065f52601f198216937ff652222313e28459528d920b65115c16c04f3efc82aaedc97be59f3f377c0d3f915f5b868110610757575083600195961061073f575b505050811b0160065560ff90565b01515f1960f88460031b161c191690555f8080610731565b9192602060018192868501518155019401920161071e565b60e051610100516040519060208201927f8b73c3c69bb8fe3d512ecc4cf759cc79239f7b179b0ffacaa9a75d522b39400f8452604083015260608201524660808201523060a082015260a081526107c760c0826100dc565b51902090565b601f8151116107f85760208151910151602082106107e9571790565b5f198260200360031b1b161790565b604460209160405192839163305a27a960e01b83528160048401528051918291826024860152018484015e5f828201840152601f01601f19168101030190fd5b9061084281610937565b9165ffffffffffff431161091f57600a54806108e9575061087c61086c61010e945f5b6001610cad565b65ffffffffffff4316600a610bd7565b50506001600160a01b031680156108d1575b60086020527f5eff886ea0ce6ca488a3d6e336d6c0f75f46d19b42c06ce5ee98e42c96d256c7545f9182526040909120546001600160a01b039081169116610a66565b6108e26108dd83610937565b610968565b505061088e565b92835f1981011161019f57600a5f525f805160206131f88339815191529093015461010e9361087c9161086c919060301c610865565b6306dfcc6560e41b5f5260306004524360245260445ffd5b6001600160d01b038111610951576001600160d01b031690565b6306dfcc6560e41b5f5260d060045260245260445ffd5b65ffffffffffff431161091f57600a5480610992575061086c61098e915f5b6002610cad565b9091565b805f1981011161019f57600a5f525f805160206131f8833981519152015461098e9161086c9160301c610987565b65ffffffffffff431161091f578054806109f457506109e461098e925f6002610cad565b9065ffffffffffff431690610bd7565b805f1981011161019f575f82815260209020015f19015461098e926109e49160301c610987565b65ffffffffffff431161091f57805480610a3f57506109e461098e925f6001610cad565b805f1981011161019f575f82815260209020015f19015461098e926109e49160301c610865565b6001600160a01b03808316939291908116908185141580610b59575b610a8e575b5050505050565b81610aff575b505082610aa3575b8080610a87565b6001600160a01b03165f9081526009602052604090205f8051602061321883398151915291610adc91610ad69091610937565b90610a1b565b604080516001600160d01b039384168152919092166020820152a25f8080610a9c565b6001600160a01b03165f9081526009602052604090205f8051602061321883398151915290610b3790610b3186610937565b906109c0565b604080516001600160d01b039384168152919092166020820152a25f80610a94565b50831515610a82565b5f1981019190821161019f57565b908154680100000000000000008110156100d75760018101808455811015610bc3575f9283526020928390208251929093015160301b65ffffffffffff191665ffffffffffff9290921691909117910155565b634e487b7160e01b5f52603260045260245ffd5b80549293928015610c8357610bee610bf991610b62565b825f5260205f200190565b8054603081901c9365ffffffffffff91821692918116808411610c7457879303610c405750610c3c92509065ffffffffffff82549181199060301b169116179055565b9190565b915050610c3c91610c60610c526100ff565b65ffffffffffff9093168352565b6001600160d01b0386166020830152610b70565b632520601d60e01b5f5260045ffd5b5090610ca891610c94610c526100ff565b6001600160d01b0385166020830152610b70565b5f9190565b91909180600114610cef57600214610cd357634e487b7160e01b5f52605160045260245ffd5b6001600160d01b039081169181169190910390811161019f5790565b506001600160d01b039182169082160190811161019f579056fe60806040526004361015610011575f80fd5b5f3560e01c806306fdde03146101a4578063095ea7b31461019f57806318160ddd1461019a57806323b872dd14610195578063313ce567146101905780633644e5151461018b5780633a46b1a81461018657806342966c68146101815780634bf5d7e91461017c578063587cde1e146101775780635c19a95c146101725780636fcfff451461016d57806370a082311461016857806379cc6790146101635780637ecebe001461015e57806384b0196e146101595780638e539e8c1461015457806391ddadf41461014f57806395d89b411461014a5780639ab24eb014610145578063a9059cbb14610140578063c3cda5201461013b578063d505accf14610136578063dd62ed3e146101315763f1127ed81461012c575f80fd5b610ea6565b610e33565b610c98565b610b2a565b610ae4565b610a7c565b6109d7565b6109ac565b610888565b610751565b61070c565b6106dc565b61069a565b610612565b6105f0565b610595565b6104ec565b6104cd565b610405565b6103e3565b6103c8565b610390565b610373565b610342565b610200565b907fffffffffffffffffffffffffffffffffffffffffffffffffffffffffffffffe0601f602080948051918291828752018686015e5f8582860101520116010190565b9060206101fd9281815201906101a9565b90565b346102f8575f6003193601126102f8576040515f60035461022081610fa9565b80845290600181169081156102b65750600114610258575b61025483610248818503826110e8565b604051918291826101ec565b0390f35b60035f9081527fc2575a0e9e593c00f959f8c92f12db2869c3395a3b0502d05e2516446f71f85b939250905b80821061029c57509091508101602001610248610238565b919260018160209254838588010152019101909291610284565b7fffffffffffffffffffffffffffffffffffffffffffffffffffffffffffffff001660208086019190915291151560051b840190910191506102489050610238565b5f80fd5b6004359073ffffffffffffffffffffffffffffffffffffffff821682036102f857565b6024359073ffffffffffffffffffffffffffffffffffffffff821682036102f857565b346102f85760406003193601126102f85761036861035e6102fc565b602435903361199f565b602060405160018152f35b346102f8575f6003193601126102f8576020600254604051908152f35b346102f85760606003193601126102f8576103686103ac6102fc565b6103b461031f565b604435916103c3833383611152565b6112d6565b346102f8575f6003193601126102f857602060405160128152f35b346102f8575f6003193601126102f85760206103fd611475565b604051908152f35b346102f85760406003193601126102f85761041e6102fc565b60243565ffffffffffff6104314361159e565b168082101561049e5761025479ffffffffffffffffffffffffffffffffffffffffffffffffffff61048d8473ffffffffffffffffffffffffffffffffffffffff87165f52600960205261048760405f209161159e565b90611621565b604051911681529081906020820190565b907fecd3f81e000000000000000000000000000000000000000000000000000000005f5260045260245260445ffd5b346102f85760206003193601126102f8576104ea600435336116b2565b005b346102f8575f6003193601126102f8576105054361159e565b65ffffffffffff806105164361159e565b1691160361056d5761025460405161052f6040826110e8565b601d81527f6d6f64653d626c6f636b6e756d6265722666726f6d3d64656661756c7400000060208201526040519182916020835260208301906101a9565b7f6ff07140000000000000000000000000000000000000000000000000000000005f5260045ffd5b346102f85760206003193601126102f85773ffffffffffffffffffffffffffffffffffffffff6105c36102fc565b165f526008602052602073ffffffffffffffffffffffffffffffffffffffff60405f205416604051908152f35b346102f85760206003193601126102f8576104ea61060c6102fc565b33611838565b346102f85760206003193601126102f85773ffffffffffffffffffffffffffffffffffffffff6106406102fc565b165f52600960205260405f205463ffffffff811161066a5760405163ffffffff9091168152602090f35b7f6dfcc650000000000000000000000000000000000000000000000000000000005f52602060045260245260445ffd5b346102f85760206003193601126102f85760206103fd6106b86102fc565b73ffffffffffffffffffffffffffffffffffffffff165f525f60205260405f205490565b346102f85760406003193601126102f8576104ea6106f86102fc565b60243590610707823383611152565b6116b2565b346102f85760206003193601126102f85773ffffffffffffffffffffffffffffffffffffffff61073a6102fc565b165f526007602052602060405f2054604051908152f35b346102f8575f6003193601126102f85761082f61078d7f0000000000000000000000000000000000000000000000000000000000000000611dd3565b6107b67f0000000000000000000000000000000000000000000000000000000000000000611e4c565b60206040516107c582826110e8565b5f81528161083d818301947fffffffffffffffffffffffffffffffffffffffffffffffffffffffffffffffe083013687376040519788977f0f00000000000000000000000000000000000000000000000000000000000000895260e0858a015260e08901906101a9565b9087820360408901526101a9565b914660608701523060808701525f60a087015285830360c087015251918281520192915f5b82811061087157505050500390f35b835185528695509381019392810192600101610862565b346102f85760206003193601126102f85760043565ffffffffffff6108ac4361159e565b16908181101561097e576108bf9061159e565b600a54905f829160058411610925575b6108db9350600a611be8565b80610909575060205f5b79ffffffffffffffffffffffffffffffffffffffffffffffffffff60405191168152f35b6109146020916115e6565b600a5f52815f20015460301c6108e5565b919261093081611a73565b8103908111610979576108db93600a5f5265ffffffffffff8260205f2001541665ffffffffffff8516105f146109675750916108cf565b92915061097390611613565b906108cf565b610f7c565b7fecd3f81e000000000000000000000000000000000000000000000000000000005f5260045260245260445ffd5b346102f8575f6003193601126102f85760206109c74361159e565b65ffffffffffff60405191168152f35b346102f8575f6003193601126102f8576040515f6004546109f781610fa9565b80845290600181169081156102b65750600114610a1e5761025483610248818503826110e8565b60045f9081527f8a35acfbc15ff81a39ae7d344fd709f28e8600b4aa8c65c6b64bfe7fe36bd19b939250905b808210610a6257509091508101602001610248610238565b919260018160209254838588010152019101909291610a4a565b346102f85760206003193601126102f85773ffffffffffffffffffffffffffffffffffffffff610aaa6102fc565b165f526009602052602079ffffffffffffffffffffffffffffffffffffffffffffffffffff610adb60405f206118e8565b16604051908152f35b346102f85760406003193601126102f857610368610b006102fc565b60243590336112d6565b6064359060ff821682036102f857565b6084359060ff821682036102f857565b346102f85760c06003193601126102f857610b436102fc565b60243590604435610b52610b0a565b6084359060a43592804211610c6d5791610be59391610bd7610bdc9460405160208101917fe48329057bfd03d55e49b547132e39cffd9c1820ad7b9d4c5307691425d15adf835273ffffffffffffffffffffffffffffffffffffffff8a1660408301528a6060830152608082015260808152610bcf60a0826110e8565b51902061194f565b611e83565b90929192611f54565b610c168173ffffffffffffffffffffffffffffffffffffffff165f52600760205260405f2080549060018201905590565b809303610c27576104ea9250611838565b73ffffffffffffffffffffffffffffffffffffffff91507f752d88c0000000000000000000000000000000000000000000000000000000005f521660045260245260445ffd5b7f4683af0e000000000000000000000000000000000000000000000000000000005f5260045260245ffd5b346102f85760e06003193601126102f857610cb16102fc565b610cb961031f565b6044359060643592610cc9610b1a565b60a43560c43590864211610e0757610d9992610d94610d0f8673ffffffffffffffffffffffffffffffffffffffff165f52600760205260405f2080549060018201905590565b9860405160208101917f6e71edae12b1b97f4d1f60370fef10105fa2faae0126114a169c64845d6126c9835273ffffffffffffffffffffffffffffffffffffffff89169b8c604084015273ffffffffffffffffffffffffffffffffffffffff8b1660608401528b608084015260a083015260c082015260c08152610bcf60e0826110e8565b611990565b9373ffffffffffffffffffffffffffffffffffffffff851603610dc0576104ea935061199f565b7f4b800e46000000000000000000000000000000000000000000000000000000005f5273ffffffffffffffffffffffffffffffffffffffff8085166004521660245260445ffd5b867f62791302000000000000000000000000000000000000000000000000000000005f5260045260245ffd5b346102f85760406003193601126102f8576020610e9d610e516102fc565b73ffffffffffffffffffffffffffffffffffffffff610e6e61031f565b91165f526001835260405f209073ffffffffffffffffffffffffffffffffffffffff165f5260205260405f2090565b54604051908152f35b346102f85760406003193601126102f857610ebf6102fc565b6024359063ffffffff821682036102f8576102549173ffffffffffffffffffffffffffffffffffffffff610f1992610ef561113a565b50610efe61113a565b50165f52600960205260405f20610f1361113a565b5061201b565b5060405190610f27826110c7565b5465ffffffffffff8116825260301c602082015260405191829182919091602079ffffffffffffffffffffffffffffffffffffffffffffffffffff81604084019565ffffffffffff8151168552015116910152565b7f4e487b71000000000000000000000000000000000000000000000000000000005f52601160045260245ffd5b90600182811c92168015610ff0575b6020831014610fc357565b7f4e487b71000000000000000000000000000000000000000000000000000000005f52602260045260245ffd5b91607f1691610fb8565b5f929181549161100983610fa9565b808352926001811690811561105e575060011461102557505050565b5f9081526020812093945091925b838310611044575060209250010190565b600181602092949394548385870101520191019190611033565b905060209495507fffffffffffffffffffffffffffffffffffffffffffffffffffffffffffffff0091509291921683830152151560051b010190565b7f4e487b71000000000000000000000000000000000000000000000000000000005f52604160045260245ffd5b6040810190811067ffffffffffffffff8211176110e357604052565b61109a565b90601f7fffffffffffffffffffffffffffffffffffffffffffffffffffffffffffffffe0910116810190811067ffffffffffffffff8211176110e357604052565b604051906111386040836110e8565b565b60405190611147826110c7565b5f6020838281520152565b73ffffffffffffffffffffffffffffffffffffffff909291921690815f5260016020526111a08360405f209073ffffffffffffffffffffffffffffffffffffffff165f5260205260405f2090565b547fffffffffffffffffffffffffffffffffffffffffffffffffffffffffffffffff81036111cf575b50505050565b81811061128e5782156112625773ffffffffffffffffffffffffffffffffffffffff8416156112365761122c925f526001602052039160405f209073ffffffffffffffffffffffffffffffffffffffff165f5260205260405f2090565b555f8080806111c9565b7f94280d62000000000000000000000000000000000000000000000000000000005f525f60045260245ffd5b7fe602df05000000000000000000000000000000000000000000000000000000005f525f60045260245ffd5b73ffffffffffffffffffffffffffffffffffffffff847ffb8f41b2000000000000000000000000000000000000000000000000000000005f521660045260245260445260645ffd5b92919073ffffffffffffffffffffffffffffffffffffffff84169384156114495773ffffffffffffffffffffffffffffffffffffffff8216801561141d5761133b8273ffffffffffffffffffffffffffffffffffffffff165f525f60205260405f2090565b54958487106113d157846111389697036113728473ffffffffffffffffffffffffffffffffffffffff165f525f60205260405f2090565b5561139a8473ffffffffffffffffffffffffffffffffffffffff165f525f60205260405f2090565b8054860190556040518581527fddf252ad1be2c89b69c2b068fc378daa952ba7f163c4a11628f55a4df523b3ef90602090a3612253565b7fe450d38c000000000000000000000000000000000000000000000000000000005f5273ffffffffffffffffffffffffffffffffffffffff83166004526024879052604485905260645ffd5b7fec442f05000000000000000000000000000000000000000000000000000000005f525f60045260245ffd5b7f96c6fd1e000000000000000000000000000000000000000000000000000000005f525f60045260245ffd5b73ffffffffffffffffffffffffffffffffffffffff7f000000000000000000000000000000000000000000000000000000000000000016301480611575575b156114dd577f000000000000000000000000000000000000000000000000000000000000000090565b60405160208101907f8b73c3c69bb8fe3d512ecc4cf759cc79239f7b179b0ffacaa9a75d522b39400f82527f000000000000000000000000000000000000000000000000000000000000000060408201527f000000000000000000000000000000000000000000000000000000000000000060608201524660808201523060a082015260a0815261156f60c0826110e8565b51902090565b507f000000000000000000000000000000000000000000000000000000000000000046146114b4565b65ffffffffffff81116115b65765ffffffffffff1690565b7f6dfcc650000000000000000000000000000000000000000000000000000000005f52603060045260245260445ffd5b907fffffffffffffffffffffffffffffffffffffffffffffffffffffffffffffffff820191821161097957565b906001820180921161097957565b908154905f82916005841161165f575b61163c935084611be8565b806116475750505f90565b611650906115e6565b905f5260205f20015460301c90565b919261166a81611a73565b81039081116109795761163c93855f5265ffffffffffff8260205f2001541665ffffffffffff8516105f146116a0575091611631565b9291506116ac90611613565b90611631565b73ffffffffffffffffffffffffffffffffffffffff8116908115611449576116f78173ffffffffffffffffffffffffffffffffffffffff165f525f60205260405f2090565b548381106117ed579061172f84611138959493039173ffffffffffffffffffffffffffffffffffffffff165f525f60205260405f2090565b5581600254036002555f817fddf252ad1be2c89b69c2b068fc378daa952ba7f163c4a11628f55a4df523b3ef60405180602081018782520390a380156117d5575b61178161177c8361205d565b6121f2565b50505f908152600860205260408120549080527f5eff886ea0ce6ca488a3d6e336d6c0f75f46d19b42c06ce5ee98e42c96d256c75473ffffffffffffffffffffffffffffffffffffffff9081169116611c4c565b6117e66117e18361205d565b612191565b5050611770565b7fe450d38c000000000000000000000000000000000000000000000000000000005f5273ffffffffffffffffffffffffffffffffffffffff909116600452602452604482905260645ffd5b73ffffffffffffffffffffffffffffffffffffffff8181165f81815260086020526040812080548685167fffffffffffffffffffffffff000000000000000000000000000000000000000082168117909255611138969416946118e29390928691907f3134e8a2e6d97e929a7e54011ea5485d7d196dd5f0ba4d4ef95803e8e3fc257f9080a473ffffffffffffffffffffffffffffffffffffffff165f525f60205260405f205490565b91611c4c565b8054806118f55750505f90565b807fffffffffffffffffffffffffffffffffffffffffffffffffffffffffffffffff810111610979577fffffffffffffffffffffffffffffffffffffffffffffffffffffffffffffffff915f5260205f2001015460301c90565b60429061195a611475565b90604051917f19010000000000000000000000000000000000000000000000000000000000008352600283015260228201522090565b916101fd9391610bdc93611e83565b73ffffffffffffffffffffffffffffffffffffffff169081156112625773ffffffffffffffffffffffffffffffffffffffff81169283156112365780611a2f7f8c5be1e5ebec7d5bd14f71427d1e84f3dd0314c0f7b2291e5b200ac8c7c3b92593855f52600160205260405f209073ffffffffffffffffffffffffffffffffffffffff165f5260205260405f2090565b55604051908152602090a3565b8115611a46570490565b7f4e487b71000000000000000000000000000000000000000000000000000000005f52601260045260245ffd5b60018111156101fd57806001700100000000000000000000000000000000831015611ba6575b611b4c611b42611b38611b2e611b24611b1a611b09611b539760048a68010000000000000000611b589c1015611b99575b640100000000811015611b8c575b62010000811015611b7f575b610100811015611b72575b6010811015611b65575b1015611b5d575b60030260011c90565b611b13818b611a3c565b0160011c90565b611b13818a611a3c565b611b138189611a3c565b611b138188611a3c565b611b138187611a3c565b611b138186611a3c565b8093611a3c565b821190565b900390565b60011b611b00565b60041c9160021b91611af9565b60081c9160041b91611aef565b60101c9160081b91611ae4565b60201c9160101b91611ad8565b60401c9160201b91611aca565b5050611b58611b53611b4c611b42611b38611b2e611b24611b1a611b09611bcd8a60801c90565b9850680100000000000000009750611a999650505050505050565b91905b838210611bf85750505090565b9091928083169080841860011c820180921161097957845f5265ffffffffffff8260205f2001541665ffffffffffff8416105f14611c3a5750925b9190611beb565b939250611c4690611613565b91611c33565b919073ffffffffffffffffffffffffffffffffffffffff81169273ffffffffffffffffffffffffffffffffffffffff8116908482141580611dca575b611c94575b5050505050565b81611d47575b505082611ca9575b8080611c8d565b611d3c611d237fdec2bacdd2f05b59de34da9b523dff8be42e5e38e818c82fdb0bae774387a72493611d1d611d1779ffffffffffffffffffffffffffffffffffffffffffffffffffff9573ffffffffffffffffffffffffffffffffffffffff165f52600960205260405f2090565b9161205d565b90612131565b6040805192851683529316602082015291829190820190565b0390a25f8080611ca2565b79ffffffffffffffffffffffffffffffffffffffffffffffffffff611dc0611d23611db17fdec2bacdd2f05b59de34da9b523dff8be42e5e38e818c82fdb0bae774387a7249473ffffffffffffffffffffffffffffffffffffffff165f52600960205260405f2090565b611dba8861205d565b906120cd565b0390a25f80611c9a565b50831515611c88565b60ff8114611e325760ff811690601f8211611e0a5760405191611df76040846110e8565b6020808452838101919036833783525290565b7fb3512b0c000000000000000000000000000000000000000000000000000000005f5260045ffd5b506040516101fd81611e45816005610ffa565b03826110e8565b60ff8114611e705760ff811690601f8211611e0a5760405191611df76040846110e8565b506040516101fd81611e45816006610ffa565b91907f7fffffffffffffffffffffffffffffff5d576e7357a4501ddfe92f46681b20a08411611f12579160209360809260ff5f9560405194855216868401526040830152606082015282805260015afa15611f07575f5173ffffffffffffffffffffffffffffffffffffffff811615611efd57905f905f90565b505f906001905f90565b6040513d5f823e3d90fd5b5050505f9160039190565b60041115611f2757565b7f4e487b71000000000000000000000000000000000000000000000000000000005f52602160045260245ffd5b611f5d81611f1d565b80611f66575050565b611f6f81611f1d565b60018103611f9f577ff645eedf000000000000000000000000000000000000000000000000000000005f5260045ffd5b611fa881611f1d565b60028103611fdc57507ffce698f7000000000000000000000000000000000000000000000000000000005f5260045260245ffd5b80611fe8600392611f1d565b14611ff05750565b7fd78bce0c000000000000000000000000000000000000000000000000000000005f5260045260245ffd5b8054821015612030575f5260205f2001905f90565b7f4e487b71000000000000000000000000000000000000000000000000000000005f52603260045260245ffd5b79ffffffffffffffffffffffffffffffffffffffffffffffffffff811161209d5779ffffffffffffffffffffffffffffffffffffffffffffffffffff1690565b7f6dfcc650000000000000000000000000000000000000000000000000000000005f5260d060045260245260445ffd5b906120d74361159e565b9079ffffffffffffffffffffffffffffffffffffffffffffffffffff806120fd856118e8565b92169116039079ffffffffffffffffffffffffffffffffffffffffffffffffffff82116109795761212d92612385565b9091565b9061213b4361159e565b9079ffffffffffffffffffffffffffffffffffffffffffffffffffff80612161856118e8565b92169116019079ffffffffffffffffffffffffffffffffffffffffffffffffffff82116109795761212d92612385565b61219a4361159e565b9079ffffffffffffffffffffffffffffffffffffffffffffffffffff806121c1600a6118e8565b921691160179ffffffffffffffffffffffffffffffffffffffffffffffffffff81116109795761212d91600a612385565b6121fb4361159e565b9079ffffffffffffffffffffffffffffffffffffffffffffffffffff80612222600a6118e8565b921691160379ffffffffffffffffffffffffffffffffffffffffffffffffffff81116109795761212d91600a612385565b9073ffffffffffffffffffffffffffffffffffffffff806111389493169182156122df575b169081156122cc575b5f52600860205273ffffffffffffffffffffffffffffffffffffffff60405f205416905f52600860205273ffffffffffffffffffffffffffffffffffffffff60405f20541690611c4c565b6122d861177c8461205d565b5050612281565b6122eb6117e18561205d565b5050612278565b8054680100000000000000008110156110e3576123149160018201815561201b565b6123595781516020929092015160301b7fffffffffffffffffffffffffffffffffffffffffffffffffffff0000000000001665ffffffffffff92909216919091179055565b7f4e487b71000000000000000000000000000000000000000000000000000000005f525f60045260245ffd5b8054929392801561247b5761239c6123a7916115e6565b825f5260205f200190565b8054603081901c9365ffffffffffff918216929181168084116124535787930361240c575061240892509065ffffffffffff7fffffffffffffffffffffffffffffffffffffffffffffffffffff00000000000083549260301b169116179055565b9190565b9150506124089161242c61241e611129565b65ffffffffffff9093168352565b79ffffffffffffffffffffffffffffffffffffffffffffffffffff861660208301526122f2565b7f2520601d000000000000000000000000000000000000000000000000000000005f5260045ffd5b50906124b39161248c61241e611129565b79ffffffffffffffffffffffffffffffffffffffffffffffffffff851660208301526122f2565b5f919056fea2646970667358221220d89db57217dac2a10b607d074c2ccfb454d1c652aa226dff2d9c46888743393464736f6c634300081a0033c65a7bb8d6351c1cf70c95a316cc6a92839c986682d98bc35f958f4883f9d2a7dec2bacdd2f05b59de34da9b523dff8be42e5e38e818c82fdb0bae774387a724","linkReferences":{}},"methodIdentifiers":{"CLOCK_MODE()":"4bf5d7e9","DOMAIN_SEPARATOR()":"3644e515","allowance(address,address)":"dd62ed3e","approve(address,uint256)":"095ea7b3","balanceOf(address)":"70a08231","burn(uint256)":"42966c68","burnFrom(address,uint256)":"79cc6790","checkpoints(address,uint32)":"f1127ed8","clock()":"91ddadf4","decimals()":"313ce567","delegate(address)":"5c19a95c","delegateBySig(address,uint256,uint256,uint8,bytes32,bytes32)":"c3cda520","delegates(address)":"587cde1e","eip712Domain()":"84b0196e","getPastTotalSupply(uint256)":"8e539e8c","getPastVotes(address,uint256)":"3a46b1a8","getVotes(address)":"9ab24eb0","name()":"06fdde03","nonces(address)":"7ecebe00","numCheckpoints(address)":"6fcfff45","permit(address,address,uint256,uint256,uint8,bytes32,bytes32)":"d505accf","symbol()":"95d89b41","totalSupply()":"18160ddd","transfer(address,uint256)":"a9059cbb","transferFrom(address,address,uint256)":"23b872dd"},"storageLayout":{"storage":[{"astId":57155,"contract":"contracts/economics/MMC.sol:MMC","label":"_balances","offset":0,"slot":"0","type":"t_mapping(t_address,t_uint256)"},{"astId":57161,"contract":"contracts/economics/MMC.sol:MMC","label":"_allowances","offset":0,"slot":"1","type":"t_mapping(t_address,t_mapping(t_address,t_uint256))"},{"astId":57163,"contract":"contracts/economics/MMC.sol:MMC","label":"_totalSupply","offset":0,"slot":"2","type":"t_uint256"},{"astId":57165,"contract":"contracts/economics/MMC.sol:MMC","label":"_name","offset":0,"slot":"3","type":"t_string_storage"},{"astId":57167,"contract":"contracts/economics/MMC.sol:MMC","label":"_symbol","offset":0,"slot":"4","type":"t_string_storage"},{"astId":60691,"contract":"contracts/economics/MMC.sol:MMC","label":"_nameFallback","offset":0,"slot":"5","type":"t_string_storage"},{"astId":60693,"contract":"contracts/economics/MMC.sol:MMC","label":"_versionFallback","offset":0,"slot":"6","type":"t_string_storage"},{"astId":59154,"contract":"contracts/economics/MMC.sol:MMC","label":"_nonces","offset":0,"slot":"7","type":"t_mapping(t_address,t_uint256)"},{"astId":55655,"contract":"contracts/economics/MMC.sol:MMC","label":"_delegatee","offset":0,"slot":"8","type":"t_mapping(t_address,t_address)"},{"astId":55660,"contract":"contracts/economics/MMC.sol:MMC","label":"_delegateCheckpoints","offset":0,"slot":"9","type":"t_mapping(t_address,t_struct(Trace208)65346_storage)"},{"astId":55663,"contract":"contracts/economics/MMC.sol:MMC","label":"_totalCheckpoints","offset":0,"slot":"10","type":"t_struct(Trace208)65346_storage"}],"types":{"t_address":{"encoding":"inplace","label":"address","numberOfBytes":"20"},"t_array(t_struct(Checkpoint208)65351_storage)dyn_storage":{"encoding":"dynamic_array","label":"struct Checkpoints.Checkpoint208[]","numberOfBytes":"32","base":"t_struct(Checkpoint208)65351_storage"},"t_mapping(t_address,t_address)":{"encoding":"mapping","key":"t_address","label":"mapping(address => address)","numberOfBytes":"32","value":"t_address"},"t_mapping(t_address,t_mapping(t_address,t_uint256))":{"encoding":"mapping","key":"t_address","label":"mapping(address => mapping(address => uint256))","numberOfBytes":"32","value":"t_mapping(t_address,t_uint256)"},"t_mapping(t_address,t_struct(Trace208)65346_storage)":{"encoding":"mapping","key":"t_address","label":"mapping(address => struct Checkpoints.Trace208)","numberOfBytes":"32","value":"t_struct(Trace208)65346_storage"},"t_mapping(t_address,t_uint256)":{"encoding":"mapping","key":"t_address","label":"mapping(address => uint256)","numberOfBytes":"32","value":"t_uint256"},"t_string_storage":{"encoding":"bytes","label":"string","numberOfBytes":"32"},"t_struct(Checkpoint208)65351_storage":{"encoding":"inplace","label":"struct Checkpoints.Checkpoint208","numberOfBytes":"32","members":[{"astId":65348,"contract":"contracts/economics/MMC.sol:MMC","label":"_key","offset":0,"slot":"0","type":"t_uint48"},{"astId":65350,"contract":"contracts/economics/MMC.sol:MMC","label":"_value","offset":6,"slot":"0","type":"t_uint208"}]},"t_struct(Trace208)65346_storage":{"encoding":"inplace","label":"struct Checkpoints.Trace208","numberOfBytes":"32","members":[{"astId":65345,"contract":"contracts/economics/MMC.sol:MMC","label":"_checkpoints","offset":0,"slot":"0","type":"t_array(t_struct(Checkpoint208)65351_storage)dyn_storage"}]},"t_uint208":{"encoding":"inplace","label":"uint208","numberOfBytes":"26"},"t_uint256":{"encoding":"inplace","label":"uint256","numberOfBytes":"32"},"t_uint48":{"encoding":"inplace","label":"uint48","numberOfBytes":"6"}}},"id":9}