{"abi":[{"type":"constructor","inputs":[{"name":"rightsPolicyAuthorizer","type":"address","internalType":"address"},{"name":"assetOwnership","type":"address","internalType":"address"}],"stateMutability":"nonpayable"},{"type":"function","name":"ASSET_OWNERSHIP","inputs":[],"outputs":[{"name":"","type":"address","internalType":"contract IAssetOwnership"}],"stateMutability":"view"},{"type":"function","name":"RIGHTS_POLICY_AUTHORIZER","inputs":[],"outputs":[{"name":"","type":"address","internalType":"contract IRightsPolicyAuthorizer"}],"stateMutability":"view"},{"type":"function","name":"UPGRADE_INTERFACE_VERSION","inputs":[],"outputs":[{"name":"","type":"string","internalType":"string"}],"stateMutability":"view"},{"type":"function","name":"authority","inputs":[],"outputs":[{"name":"","type":"address","internalType":"address"}],"stateMutability":"view"},{"type":"function","name":"getAssetSpecificPolicies","inputs":[{"name":"assetId","type":"uint256","internalType":"uint256"}],"outputs":[{"name":"","type":"tuple[]","internalType":"struct PoliciesAgg.PolicyTerms[]","components":[{"name":"policy","type":"address","internalType":"address"},{"name":"terms","type":"tuple","internalType":"struct T.Terms","components":[{"name":"amount","type":"uint256","internalType":"uint256"},{"name":"currency","type":"address","internalType":"address"},{"name":"rateBasis","type":"uint8","internalType":"enum T.RateBasis"},{"name":"uri","type":"string","internalType":"string"}]}]}],"stateMutability":"view"},{"type":"function","name":"getAvailablePoliciesTerms","inputs":[{"name":"holder","type":"address","internalType":"address"},{"name":"criteria","type":"bytes","internalType":"bytes"}],"outputs":[{"name":"","type":"tuple[]","internalType":"struct PoliciesAgg.PolicyTerms[]","components":[{"name":"policy","type":"address","internalType":"address"},{"name":"terms","type":"tuple","internalType":"struct T.Terms","components":[{"name":"amount","type":"uint256","internalType":"uint256"},{"name":"currency","type":"address","internalType":"address"},{"name":"rateBasis","type":"uint8","internalType":"enum T.RateBasis"},{"name":"uri","type":"string","internalType":"string"}]}]}],"stateMutability":"view"},{"type":"function","name":"getHolderWidePolicies","inputs":[{"name":"holder","type":"address","internalType":"address"}],"outputs":[{"name":"","type":"tuple[]","internalType":"struct PoliciesAgg.PolicyTerms[]","components":[{"name":"policy","type":"address","internalType":"address"},{"name":"terms","type":"tuple","internalType":"struct T.Terms","components":[{"name":"amount","type":"uint256","internalType":"uint256"},{"name":"currency","type":"address","internalType":"address"},{"name":"rateBasis","type":"uint8","internalType":"enum T.RateBasis"},{"name":"uri","type":"string","internalType":"string"}]}]}],"stateMutability":"view"},{"type":"function","name":"initialize","inputs":[{"name":"accessManager","type":"address","internalType":"address"}],"outputs":[],"stateMutability":"nonpayable"},{"type":"function","name":"isConsumingScheduledOp","inputs":[],"outputs":[{"name":"","type":"bytes4","internalType":"bytes4"}],"stateMutability":"view"},{"type":"function","name":"proxiableUUID","inputs":[],"outputs":[{"name":"","type":"bytes32","internalType":"bytes32"}],"stateMutability":"view"},{"type":"function","name":"setAuthority","inputs":[{"name":"newAuthority","type":"address","internalType":"address"}],"outputs":[],"stateMutability":"nonpayable"},{"type":"function","name":"upgradeToAndCall","inputs":[{"name":"newImplementation","type":"address","internalType":"address"},{"name":"data","type":"bytes","internalType":"bytes"}],"outputs":[],"stateMutability":"payable"},{"type":"event","name":"AuthorityUpdated","inputs":[{"name":"authority","type":"address","indexed":false,"internalType":"address"}],"anonymous":false},{"type":"event","name":"Initialized","inputs":[{"name":"version","type":"uint64","indexed":false,"internalType":"uint64"}],"anonymous":false},{"type":"event","name":"Upgraded","inputs":[{"name":"implementation","type":"address","indexed":true,"internalType":"address"}],"anonymous":false},{"type":"error","name":"AccessManagedInvalidAuthority","inputs":[{"name":"authority","type":"address","internalType":"address"}]},{"type":"error","name":"AccessManagedRequiredDelay","inputs":[{"name":"caller","type":"address","internalType":"address"},{"name":"delay","type":"uint32","internalType":"uint32"}]},{"type":"error","name":"AccessManagedUnauthorized","inputs":[{"name":"caller","type":"address","internalType":"address"}]},{"type":"error","name":"AddressEmptyCode","inputs":[{"name":"target","type":"address","internalType":"address"}]},{"type":"error","name":"ERC1967InvalidImplementation","inputs":[{"name":"implementation","type":"address","internalType":"address"}]},{"type":"error","name":"ERC1967NonPayable","inputs":[]},{"type":"error","name":"FailedCall","inputs":[]},{"type":"error","name":"InvalidInitialization","inputs":[]},{"type":"error","name":"InvalidUnauthorizedOperation","inputs":[{"name":"","type":"string","internalType":"string"}]},{"type":"error","name":"NotInitializing","inputs":[]},{"type":"error","name":"UUPSUnauthorizedCallContext","inputs":[]},{"type":"error","name":"UUPSUnsupportedProxiableUUID","inputs":[{"name":"slot","type":"bytes32","internalType":"bytes32"}]}],"bytecode":{"object":"0x60e03461016657601f61169938819003918201601f19168301916001600160401b0383118484101761016a57808492604094855283398101031261016657610052602061004b8361017e565b920161017e565b90306080527ff0c57e16840df040f15088dc2f81fe391c3923bec73e23a9662efc9c229c6a005460ff8160401c16610157576002600160401b03196001600160401b038216016100ee575b506001600160a01b0390811660a0521660c0526040516115069081610193823960805181818161079f0152610837015260a0518181816104e90152611011015260c05181818160c901526106ed0152f35b6001600160401b0319166001600160401b039081177ff0c57e16840df040f15088dc2f81fe391c3923bec73e23a9662efc9c229c6a00556040519081527fc7f505b2f371ae2175ee4913f4499e1f2633a7b5936321eed1cdaeb6115181d290602090a15f61009d565b63f92ee8a960e01b5f5260045ffd5b5f80fd5b634e487b7160e01b5f52604160045260245ffd5b51906001600160a01b03821682036101665756fe60806040526004361015610011575f80fd5b5f3560e01c80634f1ef2861461081757806352d1902d1461077857806376e5cef1146106775780637a9e5e4b146105a05780638fb360371461050d578063968e48cf146104bd5780639f30b60f146104a3578063ad3cb1cc14610444578063bf7e214f146103f2578063c4d66de814610154578063d45944ca146100f15763f520d4eb1461009d575f80fd5b346100ed575f6003193601126100ed57602060405173ffffffffffffffffffffffffffffffffffffffff7f0000000000000000000000000000000000000000000000000000000000000000168152f35b5f80fd5b346100ed5760206003193601126100ed57610150610144610110610c1d565b6040519073ffffffffffffffffffffffffffffffffffffffff811660208301526020825261013f604083610ca5565b610fb2565b60405191829182610ded565b0390f35b346100ed5760206003193601126100ed5761016d610c1d565b7ff0c57e16840df040f15088dc2f81fe391c3923bec73e23a9662efc9c229c6a005460ff8160401c16159167ffffffffffffffff8216801590816103ea575b60011490816103e0575b1590816103d7575b506103af57818360017fffffffffffffffffffffffffffffffffffffffffffffffff000000000000000073ffffffffffffffffffffffffffffffffffffffff9516177ff0c57e16840df040f15088dc2f81fe391c3923bec73e23a9662efc9c229c6a005561035a575b506102306113e0565b6102386113e0565b6102406113e0565b6102486113e0565b61025181611335565b6102596113e0565b167fffffffffffffffffffffffff00000000000000000000000000000000000000007fb8e950798a2a06a6f5727a94041b193569f4f67d69a0de3cf866d93822e7fa005416177fb8e950798a2a06a6f5727a94041b193569f4f67d69a0de3cf866d93822e7fa00556102c757005b7fffffffffffffffffffffffffffffffffffffffffffffff00ffffffffffffffff7ff0c57e16840df040f15088dc2f81fe391c3923bec73e23a9662efc9c229c6a0054167ff0c57e16840df040f15088dc2f81fe391c3923bec73e23a9662efc9c229c6a00557fc7f505b2f371ae2175ee4913f4499e1f2633a7b5936321eed1cdaeb6115181d2602060405160018152a1005b7fffffffffffffffffffffffffffffffffffffffffffffff0000000000000000001668010000000000000001177ff0c57e16840df040f15088dc2f81fe391c3923bec73e23a9662efc9c229c6a005583610227565b7ff92ee8a9000000000000000000000000000000000000000000000000000000005f5260045ffd5b905015846101be565b303b1591506101b6565b8491506101ac565b346100ed575f6003193601126100ed57602073ffffffffffffffffffffffffffffffffffffffff7ff3177357ab46d8af007ab3fdb9af81da189e1068fefdc0073dca88a2cab40a005416604051908152f35b346100ed575f6003193601126100ed57610150604051610465604082610ca5565b600581527f352e302e300000000000000000000000000000000000000000000000000000006020820152604051918291602083526020830190610daa565b346100ed576101506101446104b736610d20565b90610fb2565b346100ed575f6003193601126100ed57602060405173ffffffffffffffffffffffffffffffffffffffff7f0000000000000000000000000000000000000000000000000000000000000000168152f35b346100ed575f6003193601126100ed577ff3177357ab46d8af007ab3fdb9af81da189e1068fefdc0073dca88a2cab40a005460a01c60ff16156105985760207f8fb36037000000000000000000000000000000000000000000000000000000005b7fffffffff0000000000000000000000000000000000000000000000000000000060405191168152f35b60205f61056e565b346100ed5760206003193601126100ed576105b9610c1d565b73ffffffffffffffffffffffffffffffffffffffff7ff3177357ab46d8af007ab3fdb9af81da189e1068fefdc0073dca88a2cab40a005416330361064b57803b156106095761060790611335565b005b73ffffffffffffffffffffffffffffffffffffffff907fc2f31e5e000000000000000000000000000000000000000000000000000000005f521660045260245ffd5b7f068ca9d8000000000000000000000000000000000000000000000000000000005f523360045260245ffd5b346100ed5760206003193601126100ed5760043560405190806020830152602082526106a4604083610ca5565b604051907f6352211e000000000000000000000000000000000000000000000000000000008252600482015260208160248173ffffffffffffffffffffffffffffffffffffffff7f0000000000000000000000000000000000000000000000000000000000000000165afa90811561076d575f9161072a575b6101506101448484610fb2565b90506020813d602011610765575b8161074560209383610ca5565b810103126100ed576101509161075d61014492610f09565b91509161071d565b3d9150610738565b6040513d5f823e3d90fd5b346100ed575f6003193601126100ed5773ffffffffffffffffffffffffffffffffffffffff7f00000000000000000000000000000000000000000000000000000000000000001630036107ef5760206040517f360894a13ba1a3210667c828492db98dca3e2076cc3735a920a3ca505d382bbc8152f35b7fe07c8dba000000000000000000000000000000000000000000000000000000005f5260045ffd5b61082036610d20565b73ffffffffffffffffffffffffffffffffffffffff7f000000000000000000000000000000000000000000000000000000000000000016803014908115610bdb575b506107ef576044604073ffffffffffffffffffffffffffffffffffffffff7fb8e950798a2a06a6f5727a94041b193569f4f67d69a0de3cf866d93822e7fa0054168151928380927fd1f856ee0000000000000000000000000000000000000000000000000000000082525f60048301523360248301525afa90811561076d575f91610b8e575b5015610b0a5773ffffffffffffffffffffffffffffffffffffffff8216916040517f52d1902d000000000000000000000000000000000000000000000000000000008152602081600481875afa5f9181610ad6575b5061096e57837f4c9c8ce3000000000000000000000000000000000000000000000000000000005f5260045260245ffd5b807f360894a13ba1a3210667c828492db98dca3e2076cc3735a920a3ca505d382bbc859203610aab5750813b15610a8057807fffffffffffffffffffffffff00000000000000000000000000000000000000007f360894a13ba1a3210667c828492db98dca3e2076cc3735a920a3ca505d382bbc5416177f360894a13ba1a3210667c828492db98dca3e2076cc3735a920a3ca505d382bbc557fbc7cd75a20ee27fd9adebab32041f755214dbc6bffa90cc0225b39da2e5c2d3b5f80a2815115610a4f575f8083602061060795519101845af4610a49610f83565b91611437565b505034610a5857005b7fb398979f000000000000000000000000000000000000000000000000000000005f5260045ffd5b7f4c9c8ce3000000000000000000000000000000000000000000000000000000005f5260045260245ffd5b7faa1d49a4000000000000000000000000000000000000000000000000000000005f5260045260245ffd5b9091506020813d602011610b02575b81610af260209383610ca5565b810103126100ed5751908561093d565b3d9150610ae5565b60846040517f6317e35f00000000000000000000000000000000000000000000000000000000815260206004820152602360248201527f4f6e6c792061646d696e2063616e20706572666f726d2074686973206163746960448201527f6f6e2e00000000000000000000000000000000000000000000000000000000006064820152fd5b90506040813d604011610bd3575b81610ba960409383610ca5565b810103126100ed5780519081151582036100ed576020015163ffffffff8116036100ed57836108e8565b3d9150610b9c565b905073ffffffffffffffffffffffffffffffffffffffff7f360894a13ba1a3210667c828492db98dca3e2076cc3735a920a3ca505d382bbc5416141583610862565b6004359073ffffffffffffffffffffffffffffffffffffffff821682036100ed57565b6040810190811067ffffffffffffffff821117610c5c57604052565b7f4e487b71000000000000000000000000000000000000000000000000000000005f52604160045260245ffd5b6080810190811067ffffffffffffffff821117610c5c57604052565b90601f7fffffffffffffffffffffffffffffffffffffffffffffffffffffffffffffffe0910116810190811067ffffffffffffffff821117610c5c57604052565b67ffffffffffffffff8111610c5c57601f017fffffffffffffffffffffffffffffffffffffffffffffffffffffffffffffffe01660200190565b9060406003198301126100ed5760043573ffffffffffffffffffffffffffffffffffffffff811681036100ed579160243567ffffffffffffffff81116100ed57816023820112156100ed57806004013590610d7a82610ce6565b92610d886040519485610ca5565b828452602483830101116100ed57815f92602460209301838601378301015290565b907fffffffffffffffffffffffffffffffffffffffffffffffffffffffffffffffe0601f602080948051918291828752018686015e5f8582860101520116010190565b602081016020825282518091526040820190602060408260051b8501019401925f905b828210610e1f57505050505090565b90919293947fffffffffffffffffffffffffffffffffffffffffffffffffffffffffffffffc08282030185526020865173ffffffffffffffffffffffffffffffffffffffff8151168352015190604060208201528151604082015273ffffffffffffffffffffffffffffffffffffffff60208301511660608201526040820151916004831015610edc57610ecf8260c0606060209594600197608088970152015191608060a08201520190610daa565b9701950193920190610e10565b7f4e487b71000000000000000000000000000000000000000000000000000000005f52602160045260245ffd5b519073ffffffffffffffffffffffffffffffffffffffff821682036100ed57565b67ffffffffffffffff8111610c5c5760051b60200190565b8051821015610f565760209160051b010190565b7f4e487b71000000000000000000000000000000000000000000000000000000005f52603260045260245ffd5b3d15610fad573d90610f9482610ce6565b91610fa26040519384610ca5565b82523d5f602084013e565b606090565b9073ffffffffffffffffffffffffffffffffffffffff604051927f591b43c50000000000000000000000000000000000000000000000000000000084521660048301525f8260248173ffffffffffffffffffffffffffffffffffffffff7f0000000000000000000000000000000000000000000000000000000000000000165afa91821561076d575f9261129a575b508151917fffffffffffffffffffffffffffffffffffffffffffffffffffffffffffffffe061108861107285610f2a565b946110806040519687610ca5565b808652610f2a565b015f5b8181106112585750508051905f5b8281106110a7575050505090565b73ffffffffffffffffffffffffffffffffffffffff6110c68284610f42565b5116905f8060405160208101907fa39371110000000000000000000000000000000000000000000000000000000082526020602482015261113a8161110e604482018c610daa565b037fffffffffffffffffffffffffffffffffffffffffffffffffffffffffffffffe08101835282610ca5565b5190855afa91611148610f83565b921561124e578251830160208101936020818303126100ed57602081015167ffffffffffffffff81116100ed570190608090829003126100ed576040519061118f82610c89565b602081015182526111a260408201610f09565b6020830152606081015160048110156100ed576040830152608081015167ffffffffffffffff81116100ed5760209101019380601f860112156100ed5784516111ea81610ce6565b916111f86040519384610ca5565b818352602082880101116100ed576020815f9282600199018386015e8301015260608201526040519161122a83610c40565b8252602082015261123b8288610f42565b526112468187610f42565b505b01611099565b5060019150611248565b60209060405161126781610c40565b5f815260405161127681610c89565b5f81525f848201525f6040820152606080820152838201528282880101520161108b565b9091503d805f833e6112ac8183610ca5565b8101906020818303126100ed5780519067ffffffffffffffff82116100ed57019080601f830112156100ed5781516112e381610f2a565b926112f16040519485610ca5565b81845260208085019260051b8201019283116100ed57602001905b82821061131d57505050905f611041565b6020809161132a84610f09565b81520191019061130c565b602073ffffffffffffffffffffffffffffffffffffffff7f2f658b440c35314f52658ea8a740e05b284cdc84dc9ae01e891f21b8933e7cad9216807fffffffffffffffffffffffff00000000000000000000000000000000000000007ff3177357ab46d8af007ab3fdb9af81da189e1068fefdc0073dca88a2cab40a005416177ff3177357ab46d8af007ab3fdb9af81da189e1068fefdc0073dca88a2cab40a0055604051908152a1565b60ff7ff0c57e16840df040f15088dc2f81fe391c3923bec73e23a9662efc9c229c6a005460401c161561140f57565b7fd7e6bcf8000000000000000000000000000000000000000000000000000000005f5260045ffd5b90611474575080511561144c57805190602001fd5b7fd6bda275000000000000000000000000000000000000000000000000000000005f5260045ffd5b815115806114c7575b611485575090565b73ffffffffffffffffffffffffffffffffffffffff907f9996b315000000000000000000000000000000000000000000000000000000005f521660045260245ffd5b50803b1561147d56fea26469706673582212206e198600d9375685c03c162ac2037f24828cdb44e5d9d100b2db48c6015b780664736f6c634300081a0033","linkReferences":{}},"methodIdentifiers":{"ASSET_OWNERSHIP()":"f520d4eb","RIGHTS_POLICY_AUTHORIZER()":"968e48cf","UPGRADE_INTERFACE_VERSION()":"ad3cb1cc","authority()":"bf7e214f","getAssetSpecificPolicies(uint256)":"76e5cef1","getAvailablePoliciesTerms(address,bytes)":"9f30b60f","getHolderWidePolicies(address)":"d45944ca","initialize(address)":"c4d66de8","isConsumingScheduledOp()":"8fb36037","proxiableUUID()":"52d1902d","setAuthority(address)":"7a9e5e4b","upgradeToAndCall(address,bytes)":"4f1ef286"},"storageLayout":{"storage":[],"types":{}},"id":3}