{
  "abi": [
    {
      "type": "constructor",
      "inputs": [
        {
          "name": "rightsPolicyAuthorizer",
          "type": "address",
          "internalType": "address"
        },
        {
          "name": "assetOwnership",
          "type": "address",
          "internalType": "address"
        }
      ],
      "stateMutability": "nonpayable"
    },
    {
      "type": "function",
      "name": "ASSET_OWNERSHIP",
      "inputs": [],
      "outputs": [
        {
          "name": "",
          "type": "address",
          "internalType": "contract IAssetOwnership"
        }
      ],
      "stateMutability": "view"
    },
    {
      "type": "function",
      "name": "RIGHTS_POLICY_AUTHORIZER",
      "inputs": [],
      "outputs": [
        {
          "name": "",
          "type": "address",
          "internalType": "contract IRightsPolicyAuthorizer"
        }
      ],
      "stateMutability": "view"
    },
    {
      "type": "function",
      "name": "UPGRADE_INTERFACE_VERSION",
      "inputs": [],
      "outputs": [
        {
          "name": "",
          "type": "string",
          "internalType": "string"
        }
      ],
      "stateMutability": "view"
    },
    {
      "type": "function",
      "name": "authority",
      "inputs": [],
      "outputs": [
        {
          "name": "",
          "type": "address",
          "internalType": "address"
        }
      ],
      "stateMutability": "view"
    },
    {
      "type": "function",
      "name": "getAvailablePoliciesTerms",
      "inputs": [
        {
          "name": "holder",
          "type": "address",
          "internalType": "address"
        },
        {
          "name": "criteria",
          "type": "bytes",
          "internalType": "bytes"
        }
      ],
      "outputs": [
        {
          "name": "",
          "type": "tuple[]",
          "internalType": "struct PoliciesAgg.PolicyTerms[]",
          "components": [
            {
              "name": "policy",
              "type": "address",
              "internalType": "address"
            },
            {
              "name": "terms",
              "type": "tuple",
              "internalType": "struct T.Terms",
              "components": [
                {
                  "name": "amount",
                  "type": "uint256",
                  "internalType": "uint256"
                },
                {
                  "name": "currency",
                  "type": "address",
                  "internalType": "address"
                },
                {
                  "name": "rateBasis",
                  "type": "uint8",
                  "internalType": "enum T.RateBasis"
                },
                {
                  "name": "uri",
                  "type": "string",
                  "internalType": "string"
                }
              ]
            }
          ]
        }
      ],
      "stateMutability": "view"
    },
    {
      "type": "function",
      "name": "getPoliciesTerms",
      "inputs": [
        {
          "name": "assetId",
          "type": "uint256",
          "internalType": "uint256"
        }
      ],
      "outputs": [
        {
          "name": "",
          "type": "tuple[]",
          "internalType": "struct PoliciesAgg.PolicyTerms[]",
          "components": [
            {
              "name": "policy",
              "type": "address",
              "internalType": "address"
            },
            {
              "name": "terms",
              "type": "tuple",
              "internalType": "struct T.Terms",
              "components": [
                {
                  "name": "amount",
                  "type": "uint256",
                  "internalType": "uint256"
                },
                {
                  "name": "currency",
                  "type": "address",
                  "internalType": "address"
                },
                {
                  "name": "rateBasis",
                  "type": "uint8",
                  "internalType": "enum T.RateBasis"
                },
                {
                  "name": "uri",
                  "type": "string",
                  "internalType": "string"
                }
              ]
            }
          ]
        }
      ],
      "stateMutability": "view"
    },
    {
      "type": "function",
      "name": "getPoliciesTerms",
      "inputs": [
        {
          "name": "holder",
          "type": "address",
          "internalType": "address"
        }
      ],
      "outputs": [
        {
          "name": "",
          "type": "tuple[]",
          "internalType": "struct PoliciesAgg.PolicyTerms[]",
          "components": [
            {
              "name": "policy",
              "type": "address",
              "internalType": "address"
            },
            {
              "name": "terms",
              "type": "tuple",
              "internalType": "struct T.Terms",
              "components": [
                {
                  "name": "amount",
                  "type": "uint256",
                  "internalType": "uint256"
                },
                {
                  "name": "currency",
                  "type": "address",
                  "internalType": "address"
                },
                {
                  "name": "rateBasis",
                  "type": "uint8",
                  "internalType": "enum T.RateBasis"
                },
                {
                  "name": "uri",
                  "type": "string",
                  "internalType": "string"
                }
              ]
            }
          ]
        }
      ],
      "stateMutability": "view"
    },
    {
      "type": "function",
      "name": "initialize",
      "inputs": [
        {
          "name": "accessManager",
          "type": "address",
          "internalType": "address"
        }
      ],
      "outputs": [],
      "stateMutability": "nonpayable"
    },
    {
      "type": "function",
      "name": "isConsumingScheduledOp",
      "inputs": [],
      "outputs": [
        {
          "name": "",
          "type": "bytes4",
          "internalType": "bytes4"
        }
      ],
      "stateMutability": "view"
    },
    {
      "type": "function",
      "name": "proxiableUUID",
      "inputs": [],
      "outputs": [
        {
          "name": "",
          "type": "bytes32",
          "internalType": "bytes32"
        }
      ],
      "stateMutability": "view"
    },
    {
      "type": "function",
      "name": "setAuthority",
      "inputs": [
        {
          "name": "newAuthority",
          "type": "address",
          "internalType": "address"
        }
      ],
      "outputs": [],
      "stateMutability": "nonpayable"
    },
    {
      "type": "function",
      "name": "upgradeToAndCall",
      "inputs": [
        {
          "name": "newImplementation",
          "type": "address",
          "internalType": "address"
        },
        {
          "name": "data",
          "type": "bytes",
          "internalType": "bytes"
        }
      ],
      "outputs": [],
      "stateMutability": "payable"
    },
    {
      "type": "event",
      "name": "AuthorityUpdated",
      "inputs": [
        {
          "name": "authority",
          "type": "address",
          "indexed": false,
          "internalType": "address"
        }
      ],
      "anonymous": false
    },
    {
      "type": "event",
      "name": "Initialized",
      "inputs": [
        {
          "name": "version",
          "type": "uint64",
          "indexed": false,
          "internalType": "uint64"
        }
      ],
      "anonymous": false
    },
    {
      "type": "event",
      "name": "Upgraded",
      "inputs": [
        {
          "name": "implementation",
          "type": "address",
          "indexed": true,
          "internalType": "address"
        }
      ],
      "anonymous": false
    },
    {
      "type": "error",
      "name": "AccessManagedInvalidAuthority",
      "inputs": [
        {
          "name": "authority",
          "type": "address",
          "internalType": "address"
        }
      ]
    },
    {
      "type": "error",
      "name": "AccessManagedRequiredDelay",
      "inputs": [
        {
          "name": "caller",
          "type": "address",
          "internalType": "address"
        },
        {
          "name": "delay",
          "type": "uint32",
          "internalType": "uint32"
        }
      ]
    },
    {
      "type": "error",
      "name": "AccessManagedUnauthorized",
      "inputs": [
        {
          "name": "caller",
          "type": "address",
          "internalType": "address"
        }
      ]
    },
    {
      "type": "error",
      "name": "AddressEmptyCode",
      "inputs": [
        {
          "name": "target",
          "type": "address",
          "internalType": "address"
        }
      ]
    },
    {
      "type": "error",
      "name": "ERC1967InvalidImplementation",
      "inputs": [
        {
          "name": "implementation",
          "type": "address",
          "internalType": "address"
        }
      ]
    },
    {
      "type": "error",
      "name": "ERC1967NonPayable",
      "inputs": []
    },
    {
      "type": "error",
      "name": "FailedCall",
      "inputs": []
    },
    {
      "type": "error",
      "name": "InvalidInitialization",
      "inputs": []
    },
    {
      "type": "error",
      "name": "InvalidUnauthorizedOperation",
      "inputs": [
        {
          "name": "",
          "type": "string",
          "internalType": "string"
        }
      ]
    },
    {
      "type": "error",
      "name": "NotInitializing",
      "inputs": []
    },
    {
      "type": "error",
      "name": "UUPSUnauthorizedCallContext",
      "inputs": []
    },
    {
      "type": "error",
      "name": "UUPSUnsupportedProxiableUUID",
      "inputs": [
        {
          "name": "slot",
          "type": "bytes32",
          "internalType": "bytes32"
        }
      ]
    }
  ],
  "bytecode": {
    "object": "0x60e03461016657601f61169838819003918201601f19168301916001600160401b0383118484101761016a57808492604094855283398101031261016657610052602061004b8361017e565b920161017e565b90306080527ff0c57e16840df040f15088dc2f81fe391c3923bec73e23a9662efc9c229c6a005460ff8160401c16610157576002600160401b03196001600160401b038216016100ee575b506001600160a01b0390811660a0521660c052604051611505908161019382396080518181816106a10152610739015260a0518181816104990152611010015260c05181818160cc0152610b9c0152f35b6001600160401b0319166001600160401b039081177ff0c57e16840df040f15088dc2f81fe391c3923bec73e23a9662efc9c229c6a00556040519081527fc7f505b2f371ae2175ee4913f4499e1f2633a7b5936321eed1cdaeb6115181d290602090a15f61009d565b63f92ee8a960e01b5f5260045ffd5b5f80fd5b634e487b7160e01b5f52604160045260245ffd5b51906001600160a01b03821682036101665756fe6080806040526004361015610012575f80fd5b5f3560e01c90816343e1da3314610b2a575080634f1ef2861461071957806352d1902d1461067a5780637a9e5e4b146105a35780637d155528146105505780638fb36037146104bd578063968e48cf1461046d5780639f30b60f14610447578063ad3cb1cc146103e4578063bf7e214f14610392578063c4d66de8146100f45763f520d4eb146100a0575f80fd5b346100f0575f6003193601126100f057602060405173ffffffffffffffffffffffffffffffffffffffff7f0000000000000000000000000000000000000000000000000000000000000000168152f35b5f80fd5b346100f05760206003193601126100f05761010d610d7b565b7ff0c57e16840df040f15088dc2f81fe391c3923bec73e23a9662efc9c229c6a005460ff8160401c16159167ffffffffffffffff82168015908161038a575b6001149081610380575b159081610377575b5061034f57818360017fffffffffffffffffffffffffffffffffffffffffffffffff000000000000000073ffffffffffffffffffffffffffffffffffffffff9516177ff0c57e16840df040f15088dc2f81fe391c3923bec73e23a9662efc9c229c6a00556102fa575b506101d06113df565b6101d86113df565b6101e06113df565b6101e86113df565b6101f181611334565b6101f96113df565b167fffffffffffffffffffffffff00000000000000000000000000000000000000007fb8e950798a2a06a6f5727a94041b193569f4f67d69a0de3cf866d93822e7fa005416177fb8e950798a2a06a6f5727a94041b193569f4f67d69a0de3cf866d93822e7fa005561026757005b7fffffffffffffffffffffffffffffffffffffffffffffff00ffffffffffffffff7ff0c57e16840df040f15088dc2f81fe391c3923bec73e23a9662efc9c229c6a0054167ff0c57e16840df040f15088dc2f81fe391c3923bec73e23a9662efc9c229c6a00557fc7f505b2f371ae2175ee4913f4499e1f2633a7b5936321eed1cdaeb6115181d2602060405160018152a1005b7fffffffffffffffffffffffffffffffffffffffffffffff0000000000000000001668010000000000000001177ff0c57e16840df040f15088dc2f81fe391c3923bec73e23a9662efc9c229c6a0055836101c7565b7ff92ee8a9000000000000000000000000000000000000000000000000000000005f5260045ffd5b9050158461015e565b303b159150610156565b84915061014c565b346100f0575f6003193601126100f057602073ffffffffffffffffffffffffffffffffffffffff7ff3177357ab46d8af007ab3fdb9af81da189e1068fefdc0073dca88a2cab40a005416604051908152f35b346100f0575f6003193601126100f057610443604051610405604082610e03565b600581527f352e302e300000000000000000000000000000000000000000000000000000006020820152604051918291602083526020830190610c1c565b0390f35b346100f05761044361046161045b36610e7e565b90610fb1565b60405191829182610c5f565b346100f0575f6003193601126100f057602060405173ffffffffffffffffffffffffffffffffffffffff7f0000000000000000000000000000000000000000000000000000000000000000168152f35b346100f0575f6003193601126100f0577ff3177357ab46d8af007ab3fdb9af81da189e1068fefdc0073dca88a2cab40a005460a01c60ff16156105485760207f8fb36037000000000000000000000000000000000000000000000000000000005b7fffffffff0000000000000000000000000000000000000000000000000000000060405191168152f35b60205f61051e565b346100f05760206003193601126100f05761044361046161056f610d7b565b6040519073ffffffffffffffffffffffffffffffffffffffff811660208301526020825261059e604083610e03565b610fb1565b346100f05760206003193601126100f0576105bc610d7b565b73ffffffffffffffffffffffffffffffffffffffff7ff3177357ab46d8af007ab3fdb9af81da189e1068fefdc0073dca88a2cab40a005416330361064e57803b1561060c5761060a90611334565b005b73ffffffffffffffffffffffffffffffffffffffff907fc2f31e5e000000000000000000000000000000000000000000000000000000005f521660045260245ffd5b7f068ca9d8000000000000000000000000000000000000000000000000000000005f523360045260245ffd5b346100f0575f6003193601126100f05773ffffffffffffffffffffffffffffffffffffffff7f00000000000000000000000000000000000000000000000000000000000000001630036106f15760206040517f360894a13ba1a3210667c828492db98dca3e2076cc3735a920a3ca505d382bbc8152f35b7fe07c8dba000000000000000000000000000000000000000000000000000000005f5260045ffd5b61072236610e7e565b73ffffffffffffffffffffffffffffffffffffffff7f000000000000000000000000000000000000000000000000000000000000000016803014908115610ae8575b506106f1576044604073ffffffffffffffffffffffffffffffffffffffff7fb8e950798a2a06a6f5727a94041b193569f4f67d69a0de3cf866d93822e7fa0054168151928380927fd1f856ee0000000000000000000000000000000000000000000000000000000082525f60048301523360248301525afa908115610add575f91610a90575b5015610a0c5773ffffffffffffffffffffffffffffffffffffffff8216916040517f52d1902d000000000000000000000000000000000000000000000000000000008152602081600481875afa5f91816109d8575b5061087057837f4c9c8ce3000000000000000000000000000000000000000000000000000000005f5260045260245ffd5b807f360894a13ba1a3210667c828492db98dca3e2076cc3735a920a3ca505d382bbc8592036109ad5750813b1561098257807fffffffffffffffffffffffff00000000000000000000000000000000000000007f360894a13ba1a3210667c828492db98dca3e2076cc3735a920a3ca505d382bbc5416177f360894a13ba1a3210667c828492db98dca3e2076cc3735a920a3ca505d382bbc557fbc7cd75a20ee27fd9adebab32041f755214dbc6bffa90cc0225b39da2e5c2d3b5f80a2815115610951575f8083602061060a95519101845af461094b610f82565b91611436565b50503461095a57005b7fb398979f000000000000000000000000000000000000000000000000000000005f5260045ffd5b7f4c9c8ce3000000000000000000000000000000000000000000000000000000005f5260045260245ffd5b7faa1d49a4000000000000000000000000000000000000000000000000000000005f5260045260245ffd5b9091506020813d602011610a04575b816109f460209383610e03565b810103126100f05751908561083f565b3d91506109e7565b60846040517f6317e35f00000000000000000000000000000000000000000000000000000000815260206004820152602360248201527f4f6e6c792061646d696e2063616e20706572666f726d2074686973206163746960448201527f6f6e2e00000000000000000000000000000000000000000000000000000000006064820152fd5b90506040813d604011610ad5575b81610aab60409383610e03565b810103126100f05780519081151582036100f0576020015163ffffffff8116036100f057836107ea565b3d9150610a9e565b6040513d5f823e3d90fd5b905073ffffffffffffffffffffffffffffffffffffffff7f360894a13ba1a3210667c828492db98dca3e2076cc3735a920a3ca505d382bbc5416141583610764565b346100f05760206003193601126100f05760043580602083015260208252610b53604083610e03565b604051907f6352211e000000000000000000000000000000000000000000000000000000008252600482015260208160248173ffffffffffffffffffffffffffffffffffffffff7f0000000000000000000000000000000000000000000000000000000000000000165afa908115610add575f91610bd9575b6104436104618484610fb1565b90506020813d602011610c14575b81610bf460209383610e03565b810103126100f05761044391610c0c61046192610f08565b915091610bcc565b3d9150610be7565b907fffffffffffffffffffffffffffffffffffffffffffffffffffffffffffffffe0601f602080948051918291828752018686015e5f8582860101520116010190565b602081016020825282518091526040820190602060408260051b8501019401925f905b828210610c9157505050505090565b90919293947fffffffffffffffffffffffffffffffffffffffffffffffffffffffffffffffc08282030185526020865173ffffffffffffffffffffffffffffffffffffffff8151168352015190604060208201528151604082015273ffffffffffffffffffffffffffffffffffffffff60208301511660608201526040820151916004831015610d4e57610d418260c0606060209594600197608088970152015191608060a08201520190610c1c565b9701950193920190610c82565b7f4e487b71000000000000000000000000000000000000000000000000000000005f52602160045260245ffd5b6004359073ffffffffffffffffffffffffffffffffffffffff821682036100f057565b6040810190811067ffffffffffffffff821117610dba57604052565b7f4e487b71000000000000000000000000000000000000000000000000000000005f52604160045260245ffd5b6080810190811067ffffffffffffffff821117610dba57604052565b90601f7fffffffffffffffffffffffffffffffffffffffffffffffffffffffffffffffe0910116810190811067ffffffffffffffff821117610dba57604052565b67ffffffffffffffff8111610dba57601f017fffffffffffffffffffffffffffffffffffffffffffffffffffffffffffffffe01660200190565b9060406003198301126100f05760043573ffffffffffffffffffffffffffffffffffffffff811681036100f0579160243567ffffffffffffffff81116100f057816023820112156100f057806004013590610ed882610e44565b92610ee66040519485610e03565b828452602483830101116100f057815f92602460209301838601378301015290565b519073ffffffffffffffffffffffffffffffffffffffff821682036100f057565b67ffffffffffffffff8111610dba5760051b60200190565b8051821015610f555760209160051b010190565b7f4e487b71000000000000000000000000000000000000000000000000000000005f52603260045260245ffd5b3d15610fac573d90610f9382610e44565b91610fa16040519384610e03565b82523d5f602084013e565b606090565b9073ffffffffffffffffffffffffffffffffffffffff604051927f591b43c50000000000000000000000000000000000000000000000000000000084521660048301525f8260248173ffffffffffffffffffffffffffffffffffffffff7f0000000000000000000000000000000000000000000000000000000000000000165afa918215610add575f92611299575b508151917fffffffffffffffffffffffffffffffffffffffffffffffffffffffffffffffe061108761107185610f29565b9461107f6040519687610e03565b808652610f29565b015f5b8181106112575750508051905f5b8281106110a6575050505090565b73ffffffffffffffffffffffffffffffffffffffff6110c58284610f41565b5116905f8060405160208101907fa3937111000000000000000000000000000000000000000000000000000000008252602060248201526111398161110d604482018c610c1c565b037fffffffffffffffffffffffffffffffffffffffffffffffffffffffffffffffe08101835282610e03565b5190855afa91611147610f82565b921561124d578251830160208101936020818303126100f057602081015167ffffffffffffffff81116100f0570190608090829003126100f0576040519061118e82610de7565b602081015182526111a160408201610f08565b6020830152606081015160048110156100f0576040830152608081015167ffffffffffffffff81116100f05760209101019380601f860112156100f05784516111e981610e44565b916111f76040519384610e03565b818352602082880101116100f0576020815f9282600199018386015e8301015260608201526040519161122983610d9e565b8252602082015261123a8288610f41565b526112458187610f41565b505b01611098565b5060019150611247565b60209060405161126681610d9e565b5f815260405161127581610de7565b5f81525f848201525f6040820152606080820152838201528282880101520161108a565b9091503d805f833e6112ab8183610e03565b8101906020818303126100f05780519067ffffffffffffffff82116100f057019080601f830112156100f05781516112e281610f29565b926112f06040519485610e03565b81845260208085019260051b8201019283116100f057602001905b82821061131c57505050905f611040565b6020809161132984610f08565b81520191019061130b565b602073ffffffffffffffffffffffffffffffffffffffff7f2f658b440c35314f52658ea8a740e05b284cdc84dc9ae01e891f21b8933e7cad9216807fffffffffffffffffffffffff00000000000000000000000000000000000000007ff3177357ab46d8af007ab3fdb9af81da189e1068fefdc0073dca88a2cab40a005416177ff3177357ab46d8af007ab3fdb9af81da189e1068fefdc0073dca88a2cab40a0055604051908152a1565b60ff7ff0c57e16840df040f15088dc2f81fe391c3923bec73e23a9662efc9c229c6a005460401c161561140e57565b7fd7e6bcf8000000000000000000000000000000000000000000000000000000005f5260045ffd5b90611473575080511561144b57805190602001fd5b7fd6bda275000000000000000000000000000000000000000000000000000000005f5260045ffd5b815115806114c6575b611484575090565b73ffffffffffffffffffffffffffffffffffffffff907f9996b315000000000000000000000000000000000000000000000000000000005f521660045260245ffd5b50803b1561147c56fea2646970667358221220d01642bd5465c48d5275e079340316ddce23810aa58aff30674f480b8a89cc7d64736f6c634300081a0033",
    "linkReferences": {}
  },
  "methodIdentifiers": {
    "ASSET_OWNERSHIP()": "f520d4eb",
    "RIGHTS_POLICY_AUTHORIZER()": "968e48cf",
    "UPGRADE_INTERFACE_VERSION()": "ad3cb1cc",
    "authority()": "bf7e214f",
    "getAvailablePoliciesTerms(address,bytes)": "9f30b60f",
    "getPoliciesTerms(address)": "7d155528",
    "getPoliciesTerms(uint256)": "43e1da33",
    "initialize(address)": "c4d66de8",
    "isConsumingScheduledOp()": "8fb36037",
    "proxiableUUID()": "52d1902d",
    "setAuthority(address)": "7a9e5e4b",
    "upgradeToAndCall(address,bytes)": "4f1ef286"
  },
  "storageLayout": {
    "storage": [],
    "types": {}
  },
  "id": 1
}