{"abi":[{"type":"constructor","inputs":[{"name":"policyAudit","type":"address","internalType":"address"}],"stateMutability":"nonpayable"},{"type":"function","name":"POLICY_AUDIT","inputs":[],"outputs":[{"name":"","type":"address","internalType":"contract IPolicyAuditorVerifiable"}],"stateMutability":"view"},{"type":"function","name":"UPGRADE_INTERFACE_VERSION","inputs":[],"outputs":[{"name":"","type":"string","internalType":"string"}],"stateMutability":"view"},{"type":"function","name":"authority","inputs":[],"outputs":[{"name":"","type":"address","internalType":"address"}],"stateMutability":"view"},{"type":"function","name":"authorizePolicy","inputs":[{"name":"policy","type":"address","internalType":"address"},{"name":"data","type":"bytes","internalType":"bytes"}],"outputs":[],"stateMutability":"nonpayable"},{"type":"function","name":"getAuthorizedPolicies","inputs":[{"name":"holder","type":"address","internalType":"address"}],"outputs":[{"name":"","type":"address[]","internalType":"address[]"}],"stateMutability":"view"},{"type":"function","name":"initialize","inputs":[{"name":"accessManager","type":"address","internalType":"address"}],"outputs":[],"stateMutability":"nonpayable"},{"type":"function","name":"isConsumingScheduledOp","inputs":[],"outputs":[{"name":"","type":"bytes4","internalType":"bytes4"}],"stateMutability":"view"},{"type":"function","name":"isPolicyAuthorized","inputs":[{"name":"policy","type":"address","internalType":"address"},{"name":"holder","type":"address","internalType":"address"}],"outputs":[{"name":"","type":"bool","internalType":"bool"}],"stateMutability":"view"},{"type":"function","name":"proxiableUUID","inputs":[],"outputs":[{"name":"","type":"bytes32","internalType":"bytes32"}],"stateMutability":"view"},{"type":"function","name":"revokePolicy","inputs":[{"name":"policy","type":"address","internalType":"address"}],"outputs":[],"stateMutability":"nonpayable"},{"type":"function","name":"setAuthority","inputs":[{"name":"newAuthority","type":"address","internalType":"address"}],"outputs":[],"stateMutability":"nonpayable"},{"type":"function","name":"upgradeToAndCall","inputs":[{"name":"newImplementation","type":"address","internalType":"address"},{"name":"data","type":"bytes","internalType":"bytes"}],"outputs":[],"stateMutability":"payable"},{"type":"event","name":"AuthorityUpdated","inputs":[{"name":"authority","type":"address","indexed":false,"internalType":"address"}],"anonymous":false},{"type":"event","name":"Initialized","inputs":[{"name":"version","type":"uint64","indexed":false,"internalType":"uint64"}],"anonymous":false},{"type":"event","name":"RightsGranted","inputs":[{"name":"policy","type":"address","indexed":true,"internalType":"address"},{"name":"holder","type":"address","indexed":true,"internalType":"address"}],"anonymous":false},{"type":"event","name":"RightsRevoked","inputs":[{"name":"policy","type":"address","indexed":true,"internalType":"address"},{"name":"holder","type":"address","indexed":true,"internalType":"address"}],"anonymous":false},{"type":"event","name":"Upgraded","inputs":[{"name":"implementation","type":"address","indexed":true,"internalType":"address"}],"anonymous":false},{"type":"error","name":"AccessManagedInvalidAuthority","inputs":[{"name":"authority","type":"address","internalType":"address"}]},{"type":"error","name":"AccessManagedRequiredDelay","inputs":[{"name":"caller","type":"address","internalType":"address"},{"name":"delay","type":"uint32","internalType":"uint32"}]},{"type":"error","name":"AccessManagedUnauthorized","inputs":[{"name":"caller","type":"address","internalType":"address"}]},{"type":"error","name":"AddressEmptyCode","inputs":[{"name":"target","type":"address","internalType":"address"}]},{"type":"error","name":"ERC1967InvalidImplementation","inputs":[{"name":"implementation","type":"address","internalType":"address"}]},{"type":"error","name":"ERC1967NonPayable","inputs":[]},{"type":"error","name":"FailedCall","inputs":[]},{"type":"error","name":"InvalidInitialization","inputs":[]},{"type":"error","name":"InvalidNotAuditedPolicy","inputs":[{"name":"policy","type":"address","internalType":"address"}]},{"type":"error","name":"InvalidPolicyInitialization","inputs":[{"name":"reason","type":"string","internalType":"string"}]},{"type":"error","name":"InvalidUnauthorizedOperation","inputs":[{"name":"","type":"string","internalType":"string"}]},{"type":"error","name":"NotInitializing","inputs":[]},{"type":"error","name":"UUPSUnauthorizedCallContext","inputs":[]},{"type":"error","name":"UUPSUnsupportedProxiableUUID","inputs":[{"name":"slot","type":"bytes32","internalType":"bytes32"}]}],"bytecode":{"object":"0x60c03461014657601f61166a38819003918201601f19168301916001600160401b0383118484101761014a5780849260209460405283398101031261014657516001600160a01b0381169081900361014657306080527ff0c57e16840df040f15088dc2f81fe391c3923bec73e23a9662efc9c229c6a005460ff8160401c16610137576002600160401b03196001600160401b038216016100ce575b5060a05260405161150b908161015f82396080518181816107d901526108da015260a0518181816105e1015261107b0152f35b6001600160401b0319166001600160401b039081177ff0c57e16840df040f15088dc2f81fe391c3923bec73e23a9662efc9c229c6a00556040519081527fc7f505b2f371ae2175ee4913f4499e1f2633a7b5936321eed1cdaeb6115181d290602090a15f61009b565b63f92ee8a960e01b5f5260045ffd5b5f80fd5b634e487b7160e01b5f52604160045260245ffdfe60806040526004361015610011575f80fd5b5f3560e01c80632f6cc10214610cc75780634f1ef2861461085157806352d1902d146107b2578063591b43c5146106dc5780637a9e5e4b1461060557806382e2b7c8146105b55780638fb36037146105225780639fda230a146104b4578063ad3cb1cc14610420578063bf7e214f146103ce578063c4d66de8146101305763ca89d8b21461009d575f80fd5b3461012c57604060031936011261012c576100b6610f06565b6024359073ffffffffffffffffffffffffffffffffffffffff821680920361012c575f9182526020828152604080842073ffffffffffffffffffffffffffffffffffffffff841685526001018252909220541515908161011c575b506040519015158152f35b610126915061100d565b5f610111565b5f80fd5b3461012c57602060031936011261012c57610149610f06565b7ff0c57e16840df040f15088dc2f81fe391c3923bec73e23a9662efc9c229c6a005460ff8160401c16159167ffffffffffffffff8216801590816103c6575b60011490816103bc575b1590816103b3575b5061038b57818360017fffffffffffffffffffffffffffffffffffffffffffffffff000000000000000073ffffffffffffffffffffffffffffffffffffffff9516177ff0c57e16840df040f15088dc2f81fe391c3923bec73e23a9662efc9c229c6a0055610336575b5061020c6113e5565b6102146113e5565b61021c6113e5565b6102246113e5565b61022d816110e5565b6102356113e5565b167fffffffffffffffffffffffff00000000000000000000000000000000000000007fb8e950798a2a06a6f5727a94041b193569f4f67d69a0de3cf866d93822e7fa005416177fb8e950798a2a06a6f5727a94041b193569f4f67d69a0de3cf866d93822e7fa00556102a357005b7fffffffffffffffffffffffffffffffffffffffffffffff00ffffffffffffffff7ff0c57e16840df040f15088dc2f81fe391c3923bec73e23a9662efc9c229c6a0054167ff0c57e16840df040f15088dc2f81fe391c3923bec73e23a9662efc9c229c6a00557fc7f505b2f371ae2175ee4913f4499e1f2633a7b5936321eed1cdaeb6115181d2602060405160018152a1005b7fffffffffffffffffffffffffffffffffffffffffffffff0000000000000000001668010000000000000001177ff0c57e16840df040f15088dc2f81fe391c3923bec73e23a9662efc9c229c6a005583610203565b7ff92ee8a9000000000000000000000000000000000000000000000000000000005f5260045ffd5b9050158461019a565b303b159150610192565b849150610188565b3461012c575f60031936011261012c57602073ffffffffffffffffffffffffffffffffffffffff7ff3177357ab46d8af007ab3fdb9af81da189e1068fefdc0073dca88a2cab40a005416604051908152f35b3461012c575f60031936011261012c57604080519061043f8183610f29565b6005825260208201917f352e302e3000000000000000000000000000000000000000000000000000000083527fffffffffffffffffffffffffffffffffffffffffffffffffffffffffffffffe0601f8351948593602085525180918160208701528686015e5f85828601015201168101030190f35b3461012c57602060031936011261012c576104cd610f06565b335f525f6020526104f973ffffffffffffffffffffffffffffffffffffffff60405f209216809261125f565b5033907fe26ab5559d9c979fe9df51c8a6ac8f71ef871393f720d7bd56f2e600d1bb680e5f80a3005b3461012c575f60031936011261012c577ff3177357ab46d8af007ab3fdb9af81da189e1068fefdc0073dca88a2cab40a005460a01c60ff16156105ad5760207f8fb36037000000000000000000000000000000000000000000000000000000005b7fffffffff0000000000000000000000000000000000000000000000000000000060405191168152f35b60205f610583565b3461012c575f60031936011261012c57602060405173ffffffffffffffffffffffffffffffffffffffff7f0000000000000000000000000000000000000000000000000000000000000000168152f35b3461012c57602060031936011261012c5761061e610f06565b73ffffffffffffffffffffffffffffffffffffffff7ff3177357ab46d8af007ab3fdb9af81da189e1068fefdc0073dca88a2cab40a00541633036106b057803b1561066e5761066c906110e5565b005b73ffffffffffffffffffffffffffffffffffffffff907fc2f31e5e000000000000000000000000000000000000000000000000000000005f521660045260245ffd5b7f068ca9d8000000000000000000000000000000000000000000000000000000005f523360045260245ffd5b3461012c57602060031936011261012c5773ffffffffffffffffffffffffffffffffffffffff61070a610f06565b165f525f60205260405f20604051806020835491828152019081935f5260205f20905f5b81811061079c5750505081610744910382610f29565b604051918291602083019060208452518091526040830191905f5b81811061076d575050500390f35b825173ffffffffffffffffffffffffffffffffffffffff1684528594506020938401939092019160010161075f565b825484526020909301926001928301920161072e565b3461012c575f60031936011261012c5773ffffffffffffffffffffffffffffffffffffffff7f00000000000000000000000000000000000000000000000000000000000000001630036108295760206040517f360894a13ba1a3210667c828492db98dca3e2076cc3735a920a3ca505d382bbc8152f35b7fe07c8dba000000000000000000000000000000000000000000000000000000005f5260045ffd5b604060031936011261012c57610865610f06565b6024359067ffffffffffffffff821161012c573660238301121561012c5781600401359061089282610f97565b916108a06040519384610f29565b8083526020830193366024838301011161012c57815f9260246020930187378401015273ffffffffffffffffffffffffffffffffffffffff7f000000000000000000000000000000000000000000000000000000000000000016803014908115610c85575b50610829576044604073ffffffffffffffffffffffffffffffffffffffff7fb8e950798a2a06a6f5727a94041b193569f4f67d69a0de3cf866d93822e7fa0054168151928380927fd1f856ee0000000000000000000000000000000000000000000000000000000082525f60048301523360248301525afa908115610c7a575f91610c2f575b5015610bab5773ffffffffffffffffffffffffffffffffffffffff8116926040517f52d1902d000000000000000000000000000000000000000000000000000000008152602081600481885afa5f9181610b77575b50610a1157847f4c9c8ce3000000000000000000000000000000000000000000000000000000005f5260045260245ffd5b807f360894a13ba1a3210667c828492db98dca3e2076cc3735a920a3ca505d382bbc869203610b4c5750823b15610b2157807fffffffffffffffffffffffff00000000000000000000000000000000000000007f360894a13ba1a3210667c828492db98dca3e2076cc3735a920a3ca505d382bbc5416177f360894a13ba1a3210667c828492db98dca3e2076cc3735a920a3ca505d382bbc557fbc7cd75a20ee27fd9adebab32041f755214dbc6bffa90cc0225b39da2e5c2d3b5f80a2825115610aef575f809161066c945190845af4610ae9610fd1565b9161143c565b50505034610af957005b7fb398979f000000000000000000000000000000000000000000000000000000005f5260045ffd5b7f4c9c8ce3000000000000000000000000000000000000000000000000000000005f5260045260245ffd5b7faa1d49a4000000000000000000000000000000000000000000000000000000005f5260045260245ffd5b9091506020813d602011610ba3575b81610b9360209383610f29565b8101031261012c575190866109e0565b3d9150610b86565b60846040517f6317e35f00000000000000000000000000000000000000000000000000000000815260206004820152602360248201527f4f6e6c792061646d696e2063616e20706572666f726d2074686973206163746960448201527f6f6e2e00000000000000000000000000000000000000000000000000000000006064820152fd5b90506040813d604011610c72575b81610c4a60409383610f29565b8101031261012c576020610c5d82611000565b91015163ffffffff81160361012c578461098b565b3d9150610c3d565b6040513d5f823e3d90fd5b905073ffffffffffffffffffffffffffffffffffffffff7f360894a13ba1a3210667c828492db98dca3e2076cc3735a920a3ca505d382bbc5416141584610905565b3461012c57604060031936011261012c57610ce0610f06565b60243567ffffffffffffffff811161012c573660238201121561012c57806004013567ffffffffffffffff811161012c57366024828401011161012c57610d268361100d565b15610ec4575f91601f610dd7608485947fffffffffffffffffffffffffffffffffffffffffffffffffffffffffffffffe060405194828693602460208601997fd1f57894000000000000000000000000000000000000000000000000000000008b523382880152604060448801528260648801520186860137888582860101520116810103017fffffffffffffffffffffffffffffffffffffffffffffffffffffffffffffffe08101835282610f29565b519082855af1610de5610fd1565b5015610e4057335f525f602052610e1773ffffffffffffffffffffffffffffffffffffffff60405f20921680926111d2565b5033907f164745c0d5815644c1e92a17e242e89f9c0fd523fc3e94071b60f165692f3d795f80a3005b60846040517f47fc3bab00000000000000000000000000000000000000000000000000000000815260206004820152602760248201527f4572726f7220647572696e6720706f6c69637920696e697469616c697a61746960448201527f6f6e2063616c6c000000000000000000000000000000000000000000000000006064820152fd5b73ffffffffffffffffffffffffffffffffffffffff837fe63549fa000000000000000000000000000000000000000000000000000000005f521660045260245ffd5b6004359073ffffffffffffffffffffffffffffffffffffffff8216820361012c57565b90601f7fffffffffffffffffffffffffffffffffffffffffffffffffffffffffffffffe0910116810190811067ffffffffffffffff821117610f6a57604052565b7f4e487b71000000000000000000000000000000000000000000000000000000005f52604160045260245ffd5b67ffffffffffffffff8111610f6a57601f017fffffffffffffffffffffffffffffffffffffffffffffffffffffffffffffffe01660200190565b3d15610ffb573d90610fe282610f97565b91610ff06040519384610f29565b82523d5f602084013e565b606090565b5190811515820361012c57565b73ffffffffffffffffffffffffffffffffffffffff168015159081611030575090565b9050604051907f9d260809000000000000000000000000000000000000000000000000000000008252600482015260208160248173ffffffffffffffffffffffffffffffffffffffff7f0000000000000000000000000000000000000000000000000000000000000000165afa908115610c7a575f916110ae575090565b90506020813d6020116110dd575b816110c960209383610f29565b8101031261012c576110da90611000565b90565b3d91506110bc565b602073ffffffffffffffffffffffffffffffffffffffff7f2f658b440c35314f52658ea8a740e05b284cdc84dc9ae01e891f21b8933e7cad9216807fffffffffffffffffffffffff00000000000000000000000000000000000000007ff3177357ab46d8af007ab3fdb9af81da189e1068fefdc0073dca88a2cab40a005416177ff3177357ab46d8af007ab3fdb9af81da189e1068fefdc0073dca88a2cab40a0055604051908152a1565b80548210156111a5575f5260205f2001905f90565b7f4e487b71000000000000000000000000000000000000000000000000000000005f52603260045260245ffd5b5f8281526001820160205260409020546112595780549068010000000000000000821015610f6a578261124461120f846001809601855584611190565b81939154907fffffffffffffffffffffffffffffffffffffffffffffffffffffffffffffffff9060031b92831b921b19161790565b90558054925f520160205260405f2055600190565b50505f90565b906001820191815f528260205260405f20548015155f146113dd577fffffffffffffffffffffffffffffffffffffffffffffffffffffffffffffffff81018181116113b0578254907fffffffffffffffffffffffffffffffffffffffffffffffffffffffffffffffff82019182116113b05781810361137b575b5050508054801561134e577fffffffffffffffffffffffffffffffffffffffffffffffffffffffffffffffff01906113118282611190565b7fffffffffffffffffffffffffffffffffffffffffffffffffffffffffffffffff82549160031b1b19169055555f526020525f6040812055600190565b7f4e487b71000000000000000000000000000000000000000000000000000000005f52603160045260245ffd5b61139b61138b61120f9386611190565b90549060031b1c92839286611190565b90555f528360205260405f20555f80806112d9565b7f4e487b71000000000000000000000000000000000000000000000000000000005f52601160045260245ffd5b505050505f90565b60ff7ff0c57e16840df040f15088dc2f81fe391c3923bec73e23a9662efc9c229c6a005460401c161561141457565b7fd7e6bcf8000000000000000000000000000000000000000000000000000000005f5260045ffd5b90611479575080511561145157805190602001fd5b7fd6bda275000000000000000000000000000000000000000000000000000000005f5260045ffd5b815115806114cc575b61148a575090565b73ffffffffffffffffffffffffffffffffffffffff907f9996b315000000000000000000000000000000000000000000000000000000005f521660045260245ffd5b50803b1561148256fea264697066735822122013bf8b5e08f4fce8c72b2651316c68f40d0d55c92628f80e6bd2faeabb4530a764736f6c634300081a0033","linkReferences":{}},"methodIdentifiers":{"POLICY_AUDIT()":"82e2b7c8","UPGRADE_INTERFACE_VERSION()":"ad3cb1cc","authority()":"bf7e214f","authorizePolicy(address,bytes)":"2f6cc102","getAuthorizedPolicies(address)":"591b43c5","initialize(address)":"c4d66de8","isConsumingScheduledOp()":"8fb36037","isPolicyAuthorized(address,address)":"ca89d8b2","proxiableUUID()":"52d1902d","revokePolicy(address)":"9fda230a","setAuthority(address)":"7a9e5e4b","upgradeToAndCall(address,bytes)":"4f1ef286"},"storageLayout":{"storage":[{"astId":5940,"contract":"contracts/rights/RightsPolicyAuthorizer.sol:RightsPolicyAuthorizer","label":"_authorizedPolicies","offset":0,"slot":"0","type":"t_mapping(t_address,t_struct(AddressSet)69884_storage)"}],"types":{"t_address":{"encoding":"inplace","label":"address","numberOfBytes":"20"},"t_array(t_bytes32)dyn_storage":{"encoding":"dynamic_array","label":"bytes32[]","numberOfBytes":"32","base":"t_bytes32"},"t_bytes32":{"encoding":"inplace","label":"bytes32","numberOfBytes":"32"},"t_mapping(t_address,t_struct(AddressSet)69884_storage)":{"encoding":"mapping","key":"t_address","label":"mapping(address => struct EnumerableSet.AddressSet)","numberOfBytes":"32","value":"t_struct(AddressSet)69884_storage"},"t_mapping(t_bytes32,t_uint256)":{"encoding":"mapping","key":"t_bytes32","label":"mapping(bytes32 => uint256)","numberOfBytes":"32","value":"t_uint256"},"t_struct(AddressSet)69884_storage":{"encoding":"inplace","label":"struct EnumerableSet.AddressSet","numberOfBytes":"64","members":[{"astId":69883,"contract":"contracts/rights/RightsPolicyAuthorizer.sol:RightsPolicyAuthorizer","label":"_inner","offset":0,"slot":"0","type":"t_struct(Set)69569_storage"}]},"t_struct(Set)69569_storage":{"encoding":"inplace","label":"struct EnumerableSet.Set","numberOfBytes":"64","members":[{"astId":69564,"contract":"contracts/rights/RightsPolicyAuthorizer.sol:RightsPolicyAuthorizer","label":"_values","offset":0,"slot":"0","type":"t_array(t_bytes32)dyn_storage"},{"astId":69568,"contract":"contracts/rights/RightsPolicyAuthorizer.sol:RightsPolicyAuthorizer","label":"_positions","offset":0,"slot":"1","type":"t_mapping(t_bytes32,t_uint256)"}]},"t_uint256":{"encoding":"inplace","label":"uint256","numberOfBytes":"32"}}},"id":59}