{"abi":[{"type":"constructor","inputs":[{"name":"treasury","type":"address","internalType":"address"},{"name":"tollgate","type":"address","internalType":"address"}],"stateMutability":"nonpayable"},{"type":"function","name":"TOLLGATE","inputs":[],"outputs":[{"name":"","type":"address","internalType":"contract ITollgate"}],"stateMutability":"view"},{"type":"function","name":"TREASURY","inputs":[],"outputs":[{"name":"","type":"address","internalType":"contract ITreasury"}],"stateMutability":"view"},{"type":"function","name":"UPGRADE_INTERFACE_VERSION","inputs":[],"outputs":[{"name":"","type":"string","internalType":"string"}],"stateMutability":"view"},{"type":"function","name":"authority","inputs":[],"outputs":[{"name":"","type":"address","internalType":"address"}],"stateMutability":"view"},{"type":"function","name":"createAgreement","inputs":[{"name":"amount","type":"uint256","internalType":"uint256"},{"name":"currency","type":"address","internalType":"address"},{"name":"broker","type":"address","internalType":"address"},{"name":"parties","type":"address[]","internalType":"address[]"},{"name":"payload","type":"bytes","internalType":"bytes"}],"outputs":[{"name":"","type":"uint256","internalType":"uint256"}],"stateMutability":"nonpayable"},{"type":"function","name":"disburse","inputs":[{"name":"currency","type":"address","internalType":"address"}],"outputs":[{"name":"","type":"uint256","internalType":"uint256"}],"stateMutability":"nonpayable"},{"type":"function","name":"getAgreement","inputs":[{"name":"proof","type":"uint256","internalType":"uint256"}],"outputs":[{"name":"","type":"tuple","internalType":"struct T.Agreement","components":[{"name":"active","type":"bool","internalType":"bool"},{"name":"broker","type":"address","internalType":"address"},{"name":"currency","type":"address","internalType":"address"},{"name":"initiator","type":"address","internalType":"address"},{"name":"createdAt","type":"uint256","internalType":"uint256"},{"name":"amount","type":"uint256","internalType":"uint256"},{"name":"fees","type":"uint256","internalType":"uint256"},{"name":"available","type":"uint256","internalType":"uint256"},{"name":"parties","type":"address[]","internalType":"address[]"},{"name":"payload","type":"bytes","internalType":"bytes"}]}],"stateMutability":"view"},{"type":"function","name":"getLedgerBalance","inputs":[{"name":"account","type":"address","internalType":"address"},{"name":"currency","type":"address","internalType":"address"}],"outputs":[{"name":"","type":"uint256","internalType":"uint256"}],"stateMutability":"view"},{"type":"function","name":"getTreasuryAddress","inputs":[],"outputs":[{"name":"","type":"address","internalType":"address"}],"stateMutability":"view"},{"type":"function","name":"initialize","inputs":[{"name":"accessManager","type":"address","internalType":"address"}],"outputs":[],"stateMutability":"nonpayable"},{"type":"function","name":"isConsumingScheduledOp","inputs":[],"outputs":[{"name":"","type":"bytes4","internalType":"bytes4"}],"stateMutability":"view"},{"type":"function","name":"previewAgreement","inputs":[{"name":"amount","type":"uint256","internalType":"uint256"},{"name":"currency","type":"address","internalType":"address"},{"name":"broker","type":"address","internalType":"address"},{"name":"parties","type":"address[]","internalType":"address[]"},{"name":"payload","type":"bytes","internalType":"bytes"}],"outputs":[{"name":"","type":"tuple","internalType":"struct T.Agreement","components":[{"name":"active","type":"bool","internalType":"bool"},{"name":"broker","type":"address","internalType":"address"},{"name":"currency","type":"address","internalType":"address"},{"name":"initiator","type":"address","internalType":"address"},{"name":"createdAt","type":"uint256","internalType":"uint256"},{"name":"amount","type":"uint256","internalType":"uint256"},{"name":"fees","type":"uint256","internalType":"uint256"},{"name":"available","type":"uint256","internalType":"uint256"},{"name":"parties","type":"address[]","internalType":"address[]"},{"name":"payload","type":"bytes","internalType":"bytes"}]}],"stateMutability":"view"},{"type":"function","name":"proxiableUUID","inputs":[],"outputs":[{"name":"","type":"bytes32","internalType":"bytes32"}],"stateMutability":"view"},{"type":"function","name":"quitAgreement","inputs":[{"name":"proof","type":"uint256","internalType":"uint256"}],"outputs":[{"name":"","type":"tuple","internalType":"struct T.Agreement","components":[{"name":"active","type":"bool","internalType":"bool"},{"name":"broker","type":"address","internalType":"address"},{"name":"currency","type":"address","internalType":"address"},{"name":"initiator","type":"address","internalType":"address"},{"name":"createdAt","type":"uint256","internalType":"uint256"},{"name":"amount","type":"uint256","internalType":"uint256"},{"name":"fees","type":"uint256","internalType":"uint256"},{"name":"available","type":"uint256","internalType":"uint256"},{"name":"parties","type":"address[]","internalType":"address[]"},{"name":"payload","type":"bytes","internalType":"bytes"}]}],"stateMutability":"nonpayable"},{"type":"function","name":"setAuthority","inputs":[{"name":"newAuthority","type":"address","internalType":"address"}],"outputs":[],"stateMutability":"nonpayable"},{"type":"function","name":"settleAgreement","inputs":[{"name":"proof","type":"uint256","internalType":"uint256"},{"name":"counterparty","type":"address","internalType":"address"}],"outputs":[{"name":"","type":"tuple","internalType":"struct T.Agreement","components":[{"name":"active","type":"bool","internalType":"bool"},{"name":"broker","type":"address","internalType":"address"},{"name":"currency","type":"address","internalType":"address"},{"name":"initiator","type":"address","internalType":"address"},{"name":"createdAt","type":"uint256","internalType":"uint256"},{"name":"amount","type":"uint256","internalType":"uint256"},{"name":"fees","type":"uint256","internalType":"uint256"},{"name":"available","type":"uint256","internalType":"uint256"},{"name":"parties","type":"address[]","internalType":"address[]"},{"name":"payload","type":"bytes","internalType":"bytes"}]}],"stateMutability":"nonpayable"},{"type":"function","name":"upgradeToAndCall","inputs":[{"name":"newImplementation","type":"address","internalType":"address"},{"name":"data","type":"bytes","internalType":"bytes"}],"outputs":[],"stateMutability":"payable"},{"type":"event","name":"AgreementCancelled","inputs":[{"name":"initiator","type":"address","indexed":true,"internalType":"address"},{"name":"proof","type":"uint256","indexed":false,"internalType":"uint256"}],"anonymous":false},{"type":"event","name":"AgreementCreated","inputs":[{"name":"initiator","type":"address","indexed":true,"internalType":"address"},{"name":"proof","type":"uint256","indexed":false,"internalType":"uint256"}],"anonymous":false},{"type":"event","name":"AgreementSettled","inputs":[{"name":"broker","type":"address","indexed":true,"internalType":"address"},{"name":"counterparty","type":"address","indexed":true,"internalType":"address"},{"name":"proof","type":"uint256","indexed":false,"internalType":"uint256"}],"anonymous":false},{"type":"event","name":"AuthorityUpdated","inputs":[{"name":"authority","type":"address","indexed":false,"internalType":"address"}],"anonymous":false},{"type":"event","name":"FeesDisbursed","inputs":[{"name":"target","type":"address","indexed":true,"internalType":"address"},{"name":"amount","type":"uint256","indexed":false,"internalType":"uint256"},{"name":"currency","type":"address","indexed":false,"internalType":"address"}],"anonymous":false},{"type":"event","name":"Initialized","inputs":[{"name":"version","type":"uint64","indexed":false,"internalType":"uint64"}],"anonymous":false},{"type":"event","name":"Upgraded","inputs":[{"name":"implementation","type":"address","indexed":true,"internalType":"address"}],"anonymous":false},{"type":"error","name":"AccessManagedInvalidAuthority","inputs":[{"name":"authority","type":"address","internalType":"address"}]},{"type":"error","name":"AccessManagedRequiredDelay","inputs":[{"name":"caller","type":"address","internalType":"address"},{"name":"delay","type":"uint32","internalType":"uint32"}]},{"type":"error","name":"AccessManagedUnauthorized","inputs":[{"name":"caller","type":"address","internalType":"address"}]},{"type":"error","name":"AddressEmptyCode","inputs":[{"name":"target","type":"address","internalType":"address"}]},{"type":"error","name":"ERC1967InvalidImplementation","inputs":[{"name":"implementation","type":"address","internalType":"address"}]},{"type":"error","name":"ERC1967NonPayable","inputs":[]},{"type":"error","name":"FailDuringDeposit","inputs":[{"name":"reason","type":"string","internalType":"string"}]},{"type":"error","name":"FailDuringTransfer","inputs":[{"name":"reason","type":"string","internalType":"string"}]},{"type":"error","name":"FailedCall","inputs":[]},{"type":"error","name":"InvalidAgreementOp","inputs":[{"name":"message","type":"string","internalType":"string"}]},{"type":"error","name":"InvalidAgreementProof","inputs":[]},{"type":"error","name":"InvalidInitialization","inputs":[]},{"type":"error","name":"InvalidTreasuryAddress","inputs":[{"name":"invalidAddress","type":"address","internalType":"address"}]},{"type":"error","name":"InvalidUnauthorizedDisbursement","inputs":[{"name":"caller","type":"address","internalType":"address"}]},{"type":"error","name":"InvalidUnauthorizedOperation","inputs":[{"name":"","type":"string","internalType":"string"}]},{"type":"error","name":"NotInitializing","inputs":[]},{"type":"error","name":"ReentrancyGuardReentrantCall","inputs":[]},{"type":"error","name":"SafeERC20FailedOperation","inputs":[{"name":"token","type":"address","internalType":"address"}]},{"type":"error","name":"UUPSUnauthorizedCallContext","inputs":[]},{"type":"error","name":"UUPSUnsupportedProxiableUUID","inputs":[{"name":"slot","type":"bytes32","internalType":"bytes32"}]}],"bytecode":{"object":"0x60e03461016d57601f612d0e38819003918201601f19168301916001600160401b0383118484101761017157808492604094855283398101031261016d57610052602061004b83610185565b9201610185565b306080527ff0c57e16840df040f15088dc2f81fe391c3923bec73e23a9662efc9c229c6a005460ff8160401c1661015e576002600160401b03196001600160401b038216016100f5575b506001600160a01b0390811660c0521660a052604051612b74908161019a82396080518181816109b00152610aaf015260a0518181816105650152818161134101526122e8015260c051818181610ecc0152611ba90152f35b6001600160401b0319166001600160401b039081177ff0c57e16840df040f15088dc2f81fe391c3923bec73e23a9662efc9c229c6a00556040519081527fc7f505b2f371ae2175ee4913f4499e1f2633a7b5936321eed1cdaeb6115181d290602090a15f61009c565b63f92ee8a960e01b5f5260045ffd5b5f80fd5b634e487b7160e01b5f52604160045260245ffd5b51906001600160a01b038216820361016d5756fe60806040526004361015610011575f80fd5b5f3560e01c80631c8ce890146115e05780632182b2311461138557806329f780e3146113655780632d2c5565146113155780633f5d1b6f14610ef05780634b74c03514610ea05780634f1ef28614610a535780634f9f6fe614610a2857806352d1902d146109895780637a9e5e4b146108b25780638fb360371461081f578063ad3cb1cc146107c0578063bf7e214f1461076e578063c4d66de8146103e1578063d949b8441461034e578063e0024604146102fc5763e5f5677a146100d4575f80fd5b346102f85760406003193601126102f8576004356100f0611699565b906100f9611ae0565b5061010381611e93565b8051159081156102d5575b506102765761011c81611e93565b9073ffffffffffffffffffffffffffffffffffffffff60208301511633036101f25773ffffffffffffffffffffffffffffffffffffffff6101ee936101b460c085015160e08601516101ae8560408901511680936101a7895f525f60205260405f207fffffffffffffffffffffffffffffffffffffffffffffffffffffffffffffff00815416815590565b503061225b565b836122ce565b60405192835216907f4ee820438d9a88f87a3ce7b61be7ebc31585a98ffd36ac2cbfd9b3452c2bbbe660203392a3604051918291826116ff565b0390f35b60846040517f7884ed9b00000000000000000000000000000000000000000000000000000000815260206004820152602560248201527f4f6e6c792062726f6b65722063616e20736574746c652074686520616772656560448201527f6d656e742e0000000000000000000000000000000000000000000000000000006064820152fd5b6040517f7884ed9b00000000000000000000000000000000000000000000000000000000815260206004820152601b60248201527f496e76616c696420696e6163746976652061677265656d656e742e00000000006044820152606490fd5b73ffffffffffffffffffffffffffffffffffffffff91506060015116155f61010e565b5f80fd5b346102f8575f6003193601126102f857602073ffffffffffffffffffffffffffffffffffffffff7fad118695963461d59b4e186bb251fe176897e2c57f3362e8dade6f9a4f8e74005416604051908152f35b346102f85760406003193601126102f857610367611676565b73ffffffffffffffffffffffffffffffffffffffff6103cb610387611699565b9273ffffffffffffffffffffffffffffffffffffffff165f527fcb711bda070b7bbcc2b711ef3993cc17677144f4419b29e303bef375c5f40f0060205260405f2090565b91165f52602052602060405f2054604051908152f35b346102f85760206003193601126102f8576103fa611676565b7ff0c57e16840df040f15088dc2f81fe391c3923bec73e23a9662efc9c229c6a005460ff8160401c16159167ffffffffffffffff821680159081610766575b600114908161075c575b159081610753575b5061072b57818360017fffffffffffffffffffffffffffffffffffffffffffffffff000000000000000073ffffffffffffffffffffffffffffffffffffffff9516177ff0c57e16840df040f15088dc2f81fe391c3923bec73e23a9662efc9c229c6a00556106d6575b506104bd6129c7565b6104c56129c7565b6104cd6129c7565b6104d56129c7565b6104de816127b2565b6104e66129c7565b167fffffffffffffffffffffffff00000000000000000000000000000000000000007fb8e950798a2a06a6f5727a94041b193569f4f67d69a0de3cf866d93822e7fa005416177fb8e950798a2a06a6f5727a94041b193569f4f67d69a0de3cf866d93822e7fa005573ffffffffffffffffffffffffffffffffffffffff7f00000000000000000000000000000000000000000000000000000000000000001661058d6129c7565b6105956129c7565b61059d6129c7565b80156106ab577fffffffffffffffffffffffff00000000000000000000000000000000000000007fad118695963461d59b4e186bb251fe176897e2c57f3362e8dade6f9a4f8e74005416177fad118695963461d59b4e186bb251fe176897e2c57f3362e8dade6f9a4f8e7400556106126129c7565b61061857005b7fffffffffffffffffffffffffffffffffffffffffffffff00ffffffffffffffff7ff0c57e16840df040f15088dc2f81fe391c3923bec73e23a9662efc9c229c6a0054167ff0c57e16840df040f15088dc2f81fe391c3923bec73e23a9662efc9c229c6a00557fc7f505b2f371ae2175ee4913f4499e1f2633a7b5936321eed1cdaeb6115181d2602060405160018152a1005b7fd35749f4000000000000000000000000000000000000000000000000000000005f5260045260245ffd5b7fffffffffffffffffffffffffffffffffffffffffffffff0000000000000000001668010000000000000001177ff0c57e16840df040f15088dc2f81fe391c3923bec73e23a9662efc9c229c6a0055836104b4565b7ff92ee8a9000000000000000000000000000000000000000000000000000000005f5260045ffd5b9050158461044b565b303b159150610443565b849150610439565b346102f8575f6003193601126102f857602073ffffffffffffffffffffffffffffffffffffffff7ff3177357ab46d8af007ab3fdb9af81da189e1068fefdc0073dca88a2cab40a005416604051908152f35b346102f8575f6003193601126102f8576101ee6040516107e160408261192d565b600581527f352e302e3000000000000000000000000000000000000000000000000000000060208201526040519182916020835260208301906116bc565b346102f8575f6003193601126102f8577ff3177357ab46d8af007ab3fdb9af81da189e1068fefdc0073dca88a2cab40a005460a01c60ff16156108aa5760207f8fb36037000000000000000000000000000000000000000000000000000000005b7fffffffff0000000000000000000000000000000000000000000000000000000060405191168152f35b60205f610880565b346102f85760206003193601126102f8576108cb611676565b73ffffffffffffffffffffffffffffffffffffffff7ff3177357ab46d8af007ab3fdb9af81da189e1068fefdc0073dca88a2cab40a005416330361095d57803b1561091b57610919906127b2565b005b73ffffffffffffffffffffffffffffffffffffffff907fc2f31e5e000000000000000000000000000000000000000000000000000000005f521660045260245ffd5b7f068ca9d8000000000000000000000000000000000000000000000000000000005f523360045260245ffd5b346102f8575f6003193601126102f85773ffffffffffffffffffffffffffffffffffffffff7f0000000000000000000000000000000000000000000000000000000000000000163003610a005760206040517f360894a13ba1a3210667c828492db98dca3e2076cc3735a920a3ca505d382bbc8152f35b7fe07c8dba000000000000000000000000000000000000000000000000000000005f5260045ffd5b346102f85760206003193601126102f8576101ee610a47600435611e93565b604051918291826116ff565b60406003193601126102f857610a67611676565b60243567ffffffffffffffff81116102f857366023820112156102f857610a989036906024816004013591016119a8565b73ffffffffffffffffffffffffffffffffffffffff7f000000000000000000000000000000000000000000000000000000000000000016803014908115610e5e575b50610a00576044604073ffffffffffffffffffffffffffffffffffffffff7fb8e950798a2a06a6f5727a94041b193569f4f67d69a0de3cf866d93822e7fa0054168151928380927fd1f856ee0000000000000000000000000000000000000000000000000000000082525f60048301523360248301525afa908115610e53575f91610e06575b5015610d825773ffffffffffffffffffffffffffffffffffffffff8216916040517f52d1902d000000000000000000000000000000000000000000000000000000008152602081600481875afa5f9181610d4e575b50610be657837f4c9c8ce3000000000000000000000000000000000000000000000000000000005f5260045260245ffd5b807f360894a13ba1a3210667c828492db98dca3e2076cc3735a920a3ca505d382bbc859203610d235750813b15610cf857807fffffffffffffffffffffffff00000000000000000000000000000000000000007f360894a13ba1a3210667c828492db98dca3e2076cc3735a920a3ca505d382bbc5416177f360894a13ba1a3210667c828492db98dca3e2076cc3735a920a3ca505d382bbc557fbc7cd75a20ee27fd9adebab32041f755214dbc6bffa90cc0225b39da2e5c2d3b5f80a2815115610cc7575f8083602061091995519101845af4610cc161290e565b91612aa5565b505034610cd057005b7fb398979f000000000000000000000000000000000000000000000000000000005f5260045ffd5b7f4c9c8ce3000000000000000000000000000000000000000000000000000000005f5260045260245ffd5b7faa1d49a4000000000000000000000000000000000000000000000000000000005f5260045260245ffd5b9091506020813d602011610d7a575b81610d6a6020938361192d565b810103126102f857519085610bb5565b3d9150610d5d565b60846040517f6317e35f00000000000000000000000000000000000000000000000000000000815260206004820152602360248201527f4f6e6c792061646d696e2063616e20706572666f726d2074686973206163746960448201527f6f6e2e00000000000000000000000000000000000000000000000000000000006064820152fd5b90506040813d604011610e4b575b81610e216040938361192d565b810103126102f85780519081151582036102f8576020015163ffffffff8116036102f85783610b60565b3d9150610e14565b6040513d5f823e3d90fd5b905073ffffffffffffffffffffffffffffffffffffffff7f360894a13ba1a3210667c828492db98dca3e2076cc3735a920a3ca505d382bbc5416141583610ada565b346102f8575f6003193601126102f857602060405173ffffffffffffffffffffffffffffffffffffffff7f0000000000000000000000000000000000000000000000000000000000000000168152f35b346102f857610f19610f14610f0436611833565b96909594809295949394336125da565b611b2a565b6040516020810190610f5b81610f2f85856116ff565b037fffffffffffffffffffffffffffffffffffffffffffffffffffffffffffffffe0810183528261192d565b519020805f525f60205260405f208251151560ff7fffffffffffffffffffffffffffffffffffffffffffffffffffffffffffffff00835416911617815560208301517fffffffffffffffffffffff0000000000000000000000000000000000000000ff74ffffffffffffffffffffffffffffffffffffffff0083549260081b16911617815573ffffffffffffffffffffffffffffffffffffffff60408401511673ffffffffffffffffffffffffffffffffffffffff6001830191167fffffffffffffffffffffffff000000000000000000000000000000000000000082541617905573ffffffffffffffffffffffffffffffffffffffff60608401511673ffffffffffffffffffffffffffffffffffffffff6002830191167fffffffffffffffffffffffff00000000000000000000000000000000000000008254161790556080830151600382015560a0830151600482015560c0830151600582015560e08301516006820155600781016101008401519081519167ffffffffffffffff83116112a3576801000000000000000083116112a35760209082548484558085106112fa575b5001905f5260205f205f5b8381106112d057610120870151805190876008880167ffffffffffffffff84116112a35760209361113b8254611e42565b601f811161126a575b508493601f82116001146111ce5793819293945f926111c3575b50507fffffffffffffffffffffffffffffffffffffffffffffffffffffffffffffffff8260011b9260031b1c19161790555b6040518181527fb649569e5c9bb3f3eb7cc2fd396f5abc452ec3f6f6e2d62638b48d3e7fa599ca833392a2604051908152f35b01519050858061115e565b7fffffffffffffffffffffffffffffffffffffffffffffffffffffffffffffffe0821694835f52805f20915f5b87811061125357508360019596971061121c575b505050811b019055611190565b01517fffffffffffffffffffffffffffffffffffffffffffffffffffffffffffffffff60f88460031b161c1916905585808061120f565b9192886001819286850151815501940192016111fb565b61129390835f52865f20601f840160051c810191888510611299575b601f0160051c019061279c565b85611144565b9091508190611286565b7f4e487b71000000000000000000000000000000000000000000000000000000005f52604160045260245ffd5b600190602073ffffffffffffffffffffffffffffffffffffffff855116940193818401550161110a565b61130f90845f5285845f20918201910161279c565b876110ff565b346102f8575f6003193601126102f857602060405173ffffffffffffffffffffffffffffffffffffffff7f0000000000000000000000000000000000000000000000000000000000000000168152f35b346102f8576101ee610a4761137936611833565b95949094939193611b2a565b346102f85760206003193601126102f8576004356113a1611ae0565b506113ab81611e93565b8051159081156115bd575b50610276577f9b779b17422d0df92223018b32b4d1fa46e071723d6817e2486d003becc55f005c6115955760017f9b779b17422d0df92223018b32b4d1fa46e071723d6817e2486d003becc55f005d61140e81611e93565b6060810173ffffffffffffffffffffffffffffffffffffffff8151163303611511577ffab2b7f82959aa58a83804666a6c0eb98ef4ec938a314db9f0c72bfbb37f05ae60206101ee946114db73ffffffffffffffffffffffffffffffffffffffff60e08701519551169460c0870151906114d573ffffffffffffffffffffffffffffffffffffffff60408a01511680936101a7875f525f60205260405f207fffffffffffffffffffffffffffffffffffffffffffffffffffffffffffffff00815416815590565b866122ce565b604051908152a25f7f9b779b17422d0df92223018b32b4d1fa46e071723d6817e2486d003becc55f005d604051918291826116ff565b60846040517f7884ed9b00000000000000000000000000000000000000000000000000000000815260206004820152602760248201527f4f6e6c7920696e69746961746f722063616e20636c6f7365207468652061677260448201527f65656d656e742e000000000000000000000000000000000000000000000000006064820152fd5b7f3ee5aeb5000000000000000000000000000000000000000000000000000000005f5260045ffd5b73ffffffffffffffffffffffffffffffffffffffff9150606001511615826113b6565b346102f85760206003193601126102f8576115f9611676565b73ffffffffffffffffffffffffffffffffffffffff7fad118695963461d59b4e186bb251fe176897e2c57f3362e8dade6f9a4f8e74005416330361164a576116426020916119de565b604051908152f35b7f7344c314000000000000000000000000000000000000000000000000000000005f523360045260245ffd5b6004359073ffffffffffffffffffffffffffffffffffffffff821682036102f857565b6024359073ffffffffffffffffffffffffffffffffffffffff821682036102f857565b907fffffffffffffffffffffffffffffffffffffffffffffffffffffffffffffffe0601f602080948051918291828752018686015e5f8582860101520116010190565b9190916020815261016081019083511515602082015273ffffffffffffffffffffffffffffffffffffffff602085015116604082015273ffffffffffffffffffffffffffffffffffffffff604085015116606082015273ffffffffffffffffffffffffffffffffffffffff6060850151166080820152608084015160a082015260a084015160c082015260c084015160e082015260e0840151610100820152610100840151916101406101208301528251809152602061018083019301905f5b8181106118075750505061012061180493940151906101407fffffffffffffffffffffffffffffffffffffffffffffffffffffffffffffffe0828503019101526116bc565b90565b825173ffffffffffffffffffffffffffffffffffffffff168552602094850194909201916001016117bf565b60a06003198201126102f8576004359160243573ffffffffffffffffffffffffffffffffffffffff811681036102f8579160443573ffffffffffffffffffffffffffffffffffffffff811681036102f857916064359167ffffffffffffffff83116102f857806023840112156102f85782600401359267ffffffffffffffff84116102f8578160248560051b830101116102f857602401929160843567ffffffffffffffff81116102f857826023820112156102f85780600401359267ffffffffffffffff84116102f857602484830101116102f8576024019190565b610140810190811067ffffffffffffffff8211176112a357604052565b90601f7fffffffffffffffffffffffffffffffffffffffffffffffffffffffffffffffe0910116810190811067ffffffffffffffff8211176112a357604052565b67ffffffffffffffff81116112a357601f017fffffffffffffffffffffffffffffffffffffffffffffffffffffffffffffffe01660200190565b9291926119b48261196e565b916119c2604051938461192d565b8294818452818301116102f8578281602093845f960137010152565b73ffffffffffffffffffffffffffffffffffffffff7fad118695963461d59b4e186bb251fe176897e2c57f3362e8dade6f9a4f8e74005416611a5d3073ffffffffffffffffffffffffffffffffffffffff165f527fcb711bda070b7bbcc2b711ef3993cc17677144f4419b29e303bef375c5f40f0060205260405f2090565b73ffffffffffffffffffffffffffffffffffffffff83165f5260205260405f2054918215611ad957604081611ab47faacdfb17e73979730dd4f099403209fa37d2a4486c1bcddfad753c3fc6c430df938686612067565b73ffffffffffffffffffffffffffffffffffffffff825191868352166020820152a290565b5050505f90565b60405190611aed82611910565b6060610120835f81525f60208201525f60408201525f838201525f60808201525f60a08201525f60c08201525f60e0820152826101008201520152565b9695929694939194611b3a611ae0565b508215611dbe5773ffffffffffffffffffffffffffffffffffffffff604051927f5622361d00000000000000000000000000000000000000000000000000000000845260026004850152169182602482015260208160448173ffffffffffffffffffffffffffffffffffffffff7f0000000000000000000000000000000000000000000000000000000000000000165afa908115610e53575f91611d8c575b506127108111611d0857808202908282041482151715611cdb5761271090049081810392818411611cdb5773ffffffffffffffffffffffffffffffffffffffff60405198611c268a611910565b60018a52166020890152604088015233606088015242608088015260a087015260c086015260e085015267ffffffffffffffff81116112a3578060051b9560405191611c75602089018461192d565b825260208201968101903682116102f857965b818810611cae57505083949550610100611ca594015236916119a8565b61012082015290565b873573ffffffffffffffffffffffffffffffffffffffff811681036102f857815260209788019701611c88565b7f4e487b71000000000000000000000000000000000000000000000000000000005f52601160045260245ffd5b60846040517f08c379a000000000000000000000000000000000000000000000000000000000815260206004820152602160248201527f4250532063616e6e6f742062652067726561746572207468616e2031305f303060448201527f30000000000000000000000000000000000000000000000000000000000000006064820152fd5b90506020813d602011611db6575b81611da76020938361192d565b810103126102f857515f611bd9565b3d9150611d9a565b60846040517f7884ed9b00000000000000000000000000000000000000000000000000000000815260206004820152602960248201527f41677265656d656e74206d75737420696e636c756465206174206c656173742060448201527f6f6e6520706172747900000000000000000000000000000000000000000000006064820152fd5b90600182811c92168015611e89575b6020831014611e5c57565b7f4e487b71000000000000000000000000000000000000000000000000000000005f52602260045260245ffd5b91607f1691611e51565b611e9b611ae0565b505f525f60205260405f2060405190611eb382611910565b73ffffffffffffffffffffffffffffffffffffffff815460ff81161515845260081c16602083015273ffffffffffffffffffffffffffffffffffffffff600182015416604083015273ffffffffffffffffffffffffffffffffffffffff600282015416606083015260038101546080830152600481015460a0830152600581015460c0830152600681015460e0830152600781016040519081602082549182815201915f5260205f20905f5b81811061203b5750505090611f798160089493038261192d565b6101008401520160405190815f825492611f9284611e42565b8084529360018116908115611ffb5750600114611fb7575b50611ca59250038261192d565b90505f9291925260205f20905f915b818310611fdf575050906020611ca5928201015f611faa565b6020919350806001915483858801015201910190918392611fc6565b60209350611ca59592507fffffffffffffffffffffffffffffffffffffffffffffffffffffffffffffff0091501682840152151560051b8201015f611faa565b825473ffffffffffffffffffffffffffffffffffffffff16845260209093019260019283019201611f5f565b9181156121f05781612079823061285d565b106121925773ffffffffffffffffffffffffffffffffffffffff168015612104576040517fa9059cbb00000000000000000000000000000000000000000000000000000000602082015273ffffffffffffffffffffffffffffffffffffffff93909316602484015260448084019290925290825261210291906120fd60648361192d565b612a1e565b565b505f8080939273ffffffffffffffffffffffffffffffffffffffff8294165af161212c61290e565b501561213457565b60646040517f9cf1483d00000000000000000000000000000000000000000000000000000000815260206004820152600f60248201527f5472616e73666572206661696c656400000000000000000000000000000000006044820152fd5b60646040517f9cf1483d00000000000000000000000000000000000000000000000000000000815260206004820152601560248201527f496e73756666696369656e742062616c616e63652e00000000000000000000006044820152fd5b60646040517f9cf1483d00000000000000000000000000000000000000000000000000000000815260206004820152602060248201527f496e76616c6964207a65726f20616d6f756e7420746f207472616e736665722e6044820152fd5b91908201809211611cdb57565b73ffffffffffffffffffffffffffffffffffffffff90929192165f527fcb711bda070b7bbcc2b711ef3993cc17677144f4419b29e303bef375c5f40f0060205273ffffffffffffffffffffffffffffffffffffffff60405f2091165f526020526122ca60405f2091825461224e565b9055565b909173ffffffffffffffffffffffffffffffffffffffff807f000000000000000000000000000000000000000000000000000000000000000016911690811580156125d2575b61254f576040517fdd62ed3e00000000000000000000000000000000000000000000000000000000815230600482015273ffffffffffffffffffffffffffffffffffffffff82166024820152602081604481865afa8015610e535785905f90612519575b612382925061224e565b60205f60405192612410846123e4858201937f095ea7b300000000000000000000000000000000000000000000000000000000855288602484016020909392919373ffffffffffffffffffffffffffffffffffffffff60408201951681520152565b037fffffffffffffffffffffffffffffffffffffffffffffffffffffffffffffffe0810186528561192d565b83519082875af15f513d826124fd575b5050156124a0575b50803b156102f8575f928360649273ffffffffffffffffffffffffffffffffffffffff9460405197889687957ff45346dc000000000000000000000000000000000000000000000000000000008752166004860152602485015260448401525af18015610e53576124965750565b5f6121029161192d565b6124f7906124f16040517f095ea7b30000000000000000000000000000000000000000000000000000000060208201528460248201525f6044820152604481526124eb60648261192d565b85612a1e565b83612a1e565b5f612428565b9091506125115750823b15155b5f80612420565b60011461250a565b50506020813d602011612547575b816125346020938361192d565b810103126102f857846123829151612378565b3d9150612527565b60846040517f23c75658000000000000000000000000000000000000000000000000000000008152602060048201526024808201527f496e76616c6964207370656e646572206f7220616c6c6f77616e63652061747460448201527f656d7074000000000000000000000000000000000000000000000000000000006064820152fd5b508315612314565b919091821561273e5773ffffffffffffffffffffffffffffffffffffffff82169182156126d35761260b908261293d565b8311612675576118049173ffffffffffffffffffffffffffffffffffffffff604051927f23b872dd000000000000000000000000000000000000000000000000000000006020850152166024830152306044830152836064830152606482526120fd60848361192d565b60646040517f23c7565800000000000000000000000000000000000000000000000000000000815260206004820152601960248201527f416d6f756e74206578636565647320616c6c6f77616e63652e000000000000006044820152fd5b5050503481116126e05790565b60646040517f23c7565800000000000000000000000000000000000000000000000000000000815260206004820152601760248201527f416d6f756e7420657863656564732062616c616e63652e0000000000000000006044820152fd5b60646040517f23c7565800000000000000000000000000000000000000000000000000000000815260206004820152601460248201527f496e76616c6964207a65726f20616d6f756e742e0000000000000000000000006044820152fd5b8181106127a7575050565b5f815560010161279c565b602073ffffffffffffffffffffffffffffffffffffffff7f2f658b440c35314f52658ea8a740e05b284cdc84dc9ae01e891f21b8933e7cad9216807fffffffffffffffffffffffff00000000000000000000000000000000000000007ff3177357ab46d8af007ab3fdb9af81da189e1068fefdc0073dca88a2cab40a005416177ff3177357ab46d8af007ab3fdb9af81da189e1068fefdc0073dca88a2cab40a0055604051908152a1565b9073ffffffffffffffffffffffffffffffffffffffff169081156129085773ffffffffffffffffffffffffffffffffffffffff602460209260405194859384927f70a082310000000000000000000000000000000000000000000000000000000084521660048301525afa908115610e53575f916128d9575090565b90506020813d602011612900575b816128f46020938361192d565b810103126102f8575190565b3d91506128e7565b90503190565b3d15612938573d9061291f8261196e565b9161292d604051938461192d565b82523d5f602084013e565b606090565b9073ffffffffffffffffffffffffffffffffffffffff1680156129c1576040517fdd62ed3e00000000000000000000000000000000000000000000000000000000815273ffffffffffffffffffffffffffffffffffffffff929092166004830152306024830152602090829060449082905afa908115610e53575f916128d9575090565b50503490565b60ff7ff0c57e16840df040f15088dc2f81fe391c3923bec73e23a9662efc9c229c6a005460401c16156129f657565b7fd7e6bcf8000000000000000000000000000000000000000000000000000000005f5260045ffd5b905f602091828151910182855af115610e53575f513d612a9c575073ffffffffffffffffffffffffffffffffffffffff81163b155b612a5a5750565b73ffffffffffffffffffffffffffffffffffffffff907f5274afe7000000000000000000000000000000000000000000000000000000005f521660045260245ffd5b60011415612a53565b90612ae25750805115612aba57805190602001fd5b7fd6bda275000000000000000000000000000000000000000000000000000000005f5260045ffd5b81511580612b35575b612af3575090565b73ffffffffffffffffffffffffffffffffffffffff907f9996b315000000000000000000000000000000000000000000000000000000005f521660045260245ffd5b50803b15612aeb56fea2646970667358221220db73c7a83853f7125065c30036ad2daf3c1f4621555efd0f62f9f4dd027e63ea64736f6c634300081a0033","linkReferences":{}},"methodIdentifiers":{"TOLLGATE()":"4b74c035","TREASURY()":"2d2c5565","UPGRADE_INTERFACE_VERSION()":"ad3cb1cc","authority()":"bf7e214f","createAgreement(uint256,address,address,address[],bytes)":"3f5d1b6f","disburse(address)":"1c8ce890","getAgreement(uint256)":"4f9f6fe6","getLedgerBalance(address,address)":"d949b844","getTreasuryAddress()":"e0024604","initialize(address)":"c4d66de8","isConsumingScheduledOp()":"8fb36037","previewAgreement(uint256,address,address,address[],bytes)":"29f780e3","proxiableUUID()":"52d1902d","quitAgreement(uint256)":"2182b231","setAuthority(address)":"7a9e5e4b","settleAgreement(uint256,address)":"e5f5677a","upgradeToAndCall(address,bytes)":"4f1ef286"},"storageLayout":{"storage":[{"astId":5181,"contract":"contracts/rightsmanager/RightsAccessAgreement.sol:RightsAccessAgreement","label":"_agreements","offset":0,"slot":"0","type":"t_mapping(t_uint256,t_struct(Agreement)3673_storage)"}],"types":{"t_address":{"encoding":"inplace","label":"address","numberOfBytes":"20"},"t_array(t_address)dyn_storage":{"encoding":"dynamic_array","label":"address[]","numberOfBytes":"32","base":"t_address"},"t_bool":{"encoding":"inplace","label":"bool","numberOfBytes":"1"},"t_bytes_storage":{"encoding":"bytes","label":"bytes","numberOfBytes":"32"},"t_mapping(t_uint256,t_struct(Agreement)3673_storage)":{"encoding":"mapping","key":"t_uint256","label":"mapping(uint256 => struct T.Agreement)","numberOfBytes":"32","value":"t_struct(Agreement)3673_storage"},"t_struct(Agreement)3673_storage":{"encoding":"inplace","label":"struct T.Agreement","numberOfBytes":"288","members":[{"astId":3653,"contract":"contracts/rightsmanager/RightsAccessAgreement.sol:RightsAccessAgreement","label":"active","offset":0,"slot":"0","type":"t_bool"},{"astId":3655,"contract":"contracts/rightsmanager/RightsAccessAgreement.sol:RightsAccessAgreement","label":"broker","offset":1,"slot":"0","type":"t_address"},{"astId":3657,"contract":"contracts/rightsmanager/RightsAccessAgreement.sol:RightsAccessAgreement","label":"currency","offset":0,"slot":"1","type":"t_address"},{"astId":3659,"contract":"contracts/rightsmanager/RightsAccessAgreement.sol:RightsAccessAgreement","label":"initiator","offset":0,"slot":"2","type":"t_address"},{"astId":3661,"contract":"contracts/rightsmanager/RightsAccessAgreement.sol:RightsAccessAgreement","label":"createdAt","offset":0,"slot":"3","type":"t_uint256"},{"astId":3663,"contract":"contracts/rightsmanager/RightsAccessAgreement.sol:RightsAccessAgreement","label":"amount","offset":0,"slot":"4","type":"t_uint256"},{"astId":3665,"contract":"contracts/rightsmanager/RightsAccessAgreement.sol:RightsAccessAgreement","label":"fees","offset":0,"slot":"5","type":"t_uint256"},{"astId":3667,"contract":"contracts/rightsmanager/RightsAccessAgreement.sol:RightsAccessAgreement","label":"available","offset":0,"slot":"6","type":"t_uint256"},{"astId":3670,"contract":"contracts/rightsmanager/RightsAccessAgreement.sol:RightsAccessAgreement","label":"parties","offset":0,"slot":"7","type":"t_array(t_address)dyn_storage"},{"astId":3672,"contract":"contracts/rightsmanager/RightsAccessAgreement.sol:RightsAccessAgreement","label":"payload","offset":0,"slot":"8","type":"t_bytes_storage"}]},"t_uint256":{"encoding":"inplace","label":"uint256","numberOfBytes":"32"}}},"id":55}