{"abi":[{"type":"constructor","inputs":[{"name":"rightPolicyManagerAddress","type":"address","internalType":"address"},{"name":"ownershipAddress","type":"address","internalType":"address"},{"name":"providerAddress","type":"address","internalType":"address"}],"stateMutability":"nonpayable"},{"type":"function","name":"ASSET_OWNERSHIP","inputs":[],"outputs":[{"name":"","type":"address","internalType":"contract IAssetOwnership"}],"stateMutability":"view"},{"type":"function","name":"ATTESTATION_PROVIDER","inputs":[],"outputs":[{"name":"","type":"address","internalType":"contract IAttestationProvider"}],"stateMutability":"view"},{"type":"function","name":"RIGHTS_POLICY_MANAGER","inputs":[],"outputs":[{"name":"","type":"address","internalType":"contract IRightsPolicyManager"}],"stateMutability":"view"},{"type":"function","name":"_isCompliant","inputs":[{"name":"account","type":"address","internalType":"address"},{"name":"holder","type":"address","internalType":"address"}],"outputs":[{"name":"","type":"bool","internalType":"bool"}],"stateMutability":"view"},{"type":"function","name":"description","inputs":[],"outputs":[{"name":"","type":"string","internalType":"string"}],"stateMutability":"pure"},{"type":"function","name":"enforce","inputs":[{"name":"holder","type":"address","internalType":"address"},{"name":"agreement","type":"tuple","internalType":"struct T.Agreement","components":[{"name":"broker","type":"address","internalType":"address"},{"name":"currency","type":"address","internalType":"address"},{"name":"initiator","type":"address","internalType":"address"},{"name":"total","type":"uint256","internalType":"uint256"},{"name":"fees","type":"uint256","internalType":"uint256"},{"name":"parties","type":"address[]","internalType":"address[]"},{"name":"payload","type":"bytes","internalType":"bytes"}]}],"outputs":[{"name":"","type":"uint256[]","internalType":"uint256[]"}],"stateMutability":"nonpayable"},{"type":"function","name":"getAttestationProvider","inputs":[],"outputs":[{"name":"","type":"address","internalType":"address"}],"stateMutability":"view"},{"type":"function","name":"getHolder","inputs":[{"name":"assetId","type":"uint256","internalType":"uint256"}],"outputs":[{"name":"","type":"address","internalType":"address"}],"stateMutability":"view"},{"type":"function","name":"getLicense","inputs":[{"name":"account","type":"address","internalType":"address"},{"name":"criteria","type":"bytes","internalType":"bytes"}],"outputs":[{"name":"","type":"uint256","internalType":"uint256"}],"stateMutability":"view"},{"type":"function","name":"initialize","inputs":[{"name":"holder","type":"address","internalType":"address"},{"name":"init","type":"bytes","internalType":"bytes"}],"outputs":[],"stateMutability":"nonpayable"},{"type":"function","name":"isAccessAllowed","inputs":[{"name":"account","type":"address","internalType":"address"},{"name":"criteria","type":"bytes","internalType":"bytes"}],"outputs":[{"name":"","type":"bool","internalType":"bool"}],"stateMutability":"view"},{"type":"function","name":"isInitialized","inputs":[],"outputs":[{"name":"","type":"bool","internalType":"bool"}],"stateMutability":"view"},{"type":"function","name":"name","inputs":[],"outputs":[{"name":"","type":"string","internalType":"string"}],"stateMutability":"pure"},{"type":"function","name":"resolveTerms","inputs":[{"name":"criteria","type":"bytes","internalType":"bytes"}],"outputs":[{"name":"","type":"tuple","internalType":"struct T.Terms","components":[{"name":"amount","type":"uint256","internalType":"uint256"},{"name":"currency","type":"address","internalType":"address"},{"name":"rateBasis","type":"uint8","internalType":"enum T.RateBasis"},{"name":"uri","type":"string","internalType":"string"}]}],"stateMutability":"view"},{"type":"function","name":"supportsInterface","inputs":[{"name":"interfaceId","type":"bytes4","internalType":"bytes4"}],"outputs":[{"name":"","type":"bool","internalType":"bool"}],"stateMutability":"view"},{"type":"event","name":"AttestedAgreement","inputs":[{"name":"context","type":"bytes32","indexed":true,"internalType":"bytes32"},{"name":"account","type":"address","indexed":true,"internalType":"address"},{"name":"attestationId","type":"uint256","indexed":false,"internalType":"uint256"}],"anonymous":false},{"type":"event","name":"MetricLogged","inputs":[{"name":"metric","type":"string","indexed":true,"internalType":"string"},{"name":"value","type":"uint256","indexed":false,"internalType":"uint256"},{"name":"timestamp","type":"uint256","indexed":false,"internalType":"uint256"},{"name":"context","type":"bytes","indexed":false,"internalType":"bytes"}],"anonymous":false},{"type":"event","name":"SubscriptionEnforced","inputs":[{"name":"holder","type":"address","indexed":true,"internalType":"address"},{"name":"pricePerDay","type":"uint256","indexed":false,"internalType":"uint256"},{"name":"duration","type":"uint256","indexed":false,"internalType":"uint256"}],"anonymous":false},{"type":"error","name":"InvalidAssetHolder","inputs":[]},{"type":"error","name":"InvalidAttestation","inputs":[]},{"type":"error","name":"InvalidEnforcement","inputs":[{"name":"reason","type":"string","internalType":"string"}]},{"type":"error","name":"InvalidInitialization","inputs":[{"name":"reason","type":"string","internalType":"string"}]},{"type":"error","name":"InvalidNotSupportedOperation","inputs":[]},{"type":"error","name":"InvalidPolicyInitialization","inputs":[]},{"type":"error","name":"InvalidUnauthorizedCall","inputs":[{"name":"reason","type":"string","internalType":"string"}]}],"bytecode":{"object":"0x60e0346100cb57601f611b5238819003918201601f19168301916001600160401b038311848410176100cf578084926060946040528339810103126100cb57610047816100e3565b610053602083016100e3565b916001600160a01b0390610069906040016100e3565b166080526001600160a01b0390811660a0521660c052604051611a5a90816100f8823960805181818161049b01528181610d7a015261167e015260a05181818161013d015281816101ee01526108e5015260c05181818160e901526117c60152f35b5f80fd5b634e487b7160e01b5f52604160045260245ffd5b51906001600160a01b03821682036100cb5756fe60806040526004361015610011575f80fd5b5f3560e01c80629e11ff146112b457806301ffc9a71461121357806306fdde03146111b457806319ad44fc1461046f578063392e53cd14611193578063464c0aeb146108905780637284e416146106d5578063a393711114610505578063a5cc2dbb146104bf578063b1b87ffb1461046f578063cfdce1a71461044c578063d1f578941461019d578063e8a96b4614610161578063f1bdc452146101115763f520d4eb146100bd575f80fd5b3461010d575f60031936011261010d57602060405173ffffffffffffffffffffffffffffffffffffffff7f0000000000000000000000000000000000000000000000000000000000000000168152f35b5f80fd5b3461010d575f60031936011261010d57602060405173ffffffffffffffffffffffffffffffffffffffff7f0000000000000000000000000000000000000000000000000000000000000000168152f35b3461010d57602060031936011261010d57602061017f60043561177d565b73ffffffffffffffffffffffffffffffffffffffff60405191168152f35b3461010d576101ab366114ae565b6040517f8ae2ba5900000000000000000000000000000000000000000000000000000000815260208160048173ffffffffffffffffffffffffffffffffffffffff7f0000000000000000000000000000000000000000000000000000000000000000165afa80156104415773ffffffffffffffffffffffffffffffffffffffff915f91610412575b5016330361038e57816040917fffffffffffffffffffffffffffffffffffffffffffffffffffffffffffffff005f54165f558101031261010d5773ffffffffffffffffffffffffffffffffffffffff61029060208335930161132f565b169181156103305773ffffffffffffffffffffffffffffffffffffffff9182600192604051926102bf84611350565b835260208301958652165f52600260205260405f2090518155019151167fffffffffffffffffffffffff000000000000000000000000000000000000000082541617905560017fffffffffffffffffffffffffffffffffffffffffffffffffffffffffffffff005f5416175f555f80f35b60646040517f8e53d58600000000000000000000000000000000000000000000000000000000815260206004820152601b60248201527f496e76616c696420737562736372697074696f6e2070726963652e00000000006044820152fd5b60846040517f2ce89adb00000000000000000000000000000000000000000000000000000000815260206004820152602660248201527f4f6e6c792072696768747320706f6c69637920617574686f72697a657220616c60448201527f6c6f7765642e00000000000000000000000000000000000000000000000000006064820152fd5b610434915060203d60201161043a575b61042c8183611388565b810190611751565b85610233565b503d610422565b6040513d5f823e3d90fd5b3461010d57602061046561045f366114ae565b916116ef565b6040519015158152f35b3461010d575f60031936011261010d57602060405173ffffffffffffffffffffffffffffffffffffffff7f0000000000000000000000000000000000000000000000000000000000000000168152f35b3461010d57604060031936011261010d576104d861130c565b6024359073ffffffffffffffffffffffffffffffffffffffff8216820361010d57602091610465916115d2565b3461010d57602060031936011261010d5760043567ffffffffffffffff811161010d57610536903690600401611480565b6060806040516105458161136c565b5f81525f60208201525f60408201520152610560818361194d565b156106ad57816020918101031261010d5761058f73ffffffffffffffffffffffffffffffffffffffff9161132f565b165f52600260205260405f2060206040516105a981611350565b73ffffffffffffffffffffffffffffffffffffffff60018454948584520154169182910152604051916105db8361136c565b825260208201908152604082016002815273ffffffffffffffffffffffffffffffffffffffff60405192610610604085611388565b600784527f697066733a2f2f0000000000000000000000000000000000000000000000000060208501526060850193845260405194602086525160208601525116604084015251600481101561068057829161067c9160608401525160808084015260a083019061143d565b0390f35b7f4e487b71000000000000000000000000000000000000000000000000000000005f52602160045260245ffd5b7f0ea7889c000000000000000000000000000000000000000000000000000000005f5260045ffd5b3461010d575f60031936011261010d5761067c6101606106f86040519182611388565b61012781527f5468697320706f6c69637920666f6c6c6f77732061207375627363726970746960208201527f6f6e206d6f64656c2077697468206461696c792070726963696e672c20616c6c60408201527f6f77696e6720757365727320746f20616363657373206120636f6e74656e742060608201527f686f6c646572277320636174616c6f6720627920706179696e6720612064616960808201527f6c792066656520666f7220612063686f73656e206475726174696f6e2e0a0a4b60a08201527f65792066656174757265733a0a312920466c657869626c65207375627363726960c08201527f7074696f6e20706572696f64732073657420627920746865206173736574206860e08201527f6f6c6465722e0a322920496e7374616e742061636365737320746f20616c6c206101008201527f636f6e74656e7420647572696e672074686520737562736372697074696f6e206101208201527f706572696f642e0000000000000000000000000000000000000000000000000061014082015260405191829160208352602083019061143d565b3461010d57604060031936011261010d576108a961130c565b60243567ffffffffffffffff811161010d57806004019160e0600319833603011261010d5773ffffffffffffffffffffffffffffffffffffffff7f000000000000000000000000000000000000000000000000000000000000000016330361110f5760ff5f5416156110e75773ffffffffffffffffffffffffffffffffffffffff16805f52600260205260405f20926040519361094585611350565b73ffffffffffffffffffffffffffffffffffffffff60018254928388520154166020860152156110635760648301359360a4840161098381846114ff565b92905051926109ae61099e85610999868b61188c565b61188c565b936109a98686611553565b611553565b8710610fdf57620151808302838104620151801484151715610fb257420195864211610fb2576040519060e0820182811067ffffffffffffffff821117610f85576040526109fb8361132f565b8252610a096024820161132f565b9160208101928352610a1d6044830161132f565b60408201908152606082019a8b52608082019060848401358252863567ffffffffffffffff811161010d5784013660238201121561010d57610a6990369060246004820135910161157e565b9360a0840194855260c481013567ffffffffffffffff811161010d5736910160040190610a95916113c9565b9260c08101938452604051938b602086015260208552610ab6604086611388565b60405196879260208401602090525173ffffffffffffffffffffffffffffffffffffffff1660408401525173ffffffffffffffffffffffffffffffffffffffff166060830152825173ffffffffffffffffffffffffffffffffffffffff1660808301528d5160a0830152835160c0830152855160e0830160e090526101208301610b3f916118c3565b9051908281037fffffffffffffffffffffffffffffffffffffffffffffffffffffffffffffffc001610100840152610b769161143d565b037fffffffffffffffffffffffffffffffffffffffffffffffffffffffffffffffe081018652610ba69086611388565b5173ffffffffffffffffffffffffffffffffffffffff168351946040519586928c602085015260408401523060608401526080830160a0905260c08301610bec916118c3565b8281037fffffffffffffffffffffffffffffffffffffffffffffffffffffffffffffffe00160a0840152610c1f9161143d565b037fffffffffffffffffffffffffffffffffffffffffffffffffffffffffffffffe081018552610c4f9085611388565b8251518260409c8d9282845191610c668684611388565b601883527f706f6c6963795f61677265656d656e745f7061727469657300000000000000006020840152610c99926119c0565b51825192610ca79084611388565b601683527f706f6c6963795f61677265656d656e745f746f74616c000000000000000000006020840152610cda926119c0565b51908a5191610ce98c84611388565b601583527f706f6c6963795f61677265656d656e745f6665657300000000000000000000006020840152610d1c926119c0565b519088519788927f8ca86cad000000000000000000000000000000000000000000000000000000008452600484016060905260648401610d5b916118c3565b906024840152828103600319016044840152610d769161143d565b03867f000000000000000000000000000000000000000000000000000000000000000073ffffffffffffffffffffffffffffffffffffffff1691815a5f948591f1958615610f7b575f96610ee4575b50610dda91610dd3916114ff565b369161157e565b8051905f5b828110610e59578688877fee94b033ef151baf8dc7ef281445b8da1393054811ea821ac65a84956ea1076682898982519182526020820152a28051918291602080840191818552835180935284019201905f5b818110610e40575050500390f35b8251845285945060209384019390920191600101610e32565b80600191897f28978c88cb5e4642b7ad908585d16cc621e1e36b3f7130c942036832fb7b150860208b83518c83820152828152610e968582611388565b610ece610ec573ffffffffffffffffffffffffffffffffffffffff610ebb898d61190c565b511697889461190c565b51928392611812565b94855f528884525f20558d51908152a301610ddf565b9095503d805f833e610ef68183611388565b81019060208183031261010d5780519067ffffffffffffffff821161010d57019080601f8301121561010d578151610f2d81611566565b92610f3a8a519485611388565b81845260208085019260051b82010192831161010d57602001905b828210610f6b575091969150610dda9050610dc5565b8151815260209182019101610f55565b87513d5f823e3d90fd5b7f4e487b71000000000000000000000000000000000000000000000000000000005f52604160045260245ffd5b7f4e487b71000000000000000000000000000000000000000000000000000000005f52601160045260245ffd5b60846040517f66360cb000000000000000000000000000000000000000000000000000000000815260206004820152602360248201527f496e73756666696369656e742066756e647320666f722073756273637269707460448201527f696f6e00000000000000000000000000000000000000000000000000000000006064820152fd5b60846040517f66360cb000000000000000000000000000000000000000000000000000000000815260206004820152602960248201527f496e76616c6964206e6f7420696e697469616c697a656420686f6c646572206360448201527f6f6e646974696f6e7300000000000000000000000000000000000000000000006064820152fd5b7f83403c5c000000000000000000000000000000000000000000000000000000005f5260045ffd5b60846040517f2ce89adb00000000000000000000000000000000000000000000000000000000815260206004820152602360248201527f4f6e6c792072696768747320706f6c696379206d616e6167657220616c6c6f7760448201527f65642e00000000000000000000000000000000000000000000000000000000006064820152fd5b3461010d575f60031936011261010d57602060ff5f54166040519015158152f35b3461010d575f60031936011261010d5761067c6040516111d5604082611388565b601281527f537562736372697074696f6e506f6c6963790000000000000000000000000000602082015260405191829160208352602083019061143d565b3461010d57602060031936011261010d576004357fffffffff00000000000000000000000000000000000000000000000000000000811680910361010d57807f3ea9b6d8000000000000000000000000000000000000000000000000000000006020921490811561128a575b506040519015158152f35b7f01ffc9a7000000000000000000000000000000000000000000000000000000009150148261127f565b3461010d57604060031936011261010d576112cd61130c565b6024359067ffffffffffffffff821161010d576112f16112f69236906004016113c9565b611812565b5f526001602052602060405f2054604051908152f35b6004359073ffffffffffffffffffffffffffffffffffffffff8216820361010d57565b359073ffffffffffffffffffffffffffffffffffffffff8216820361010d57565b6040810190811067ffffffffffffffff821117610f8557604052565b6080810190811067ffffffffffffffff821117610f8557604052565b90601f7fffffffffffffffffffffffffffffffffffffffffffffffffffffffffffffffe0910116810190811067ffffffffffffffff821117610f8557604052565b81601f8201121561010d5780359067ffffffffffffffff8211610f85576040519261141c601f84017fffffffffffffffffffffffffffffffffffffffffffffffffffffffffffffffe01660200185611388565b8284526020838301011161010d57815f926020809301838601378301015290565b907fffffffffffffffffffffffffffffffffffffffffffffffffffffffffffffffe0601f602080948051918291828752018686015e5f8582860101520116010190565b9181601f8401121561010d5782359167ffffffffffffffff831161010d576020838186019501011161010d57565b90604060031983011261010d5760043573ffffffffffffffffffffffffffffffffffffffff8116810361010d57916024359067ffffffffffffffff821161010d576114fb91600401611480565b9091565b9035907fffffffffffffffffffffffffffffffffffffffffffffffffffffffffffffffe18136030182121561010d570180359067ffffffffffffffff821161010d57602001918160051b3603831361010d57565b81810292918115918404141715610fb257565b67ffffffffffffffff8111610f855760051b60200190565b92919061158a81611566565b936115986040519586611388565b602085838152019160051b810192831161010d57905b8282106115ba57505050565b602080916115c78461132f565b8152019101906115ae565b90816116069173ffffffffffffffffffffffffffffffffffffffff60405191166020820152602081526112f1604082611388565b5f52600160205260405f20549081156116e95773ffffffffffffffffffffffffffffffffffffffff90604051927febfa62b9000000000000000000000000000000000000000000000000000000008452600484015216602482015260208160448173ffffffffffffffffffffffffffffffffffffffff7f0000000000000000000000000000000000000000000000000000000000000000165afa908115610441575f916116b1575090565b90506020813d6020116116e1575b816116cc60209383611388565b8101031261010d5751801515810361010d5790565b3d91506116bf565b50505f90565b9091826020916116ff818361194d565b611721578101031261010d5761171861171e923561177d565b906115d2565b90565b8101031261010d5773ffffffffffffffffffffffffffffffffffffffff61174a61171e9361132f565b16906115d2565b9081602091031261010d575173ffffffffffffffffffffffffffffffffffffffff8116810361010d5790565b604051907f6352211e000000000000000000000000000000000000000000000000000000008252600482015260208160248173ffffffffffffffffffffffffffffffffffffffff7f0000000000000000000000000000000000000000000000000000000000000000165afa908115610441575f916117f9575090565b61171e915060203d60201161043a5761042c8183611388565b906118866014602060405180947fffffffffffffffffffffffffffffffffffffffff00000000000000000000000083808401988051918291018a5e83019160601b168382015203017ffffffffffffffffffffffffffffffffffffffffffffffffffffffffffffffff4810184520182611388565b51902090565b8115611896570490565b7f4e487b71000000000000000000000000000000000000000000000000000000005f52601260045260245ffd5b90602080835192838152019201905f5b8181106118e05750505090565b825173ffffffffffffffffffffffffffffffffffffffff168452602093840193909201916001016118d3565b80518210156119205760209160051b010190565b7f4e487b71000000000000000000000000000000000000000000000000000000005f52603260045260245ffd5b602082036106ad578160201161010d577fffffffffffffffffffffffffffffffffffffffff000000000000000000000000600c82013516151591600c1161010d5781611997575090565b7fffffffffffffffffffffffff0000000000000000000000000000000000000000915035161590565b9160207f278481efc8809729c153d269c68a1b1231345dd481471624806c4258498816d19293604051918183925191829101835e81015f815203902092611a1f604051928392835242602084015260606040840152606083019061143d565b0390a256fea2646970667358221220652786a788ae14b614088ea0848903b897ceafa3b72471d14909395a1c30e15264736f6c634300081a0033","linkReferences":{}},"methodIdentifiers":{"ASSET_OWNERSHIP()":"f520d4eb","ATTESTATION_PROVIDER()":"19ad44fc","RIGHTS_POLICY_MANAGER()":"f1bdc452","_isCompliant(address,address)":"a5cc2dbb","description()":"7284e416","enforce(address,(address,address,address,uint256,uint256,address[],bytes))":"464c0aeb","getAttestationProvider()":"b1b87ffb","getHolder(uint256)":"e8a96b46","getLicense(address,bytes)":"009e11ff","initialize(address,bytes)":"d1f57894","isAccessAllowed(address,bytes)":"cfdce1a7","isInitialized()":"392e53cd","name()":"06fdde03","resolveTerms(bytes)":"a3937111","supportsInterface(bytes4)":"01ffc9a7"},"storageLayout":{"storage":[{"astId":45406,"contract":"contracts/policies/SubscriptionPolicy.sol:SubscriptionPolicy","label":"_initialized","offset":0,"slot":"0","type":"t_bool"},{"astId":45411,"contract":"contracts/policies/SubscriptionPolicy.sol:SubscriptionPolicy","label":"_attestations","offset":0,"slot":"1","type":"t_mapping(t_bytes32,t_uint256)"},{"astId":793,"contract":"contracts/policies/SubscriptionPolicy.sol:SubscriptionPolicy","label":"_packages","offset":0,"slot":"2","type":"t_mapping(t_address,t_struct(Package)788_storage)"}],"types":{"t_address":{"encoding":"inplace","label":"address","numberOfBytes":"20"},"t_bool":{"encoding":"inplace","label":"bool","numberOfBytes":"1"},"t_bytes32":{"encoding":"inplace","label":"bytes32","numberOfBytes":"32"},"t_mapping(t_address,t_struct(Package)788_storage)":{"encoding":"mapping","key":"t_address","label":"mapping(address => struct SubscriptionPolicy.Package)","numberOfBytes":"32","value":"t_struct(Package)788_storage"},"t_mapping(t_bytes32,t_uint256)":{"encoding":"mapping","key":"t_bytes32","label":"mapping(bytes32 => uint256)","numberOfBytes":"32","value":"t_uint256"},"t_struct(Package)788_storage":{"encoding":"inplace","label":"struct SubscriptionPolicy.Package","numberOfBytes":"64","members":[{"astId":785,"contract":"contracts/policies/SubscriptionPolicy.sol:SubscriptionPolicy","label":"pricePerDay","offset":0,"slot":"0","type":"t_uint256"},{"astId":787,"contract":"contracts/policies/SubscriptionPolicy.sol:SubscriptionPolicy","label":"currency","offset":0,"slot":"1","type":"t_address"}]},"t_uint256":{"encoding":"inplace","label":"uint256","numberOfBytes":"32"}}},"id":4}