{"abi":[{"type":"constructor","inputs":[{"name":"rightPolicyManagerAddress","type":"address","internalType":"address"},{"name":"ownershipAddress","type":"address","internalType":"address"},{"name":"providerAddress","type":"address","internalType":"address"}],"stateMutability":"nonpayable"},{"type":"function","name":"ASSET_OWNERSHIP","inputs":[],"outputs":[{"name":"","type":"address","internalType":"contract IAssetOwnership"}],"stateMutability":"view"},{"type":"function","name":"ATTESTATION_PROVIDER","inputs":[],"outputs":[{"name":"","type":"address","internalType":"contract IAttestationProvider"}],"stateMutability":"view"},{"type":"function","name":"RIGHTS_POLICY_MANAGER","inputs":[],"outputs":[{"name":"","type":"address","internalType":"contract IRightsPolicyManager"}],"stateMutability":"view"},{"type":"function","name":"attestations","inputs":[{"name":"","type":"address","internalType":"address"},{"name":"","type":"address","internalType":"address"}],"outputs":[{"name":"","type":"uint256","internalType":"uint256"}],"stateMutability":"view"},{"type":"function","name":"description","inputs":[],"outputs":[{"name":"","type":"string","internalType":"string"}],"stateMutability":"pure"},{"type":"function","name":"enforce","inputs":[{"name":"holder","type":"address","internalType":"address"},{"name":"agreement","type":"tuple","internalType":"struct T.Agreement","components":[{"name":"active","type":"bool","internalType":"bool"},{"name":"broker","type":"address","internalType":"address"},{"name":"currency","type":"address","internalType":"address"},{"name":"initiator","type":"address","internalType":"address"},{"name":"createdAt","type":"uint256","internalType":"uint256"},{"name":"amount","type":"uint256","internalType":"uint256"},{"name":"fees","type":"uint256","internalType":"uint256"},{"name":"available","type":"uint256","internalType":"uint256"},{"name":"parties","type":"address[]","internalType":"address[]"},{"name":"payload","type":"bytes","internalType":"bytes"}]}],"outputs":[{"name":"","type":"uint256","internalType":"uint256"}],"stateMutability":"nonpayable"},{"type":"function","name":"getAttestation","inputs":[{"name":"recipient","type":"address","internalType":"address"},{"name":"holder","type":"address","internalType":"address"}],"outputs":[{"name":"","type":"uint256","internalType":"uint256"}],"stateMutability":"view"},{"type":"function","name":"getAttestationProvider","inputs":[],"outputs":[{"name":"","type":"address","internalType":"address"}],"stateMutability":"view"},{"type":"function","name":"getHolder","inputs":[{"name":"assetId","type":"uint256","internalType":"uint256"}],"outputs":[{"name":"","type":"address","internalType":"address"}],"stateMutability":"view"},{"type":"function","name":"initialize","inputs":[{"name":"holder","type":"address","internalType":"address"},{"name":"init","type":"bytes","internalType":"bytes"}],"outputs":[],"stateMutability":"nonpayable"},{"type":"function","name":"isAccessAllowed","inputs":[{"name":"account","type":"address","internalType":"address"},{"name":"holder","type":"address","internalType":"address"}],"outputs":[{"name":"","type":"bool","internalType":"bool"}],"stateMutability":"view"},{"type":"function","name":"isAccessAllowed","inputs":[{"name":"account","type":"address","internalType":"address"},{"name":"assetId","type":"uint256","internalType":"uint256"}],"outputs":[{"name":"","type":"bool","internalType":"bool"}],"stateMutability":"view"},{"type":"function","name":"isCompliant","inputs":[{"name":"account","type":"address","internalType":"address"},{"name":"holder","type":"address","internalType":"address"}],"outputs":[{"name":"","type":"bool","internalType":"bool"}],"stateMutability":"view"},{"type":"function","name":"isInitialized","inputs":[],"outputs":[{"name":"","type":"bool","internalType":"bool"}],"stateMutability":"view"},{"type":"function","name":"name","inputs":[],"outputs":[{"name":"","type":"string","internalType":"string"}],"stateMutability":"pure"},{"type":"function","name":"resolveTerms","inputs":[{"name":"holder","type":"address","internalType":"address"}],"outputs":[{"name":"","type":"tuple","internalType":"struct T.Terms","components":[{"name":"amount","type":"uint256","internalType":"uint256"},{"name":"currency","type":"address","internalType":"address"},{"name":"rateBasis","type":"uint8","internalType":"enum T.RateBasis"},{"name":"uri","type":"string","internalType":"string"}]}],"stateMutability":"view"},{"type":"function","name":"resolveTerms","inputs":[{"name":"","type":"uint256","internalType":"uint256"}],"outputs":[{"name":"","type":"tuple","internalType":"struct T.Terms","components":[{"name":"amount","type":"uint256","internalType":"uint256"},{"name":"currency","type":"address","internalType":"address"},{"name":"rateBasis","type":"uint8","internalType":"enum T.RateBasis"},{"name":"uri","type":"string","internalType":"string"}]}],"stateMutability":"view"},{"type":"function","name":"supportsInterface","inputs":[{"name":"interfaceId","type":"bytes4","internalType":"bytes4"}],"outputs":[{"name":"","type":"bool","internalType":"bool"}],"stateMutability":"view"},{"type":"event","name":"AccessGranted","inputs":[{"name":"holder","type":"address","indexed":true,"internalType":"address"},{"name":"account","type":"address","indexed":true,"internalType":"address"},{"name":"attestationId","type":"uint256","indexed":false,"internalType":"uint256"}],"anonymous":false},{"type":"error","name":"InvalidAssetHolder","inputs":[]},{"type":"error","name":"InvalidAttestation","inputs":[]},{"type":"error","name":"InvalidEnforcement","inputs":[{"name":"reason","type":"string","internalType":"string"}]},{"type":"error","name":"InvalidInitialization","inputs":[{"name":"reason","type":"string","internalType":"string"}]},{"type":"error","name":"InvalidNotSupportedOperation","inputs":[]},{"type":"error","name":"InvalidPolicyInitialization","inputs":[]},{"type":"error","name":"InvalidUnauthorizedCall","inputs":[{"name":"reason","type":"string","internalType":"string"}]},{"type":"error","name":"ReentrancyGuardReentrantCall","inputs":[]}],"bytecode":{"object":"0x60e0346100c857601f61175d38819003918201601f19168301916001600160401b038311848410176100cc578084926060946040528339810103126100c857610047816100e0565b61005f6040610058602085016100e0565b93016100e0565b60015f556001600160a01b0390811660805290811660a0521660c05260405161166890816100f58239608051818181610a3b01528181610d43015261149f015260a0518181816101620152818161031001526105cb015260c05181818161010e01526115590152f35b5f80fd5b634e487b7160e01b5f52604160045260245ffd5b51906001600160a01b03821682036100c85756fe6080806040526004361015610012575f80fd5b5f3560e01c90816301ffc9a71461113157508063028dd4251461018657806306fdde03146110d257806319ad44fc14610d17578063392e53cd146110b05780633c6a5ee314610f5f5780637284e41614610da057806396ba154d14610230578063ac3e8fb014610d67578063b1b87ffb14610d17578063c43e04c014610574578063d1f5789414610277578063dccc792f14610235578063dd4fcc3f14610230578063e8a96b46146101f4578063e8d55ccf14610186578063f1bdc452146101365763f520d4eb146100e2575f80fd5b34610132575f60031936011261013257602060405173ffffffffffffffffffffffffffffffffffffffff7f0000000000000000000000000000000000000000000000000000000000000000168152f35b5f80fd5b34610132575f60031936011261013257602060405173ffffffffffffffffffffffffffffffffffffffff7f0000000000000000000000000000000000000000000000000000000000000000168152f35b346101325760406003193601126101325761019f6111cf565b73ffffffffffffffffffffffffffffffffffffffff6101bc6111f2565b91165f52600260205273ffffffffffffffffffffffffffffffffffffffff60405f2091165f52602052602060405f2054604051908152f35b34610132576020600319360112610132576020610212600435611510565b73ffffffffffffffffffffffffffffffffffffffff60405191168152f35b611279565b346101325760206003193601126101325761024e611318565b507f0ea7889c000000000000000000000000000000000000000000000000000000005f5260045ffd5b34610132576040600319360112610132576102906111cf565b60243567ffffffffffffffff8111610132573660238201121561013257806004013567ffffffffffffffff8111610132578101366024820111610132576040517f8ae2ba5900000000000000000000000000000000000000000000000000000000815260208160048173ffffffffffffffffffffffffffffffffffffffff7f0000000000000000000000000000000000000000000000000000000000000000165afa80156105695773ffffffffffffffffffffffffffffffffffffffff915f9161053a575b501633036104b657600180547fffffffffffffffffffffffffffffffffffffffffffffffffffffffffffffff001690556040908290031261013257604460248201359101359173ffffffffffffffffffffffffffffffffffffffff83168093036101325781156104585773ffffffffffffffffffffffffffffffffffffffff9182600192604051926103e68461129f565b835260208301958652165f52600360205260405f2090518155019151167fffffffffffffffffffffffff000000000000000000000000000000000000000082541617905560017fffffffffffffffffffffffffffffffffffffffffffffffffffffffffffffff00815416176001555f80f35b60646040517f8e53d58600000000000000000000000000000000000000000000000000000000815260206004820152601b60248201527f496e76616c696420737562736372697074696f6e2070726963652e00000000006044820152fd5b60846040517f2ce89adb00000000000000000000000000000000000000000000000000000000815260206004820152602660248201527f4f6e6c792072696768747320706f6c69637920617574686f72697a657220616c60448201527f6c6f7765642e00000000000000000000000000000000000000000000000000006064820152fd5b61055c915060203d602011610562575b61055481836112d7565b8101906113da565b85610355565b503d61054a565b6040513d5f823e3d90fd5b346101325760406003193601126101325761058d6111cf565b6024359067ffffffffffffffff821161013257816004019061014060031984360301126101325773ffffffffffffffffffffffffffffffffffffffff7f0000000000000000000000000000000000000000000000000000000000000000163303610c935760ff6001541615610c6b5773ffffffffffffffffffffffffffffffffffffffff1691825f52600360205260405f2073ffffffffffffffffffffffffffffffffffffffff6001604051926106438461129f565b80548452015416602082015260a48201359261010483019161069b610689610681610679610671878761133c565b905089611390565b845190611390565b9251836113c7565b610693858561133c565b9190506113c7565b8510610be75762015180810290808204620151801490151715610bba57420191824211610bba5760405191610140830183811067ffffffffffffffff821117610b75576040523580151581036101325782526106f960248501611215565b906020830191825261070d60448601611215565b906040840191825261072160648701611215565b966060850197885260808501906084880135825260a0860190815260c086019160c4890135835260e087019360e48a013585523567ffffffffffffffff8111610132578901983660238b0112156101325760048a01359967ffffffffffffffff8b11610b75578a60051b60206004816040519e8f906107a2838701836112d7565b81520192840101019136831161013257602401905b828210610ba2575050506101008801998a526101248101359067ffffffffffffffff82116101325701993660238c0112156101325760048b01359567ffffffffffffffff8711610b755760405196610837601f82017fffffffffffffffffffffffffffffffffffffffffffffffffffffffffffffffe016602001896112d7565b8088523660248e83010111610132578060248f9e9f9b9a999897969594939f01602089013786016020015f90526101208801958652805173ffffffffffffffffffffffffffffffffffffffff169c8b516040519e8f9b60208d015260408c01523060608c015260808b0160a0905260c08b016108b2916115a8565b978a89037fffffffffffffffffffffffffffffffffffffffffffffffffffffffffffffffe00160a08c015261014089019951151589525173ffffffffffffffffffffffffffffffffffffffff1660208901525173ffffffffffffffffffffffffffffffffffffffff1660408801525173ffffffffffffffffffffffffffffffffffffffff1660608701525160808601525160a08501525160c08401525160e0830152855192610100830161014090528351809152610160830193602001905f5b818110610b46575050509261099c602095936109c893610a0a965190610120818403910152611236565b037fffffffffffffffffffffffffffffffffffffffffffffffffffffffffffffffe081018852876112d7565b610a2184519160405197889485947f8ca86cad0000000000000000000000000000000000000000000000000000000086526060600487015260648601906115a8565b916024850152600319848303016044850152611236565b03815f73ffffffffffffffffffffffffffffffffffffffff7f0000000000000000000000000000000000000000000000000000000000000000165af1928315610569575f93610b12575b5051908151915f5b838110610a8557602085604051908152f35b8073ffffffffffffffffffffffffffffffffffffffff610aa7600193856115f1565b51165f52600260205260405f20845f526020528560405f205573ffffffffffffffffffffffffffffffffffffffff610adf82856115f1565b5116847f65d0cc1e52d49938ca4ad9f423c79c1b84d914b9a683fbc5d3f93ac3cc5635f560206040518a8152a301610a73565b9092506020813d602011610b3e575b81610b2e602093836112d7565b8101031261013257519183610a6b565b3d9150610b21565b825173ffffffffffffffffffffffffffffffffffffffff1686528a965060209586019590920191600101610972565b7f4e487b71000000000000000000000000000000000000000000000000000000005f52604160045260245ffd5b60208091610baf84611215565b8152019101906107b7565b7f4e487b71000000000000000000000000000000000000000000000000000000005f52601160045260245ffd5b60846040517f66360cb000000000000000000000000000000000000000000000000000000000815260206004820152602360248201527f496e73756666696369656e742066756e647320666f722073756273637269707460448201527f696f6e00000000000000000000000000000000000000000000000000000000006064820152fd5b7f83403c5c000000000000000000000000000000000000000000000000000000005f5260045ffd5b60846040517f2ce89adb00000000000000000000000000000000000000000000000000000000815260206004820152602360248201527f4f6e6c792072696768747320706f6c696379206d616e6167657220616c6c6f7760448201527f65642e00000000000000000000000000000000000000000000000000000000006064820152fd5b34610132575f60031936011261013257602060405173ffffffffffffffffffffffffffffffffffffffff7f0000000000000000000000000000000000000000000000000000000000000000168152f35b34610132576040600319360112610132576020610d96610d856111cf565b610d90602435611510565b90611406565b6040519015158152f35b34610132575f60031936011261013257610f5b610160610dc360405191826112d7565b61012781527f5468697320706f6c69637920666f6c6c6f77732061207375627363726970746960208201527f6f6e206d6f64656c2077697468206461696c792070726963696e672c20616c6c60408201527f6f77696e6720757365727320746f20616363657373206120636f6e74656e742060608201527f686f6c646572277320636174616c6f6720627920706179696e6720612064616960808201527f6c792066656520666f7220612063686f73656e206475726174696f6e2e0a0a4b60a08201527f65792066656174757265733a0a312920466c657869626c65207375627363726960c08201527f7074696f6e20706572696f64732073657420627920746865206173736574206860e08201527f6f6c6465722e0a322920496e7374616e742061636365737320746f20616c6c206101008201527f636f6e74656e7420647572696e672074686520737562736372697074696f6e206101208201527f706572696f642e00000000000000000000000000000000000000000000000000610140820152604051918291602083526020830190611236565b0390f35b346101325760206003193601126101325773ffffffffffffffffffffffffffffffffffffffff610f8d6111cf565b610f95611318565b50165f52600360205260405f206020604051610fb08161129f565b73ffffffffffffffffffffffffffffffffffffffff6001845494858452015416918291015260405191610fe2836112bb565b825260208201908152604082016002815273ffffffffffffffffffffffffffffffffffffffff604051926110176040856112d7565b600784527f697066733a2f2f00000000000000000000000000000000000000000000000000602085015260608501938452604051946020865251602086015251166040840152516004811015611083578291610f5b9160608401525160808084015260a0830190611236565b7f4e487b71000000000000000000000000000000000000000000000000000000005f52602160045260245ffd5b34610132575f60031936011261013257602060ff600154166040519015158152f35b34610132575f60031936011261013257610f5b6040516110f36040826112d7565b601281527f537562736372697074696f6e506f6c69637900000000000000000000000000006020820152604051918291602083526020830190611236565b3461013257602060031936011261013257600435907fffffffff00000000000000000000000000000000000000000000000000000000821680920361013257817f7447cd0900000000000000000000000000000000000000000000000000000000602093149081156111a5575b5015158152f35b7f01ffc9a7000000000000000000000000000000000000000000000000000000009150148361119e565b6004359073ffffffffffffffffffffffffffffffffffffffff8216820361013257565b6024359073ffffffffffffffffffffffffffffffffffffffff8216820361013257565b359073ffffffffffffffffffffffffffffffffffffffff8216820361013257565b907fffffffffffffffffffffffffffffffffffffffffffffffffffffffffffffffe0601f602080948051918291828752018686015e5f8582860101520116010190565b34610132576040600319360112610132576020610d966112976111cf565b610d906111f2565b6040810190811067ffffffffffffffff821117610b7557604052565b6080810190811067ffffffffffffffff821117610b7557604052565b90601f7fffffffffffffffffffffffffffffffffffffffffffffffffffffffffffffffe0910116810190811067ffffffffffffffff821117610b7557604052565b60405190611325826112bb565b606080835f81525f60208201525f60408201520152565b9035907fffffffffffffffffffffffffffffffffffffffffffffffffffffffffffffffe181360301821215610132570180359067ffffffffffffffff821161013257602001918160051b3603831361013257565b811561139a570490565b7f4e487b71000000000000000000000000000000000000000000000000000000005f52601260045260245ffd5b81810292918115918404141715610bba57565b90816020910312610132575173ffffffffffffffffffffffffffffffffffffffff811681036101325790565b73ffffffffffffffffffffffffffffffffffffffff1690815f52600260205273ffffffffffffffffffffffffffffffffffffffff60405f2091165f5260205260405f205490811561150a57604051917febfa62b90000000000000000000000000000000000000000000000000000000083526004830152602482015260208160448173ffffffffffffffffffffffffffffffffffffffff7f0000000000000000000000000000000000000000000000000000000000000000165afa908115610569575f916114d2575090565b90506020813d602011611502575b816114ed602093836112d7565b81010312610132575180151581036101325790565b3d91506114e0565b50505f90565b604051907f6352211e000000000000000000000000000000000000000000000000000000008252600482015260208160248173ffffffffffffffffffffffffffffffffffffffff7f0000000000000000000000000000000000000000000000000000000000000000165afa908115610569575f9161158c575090565b6115a5915060203d6020116105625761055481836112d7565b90565b90602080835192838152019201905f5b8181106115c55750505090565b825173ffffffffffffffffffffffffffffffffffffffff168452602093840193909201916001016115b8565b80518210156116055760209160051b010190565b7f4e487b71000000000000000000000000000000000000000000000000000000005f52603260045260245ffdfea26469706673582212208f1c6a887ed50750b5a562b3d64e9a43ecfced0370832a710c49c53efac2bd6164736f6c634300081a0033","linkReferences":{}},"methodIdentifiers":{"ASSET_OWNERSHIP()":"f520d4eb","ATTESTATION_PROVIDER()":"19ad44fc","RIGHTS_POLICY_MANAGER()":"f1bdc452","attestations(address,address)":"028dd425","description()":"7284e416","enforce(address,(bool,address,address,address,uint256,uint256,uint256,uint256,address[],bytes))":"c43e04c0","getAttestation(address,address)":"e8d55ccf","getAttestationProvider()":"b1b87ffb","getHolder(uint256)":"e8a96b46","initialize(address,bytes)":"d1f57894","isAccessAllowed(address,address)":"96ba154d","isAccessAllowed(address,uint256)":"ac3e8fb0","isCompliant(address,address)":"dd4fcc3f","isInitialized()":"392e53cd","name()":"06fdde03","resolveTerms(address)":"3c6a5ee3","resolveTerms(uint256)":"dccc792f","supportsInterface(bytes4)":"01ffc9a7"},"storageLayout":{"storage":[{"astId":43338,"contract":"contracts/policies/access/SubscriptionPolicy.sol:SubscriptionPolicy","label":"_status","offset":0,"slot":"0","type":"t_uint256"},{"astId":2631,"contract":"contracts/policies/access/SubscriptionPolicy.sol:SubscriptionPolicy","label":"_initialized","offset":0,"slot":"1","type":"t_bool"},{"astId":2638,"contract":"contracts/policies/access/SubscriptionPolicy.sol:SubscriptionPolicy","label":"attestations","offset":0,"slot":"2","type":"t_mapping(t_address,t_mapping(t_address,t_uint256))"},{"astId":3254,"contract":"contracts/policies/access/SubscriptionPolicy.sol:SubscriptionPolicy","label":"_packages","offset":0,"slot":"3","type":"t_mapping(t_address,t_struct(Package)3249_storage)"}],"types":{"t_address":{"encoding":"inplace","label":"address","numberOfBytes":"20"},"t_bool":{"encoding":"inplace","label":"bool","numberOfBytes":"1"},"t_mapping(t_address,t_mapping(t_address,t_uint256))":{"encoding":"mapping","key":"t_address","label":"mapping(address => mapping(address => uint256))","numberOfBytes":"32","value":"t_mapping(t_address,t_uint256)"},"t_mapping(t_address,t_struct(Package)3249_storage)":{"encoding":"mapping","key":"t_address","label":"mapping(address => struct SubscriptionPolicy.Package)","numberOfBytes":"32","value":"t_struct(Package)3249_storage"},"t_mapping(t_address,t_uint256)":{"encoding":"mapping","key":"t_address","label":"mapping(address => uint256)","numberOfBytes":"32","value":"t_uint256"},"t_struct(Package)3249_storage":{"encoding":"inplace","label":"struct SubscriptionPolicy.Package","numberOfBytes":"64","members":[{"astId":3246,"contract":"contracts/policies/access/SubscriptionPolicy.sol:SubscriptionPolicy","label":"pricePerDay","offset":0,"slot":"0","type":"t_uint256"},{"astId":3248,"contract":"contracts/policies/access/SubscriptionPolicy.sol:SubscriptionPolicy","label":"currency","offset":0,"slot":"1","type":"t_address"}]},"t_uint256":{"encoding":"inplace","label":"uint256","numberOfBytes":"32"}}},"id":36}