{"abi":[{"type":"constructor","inputs":[{"name":"rightPolicyManagerAddress","type":"address","internalType":"address"},{"name":"ownershipAddress","type":"address","internalType":"address"},{"name":"providerAddress","type":"address","internalType":"address"}],"stateMutability":"nonpayable"},{"type":"function","name":"ASSET_OWNERSHIP","inputs":[],"outputs":[{"name":"","type":"address","internalType":"contract IAssetOwnership"}],"stateMutability":"view"},{"type":"function","name":"ATTESTATION_PROVIDER","inputs":[],"outputs":[{"name":"","type":"address","internalType":"contract IAttestationProvider"}],"stateMutability":"view"},{"type":"function","name":"RIGHTS_POLICY_MANAGER","inputs":[],"outputs":[{"name":"","type":"address","internalType":"contract IRightsPolicyManager"}],"stateMutability":"view"},{"type":"function","name":"description","inputs":[],"outputs":[{"name":"","type":"string","internalType":"string"}],"stateMutability":"pure"},{"type":"function","name":"enforce","inputs":[{"name":"holder","type":"address","internalType":"address"},{"name":"agreement","type":"tuple","internalType":"struct T.Agreement","components":[{"name":"broker","type":"address","internalType":"address"},{"name":"currency","type":"address","internalType":"address"},{"name":"initiator","type":"address","internalType":"address"},{"name":"total","type":"uint256","internalType":"uint256"},{"name":"fees","type":"uint256","internalType":"uint256"},{"name":"parties","type":"address[]","internalType":"address[]"},{"name":"payload","type":"bytes","internalType":"bytes"}]}],"outputs":[{"name":"","type":"uint256[]","internalType":"uint256[]"}],"stateMutability":"nonpayable"},{"type":"function","name":"getAttestation","inputs":[{"name":"recipient","type":"address","internalType":"address"},{"name":"holder","type":"address","internalType":"address"}],"outputs":[{"name":"","type":"uint256","internalType":"uint256"}],"stateMutability":"view"},{"type":"function","name":"getAttestationProvider","inputs":[],"outputs":[{"name":"","type":"address","internalType":"address"}],"stateMutability":"view"},{"type":"function","name":"getHolder","inputs":[{"name":"assetId","type":"uint256","internalType":"uint256"}],"outputs":[{"name":"","type":"address","internalType":"address"}],"stateMutability":"view"},{"type":"function","name":"initialize","inputs":[{"name":"holder","type":"address","internalType":"address"},{"name":"init","type":"bytes","internalType":"bytes"}],"outputs":[],"stateMutability":"nonpayable"},{"type":"function","name":"isAccessAllowed","inputs":[{"name":"account","type":"address","internalType":"address"},{"name":"criteria","type":"bytes","internalType":"bytes"}],"outputs":[{"name":"","type":"bool","internalType":"bool"}],"stateMutability":"view"},{"type":"function","name":"isCompliant","inputs":[{"name":"account","type":"address","internalType":"address"},{"name":"holder","type":"address","internalType":"address"}],"outputs":[{"name":"","type":"bool","internalType":"bool"}],"stateMutability":"view"},{"type":"function","name":"isInitialized","inputs":[],"outputs":[{"name":"","type":"bool","internalType":"bool"}],"stateMutability":"view"},{"type":"function","name":"name","inputs":[],"outputs":[{"name":"","type":"string","internalType":"string"}],"stateMutability":"pure"},{"type":"function","name":"resolveTerms","inputs":[{"name":"criteria","type":"bytes","internalType":"bytes"}],"outputs":[{"name":"","type":"tuple","internalType":"struct T.Terms","components":[{"name":"amount","type":"uint256","internalType":"uint256"},{"name":"currency","type":"address","internalType":"address"},{"name":"rateBasis","type":"uint8","internalType":"enum T.RateBasis"},{"name":"uri","type":"string","internalType":"string"}]}],"stateMutability":"view"},{"type":"function","name":"supportsInterface","inputs":[{"name":"interfaceId","type":"bytes4","internalType":"bytes4"}],"outputs":[{"name":"","type":"bool","internalType":"bool"}],"stateMutability":"view"},{"type":"event","name":"AttestedAgreement","inputs":[{"name":"holder","type":"address","indexed":true,"internalType":"address"},{"name":"account","type":"address","indexed":true,"internalType":"address"},{"name":"attestationId","type":"uint256","indexed":false,"internalType":"uint256"}],"anonymous":false},{"type":"error","name":"InvalidAssetHolder","inputs":[]},{"type":"error","name":"InvalidAttestation","inputs":[]},{"type":"error","name":"InvalidEnforcement","inputs":[{"name":"reason","type":"string","internalType":"string"}]},{"type":"error","name":"InvalidInitialization","inputs":[{"name":"reason","type":"string","internalType":"string"}]},{"type":"error","name":"InvalidNotSupportedOperation","inputs":[]},{"type":"error","name":"InvalidPolicyInitialization","inputs":[]},{"type":"error","name":"InvalidUnauthorizedCall","inputs":[{"name":"reason","type":"string","internalType":"string"}]},{"type":"error","name":"ReentrancyGuardReentrantCall","inputs":[]}],"bytecode":{"object":"0x60e0346100c757601f61192f38819003918201601f19168301916001600160401b038311848410176100cb578084926060946040528339810103126100c757610047816100df565b61005f6040610058602085016100df565b93016100df565b60015f556001600160a01b0390811660805290811660a0521660c05260405161183b90816100f4823960805181818161053c01528181610dc401526115cb015260a05181818161014101528181610296015261093e015260c05181818160ed01526116850152f35b5f80fd5b634e487b7160e01b5f52604160045260245ffd5b51906001600160a01b03821682036100c75756fe6080806040526004361015610012575f80fd5b5f3560e01c90816301ffc9a71461123f5750806306fdde03146111e057806319ad44fc14610510578063392e53cd146111be578063464c0aeb146108eb5780637284e41614610730578063a393711114610560578063b1b87ffb14610510578063cfdce1a7146104f7578063d1f5789414610245578063dd4fcc3f1461020f578063e8a96b46146101d3578063e8d55ccf14610165578063f1bdc452146101155763f520d4eb146100c1575f80fd5b34610111575f60031936011261011157602060405173ffffffffffffffffffffffffffffffffffffffff7f0000000000000000000000000000000000000000000000000000000000000000168152f35b5f80fd5b34610111575f60031936011261011157602060405173ffffffffffffffffffffffffffffffffffffffff7f0000000000000000000000000000000000000000000000000000000000000000168152f35b346101115760406003193601126101115761017e611320565b73ffffffffffffffffffffffffffffffffffffffff61019b611343565b91165f52600260205273ffffffffffffffffffffffffffffffffffffffff60405f2091165f52602052602060405f2054604051908152f35b346101115760206003193601126101115760206101f160043561163c565b73ffffffffffffffffffffffffffffffffffffffff60405191168152f35b3461011157604060031936011261011157602061023b61022d611320565b610235611343565b90611532565b6040519015158152f35b3461011157610253366113b5565b6040517f8ae2ba5900000000000000000000000000000000000000000000000000000000815260208160048173ffffffffffffffffffffffffffffffffffffffff7f0000000000000000000000000000000000000000000000000000000000000000165afa80156104ec5773ffffffffffffffffffffffffffffffffffffffff915f916104bd575b5016330361043957816040917fffffffffffffffffffffffffffffffffffffffffffffffffffffffffffffff0060015416600155810103126101115773ffffffffffffffffffffffffffffffffffffffff61033a602083359301611366565b169181156103db5773ffffffffffffffffffffffffffffffffffffffff91826001926040519261036984611406565b835260208301958652165f52600360205260405f2090518155019151167fffffffffffffffffffffffff000000000000000000000000000000000000000082541617905560017fffffffffffffffffffffffffffffffffffffffffffffffffffffffffffffff00815416176001555f80f35b60646040517f8e53d58600000000000000000000000000000000000000000000000000000000815260206004820152601b60248201527f496e76616c696420737562736372697074696f6e2070726963652e00000000006044820152fd5b60846040517f2ce89adb00000000000000000000000000000000000000000000000000000000815260206004820152602660248201527f4f6e6c792072696768747320706f6c69637920617574686f72697a657220616c60448201527f6c6f7765642e00000000000000000000000000000000000000000000000000006064820152fd5b6104df915060203d6020116104e5575b6104d7818361143e565b810190611506565b856102db565b503d6104cd565b6040513d5f823e3d90fd5b3461011157602061023b61050a366113b5565b916114aa565b34610111575f60031936011261011157602060405173ffffffffffffffffffffffffffffffffffffffff7f0000000000000000000000000000000000000000000000000000000000000000168152f35b346101115760206003193601126101115760043567ffffffffffffffff811161011157610591903690600401611387565b6060806040516105a081611422565b5f81525f60208201525f604082015201526105bb8183611751565b15610708578160209181010312610111576105ea73ffffffffffffffffffffffffffffffffffffffff91611366565b165f52600360205260405f20602060405161060481611406565b73ffffffffffffffffffffffffffffffffffffffff600184549485845201541691829101526040519161063683611422565b825260208201908152604082016002815273ffffffffffffffffffffffffffffffffffffffff6040519261066b60408561143e565b600784527f697066733a2f2f000000000000000000000000000000000000000000000000006020850152606085019384526040519460208652516020860152511660408401525160048110156106db5782916106d79160608401525160808084015260a08301906112dd565b0390f35b7f4e487b71000000000000000000000000000000000000000000000000000000005f52602160045260245ffd5b7f0ea7889c000000000000000000000000000000000000000000000000000000005f5260045ffd5b34610111575f600319360112610111576106d7610160610753604051918261143e565b61012781527f5468697320706f6c69637920666f6c6c6f77732061207375627363726970746960208201527f6f6e206d6f64656c2077697468206461696c792070726963696e672c20616c6c60408201527f6f77696e6720757365727320746f20616363657373206120636f6e74656e742060608201527f686f6c646572277320636174616c6f6720627920706179696e6720612064616960808201527f6c792066656520666f7220612063686f73656e206475726174696f6e2e0a0a4b60a08201527f65792066656174757265733a0a312920466c657869626c65207375627363726960c08201527f7074696f6e20706572696f64732073657420627920746865206173736574206860e08201527f6f6c6465722e0a322920496e7374616e742061636365737320746f20616c6c206101008201527f636f6e74656e7420647572696e672074686520737562736372697074696f6e206101208201527f706572696f642e000000000000000000000000000000000000000000000000006101408201526040519182916020835260208301906112dd565b3461011157604060031936011261011157610904611320565b6024359067ffffffffffffffff8211610111578136039060e06003198301126101115773ffffffffffffffffffffffffffffffffffffffff7f000000000000000000000000000000000000000000000000000000000000000016330361113a5760ff60015416156111125773ffffffffffffffffffffffffffffffffffffffff1690815f52600360205260405f2090604051916109a083611406565b73ffffffffffffffffffffffffffffffffffffffff600182549283865201541660208401521561108e576064840135917fffffffffffffffffffffffffffffffffffffffffffffffffffffffffffffffdd60a48601359201821215610111578185019160048301359367ffffffffffffffff85116101115760248401918560051b9384360384136101115751610a5287610a4d610a4684610a4184896116d1565b6116d1565b938461147f565b61147f565b831061100a5762015180810290808204620151801490151715610fdd57420197884211610fdd576040519360e0850185811067ffffffffffffffff821117610f9857604052610aa382600401611366565b8552610ab160248301611366565b9660208601978852610ac560448401611366565b96604087019788526060870195865267ffffffffffffffff608088019560848601358752116101115736602383011215610111576004602091610b078c611492565b9b610b156040519d8e61143e565b8c52828c01930101019136831161011157905b828210610fc55750505060a0840196875260c48101359067ffffffffffffffff82116101115701913660238401121561011157600483013567ffffffffffffffff8111610f985760405193610ba5601f83017fffffffffffffffffffffffffffffffffffffffffffffffffffffffffffffffe0166020018661143e565b8185523660248284010111610111576024829101602086013783016020015f905260c0840192835260405195869460208601602090525173ffffffffffffffffffffffffffffffffffffffff1660408601525173ffffffffffffffffffffffffffffffffffffffff166060850152845173ffffffffffffffffffffffffffffffffffffffff1660808501525160a08401525160c0830152845160e0830160e090526101208301610c5491611708565b9051908281037fffffffffffffffffffffffffffffffffffffffffffffffffffffffffffffffc001610100840152610c8b916112dd565b037fffffffffffffffffffffffffffffffffffffffffffffffffffffffffffffffe081018352610cbb908361143e565b5173ffffffffffffffffffffffffffffffffffffffff1682519160405192839286602085015260408401523060608401526080830160a0905260c08301610d0191611708565b8281037fffffffffffffffffffffffffffffffffffffffffffffffffffffffffffffffe00160a0840152610d34916112dd565b037fffffffffffffffffffffffffffffffffffffffffffffffffffffffffffffffe081018252610d64908261143e565b8151906040519485927f8ca86cad000000000000000000000000000000000000000000000000000000008452600484016060905260648401610da591611708565b906024840152828103600319016044840152610dc0916112dd565b03837f000000000000000000000000000000000000000000000000000000000000000073ffffffffffffffffffffffffffffffffffffffff1691815a5f948591f19283156104ec575f93610f05575b5051908151915f5b838110610e6357846040518091602082016020835281518091526020604084019201905f5b818110610e4a575050500390f35b8251845285945060209384019390920191600101610e3c565b80610e70600192876117c4565b5173ffffffffffffffffffffffffffffffffffffffff610e9083866117c4565b51165f52600260205260405f20855f5260205260405f205573ffffffffffffffffffffffffffffffffffffffff610ec782856117c4565b5116847f73d17651f9707de6298c73100b356249df3c275337d70f593670c60c5d7da3536020610ef7858b6117c4565b51604051908152a301610e17565b9092503d805f833e610f17818361143e565b8101906020818303126101115780519067ffffffffffffffff821161011157019080601f83011215610111578151610f4e81611492565b92610f5c604051948561143e565b81845260208085019260051b82010192831161011157602001905b828210610f88575050509183610e0f565b8151815260209182019101610f77565b7f4e487b71000000000000000000000000000000000000000000000000000000005f52604160045260245ffd5b60208091610fd284611366565b815201910190610b28565b7f4e487b71000000000000000000000000000000000000000000000000000000005f52601160045260245ffd5b60846040517f66360cb000000000000000000000000000000000000000000000000000000000815260206004820152602360248201527f496e73756666696369656e742066756e647320666f722073756273637269707460448201527f696f6e00000000000000000000000000000000000000000000000000000000006064820152fd5b60846040517f66360cb000000000000000000000000000000000000000000000000000000000815260206004820152602960248201527f496e76616c6964206e6f7420696e697469616c697a656420686f6c646572206360448201527f6f6e646974696f6e7300000000000000000000000000000000000000000000006064820152fd5b7f83403c5c000000000000000000000000000000000000000000000000000000005f5260045ffd5b60846040517f2ce89adb00000000000000000000000000000000000000000000000000000000815260206004820152602360248201527f4f6e6c792072696768747320706f6c696379206d616e6167657220616c6c6f7760448201527f65642e00000000000000000000000000000000000000000000000000000000006064820152fd5b34610111575f60031936011261011157602060ff600154166040519015158152f35b34610111575f600319360112610111576106d760405161120160408261143e565b601281527f537562736372697074696f6e506f6c696379000000000000000000000000000060208201526040519182916020835260208301906112dd565b3461011157602060031936011261011157600435907fffffffff00000000000000000000000000000000000000000000000000000000821680920361011157817fd6e2fbe800000000000000000000000000000000000000000000000000000000602093149081156112b3575b5015158152f35b7f01ffc9a700000000000000000000000000000000000000000000000000000000915014836112ac565b907fffffffffffffffffffffffffffffffffffffffffffffffffffffffffffffffe0601f602080948051918291828752018686015e5f8582860101520116010190565b6004359073ffffffffffffffffffffffffffffffffffffffff8216820361011157565b6024359073ffffffffffffffffffffffffffffffffffffffff8216820361011157565b359073ffffffffffffffffffffffffffffffffffffffff8216820361011157565b9181601f840112156101115782359167ffffffffffffffff8311610111576020838186019501011161011157565b9060406003198301126101115760043573ffffffffffffffffffffffffffffffffffffffff8116810361011157916024359067ffffffffffffffff82116101115761140291600401611387565b9091565b6040810190811067ffffffffffffffff821117610f9857604052565b6080810190811067ffffffffffffffff821117610f9857604052565b90601f7fffffffffffffffffffffffffffffffffffffffffffffffffffffffffffffffe0910116810190811067ffffffffffffffff821117610f9857604052565b81810292918115918404141715610fdd57565b67ffffffffffffffff8111610f985760051b60200190565b9091826020916114ba8183611751565b6114d65781010312610111576102356114d3923561163c565b90565b810103126101115773ffffffffffffffffffffffffffffffffffffffff6114ff6114d393611366565b1690611532565b90816020910312610111575173ffffffffffffffffffffffffffffffffffffffff811681036101115790565b73ffffffffffffffffffffffffffffffffffffffff1690815f52600260205273ffffffffffffffffffffffffffffffffffffffff60405f2091165f5260205260405f205490811561163657604051917febfa62b90000000000000000000000000000000000000000000000000000000083526004830152602482015260208160448173ffffffffffffffffffffffffffffffffffffffff7f0000000000000000000000000000000000000000000000000000000000000000165afa9081156104ec575f916115fe575090565b90506020813d60201161162e575b816116196020938361143e565b81010312610111575180151581036101115790565b3d915061160c565b50505f90565b604051907f6352211e000000000000000000000000000000000000000000000000000000008252600482015260208160248173ffffffffffffffffffffffffffffffffffffffff7f0000000000000000000000000000000000000000000000000000000000000000165afa9081156104ec575f916116b8575090565b6114d3915060203d6020116104e5576104d7818361143e565b81156116db570490565b7f4e487b71000000000000000000000000000000000000000000000000000000005f52601260045260245ffd5b90602080835192838152019201905f5b8181106117255750505090565b825173ffffffffffffffffffffffffffffffffffffffff16845260209384019390920191600101611718565b602082036107085781602011610111577fffffffffffffffffffffffffffffffffffffffff000000000000000000000000600c82013516151591600c11610111578161179b575090565b7fffffffffffffffffffffffff0000000000000000000000000000000000000000915035161590565b80518210156117d85760209160051b010190565b7f4e487b71000000000000000000000000000000000000000000000000000000005f52603260045260245ffdfea2646970667358221220be604af8fb0b84f1fc09211529cb8338c36bfb5d68c195302c8b7b98a5cf7b2964736f6c634300081a0033","linkReferences":{}},"methodIdentifiers":{"ASSET_OWNERSHIP()":"f520d4eb","ATTESTATION_PROVIDER()":"19ad44fc","RIGHTS_POLICY_MANAGER()":"f1bdc452","description()":"7284e416","enforce(address,(address,address,address,uint256,uint256,address[],bytes))":"464c0aeb","getAttestation(address,address)":"e8d55ccf","getAttestationProvider()":"b1b87ffb","getHolder(uint256)":"e8a96b46","initialize(address,bytes)":"d1f57894","isAccessAllowed(address,bytes)":"cfdce1a7","isCompliant(address,address)":"dd4fcc3f","isInitialized()":"392e53cd","name()":"06fdde03","resolveTerms(bytes)":"a3937111","supportsInterface(bytes4)":"01ffc9a7"},"storageLayout":{"storage":[{"astId":45796,"contract":"contracts/policies/SubscriptionPolicy.sol:SubscriptionPolicy","label":"_status","offset":0,"slot":"0","type":"t_uint256"},{"astId":50784,"contract":"contracts/policies/SubscriptionPolicy.sol:SubscriptionPolicy","label":"_initialized","offset":0,"slot":"1","type":"t_bool"},{"astId":50791,"contract":"contracts/policies/SubscriptionPolicy.sol:SubscriptionPolicy","label":"_attestations","offset":0,"slot":"2","type":"t_mapping(t_address,t_mapping(t_address,t_uint256))"},{"astId":1308,"contract":"contracts/policies/SubscriptionPolicy.sol:SubscriptionPolicy","label":"_packages","offset":0,"slot":"3","type":"t_mapping(t_address,t_struct(Package)1303_storage)"}],"types":{"t_address":{"encoding":"inplace","label":"address","numberOfBytes":"20"},"t_bool":{"encoding":"inplace","label":"bool","numberOfBytes":"1"},"t_mapping(t_address,t_mapping(t_address,t_uint256))":{"encoding":"mapping","key":"t_address","label":"mapping(address => mapping(address => uint256))","numberOfBytes":"32","value":"t_mapping(t_address,t_uint256)"},"t_mapping(t_address,t_struct(Package)1303_storage)":{"encoding":"mapping","key":"t_address","label":"mapping(address => struct SubscriptionPolicy.Package)","numberOfBytes":"32","value":"t_struct(Package)1303_storage"},"t_mapping(t_address,t_uint256)":{"encoding":"mapping","key":"t_address","label":"mapping(address => uint256)","numberOfBytes":"32","value":"t_uint256"},"t_struct(Package)1303_storage":{"encoding":"inplace","label":"struct SubscriptionPolicy.Package","numberOfBytes":"64","members":[{"astId":1300,"contract":"contracts/policies/SubscriptionPolicy.sol:SubscriptionPolicy","label":"pricePerDay","offset":0,"slot":"0","type":"t_uint256"},{"astId":1302,"contract":"contracts/policies/SubscriptionPolicy.sol:SubscriptionPolicy","label":"currency","offset":0,"slot":"1","type":"t_address"}]},"t_uint256":{"encoding":"inplace","label":"uint256","numberOfBytes":"32"}}},"id":7}