{"abi":[{"type":"constructor","inputs":[{"name":"ledgerVault","type":"address","internalType":"address"},{"name":"mmc","type":"address","internalType":"address"},{"name":"policy","type":"address","internalType":"address"}],"stateMutability":"nonpayable"},{"type":"function","name":"LEDGER_VAULT","inputs":[],"outputs":[{"name":"","type":"address","internalType":"contract ILedgerVault"}],"stateMutability":"view"},{"type":"function","name":"MMC","inputs":[],"outputs":[{"name":"","type":"address","internalType":"address"}],"stateMutability":"view"},{"type":"function","name":"POLICY","inputs":[],"outputs":[{"name":"","type":"address","internalType":"contract IPolicy"}],"stateMutability":"view"},{"type":"function","name":"UPGRADE_INTERFACE_VERSION","inputs":[],"outputs":[{"name":"","type":"string","internalType":"string"}],"stateMutability":"view"},{"type":"function","name":"addFunds","inputs":[{"name":"amount","type":"uint256","internalType":"uint256"}],"outputs":[],"stateMutability":"nonpayable"},{"type":"function","name":"authority","inputs":[],"outputs":[{"name":"","type":"address","internalType":"address"}],"stateMutability":"view"},{"type":"function","name":"getFundsBalance","inputs":[{"name":"account","type":"address","internalType":"address"}],"outputs":[{"name":"","type":"uint256","internalType":"uint256"}],"stateMutability":"view"},{"type":"function","name":"getLedgerBalance","inputs":[{"name":"account","type":"address","internalType":"address"},{"name":"currency","type":"address","internalType":"address"}],"outputs":[{"name":"","type":"uint256","internalType":"uint256"}],"stateMutability":"view"},{"type":"function","name":"getMaxRateLimit","inputs":[{"name":"account","type":"address","internalType":"address"}],"outputs":[{"name":"","type":"uint256","internalType":"uint256"}],"stateMutability":"view"},{"type":"function","name":"getPolicyAllocation","inputs":[{"name":"account","type":"address","internalType":"address"},{"name":"broker","type":"address","internalType":"address"}],"outputs":[{"name":"","type":"uint256","internalType":"uint256"}],"stateMutability":"view"},{"type":"function","name":"getRateCounter","inputs":[{"name":"account","type":"address","internalType":"address"}],"outputs":[{"name":"","type":"uint256","internalType":"uint256"}],"stateMutability":"view"},{"type":"function","name":"getTerms","inputs":[{"name":"account","type":"address","internalType":"address"},{"name":"broker","type":"address","internalType":"address"}],"outputs":[{"name":"","type":"tuple","internalType":"struct ICampaign.CampaignTerms","components":[{"name":"duration","type":"uint256","internalType":"uint256"},{"name":"allocation","type":"uint256","internalType":"uint256"}]}],"stateMutability":"view"},{"type":"function","name":"initialize","inputs":[{"name":"accessManager","type":"address","internalType":"address"}],"outputs":[],"stateMutability":"nonpayable"},{"type":"function","name":"isConsumingScheduledOp","inputs":[],"outputs":[{"name":"","type":"bytes4","internalType":"bytes4"}],"stateMutability":"view"},{"type":"function","name":"paused","inputs":[],"outputs":[{"name":"","type":"bool","internalType":"bool"}],"stateMutability":"view"},{"type":"function","name":"proxiableUUID","inputs":[],"outputs":[{"name":"","type":"bytes32","internalType":"bytes32"}],"stateMutability":"view"},{"type":"function","name":"removeFunds","inputs":[{"name":"amount","type":"uint256","internalType":"uint256"}],"outputs":[],"stateMutability":"nonpayable"},{"type":"function","name":"run","inputs":[{"name":"sponsor","type":"address","internalType":"address"},{"name":"account","type":"address","internalType":"address"}],"outputs":[{"name":"","type":"uint256","internalType":"uint256"}],"stateMutability":"nonpayable"},{"type":"function","name":"setAuthority","inputs":[{"name":"newAuthority","type":"address","internalType":"address"}],"outputs":[],"stateMutability":"nonpayable"},{"type":"function","name":"setMaxRateLimit","inputs":[{"name":"limit","type":"uint256","internalType":"uint256"}],"outputs":[],"stateMutability":"nonpayable"},{"type":"function","name":"setPolicyAllocation","inputs":[{"name":"amount","type":"uint256","internalType":"uint256"},{"name":"broker","type":"address","internalType":"address"}],"outputs":[],"stateMutability":"nonpayable"},{"type":"function","name":"upgradeToAndCall","inputs":[{"name":"newImplementation","type":"address","internalType":"address"},{"name":"data","type":"bytes","internalType":"bytes"}],"outputs":[],"stateMutability":"payable"},{"type":"event","name":"AuthorityUpdated","inputs":[{"name":"authority","type":"address","indexed":false,"internalType":"address"}],"anonymous":false},{"type":"event","name":"CampaignRun","inputs":[{"name":"sponsor","type":"address","indexed":true,"internalType":"address"},{"name":"account","type":"address","indexed":false,"internalType":"address"},{"name":"amount","type":"uint256","indexed":false,"internalType":"uint256"}],"anonymous":false},{"type":"event","name":"FundsAdded","inputs":[{"name":"account","type":"address","indexed":false,"internalType":"address"},{"name":"amount","type":"uint256","indexed":false,"internalType":"uint256"}],"anonymous":false},{"type":"event","name":"FundsRemoved","inputs":[{"name":"account","type":"address","indexed":false,"internalType":"address"},{"name":"amount","type":"uint256","indexed":false,"internalType":"uint256"}],"anonymous":false},{"type":"event","name":"Initialized","inputs":[{"name":"version","type":"uint64","indexed":false,"internalType":"uint64"}],"anonymous":false},{"type":"event","name":"MaxRateLimitSet","inputs":[{"name":"account","type":"address","indexed":true,"internalType":"address"},{"name":"limit","type":"uint256","indexed":false,"internalType":"uint256"}],"anonymous":false},{"type":"event","name":"Paused","inputs":[{"name":"account","type":"address","indexed":false,"internalType":"address"}],"anonymous":false},{"type":"event","name":"PolicyAllocationSet","inputs":[{"name":"account","type":"address","indexed":true,"internalType":"address"},{"name":"broker","type":"address","indexed":true,"internalType":"address"},{"name":"amount","type":"uint256","indexed":false,"internalType":"uint256"}],"anonymous":false},{"type":"event","name":"Unpaused","inputs":[{"name":"account","type":"address","indexed":false,"internalType":"address"}],"anonymous":false},{"type":"event","name":"Upgraded","inputs":[{"name":"implementation","type":"address","indexed":true,"internalType":"address"}],"anonymous":false},{"type":"error","name":"AccessManagedInvalidAuthority","inputs":[{"name":"authority","type":"address","internalType":"address"}]},{"type":"error","name":"AccessManagedRequiredDelay","inputs":[{"name":"caller","type":"address","internalType":"address"},{"name":"delay","type":"uint32","internalType":"uint32"}]},{"type":"error","name":"AccessManagedUnauthorized","inputs":[{"name":"caller","type":"address","internalType":"address"}]},{"type":"error","name":"AddressEmptyCode","inputs":[{"name":"target","type":"address","internalType":"address"}]},{"type":"error","name":"ERC1967InvalidImplementation","inputs":[{"name":"implementation","type":"address","internalType":"address"}]},{"type":"error","name":"ERC1967NonPayable","inputs":[]},{"type":"error","name":"EnforcedPause","inputs":[]},{"type":"error","name":"ExpectedPause","inputs":[]},{"type":"error","name":"FailedCall","inputs":[]},{"type":"error","name":"InvalidInitialization","inputs":[]},{"type":"error","name":"InvalidUnauthorizedOperation","inputs":[{"name":"","type":"string","internalType":"string"}]},{"type":"error","name":"NotInitializing","inputs":[]},{"type":"error","name":"UUPSUnauthorizedCallContext","inputs":[]},{"type":"error","name":"UUPSUnsupportedProxiableUUID","inputs":[{"name":"slot","type":"bytes32","internalType":"bytes32"}]}],"bytecode":{"object":"0x610100346101b257601f6122c938819003918201601f19168301916001600160401b038311848410176101b6578084926060946040528339810103126101b257610048816101ca565b6100606040610059602085016101ca565b93016101ca565b90306080527ff0c57e16840df040f15088dc2f81fe391c3923bec73e23a9662efc9c229c6a005460ff8160401c166101a3576002600160401b03196001600160401b0382160161013a575b506001600160a01b0390811660e0521660c05260a0526040516120ea90816101df82396080518181816114dc01526115dd015260a0518181816101ad01528181610be10152818161104101528181611a1401528181611a4e0152611d12015260c0518181816105e001526112b2015260e0518181816102f001528181610c3e01528181610dea0152611b4e0152f35b6001600160401b0319166001600160401b039081177ff0c57e16840df040f15088dc2f81fe391c3923bec73e23a9662efc9c229c6a00556040519081527fc7f505b2f371ae2175ee4913f4499e1f2633a7b5936321eed1cdaeb6115181d290602090a15f6100ab565b63f92ee8a960e01b5f5260045ffd5b5f80fd5b634e487b7160e01b5f52604160045260245ffd5b51906001600160a01b03821682036101b25756fe6080806040526004361015610012575f80fd5b5f3560e01c90816301f7960014611d46575080632a363a9014611c9c5780632f38452314611a3857806344dea5a7146119e85780634f1ef2861461155457806352d1902d146114b55780635571df93146111f45780635c975abb146111b357806372d2bf0914610fdb5780637a9e5e4b14610f045780638fb3603714610e71578063ad3cb1cc14610e0e578063bc23e35e14610dbe578063be99970514610b91578063bf7e214f14610b3f578063c4d66de814610823578063c61f19b2146107de578063c9f196a414610770578063d1a72b5b14610697578063d949b84414610604578063dadbccee146105b45763fc4dcacb1461010e575f80fd5b346103bc5760406003193601126103bc57610127611d86565b61012f611da9565b9060ff7fcd5ed15c6e187e77e9aee88184c21f4f2182ab5827cb3b7e07fbedcd63f03300541661058c5773ffffffffffffffffffffffffffffffffffffffff8116805f525f60205260405f205491815f52600260205260405f2073ffffffffffffffffffffffffffffffffffffffff33165f5260205260405f2054927f0000000000000000000000000000000000000000000000000000000000000000835f527fcb711bda070b7bbcc2b711ef3993cc17677144f4419b29e303bef375c5f40f0060205260405f2073ffffffffffffffffffffffffffffffffffffffff82165f5260205260405f20549273ffffffffffffffffffffffffffffffffffffffff871692835f52600160205260405f20549487156105085787116104845784101561040057600184018094116103d357818661027a926102d6966020965f526001875260405f2055611ea6565b6040517fb4fb2ea70000000000000000000000000000000000000000000000000000000081523360048201526024810186905273ffffffffffffffffffffffffffffffffffffffff909116604482015291829081906064820190565b03815f73ffffffffffffffffffffffffffffffffffffffff7f0000000000000000000000000000000000000000000000000000000000000000165af180156103c857610372575b506040805173ffffffffffffffffffffffffffffffffffffffff9490941684526020808501849052937f016278ed156d0c840c4a75f61de5ab65a5e51849d11d1325ce5b91f00f2378c89190a2604051908152f35b926020843d6020116103c0575b8161038c60209383611de8565b810103126103bc5792507f016278ed156d0c840c4a75f61de5ab65a5e51849d11d1325ce5b91f00f2378c861031d565b5f80fd5b3d915061037f565b6040513d5f823e3d90fd5b7f4e487b71000000000000000000000000000000000000000000000000000000005f52601160045260245ffd5b60846040517f08c379a000000000000000000000000000000000000000000000000000000000815260206004820152602a60248201527f4578636565646564206d61782073706f6e736f7265642061636365737320696e60448201527f2063616d706169676e2e000000000000000000000000000000000000000000006064820152fd5b60846040517f08c379a000000000000000000000000000000000000000000000000000000000815260206004820152602760248201527f4e6f2066756e647320746f2073706f6e736f722061636365737320696e20636160448201527f6d706169676e2e000000000000000000000000000000000000000000000000006064820152fd5b60846040517f08c379a000000000000000000000000000000000000000000000000000000000815260206004820152602b60248201527f4e6f20706f6c69637920616c6c6f636174696f6e2073657420666f722074686960448201527f732063616d706169676e2e0000000000000000000000000000000000000000006064820152fd5b7fd93c0665000000000000000000000000000000000000000000000000000000005f5260045ffd5b346103bc575f6003193601126103bc57602060405173ffffffffffffffffffffffffffffffffffffffff7f0000000000000000000000000000000000000000000000000000000000000000168152f35b346103bc5760406003193601126103bc5761061d611d86565b73ffffffffffffffffffffffffffffffffffffffff61068161063d611da9565b9273ffffffffffffffffffffffffffffffffffffffff165f527fcb711bda070b7bbcc2b711ef3993cc17677144f4419b29e303bef375c5f40f0060205260405f2090565b91165f52602052602060405f2054604051908152f35b346103bc5760206003193601126103bc5760043580156106ec57335f525f6020528060405f20556040519081527f13ba89ef96a96deb83090becd7c7a4ac146056bd2c143e7288b36d3167d1ecf260203392a2005b60846040517f08c379a000000000000000000000000000000000000000000000000000000000815260206004820152602560248201527f52617465206c696d6974206d7573742062652067726561746572207468616e2060448201527f7a65726f2e0000000000000000000000000000000000000000000000000000006064820152fd5b346103bc5760406003193601126103bc57610789611d86565b73ffffffffffffffffffffffffffffffffffffffff6107a6611da9565b91165f52600260205273ffffffffffffffffffffffffffffffffffffffff60405f2091165f52602052602060405f2054604051908152f35b346103bc5760206003193601126103bc5773ffffffffffffffffffffffffffffffffffffffff61080c611d86565b165f526001602052602060405f2054604051908152f35b346103bc5760206003193601126103bc5761083c611d86565b7ff0c57e16840df040f15088dc2f81fe391c3923bec73e23a9662efc9c229c6a005460ff8160401c16159167ffffffffffffffff821680159081610b37575b6001149081610b2d575b159081610b24575b50610afc57818360017fffffffffffffffffffffffffffffffffffffffffffffffff000000000000000073ffffffffffffffffffffffffffffffffffffffff9516177ff0c57e16840df040f15088dc2f81fe391c3923bec73e23a9662efc9c229c6a0055610aa7575b506108ff611fc4565b610907611fc4565b61090f611fc4565b7fffffffffffffffffffffffffffffffffffffffffffffffffffffffffffffff007fcd5ed15c6e187e77e9aee88184c21f4f2182ab5827cb3b7e07fbedcd63f0330054167fcd5ed15c6e187e77e9aee88184c21f4f2182ab5827cb3b7e07fbedcd63f033005561097d611fc4565b610985611fc4565b61098d611fc4565b610995611fc4565b61099e81611f19565b6109a6611fc4565b167fffffffffffffffffffffffff00000000000000000000000000000000000000007fb8e950798a2a06a6f5727a94041b193569f4f67d69a0de3cf866d93822e7fa005416177fb8e950798a2a06a6f5727a94041b193569f4f67d69a0de3cf866d93822e7fa0055610a1457005b7fffffffffffffffffffffffffffffffffffffffffffffff00ffffffffffffffff7ff0c57e16840df040f15088dc2f81fe391c3923bec73e23a9662efc9c229c6a0054167ff0c57e16840df040f15088dc2f81fe391c3923bec73e23a9662efc9c229c6a00557fc7f505b2f371ae2175ee4913f4499e1f2633a7b5936321eed1cdaeb6115181d2602060405160018152a1005b7fffffffffffffffffffffffffffffffffffffffffffffff0000000000000000001668010000000000000001177ff0c57e16840df040f15088dc2f81fe391c3923bec73e23a9662efc9c229c6a0055836108f6565b7ff92ee8a9000000000000000000000000000000000000000000000000000000005f5260045ffd5b9050158461088d565b303b159150610885565b84915061087b565b346103bc575f6003193601126103bc57602073ffffffffffffffffffffffffffffffffffffffff7ff3177357ab46d8af007ab3fdb9af81da189e1068fefdc0073dca88a2cab40a005416604051908152f35b346103bc5760206003193601126103bc576004358015610d3a576040517f2c2eb94a00000000000000000000000000000000000000000000000000000000815233600482015260248101919091527f000000000000000000000000000000000000000000000000000000000000000073ffffffffffffffffffffffffffffffffffffffff81166044830152602082806064810103815f73ffffffffffffffffffffffffffffffffffffffff7f0000000000000000000000000000000000000000000000000000000000000000165af19182156103c8575f92610d06575b50335f527fcb711bda070b7bbcc2b711ef3993cc17677144f4419b29e303bef375c5f40f0060205273ffffffffffffffffffffffffffffffffffffffff60405f2091165f5260205260405f208054918083018093116103d3579190556040805133815260208101929092527f8fe10ae416f22f5e5220b0018a6c1d4ff534d6aa3a471f2a20cb7747fe63e5b99190819081015b0390a1005b9091506020813d602011610d32575b81610d2260209383611de8565b810103126103bc57519082610c6e565b3d9150610d15565b60846040517f08c379a000000000000000000000000000000000000000000000000000000000815260206004820152602760248201527f496e76616c696420616d6f756e7420746f20616c6c6f6361746520696e20636160448201527f6d706169676e2e000000000000000000000000000000000000000000000000006064820152fd5b346103bc575f6003193601126103bc57602060405173ffffffffffffffffffffffffffffffffffffffff7f0000000000000000000000000000000000000000000000000000000000000000168152f35b346103bc575f6003193601126103bc57610e6d604051610e2f604082611de8565b600581527f352e302e300000000000000000000000000000000000000000000000000000006020820152604051918291602083526020830190611e63565b0390f35b346103bc575f6003193601126103bc577ff3177357ab46d8af007ab3fdb9af81da189e1068fefdc0073dca88a2cab40a005460a01c60ff1615610efc5760207f8fb36037000000000000000000000000000000000000000000000000000000005b7fffffffff0000000000000000000000000000000000000000000000000000000060405191168152f35b60205f610ed2565b346103bc5760206003193601126103bc57610f1d611d86565b73ffffffffffffffffffffffffffffffffffffffff7ff3177357ab46d8af007ab3fdb9af81da189e1068fefdc0073dca88a2cab40a0054163303610faf57803b15610f6d57610f6b90611f19565b005b73ffffffffffffffffffffffffffffffffffffffff907fc2f31e5e000000000000000000000000000000000000000000000000000000005f521660045260245ffd5b7f068ca9d8000000000000000000000000000000000000000000000000000000005f523360045260245ffd5b346103bc5760406003193601126103bc57600435610ff7611da9565b811561115557335f9081527fcb711bda070b7bbcc2b711ef3993cc17677144f4419b29e303bef375c5f40f006020526040902073ffffffffffffffffffffffffffffffffffffffff7f0000000000000000000000000000000000000000000000000000000000000000165f526020528160405f2054106110d15773ffffffffffffffffffffffffffffffffffffffff90335f52600260205260405f208282165f526020528260405f205560405192835216907f333ce65bf69c327ddeaef4b3d299b396ffa60f981d2b8b56d24f80e3a43d113c60203392a3005b60846040517f08c379a000000000000000000000000000000000000000000000000000000000815260206004820152602b60248201527f496e73756666696369656e742066756e647320696e2063616d706169676e207460448201527f6f20616c6c6f636174652e0000000000000000000000000000000000000000006064820152fd5b60646040517f08c379a000000000000000000000000000000000000000000000000000000000815260206004820152601e60248201527f496e76616c6964207a65726f2066756e647320616c6c6f636174696f6e2e00006044820152fd5b346103bc575f6003193601126103bc57602060ff7fcd5ed15c6e187e77e9aee88184c21f4f2182ab5827cb3b7e07fbedcd63f0330054166040519015158152f35b346103bc5760406003193601126103bc57611299611210611d86565b611218611da9565b905f602060405161122881611dcc565b82815201525f73ffffffffffffffffffffffffffffffffffffffff6040519216918260208201526020815261125e604082611de8565b604051809581927fa3937111000000000000000000000000000000000000000000000000000000008352602060048401526024830190611e63565b038173ffffffffffffffffffffffffffffffffffffffff7f0000000000000000000000000000000000000000000000000000000000000000165afa9283156103c8575f9361138a575b505f52600260205273ffffffffffffffffffffffffffffffffffffffff60405f2091165f5260205260405f2054905190811561135d578190048181029181830414811517156103d357818004600114821517156103d3576040916020835161134981611dcc565b838152019081528251918252516020820152f35b7f4e487b71000000000000000000000000000000000000000000000000000000005f52601260045260245ffd5b9092503d805f833e61139c8183611de8565b8101906020818303126103bc5780519067ffffffffffffffff82116103bc5701906080828203126103bc57604051916080830183811067ffffffffffffffff8211176114885760405280518352602081015173ffffffffffffffffffffffffffffffffffffffff811681036103bc576020840152604081015160048110156103bc57604084015260608101519067ffffffffffffffff82116103bc570181601f820112156103bc5780519061145082611e29565b9261145e6040519485611de8565b828452602083830101116103bc57815f9260208093018386015e83010152606082015291836112e2565b7f4e487b71000000000000000000000000000000000000000000000000000000005f52604160045260245ffd5b346103bc575f6003193601126103bc5773ffffffffffffffffffffffffffffffffffffffff7f000000000000000000000000000000000000000000000000000000000000000016300361152c5760206040517f360894a13ba1a3210667c828492db98dca3e2076cc3735a920a3ca505d382bbc8152f35b7fe07c8dba000000000000000000000000000000000000000000000000000000005f5260045ffd5b60406003193601126103bc57611568611d86565b6024359067ffffffffffffffff82116103bc57366023830112156103bc5781600401359061159582611e29565b916115a36040519384611de8565b808352602083019336602483830101116103bc57815f9260246020930187378401015273ffffffffffffffffffffffffffffffffffffffff7f0000000000000000000000000000000000000000000000000000000000000000168030149081156119a6575b5061152c576044604073ffffffffffffffffffffffffffffffffffffffff7fb8e950798a2a06a6f5727a94041b193569f4f67d69a0de3cf866d93822e7fa0054168151928380927fd1f856ee0000000000000000000000000000000000000000000000000000000082525f60048301523360248301525afa9081156103c8575f91611959575b50156118d55773ffffffffffffffffffffffffffffffffffffffff8116926040517f52d1902d000000000000000000000000000000000000000000000000000000008152602081600481885afa5f91816118a1575b5061171457847f4c9c8ce3000000000000000000000000000000000000000000000000000000005f5260045260245ffd5b807f360894a13ba1a3210667c828492db98dca3e2076cc3735a920a3ca505d382bbc8692036118765750823b1561184b57807fffffffffffffffffffffffff00000000000000000000000000000000000000007f360894a13ba1a3210667c828492db98dca3e2076cc3735a920a3ca505d382bbc5416177f360894a13ba1a3210667c828492db98dca3e2076cc3735a920a3ca505d382bbc557fbc7cd75a20ee27fd9adebab32041f755214dbc6bffa90cc0225b39da2e5c2d3b5f80a2825115611819575f8091610f6b945190845af43d15611811573d916117f583611e29565b926118036040519485611de8565b83523d5f602085013e61201b565b60609161201b565b5050503461182357005b7fb398979f000000000000000000000000000000000000000000000000000000005f5260045ffd5b7f4c9c8ce3000000000000000000000000000000000000000000000000000000005f5260045260245ffd5b7faa1d49a4000000000000000000000000000000000000000000000000000000005f5260045260245ffd5b9091506020813d6020116118cd575b816118bd60209383611de8565b810103126103bc575190866116e3565b3d91506118b0565b60846040517f6317e35f00000000000000000000000000000000000000000000000000000000815260206004820152602360248201527f4f6e6c792061646d696e2063616e20706572666f726d2074686973206163746960448201527f6f6e2e00000000000000000000000000000000000000000000000000000000006064820152fd5b90506040813d60401161199e575b8161197460409383611de8565b810103126103bc5780519081151582036103bc576020015163ffffffff8116036103bc578461168e565b3d9150611967565b905073ffffffffffffffffffffffffffffffffffffffff7f360894a13ba1a3210667c828492db98dca3e2076cc3735a920a3ca505d382bbc5416141584611608565b346103bc575f6003193601126103bc57602060405173ffffffffffffffffffffffffffffffffffffffff7f0000000000000000000000000000000000000000000000000000000000000000168152f35b346103bc5760206003193601126103bc576004357f000000000000000000000000000000000000000000000000000000000000000090611ab53373ffffffffffffffffffffffffffffffffffffffff165f527fcb711bda070b7bbcc2b711ef3993cc17677144f4419b29e303bef375c5f40f0060205260405f2090565b73ffffffffffffffffffffffffffffffffffffffff83165f526020528060405f205410611c18576040517fdbba0f01000000000000000000000000000000000000000000000000000000008152336004820152602481019190915273ffffffffffffffffffffffffffffffffffffffff82166044820152602081806064810103815f73ffffffffffffffffffffffffffffffffffffffff7f0000000000000000000000000000000000000000000000000000000000000000165af19081156103c8575f91611bc6575b7fdf8abc6a5b0f90b413231e87356f90121a51d6182d7536cd3cfbccadd5de750e610d0183611bae868233611ea6565b60408051338152602081019290925290918291820190565b90506020813d602011611c10575b81611be160209383611de8565b810103126103bc57517fdf8abc6a5b0f90b413231e87356f90121a51d6182d7536cd3cfbccadd5de750e611b7e565b3d9150611bd4565b60846040517f08c379a000000000000000000000000000000000000000000000000000000000815260206004820152602960248201527f496e73756666696369656e742066756e647320616c6c6f636174656420696e2060448201527f63616d706169676e2e00000000000000000000000000000000000000000000006064820152fd5b346103bc5760206003193601126103bc57611cfb611cb8611d86565b73ffffffffffffffffffffffffffffffffffffffff165f527fcb711bda070b7bbcc2b711ef3993cc17677144f4419b29e303bef375c5f40f0060205260405f2090565b73ffffffffffffffffffffffffffffffffffffffff7f0000000000000000000000000000000000000000000000000000000000000000165f52602052602060405f2054604051908152f35b346103bc5760206003193601126103bc5760209073ffffffffffffffffffffffffffffffffffffffff611d77611d86565b165f525f825260405f20548152f35b6004359073ffffffffffffffffffffffffffffffffffffffff821682036103bc57565b6024359073ffffffffffffffffffffffffffffffffffffffff821682036103bc57565b6040810190811067ffffffffffffffff82111761148857604052565b90601f7fffffffffffffffffffffffffffffffffffffffffffffffffffffffffffffffe0910116810190811067ffffffffffffffff82111761148857604052565b67ffffffffffffffff811161148857601f017fffffffffffffffffffffffffffffffffffffffffffffffffffffffffffffffe01660200190565b907fffffffffffffffffffffffffffffffffffffffffffffffffffffffffffffffe0601f602080948051918291828752018686015e5f8582860101520116010190565b73ffffffffffffffffffffffffffffffffffffffff90929192165f527fcb711bda070b7bbcc2b711ef3993cc17677144f4419b29e303bef375c5f40f0060205273ffffffffffffffffffffffffffffffffffffffff60405f2091165f5260205260405f2080549182039182116103d35755565b602073ffffffffffffffffffffffffffffffffffffffff7f2f658b440c35314f52658ea8a740e05b284cdc84dc9ae01e891f21b8933e7cad9216807fffffffffffffffffffffffff00000000000000000000000000000000000000007ff3177357ab46d8af007ab3fdb9af81da189e1068fefdc0073dca88a2cab40a005416177ff3177357ab46d8af007ab3fdb9af81da189e1068fefdc0073dca88a2cab40a0055604051908152a1565b60ff7ff0c57e16840df040f15088dc2f81fe391c3923bec73e23a9662efc9c229c6a005460401c1615611ff357565b7fd7e6bcf8000000000000000000000000000000000000000000000000000000005f5260045ffd5b90612058575080511561203057805190602001fd5b7fd6bda275000000000000000000000000000000000000000000000000000000005f5260045ffd5b815115806120ab575b612069575090565b73ffffffffffffffffffffffffffffffffffffffff907f9996b315000000000000000000000000000000000000000000000000000000005f521660045260245ffd5b50803b1561206156fea2646970667358221220e8d85ec49713a68c13304c67366c3828565f58568aca6b77d88e7e17e4a8418164736f6c634300081a0033","linkReferences":{}},"methodIdentifiers":{"LEDGER_VAULT()":"bc23e35e","MMC()":"44dea5a7","POLICY()":"dadbccee","UPGRADE_INTERFACE_VERSION()":"ad3cb1cc","addFunds(uint256)":"be999705","authority()":"bf7e214f","getFundsBalance(address)":"2a363a90","getLedgerBalance(address,address)":"d949b844","getMaxRateLimit(address)":"01f79600","getPolicyAllocation(address,address)":"c9f196a4","getRateCounter(address)":"c61f19b2","getTerms(address,address)":"5571df93","initialize(address)":"c4d66de8","isConsumingScheduledOp()":"8fb36037","paused()":"5c975abb","proxiableUUID()":"52d1902d","removeFunds(uint256)":"2f384523","run(address,address)":"fc4dcacb","setAuthority(address)":"7a9e5e4b","setMaxRateLimit(uint256)":"d1a72b5b","setPolicyAllocation(uint256,address)":"72d2bf09","upgradeToAndCall(address,bytes)":"4f1ef286"},"storageLayout":{"storage":[{"astId":1514,"contract":"contracts/incentives/campaigns/SubscriptionCampaign.sol:SubscriptionCampaign","label":"_rateLimits","offset":0,"slot":"0","type":"t_mapping(t_address,t_uint256)"},{"astId":1519,"contract":"contracts/incentives/campaigns/SubscriptionCampaign.sol:SubscriptionCampaign","label":"_rateCounter","offset":0,"slot":"1","type":"t_mapping(t_address,t_uint256)"},{"astId":1526,"contract":"contracts/incentives/campaigns/SubscriptionCampaign.sol:SubscriptionCampaign","label":"_allocation","offset":0,"slot":"2","type":"t_mapping(t_address,t_mapping(t_address,t_uint256))"}],"types":{"t_address":{"encoding":"inplace","label":"address","numberOfBytes":"20"},"t_mapping(t_address,t_mapping(t_address,t_uint256))":{"encoding":"mapping","key":"t_address","label":"mapping(address => mapping(address => uint256))","numberOfBytes":"32","value":"t_mapping(t_address,t_uint256)"},"t_mapping(t_address,t_uint256)":{"encoding":"mapping","key":"t_address","label":"mapping(address => uint256)","numberOfBytes":"32","value":"t_uint256"},"t_uint256":{"encoding":"inplace","label":"uint256","numberOfBytes":"32"}}},"id":7}