{"abi":[{"type":"constructor","inputs":[{"name":"rightPolicyManager","type":"address","internalType":"address"},{"name":"assetOwnership","type":"address","internalType":"address"},{"name":"attestationProvider","type":"address","internalType":"address"}],"stateMutability":"nonpayable"},{"type":"function","name":"ASSET_OWNERSHIP","inputs":[],"outputs":[{"name":"","type":"address","internalType":"contract IAssetOwnership"}],"stateMutability":"view"},{"type":"function","name":"ATTESTATION_PROVIDER","inputs":[],"outputs":[{"name":"","type":"address","internalType":"contract IAttestationProvider"}],"stateMutability":"view"},{"type":"function","name":"RIGHTS_POLICY_MANAGER","inputs":[],"outputs":[{"name":"","type":"address","internalType":"contract IRightsPolicyManagerVerifiable"}],"stateMutability":"view"},{"type":"function","name":"UPGRADE_INTERFACE_VERSION","inputs":[],"outputs":[{"name":"","type":"string","internalType":"string"}],"stateMutability":"view"},{"type":"function","name":"_isCompliant","inputs":[{"name":"account","type":"address","internalType":"address"},{"name":"holder","type":"address","internalType":"address"}],"outputs":[{"name":"","type":"bool","internalType":"bool"}],"stateMutability":"view"},{"type":"function","name":"authority","inputs":[],"outputs":[{"name":"","type":"address","internalType":"address"}],"stateMutability":"view"},{"type":"function","name":"description","inputs":[],"outputs":[{"name":"","type":"string","internalType":"string"}],"stateMutability":"pure"},{"type":"function","name":"enforce","inputs":[{"name":"holder","type":"address","internalType":"address"},{"name":"agreement","type":"tuple","internalType":"struct T.Agreement","components":[{"name":"broker","type":"address","internalType":"address"},{"name":"currency","type":"address","internalType":"address"},{"name":"initiator","type":"address","internalType":"address"},{"name":"total","type":"uint256","internalType":"uint256"},{"name":"fees","type":"uint256","internalType":"uint256"},{"name":"parties","type":"address[]","internalType":"address[]"},{"name":"payload","type":"bytes","internalType":"bytes"}]}],"outputs":[{"name":"","type":"uint256[]","internalType":"uint256[]"}],"stateMutability":"nonpayable"},{"type":"function","name":"getAttestationProvider","inputs":[],"outputs":[{"name":"","type":"address","internalType":"address"}],"stateMutability":"view"},{"type":"function","name":"getHolder","inputs":[{"name":"assetId","type":"uint256","internalType":"uint256"}],"outputs":[{"name":"","type":"address","internalType":"address"}],"stateMutability":"view"},{"type":"function","name":"getLicense","inputs":[{"name":"account","type":"address","internalType":"address"},{"name":"criteria","type":"bytes","internalType":"bytes"}],"outputs":[{"name":"","type":"uint256","internalType":"uint256"}],"stateMutability":"view"},{"type":"function","name":"initialize","inputs":[{"name":"accessManager","type":"address","internalType":"address"}],"outputs":[],"stateMutability":"nonpayable"},{"type":"function","name":"isAccessAllowed","inputs":[{"name":"account","type":"address","internalType":"address"},{"name":"criteria","type":"bytes","internalType":"bytes"}],"outputs":[{"name":"","type":"bool","internalType":"bool"}],"stateMutability":"view"},{"type":"function","name":"isActive","inputs":[],"outputs":[{"name":"","type":"bool","internalType":"bool"}],"stateMutability":"view"},{"type":"function","name":"isConsumingScheduledOp","inputs":[],"outputs":[{"name":"","type":"bytes4","internalType":"bytes4"}],"stateMutability":"view"},{"type":"function","name":"name","inputs":[],"outputs":[{"name":"","type":"string","internalType":"string"}],"stateMutability":"pure"},{"type":"function","name":"proxiableUUID","inputs":[],"outputs":[{"name":"","type":"bytes32","internalType":"bytes32"}],"stateMutability":"view"},{"type":"function","name":"resolveTerms","inputs":[{"name":"criteria","type":"bytes","internalType":"bytes"}],"outputs":[{"name":"","type":"tuple","internalType":"struct T.Terms","components":[{"name":"amount","type":"uint256","internalType":"uint256"},{"name":"currency","type":"address","internalType":"address"},{"name":"timeFrame","type":"uint8","internalType":"enum T.TimeFrame"},{"name":"uri","type":"string","internalType":"string"}]}],"stateMutability":"view"},{"type":"function","name":"setAuthority","inputs":[{"name":"newAuthority","type":"address","internalType":"address"}],"outputs":[],"stateMutability":"nonpayable"},{"type":"function","name":"setup","inputs":[{"name":"holder","type":"address","internalType":"address"},{"name":"init","type":"bytes","internalType":"bytes"}],"outputs":[],"stateMutability":"nonpayable"},{"type":"function","name":"supportsInterface","inputs":[{"name":"interfaceId","type":"bytes4","internalType":"bytes4"}],"outputs":[{"name":"","type":"bool","internalType":"bool"}],"stateMutability":"view"},{"type":"function","name":"upgradeToAndCall","inputs":[{"name":"newImplementation","type":"address","internalType":"address"},{"name":"data","type":"bytes","internalType":"bytes"}],"outputs":[],"stateMutability":"payable"},{"type":"event","name":"AgreementCommitted","inputs":[{"name":"holder","type":"address","indexed":true,"internalType":"address"},{"name":"partiesCount","type":"uint256","indexed":false,"internalType":"uint256"},{"name":"totalAmount","type":"uint256","indexed":false,"internalType":"uint256"},{"name":"fees","type":"uint256","indexed":false,"internalType":"uint256"}],"anonymous":false},{"type":"event","name":"AttestedAgreement","inputs":[{"name":"context","type":"bytes32","indexed":true,"internalType":"bytes32"},{"name":"account","type":"address","indexed":true,"internalType":"address"},{"name":"attestationId","type":"uint256","indexed":false,"internalType":"uint256"}],"anonymous":false},{"type":"event","name":"AuthorityUpdated","inputs":[{"name":"authority","type":"address","indexed":false,"internalType":"address"}],"anonymous":false},{"type":"event","name":"Initialized","inputs":[{"name":"version","type":"uint64","indexed":false,"internalType":"uint64"}],"anonymous":false},{"type":"event","name":"SubscriptionEnforced","inputs":[{"name":"holder","type":"address","indexed":true,"internalType":"address"},{"name":"pricePerDay","type":"uint256","indexed":false,"internalType":"uint256"},{"name":"duration","type":"uint256","indexed":false,"internalType":"uint256"}],"anonymous":false},{"type":"event","name":"Upgraded","inputs":[{"name":"implementation","type":"address","indexed":true,"internalType":"address"}],"anonymous":false},{"type":"error","name":"AccessManagedInvalidAuthority","inputs":[{"name":"authority","type":"address","internalType":"address"}]},{"type":"error","name":"AccessManagedRequiredDelay","inputs":[{"name":"caller","type":"address","internalType":"address"},{"name":"delay","type":"uint32","internalType":"uint32"}]},{"type":"error","name":"AccessManagedUnauthorized","inputs":[{"name":"caller","type":"address","internalType":"address"}]},{"type":"error","name":"AddressEmptyCode","inputs":[{"name":"target","type":"address","internalType":"address"}]},{"type":"error","name":"ERC1967InvalidImplementation","inputs":[{"name":"implementation","type":"address","internalType":"address"}]},{"type":"error","name":"ERC1967NonPayable","inputs":[]},{"type":"error","name":"FailedCall","inputs":[]},{"type":"error","name":"InvalidAssetHolder","inputs":[]},{"type":"error","name":"InvalidAttestation","inputs":[]},{"type":"error","name":"InvalidEnforcement","inputs":[{"name":"reason","type":"string","internalType":"string"}]},{"type":"error","name":"InvalidInitialization","inputs":[]},{"type":"error","name":"InvalidNotSupportedOperation","inputs":[]},{"type":"error","name":"InvalidPolicyInitialization","inputs":[]},{"type":"error","name":"InvalidSetup","inputs":[{"name":"reason","type":"string","internalType":"string"}]},{"type":"error","name":"InvalidUnauthorizedCall","inputs":[{"name":"reason","type":"string","internalType":"string"}]},{"type":"error","name":"InvalidUnauthorizedOperation","inputs":[{"name":"","type":"string","internalType":"string"}]},{"type":"error","name":"NotInitializing","inputs":[]},{"type":"error","name":"UUPSUnauthorizedCallContext","inputs":[]},{"type":"error","name":"UUPSUnsupportedProxiableUUID","inputs":[{"name":"slot","type":"bytes32","internalType":"bytes32"}]}],"bytecode":{"object":"0x610100346101a057601f61274838819003918201601f19168301916001600160401b038311848410176101a4578084926060946040528339810103126101a057610048816101b8565b610054602083016101b8565b916001600160a01b039061006a906040016101b8565b166080526001600160a01b0390811660a0521660c0523060e0527ff0c57e16840df040f15088dc2f81fe391c3923bec73e23a9662efc9c229c6a0054604081901c60ff16610191576002600160401b03196001600160401b03821601610128575b60405161257b90816101cd823960805181818161058d01528181611725015261206b015260a05181818161018a015281816106650152611335015260c05181818161013601526121ac015260e051818181610e210152610eb90152f35b6001600160401b0319166001600160401b039081177ff0c57e16840df040f15088dc2f81fe391c3923bec73e23a9662efc9c229c6a00556040519081527fc7f505b2f371ae2175ee4913f4499e1f2633a7b5936321eed1cdaeb6115181d290602090a15f6100cb565b63f92ee8a960e01b5f5260045ffd5b5f80fd5b634e487b7160e01b5f52604160045260245ffd5b51906001600160a01b03821682036101a05756fe60806040526004361015610011575f80fd5b5f3560e01c80629e11ff14611c5e57806301ffc9a714611bbd57806306fdde0314611b5e57806319ad44fc1461056157806322f3e2d414611b3d578063464c0aeb146112df5780634f1ef28614610e9957806352d1902d14610dfa5780637284e41614610c3f5780637a9e5e4b14610b685780638fb3603714610ad5578063a393711114610909578063a5cc2dbb146108c3578063a6a8543b14610614578063ad3cb1cc146105b1578063b1b87ffb14610561578063bf7e214f1461050f578063c4d66de81461020d578063cfdce1a7146101ea578063e8a96b46146101ae578063f1bdc4521461015e5763f520d4eb1461010a575f80fd5b3461015a575f60031936011261015a57602060405173ffffffffffffffffffffffffffffffffffffffff7f0000000000000000000000000000000000000000000000000000000000000000168152f35b5f80fd5b3461015a575f60031936011261015a57602060405173ffffffffffffffffffffffffffffffffffffffff7f0000000000000000000000000000000000000000000000000000000000000000168152f35b3461015a57602060031936011261015a5760206101cc600435612163565b73ffffffffffffffffffffffffffffffffffffffff60405191168152f35b3461015a5760206102036101fd36611e89565b91612104565b6040519015158152f35b3461015a57602060031936011261015a57610226611c8b565b7ff0c57e16840df040f15088dc2f81fe391c3923bec73e23a9662efc9c229c6a005460ff8160401c16159167ffffffffffffffff821680159081610507575b60011490816104fd575b1590816104f4575b506104cc57818360017fffffffffffffffffffffffffffffffffffffffffffffffff000000000000000073ffffffffffffffffffffffffffffffffffffffff9516177ff0c57e16840df040f15088dc2f81fe391c3923bec73e23a9662efc9c229c6a0055610477575b506102e9612455565b6102f1612455565b6102f9612455565b610301612455565b61030a81612337565b610312612455565b168015610419577fffffffffffffffffffffffff00000000000000000000000000000000000000007fb8e950798a2a06a6f5727a94041b193569f4f67d69a0de3cf866d93822e7fa005416177fb8e950798a2a06a6f5727a94041b193569f4f67d69a0de3cf866d93822e7fa005561038657005b7fffffffffffffffffffffffffffffffffffffffffffffff00ffffffffffffffff7ff0c57e16840df040f15088dc2f81fe391c3923bec73e23a9662efc9c229c6a0054167ff0c57e16840df040f15088dc2f81fe391c3923bec73e23a9662efc9c229c6a00557fc7f505b2f371ae2175ee4913f4499e1f2633a7b5936321eed1cdaeb6115181d2602060405160018152a1005b60646040517f6317e35f00000000000000000000000000000000000000000000000000000000815260206004820152601a60248201527f496e76616c696420617574686f7269747920616464726573732e0000000000006044820152fd5b7fffffffffffffffffffffffffffffffffffffffffffffff0000000000000000001668010000000000000001177ff0c57e16840df040f15088dc2f81fe391c3923bec73e23a9662efc9c229c6a0055836102e0565b7ff92ee8a9000000000000000000000000000000000000000000000000000000005f5260045ffd5b90501584610277565b303b15915061026f565b849150610265565b3461015a575f60031936011261015a57602073ffffffffffffffffffffffffffffffffffffffff7ff3177357ab46d8af007ab3fdb9af81da189e1068fefdc0073dca88a2cab40a005416604051908152f35b3461015a575f60031936011261015a57602060405173ffffffffffffffffffffffffffffffffffffffff7f0000000000000000000000000000000000000000000000000000000000000000168152f35b3461015a575f60031936011261015a576106106040516105d2604082611d07565b600581527f352e302e300000000000000000000000000000000000000000000000000000006020820152604051918291602083526020830190611e18565b0390f35b3461015a5761062236611e89565b6040517f8ae2ba5900000000000000000000000000000000000000000000000000000000815260208160048173ffffffffffffffffffffffffffffffffffffffff7f0000000000000000000000000000000000000000000000000000000000000000165afa80156108b85773ffffffffffffffffffffffffffffffffffffffff915f91610889575b5016330361080557816040917fffffffffffffffffffffffffffffffffffffffffffffffffffffffffffffff005f54165f558101031261015a5773ffffffffffffffffffffffffffffffffffffffff610707602083359301611cae565b169181156107a75773ffffffffffffffffffffffffffffffffffffffff91826001926040519261073684611ccf565b835260208301958652165f52603460205260405f2090518155019151167fffffffffffffffffffffffff000000000000000000000000000000000000000082541617905560017fffffffffffffffffffffffffffffffffffffffffffffffffffffffffffffff005f5416175f555f80f35b60646040517f9a20f4a800000000000000000000000000000000000000000000000000000000815260206004820152601b60248201527f496e76616c696420737562736372697074696f6e2070726963652e00000000006044820152fd5b60846040517f2ce89adb00000000000000000000000000000000000000000000000000000000815260206004820152602660248201527f4f6e6c792072696768747320706f6c69637920617574686f72697a657220616c60448201527f6c6f7765642e00000000000000000000000000000000000000000000000000006064820152fd5b6108ab915060203d6020116108b1575b6108a38183611d07565b8101906120d8565b856106aa565b503d610899565b6040513d5f823e3d90fd5b3461015a57604060031936011261015a576108dc611c8b565b6024359073ffffffffffffffffffffffffffffffffffffffff8216820361015a5760209161020391611fba565b3461015a57602060031936011261015a5760043567ffffffffffffffff811161015a5761093a903690600401611e5b565b60608060405161094981611ceb565b5f81525f60208201525f6040820152015261096481836123e2565b15610aad57816020918101031261015a5761099373ffffffffffffffffffffffffffffffffffffffff91611cae565b165f52603460205260405f2060206040516109ad81611ccf565b73ffffffffffffffffffffffffffffffffffffffff60018454948584520154169182910152604051916109df83611ceb565b825260208201908152604082016002815273ffffffffffffffffffffffffffffffffffffffff60405192610a14604085611d07565b600784527f697066733a2f2f00000000000000000000000000000000000000000000000000602085015260608501938452604051946020865251602086015251166040840152516004811015610a805782916106109160608401525160808084015260a0830190611e18565b7f4e487b71000000000000000000000000000000000000000000000000000000005f52602160045260245ffd5b7f0ea7889c000000000000000000000000000000000000000000000000000000005f5260045ffd5b3461015a575f60031936011261015a577ff3177357ab46d8af007ab3fdb9af81da189e1068fefdc0073dca88a2cab40a005460a01c60ff1615610b605760207f8fb36037000000000000000000000000000000000000000000000000000000005b7fffffffff0000000000000000000000000000000000000000000000000000000060405191168152f35b60205f610b36565b3461015a57602060031936011261015a57610b81611c8b565b73ffffffffffffffffffffffffffffffffffffffff7ff3177357ab46d8af007ab3fdb9af81da189e1068fefdc0073dca88a2cab40a0054163303610c1357803b15610bd157610bcf90612337565b005b73ffffffffffffffffffffffffffffffffffffffff907fc2f31e5e000000000000000000000000000000000000000000000000000000005f521660045260245ffd5b7f068ca9d8000000000000000000000000000000000000000000000000000000005f523360045260245ffd5b3461015a575f60031936011261015a57610610610160610c626040519182611d07565b61012781527f5468697320706f6c69637920666f6c6c6f77732061207375627363726970746960208201527f6f6e206d6f64656c2077697468206461696c792070726963696e672c20616c6c60408201527f6f77696e6720757365727320746f20616363657373206120636f6e74656e742060608201527f686f6c646572277320636174616c6f6720627920706179696e6720612064616960808201527f6c792066656520666f7220612063686f73656e206475726174696f6e2e0a0a4b60a08201527f65792066656174757265733a0a312920466c657869626c65207375627363726960c08201527f7074696f6e20706572696f64732073657420627920746865206173736574206860e08201527f6f6c6465722e0a322920496e7374616e742061636365737320746f20616c6c206101008201527f636f6e74656e7420647572696e672074686520737562736372697074696f6e206101208201527f706572696f642e00000000000000000000000000000000000000000000000000610140820152604051918291602083526020830190611e18565b3461015a575f60031936011261015a5773ffffffffffffffffffffffffffffffffffffffff7f0000000000000000000000000000000000000000000000000000000000000000163003610e715760206040517f360894a13ba1a3210667c828492db98dca3e2076cc3735a920a3ca505d382bbc8152f35b7fe07c8dba000000000000000000000000000000000000000000000000000000005f5260045ffd5b610ea236611dc8565b73ffffffffffffffffffffffffffffffffffffffff7f00000000000000000000000000000000000000000000000000000000000000001680301490811561129d575b50610e71576044604073ffffffffffffffffffffffffffffffffffffffff7fb8e950798a2a06a6f5727a94041b193569f4f67d69a0de3cf866d93822e7fa0054168151928380927fd1f856ee0000000000000000000000000000000000000000000000000000000082525f60048301523360248301525afa80156108b8575f915f9161124e575b508161123f575b50156111bb5773ffffffffffffffffffffffffffffffffffffffff8216916040517f52d1902d000000000000000000000000000000000000000000000000000000008152602081600481875afa5f9181611187575b50610ff857837f4c9c8ce3000000000000000000000000000000000000000000000000000000005f5260045260245ffd5b807f360894a13ba1a3210667c828492db98dca3e2076cc3735a920a3ca505d382bbc85920361115c5750813b1561113157807fffffffffffffffffffffffff00000000000000000000000000000000000000007f360894a13ba1a3210667c828492db98dca3e2076cc3735a920a3ca505d382bbc5416177f360894a13ba1a3210667c828492db98dca3e2076cc3735a920a3ca505d382bbc557fbc7cd75a20ee27fd9adebab32041f755214dbc6bffa90cc0225b39da2e5c2d3b5f80a2815115611100575f80836020610bcf95519101845af43d156110f8573d916110dc83611d48565b926110ea6040519485611d07565b83523d5f602085013e6124ac565b6060916124ac565b50503461110957005b7fb398979f000000000000000000000000000000000000000000000000000000005f5260045ffd5b7f4c9c8ce3000000000000000000000000000000000000000000000000000000005f5260045260245ffd5b7faa1d49a4000000000000000000000000000000000000000000000000000000005f5260045260245ffd5b9091506020813d6020116111b3575b816111a360209383611d07565b8101031261015a57519085610fc7565b3d9150611196565b60846040517f6317e35f00000000000000000000000000000000000000000000000000000000815260206004820152602360248201527f4f6e6c792061646d696e2063616e20706572666f726d2074686973206163746960448201527f6f6e2e00000000000000000000000000000000000000000000000000000000006064820152fd5b63ffffffff9150161583610f72565b9150506040813d604011611295575b8161126a60409383611d07565b8101031261015a57602061127d82611fad565b9101519063ffffffff8216820361015a579084610f6b565b3d915061125d565b905073ffffffffffffffffffffffffffffffffffffffff7f360894a13ba1a3210667c828492db98dca3e2076cc3735a920a3ca505d382bbc5416141583610ee4565b3461015a57604060031936011261015a576112f8611c8b565b6024359067ffffffffffffffff821161015a57816004019060e0600319843603011261015a5773ffffffffffffffffffffffffffffffffffffffff7f0000000000000000000000000000000000000000000000000000000000000000163303611ab95760ff5f541615611a915773ffffffffffffffffffffffffffffffffffffffff1690815f52603460205260405f206040519061139582611ccf565b73ffffffffffffffffffffffffffffffffffffffff6001825492838552015416602083015215611a0d5760648401359160a48501906113d48282611eda565b93905051936113ff6113ef866113ea8785612276565b612276565b946113fa8787611f2e565b611f2e565b81106119895762015180840284810462015180148515171561195c5742019687421161195c576040519060e0820182811067ffffffffffffffff82111761192f5760405261144c84611cae565b825261145a60248201611cae565b926020830193845261146e60448301611cae565b6040840190815260608401918252608084019060848401358252873567ffffffffffffffff811161015a5784013660238201121561015a576114ba903690602460048201359101611f59565b9460a0810195865260c48501359467ffffffffffffffff861161015a578c95369101600401906114e991611d82565b60c0820190815260405197889260208401602090525173ffffffffffffffffffffffffffffffffffffffff1660408401525173ffffffffffffffffffffffffffffffffffffffff166060830152825173ffffffffffffffffffffffffffffffffffffffff166080830152845160a0830152835160c0830152865160e0830160e090526101208301611579916122ad565b9051908281037fffffffffffffffffffffffffffffffffffffffffffffffffffffffffffffffc0016101008401526115b091611e18565b037fffffffffffffffffffffffffffffffffffffffffffffffffffffffffffffffe0810187526115e09087611d07565b5173ffffffffffffffffffffffffffffffffffffffff1684519560405196879286602085015260408401523060608401526080830160a0905260c08301611626916122ad565b8281037fffffffffffffffffffffffffffffffffffffffffffffffffffffffffffffffe00160a084015261165991611e18565b037fffffffffffffffffffffffffffffffffffffffffffffffffffffffffffffffe0810186526116899086611d07565b83515191519051906040519283526020830152604082015260607f691f94efcb078b0c5e51f84790e39320502dde298b327bb43ccd9f7cb1a9b83491a251906040519788927f8ca86cad000000000000000000000000000000000000000000000000000000008452600484016060905260648401611706916122ad565b90602484015282810360031901604484015261172191611e18565b03867f000000000000000000000000000000000000000000000000000000000000000073ffffffffffffffffffffffffffffffffffffffff1691815a5f948591f19586156108b8575f96611897575b506117859161177e91611eda565b3691611f59565b8051905f5b828110611808575050507fee94b033ef151baf8dc7ef281445b8da1393054811ea821ac65a84956ea107669160409182519182526020820152a26040518091602082016020835281518091526020604084019201905f5b8181106117ef575050500390f35b82518452859450602093840193909201916001016117e1565b6001908760405188602082015260208152611824604082611d07565b7f28978c88cb5e4642b7ad908585d16cc621e1e36b3f7130c942036832fb7b1508602061187d6118758673ffffffffffffffffffffffffffffffffffffffff61186d828c6122f6565b5116966122f6565b5193856121f8565b92835f528682528060405f2055604051908152a30161178a565b9095503d805f833e6118a98183611d07565b81019060208183031261015a5780519067ffffffffffffffff821161015a57019080601f8301121561015a5781516118e081611f41565b926118ee6040519485611d07565b81845260208085019260051b82010192831161015a57602001905b82821061191f5750919691506117859050611770565b8151815260209182019101611909565b7f4e487b71000000000000000000000000000000000000000000000000000000005f52604160045260245ffd5b7f4e487b71000000000000000000000000000000000000000000000000000000005f52601160045260245ffd5b60846040517f66360cb000000000000000000000000000000000000000000000000000000000815260206004820152602360248201527f496e73756666696369656e742066756e647320666f722073756273637269707460448201527f696f6e00000000000000000000000000000000000000000000000000000000006064820152fd5b60846040517f66360cb000000000000000000000000000000000000000000000000000000000815260206004820152602960248201527f496e76616c6964206e6f7420696e697469616c697a656420686f6c646572206360448201527f6f6e646974696f6e7300000000000000000000000000000000000000000000006064820152fd5b7f83403c5c000000000000000000000000000000000000000000000000000000005f5260045ffd5b60846040517f2ce89adb00000000000000000000000000000000000000000000000000000000815260206004820152602360248201527f4f6e6c792072696768747320706f6c696379206d616e6167657220616c6c6f7760448201527f65642e00000000000000000000000000000000000000000000000000000000006064820152fd5b3461015a575f60031936011261015a57602060ff5f54166040519015158152f35b3461015a575f60031936011261015a57610610604051611b7f604082611d07565b601281527f537562736372697074696f6e506f6c69637900000000000000000000000000006020820152604051918291602083526020830190611e18565b3461015a57602060031936011261015a576004357fffffffff00000000000000000000000000000000000000000000000000000000811680910361015a57807f49f49a770000000000000000000000000000000000000000000000000000000060209214908115611c34575b506040519015158152f35b7f01ffc9a70000000000000000000000000000000000000000000000000000000091501482611c29565b3461015a57611c75611c6f36611dc8565b906121f8565b5f526001602052602060405f2054604051908152f35b6004359073ffffffffffffffffffffffffffffffffffffffff8216820361015a57565b359073ffffffffffffffffffffffffffffffffffffffff8216820361015a57565b6040810190811067ffffffffffffffff82111761192f57604052565b6080810190811067ffffffffffffffff82111761192f57604052565b90601f7fffffffffffffffffffffffffffffffffffffffffffffffffffffffffffffffe0910116810190811067ffffffffffffffff82111761192f57604052565b67ffffffffffffffff811161192f57601f017fffffffffffffffffffffffffffffffffffffffffffffffffffffffffffffffe01660200190565b81601f8201121561015a57803590611d9982611d48565b92611da76040519485611d07565b8284526020838301011161015a57815f926020809301838601378301015290565b90604060031983011261015a5760043573ffffffffffffffffffffffffffffffffffffffff8116810361015a57916024359067ffffffffffffffff821161015a57611e1591600401611d82565b90565b907fffffffffffffffffffffffffffffffffffffffffffffffffffffffffffffffe0601f602080948051918291828752018686015e5f8582860101520116010190565b9181601f8401121561015a5782359167ffffffffffffffff831161015a576020838186019501011161015a57565b90604060031983011261015a5760043573ffffffffffffffffffffffffffffffffffffffff8116810361015a57916024359067ffffffffffffffff821161015a57611ed691600401611e5b565b9091565b9035907fffffffffffffffffffffffffffffffffffffffffffffffffffffffffffffffe18136030182121561015a570180359067ffffffffffffffff821161015a57602001918160051b3603831361015a57565b8181029291811591840414171561195c57565b67ffffffffffffffff811161192f5760051b60200190565b929190611f6581611f41565b93611f736040519586611d07565b602085838152019160051b810192831161015a57905b828210611f9557505050565b60208091611fa284611cae565b815201910190611f89565b5190811515820361015a57565b90611ff39073ffffffffffffffffffffffffffffffffffffffff6040519116602082015260208152611fed604082611d07565b826121f8565b5f52600160205260405f20549081156120d25773ffffffffffffffffffffffffffffffffffffffff90604051927febfa62b9000000000000000000000000000000000000000000000000000000008452600484015216602482015260208160448173ffffffffffffffffffffffffffffffffffffffff7f0000000000000000000000000000000000000000000000000000000000000000165afa9081156108b8575f9161209e575090565b90506020813d6020116120ca575b816120b960209383611d07565b8101031261015a57611e1590611fad565b3d91506120ac565b50505f90565b9081602091031261015a575173ffffffffffffffffffffffffffffffffffffffff8116810361015a5790565b90918260209161211481836123e2565b612133578101031261015a5761212d611e159235612163565b90611fba565b8101031261015a5773ffffffffffffffffffffffffffffffffffffffff61215c611e1593611cae565b1690611fba565b604051907f6352211e000000000000000000000000000000000000000000000000000000008252600482015260208160248173ffffffffffffffffffffffffffffffffffffffff7f0000000000000000000000000000000000000000000000000000000000000000165afa9081156108b8575f916121df575090565b611e15915060203d6020116108b1576108a38183611d07565b9061227060346020926040519384917fffffffffffffffffffffffffffffffffffffffff0000000000000000000000008284019760601b1687528051918291018484015e81015f8382015203017fffffffffffffffffffffffffffffffffffffffffffffffffffffffffffffffe08101835282611d07565b51902090565b8115612280570490565b7f4e487b71000000000000000000000000000000000000000000000000000000005f52601260045260245ffd5b90602080835192838152019201905f5b8181106122ca5750505090565b825173ffffffffffffffffffffffffffffffffffffffff168452602093840193909201916001016122bd565b805182101561230a5760209160051b010190565b7f4e487b71000000000000000000000000000000000000000000000000000000005f52603260045260245ffd5b602073ffffffffffffffffffffffffffffffffffffffff7f2f658b440c35314f52658ea8a740e05b284cdc84dc9ae01e891f21b8933e7cad9216807fffffffffffffffffffffffff00000000000000000000000000000000000000007ff3177357ab46d8af007ab3fdb9af81da189e1068fefdc0073dca88a2cab40a005416177ff3177357ab46d8af007ab3fdb9af81da189e1068fefdc0073dca88a2cab40a0055604051908152a1565b60208203610aad578160201161015a577fffffffffffffffffffffffffffffffffffffffff000000000000000000000000600c82013516151591600c1161015a578161242c575090565b7fffffffffffffffffffffffff0000000000000000000000000000000000000000915035161590565b60ff7ff0c57e16840df040f15088dc2f81fe391c3923bec73e23a9662efc9c229c6a005460401c161561248457565b7fd7e6bcf8000000000000000000000000000000000000000000000000000000005f5260045ffd5b906124e957508051156124c157805190602001fd5b7fd6bda275000000000000000000000000000000000000000000000000000000005f5260045ffd5b8151158061253c575b6124fa575090565b73ffffffffffffffffffffffffffffffffffffffff907f9996b315000000000000000000000000000000000000000000000000000000005f521660045260245ffd5b50803b156124f256fea26469706673582212200aec7ca129165d98a1c25ccb75c6e5b7bb7caf25bf202335cc22b7dce7d5cb6f64736f6c634300081a0033","linkReferences":{}},"methodIdentifiers":{"ASSET_OWNERSHIP()":"f520d4eb","ATTESTATION_PROVIDER()":"19ad44fc","RIGHTS_POLICY_MANAGER()":"f1bdc452","UPGRADE_INTERFACE_VERSION()":"ad3cb1cc","_isCompliant(address,address)":"a5cc2dbb","authority()":"bf7e214f","description()":"7284e416","enforce(address,(address,address,address,uint256,uint256,address[],bytes))":"464c0aeb","getAttestationProvider()":"b1b87ffb","getHolder(uint256)":"e8a96b46","getLicense(address,bytes)":"009e11ff","initialize(address)":"c4d66de8","isAccessAllowed(address,bytes)":"cfdce1a7","isActive()":"22f3e2d4","isConsumingScheduledOp()":"8fb36037","name()":"06fdde03","proxiableUUID()":"52d1902d","resolveTerms(bytes)":"a3937111","setAuthority(address)":"7a9e5e4b","setup(address,bytes)":"a6a8543b","supportsInterface(bytes4)":"01ffc9a7","upgradeToAndCall(address,bytes)":"4f1ef286"},"storageLayout":{"storage":[{"astId":52740,"contract":"contracts/policies/SubscriptionPolicy.sol:SubscriptionPolicy","label":"_active","offset":0,"slot":"0","type":"t_bool"},{"astId":52745,"contract":"contracts/policies/SubscriptionPolicy.sol:SubscriptionPolicy","label":"_attestations","offset":0,"slot":"1","type":"t_mapping(t_bytes32,t_uint256)"},{"astId":52750,"contract":"contracts/policies/SubscriptionPolicy.sol:SubscriptionPolicy","label":"__gap","offset":0,"slot":"2","type":"t_array(t_uint256)50_storage"},{"astId":2236,"contract":"contracts/policies/SubscriptionPolicy.sol:SubscriptionPolicy","label":"_packages","offset":0,"slot":"52","type":"t_mapping(t_address,t_struct(Package)2231_storage)"}],"types":{"t_address":{"encoding":"inplace","label":"address","numberOfBytes":"20"},"t_array(t_uint256)50_storage":{"encoding":"inplace","label":"uint256[50]","numberOfBytes":"1600","base":"t_uint256"},"t_bool":{"encoding":"inplace","label":"bool","numberOfBytes":"1"},"t_bytes32":{"encoding":"inplace","label":"bytes32","numberOfBytes":"32"},"t_mapping(t_address,t_struct(Package)2231_storage)":{"encoding":"mapping","key":"t_address","label":"mapping(address => struct SubscriptionPolicy.Package)","numberOfBytes":"32","value":"t_struct(Package)2231_storage"},"t_mapping(t_bytes32,t_uint256)":{"encoding":"mapping","key":"t_bytes32","label":"mapping(bytes32 => uint256)","numberOfBytes":"32","value":"t_uint256"},"t_struct(Package)2231_storage":{"encoding":"inplace","label":"struct SubscriptionPolicy.Package","numberOfBytes":"64","members":[{"astId":2228,"contract":"contracts/policies/SubscriptionPolicy.sol:SubscriptionPolicy","label":"pricePerDay","offset":0,"slot":"0","type":"t_uint256"},{"astId":2230,"contract":"contracts/policies/SubscriptionPolicy.sol:SubscriptionPolicy","label":"currency","offset":0,"slot":"1","type":"t_address"}]},"t_uint256":{"encoding":"inplace","label":"uint256","numberOfBytes":"32"}}},"id":14}