{"abi":[{"type":"constructor","inputs":[{"name":"rightPolicyManagerAddress","type":"address","internalType":"address"},{"name":"ownershipAddress","type":"address","internalType":"address"},{"name":"providerAddress","type":"address","internalType":"address"}],"stateMutability":"nonpayable"},{"type":"function","name":"ASSET_OWNERSHIP","inputs":[],"outputs":[{"name":"","type":"address","internalType":"contract IAssetOwnership"}],"stateMutability":"view"},{"type":"function","name":"ATTESTATION_PROVIDER","inputs":[],"outputs":[{"name":"","type":"address","internalType":"contract IAttestationProvider"}],"stateMutability":"view"},{"type":"function","name":"RIGHTS_POLICY_MANAGER","inputs":[],"outputs":[{"name":"","type":"address","internalType":"contract IRightsPolicyManager"}],"stateMutability":"view"},{"type":"function","name":"attestations","inputs":[{"name":"","type":"address","internalType":"address"}],"outputs":[{"name":"","type":"uint256","internalType":"uint256"}],"stateMutability":"view"},{"type":"function","name":"description","inputs":[],"outputs":[{"name":"","type":"string","internalType":"string"}],"stateMutability":"pure"},{"type":"function","name":"enforce","inputs":[{"name":"holder","type":"address","internalType":"address"},{"name":"agreement","type":"tuple","internalType":"struct T.Agreement","components":[{"name":"active","type":"bool","internalType":"bool"},{"name":"broker","type":"address","internalType":"address"},{"name":"currency","type":"address","internalType":"address"},{"name":"initiator","type":"address","internalType":"address"},{"name":"createdAt","type":"uint256","internalType":"uint256"},{"name":"amount","type":"uint256","internalType":"uint256"},{"name":"fees","type":"uint256","internalType":"uint256"},{"name":"available","type":"uint256","internalType":"uint256"},{"name":"parties","type":"address[]","internalType":"address[]"},{"name":"payload","type":"bytes","internalType":"bytes"}]}],"outputs":[{"name":"","type":"uint256","internalType":"uint256"}],"stateMutability":"nonpayable"},{"type":"function","name":"getAttestation","inputs":[{"name":"recipient","type":"address","internalType":"address"}],"outputs":[{"name":"","type":"uint256","internalType":"uint256"}],"stateMutability":"view"},{"type":"function","name":"getAttestationProvider","inputs":[],"outputs":[{"name":"","type":"address","internalType":"address"}],"stateMutability":"view"},{"type":"function","name":"getHolder","inputs":[{"name":"assetId","type":"uint256","internalType":"uint256"}],"outputs":[{"name":"","type":"address","internalType":"address"}],"stateMutability":"view"},{"type":"function","name":"initialize","inputs":[{"name":"holder","type":"address","internalType":"address"},{"name":"init","type":"bytes","internalType":"bytes"}],"outputs":[],"stateMutability":"nonpayable"},{"type":"function","name":"isAccessAllowed","inputs":[{"name":"account","type":"address","internalType":"address"},{"name":"","type":"uint256","internalType":"uint256"}],"outputs":[{"name":"","type":"bool","internalType":"bool"}],"stateMutability":"view"},{"type":"function","name":"isCompliant","inputs":[{"name":"account","type":"address","internalType":"address"}],"outputs":[{"name":"","type":"bool","internalType":"bool"}],"stateMutability":"view"},{"type":"function","name":"isInitialized","inputs":[],"outputs":[{"name":"","type":"bool","internalType":"bool"}],"stateMutability":"view"},{"type":"function","name":"name","inputs":[],"outputs":[{"name":"","type":"string","internalType":"string"}],"stateMutability":"pure"},{"type":"function","name":"resolveTerms","inputs":[{"name":"holder","type":"address","internalType":"address"}],"outputs":[{"name":"","type":"tuple","internalType":"struct T.Terms","components":[{"name":"amount","type":"uint256","internalType":"uint256"},{"name":"currency","type":"address","internalType":"address"},{"name":"rateBasis","type":"uint8","internalType":"enum T.RateBasis"},{"name":"uri","type":"string","internalType":"string"}]}],"stateMutability":"view"},{"type":"function","name":"resolveTerms","inputs":[{"name":"","type":"uint256","internalType":"uint256"}],"outputs":[{"name":"","type":"tuple","internalType":"struct T.Terms","components":[{"name":"amount","type":"uint256","internalType":"uint256"},{"name":"currency","type":"address","internalType":"address"},{"name":"rateBasis","type":"uint8","internalType":"enum T.RateBasis"},{"name":"uri","type":"string","internalType":"string"}]}],"stateMutability":"view"},{"type":"function","name":"supportsInterface","inputs":[{"name":"interfaceId","type":"bytes4","internalType":"bytes4"}],"outputs":[{"name":"","type":"bool","internalType":"bool"}],"stateMutability":"view"},{"type":"event","name":"AccessGranted","inputs":[{"name":"holder","type":"address","indexed":true,"internalType":"address"},{"name":"account","type":"address","indexed":true,"internalType":"address"},{"name":"attestationId","type":"uint256","indexed":false,"internalType":"uint256"}],"anonymous":false},{"type":"error","name":"InvalidAssetHolder","inputs":[]},{"type":"error","name":"InvalidAttestation","inputs":[]},{"type":"error","name":"InvalidEnforcement","inputs":[{"name":"reason","type":"string","internalType":"string"}]},{"type":"error","name":"InvalidInitialization","inputs":[{"name":"reason","type":"string","internalType":"string"}]},{"type":"error","name":"InvalidNotSupportedOperation","inputs":[]},{"type":"error","name":"InvalidPolicyInitialization","inputs":[]},{"type":"error","name":"InvalidUnauthorizedCall","inputs":[{"name":"reason","type":"string","internalType":"string"}]},{"type":"error","name":"ReentrancyGuardReentrantCall","inputs":[]}],"bytecode":{"object":"0x60e0346100c857601f6116be38819003918201601f19168301916001600160401b038311848410176100cc578084926060946040528339810103126100c857610047816100e0565b61005f6040610058602085016100e0565b93016100e0565b60015f556001600160a01b0390811660805290811660a0521660c0526040516115c990816100f58239608051818181610a9001528181610d8e01526113ce015260a05181818161019c015281816103800152610620015260c05181818161014c015261021c0152f35b5f80fd5b634e487b7160e01b5f52604160045260245ffd5b51906001600160a01b03821682036100c85756fe6080806040526004361015610012575f80fd5b5f3560e01c90816301ffc9a71461118e5750806306fdde031461112f57806319ad44fc14610d6257806320357048146100d7578063392e53cd1461110d5780633c6a5ee314610fbc5780637284e41614610dfd578063a200e5d014610ddf578063ac3e8fb014610db2578063b1b87ffb14610d62578063c43e04c0146105c9578063d1f57894146102e7578063dccc792f146102a5578063e8a96b46146101c0578063f1bdc45214610170578063f520d4eb146101205763f9b71797146100d7575f80fd5b3461011c57602060031936011261011c5773ffffffffffffffffffffffffffffffffffffffff61010561126f565b165f526002602052602060405f2054604051908152f35b5f80fd5b3461011c575f60031936011261011c57602060405173ffffffffffffffffffffffffffffffffffffffff7f0000000000000000000000000000000000000000000000000000000000000000168152f35b3461011c575f60031936011261011c57602060405173ffffffffffffffffffffffffffffffffffffffff7f0000000000000000000000000000000000000000000000000000000000000000168152f35b3461011c57602060031936011261011c576040517f6352211e000000000000000000000000000000000000000000000000000000008152600435600482015260208160248173ffffffffffffffffffffffffffffffffffffffff7f0000000000000000000000000000000000000000000000000000000000000000165afa801561029a576020915f9161026d575b5073ffffffffffffffffffffffffffffffffffffffff60405191168152f35b61028d9150823d8411610293575b61028581836112eb565b8101906114dd565b8261024e565b503d61027b565b6040513d5f823e3d90fd5b3461011c57602060031936011261011c576102be61132c565b507f0ea7889c000000000000000000000000000000000000000000000000000000005f5260045ffd5b3461011c57604060031936011261011c5761030061126f565b60243567ffffffffffffffff811161011c573660238201121561011c57806004013567ffffffffffffffff811161011c57810136602482011161011c576040517f8ae2ba5900000000000000000000000000000000000000000000000000000000815260208160048173ffffffffffffffffffffffffffffffffffffffff7f0000000000000000000000000000000000000000000000000000000000000000165afa801561029a5773ffffffffffffffffffffffffffffffffffffffff915f916105aa575b5016330361052657600180547fffffffffffffffffffffffffffffffffffffffffffffffffffffffffffffff001690556040908290031261011c57604460248201359101359173ffffffffffffffffffffffffffffffffffffffff831680930361011c5781156104c85773ffffffffffffffffffffffffffffffffffffffff918260019260405192610456846112b3565b835260208301958652165f52600360205260405f2090518155019151167fffffffffffffffffffffffff000000000000000000000000000000000000000082541617905560017fffffffffffffffffffffffffffffffffffffffffffffffffffffffffffffff00815416176001555f80f35b60646040517f8e53d58600000000000000000000000000000000000000000000000000000000815260206004820152601b60248201527f496e76616c696420737562736372697074696f6e2070726963652e00000000006044820152fd5b60846040517f2ce89adb00000000000000000000000000000000000000000000000000000000815260206004820152602660248201527f4f6e6c792072696768747320706f6c69637920617574686f72697a657220616c60448201527f6c6f7765642e00000000000000000000000000000000000000000000000000006064820152fd5b6105c3915060203d6020116102935761028581836112eb565b856103c5565b3461011c57604060031936011261011c576105e261126f565b6024359067ffffffffffffffff821161011c578160040190610140600319843603011261011c5773ffffffffffffffffffffffffffffffffffffffff7f0000000000000000000000000000000000000000000000000000000000000000163303610cde5760ff6001541615610cb65773ffffffffffffffffffffffffffffffffffffffff1691825f52600360205260405f2073ffffffffffffffffffffffffffffffffffffffff600160405192610698846112b3565b80548452015416602082015260a4820135926101048301916106f06106de6106d66106ce6106c6878761143f565b905089611493565b845190611493565b9251836114ca565b6106e8858561143f565b9190506114ca565b8510610c325762015180810290808204620151801490151715610c0557420191824211610c055760405191610140830183811067ffffffffffffffff821117610bc05760405235801515810361011c57825261074e60248501611292565b906020830191825261076260448601611292565b906040840191825261077660648701611292565b966060850197885260808501906084880135825260a0860190815260c086019160c4890135835260e087019360e48a013585523567ffffffffffffffff811161011c578901983660238b01121561011c5760048a01359967ffffffffffffffff8b11610bc0578a60051b60206004816040519e8f906107f7838701836112eb565b81520192840101019136831161011c57602401905b828210610bed575050506101008801998a526101248101359067ffffffffffffffff821161011c5701993660238c01121561011c5760048b01359567ffffffffffffffff8711610bc0576040519661088c601f82017fffffffffffffffffffffffffffffffffffffffffffffffffffffffffffffffe016602001896112eb565b8088523660248e8301011161011c578060248f9e9f9b9a999897969594939f01602089013786016020015f90526101208801958652805173ffffffffffffffffffffffffffffffffffffffff169c8b516040519e8f9b60208d015260408c01523060608c015260808b0160a0905260c08b0161090791611509565b978a89037fffffffffffffffffffffffffffffffffffffffffffffffffffffffffffffffe00160a08c015261014089019951151589525173ffffffffffffffffffffffffffffffffffffffff1660208901525173ffffffffffffffffffffffffffffffffffffffff1660408801525173ffffffffffffffffffffffffffffffffffffffff1660608701525160808601525160a08501525160c08401525160e0830152855192610100830161014090528351809152610160830193602001905f5b818110610b9157505050926109f160209593610a1d93610a5f96519061012081840391015261122c565b037fffffffffffffffffffffffffffffffffffffffffffffffffffffffffffffffe081018852876112eb565b610a7684519160405197889485947f8ca86cad000000000000000000000000000000000000000000000000000000008652606060048701526064860190611509565b91602485015260031984830301604485015261122c565b03815f73ffffffffffffffffffffffffffffffffffffffff7f0000000000000000000000000000000000000000000000000000000000000000165af192831561029a575f93610b5d575b5051908151915f5b838110610ada57602085604051908152f35b8073ffffffffffffffffffffffffffffffffffffffff610afc60019385611552565b51165f5260026020528560405f205573ffffffffffffffffffffffffffffffffffffffff610b2a8285611552565b5116847f65d0cc1e52d49938ca4ad9f423c79c1b84d914b9a683fbc5d3f93ac3cc5635f560206040518a8152a301610ac8565b9092506020813d602011610b89575b81610b79602093836112eb565b8101031261011c57519183610ac0565b3d9150610b6c565b825173ffffffffffffffffffffffffffffffffffffffff1686528a9650602095860195909201916001016109c7565b7f4e487b71000000000000000000000000000000000000000000000000000000005f52604160045260245ffd5b60208091610bfa84611292565b81520191019061080c565b7f4e487b71000000000000000000000000000000000000000000000000000000005f52601160045260245ffd5b60846040517f66360cb000000000000000000000000000000000000000000000000000000000815260206004820152602360248201527f496e73756666696369656e742066756e647320666f722073756273637269707460448201527f696f6e00000000000000000000000000000000000000000000000000000000006064820152fd5b7f83403c5c000000000000000000000000000000000000000000000000000000005f5260045ffd5b60846040517f2ce89adb00000000000000000000000000000000000000000000000000000000815260206004820152602360248201527f4f6e6c792072696768747320706f6c696379206d616e6167657220616c6c6f7760448201527f65642e00000000000000000000000000000000000000000000000000000000006064820152fd5b3461011c575f60031936011261011c57602060405173ffffffffffffffffffffffffffffffffffffffff7f0000000000000000000000000000000000000000000000000000000000000000168152f35b3461011c57604060031936011261011c576020610dd5610dd061126f565b611350565b6040519015158152f35b3461011c57602060031936011261011c576020610dd5610dd061126f565b3461011c575f60031936011261011c57610fb8610160610e2060405191826112eb565b61012781527f5468697320706f6c69637920666f6c6c6f77732061207375627363726970746960208201527f6f6e206d6f64656c2077697468206461696c792070726963696e672c20616c6c60408201527f6f77696e6720757365727320746f20616363657373206120636f6e74656e742060608201527f686f6c646572277320636174616c6f6720627920706179696e6720612064616960808201527f6c792066656520666f7220612063686f73656e206475726174696f6e2e0a0a4b60a08201527f65792066656174757265733a0a312920466c657869626c65207375627363726960c08201527f7074696f6e20706572696f64732073657420627920746865206173736574206860e08201527f6f6c6465722e0a322920496e7374616e742061636365737320746f20616c6c206101008201527f636f6e74656e7420647572696e672074686520737562736372697074696f6e206101208201527f706572696f642e0000000000000000000000000000000000000000000000000061014082015260405191829160208352602083019061122c565b0390f35b3461011c57602060031936011261011c5773ffffffffffffffffffffffffffffffffffffffff610fea61126f565b610ff261132c565b50165f52600360205260405f20602060405161100d816112b3565b73ffffffffffffffffffffffffffffffffffffffff600184549485845201541691829101526040519161103f836112cf565b825260208201908152604082016002815273ffffffffffffffffffffffffffffffffffffffff604051926110746040856112eb565b600784527f697066733a2f2f000000000000000000000000000000000000000000000000006020850152606085019384526040519460208652516020860152511660408401525160048110156110e0578291610fb89160608401525160808084015260a083019061122c565b7f4e487b71000000000000000000000000000000000000000000000000000000005f52602160045260245ffd5b3461011c575f60031936011261011c57602060ff600154166040519015158152f35b3461011c575f60031936011261011c57610fb86040516111506040826112eb565b601281527f537562736372697074696f6e506f6c6963790000000000000000000000000000602082015260405191829160208352602083019061122c565b3461011c57602060031936011261011c57600435907fffffffff00000000000000000000000000000000000000000000000000000000821680920361011c57817f652586510000000000000000000000000000000000000000000000000000000060209314908115611202575b5015158152f35b7f01ffc9a700000000000000000000000000000000000000000000000000000000915014836111fb565b907fffffffffffffffffffffffffffffffffffffffffffffffffffffffffffffffe0601f602080948051918291828752018686015e5f8582860101520116010190565b6004359073ffffffffffffffffffffffffffffffffffffffff8216820361011c57565b359073ffffffffffffffffffffffffffffffffffffffff8216820361011c57565b6040810190811067ffffffffffffffff821117610bc057604052565b6080810190811067ffffffffffffffff821117610bc057604052565b90601f7fffffffffffffffffffffffffffffffffffffffffffffffffffffffffffffffe0910116810190811067ffffffffffffffff821117610bc057604052565b60405190611339826112cf565b606080835f81525f60208201525f60408201520152565b73ffffffffffffffffffffffffffffffffffffffff16805f52600260205260405f205490811561143957604051917f993538460000000000000000000000000000000000000000000000000000000083526004830152306024830152604482015260208160648173ffffffffffffffffffffffffffffffffffffffff7f0000000000000000000000000000000000000000000000000000000000000000165afa90811561029a575f91611401575090565b90506020813d602011611431575b8161141c602093836112eb565b8101031261011c5751801515810361011c5790565b3d915061140f565b50505f90565b9035907fffffffffffffffffffffffffffffffffffffffffffffffffffffffffffffffe18136030182121561011c570180359067ffffffffffffffff821161011c57602001918160051b3603831361011c57565b811561149d570490565b7f4e487b71000000000000000000000000000000000000000000000000000000005f52601260045260245ffd5b81810292918115918404141715610c0557565b9081602091031261011c575173ffffffffffffffffffffffffffffffffffffffff8116810361011c5790565b90602080835192838152019201905f5b8181106115265750505090565b825173ffffffffffffffffffffffffffffffffffffffff16845260209384019390920191600101611519565b80518210156115665760209160051b010190565b7f4e487b71000000000000000000000000000000000000000000000000000000005f52603260045260245ffdfea26469706673582212200eb9d732796e2fefbc1213570a6f02b93647710d7054a6ae0463a40445debbeb64736f6c634300081a0033","linkReferences":{}},"methodIdentifiers":{"ASSET_OWNERSHIP()":"f520d4eb","ATTESTATION_PROVIDER()":"19ad44fc","RIGHTS_POLICY_MANAGER()":"f1bdc452","attestations(address)":"20357048","description()":"7284e416","enforce(address,(bool,address,address,address,uint256,uint256,uint256,uint256,address[],bytes))":"c43e04c0","getAttestation(address)":"f9b71797","getAttestationProvider()":"b1b87ffb","getHolder(uint256)":"e8a96b46","initialize(address,bytes)":"d1f57894","isAccessAllowed(address,uint256)":"ac3e8fb0","isCompliant(address)":"a200e5d0","isInitialized()":"392e53cd","name()":"06fdde03","resolveTerms(address)":"3c6a5ee3","resolveTerms(uint256)":"dccc792f","supportsInterface(bytes4)":"01ffc9a7"},"storageLayout":{"storage":[{"astId":59388,"contract":"contracts/policies/access/SubscriptionPolicy.sol:SubscriptionPolicy","label":"_status","offset":0,"slot":"0","type":"t_uint256"},{"astId":3736,"contract":"contracts/policies/access/SubscriptionPolicy.sol:SubscriptionPolicy","label":"_initialized","offset":0,"slot":"1","type":"t_bool"},{"astId":3741,"contract":"contracts/policies/access/SubscriptionPolicy.sol:SubscriptionPolicy","label":"attestations","offset":0,"slot":"2","type":"t_mapping(t_address,t_uint256)"},{"astId":4338,"contract":"contracts/policies/access/SubscriptionPolicy.sol:SubscriptionPolicy","label":"_packages","offset":0,"slot":"3","type":"t_mapping(t_address,t_struct(Package)4333_storage)"}],"types":{"t_address":{"encoding":"inplace","label":"address","numberOfBytes":"20"},"t_bool":{"encoding":"inplace","label":"bool","numberOfBytes":"1"},"t_mapping(t_address,t_struct(Package)4333_storage)":{"encoding":"mapping","key":"t_address","label":"mapping(address => struct SubscriptionPolicy.Package)","numberOfBytes":"32","value":"t_struct(Package)4333_storage"},"t_mapping(t_address,t_uint256)":{"encoding":"mapping","key":"t_address","label":"mapping(address => uint256)","numberOfBytes":"32","value":"t_uint256"},"t_struct(Package)4333_storage":{"encoding":"inplace","label":"struct SubscriptionPolicy.Package","numberOfBytes":"64","members":[{"astId":4330,"contract":"contracts/policies/access/SubscriptionPolicy.sol:SubscriptionPolicy","label":"pricePerDay","offset":0,"slot":"0","type":"t_uint256"},{"astId":4332,"contract":"contracts/policies/access/SubscriptionPolicy.sol:SubscriptionPolicy","label":"currency","offset":0,"slot":"1","type":"t_address"}]},"t_uint256":{"encoding":"inplace","label":"uint256","numberOfBytes":"32"}}},"id":52}