{"abi":[{"type":"constructor","inputs":[{"name":"ledgerVault","type":"address","internalType":"address"},{"name":"mmc","type":"address","internalType":"address"},{"name":"policy","type":"address","internalType":"address"}],"stateMutability":"nonpayable"},{"type":"function","name":"LEDGER_VAULT","inputs":[],"outputs":[{"name":"","type":"address","internalType":"contract ILedgerVault"}],"stateMutability":"view"},{"type":"function","name":"MMC","inputs":[],"outputs":[{"name":"","type":"address","internalType":"address"}],"stateMutability":"view"},{"type":"function","name":"POLICY","inputs":[],"outputs":[{"name":"","type":"address","internalType":"contract IPolicy"}],"stateMutability":"view"},{"type":"function","name":"UPGRADE_INTERFACE_VERSION","inputs":[],"outputs":[{"name":"","type":"string","internalType":"string"}],"stateMutability":"view"},{"type":"function","name":"addFunds","inputs":[{"name":"amount","type":"uint256","internalType":"uint256"}],"outputs":[],"stateMutability":"nonpayable"},{"type":"function","name":"authority","inputs":[],"outputs":[{"name":"","type":"address","internalType":"address"}],"stateMutability":"view"},{"type":"function","name":"getFundsBalance","inputs":[{"name":"account","type":"address","internalType":"address"}],"outputs":[{"name":"","type":"uint256","internalType":"uint256"}],"stateMutability":"view"},{"type":"function","name":"getLedgerBalance","inputs":[{"name":"account","type":"address","internalType":"address"},{"name":"currency","type":"address","internalType":"address"}],"outputs":[{"name":"","type":"uint256","internalType":"uint256"}],"stateMutability":"view"},{"type":"function","name":"getMaxRateLimit","inputs":[{"name":"account","type":"address","internalType":"address"}],"outputs":[{"name":"","type":"uint256","internalType":"uint256"}],"stateMutability":"view"},{"type":"function","name":"getPolicyAllocation","inputs":[{"name":"account","type":"address","internalType":"address"},{"name":"broker","type":"address","internalType":"address"}],"outputs":[{"name":"","type":"uint256","internalType":"uint256"}],"stateMutability":"view"},{"type":"function","name":"getRateCounter","inputs":[{"name":"account","type":"address","internalType":"address"}],"outputs":[{"name":"","type":"uint256","internalType":"uint256"}],"stateMutability":"view"},{"type":"function","name":"getTerms","inputs":[{"name":"account","type":"address","internalType":"address"},{"name":"broker","type":"address","internalType":"address"}],"outputs":[{"name":"","type":"tuple","internalType":"struct ICampaign.CampaignTerms","components":[{"name":"duration","type":"uint256","internalType":"uint256"},{"name":"allocation","type":"uint256","internalType":"uint256"}]}],"stateMutability":"view"},{"type":"function","name":"initialize","inputs":[{"name":"accessManager","type":"address","internalType":"address"}],"outputs":[],"stateMutability":"nonpayable"},{"type":"function","name":"isActiveCampaign","inputs":[{"name":"account","type":"address","internalType":"address"},{"name":"broker","type":"address","internalType":"address"}],"outputs":[{"name":"","type":"bool","internalType":"bool"}],"stateMutability":"view"},{"type":"function","name":"isConsumingScheduledOp","inputs":[],"outputs":[{"name":"","type":"bytes4","internalType":"bytes4"}],"stateMutability":"view"},{"type":"function","name":"paused","inputs":[],"outputs":[{"name":"","type":"bool","internalType":"bool"}],"stateMutability":"view"},{"type":"function","name":"proxiableUUID","inputs":[],"outputs":[{"name":"","type":"bytes32","internalType":"bytes32"}],"stateMutability":"view"},{"type":"function","name":"removeFunds","inputs":[{"name":"amount","type":"uint256","internalType":"uint256"}],"outputs":[],"stateMutability":"nonpayable"},{"type":"function","name":"run","inputs":[{"name":"sponsor","type":"address","internalType":"address"},{"name":"account","type":"address","internalType":"address"}],"outputs":[{"name":"","type":"uint256","internalType":"uint256"}],"stateMutability":"nonpayable"},{"type":"function","name":"setAuthority","inputs":[{"name":"newAuthority","type":"address","internalType":"address"}],"outputs":[],"stateMutability":"nonpayable"},{"type":"function","name":"setMaxRateLimit","inputs":[{"name":"limit","type":"uint256","internalType":"uint256"}],"outputs":[],"stateMutability":"nonpayable"},{"type":"function","name":"setPolicyAllocation","inputs":[{"name":"amount","type":"uint256","internalType":"uint256"},{"name":"broker","type":"address","internalType":"address"}],"outputs":[],"stateMutability":"nonpayable"},{"type":"function","name":"upgradeToAndCall","inputs":[{"name":"newImplementation","type":"address","internalType":"address"},{"name":"data","type":"bytes","internalType":"bytes"}],"outputs":[],"stateMutability":"payable"},{"type":"event","name":"AuthorityUpdated","inputs":[{"name":"authority","type":"address","indexed":false,"internalType":"address"}],"anonymous":false},{"type":"event","name":"CampaignRun","inputs":[{"name":"sponsor","type":"address","indexed":true,"internalType":"address"},{"name":"account","type":"address","indexed":false,"internalType":"address"},{"name":"amount","type":"uint256","indexed":false,"internalType":"uint256"}],"anonymous":false},{"type":"event","name":"FundsAdded","inputs":[{"name":"account","type":"address","indexed":false,"internalType":"address"},{"name":"amount","type":"uint256","indexed":false,"internalType":"uint256"}],"anonymous":false},{"type":"event","name":"FundsRemoved","inputs":[{"name":"account","type":"address","indexed":false,"internalType":"address"},{"name":"amount","type":"uint256","indexed":false,"internalType":"uint256"}],"anonymous":false},{"type":"event","name":"Initialized","inputs":[{"name":"version","type":"uint64","indexed":false,"internalType":"uint64"}],"anonymous":false},{"type":"event","name":"MaxRateLimitSet","inputs":[{"name":"account","type":"address","indexed":true,"internalType":"address"},{"name":"limit","type":"uint256","indexed":false,"internalType":"uint256"}],"anonymous":false},{"type":"event","name":"Paused","inputs":[{"name":"account","type":"address","indexed":false,"internalType":"address"}],"anonymous":false},{"type":"event","name":"PolicyAllocationSet","inputs":[{"name":"account","type":"address","indexed":true,"internalType":"address"},{"name":"broker","type":"address","indexed":true,"internalType":"address"},{"name":"amount","type":"uint256","indexed":false,"internalType":"uint256"}],"anonymous":false},{"type":"event","name":"Unpaused","inputs":[{"name":"account","type":"address","indexed":false,"internalType":"address"}],"anonymous":false},{"type":"event","name":"Upgraded","inputs":[{"name":"implementation","type":"address","indexed":true,"internalType":"address"}],"anonymous":false},{"type":"error","name":"AccessManagedInvalidAuthority","inputs":[{"name":"authority","type":"address","internalType":"address"}]},{"type":"error","name":"AccessManagedRequiredDelay","inputs":[{"name":"caller","type":"address","internalType":"address"},{"name":"delay","type":"uint32","internalType":"uint32"}]},{"type":"error","name":"AccessManagedUnauthorized","inputs":[{"name":"caller","type":"address","internalType":"address"}]},{"type":"error","name":"AddressEmptyCode","inputs":[{"name":"target","type":"address","internalType":"address"}]},{"type":"error","name":"ERC1967InvalidImplementation","inputs":[{"name":"implementation","type":"address","internalType":"address"}]},{"type":"error","name":"ERC1967NonPayable","inputs":[]},{"type":"error","name":"EnforcedPause","inputs":[]},{"type":"error","name":"ExpectedPause","inputs":[]},{"type":"error","name":"FailedCall","inputs":[]},{"type":"error","name":"InvalidInitialization","inputs":[]},{"type":"error","name":"InvalidUnauthorizedOperation","inputs":[{"name":"","type":"string","internalType":"string"}]},{"type":"error","name":"NotInitializing","inputs":[]},{"type":"error","name":"UUPSUnauthorizedCallContext","inputs":[]},{"type":"error","name":"UUPSUnsupportedProxiableUUID","inputs":[{"name":"slot","type":"bytes32","internalType":"bytes32"}]}],"bytecode":{"object":"0x610100346101b257601f61236638819003918201601f19168301916001600160401b038311848410176101b6578084926060946040528339810103126101b257610048816101ca565b6100606040610059602085016101ca565b93016101ca565b90306080527ff0c57e16840df040f15088dc2f81fe391c3923bec73e23a9662efc9c229c6a005460ff8160401c166101a3576002600160401b03196001600160401b0382160161013a575b506001600160a01b0390811660e0521660c05260a05260405161218790816101df8239608051818181611579015261167a015260a0518181816101b801528181610bec0152818161104c01528181611ab101528181611aeb0152611daf015260c0518181816105eb015261134f015260e0518181816102fb01528181610c4901528181610df50152611beb0152f35b6001600160401b0319166001600160401b039081177ff0c57e16840df040f15088dc2f81fe391c3923bec73e23a9662efc9c229c6a00556040519081527fc7f505b2f371ae2175ee4913f4499e1f2633a7b5936321eed1cdaeb6115181d290602090a15f6100ab565b63f92ee8a960e01b5f5260045ffd5b5f80fd5b634e487b7160e01b5f52604160045260245ffd5b51906001600160a01b03821682036101b25756fe6080806040526004361015610012575f80fd5b5f3560e01c90816301f7960014611de3575080632a363a9014611d395780632f38452314611ad557806344dea5a714611a855780634f1ef286146115f157806352d1902d146115525780635571df93146112915780635c975abb146112505780635d150187146111be57806372d2bf0914610fe65780637a9e5e4b14610f0f5780638fb3603714610e7c578063ad3cb1cc14610e19578063bc23e35e14610dc9578063be99970514610b9c578063bf7e214f14610b4a578063c4d66de81461082e578063c61f19b2146107e9578063c9f196a41461077b578063d1a72b5b146106a2578063d949b8441461060f578063dadbccee146105bf5763fc4dcacb14610119575f80fd5b346103c75760406003193601126103c757610132611e23565b61013a611e46565b9060ff7fcd5ed15c6e187e77e9aee88184c21f4f2182ab5827cb3b7e07fbedcd63f0330054166105975773ffffffffffffffffffffffffffffffffffffffff8116805f525f60205260405f205491815f52600260205260405f2073ffffffffffffffffffffffffffffffffffffffff33165f5260205260405f2054927f0000000000000000000000000000000000000000000000000000000000000000835f527fcb711bda070b7bbcc2b711ef3993cc17677144f4419b29e303bef375c5f40f0060205260405f2073ffffffffffffffffffffffffffffffffffffffff82165f5260205260405f20549273ffffffffffffffffffffffffffffffffffffffff871692835f52600160205260405f205494871561051357871161048f5784101561040b57600184018094116103de578186610285926102e1966020965f526001875260405f2055611f43565b6040517fb4fb2ea70000000000000000000000000000000000000000000000000000000081523360048201526024810186905273ffffffffffffffffffffffffffffffffffffffff909116604482015291829081906064820190565b03815f73ffffffffffffffffffffffffffffffffffffffff7f0000000000000000000000000000000000000000000000000000000000000000165af180156103d35761037d575b506040805173ffffffffffffffffffffffffffffffffffffffff9490941684526020808501849052937f016278ed156d0c840c4a75f61de5ab65a5e51849d11d1325ce5b91f00f2378c89190a2604051908152f35b926020843d6020116103cb575b8161039760209383611e85565b810103126103c75792507f016278ed156d0c840c4a75f61de5ab65a5e51849d11d1325ce5b91f00f2378c8610328565b5f80fd5b3d915061038a565b6040513d5f823e3d90fd5b7f4e487b71000000000000000000000000000000000000000000000000000000005f52601160045260245ffd5b60846040517f08c379a000000000000000000000000000000000000000000000000000000000815260206004820152602a60248201527f4578636565646564206d61782073706f6e736f7265642061636365737320696e60448201527f2063616d706169676e2e000000000000000000000000000000000000000000006064820152fd5b60846040517f08c379a000000000000000000000000000000000000000000000000000000000815260206004820152602760248201527f4e6f2066756e647320746f2073706f6e736f722061636365737320696e20636160448201527f6d706169676e2e000000000000000000000000000000000000000000000000006064820152fd5b60846040517f08c379a000000000000000000000000000000000000000000000000000000000815260206004820152602b60248201527f4e6f20706f6c69637920616c6c6f636174696f6e2073657420666f722074686960448201527f732063616d706169676e2e0000000000000000000000000000000000000000006064820152fd5b7fd93c0665000000000000000000000000000000000000000000000000000000005f5260045ffd5b346103c7575f6003193601126103c757602060405173ffffffffffffffffffffffffffffffffffffffff7f0000000000000000000000000000000000000000000000000000000000000000168152f35b346103c75760406003193601126103c757610628611e23565b73ffffffffffffffffffffffffffffffffffffffff61068c610648611e46565b9273ffffffffffffffffffffffffffffffffffffffff165f527fcb711bda070b7bbcc2b711ef3993cc17677144f4419b29e303bef375c5f40f0060205260405f2090565b91165f52602052602060405f2054604051908152f35b346103c75760206003193601126103c75760043580156106f757335f525f6020528060405f20556040519081527f13ba89ef96a96deb83090becd7c7a4ac146056bd2c143e7288b36d3167d1ecf260203392a2005b60846040517f08c379a000000000000000000000000000000000000000000000000000000000815260206004820152602560248201527f52617465206c696d6974206d7573742062652067726561746572207468616e2060448201527f7a65726f2e0000000000000000000000000000000000000000000000000000006064820152fd5b346103c75760406003193601126103c757610794611e23565b73ffffffffffffffffffffffffffffffffffffffff6107b1611e46565b91165f52600260205273ffffffffffffffffffffffffffffffffffffffff60405f2091165f52602052602060405f2054604051908152f35b346103c75760206003193601126103c75773ffffffffffffffffffffffffffffffffffffffff610817611e23565b165f526001602052602060405f2054604051908152f35b346103c75760206003193601126103c757610847611e23565b7ff0c57e16840df040f15088dc2f81fe391c3923bec73e23a9662efc9c229c6a005460ff8160401c16159167ffffffffffffffff821680159081610b42575b6001149081610b38575b159081610b2f575b50610b0757818360017fffffffffffffffffffffffffffffffffffffffffffffffff000000000000000073ffffffffffffffffffffffffffffffffffffffff9516177ff0c57e16840df040f15088dc2f81fe391c3923bec73e23a9662efc9c229c6a0055610ab2575b5061090a612061565b610912612061565b61091a612061565b7fffffffffffffffffffffffffffffffffffffffffffffffffffffffffffffff007fcd5ed15c6e187e77e9aee88184c21f4f2182ab5827cb3b7e07fbedcd63f0330054167fcd5ed15c6e187e77e9aee88184c21f4f2182ab5827cb3b7e07fbedcd63f0330055610988612061565b610990612061565b610998612061565b6109a0612061565b6109a981611fb6565b6109b1612061565b167fffffffffffffffffffffffff00000000000000000000000000000000000000007fb8e950798a2a06a6f5727a94041b193569f4f67d69a0de3cf866d93822e7fa005416177fb8e950798a2a06a6f5727a94041b193569f4f67d69a0de3cf866d93822e7fa0055610a1f57005b7fffffffffffffffffffffffffffffffffffffffffffffff00ffffffffffffffff7ff0c57e16840df040f15088dc2f81fe391c3923bec73e23a9662efc9c229c6a0054167ff0c57e16840df040f15088dc2f81fe391c3923bec73e23a9662efc9c229c6a00557fc7f505b2f371ae2175ee4913f4499e1f2633a7b5936321eed1cdaeb6115181d2602060405160018152a1005b7fffffffffffffffffffffffffffffffffffffffffffffff0000000000000000001668010000000000000001177ff0c57e16840df040f15088dc2f81fe391c3923bec73e23a9662efc9c229c6a005583610901565b7ff92ee8a9000000000000000000000000000000000000000000000000000000005f5260045ffd5b90501584610898565b303b159150610890565b849150610886565b346103c7575f6003193601126103c757602073ffffffffffffffffffffffffffffffffffffffff7ff3177357ab46d8af007ab3fdb9af81da189e1068fefdc0073dca88a2cab40a005416604051908152f35b346103c75760206003193601126103c7576004358015610d45576040517f2c2eb94a00000000000000000000000000000000000000000000000000000000815233600482015260248101919091527f000000000000000000000000000000000000000000000000000000000000000073ffffffffffffffffffffffffffffffffffffffff81166044830152602082806064810103815f73ffffffffffffffffffffffffffffffffffffffff7f0000000000000000000000000000000000000000000000000000000000000000165af19182156103d3575f92610d11575b50335f527fcb711bda070b7bbcc2b711ef3993cc17677144f4419b29e303bef375c5f40f0060205273ffffffffffffffffffffffffffffffffffffffff60405f2091165f5260205260405f208054918083018093116103de579190556040805133815260208101929092527f8fe10ae416f22f5e5220b0018a6c1d4ff534d6aa3a471f2a20cb7747fe63e5b99190819081015b0390a1005b9091506020813d602011610d3d575b81610d2d60209383611e85565b810103126103c757519082610c79565b3d9150610d20565b60846040517f08c379a000000000000000000000000000000000000000000000000000000000815260206004820152602760248201527f496e76616c696420616d6f756e7420746f20616c6c6f6361746520696e20636160448201527f6d706169676e2e000000000000000000000000000000000000000000000000006064820152fd5b346103c7575f6003193601126103c757602060405173ffffffffffffffffffffffffffffffffffffffff7f0000000000000000000000000000000000000000000000000000000000000000168152f35b346103c7575f6003193601126103c757610e78604051610e3a604082611e85565b600581527f352e302e300000000000000000000000000000000000000000000000000000006020820152604051918291602083526020830190611f00565b0390f35b346103c7575f6003193601126103c7577ff3177357ab46d8af007ab3fdb9af81da189e1068fefdc0073dca88a2cab40a005460a01c60ff1615610f075760207f8fb36037000000000000000000000000000000000000000000000000000000005b7fffffffff0000000000000000000000000000000000000000000000000000000060405191168152f35b60205f610edd565b346103c75760206003193601126103c757610f28611e23565b73ffffffffffffffffffffffffffffffffffffffff7ff3177357ab46d8af007ab3fdb9af81da189e1068fefdc0073dca88a2cab40a0054163303610fba57803b15610f7857610f7690611fb6565b005b73ffffffffffffffffffffffffffffffffffffffff907fc2f31e5e000000000000000000000000000000000000000000000000000000005f521660045260245ffd5b7f068ca9d8000000000000000000000000000000000000000000000000000000005f523360045260245ffd5b346103c75760406003193601126103c757600435611002611e46565b811561116057335f9081527fcb711bda070b7bbcc2b711ef3993cc17677144f4419b29e303bef375c5f40f006020526040902073ffffffffffffffffffffffffffffffffffffffff7f0000000000000000000000000000000000000000000000000000000000000000165f526020528160405f2054106110dc5773ffffffffffffffffffffffffffffffffffffffff90335f52600260205260405f208282165f526020528260405f205560405192835216907f333ce65bf69c327ddeaef4b3d299b396ffa60f981d2b8b56d24f80e3a43d113c60203392a3005b60846040517f08c379a000000000000000000000000000000000000000000000000000000000815260206004820152602b60248201527f496e73756666696369656e742066756e647320696e2063616d706169676e207460448201527f6f20616c6c6f636174652e0000000000000000000000000000000000000000006064820152fd5b60646040517f08c379a000000000000000000000000000000000000000000000000000000000815260206004820152601e60248201527f496e76616c6964207a65726f2066756e647320616c6c6f636174696f6e2e00006044820152fd5b346103c75760406003193601126103c7576111d7611e23565b73ffffffffffffffffffffffffffffffffffffffff6111f4611e46565b9116805f525f60205260405f205415159081611218575b6020826040519015158152f35b90505f52600260205273ffffffffffffffffffffffffffffffffffffffff60405f2091165f52602052602060405f205415158261120b565b346103c7575f6003193601126103c757602060ff7fcd5ed15c6e187e77e9aee88184c21f4f2182ab5827cb3b7e07fbedcd63f0330054166040519015158152f35b346103c75760406003193601126103c7576113366112ad611e23565b6112b5611e46565b905f60206040516112c581611e69565b82815201525f73ffffffffffffffffffffffffffffffffffffffff604051921691826020820152602081526112fb604082611e85565b604051809581927fa3937111000000000000000000000000000000000000000000000000000000008352602060048401526024830190611f00565b038173ffffffffffffffffffffffffffffffffffffffff7f0000000000000000000000000000000000000000000000000000000000000000165afa9283156103d3575f93611427575b505f52600260205273ffffffffffffffffffffffffffffffffffffffff60405f2091165f5260205260405f205490519081156113fa578190048181029181830414811517156103de57818004600114821517156103de57604091602083516113e681611e69565b838152019081528251918252516020820152f35b7f4e487b71000000000000000000000000000000000000000000000000000000005f52601260045260245ffd5b9092503d805f833e6114398183611e85565b8101906020818303126103c75780519067ffffffffffffffff82116103c75701906080828203126103c757604051916080830183811067ffffffffffffffff8211176115255760405280518352602081015173ffffffffffffffffffffffffffffffffffffffff811681036103c7576020840152604081015160048110156103c757604084015260608101519067ffffffffffffffff82116103c7570181601f820112156103c7578051906114ed82611ec6565b926114fb6040519485611e85565b828452602083830101116103c757815f9260208093018386015e830101526060820152918361137f565b7f4e487b71000000000000000000000000000000000000000000000000000000005f52604160045260245ffd5b346103c7575f6003193601126103c75773ffffffffffffffffffffffffffffffffffffffff7f00000000000000000000000000000000000000000000000000000000000000001630036115c95760206040517f360894a13ba1a3210667c828492db98dca3e2076cc3735a920a3ca505d382bbc8152f35b7fe07c8dba000000000000000000000000000000000000000000000000000000005f5260045ffd5b60406003193601126103c757611605611e23565b6024359067ffffffffffffffff82116103c757366023830112156103c75781600401359061163282611ec6565b916116406040519384611e85565b808352602083019336602483830101116103c757815f9260246020930187378401015273ffffffffffffffffffffffffffffffffffffffff7f000000000000000000000000000000000000000000000000000000000000000016803014908115611a43575b506115c9576044604073ffffffffffffffffffffffffffffffffffffffff7fb8e950798a2a06a6f5727a94041b193569f4f67d69a0de3cf866d93822e7fa0054168151928380927fd1f856ee0000000000000000000000000000000000000000000000000000000082525f60048301523360248301525afa9081156103d3575f916119f6575b50156119725773ffffffffffffffffffffffffffffffffffffffff8116926040517f52d1902d000000000000000000000000000000000000000000000000000000008152602081600481885afa5f918161193e575b506117b157847f4c9c8ce3000000000000000000000000000000000000000000000000000000005f5260045260245ffd5b807f360894a13ba1a3210667c828492db98dca3e2076cc3735a920a3ca505d382bbc8692036119135750823b156118e857807fffffffffffffffffffffffff00000000000000000000000000000000000000007f360894a13ba1a3210667c828492db98dca3e2076cc3735a920a3ca505d382bbc5416177f360894a13ba1a3210667c828492db98dca3e2076cc3735a920a3ca505d382bbc557fbc7cd75a20ee27fd9adebab32041f755214dbc6bffa90cc0225b39da2e5c2d3b5f80a28251156118b6575f8091610f76945190845af43d156118ae573d9161189283611ec6565b926118a06040519485611e85565b83523d5f602085013e6120b8565b6060916120b8565b505050346118c057005b7fb398979f000000000000000000000000000000000000000000000000000000005f5260045ffd5b7f4c9c8ce3000000000000000000000000000000000000000000000000000000005f5260045260245ffd5b7faa1d49a4000000000000000000000000000000000000000000000000000000005f5260045260245ffd5b9091506020813d60201161196a575b8161195a60209383611e85565b810103126103c757519086611780565b3d915061194d565b60846040517f6317e35f00000000000000000000000000000000000000000000000000000000815260206004820152602360248201527f4f6e6c792061646d696e2063616e20706572666f726d2074686973206163746960448201527f6f6e2e00000000000000000000000000000000000000000000000000000000006064820152fd5b90506040813d604011611a3b575b81611a1160409383611e85565b810103126103c75780519081151582036103c7576020015163ffffffff8116036103c7578461172b565b3d9150611a04565b905073ffffffffffffffffffffffffffffffffffffffff7f360894a13ba1a3210667c828492db98dca3e2076cc3735a920a3ca505d382bbc54161415846116a5565b346103c7575f6003193601126103c757602060405173ffffffffffffffffffffffffffffffffffffffff7f0000000000000000000000000000000000000000000000000000000000000000168152f35b346103c75760206003193601126103c7576004357f000000000000000000000000000000000000000000000000000000000000000090611b523373ffffffffffffffffffffffffffffffffffffffff165f527fcb711bda070b7bbcc2b711ef3993cc17677144f4419b29e303bef375c5f40f0060205260405f2090565b73ffffffffffffffffffffffffffffffffffffffff83165f526020528060405f205410611cb5576040517fdbba0f01000000000000000000000000000000000000000000000000000000008152336004820152602481019190915273ffffffffffffffffffffffffffffffffffffffff82166044820152602081806064810103815f73ffffffffffffffffffffffffffffffffffffffff7f0000000000000000000000000000000000000000000000000000000000000000165af19081156103d3575f91611c63575b7fdf8abc6a5b0f90b413231e87356f90121a51d6182d7536cd3cfbccadd5de750e610d0c83611c4b868233611f43565b60408051338152602081019290925290918291820190565b90506020813d602011611cad575b81611c7e60209383611e85565b810103126103c757517fdf8abc6a5b0f90b413231e87356f90121a51d6182d7536cd3cfbccadd5de750e611c1b565b3d9150611c71565b60846040517f08c379a000000000000000000000000000000000000000000000000000000000815260206004820152602960248201527f496e73756666696369656e742066756e647320616c6c6f636174656420696e2060448201527f63616d706169676e2e00000000000000000000000000000000000000000000006064820152fd5b346103c75760206003193601126103c757611d98611d55611e23565b73ffffffffffffffffffffffffffffffffffffffff165f527fcb711bda070b7bbcc2b711ef3993cc17677144f4419b29e303bef375c5f40f0060205260405f2090565b73ffffffffffffffffffffffffffffffffffffffff7f0000000000000000000000000000000000000000000000000000000000000000165f52602052602060405f2054604051908152f35b346103c75760206003193601126103c75760209073ffffffffffffffffffffffffffffffffffffffff611e14611e23565b165f525f825260405f20548152f35b6004359073ffffffffffffffffffffffffffffffffffffffff821682036103c757565b6024359073ffffffffffffffffffffffffffffffffffffffff821682036103c757565b6040810190811067ffffffffffffffff82111761152557604052565b90601f7fffffffffffffffffffffffffffffffffffffffffffffffffffffffffffffffe0910116810190811067ffffffffffffffff82111761152557604052565b67ffffffffffffffff811161152557601f017fffffffffffffffffffffffffffffffffffffffffffffffffffffffffffffffe01660200190565b907fffffffffffffffffffffffffffffffffffffffffffffffffffffffffffffffe0601f602080948051918291828752018686015e5f8582860101520116010190565b73ffffffffffffffffffffffffffffffffffffffff90929192165f527fcb711bda070b7bbcc2b711ef3993cc17677144f4419b29e303bef375c5f40f0060205273ffffffffffffffffffffffffffffffffffffffff60405f2091165f5260205260405f2080549182039182116103de5755565b602073ffffffffffffffffffffffffffffffffffffffff7f2f658b440c35314f52658ea8a740e05b284cdc84dc9ae01e891f21b8933e7cad9216807fffffffffffffffffffffffff00000000000000000000000000000000000000007ff3177357ab46d8af007ab3fdb9af81da189e1068fefdc0073dca88a2cab40a005416177ff3177357ab46d8af007ab3fdb9af81da189e1068fefdc0073dca88a2cab40a0055604051908152a1565b60ff7ff0c57e16840df040f15088dc2f81fe391c3923bec73e23a9662efc9c229c6a005460401c161561209057565b7fd7e6bcf8000000000000000000000000000000000000000000000000000000005f5260045ffd5b906120f557508051156120cd57805190602001fd5b7fd6bda275000000000000000000000000000000000000000000000000000000005f5260045ffd5b81511580612148575b612106575090565b73ffffffffffffffffffffffffffffffffffffffff907f9996b315000000000000000000000000000000000000000000000000000000005f521660045260245ffd5b50803b156120fe56fea26469706673582212200338a97f72b6a167e69951f4bb4c1b7d0f0983eda81b509faba85d230655e16564736f6c634300081a0033","linkReferences":{}},"methodIdentifiers":{"LEDGER_VAULT()":"bc23e35e","MMC()":"44dea5a7","POLICY()":"dadbccee","UPGRADE_INTERFACE_VERSION()":"ad3cb1cc","addFunds(uint256)":"be999705","authority()":"bf7e214f","getFundsBalance(address)":"2a363a90","getLedgerBalance(address,address)":"d949b844","getMaxRateLimit(address)":"01f79600","getPolicyAllocation(address,address)":"c9f196a4","getRateCounter(address)":"c61f19b2","getTerms(address,address)":"5571df93","initialize(address)":"c4d66de8","isActiveCampaign(address,address)":"5d150187","isConsumingScheduledOp()":"8fb36037","paused()":"5c975abb","proxiableUUID()":"52d1902d","removeFunds(uint256)":"2f384523","run(address,address)":"fc4dcacb","setAuthority(address)":"7a9e5e4b","setMaxRateLimit(uint256)":"d1a72b5b","setPolicyAllocation(uint256,address)":"72d2bf09","upgradeToAndCall(address,bytes)":"4f1ef286"},"storageLayout":{"storage":[{"astId":592,"contract":"contracts/incentives/campaigns/SubscriptionCampaign.sol:SubscriptionCampaign","label":"_rateLimits","offset":0,"slot":"0","type":"t_mapping(t_address,t_uint256)"},{"astId":597,"contract":"contracts/incentives/campaigns/SubscriptionCampaign.sol:SubscriptionCampaign","label":"_rateCounter","offset":0,"slot":"1","type":"t_mapping(t_address,t_uint256)"},{"astId":604,"contract":"contracts/incentives/campaigns/SubscriptionCampaign.sol:SubscriptionCampaign","label":"_allocation","offset":0,"slot":"2","type":"t_mapping(t_address,t_mapping(t_address,t_uint256))"}],"types":{"t_address":{"encoding":"inplace","label":"address","numberOfBytes":"20"},"t_mapping(t_address,t_mapping(t_address,t_uint256))":{"encoding":"mapping","key":"t_address","label":"mapping(address => mapping(address => uint256))","numberOfBytes":"32","value":"t_mapping(t_address,t_uint256)"},"t_mapping(t_address,t_uint256)":{"encoding":"mapping","key":"t_address","label":"mapping(address => uint256)","numberOfBytes":"32","value":"t_uint256"},"t_uint256":{"encoding":"inplace","label":"uint256","numberOfBytes":"32"}}},"id":3}