{"abi":[{"type":"constructor","inputs":[{"name":"hub","type":"address","internalType":"address"},{"name":"moduleRegistry","type":"address","internalType":"address"}],"stateMutability":"nonpayable"},{"type":"function","name":"HUB","inputs":[],"outputs":[{"name":"","type":"address","internalType":"address"}],"stateMutability":"view"},{"type":"function","name":"MODULE_REGISTRY","inputs":[],"outputs":[{"name":"","type":"address","internalType":"contract IModuleRegistry"}],"stateMutability":"view"},{"type":"function","name":"getModuleMetadataURI","inputs":[],"outputs":[{"name":"","type":"string","internalType":"string"}],"stateMutability":"view"},{"type":"function","name":"getTipReceiver","inputs":[{"name":"profileId","type":"uint256","internalType":"uint256"},{"name":"pubId","type":"uint256","internalType":"uint256"}],"outputs":[{"name":"","type":"address","internalType":"address"}],"stateMutability":"view"},{"type":"function","name":"initializePublicationAction","inputs":[{"name":"profileId","type":"uint256","internalType":"uint256"},{"name":"pubId","type":"uint256","internalType":"uint256"},{"name":"","type":"address","internalType":"address"},{"name":"data","type":"bytes","internalType":"bytes"}],"outputs":[{"name":"","type":"bytes","internalType":"bytes"}],"stateMutability":"nonpayable"},{"type":"function","name":"isRegistered","inputs":[],"outputs":[{"name":"","type":"bool","internalType":"bool"}],"stateMutability":"view"},{"type":"function","name":"metadataURI","inputs":[],"outputs":[{"name":"","type":"string","internalType":"string"}],"stateMutability":"view"},{"type":"function","name":"owner","inputs":[],"outputs":[{"name":"","type":"address","internalType":"address"}],"stateMutability":"view"},{"type":"function","name":"processPublicationAction","inputs":[{"name":"params","type":"tuple","internalType":"struct Types.ProcessActionParams","components":[{"name":"publicationActedProfileId","type":"uint256","internalType":"uint256"},{"name":"publicationActedId","type":"uint256","internalType":"uint256"},{"name":"actorProfileId","type":"uint256","internalType":"uint256"},{"name":"actorProfileOwner","type":"address","internalType":"address"},{"name":"transactionExecutor","type":"address","internalType":"address"},{"name":"referrerProfileIds","type":"uint256[]","internalType":"uint256[]"},{"name":"referrerPubIds","type":"uint256[]","internalType":"uint256[]"},{"name":"referrerPubTypes","type":"uint8[]","internalType":"enum Types.PublicationType[]"},{"name":"actionModuleData","type":"bytes","internalType":"bytes"}]}],"outputs":[{"name":"","type":"bytes","internalType":"bytes"}],"stateMutability":"nonpayable"},{"type":"function","name":"registerModule","inputs":[],"outputs":[{"name":"","type":"bool","internalType":"bool"}],"stateMutability":"nonpayable"},{"type":"function","name":"renounceOwnership","inputs":[],"outputs":[],"stateMutability":"nonpayable"},{"type":"function","name":"setModuleMetadataURI","inputs":[{"name":"_metadataURI","type":"string","internalType":"string"}],"outputs":[],"stateMutability":"nonpayable"},{"type":"function","name":"supportsInterface","inputs":[{"name":"interfaceID","type":"bytes4","internalType":"bytes4"}],"outputs":[{"name":"","type":"bool","internalType":"bool"}],"stateMutability":"pure"},{"type":"function","name":"transferOwnership","inputs":[{"name":"newOwner","type":"address","internalType":"address"}],"outputs":[],"stateMutability":"nonpayable"},{"type":"event","name":"ModuleRegistered","inputs":[],"anonymous":false},{"type":"event","name":"OwnershipTransferred","inputs":[{"name":"previousOwner","type":"address","indexed":true,"internalType":"address"},{"name":"newOwner","type":"address","indexed":true,"internalType":"address"}],"anonymous":false},{"type":"event","name":"TipCreated","inputs":[{"name":"transactionExecutor","type":"address","indexed":true,"internalType":"address"},{"name":"tipReceiver","type":"address","indexed":true,"internalType":"address"},{"name":"currency","type":"address","indexed":true,"internalType":"address"},{"name":"tipAmount","type":"uint256","indexed":false,"internalType":"uint256"}],"anonymous":false},{"type":"event","name":"TipReceiverRegistered","inputs":[{"name":"profileId","type":"uint256","indexed":true,"internalType":"uint256"},{"name":"pubId","type":"uint256","indexed":true,"internalType":"uint256"},{"name":"tipReceiver","type":"address","indexed":true,"internalType":"address"}],"anonymous":false},{"type":"error","name":"CurrencyNotWhitelisted","inputs":[]},{"type":"error","name":"NotHub","inputs":[]},{"type":"error","name":"TipAmountCannotBeZero","inputs":[]},{"type":"error","name":"TipReceiverNotProvided","inputs":[]}],"bytecode":{"object":"0x60c0346100ea57601f61140538819003918201601f19168301916001600160401b038311848410176100ee5780849260409485528339810103126100ea57610052602061004b83610102565b9201610102565b5f8054336001600160a01b0319821681178355604051949290916001600160a01b0316907f8be0079c531659141344cd1fd0a4f28419497f9722a3daafe3b4186f6b6457e09080a36080526001600160a01b031660a0526112ee908161011782396080518181816102be015281816103780152610b8e015260a05181818161026e0152818161046f0152818161101901526110e60152f35b5f80fd5b634e487b7160e01b5f52604160045260245ffd5b51906001600160a01b03821682036100ea5756fe6080806040526004361015610012575f80fd5b5f3560e01c90816301ffc9a714610c7b5750806303ee438c1461020f5780630b96022014610b135780632236684414610af9578063681591c1146108aa578063715018a61461082e5780638da5cb5b146107fc57806390ce6e081461032e5780639df31650146102e2578063a4c52b8614610292578063b95ddb5214610242578063ce90d52e1461020f578063e0f0da85146101e35763f2fde38b146100b6575f80fd5b346101df5760206003193601126101df5760043573ffffffffffffffffffffffffffffffffffffffff81168091036101df576100f061116a565b801561015b5773ffffffffffffffffffffffffffffffffffffffff5f54827fffffffffffffffffffffffff00000000000000000000000000000000000000008216175f55167f8be0079c531659141344cd1fd0a4f28419497f9722a3daafe3b4186f6b6457e05f80a3005b60846040517f08c379a000000000000000000000000000000000000000000000000000000000815260206004820152602660248201527f4f776e61626c653a206e6577206f776e657220697320746865207a65726f206160448201527f64647265737300000000000000000000000000000000000000000000000000006064820152fd5b5f80fd5b346101df575f6003193601126101df576101fb61116a565b6020610205611089565b6040519015158152f35b346101df575f6003193601126101df5761023e61022a610dec565b604051918291602083526020830190610ec1565b0390f35b346101df575f6003193601126101df57602060405173ffffffffffffffffffffffffffffffffffffffff7f0000000000000000000000000000000000000000000000000000000000000000168152f35b346101df575f6003193601126101df57602060405173ffffffffffffffffffffffffffffffffffffffff7f0000000000000000000000000000000000000000000000000000000000000000168152f35b346101df5760406003193601126101df576004355f52600260205260405f206024355f52602052602073ffffffffffffffffffffffffffffffffffffffff60405f205416604051908152f35b346101df5760206003193601126101df5760043567ffffffffffffffff81116101df578036036101206003198201126101df5773ffffffffffffffffffffffffffffffffffffffff7f00000000000000000000000000000000000000000000000000000000000000001633036107d4577fffffffffffffffffffffffffffffffffffffffffffffffffffffffffffffffdd61010483013591018112156101df57810190600482013567ffffffffffffffff81116101df57602483019080360382136101df576040908401849003126101df57604461042073ffffffffffffffffffffffffffffffffffffffff92610f97565b9301359216906040517ff21b24d700000000000000000000000000000000000000000000000000000000815282600482015260208160248173ffffffffffffffffffffffffffffffffffffffff7f0000000000000000000000000000000000000000000000000000000000000000165afa9081156107c9575f9161079a575b501561077257821561074a5780600401355f52600260205260405f2060248201355f52602052610537608473ffffffffffffffffffffffffffffffffffffffff60405f2054169201838373ffffffffffffffffffffffffffffffffffffffff61050784611068565b167fa97c26bcff37e30b62e8fde0564a6b12c848ec32b59c38db21c5742ff60a2d9460206040518a8152a4611068565b9261063d6040516105cd816105a18587602084019a7f23b872dd000000000000000000000000000000000000000000000000000000008c526024850173ffffffffffffffffffffffffffffffffffffffff6040929594938160608401971683521660208201520152565b037fffffffffffffffffffffffffffffffffffffffffffffffffffffffffffffffe08101835282610dab565b5f806040978851936105df8a86610dab565b602085527f5361666545524332303a206c6f772d6c6576656c2063616c6c206661696c65646020860152519082895af13d15610742573d9061062082610f27565b9161062d89519384610dab565b82523d5f602084013e5b866111e8565b8051908115918215610728575b5050156106a557835173ffffffffffffffffffffffffffffffffffffffff9283166020820152929091166040830152606080830191909152815261023e91610693608083610dab565b51918291602083526020830190610ec1565b608484517f08c379a000000000000000000000000000000000000000000000000000000000815260206004820152602a60248201527f5361666545524332303a204552433230206f7065726174696f6e20646964206e60448201527f6f742073756363656564000000000000000000000000000000000000000000006064820152fd5b61073b9250602080918301019101610fb8565b858061064a565b606090610637565b7f7378d044000000000000000000000000000000000000000000000000000000005f5260045ffd5b7f5f6063cc000000000000000000000000000000000000000000000000000000005f5260045ffd5b6107bc915060203d6020116107c2575b6107b48183610dab565b810190610fb8565b8461049f565b503d6107aa565b6040513d5f823e3d90fd5b7f9de97418000000000000000000000000000000000000000000000000000000005f5260045ffd5b346101df575f6003193601126101df57602073ffffffffffffffffffffffffffffffffffffffff5f5416604051908152f35b346101df575f6003193601126101df5761084661116a565b5f73ffffffffffffffffffffffffffffffffffffffff81547fffffffffffffffffffffffff000000000000000000000000000000000000000081168355167f8be0079c531659141344cd1fd0a4f28419497f9722a3daafe3b4186f6b6457e08280a3005b346101df5760206003193601126101df5760043567ffffffffffffffff81116101df57366023820112156101df576108ec903690602481600401359101610f61565b6108f461116a565b805167ffffffffffffffff8111610acc57610910600154610d5a565b601f8111610a2b575b50602091601f8211600114610973579181925f92610968575b50507fffffffffffffffffffffffffffffffffffffffffffffffffffffffffffffffff8260011b9260031b1c1916176001555f80f35b015190508280610932565b7fffffffffffffffffffffffffffffffffffffffffffffffffffffffffffffffe082169260015f527fb10e2d527612073b26eecdfd717e6a320cf44b4afac2b0732d9fcbe2b7fa0cf6915f5b858110610a13575083600195106109dc575b505050811b01600155005b01517fffffffffffffffffffffffffffffffffffffffffffffffffffffffffffffffff60f88460031b161c191690558280806109d1565b919260206001819286850151815501940192016109bf565b60015f52601f820160051c7fb10e2d527612073b26eecdfd717e6a320cf44b4afac2b0732d9fcbe2b7fa0cf6019060208310610aa4575b601f0160051c7fb10e2d527612073b26eecdfd717e6a320cf44b4afac2b0732d9fcbe2b7fa0cf601905b818110610a995750610919565b5f8155600101610a8c565b7fb10e2d527612073b26eecdfd717e6a320cf44b4afac2b0732d9fcbe2b7fa0cf69150610a62565b7f4e487b71000000000000000000000000000000000000000000000000000000005f52604160045260245ffd5b346101df575f6003193601126101df576020610205610fd0565b346101df5760806003193601126101df57602435600435610b32610f04565b5060643567ffffffffffffffff81116101df57366023820112156101df57806004013567ffffffffffffffff81116101df576024820191818101903660248301116101df5773ffffffffffffffffffffffffffffffffffffffff7f00000000000000000000000000000000000000000000000000000000000000001633036107d45760209103126101df5773ffffffffffffffffffffffffffffffffffffffff610bdb83610f97565b168015610c535761023e948461022a955f52600260205260405f20825f5260205260405f20837fffffffffffffffffffffffff00000000000000000000000000000000000000008254161790557fd8766a4dde1c3b5c500372d6448edb28568eedabe9de08a94992f30a560516825f80a43691610f61565b7f2d89e952000000000000000000000000000000000000000000000000000000005f5260045ffd5b346101df5760206003193601126101df57600435907fffffffff0000000000000000000000000000000000000000000000000000000082168092036101df57817f9b586c280000000000000000000000000000000000000000000000000000000060209314918215610cf4575b50506040519015158152f35b7fffffffff00000000000000000000000000000000000000000000000000000000919250838101907f4c454e535f4d4f44554c450000000000000000000000000000000000000000008252600b8152610d4e602b82610dab565b51902016148280610ce8565b90600182811c92168015610da1575b6020831014610d7457565b7f4e487b71000000000000000000000000000000000000000000000000000000005f52602260045260245ffd5b91607f1691610d69565b90601f7fffffffffffffffffffffffffffffffffffffffffffffffffffffffffffffffe0910116810190811067ffffffffffffffff821117610acc57604052565b604051905f8260015491610dff83610d5a565b8083529260018116908115610e845750600114610e25575b610e2392500383610dab565b565b5060015f90815290917fb10e2d527612073b26eecdfd717e6a320cf44b4afac2b0732d9fcbe2b7fa0cf65b818310610e68575050906020610e2392820101610e17565b6020919350806001915483858901015201910190918492610e50565b60209250610e239491507fffffffffffffffffffffffffffffffffffffffffffffffffffffffffffffff001682840152151560051b820101610e17565b907fffffffffffffffffffffffffffffffffffffffffffffffffffffffffffffffe0601f602080948051918291828752018686015e5f8582860101520116010190565b6044359073ffffffffffffffffffffffffffffffffffffffff821682036101df57565b67ffffffffffffffff8111610acc57601f017fffffffffffffffffffffffffffffffffffffffffffffffffffffffffffffffe01660200190565b929192610f6d82610f27565b91610f7b6040519384610dab565b8294818452818301116101df578281602093845f960137010152565b359073ffffffffffffffffffffffffffffffffffffffff821682036101df57565b908160209103126101df575180151581036101df5790565b6040517f1c5ebe2f00000000000000000000000000000000000000000000000000000000815230600482015260208160248173ffffffffffffffffffffffffffffffffffffffff7f0000000000000000000000000000000000000000000000000000000000000000165afa9081156107c9575f9161104c575090565b611065915060203d6020116107c2576107b48183610dab565b90565b3573ffffffffffffffffffffffffffffffffffffffff811681036101df5790565b611091610fd0565b611165576040517f41ab44ee000000000000000000000000000000000000000000000000000000008152306004820152600160248201526020816044815f73ffffffffffffffffffffffffffffffffffffffff7f0000000000000000000000000000000000000000000000000000000000000000165af19081156107c9575f91611146575b508061111f5790565b7fb24617d9cac8b35b25b3bcaf3eb7e8e8e1cbed6ee116121e4e1c08a9774310625f80a190565b61115f915060203d6020116107c2576107b48183610dab565b5f611116565b600190565b73ffffffffffffffffffffffffffffffffffffffff5f5416330361118a57565b60646040517f08c379a000000000000000000000000000000000000000000000000000000000815260206004820152602060248201527f4f776e61626c653a2063616c6c6572206973206e6f7420746865206f776e65726044820152fd5b9192901561126357508151156111fc575090565b3b156112055790565b60646040517f08c379a000000000000000000000000000000000000000000000000000000000815260206004820152601d60248201527f416464726573733a2063616c6c20746f206e6f6e2d636f6e74726163740000006044820152fd5b8251909150156112765750805190602001fd5b6112b4906040519182917f08c379a0000000000000000000000000000000000000000000000000000000008352602060048401526024830190610ec1565b0390fdfea2646970667358221220a603317607cf6c4d6692310fd4fe8e10e6d1ae6625ec2bcfa004ddd37faf1f8064736f6c634300081a0033","linkReferences":{}},"methodIdentifiers":{"HUB()":"a4c52b86","MODULE_REGISTRY()":"b95ddb52","getModuleMetadataURI()":"ce90d52e","getTipReceiver(uint256,uint256)":"9df31650","initializePublicationAction(uint256,uint256,address,bytes)":"0b960220","isRegistered()":"22366844","metadataURI()":"03ee438c","owner()":"8da5cb5b","processPublicationAction((uint256,uint256,uint256,address,address,uint256[],uint256[],uint8[],bytes))":"90ce6e08","registerModule()":"e0f0da85","renounceOwnership()":"715018a6","setModuleMetadataURI(string)":"681591c1","supportsInterface(bytes4)":"01ffc9a7","transferOwnership(address)":"f2fde38b"},"storageLayout":{"storage":[{"astId":37243,"contract":"contracts/TipActionModule.sol:TipActionModule","label":"_owner","offset":0,"slot":"0","type":"t_address"},{"astId":337,"contract":"contracts/TipActionModule.sol:TipActionModule","label":"metadataURI","offset":0,"slot":"1","type":"t_string_storage"},{"astId":65,"contract":"contracts/TipActionModule.sol:TipActionModule","label":"_tipReceivers","offset":0,"slot":"2","type":"t_mapping(t_uint256,t_mapping(t_uint256,t_address))"}],"types":{"t_address":{"encoding":"inplace","label":"address","numberOfBytes":"20"},"t_mapping(t_uint256,t_address)":{"encoding":"mapping","key":"t_uint256","label":"mapping(uint256 => address)","numberOfBytes":"32","value":"t_address"},"t_mapping(t_uint256,t_mapping(t_uint256,t_address))":{"encoding":"mapping","key":"t_uint256","label":"mapping(uint256 => mapping(uint256 => address))","numberOfBytes":"32","value":"t_mapping(t_uint256,t_address)"},"t_string_storage":{"encoding":"bytes","label":"string","numberOfBytes":"32"},"t_uint256":{"encoding":"inplace","label":"uint256","numberOfBytes":"32"}}},"id":0}